:020000040800F2
:1000000000000120415901082DD600082FD6000814
:1000100031D6000833D6000835D6000800000000AD
:1000200000000000000000000000000037D60008BB
:1000300039D60008000000003BD600083DD6000875
:1000400091590108915901089159010891590108E4
:100050009159010891590108ED2F0008113000084D
:1000600091590108915901089159010891590108C4
:1000700091590108915901089159010891590108B4
:100080009159010891590108915901080000000097
:10009000000000000000000000000000915901086D
:1000A00091590108915901089159010845D6000854
:1000B00055D6000891590108915901089159010834
:1000C0009159010891590108915901089159010864
:1000D0009159010891590108915901080000000047
:1000E0009159010891590108915901080000000037
:1000F000000000000000000000000000915901080D
:100100000000000091590108915901089159010816
:1001100000000000000000000000000000000000DF
:1001200065D60008915901089159010875D6000853
:1001300091590108000000000000000000000000CC
:1001400000000000000000000000000091590108BC
:1001500091590108915901089159010891590108D3
:1001600091590108915901080000000000000000A9
:10017000000000000000000000000000000000007F
:10018000000000009159010800000000000000007C
:040190009159010878
:1001A00010B5054C237833B9044B13B10448AFF3B1
:1001B00000800123237010BD7002002000000000A9
:1001C000686D010808B5034B1BB103490348AFF341
:1001D000008008BD0000000074020020686D010866
:1001E00081F0004102E000BF83F0004330B54FEAE8
:1001F00041044FEA430594EA050F08BF90EA020F55
:100200001FBF54EA000C55EA020C7FEA645C7FEAE7
:10021000655C00F0E2804FEA5454D4EB5555B8BF0A
:100220006D420CDD2C4480EA020281EA030382EA7B
:10023000000083EA010180EA020281EA0303362D0D
:1002400088BF30BD11F0004F4FEA01314FF4801CE0
:100250004CEA113102D0404261EB410113F0004FF2
:100260004FEA03334CEA133302D0524263EB4303A9
:1002700094EA050F00F0A780A4F10104D5F1200E47
:100280000DDB02FA0EFC22FA05F2801841F10001A2
:1002900003FA0EF2801843FA05F359410EE0A5F176
:1002A00020050EF1200E012A03FA0EFC28BF4CF0A7
:1002B000020C43FA05F3C01851EBE37101F000455D
:1002C00007D54FF0000EDCF1000C7EEB00006EEB6A
:1002D0000101B1F5801F1BD3B1F5001F0CD34908F4
:1002E0005FEA30004FEA3C0C04F101044FEA44524B
:1002F00012F5800F80F09A80BCF1004F08BF5FEAD2
:10030000500C50F1000041EB045141EA050130BDB1
:100310005FEA4C0C404141EB010111F4801FA4F154
:100320000104E9D191F0000F04BF01460020B1FAA9
:1003300081F308BF2033A3F10B03B3F120020CDAE1
:100340000C3208DD02F1140CC2F10C0201FA0CF0BF
:1003500021FA02F10CE002F11402D8BFC2F1200C24
:1003600001FA02F120FA0CFCDCBF41EA0C019040DA
:10037000E41AA2BF01EB0451294330BD6FEA040423
:100380001F3C1CDA0C340EDC04F11404C4F120020E
:1003900020FA04F001FA02F340EA030021FA04F320
:1003A00045EA030130BDC4F10C04C4F1200220FA77
:1003B00002F001FA04F340EA0300294630BD21FAB5
:1003C00004F0294630BD94F0000F83F4801306BF7B
:1003D00081F480110134013D4EE77FEA645C18BF6F
:1003E0007FEA655C29D094EA050F08BF90EA020F06
:1003F00005D054EA000C04BF1946104630BD91EAFE
:10040000030F1EBF0021002030BD5FEA545C05D100
:100410004000494128BF41F0004130BD14F580043F
:100420003CBF01F5801130BD01F0004545F0FE41B3
:1004300041F470014FF0000030BD7FEA645C1ABFE8
:10044000194610467FEA655C1CBF0B46024650EA1F
:10045000013406BF52EA033591EA030F41F400214B
:1004600030BD00BF90F0000F04BF0021704730B5D1
:100470004FF4806404F132044FF000054FF00001A6
:1004800050E700BF90F0000F04BF0021704730B567
:100490004FF4806404F1320410F0004548BF40423C
:1004A0004FF000013EE700BF42004FEAE2014FEA91
:1004B00031014FEA02701FBF12F07F4393F07F4F6C
:1004C00081F06051704732F07F4208BF704793F06F
:1004D0007F4F04BF41F40021704730B54FF4607482
:1004E00001F0004521F000411CE700BF50EA010285
:1004F00008BF704730B54FF000050AE050EA01022E
:1005000008BF704730B511F0004502D5404261EB9D
:1005100041014FF4806404F132045FEA915C3FF4DE
:10052000D8AE4FF003025FEADC0C18BF03325FEA7B
:10053000DC0C18BF033202EBDC02C2F1200300FA2C
:1005400003FC20FA02F001FA03FE40EA0E0021FA51
:1005500002F11444BDE600BF70B54FF0FF0C4CF43F
:10056000E06C1CEA11541DBF1CEA135594EA0C0FF1
:1005700095EA0C0F00F0DEF82C4481EA030621EA2C
:100580004C5123EA4C5350EA013518BF52EA033567
:1005900041F4801143F4801338D0A0FB02CE4FF019
:1005A0000005E1FB02E506F00042E0FB03E54FF049
:1005B0000006E1FB03569CF0000F18BF4EF0010E41
:1005C000A4F1FF04B6F5007F64F5407404D25FEA3D
:1005D0004E0E6D4146EB060642EAC62141EA5551F0
:1005E0004FEAC52040EA5E504FEACE2EB4F1FD0C32
:1005F00088BFBCF5E06F1ED8BEF1004F08BF5FEAB0
:10060000500E50F1000041EB045170BD06F0004661
:1006100046EA010140EA020081EA0301B4EB5C040E
:10062000C2BFD4EB0C0541EA045170BD41F4801106
:100630004FF0000E013C00F3AB8014F1360FDEBF2B
:10064000002001F0004170BDC4F10004203C35DA07
:100650000C341BDC04F11404C4F1200500FA05F38A
:1006600020FA04F001FA05F240EA020001F000422B
:1006700021F0004110EBD37021FA04F642EB0601A1
:100680005EEA430E08BF20EAD37070BDC4F10C04CB
:10069000C4F1200500FA04F320FA05F001FA04F28F
:1006A00040EA020001F0004110EBD37041F100017B
:1006B0005EEA430E08BF20EAD37070BDC4F1200586
:1006C00000FA05F24EEA020E20FA04F301FA05F2EE
:1006D00043EA020321FA04F001F0004121FA04F296
:1006E00020EA020000EBD3705EEA430E08BF20EA66
:1006F000D37070BD94F0000F0FD101F000464000A0
:1007000041EB010111F4801F08BF013CF7D041EA21
:10071000060195F0000F18BF704703F00046520025
:1007200043EB030313F4801F08BF013DF7D043EAF6
:100730000603704794EA0C0F0CEA135518BF95EAAC
:100740000C0F0CD050EA410618BF52EA4306D1D133
:1007500081EA030101F000414FF0000070BD50EA52
:10076000410606BF1046194652EA430619D094EADC
:100770000C0F02D150EA013613D195EA0C0F05D1C6
:1007800052EA03361CBF104619460AD181EA03011A
:1007900001F0004141F0FE4141F470014FF00000D2
:1007A00070BD41F0FE4141F4780170BD70B54FF06D
:1007B000FF0C4CF4E06C1CEA11541DBF1CEA1355ED
:1007C00094EA0C0F95EA0C0F00F0A7F8A4EB0504CF
:1007D00081EA030E52EA03354FEA013100F08880C6
:1007E0004FEA03334FF0805545EA131343EA12638F
:1007F0004FEA022245EA111545EA10654FEA002644
:100800000EF000419D4208BF964244F1FD0404F5FC
:10081000407402D25B084FEA3202B61A65EB030558
:100820005B084FEA32024FF480104FF4002CB6EB15
:10083000020E75EB030E22BFB61A754640EA0C0095
:100840005B084FEA3202B6EB020E75EB030E22BFD5
:10085000B61A754640EA5C005B084FEA3202B6EB16
:10086000020E75EB030E22BFB61A754640EA9C00D5
:100870005B084FEA3202B6EB020E75EB030E22BFA5
:10088000B61A754640EADC0055EA060E18D04FEA63
:10089000051545EA16754FEA06164FEAC30343EA03
:1008A00052734FEAC2025FEA1C1CC0D111F4801FD0
:1008B0000BD141EA00014FF000004FF0004CB6E7C9
:1008C00011F4801F04BF01430020B4F1FD0C88BF68
:1008D000BCF5E06F3FF6AFAEB5EB030C04BFB6EB73
:1008E000020C5FEA500C50F1000041EB045170BD66
:1008F0000EF0004E4EEA113114EB5C04C2BFD4EB93
:100900000C0541EA045170BD41F480114FF0000E16
:10091000013C90E645EA060E8DE60CEA135594EA92
:100920000C0F08BF95EA0C0F3FF43BAF94EA0C0F95
:100930000AD150EA01347FF434AF95EA0C0F7FF40A
:1009400025AF104619462CE795EA0C0F06D152EA5E
:1009500003353FF4FDAE1046194622E750EA410642
:1009600018BF52EA43067FF4C5AE50EA41047FF453
:100970000DAF52EA43057FF4EBAE12E74FF0FF3CB8
:1009800006E000BF4FF0010C02E000BF4FF0010C89
:100990004DF804CD4FEA410C7FEA6C5C4FEA430C02
:1009A00018BF7FEA6C5C1BD001B050EA410C0CBF51
:1009B00052EA430C91EA030F02BF90EA020F0020B3
:1009C000704710F1000F91EA030F58BF994208BF1A
:1009D00090422CBFD8176FEAE37040F001007047D7
:1009E0004FEA410C7FEA6C5C02D150EA013C07D12E
:1009F0004FEA430C7FEA6C5CD6D152EA033CD3D079
:100A00005DF8040B704700BF8446104662468C4672
:100A10001946634600E000BF01B5FFF7B7FF0028A5
:100A200048BF10F1000F01BD4DF808EDFFF7F4FFCE
:100A30000CBF012000205DF808FB00BF4DF808ED59
:100A4000FFF7EAFF34BF012000205DF808FB00BF7C
:100A50004DF808EDFFF7E0FF94BF012000205DF89E
:100A600008FB00BF4DF808EDFFF7CEFF94BF012053
:100A700000205DF808FB00BF4DF808EDFFF7C4FF4C
:100A800034BF012000205DF808FB00BF4FEA410C95
:100A90007FEA6C5C02D150EA013C0AD14FEA430C78
:100AA0007FEA6C5C02D152EA033C02D14FF00000B5
:100AB00070474FF0010070474FEA410212F50012F3
:100AC00015D211D56FF47873B3EB625212D94FEA95
:100AD000C12343F0004343EA505311F0004F23FA7F
:100AE00002F018BF404270474FF00000704750EAD4
:100AF000013005D111F0004008BF6FF00040704791
:100B00004FF00000704700BF4A0011D212F50012EA
:100B100011D20DD56FF47873B3EB62520ED44FEA55
:100B2000C12343F0004343EA505323FA02F07047D5
:100B30004FF00000704750EA013002D14FF0FF3013
:100B400070474FF0000070474FEA4102B2F1E043B6
:100B500024BFB3F5001CDCF1FE5C0DD901F0004CA4
:100B60004FEAC0024CEA5070B2F1004F40EB8300F4
:100B700008BF20F00100704711F0804F21D113F120
:100B80003872BCBF01F00040704741F480114FEA59
:100B90005252C2F11802C2F1200C10FA0CF320FAE2
:100BA00002F018BF40F001004FEAC1234FEAD323FF
:100BB00003FA0CFC40EA0C0023FA02F34FEA430369
:100BC000CCE77FEA625307D150EA01331EBF4FF0F2
:100BD000FE4040F44000704701F0004040F0FE400D
:100BE00040F40000704700BF53B94AB9002908BF5C
:100BF00000281CBF4FF0FF314FF0FF3000F072B9FA
:100C0000ADF1080C6DE904CE00F006F8DDF804E063
:100C1000DDE9022304B070472DE9F047089E044641
:100C20008846002B4BD18A42154667D9B2FA82F228
:100C30004AB1C2F1200701FA02F320FA07F7954002
:100C400047EA030894404FEA154E230CB8FBFEF721
:100C50001FFA85FC0EFB178843EA084307FB0CF1DB
:100C6000994209D9EB1807F1FF3080F01B819942B6
:100C700040F21881023F2B445B1AA4B2B3FBFEF092
:100C80000EFB103344EA034400FB0CFCA44509D9D5
:100C90002C1900F1FF3380F00781A44540F2048154
:100CA00002382C4440EA0740A4EB0C0400271EB194
:100CB000D4400023C6E900433946BDE8F0878B42A3
:100CC00009D9002E00F0EB800027C6E90001384664
:100CD0003946BDE8F087B3FA83F7002F47D18B423E
:100CE00002D3824200F2FA80841A61EB03030120EE
:100CF0009846002EE0D0C6E90048DDE702B9FFDEE5
:100D0000B2FA82F2002A40F08F80491B4FEA154E5A
:100D10001FFA85F80127B1FBFEFC230C0EFB1C110A
:100D200043EA014308FB0CF1994207D9EB180CF197
:100D3000FF3002D2994200F2CD808446591AA3B204
:100D4000B1FBFEF00EFB101443EA044408FB00F86C
:100D5000A04507D92C1900F1FF3302D2A04500F2BB
:100D6000B6801846A4EB080440EA0C409FE7C7F1A0
:100D7000200CBB4022FA0CFE4EEA030E01FA07F4E7
:100D800020FA0CF521FA0CF34FEA1E482543B3FB79
:100D9000F8F92C0C08FB19331FFA8EFA44EA0343C6
:100DA00009FB0AF49C4202FA07F200FA07F10BD998
:100DB0001EEB030309F1FF3080F087809C4240F274
:100DC0008480A9F1020973441B1BADB2B3FBF8F098
:100DD00008FB103345EA034400FB0AFAA24508D990
:100DE0001EEB040400F1FF336BD2A24569D902382F
:100DF000744440EA0940A0FB0289A4EB0A044C4574
:100E0000C2464B4654D351D0002E69D0B1EB0A05EF
:100E100064EB030404FA0CFCFD40FC404CEA0505BD
:100E2000C6E90054002747E7C2F1200320FA03F780
:100E3000954001FA02F021FA03F34FEA154E3843C8
:100E4000010CB3FBFEF71FFA85F80EFB173341EADE
:100E5000034107FB08F38B4204FA02F407D969182F
:100E600007F1FF3C2FD28B422DD9023F2944CB1AE8
:100E700081B2B3FBFEF00EFB103341EA034100FBED
:100E800008F38B4207D9691800F1FF3C17D28B4257
:100E900015D902382944C91A40EA07473BE73746C3
:100EA000304609E70746E7E61846FBE64145ABD280
:100EB000B8EB020A69EB0E0201381346A4E760465C
:100EC000E9E7184695E76746D1E781467CE70238AF
:100ED0002C4447E7ACF1020C2B442FE7384608E7D7
:100EE0003746E9E6704700BF000000000000000040
:100EF00001F0FF01102A2BDB10F0070F08D010F8CB
:100F0000013B013A8B422DD010F0070F42B3F6D1CE
:100F1000F0B441EA012141EA014122F007047FF0E7
:100F200000070023F0E80256083C85EA010586EA3E
:100F3000010685FA47F5A3FA87F586FA47F6A5FA7A
:100F400087F68EB9EED1F0BC01F0FF0102F0070286
:100F500032B110F8013B013A83EA010313B1F8D131
:100F60000020704701387047002D06BF3546033812
:100F7000073815F0010F07D1013015F4807F02BF4B
:100F8000013015F4C03F0130F0BC0138704700BF9C
:100F9000034613F8012B002AFBD1181A01387047B9
:100FA00001230370014B00221A64704700080040BF
:100FB00010B54B1E044CE3624910216410460CF03E
:100FC00041FC0023236410BD0008004008B50378ED
:100FD00003B908BDA0224FF48E71FFF7E9FFF8E7CF
:100FE000037803B9704710B50446A0224FF48E7100
:100FF000FFF7DEFF64200CF025FCA0224FF48E7179
:101000002046FFF7D5FF10BD08B5037803B908BD2A
:10101000A02240F61831FFF7CBFFF8E7037803B9B9
:10102000704710B50446A0224FF48E71FFF7C0FF41
:1010300032200CF007FC3C2240F618312046FFF726
:10104000B7FF32200CF0FEFBA02240F28C5120466C
:10105000FFF7AEFF10BD41F29C03C358ABB370B5B0
:1010600084B00D4604464E0013F81120FF2A1CD010
:101070000123694605F0EAFD58BB9DF8083083F06E
:1010800001038DF8083001226946204605F07CFFF7
:1010900041F29C03E25802F81500E35833449DF8EE
:1010A00008205A70012004B070BD00F581501C303A
:1010B00006F00AFE014650B105220DF1090015F0B7
:1010C00033FB01238DF80830DDE700207047002056
:1010D000E9E70020E7E741F29C03C358002B40D02A
:1010E00070B50E46044600F581501C3006F0EAFD4E
:1010F00005460246012130460CF030FBC0B241F2F9
:101100009C03E258044602EB40035B7813F0010FA6
:101110001AD180B2034643B102EB4301497811F082
:10112000010F02D1013B9BB2F5E7A84208D202EBC6
:101130004001497811F0010F02D1013080B2F4E78B
:101140001BB9A8420FD0C0B270BDA84205D0E21AA8
:10115000041BA24203DBC0B2F6E7D8B2F4E7D8B270
:10116000F2E7012070470120EEE700002DE9F04191
:1011700080460C464E888D888B7E13F0010F29D057
:101180001D4B1A881D4B198830460CF0E7FA0746AC
:1011900086B21B4B1A881B4B198828460CF0DEFAC6
:1011A000054680B2A37E13F0010F1CD06680A0809C
:1011B000637E1E2B01D91E236376217E4046FFF7F6
:1011C0008AFF2076FF220A21E07E0CF0C7FAE07643
:1011D000BDE8F08130B20CF0D7FA86B228B20CF03C
:1011E000D3FA85B2CCE738B20CF0C0FA86B228B296
:1011F0000CF0BCFA80B2D9E74A7601084C760108B7
:1012000046760108487601082DE9F04385B0064688
:101210008846002406F581551C35284606F052FD07
:10122000844209DA08EB4403FF2208F81420002264
:101230005A700134E4B2EDE70024A14612E00DF14A
:101240000901284606F04CFD00B2002808DB9DF895
:1012500008302BB108EB400218F81030FF2B19D0E2
:10126000013424B2284606F02DFD84420ADAE7B2A2
:1012700001233A466946304605F0E8FC0028DED0F6
:101280000128EDD1304605F009FC5FFA89F005B080
:10129000BDE8F08308F810709DF80830537009F12C
:1012A00001091FFA89F9DBE708B541F29C03C1582F
:1012B00019B1FFF7A9FF012008BD0020FCE70000DD
:1012C00038B50C461546114600F581501C3006F025
:1012D000FBFCC8B1014615B103784E2B07D105229E
:1012E000204615F021FA00236371204638BD094BD2
:1012F000186820601B79204600F8043F052215F08D
:1013000013FA00236372F0E7034B03CB20606160A4
:10131000EBE700BF9C760108A476010808B541F20E
:101320005403C25C0149FFF7CBFF08BD8C020020CB
:101330002DE9F8439DF8209041F29C0450F804C038
:10134000BCF1000F05D01F46164680464C1E0325F3
:1013500013E0002107E001EB4104A0001044002449
:1013600084700131C9B29942F5D300204FE0013DAC
:1013700015F0FF0527D0013C24B2002C09DDB9F19E
:10138000000FF4D00CEB44035B7813F0010FF2D0A4
:10139000EDE7002517E005EB45029300F118E2B2F6
:1013A000F25441F29C0358F8033003EB44035B789A
:1013B0004B7002314046FFF783FF0135EDB2BD426D
:1013C00018D2013424B208F581501C3006F07AFCA2
:1013D00084420FDA002CF4D0B9F1000FDBD041F2D7
:1013E0009C0358F8033003EB44035B7813F0010FC0
:1013F000D1D1E6E72946B94208D201EB4103980072
:101400003044002383700131C9B2F4E72846BDE8B7
:10141000F8834288C38B9A4201D0002070478288AB
:10142000038C9A4201D000207047C288438C9A42B4
:1014300001D000207047828A038E9A4201D000209A
:101440007047827D90F832309A4201D00020704778
:10145000027E90F834309A4201D000207047427EDC
:1014600090F835309A4201D000207047827E90F883
:1014700036309A4201D000207047C27D90F8333058
:101480009A4206D1C27E90F837309A4203D00020AB
:1014900070470020704701207047EB2343804FF4D2
:1014A000967383804FF49663C380012303760023F1
:1014B000437683820522827533228276C37540F695
:1014C000FC0303813223438140F2DF238381C8235D
:1014D000C38140230382C32343828023C3767047A2
:1014E0002DE9F84F044693461D469DF828A09DF827
:1014F0002C909DF830809DF834709DF83860837E84
:1015000003F001034176BDF83C2082829DF8402023
:101510008275AB420BD0002D3DD0B0F902000CF02B
:1015200033F96080B4F904000CF02EF9A080002398
:10153000A3760DB10123A376BBF1000F03D0A37EE8
:1015400043F00203A376BAF1000F03D0A37E43F069
:101550000403A376B9F1000F03D0A37E63F07F03E9
:10156000A376B8F1000F03D0A37E43F01003A37657
:101570001FB1A37E43F02003A3761EB1A37E43F0E8
:101580000803A376FF220A219DF844000CF0E6F838
:10159000E076BDE8F88FB0F902000CF0E7F8608063
:1015A000B4F904000CF0E2F8A080C0E74180704775
:1015B0008180C280704730B4046841688268C56821
:1015C000C461016242628562046941698269C462E0
:1015D0000163426330BC704738B5054600F581545D
:1015E0001C342046FFF715FF00B138BD21462846C0
:1015F00005F094FC2046FFF7DEFFF6E710B5AAB130
:101600000A6841F24A03C2524A6841F24C03C2528C
:101610008A6841F24E03C25200F581541C342146BF
:1016200005F07CFC2046FFF7C6FF10BD0A6841F2BA
:101630004403C2524A6841F24603C2528A6841F2E8
:101640004803C252E8E730B4034653F81C4F5968C8
:101650009A68DD68046041608260C5601C695969F0
:101660009A6904614161826130BC7047C07D0009A4
:1016700000EB80007047C37D03F00F03013303EBE1
:1016800083039800704700004B2900D94B21B2F525
:10169000A07F03D8042A03D8052201E04FF4A072EA
:1016A0000B1DDBB20849A1FB03139B081B01DBB236
:1016B000013A064981FB02C1D217C2EBE10202F0F6
:1016C0000F021343C3757047CDCCCCCC67666666FA
:1016D00010B5044632B94B8A0A8AC9890BF04CFB13
:1016E000204610BD8B894A8909890BF045FBF7E735
:1016F00010B5044632B93223402296210BF03CFB50
:10170000204610BDC8230A2240F23F210BF034FBD3
:10171000F6E770B40E8893009C1865004419465390
:101720004D8865808D88A580CD88E5800D7A2572ED
:1017300091F90E10617270BC704701EB81014B0092
:10174000184490F909007047032905D802EB82027A
:10175000114430F8110070470020704703290BD85E
:10176000012A04D0083100EB4101888870470C3110
:1017700000EB410188887047002070472DE9F04751
:1017800082B005460F46924600F58354143400217A
:101790002046FFF7E3FF804641F2500902463946F2
:1017A00035F809000BF0DAFF86B225F809605246D9
:1017B00000212046FFF7C8FF00900023424639462B
:1017C00030460BF097FF80B202B0BDE8F087000012
:1017D0002DE9F04F85B00646884691461C461946CD
:1017E0009B0023445A00831893F90900A9EB0007D2
:1017F000B55A454513D804EB840253003344DD88C1
:10180000454540D30125032D71D801EB81032B44BD
:1018100036F813A0C24519D80135EDB2F3E72246D8
:1018200000213046FFF79AFF384400904B462A4685
:10183000002140460BF05EFF00B240F2E73249461D
:101840000BF08CFF80B205B0BDE8F08F6A1E04EB90
:1018500084031A4436F812B0691E2246C9B23046D3
:10186000FFF77CFFC3190393224629463046FFF752
:1018700075FF38440090039B5246594640460BF092
:1018800039FF00B2D9E704EB840253003344B3F8C4
:1018900002A0554515D8224601213046FFF75EFFCC
:1018A000C519224603213046FFF758FF3844114B33
:1018B0001A8800902B46514640460BF01BFF00B2A1
:1018C000BBE7224601213046FFF748FF00EB070B3C
:1018D000224603213046FFF741FF384400905B4623
:1018E0002A46514640460BF005FF00B2A5E700200E
:1018F000A3E700BF5276010810B5044600F58350F7
:101900001430FFF765FF04F581531C339B7E13F001
:10191000010F00D010BD00B20BF028FF80B2F9E734
:101920002DE9F04F85B00546039116461C4600F59B
:10193000835808F1140819464046FFF7FEFE371A8F
:10194000224600214046FFF709FFBFB238441FFA84
:1019500080F9224603214046FFF700FF0744BFB24B
:10196000012C35D0484BB3F800A0012C34D0474BA4
:10197000B3F800B005F581531C339B7E13F0010FC3
:101980002ED05A46514603980BF0E8FE1FFA80FA13
:101990003F4BB3F800B0224600214046FFF7D4FE8B
:1019A0000390224603214046FFF7CEFE0090039BA2
:1019B0003A46494650460BF09DFE80B2B0EB5B0FB5
:1019C00025DDA0EBAB07BFB24FF00008C1463BE0FE
:1019D000304BB3F800A0C8E72F4BB3F800B0C9E70D
:1019E0000FFA89F00BF0C2FE1FFA80F938B20BF043
:1019F000BDFE87B20FFA8AF00BF0B8FE1FFA80FA2C
:101A00000FFA8BF00BF0B2FE1FFA80FBB9E75F46CE
:101A1000BBF1000F03DB00EBA707BFB2D4E70BF16C
:101A20000307F8E77B1CB9469FB209E009EB0703FF
:101A300003EBD373C3F34F039F421CD0BB461F4637
:101A400008F101085FFA88F8B8F1130F17D8234698
:101A5000324639462846FFF74FFF82450FD0E5D979
:101A600007EB0B0303EBD373C3F34F039F42D9D0B0
:101A7000B9461F46E4E77B1EBB469FB2E0E7384607
:101A800005B0BDE8F08F00BF4C7601084A7601082A
:101A90005276010848760108467601080023032B98
:101AA0000ED810B402EB82041C4430F8144021F824
:101AB00013400133DBB2032BF4D95DF8044B7047BC
:101AC0007047000070B40024032C09D831F814606A
:101AD00003EB8305254420F815600134E4B2F3E7F5
:101AE0009C001C4461000C4601444A7203220A72A5
:101AF000C988044A1288914201D92044C28070BC2E
:101B0000704700BF5276010830B48B005A18540059
:101B100002194FF42A7505534FF47174548040F242
:101B20000A5494804FF4C864D480034C24785472CF
:101B30000123137230BC70474476010808B5FFF7E3
:101B4000E3FF08BD0A884B889A4207D28A889342ED
:101B500006D2CB889A4205D30020704700207047F8
:101B6000002070470120704770B584B041F29C039B
:101B7000C358002B4DD00D46044613F81120FF2A00
:101B80000CD100F58350143031B10021FFF7BCFFB8
:101B90000026304604B070BD0121F7E700236946F6
:101BA00005F054F850B104F58350143025B10021EC
:101BB000FFF7AAFF0026ECE70121F9E79DF80830BE
:101BC00013F0020F0AD104F58350143025B100211F
:101BD000FFF79AFF0126DCE70121F9E704F58354BA
:101BE000143469462046FFF7ADFF064640B92DB1D3
:101BF00000212046FFF788FF0126CAE70121F8E708
:101C00002DB9012269462046FFF783FDC1E7002276
:101C1000F8E70026BDE770B5044604F0CCFF0028C5
:101C20003DD104F581501C3006F04CF8400014F012
:101C3000EBFB41F29C03E05010B301462046FFF756
:101C4000E3FA064604F581551C352946204605F081
:101C500077F8B8B129462046FFF788FA00212046D8
:101C6000FFF782FF41F25403E15C2046FFF77CFF5F
:101C700004F581501C30FFF79EFC66B3002027E07E
:101C80000026DFE704F581501C30FFF706FC41F227
:101C90005405615D2046FFF71EFA6055DEE70646F3
:101CA00004F581551C352846FFF7F7FB012104F5A3
:101CB00083501430FFF728FF01212046FFF754FF1F
:101CC0002846FFF778FC012E07D0022E01D0002015
:101CD00070BD0320FCE70120FAE70220F8E738B5E1
:101CE00004460D46FFF740FF00B938BD41F25403EA
:101CF000E5542046FFF770FCF7E72DE9F04184B08A
:101D000004460F461D461388ADF800305388ADF8E1
:101D100002309388ADF80430D388ADF806308DF8E2
:101D200008509DF928308DF80E3041F29C03C358BD
:101D30004E0033445D7000F581501C3005F0C4FF47
:101D400038B18046694604F583501430FFF7FAFE37
:101D500038B904F584501830FFF760F904B0BDE8D5
:101D6000F081052241460DF1090014F0DDFC00224E
:101D70006946204605F008F9B0F10008E9DD04F5F0
:101D800084501830FFF722F941F29C03E25802F820
:101D90001780E3581E447570E0E790F82101704702
:101DA00090F825017047704770477047704770473B
:101DB000704770477047704770477047704770476B
:101DC0007047704738B50A4B1B783BB100204FF085
:101DD0008043586303F58033186438BD0446044DCE
:101DE0001422291D03480BF007FE2C700120F4E794
:101DF00098020020106B002070B5064603460F4A7B
:101E000043F8402B046C5D6800E01834A54207D00D
:101E1000234653F8080B9842F7D013F0CBFDF4E7B4
:101E2000306C08B113F0C6FDB06A06F13003984279
:101E300001D013F0BFFD304670BD00BFB47401087F
:101E400008B5084612F058FD08BD08B5084612F05E
:101E500049FD08BD08B5084612F03AFD08BD08B5B1
:101E600012F02CFD08BD08B512F01EFD08BD0000E3
:101E700070B5064600F58555124B2B6005F2F460EF
:101E800012F088FE05F5DE6011F0CFFC05F2EC6083
:101E900011F0CBFC05F5DD6011F0C7FC05F1640421
:101EA00068350CD004F5CF64A54208D01C3C6068AE
:101EB00004F10C039842F7D013F07CFDF4E73046B0
:101EC00070BD00BF986D01082DE9F04182B0064653
:101ED000002441F22803C45441F22A034FF48052F3
:101EE000C25241F22C03DD4AC25041F23003DC4AB7
:101EF000C25041F23403DB4AC25041F23803DA4A9D
:101F0000C25000F58352D94B03CB9062D16203CB10
:101F10001063516306F584501830FFF741F841F221
:101F20009C03F45006F58555281D13F053FA85F8E7
:101F30005040A5F85440AC65EC65A5F8604085F8C4
:101F4000624005F1640385F86440C94A5A6005F1AE
:101F500074029A60DC601C74C64A1A6205F1900231
:101F60005A629C6283F82C40C34ADA6305F1AC02E2
:101F70001A645C6483F84840C04A9A6505F1C80257
:101F8000DA651C6683F86440BD4A5A6705F1E402CD
:101F90009A67DC6783F88040BA4AC3F8902005F559
:101FA0008072C3F89420C3F8984083F89C40B64AE6
:101FB000C3F8AC2005F58E72C3F8B020C3F8B44066
:101FC00083F8B840B14AC3F8C82005F59C72C3F83D
:101FD000CC20C3F8D04083F8D440AD4AC3F8E42005
:101FE00005F5AA72C3F8E820C3F8EC4083F8F04086
:101FF000A84AC3F8002105F5B872C3F80421C3F854
:10200000084183F80C41A449C3F81C1105F5C672B8
:10201000C3F82021C3F8244183F828419F4AC3F81C
:10202000382105F5D472C3F83C21C3F8404183F848
:1020300044419B4AC3F8542105F5E272C3F8582184
:10204000C3F85C4183F86041964AC3F8702105F5F6
:10205000F072C3F87421C3F8784183F87C41924A46
:10206000C3F88C2105F5FE72C3F89021C3F89441A2
:1020700083F898418D4AC3F8A82105F50672C3F884
:10208000AC21C3F8B04183F8B441894AC3F8C421F4
:1020900005F50D72C3F8C821C3F8CC4183F8D041CF
:1020A000844AC3F8E02105F51472C3F8E421C3F8AB
:1020B000E84183F8EC41804AC3F8FC2105F51B7226
:1020C000C3F80022C3F8044283F808427B4AC3F8ED
:1020D000182205F52272C3F81C22C3F8204283F8A7
:1020E0002442774AC3F8342205F52972C3F838220E
:1020F000C3F83C4283F84042724AC3F8502205F5C7
:102100003072C3F85422C3F8584283F85C426E4AD6
:10211000C3F86C2205F53772C3F87022C3F8744215
:1021200083F87842694AC3F8882205F53E72C3F8FD
:102130008C22C3F8904283F89442654AC3F8A422E3
:1021400005F54572C3F8A822C3F8AC4283F8B04243
:10215000604AC3F8C02205F54C72C3F8C422C3F824
:10216000C84283F8CC425C4AC3F8DC2205F55372BE
:10217000C3F8E022C3F8E44283F8E842574AC3F8C0
:10218000F82205F55A72C3F8FC22C3F8004383F81D
:102190000443534AC3F8142305F56172C3F81823A6
:1021A000C3F81C4383F820434E4AC3F8302305F597
:1021B0006870C3F83403C3F8384383F83C43C3F86A
:1021C0004C1305F56F71C3F85013C3F8544383F8EB
:1021D00058434549C3F8681305F57671C3F86C1385
:1021E000C3F8704383F874434049C3F8841305F57A
:1021F0007D71C3F88813C3F88C4383F890433C493E
:10220000C3F8A01305F58261C3F8A413C3F8A8436B
:1022100083F8AC43C3F8BC2305F22C42C3F8C023B7
:10222000C3F8C44383F8C843324AC3F8D82305F53A
:102230008962C3F8DC23C3F8E04383F8E4432E4A01
:10224000C3F8F42305F26442C3F8F823C3F8FC434F
:1022500083F80044294AC3F8102451E0AC76010801
:10226000B8760108C4760108D0760108806D0108AF
:10227000DC760108E8760108F476010804770108A5
:1022800014770108207701082C7701083C770108B2
:102290004C770108587701086077010868770108D2
:1022A000707701087877010888770108947701082A
:1022B000A0770108AC770108B8770108C477010856
:1022C000D4770108E4770108F0770108F87701086E
:1022D000007801080C7801081878010828780108AE
:1022E000347801083C7801084478010850780108E6
:1022F0005C7801086C780108747801087878010826
:1023000005F59062C3F81424C3F8184483F81C44FC
:10231000EC4AC3F82C2405F29C42C3F83024C3F8DD
:10232000344483F83844E84AC3F8482405F59762F2
:10233000C3F84C24C3F8504483F85444E34AC3F828
:10234000642405F2D442C3F86824C3F86C4483F8CB
:102350007044DF4AC3F8802405F59E62C3F88424E4
:10236000C3F8884483F88C44DA4AC3F89C2405F205
:102370000C52C3F8A024C3F8A44483F8A844D64A56
:10238000C3F8B82405F5A562C3F8BC24C3F8C0445B
:1023900083F8C444D14AC3F8D42405F24452C3F8A4
:1023A000D824C3F8DC4483F8E044CD4AC3F8F024D1
:1023B00005F5AC62C3F8F424C3F8F84483F8FC4490
:1023C000C84AC3F80C2505F27C52C3F81025C3F89F
:1023D000144583F81845C44AC3F8282505F5B362A7
:1023E000C3F82C25C3F8304583F83445BF4AC3F8F9
:1023F000442505F2B452C3F84825C3F84C4583F888
:102400005045BB4AC3F8602505F5BA62C3F8642598
:10241000C3F8684583F86C45B64AC3F87C2505F2D5
:10242000EC52C3F88025C3F8844583F88845B24A46
:10243000C3F8982505F5C162C3F89C25C3F8A045EB
:1024400083F8A445AD4AC3F8B42505F22462C3F865
:10245000B825C3F8BC4583F8C045A94AC3F8D025C0
:1024600005F5C862C3F8D425C3F8D84583F8DC4520
:10247000A44AC3F8EC2505F25C62C3F8F025C3F862
:10248000F44583F8F845A04AC3F8082605F5CF625D
:10249000C3F80C26C3F8104683F814469B4AC3F8C9
:1024A000242605F29462C3F82826C3F82C4683F844
:1024B0003046974AC3F8402605F5D662C3F844264D
:1024C000C3F8484683F84C46924AC3F85C2605F2A6
:1024D000CC62C3F86026C3F8644683F868468E4B26
:1024E0002B60A5F8DC464FF6FF73A5F8DE364FF4F7
:1024F0007842A5F8E0261F22A5F8E2264FF6E07202
:10250000A5F8E426C5F8E846C5F8EC46C5F8F04657
:10251000C5F8F44685F8F836C823A5F8FA36A5F8C4
:10252000FC363C23A5F8FE369623A5F800371E237B
:10253000A5F80237D723A5F80437784BC5F8083734
:10254000774BC5F80C3741F2B077F31914255D606D
:102550001C815C81DC600A20186158619C610B223F
:102560009A83704A127883F8624083F8604083F857
:10257000612083F8A64083F8A44083F8A52083F85F
:10258000EA4083F8E84083F8E920A3F8EC40A3F898
:10259000EE40A3F8F040A3F8F24083F8F440C3F80B
:1025A000F84083F8FC4083F8FD40A3F8FE40A3F810
:1025B0000041A3F80241C3F80441082283F808212E
:1025C000C3F80C4183F80821C3F80C4183F81021AB
:1025D000C3F8144183F81021C3F8144183F818217B
:1025E000C3F81C4183F81821C3F81C4183F820412B
:1025F00083F821414FF4C87CA3F822C14FF4FA714B
:10260000A3F8241183F82821C3F82C4183F828214A
:10261000C3F82C4183F8304183F83141A3F832C12B
:10262000A3F8341183F8380183F83921A3F83A115B
:102630004FF47A70A3F83C01032183F83E110E2178
:1026400083F83F1183F84051052183F841114FF081
:10265000020883F842816421C3F8441140F63C7CAF
:10266000A3F848C1DFF8C0C046F807C0A3F84A4144
:10267000A3F84C41A3F84E41A3F8504183F85241CE
:1026800083F85341A3F8544183F85821C3F85C41BF
:1026900083F85821C3F85C4183F86021C3F8644192
:1026A00083F86021C3F8644183F86821C3F86C4162
:1026B00083F86821C3F86C4183F87021C3F8744132
:1026C00034E000BF7C780108847801088C78010828
:1026D000947801089C780108A4780108AC78010876
:1026E000B4780108BC780108C0780108C8780108EE
:1026F000D0780108DC780108E8780108F47801084E
:10270000007901081479010828790108387901084D
:102710004879010860790108986D0108A47A0108D8
:1027200098820108507601080C74010883F8702122
:10273000C3F8744140F2CF72A3F87821A3F87A016C
:1027400083F87C51A3F87E11724F012300933B461E
:102750004FF48072704906F5C950103004F020F82B
:10276000CDF800803B464FF400426C4906F5CB5053
:102770001C3004F015F841F6C817F3195D601C8190
:102780005C81DC600A20186158619C610B2199838F
:102790006349097883F8624083F8604083F86110E8
:1027A00083F8A64083F8A44083F8A51083F8EA4094
:1027B00083F8E84083F8E910A3F8EC40A3F8EE4072
:1027C000A3F8F040A3F8F24083F8F440C3F8F840CF
:1027D00083F8FC4083F8FD40A3F8FE40A3F80041D5
:1027E000A3F8024183F80441C3F80841082183F8A3
:1027F0000C11C3F8104183F80C11C3F8104183F891
:10280000144183F815414FF4C87CA3F816C14FF466
:10281000FA75A3F8185183F81C11C3F8204183F806
:102820001C11C3F8204183F8244183F82541A3F803
:1028300026C1A3F82851A3F82C514FF47A75A3F8B8
:102840002E511E2583F830513C2583F8315183F8F1
:1028500032010120C3F834013248F05183F8384185
:1028600083F8394183F83A41A3F83C41A3F83E414B
:10287000C3F840412C48007883F84411C3F848411C
:1028800083F84401C3F8484183F84C11C3F8504120
:1028900083F84C01C3F8504183F85411C3F85841F0
:1028A00083F85411C3F8584183F85C11C3F86041B0
:1028B00083F85C11C3F8604183F86411C3F8684180
:1028C00083F86411C3F86841A3F86C41462283F889
:1028D0006E21632283F86F214FF41672A3F87021E2
:1028E00040F2CF72A3F872214FF4C862A3F87421AA
:1028F0004FF44872A3F87621A3F878510B4AC3F835
:102900007C2106F5DA500844FEF74AFB304602B057
:10291000BDE8F081000402400000024000080240CF
:1029200050760108CC7301084F760108E09304004B
:10293000014B93F82C0070479802002038B50AF03C
:102940007BFF00F596751C4B5B6A9BB29C1CA4B286
:10295000632C02D9A3F16104A4B20AF06DFFA8426E
:1029600007D2154B5B6AA342F7D14FF08043002298
:102970005A620AF061FF00F596750F4B5B6A9BB2D5
:102980009C1CA4B2632C02D9A3F16104A4B20AF086
:1029900053FFA84208D2084B5B6AA342F7D14FF01D
:1029A0008043586A80B205E04FF08043D86A80B215
:1029B000013080B238BD00BF0000014030B585B0A5
:1029C000234C01210291019100910B4600222046E7
:1029D00003F0A9FFA4F6DC0400224FF6FF712046A5
:1029E00001F09EF93521204601F0C8FC8023A4F5B2
:1029F000855141F2F0028B54164A5363022507E0D9
:102A0000134803F01CFFF0B9134801F06FF9B0B997
:102A1000124A41F69813D45AE4B2A542F0D0104DB0
:102A2000382128460AF072F9B4FA84F35B0964226B
:102A30000146A5F1640002F0FFFB2546E0E7052012
:102A40000AF000FFE4E7B4FA84F0400905B030BDB5
:102A5000E45100200004004058490020683800205C
:102A60006C4900202DE9F04786B0044600F58550FA
:102A700001F076F804F5BD50103005F00DF804F5BE
:102A8000CE50083004F054FC04F5C95808F1100881
:102A90004FF400722149404603F0C5FE04F5CB57C0
:102AA0001C374FF480421E49384603F0BCFE2046D6
:102AB000FFF7B1F8814604F581561C366D460122B8
:102AC00031462846FEF704FE294604F5BD50143071
:102AD0000AF059F90DF10C0A002231465046FEF772
:102AE000F7FD9AE8070085E80700294604F5CE506F
:102AF0000C300AF048F9B37EC3F3400141F6483286
:102B0000A154C3F3001288F83E20C3F3401387F8A2
:102B10003E30484606B0BDE8F08700BF00000240E6
:102B2000000802402DE9F047DFF8DC914846FFF746
:102B300099FF80466F4C0C2120460DF019F90821B1
:102B400020460DF075F86C4C002120460DF010F970
:102B5000042120460DF00CF9082120460DF068F8FC
:102B60000C2120460DF064F80C2164480DF000F9AA
:102B7000634E644D05F1300A05F1B0043346524608
:102B80003146204607F0BEFB05F5867733463A46C8
:102B90002146504607F0B6FB3346224621463846CA
:102BA00007F0B0FB23462246214605F59A7007F050
:102BB000A9FB05F5C87723462246394605F5E0709E
:102BC00007F0A0FB234622462146384607F09AFB31
:102BD00023462246214605F5FC7007F093FB234669
:102BE0002246214605F5097007F08CFB2346324644
:102BF000314605F5137007F085FB05F51E77234672
:102C000022462146384607F07DFB234622463146C0
:102C100005F52A7007F076FB23462246314605F576
:102C2000377007F06FFB234622462146304607F0F7
:102C300069FB05F5457633462246214605F5527077
:102C400007F060FB234622462146304607F05AFB38
:102C500023462246214605F55B7007F053FB3B46B1
:102C60003A46214605F5707007F04CFB00224FF6FE
:102C7000FF7109F5855001F053F8B8F1020F1ED02D
:102C8000B8F1030F24D0B8F1010F13D0FFF756FEAF
:102C90004FF47A700AF0D6FD1B4B41F25702995C53
:102CA00041F2F0029954194B186803681B68984761
:102CB000BDE8F087154B04F15C021A60E6E7114BA2
:102CC000352283F8482203F50973104A1360DDE7C3
:102CD000FFF774FE0028D9D00B4803F0EFFE002860
:102CE000D4D1084B392283F8482203F50973074AE7
:102CF0001360CBE7B86B0020586C0020806A00207E
:102D0000B40600209802002068380020040000204B
:102D100038B5354C204604F095FE04F5067004F0F5
:102D2000A1FA324B186807F0F1FA20B104462F4B94
:102D30001B6883422AD12D4D286803685B68984739
:102D400004462B68834215D0002833D0264D00213D
:102D5000284604F063FD002105F5067004F05DFBD4
:102D60004FF0804300225A63204B1C6023681B688D
:102D7000204698470AF060FD1D4BD3F81434984262
:102D80001AD21C4800F0B2FF48BB38BD1A4D284685
:102D9000FEF726F90021A5F5667004F03FFD4FF01F
:102DA000804300225A63114B1C6023681B68204635
:102DB0009847EAE7114CC9E7114A536A0C4CD4F81A
:102DC00018145B1A18BF012384F82C30536AC4F816
:102DD00018340AF031FD2930C4F81404D1E7052075
:102DE0000AF030FDD1E700BF185000200400002099
:102DF0009802002058490020B0530020BC04002055
:102E00000000014008B50368144A934203D0B3F1AF
:102E1000804F0DD008BD027F042AF8D1104804F07D
:102E2000B3FB632200210AF099FC0C4B1864F1E714
:102E3000037F042B05D0082BECD10220FEF7C2FF44
:102E4000E8E74FF080435B6B23B94FF080439B6B07
:102E5000002BDFD00120FEF7B5FFDBE700000140CB
:102E6000305200200268564B9A4200D0704710B58D
:102E700086B054480AF072FE534B1B78DBB2022B2B
:102E800009D0514B1B78DBB2012B60D04E4B002296
:102E90001A7006B010BD0023019302930393132B05
:102EA00018D8991C484A02EB4101888801990144CD
:102EB0000191D91C02EB41018888029901440291D9
:102EC000191D02EB41029188039A0A4403920533CB
:102ED000DBB2E4E7019B02330193019B9B08019362
:102EE000029B02330293029B9B080293039B0233D3
:102EF0000393039B9B080393039934480AF0C4F897
:102F0000334A1379013BDBB213718BB913460622A6
:102F10001A7101242F4A41F6D103D35C53B94FF003
:102F200080435C63029989B22B4804F042FAADE712
:102F30000024EFE70199294804F0E4FD4FF4F5621D
:102F400021460AF00BFC4FF080435863EAE7002368
:102F5000049305930FE01C4A02EB4301888804990F
:102F600001440491591C02EB41029188059A0A44DC
:102F700005920533DBB2132BEDD9049B0233049386
:102F8000049B9B080493059B02330593059B9B08B8
:102F900005934FF080435B6B5BB94FF080439B6BB5
:102FA000002B3FF473AF059989B20D480AF00EF972
:102FB0006CE7049989B20B480AF008F9EDE700BF05
:102FC00000200140106B00209802002028510020B2
:102FD00004000020683800203052002018500020E3
:102FE0004C530020305100207047000008B5064BBC
:102FF0005B6913F0010F00D108BD044803F0A6FC83
:10300000014B01225A61F7E7003C01409851002032
:1030100008B5064B5B6913F0020F00D108BD0448E8
:1030200003F094FC014B02225A61F7E7003C014097
:10303000E451002038B50C461546AC4204D254F891
:10304000040B12F0B7FCF8E738BD10B5044603686E
:103050003BB1426A04324169FFF7ECFF206812F08D
:10306000A9FC204610BD2DE9F04188461746CE68E0
:1030700004360BE01834A54207D0234653F8080B5A
:103080008342F7D012F096FCF4E70436FB68B342B3
:1030900003D9346804F5FC75EDE7D8F80C209342A9
:1030A0001DD0D8F80040D8F8085000E01834A542E8
:1030B00007D0234653F8080B9842F7D012F07AFC59
:1030C000F4E77C683D6800E01834A54216D023463A
:1030D00053F8080B9842F7D012F06CFCF4E7D8F8DC
:1030E00000403D6800E01834A54207D0234653F85D
:1030F000080B9842F7D012F05DFCF4E7BDE8F081D0
:1031000038B50C461546AC4204D254F8040B12F004
:1031100051FCF8E738BD10B5044603683BB1426A7C
:1031200004324169FFF7ECFF206812F043FC2046AF
:1031300010BD2DE9F04188461746CE68043619E0E7
:10314000234653F8080B984201D012F033FC483460
:10315000A5420ED0206B04F13803984201D012F042
:1031600029FCA06904F120039842E9D012F022FC66
:10317000E6E70436FB68B34203D9346804F5FC750E
:10318000E6E7D8F80C20934239D0D8F80040D8F8B8
:10319000085007E0234653F8080B984201D012F07C
:1031A00009FC4834A5420ED0206B04F13803984244
:1031B00001D012F0FFFBA06904F120039842E9D08E
:1031C00012F0F8FBE6E77C683D6807E0234653F819
:1031D000080B984201D012F0EDFB4834A5422BD0E9
:1031E000206B04F13803984201D012F0E3FBA06990
:1031F00004F120039842E9D012F0DCFBE6E7D8F8AE
:1032000000403D6807E0234653F8080B984201D080
:1032100012F0D0FB4834A5420ED0206B04F13803E5
:10322000984201D012F0C6FBA06904F12003984235
:10323000E9D012F0BFFBE6E7BDE8F0812DE9F041EF
:10324000A0B080460646364B46F8443B43F298070A
:10325000F419344BF35104F1A405D4F8AC00D4F8BC
:10326000B010D4F8B420D4F8B8300C900D910E9270
:103270000F93D4F8BC300893D4F8C0300993D4F835
:10328000C4300A93D4F8C8300B9308AA0CA9284676
:10329000FFF74FFF2846FFF73EFF04F15C05286B60
:1032A00004F19403984201D012F084FBA86905F15F
:1032B0002003984201D012F07DFBE06D0835A84252
:1032C00001D012F077FB184BF35104F13405E66B93
:1032D000206C616CA26CE36C276D1C961D901E9196
:1032E0001F9218931997636D1A93A36D1B9318AAD5
:1032F0001CA92846FFF7B7FE2846FFF7A6FEE0699F
:1033000004F12403984201D012F054FB60680C349D
:10331000A04201D012F04EFB404620B0BDE8F08143
:10332000147501084C7401088074010870B582B0EE
:1033300005460E4671B1941B01940F2C0FD82868D6
:10334000012C15D0BCB9019B6B602A680021D154B7
:1033500002B070BD9142EED0094812F0D2FC0022BA
:1033600001A9284612F056FB2860019BAB60E6E7F6
:1033700033780370E7E72246314613F064F8E2E75A
:1033800078790108012800D070474FF6FF73994201
:10339000FAD12DE9F04F87B0E74F3846FEF794FD9C
:1033A000E64AE749384612F024FBE64C012684F849
:1033B000B4600025A4F8BC50C4F8C050C4F8C45090
:1033C000C4F8C850C4F8CC50C4F8D050C4F8B87091
:1033D000DD4BC4F8B03094F80431082284F8D420CE
:1033E000C4F8D85084F8D430C4F8D850C4F8DC50AD
:1033F000C4F8E050C4F8E450C4F8E850A4F8EC5025
:10340000A4F8EE50A4F8F05084F8F25084F8F36079
:1034100084F8F460C4F8F850C4F8FC5084F8005103
:103420004FF4FA73A4F80231052384F8043140F60E
:10343000B83AA4F806A140F2DC5BA4F808B1BF4A90
:10344000C24904F1B00012F0D4FA84F83460A587C0
:1034500025646564A564E5642565A763BC4B2363A7
:10346000C4F8A8504FF0070884F8AC80B34AB949B3
:1034700004F1300012F0BDFA84F81061A4F818517C
:10348000C4F81C51C4F82051C4F82451C4F8285180
:10349000C4F82C51C4F81471AF4BC4F80C31FF239D
:1034A00084F83031A54AAD4904F5867012F0A1FACE
:1034B00084F83861A4F84051C4F84451C4F8485124
:1034C000C4F84C51C4F85051C4F85451C4F83C717C
:1034D000A34BC4F8343184F85851A4F87A5184F8D5
:1034E0007C514FF00309A4F87E91C4F88051C4F8D0
:1034F000845184F888514FF41673A4F88A31C4F8C3
:103500008CA104F59A7A8D4A9649504612F071FAC8
:1035100084F8C461A4F8CC51C4F8D051C4F8D45193
:10352000C4F8D851C4F8DC51C4F8E051C4F8C871EB
:103530008D4BC4F8C03184F8E45184F8EE5184F81E
:10354000EF51C4F8F0510423A4F8F431A4F8F6B113
:1035500004F5E07B794A8549584612F04AFA5B4601
:10356000524639460AF15C0007F08AF8734A8049EE
:1035700004F5C87012F03DFA84F8FC61A4F8045216
:10358000C4F80852C4F80C52C4F81052C4F81452CB
:10359000C4F81852C4F80072764BC4F8F831A4F895
:1035A0001C5284F81E6284F81F52C4F82052634AE9
:1035B000714904F5FC7012F01CFA84F82862A4F832
:1035C0003052C4F83452C4F83852C4F83C52C4F8EB
:1035D0004052C4F84452C4F82C72684BC4F82432E8
:1035E0004FF03B0A84F848A2544A654904F5097033
:1035F00012F0FFF984F85062A4F85852C4F85C52F3
:10360000C4F86052C4F86452C4F86852C4F86C52EA
:10361000C4F854725B4BC4F84C3284F87052A4F86E
:10362000725284F8745284F87552444A564904F52B
:10363000137012F0DEF984F87C62A4F88452C4F8A6
:103640008852C4F88C52C4F89052C4F89452C4F80A
:103650009852C4F880724D4BC4F87832C4F89C522A
:1036600084F8A05284F8A15284F8A25284F8A3529C
:1036700084F8A452A4F8A69204F51E792F4A44496E
:10368000484612F0B6F984F8C463A4F8CC53C4F8E1
:10369000D053C4F8D453C4F8D853C4F8DC53C4F896
:1036A000E053C4F8C8733B4BC4F8C0330623A4F8F6
:1036B000E43341F28832C4F8E82384F8EC53C4F8C8
:1036C000F053C4F8F453C4F8F853A4F8FC53A4F826
:1036D000FE53A4F80054A4F80254A4F80454FA22A7
:1036E000A4F8062484F80854A4F80A54A4F80C3466
:1036F0004FF4FA63C4F81034104A274904F5707087
:1037000012F077F9CDF8009004F5FC735A4639466B
:103710000BF1E80006F0CAFF084A204904F52A70B8
:1037200012F067F984F84C63A4F85453C4F8585362
:10373000C4F85C5334E000BF68380020000000206B
:10374000711E0008980200202C750108A71D0008B2
:1037500044750108A91D00085C750108AB1D00082F
:10376000A4750108AD1D0008BC750108AF1D000857
:10377000B11D0008D4750108B31D00081C760108AE
:10378000B51D00088C750108B71D0008EC7501080F
:10379000B91D000804760108BB1D0008BD1D000806
:1037A000C4F86053C4F86453C4F86853C4F8507341
:1037B000534BC4F8483304F5527B524A5249584699
:1037C00012F017F984F87063A4F87853C4F87C53A6
:1037D000C4F88053C4F88453C4F88853C4F88C5395
:1037E000C4F87473494BC4F86C3384F89053A4F84C
:1037F000925304F56773C4F8943345494FF00003BE
:103800000A46013904F56570FFF790FDC4F8AC5322
:10381000C4F8B053C4F8B45384F8B8A34EF6602388
:10382000C4F8BC33374A3B4904F55B7012F0E1F849
:1038300004F5457A04F55B723946504608F01EFAE5
:10384000304A3549504612F0D4F884F8E062A4F8C2
:10385000E852C4F8EC52C4F8F052C4F8F452C4F878
:10386000F852C4F8FC52C4F8E4722C4BC4F8DC32B1
:1038700084F80053A4F8025384F8045384F80563D1
:1038800084F8066384F8075384F8085384F80963BE
:1038900084F80A6384F80B53802384F80C3384F88B
:1038A0000D5384F80E5384F80F830A2384F81033E1
:1038B0007823A4F8123304F53774124A18492046C5
:1038C00012F097F8174DCDF814B0A4F13403049317
:1038D000CDF80C90B03B0293EC3B01938433009302
:1038E0002346A4F190023946284608F0E9FC054A2F
:1038F0000D49284612F07DF807B0BDE8F08F00BFF3
:103900003476010800000020BF1D0008B4740108CF
:10391000A5790108F91D0008C11D0008747501088A
:10392000C31D0008B40600203D32000810B504464F
:103930005C2112F063F8204610BD10B504468021CA
:1039400012F05CF8204610BD10B50446282112F094
:1039500055F8204610BD10B504465C2112F04EF813
:10396000204610BD10B50446382112F047F8204615
:1039700010BD10B50446302112F040F8204610BDAD
:1039800010B504462C2112F039F8204610BD10B5B0
:103990000446282112F032F8204610BD10B5044626
:1039A0002C2112F02BF8204610BD10B50446302112
:1039B00012F024F8204610BD10B50446542112F030
:1039C0001DF8204610BD10B50446342112F016F83B
:1039D000204610BD10B50446242112F00FF82046F1
:1039E00010BD000070B505460346114A43F8402B50
:1039F000046C5E6800E01834A64207D0234653F8F2
:103A0000080B9842F7D011F0D5FFF4E7286C08B105
:103A100011F0D0FFA86A05F13003984201D011F0EF
:103A2000C9FF5421284611F0E9FF284670BD00BFA8
:103A3000B474010810B50446342111F0DFFF2046AC
:103A400010BD10B50446382111F0D8FF204610BD36
:103A50002DE9F041A0B0074606463A4B46F8443BF4
:103A600043F2980806EB0804374B46F8083004F197
:103A7000A405D4F8AC00D4F8B010D4F8B420D4F82D
:103A8000B8300C900D910E920F93D4F8BC3008937F
:103A9000D4F8C0300993D4F8C4300A93D4F8C830AD
:103AA0000B9308AA0CA92846FFF743FB2846FFF70B
:103AB00032FB04F15C05286B04F19403984201D0B9
:103AC00011F078FFA86905F12003984201D011F0A8
:103AD00071FFE06D0835A84201D011F06BFF1B4B60
:103AE00046F8083004F13405E66B206C616CA26C7A
:103AF000E36C1C961D901E911F921893236D1993D1
:103B0000636D1A93A36D1B9318AA1CA92846FFF78F
:103B1000AAFA2846FFF799FAE06904F124039842CB
:103B200001D011F047FF60680C34A04201D011F0C1
:103B300041FF43F2B411384611F060FF384620B01F
:103B4000BDE8F081147501084C7401088074010807
:103B500008B54FF6FF710120FFF714FC08BD000007
:103B60002DE9F04184B00546041DD0F80817204621
:103B700011F075FB0221204611F082FB204611F066
:103B800039FC1FFA80F82A4F3946204611F0DCFB39
:103B9000811C05F5DD66424689B201A80FF012FED0
:103BA00001A930460FF02BFE01A80FF03EFED5F81C
:103BB0000C17204611F053FB204611F01BFC86B277
:103BC0003946204611F0C0FB811C05F2EC673246F5
:103BD00089B202A80FF0F6FD02A938460FF00FFED9
:103BE00002A80FF022FE1349204611F0ADFB811C04
:103BF00005F5DE64324689B203A80FF0E3FD03A9A0
:103C000020460FF0FCFD03A80FF00FFE0FF03CFD67
:103C100001200FF02DFF002107480CF0A9F8002328
:103C200085F85030054A536304B0BDE8F08100BF09
:103C3000A8790108AC790108C86A00200004004096
:103C400070B50546114B036000F2F46010F0A2FF5E
:103C500005F5DE600FF0E9FD05F2EC600FF0E5FD23
:103C600005F5DD600FF0E1FD15F168060CD005F2F9
:103C7000DC64A64208D01C3C606804F10C03984246
:103C8000F7D011F097FEF4E7284670BD986D010853
:103C900070B50546144B036000F2F46010F07AFF33
:103CA00005F5DE600FF0C1FD05F2EC600FF0BDFD23
:103CB00005F5DD600FF0B9FD15F168060CD005F2D1
:103CC000DC64A64208D01C3C606804F10C039842F6
:103CD000F7D011F06FFEF4E74FF4E261284611F0DF
:103CE0008DFE284670BD00BF986D010803780B4A11
:103CF000526B934209D8094A526B93420BD2074A3E
:103D0000536B013B536301207047044A536B0133EB
:103D10005363012070470020704700BF000400403B
:103D200010B50346064800244463A3F8DE16A3F842
:103D3000DC26FF2183F8F81610460FF08FFF10BD28
:103D4000000400402DE9F04F85B004460391029332
:103D5000002A7DD1B0F8FE56D4F8EC36002B7AD08C
:103D60001E8806F114081FFA88F8D4F8E836002BEC
:103D700073D05B885FFA83FB06F11707BFB2B4F814
:103D8000DE3603222946384610F048F91FFA8BF92F
:103D9000B4F8DE364A462946404610F016F806F1D9
:103DA0001A00B4F8DE364A46294680B210F00DF803
:103DB00005EB09081FFA88F808F1050A1FFA8AFAC4
:103DC000B4F8DE3608225146384610F027F9029B37
:103DD000002B44D0B4F8E03607225146384610F0A4
:103DE0006EF906F1110005F10901B4F8DE36009311
:103DF00003231A4689B280B20FF00AFF1536B6B215
:103E0000691C09F1FF33B4F8DC2600929BB205224D
:103E100089B230460FF0FCFE0A226FF0630103986E
:103E200009F09CFC07B2002F1CDD80B2291A89B270
:103E30000A31484483B20A3BB4F8E02600929BB2B0
:103E4000052289B230460FF0E3FE05B0BDE8F08FE1
:103E5000B0F8005780E7002683E700238AE7B4F82C
:103E6000DC36B9E7ABF10A030093012300226FF0BF
:103E70006301384609F03EFCC3B2A8EB030189B2E6
:103E8000029A3AB1B4F8E0260092052230460FF0CB
:103E9000BFFEDAE7B4F8DC26F6E70000F0B589B03B
:103EA00004461646B1F57A7F01D340F2E7310A465F
:103EB000284907A812F0FEFB251DD4F8081728464C
:103EC00011F0CDF90221284611F0DAF904F5DD6090
:103ED0000FF0BAFCD4F8E836591D73B31A880023E2
:103EE00001930123009307AB284611F035FA0FF038
:103EF00087FDD4F8E83613B31A88801AC0F34F0050
:103F0000323080B2EEB1B4F80017B4F8DC66B4F821
:103F1000DE76D4F8E846BCB16388651DB4B1B4F868
:103F200000C005970496002403940294CDF804C0C1
:103F3000009510F08FFA09B0F0BD0022CFE7002203
:103F4000DBE7B4F8FE16E0E70023E6E74FF0000CED
:103F5000E7E700BFB47901082DE9F04784B00446D3
:103F600088469246061DD0F80C17304611F077F9B6
:103F7000304611F03FFA87B24146304611F0E4F97D
:103F80008146B4F8FA26B4F8DC3600933B460021AB
:103F900008460FF03DFEB4F8FA1649451ED9A1EBCC
:103FA0000901C1F34F05B4F8DE36009343463A46A3
:103FB0002946304611F0BAF9BAF1000F10D00FF0CF
:103FC0001FFDA0F11402B4F8DE3692B2B4F8021765
:103FD0000A200FF0F1FE04B0BDE8F0870025E2E70B
:103FE00005EB090080B20A30A7F10E01B4F8DC3607
:103FF000B4F8DE260392029310220192034B009341
:104000000E2389B280B210F0BFF9D8E7B86D01086D
:1040100070B586B004460D46642900D964252B216D
:1040200004F1640008F072FE0522014603A812F0B4
:104030007BFB03A8FCF7ACFF25232A46144903ADFC
:1040400055FA80F012F036FB251DD4F80C172846DF
:1040500011F005F9284611F0CDF986B20FF0D6FC23
:10406000811BB4F8FC26B4F8DC360093334689B2E1
:1040700000200FF0CDFD0FF0C9FCB4F8DE36009340
:1040800003AB02460A21284611F050F906B070BD74
:10409000B87901082DE9F04788B004460F469146EB
:1040A000061DD0F80C17304611F0D9F8304611F043
:1040B000A1F91FFA80F8B4F8FCA60FF0A7FCA0EB5A
:1040C000080085B20FF09CFCB4F8FC26821AB4F804
:1040D000DC360093434692B2294650460FF098FDD5
:1040E00007F109039BB26C2B50D843238DF8143091
:1040F00000238DF81530B9F1000F02D146238DF859
:1041000014300FF07DFC054605A9304611F01CF96E
:104110002D1AADB2A5F11E091FFA89F90FF076FC30
:10412000B4F8DE36009305AB02464946304611F03E
:10413000FDF8263DADB20FF069FCA0EB080189B295
:104140000431B4F8DC36B4F8DE2603920293082278
:104150000192164B0093052389B2284610F014F9FA
:104160003A46134906A812F0A5FA06A9304611F0FE
:10417000EBF82D1AADB20FF049FCB4F8DE3600931F
:1041800006AB02462946304611F0D0F80FF038FC55
:10419000A0F11402B4F8DE3692B2B4F804170A2083
:1041A0000FF00AFE08B0BDE8F08700BFD46D01082B
:1041B000C07901082DE9F04385B006460846174648
:1041C000642900D96420D6F8E836DBB15C88E2B215
:1041D0000A2109F0A2FA0546B7B9B6F8FE760FF043
:1041E0000FFC1138E4B2B6F8DC360093631C0D22E4
:1041F000394680B20FF00CFD3C44A4B23DB905B085
:10420000BDE8F0830024E2E7B6F80077E7E70FF0B7
:10421000F7FB05381FFA80F80FF0F2FB05381FFA9C
:1042200080F9671BBFB20FF0EBFBC5F38705451B99
:10423000ADB2063DADB2B6F8DE36029301970095F9
:104240003B464A46214640460FF0C2FFD7E70000F2
:1042500030B585B005460C4610464FF4FA72002181
:1042600009F07CFA55230093FF234FF4FA720021E2
:1042700000B209F03FFAC0B20FF072FC04F0030381
:10428000D5F8EC26AAB114883234B5F8001703EB40
:10429000C3035A01084B1344B5F8DC26039002927D
:1042A0003022019200931346A0B210F06DF805B0D1
:1042B00030BD0024E8E700BFDC6D010800B585B023
:1042C0000246D0F8EC367BB11B88323398B269B91C
:1042D000B2F8FE16B2F8DC36009330231A460FF01F
:1042E00097FC05B05DF804FB0023EEE7B2F8FE167C
:1042F000B2F8DC36B2F8DE26039202933022019245
:10430000024B0093134610F03FF8EAE75C72010895
:104310002DE9F04182B005468846061DD0F80C17FD
:10432000304610F09CFF304611F064F8C4B24146AC
:10433000304611F009F8C7B20FF062FBC01B00EB6A
:10434000D070A4B2B5F8DE36009343462246C0F3DF
:104350004F01304610F0EAFF0FF052FBC01B00EB9C
:10436000D07040100A38B5F8DE3607F11402E11CAF
:1043700080B20FF021FD02B0BDE8F08110B5044617
:10438000643008F0C3FC01462046FFF7C1FF10BDB2
:104390002DE9F04784B005461446072202A812F022
:1043A000C3F900238DF80F302E1DD5F80C173046B9
:1043B00010F055FF304611F01DF887B202A93046C3
:1043C00010F0C2FF804664B3B5F80047E41BA4B206
:1043D0000F3CA4B2B5F8FAA604F107091FFA89F94F
:1043E0000FF00EFBB5F8FA26821AB5F8DC3600930A
:1043F0003B4692B2494650460FF00AFC0FF000FBD4
:10440000A0EB080189B21439E219B5F8DE36009341
:1044100002AB92B289B2304610F088FF04B0BDE81A
:10442000F0870024D6E738B504460D4625216430D0
:1044300008F06CFC2A4601462046FFF7A9FF38BD6C
:1044400038B504460D462421643008F05FFC2A4646
:1044500001462046FFF79CFF38BD10B504462621D3
:10446000643008F053FC002201462046FFF790FF1D
:1044700010BD10B504462721643008F047FC002227
:1044800001462046FFF784FF10BD10B504462821E1
:10449000643008F03BFC002201462046FFF778FF1D
:1044A00010BD10B504462921643008F02FFC00220D
:1044B00001462046FFF76CFF10BD10B504462A21C7
:1044C000643008F023FC002201462046FFF760FF1D
:1044D00010BD000038B50546054C0A460549204682
:1044E00012F0E8F8002221462846FFF751FF38BDB8
:1044F000B4530020C07901082DE9F04F93B007466E
:104500000E460B9193460E939DF870300F93031D4A
:104510001D460893D0F80C17184610F0A0FE284648
:1045200010F068FF5FFA80F808F10A085FFA88F86F
:1045300008F10C0209920FF063FA0446284610F0C5
:1045400059FFA4F1640182B289B211A80FF03AF9BF
:1045500007F164030A933146184608F0EDFB8146E3
:1045600006280BD94FF0060A0E9B83B11B788BB13E
:10457000BAF1060F04D0012307930DE08246F3E75A
:104580000AF1FF3A5FFA8AFA0123079304E0002355
:10459000079301E000230793CAF34706ABEB060637
:1045A000F6B2013676B2B9F1010F01D95E4505D0F8
:1045B000002E07DB00250D950C9627E00BF1FF364A
:1045C00076B2F5E74E4476B2F4E7002238E0B7F869
:1045D000DC66B7F8DEC65C4547D0119B002B4CD09B
:1045E0001A88119800284AD04388441D002848D0D2
:1045F0000088CDF814C00496002603960296019018
:10460000009432200FF026FF0135EDB2AA453AD9C9
:104610000C9B55FA83F4E4B2A14502D8A4EB09043B
:10462000E4B20B9BE118C9B20A9808F06FFB06468A
:1046300011A80FF009F9119B591D002BC5D01A883C
:104640000A230193002300933346089810F084FE58
:10465000099B05FB083189B2079B002BB7D00D9B46
:10466000002BB4D0414489B2B1E708EB01039BB2FF
:104670000D93334666469C46AFE70022B1E7002320
:10468000B3E70020B5E7079BDBB9079B9BB9BAF1FD
:10469000050F10D81AFB08F1099B13FA81F189B2B2
:1046A000119B002B5ED01A88B7F8DC360093434686
:1046B00032200FF0ADFA11A80FF0B7F813B0BDE833
:1046C000F08F11A80FF0C0F8119B591D1BB31A8869
:1046D00000230193022300930E9B089810F03CFEE8
:1046E0000F9B03BB119BC3B11A88B7F8DC56B7F810
:1046F000DE66119999B14B88481D91B10C880596D9
:104700000495002103910291019400900D993220AB
:104710000FF0A0FEB9E70022DAE70022E5E7002368
:10472000EAE70024EBE7119BB3B11A88B7F8DC562F
:10473000119999B14B88481D91B10C884FF478417B
:1047400005910495002103910291019400900D9927
:1047500032200FF07FFE98E70022E7E70023EAE728
:104760000024EBE700229FE72DE9F04F8FB04E6861
:104770000B68F61AF610574B03FB06F6B4B29442D8
:1047800002D20FB0BDE8F08F17460B920A91804617
:10479000031D0993D0F80C179946184610F05FFDD9
:1047A000484610F027FEC0B20A30C1B206910C3163
:1047B00007910FF025F90546484610F01BFEA5F1BC
:1047C000640182B289B20DA80EF0FCFF4FFA87FB9C
:1047D000E41BA4B2052C03D8A6F1060B4FFA8BFB01
:1047E000BBF1000F09DBB3B20893A3EB0B03062B5D
:1047F00006DCF6B20024B24620E04FF0000BF2E7F0
:104800000626F7E7002238E00D9B002B44D01A88DB
:104810000D99002942D04B88481D002940D00D88B1
:10482000CDF8149004960021039102910195009017
:10483000394632200FF00EFE0134E4B2544531D235
:1048400054FA8BF5EDB20DA80EF0FEFF069B079A09
:1048500004FB0327BFB2B8F8DC66B8F8DE96089B05
:104860009D42D1DC0A9B196805EB4502D300CB5869
:104870000D9A511D002AC5D012880A2001900020EF
:104880000090099810F068FD0B9B9D42BCD1B8F8D0
:10489000DE66B8F8DC96B7E70022B9E70023BBE78D
:1048A0000025BDE75646052E0ED8069B079A0AFB43
:1048B0000326B1B20D9B5BB11A88B8F8DC360093C1
:1048C000069B32200FF0A4F90DA80EF0AEFF58E7BA
:1048D0000022F2E7ABAAAAAA2DE9F04F91B0044654
:1048E000069117461E46051DD0F80C17284610F0F5
:1048F000B6FC284610F07EFDC0B205305FFA80FAA3
:1049000094F8F836B34240F0B280B7F5805F01D337
:1049100040F6FF770FF07AF81FFA8AF8A0EB08004C
:104920001FFA80FA0FF06CF88346A0F140091FFAD5
:1049300089F9B7F5006F00F25C812823009300230A
:104940004FF400621946384608F0D4FE87B2CDF81D
:104950000090282340F6FF7240F601014FF4616099
:1049600008F0C8FEC6B22036F6B2AAEB08081FFA55
:1049700088F8A8F10F01ABF13602B4F8DE360193E6
:10498000052300930A2392B289B21B200FF027FA65
:10499000A8F10A0B1FFA8BFBB4F8E0360A2259463D
:1049A0001C200FF08CFBB4F8DE360A2259461C207E
:1049B0000FF034FBA8F10E0B1FFA8BFBB4F8E036B6
:1049C000009308233A46594620200FF021F909F1B7
:1049D000FF339F42C0F21981B6B2701EA8F10501E3
:1049E000B4F8DE3600930623032289B280B20FF0BA
:1049F0000FF9069A8C490EA811F05CFE10AF432304
:104A000027F80C3D0EA9284610F09EFC8146C0F305
:104A10004F03F61AB6B2B4F8DE3600930EAB524628
:104A20003146284610F082FC4E44B6B2B01D08F163
:104A30000408B4F8DC36B4F8DE26039202930822A8
:104A400001927A4B009305231FFA88F180B20FF090
:104A50009BFC06F10E01B4F8DE3600933B4652464D
:104A600089B2284610F062FC11B0BDE8F08F84F8DE
:104A7000F8661FFA8AF808F13C090EF0C1FF1438F5
:104A80000090002364221946304608F033FE83B2BA
:104A9000089328230093002364221946304608F027
:104AA00029FEC3B209930EF0ABFF0A3883B2079315
:104AB0000EF0A6FF0A3880B208F1140BB4F8DC3609
:104AC0000293CDF804B000904B46079A49460A205D
:104AD0000FF07EFB0EF094FF0A3883B207930EF0BE
:104AE0008FFF0A3880B2B4F8DE360293CDF804B0F6
:104AF00000904B46079A49460A200FF048FB002ECB
:104B000052D1002E62D02C2104F1640008F0FEF88E
:104B1000042201460AA811F007FE0AA8FCF738FA99
:104B20002523324642490AAE56FA80F011F0C2FD02
:104B300004F5DD600EF088FED4F8E836591D002B30
:104B40004ED01A8800230193012300930AAB284614
:104B500010F002FC0EF054FFD4F8E836002B41D0E0
:104B60001A88801A00EBD070C0F34F00C84408F1D7
:104B70000A01B4F8DC86B4F8DE96D4F8E8669EB391
:104B8000738806F1050C8EB3B6F800E0CDF81490EA
:104B9000CDF81080002603960296CDF804E0CDF8FB
:104BA00000C00FF057FCB0E6089A0A3292B2099B97
:104BB000A9EB03039BB2B4F8DE16029101930092B5
:104BC0004B4649460A200FF003FB9AE7252104F1E2
:104BD000640008F09BF801460AA811F06BFDA7E7F6
:104BE0000022AFE70022BCE70023CAE74FF0000E27
:104BF000CCE7CDF80090282340F6FF7240F6010183
:104C0000384608F077FD87B2A1E607F12000A9EB4E
:104C10000702B4F8DC360093082392B2594680B2FA
:104C20000EF0F6FFD8E600BFC4790108D46D010884
:104C3000B87901082DE9F04184B00546041DD0F88B
:104C40000C17204610F00BFB204610F0D3FBC4B22B
:104C50000534E4B21E340EF0D9FE001B80B2461FAC
:104C6000B6B216F0010F01D1063886B20EF0C8FEBA
:104C7000D5F8EC36002B39D01C88041BA4B2363C86
:104C8000A4B2214605F1540002F0F1F9074648B3F9
:104C9000D5F8F4360BB11B8823BB05F2F468022368
:104CA0003246214603A80FF033FF03A940460FF018
:104CB0005BFF03A80FF06EFFB5F8DC36ADF80430EB
:104CC000B5F8DE36ADF80630B5F8E036ADF80830A8
:104CD000B5F8E236ADF80A3004220DEB0201404689
:104CE0000FF081FF384604B0BDE8F0810024C4E72E
:104CF0002DE9F04F89B0044605910692079300F123
:104D00000408D0F80C17404610F0A9FA404610F0FD
:104D100071FBC6B20536F6B206F11E090EF076FE3C
:104D2000A0EB090080B2451FADB215F0010F01D113
:104D3000851FADB26D08D4F8EC36002B00F0B480BE
:104D40001F8807F113039BB2049307F1050A1FFAAA
:104D50008AFA59FA85F50EF053FEA0F14602B4F82E
:104D6000DE3692B2294650460FF026F80EF048FE85
:104D7000D4F8EC36002B00F099801B88184480B2E0
:104D80004138A91EB4F8DC36B4F8DE26039202934B
:104D90004FF0080ACDF804A0DFF824B10BF2EC5371
:104DA00000930523524689B280B20FF0EDFA0EF05F
:104DB00027FEA0F114016A1FB4F8DE3600933F4BC2
:104DC00092B289B2404610F0B1FA0EF01FFEA0F187
:104DD0000C02B4F8DE3692B20A2104980EF0F5FF08
:104DE00007F11100B4F8DC36B4F8DE260392029322
:104DF000CDF804A00BF2F45300935346052211465C
:104E000080B20FF0C1FA0F37BFB2B4F8E036092212
:104E1000494638460EF0D0FFB4F8E236092206EBD8
:104E2000090138460EF0C8FFD4F8EC36002B3FD00D
:104E300019880F39B4F8E0360093069B324689B2E0
:104E4000404610F073FAD4F8EC369BB319881E3143
:104E5000B4F8E2360093079B324689B2404610F020
:104E600065FAD4F8EC363BB31D880544ADB21E3567
:104E7000ADB2DDF814904946404610F065FA074699
:104E80000EF0BEFD401BC01B00EBD07005EB6000B8
:104E9000B4F8DE3600934B46324681B2404610F0FD
:104EA00045FA09B0BDE8F08F00274AE7002365E71F
:104EB0000021BEE70021CAE70025D6E7707C010883
:104EC000906D01082DE9F0478AB08046022946D945
:104ED00008F10405D8F80C17284610F0C0F9284648
:104EE00010F088FA5FFA80FA03A9284610F02CFA2D
:104EF00081460EF085FDA0EB0900C0F34F070EF0D0
:104F000085FD00EB40000646002831DBC6F38F0626
:104F1000284610F06FFA04B2284610F073FA04FA2B
:104F200080F1A7F10A00C9B2711A89B20A3909F1F0
:104F30001402B8F8DC3600930AF1140392B289B275
:104F400080B20EF065FEB8F8DE36009303AB324651
:104F50003946284610F0EAF90AB0BDE8F087054B5B
:104F600003EB8101D1F8FC1503A811F0A3FBAFE717
:104F7000C61CCBE7906D01082DE9F04F8BB00546BC
:104F80008A469146071DD0F80C17384610F067F98D
:104F900031212846FFF7F2F9384610F02BFAC6B255
:104FA0000536F6B206F10C080EF02AFD0446384626
:104FB00010F020FAA4F1640182B289B206A80EF0C2
:104FC00001FC00241FE0002231E07346E6469C46C7
:104FD0003BE0002240E0002300F1050B002840D018
:104FE0000088CDF814E0CDF810C04FF0000CCDF8DB
:104FF0000CC0CDF808C00190CDF800B032200FF001
:1050000029FA0134E4B2022C2DD81A4B03EB8403A5
:105010003AF81420D3F8FC1507A811F04BFB06A8AA
:105020000EF012FC069B591D002BCCD01A880523CC
:1050300001930023009307AB384610F08DF9B5F8C3
:10504000DEE6B5F8DCC64C45BFD004FB068189B26C
:10505000069B002BBDD01A8806980028BBD0438839
:10506000BAE70020BDE706A80EF0DFFB0BB0BDE8F5
:10507000F08F00BF906D010870B582B004460E46F7
:10508000051DD0F80C17284610F0E9F80EF0BEFC0C
:10509000A0F13202B4F8E4360093334692B26421B0
:1050A000284610F043F902B070BD10B50446D0F8A0
:1050B000F4360BB11B8823B904F1540002F006F852
:1050C00010BD00F2F4600FF065FDF5E72DE9F04F3B
:1050D00087B083460D46049200F1640430212046D7
:1050E00007F014FE0646BBF8DC060EF0B7FD2946B5
:1050F000204607F00BFE037803B304460BF10403CC
:105100001D460393DBF80C17184610F0A8F8284644
:1051100010F070F980B2053083B205932046FBF79A
:1051200037FFC7B2781C11F06FF9804658B321469B
:1051300011F0E0FA00264FF0010964E00BF10404DD
:10514000DBF80C17204610F08AF80321204610F0F7
:1051500097F83146204610F0F7F805460EF050FC5F
:10516000451BC5F34F050EF051FCBBF8DE3600932E
:105170003346C0F34F022946204610F0D7F80121EC
:10518000204610F07DF807B0BDE8F08F25466C1C76
:10519000E4B2A74203D918F804300A2BF6D1A7428B
:1051A00002D9002308F8043046443146039810F031
:1051B000CBF85FFA80FA0EF023FC824528DA0EF075
:1051C0001FFCA0EB0A0000EBD070059B19FB03F25B
:1051D000049B13FA82F2BBF8DE360093334692B298
:1051E000C0F34F01039810F0A1F809F101095FFA2B
:1051F00089F9B9F1070F1BD8A74202D90A2308F889
:1052000004300235EEB2BE4212D2751CEDB2BEE7DA
:10521000059B19FB03F2049B13FA82F2BBF8DE36FE
:105220000093334692B20021039810F07FF8DCE738
:10523000404611F0F1F8A6E72DE9F04F89B0054698
:105240000E4691469846031D1C460793D0F80C174E
:10525000184610F004F8204610F0CCF887B2053755
:10526000BFB23146204610F06FF804460EF0C8FB7E
:10527000844218D30021B5F8DE36009333464A46FF
:10528000079810F053F80EF0BBFBD5F8EC3683B15D
:105290001E88801B334E86FB0036A6EBE076B6B246
:1052A0000024BB4646E00EF0ABFB001BC0F34F01F1
:1052B000E1E70026EDE7B5F8DC7641E0B5F8DEA6DB
:1052C00005F2EC600EF0C0FA274B03EB8403D3F831
:1052D0000836D5F8EC26511D002A36D01288002059
:1052E000019001200090079810F036F8A1B2D5F88F
:1052F000EC3663B31A88B01810FB01F0304480B26A
:105300000BEB090189B2D5F8EC3613B3B3F802C040
:1053100003F1050E03B31B88CDF814A004970027F2
:10532000039702970193CDF800E063460FF092F8DF
:105330000134E4B2012C11D8A045BCD0B5F8DE761A
:10534000A045BBD0B5F8DCA6BAE70022C7E700222B
:10535000D1E74FF0000CDBE70023DDE709B0BDE843
:10536000F08F00BF56555555906D01082DE9F0435B
:105370008BB00746061DD0F80C1730460FF06FFFB4
:10538000304610F037F885B26A1D1FFA82F8B7F878
:10539000DC060EF063FC09213846FEF7EFFF1135FD
:1053A000ACB2DFF8A890494630460FF0CDFF054675
:1053B0000EF026FB411B08EB0402B7F8DE36009323
:1053C0004B4692B2C1F34F0130460FF0AFFF02AD32
:1053D0001B4A1C49284611F06DF9294630460FF04A
:1053E000B3FF81460EF00CFBA0EB090104EB480271
:1053F000B7F8DE3600932B4692B2C1F34F01304628
:105400000FF094FF104B93E8070085E8070029464A
:1054100030460FF099FF81460EF0F2FAA0EB090139
:1054200008EB48022244B7F8DE3600932B4692B2CE
:10543000C1F34F0130460FF079FF0BB0BDE8F083A8
:10544000DC790108E4790108F4790108C8790108D8
:105450002DE9F04F8DB006468A4615461C469DF84C
:10546000583006939DF85C30079300F10408D0F89B
:105470000C1740460FF0F3FE40460FF0BBFFC7B2DB
:105480000537FFB207F10C0900230A2B07D80CAA35
:105490001A44572102F80C1C0133DBB2F5E7002354
:1054A0008DF82F3009A940460FF04EFF8346404645
:1054B0000FF0A0FF82B2594608A80EF083F9002D24
:1054C00000F0D380A34AA44909A811F0F3F8089B7F
:1054D000591D002B00F0CB801A8800230193009304
:1054E00009AB40460FF038FF089B002B00F0C1804D
:1054F0001A88B6F8DC56B6F8DEC60899002900F01E
:10550000BA804B88481D002900F0B7800988CDF883
:1055100014C0049500250395029501910090494619
:105520000A200EF097FF08A80EF08EF9BAF80030A6
:105530008A4A8B4909A811F0BDF8089B591D002B18
:1055400000F09D801A88002301930223009309AB89
:1055500040460FF001FF07EB0901089B002B00F00C
:1055600090801A88B6F8DCC6B6F8DEE608980028FF
:1055700000F089804388451D002800F0868000885F
:10558000CDF814E0CDF810C04FF0000CCDF80CC0F1
:10559000CDF808C0019000950A200EF05BFF08A826
:1055A0000EF052F9002C72D06A4A6E4909A811F027
:1055B00081F8089B591D002B6BD01A88002301939A
:1055C000009309AB40460FF0C7FE07EB4701494483
:1055D000089B002B5FD01A88B6F8DC56B6F8DEC6FA
:1055E0000898002859D04388441D002857D00088C7
:1055F000CDF814C004950025039502950190009400
:105600000A200EF027FF08A80EF01EF9BAF80230A3
:10561000554A534909A811F04DF8089B591D002B14
:105620003FD01A88002301930223009309AB404620
:105630000FF092FE09EB8701089BA3B31A88B6F816
:10564000DC46B6F8DEC6089D7DB36B88681D75B371
:105650002D88CDF814C0049400240394029401957D
:1056600000900A200EF0F6FE3EE0404A2BE70022B2
:1056700033E700223DE7002344E7002147E700220B
:1056800061E700226EE7002375E7002078E7374ADC
:105690008BE7002292E700229EE70023A4E7002088
:1056A000A6E70022BEE70022C9E70023CEE70025D7
:1056B000CFE700222EE0002241E0002305F1050C97
:1056C000002D45D02D88CDF814B0CDF810E04FF066
:1056D000000ECDF80CE0CDF808E00195CDF800C043
:1056E0000EF0B8FE0134E4B2062C43D808A80EF040
:1056F000ABF8A31C1E4A02EB83023AF81330D2F82F
:105700001026174909A810F0D5FF089B591D002B3A
:10571000CFD01A88002301930223009309AB40469F
:105720000FF01AFE0EF06CF9C0F34F000A3080B291
:1057300004FB079189B2089B002BBCD01A88B6F8ED
:10574000DCE6B6F8DEB6089D002DB6D06B88B5E76E
:105750000025B8E7007A0108047A0108107A0108E8
:10576000187A0108207A0108287A01087878010857
:10577000906D0108069B002B37D06922079B002BF8
:1057800035D067231F4909A810F094FF08A80EF030
:105790005BF8089B591D63B31A880023019300939B
:1057A00009AB40460FF0D8FD07EB470779004944A5
:1057B000089B03B31A88B6F8DC76B6F8DE6608985C
:1057C000D8B14388441DD0B10588059604970020C0
:1057D00003900290019500940A200EF03BFE08A869
:1057E0000EF023F80DB0BDE8F08F2022C6E720238D
:1057F000C8E70022D1E70022DDE70023E2E7002529
:10580000E3E700BF307A01082DE9F04F83B09DF83F
:105810003070086870B1058870B14488E4B235B161
:105820002BB19946D018A84201DC9C4206D203B0A5
:10583000BDE8F08F0025EFE70024EFE71D46164690
:105840008A46E41AC4F347041FFA83F84346224603
:10585000314650460EF00FF804EB0802013A434679
:1058600092B23146CDF804A050460EF004F804F18F
:10587000010BA8F1020A1FFA8AFA53465A4631462A
:1058800001980EF02EF808EB060189B20139534653
:105890005A4689B201980EF024F8002FC7D0062D81
:1058A000C5D90025A9F106039D42C0DA621992B25A
:1058B000A8F106030332F11C9BB292B289B201989F
:1058C0000DF0D9FF0135ADB2ECE700002DE9F04F46
:1058D00093B005468A4693460C939DF870300A9320
:1058E000031D1C460793D0F80C1718460FF0B7FCA1
:1058F00020460FF07FFDC0B20530C3B20B930C33CE
:1059000009930023082B07D812AA1A44572102F83A
:105910000C1C0133DBB2F5E700238DF845300FA9ED
:1059200007980FF011FD00F11404A4B20A9B0BB903
:105930002E3084B207980FF05DFD82B221460EA88A
:105940000DF040FF0EF05CF8844215D3322308932B
:10595000089B1C44A4B21434A4B20D940EF056F863
:105960000999431AB5F8DC2600929BB21022204612
:105970000EF04EF9002440E00EF042F8001BC0F398
:105980004F030893E4E70EA80DF05EFF0A9B002B7F
:105990004AD00A20B31C80B20E9A511D002A4FD063
:1059A000128801900020009007980FF0D5FC0B9B07
:1059B000099A04FB0327BFB20E9B002B42D01A8822
:1059C0000E99002940D04B88481D00293ED0B1F8DF
:1059D00000C0CDF81490CDF8108000210391029101
:1059E000CDF804C00090394608980EF033FD737866
:1059F00013F0020F2DD00134E4B25C453AD2B5F871
:105A0000DE86B5F8DC9604EB440293000AEB03064D
:105A1000B278002AEFD01AF803300C9A9342B2D031
:105A20004B46C1469846AEE7737803F001030093F6
:105A300010230A220EA92846FFF7E6FE2420A9E734
:105A40000022AEE70022BBE70023BDE74FF0000CC9
:105A5000BFE7791DB5F8DC36B5F8DE260392029370
:105A600010220192144B00930E2389B20D980EF070
:105A70008BFCC0E7BBF1060F15D80B9B099A0BFBFB
:105A8000032B1FFA8BFB0E9B9BB11C880DF0BEFFF6
:105A9000A0EB0B03B5F8DC2600929BB222465946D8
:105AA00008980EF0B5F80EA80DF0BFFE13B0BDE8D3
:105AB000F08F0024EAE700BFB86D01082DE9F0413E
:105AC00088B00446884615461E469DF83830432265
:105AD0008DF81C2000228DF81D2013B946238DF867
