:020000040800F2
:1000000000000120098701080DFC00080FFC000812
:1000100011FC000813FC000815FC0008000000009B
:1000200000000000000000000000000017FC0008B5
:1000300019FC0008000000001BFC00081DFC000863
:10004000598701085987010859870108598701080C
:10005000598701085987010895250008B925000826
:1000600059870108598701085987010859870108EC
:1000700059870108598701085987010859870108DC
:1000800059870108598701085987010800000000B5
:100090000000000000000000000000005987010877
:1000A00059870108598701085987010825FC00086C
:1000B00035FC00085987010859870108598701084C
:1000C000598701085987010859870108598701088C
:1000D0005987010859870108598701080000000065
:1000E0005987010859870108598701080000000055
:1000F0000000000000000000000000005987010817
:100100000000000059870108598701085987010834
:1001100000000000000000000000000000000000DF
:1001200045FC0008598701085987010855FC00085B
:1001300059870108000000000000000000000000D6
:1001400000000000000000000000000059870108C6
:1001500059870108598701085987010859870108FB
:1001600059870108598701080000000000000000BD
:10017000000000000000000000000000000000007F
:100180000000000059870108000000000000000086
:040190005987010882
:1001A00010B5054C237833B9044B13B10448AFF3B1
:1001B00000800123237010BD6C02002000000000AD
:1001C000C09B010808B5034B1BB103490348AFF3BB
:1001D000008008BD0000000070020020C09B0108E4
:1001E00001F0FF01102A2BDB10F0070F08D010F8E8
:1001F000013B013A8B422DD010F0070F42B3F6D1EC
:10020000F0B441EA012141EA014122F007047FF004
:1002100000070023F0E80256083C85EA010586EA5B
:10022000010685FA47F5A3FA87F586FA47F6A5FA97
:1002300087F68EB9EED1F0BC01F0FF0102F00702A3
:1002400032B110F8013B013A83EA010313B1F8D14E
:100250000020704701387047002D06BF354603382F
:10026000073815F0010F07D1013015F4807F02BF68
:10027000013015F4C03F0130F0BC0138704700BFB9
:1002800010F8012B11F8013B012A28BF9A42F7D040
:10029000D01A7047034613F8012B002AFBD1181A15
:1002A0000138704781F0004102E000BF83F0004355
:1002B00030B54FEA41044FEA430594EA050F08BF01
:1002C00090EA020F1FBF54EA000C55EA020C7FEAC5
:1002D000645C7FEA655C00F0E2804FEA5454D4EB42
:1002E0005555B8BF6D420CDD2C4480EA020281EA0C
:1002F000030382EA000083EA010180EA020281EA44
:100300000303362D88BF30BD11F0004F4FEA013195
:100310004FF4801C4CEA113102D0404261EB4101A4
:1003200013F0004F4FEA03334CEA133302D052422A
:1003300063EB430394EA050F00F0A780A4F10104E6
:10034000D5F1200E0DDB02FA0EFC22FA05F2801820
:1003500041F1000103FA0EF2801843FA05F3594106
:100360000EE0A5F120050EF1200E012A03FA0EFC85
:1003700028BF4CF0020C43FA05F3C01851EBE371AF
:1003800001F0004507D54FF0000EDCF1000C7EEBCC
:1003900000006EEB0101B1F5801F1BD3B1F5001F0A
:1003A0000CD349085FEA30004FEA3C0C04F1010429
:1003B0004FEA445212F5800F80F09A80BCF1004F52
:1003C00008BF5FEA500C50F1000041EB045141EAD4
:1003D000050130BD5FEA4C0C404141EB0101013C9D
:1003E00028BFB1F5801FE9D291F0000F04BF01468C
:1003F0000020B1FA81F308BF2033A3F10B03B3F15E
:1004000020020CDA0C3208DD02F1140CC2F10C02ED
:1004100001FA0CF021FA02F10CE002F11402D8BF4B
:10042000C2F1200C01FA02F120FA0CFCDCBF41EA17
:100430000C019040E41AA2BF01EB0451294330BDE6
:100440006FEA04041F3C1CDA0C340EDC04F11404C3
:10045000C4F1200220FA04F001FA02F340EA03009A
:1004600021FA04F345EA030130BDC4F10C04C4F1E0
:10047000200220FA02F001FA04F340EA03002946C0
:1004800030BD21FA04F0294630BD94F0000F83F40A
:10049000801306BF81F480110134013D4EE77FEAED
:1004A000645C18BF7FEA655C29D094EA050F08BF39
:1004B00090EA020F05D054EA000C04BF194610461A
:1004C00030BD91EA030F1EBF0021002030BD5FEA5E
:1004D000545C05D14000494128BF41F0004130BD86
:1004E00014F580043CBF01F5801130BD01F00045DA
:1004F00045F0FE4141F470014FF0000030BD7FEA4D
:10050000645C1ABF194610467FEA655C1CBF0B4647
:10051000024650EA013406BF52EA033591EA030F5E
:1005200041F4002130BD00BF90F0000F04BF002156
:10053000704730B54FF4806404F132044FF0000589
:100540004FF0000150E700BF90F0000F04BF002102
:10055000704730B54FF4806404F1320410F0004568
:1005600048BF40424FF000013EE700BF42004FEA63
:10057000E2014FEA31014FEA02701FBF12F07F43E0
:1005800093F07F4F81F06051704732F07F4208BF97
:10059000704793F07F4F04BF41F40021704730B59E
:1005A0004FF4607401F0004521F000411CE700BFEA
:1005B00050EA010208BF704730B54FF000050AE06D
:1005C00050EA010208BF704730B511F0004502D56E
:1005D000404261EB41014FF4806404F132045FEA70
:1005E000915C3FF4D8AE4FF003025FEADC0C18BF19
:1005F00003325FEADC0C18BF033202EBDC02C2F10B
:10060000200300FA03FC20FA02F001FA03FE40EA9C
:100610000E0021FA02F11444BDE600BF70B54FF0A0
:10062000FF0C4CF4E06C1CEA11541DBF1CEA13557E
:1006300094EA0C0F95EA0C0F00F0DEF82C4481EAE6
:10064000030621EA4C5123EA4C5350EA013518BF06
:1006500052EA033541F4801143F4801338D0A0FBF3
:1006600002CE4FF00005E1FB02E506F00042E0FBA0
:1006700003E54FF00006E1FB03569CF0000F18BFA6
:100680004EF0010EA4F1FF04B6F5007F64F540744E
:1006900004D25FEA4E0E6D4146EB060642EAC621E1
:1006A00041EA55514FEAC52040EA5E504FEACE2E4E
:1006B000B4F1FD0C88BFBCF5E06F1ED8BEF1004F51
:1006C00008BF5FEA500E50F1000041EB045170BDCD
:1006D00006F0004646EA010140EA020081EA030111
:1006E000B4EB5C04C2BFD4EB0C0541EA045170BD0D
:1006F00041F480114FF0000E013C00F3AB8014F187
:10070000360FDEBF002001F0004170BDC4F10004CF
:10071000203C35DA0C341BDC04F11404C4F1200550
:1007200000FA05F320FA04F001FA05F240EA0200AB
:1007300001F0004221F0004110EBD37021FA04F6E1
:1007400042EB06015EEA430E08BF20EAD37070BD9B
:10075000C4F10C04C4F1200500FA04F320FA05F0FA
:1007600001FA04F240EA020001F0004110EBD370FC
:1007700041F100015EEA430E08BF20EAD37070BD6C
:10078000C4F1200500FA05F24EEA020E20FA04F345
:1007900001FA05F243EA020321FA04F001F00041F4
:1007A00021FA04F220EA020000EBD3705EEA430E65
:1007B00008BF20EAD37070BD94F0000F0FD101F094
:1007C0000046400041EB010111F4801F08BF013CCD
:1007D000F7D041EA060195F0000F18BF704703F00B
:1007E0000046520043EB030313F4801F08BF013D92
:1007F000F7D043EA0603704794EA0C0F0CEA13554E
:1008000018BF95EA0C0F0CD050EA410618BF52EA07
:100810004306D1D181EA030101F000414FF000000D
:1008200070BD50EA410606BF1046194652EA43061B
:1008300019D094EA0C0F02D150EA013613D195EA8F
:100840000C0F05D152EA03361CBF104619460AD1D7
:1008500081EA030101F0004141F0FE4141F47001E1
:100860004FF0000070BD41F0FE4141F4780170BDD1
:1008700070B54FF0FF0C4CF4E06C1CEA11541DBF36
:100880001CEA135594EA0C0F95EA0C0F00F0A7F838
:10089000A4EB050481EA030E52EA03354FEA013165
:1008A00000F088804FEA03334FF0805545EA131378
:1008B00043EA12634FEA022245EA111545EA106540
:1008C0004FEA00260EF000419D4208BF964244F1D7
:1008D000FD0404F5407402D25B084FEA3202B61AF6
:1008E00065EB03055B084FEA32024FF480104FF4CA
:1008F000002CB6EB020E75EB030E22BFB61A75463E
:1009000040EA0C005B084FEA3202B6EB020E75EBD0
:10091000030E22BFB61A754640EA5C005B084FEA38
:100920003202B6EB020E75EB030E22BFB61A754605
:1009300040EA9C005B084FEA3202B6EB020E75EB10
:10094000030E22BFB61A754640EADC0055EA060ED1
:1009500018D04FEA051545EA16754FEA06164FEA14
:10096000C30343EA52734FEAC2025FEA1C1CC0D1C0
:1009700011F4801F0BD141EA00014FF000004FF04D
:10098000004CB6E711F4801F04BF01430020B4F10E
:10099000FD0C88BFBCF5E06F3FF6AFAEB5EB030CC6
:1009A00004BFB6EB020C5FEA500C50F1000041EBC3
:1009B000045170BD0EF0004E4EEA113114EB5C0490
:1009C000C2BFD4EB0C0541EA045170BD41F4801163
:1009D0004FF0000E013C90E645EA060E8DE60CEA6B
:1009E000135594EA0C0F08BF95EA0C0F3FF43BAF88
:1009F00094EA0C0F0AD150EA01347FF434AF95EA3F
:100A00000C0F7FF425AF104619462CE795EA0C0F22
:100A100006D152EA03353FF4FDAE1046194622E7EF
:100A200050EA410618BF52EA43067FF4C5AE50EAC9
:100A300041047FF40DAF52EA43057FF4EBAE12E7B9
:100A40004FF0FF3C06E000BF4FF0010C02E000BF9A
:100A50004FF0010C4DF804CD4FEA410C7FEA6C5C7D
:100A60004FEA430C18BF7FEA6C5C1BD001B050EA20
:100A7000410C0CBF52EA430C91EA030F02BF90EA0B
:100A8000020F0020704710F1000F91EA030F58BFCA
:100A9000994208BF90422CBFD8176FEAE37040F02C
:100AA000010070474FEA410C7FEA6C5C02D150EACA
:100AB000013C07D14FEA430C7FEA6C5CD6D152EA85
:100AC000033CD3D05DF8040B704700BF844610464A
:100AD00062468C461946634600E000BF01B5FFF749
:100AE000B7FF002848BF10F1000F01BD4DF808ED19
:100AF000FFF7F4FF0CBF012000205DF808FB00BFEA
:100B00004DF808EDFFF7EAFF34BF012000205DF843
:100B100008FB00BF4DF808EDFFF7E0FF94BF012090
:100B200000205DF808FB00BF4DF808EDFFF7CEFF91
:100B300094BF012000205DF808FB00BF4DF808EDD0
:100B4000FFF7C4FF34BF012000205DF808FB00BFA1
:100B50004FEA410C7FEA6C5C02D150EA013C0AD1B9
:100B60004FEA430C7FEA6C5C02D152EA033C02D1AB
:100B70004FF0000070474FF0010070474FEA41020C
:100B800012F5001215D211D56FF47873B3EB6252DF
:100B900012D94FEAC12343F0004343EA505311F006
:100BA000004F23FA02F018BF404270474FF0000098
:100BB000704750EA013005D111F0004008BF6FF0D6
:100BC000004070474FF00000704700BF4A0011D24C
:100BD00012F5001211D20DD56FF47873B3EB625297
:100BE0000ED44FEAC12343F0004343EA505323FAA3
:100BF00002F070474FF00000704750EA013002D118
:100C00004FF0FF3070474FF0000070474FEA41024D
:100C1000B2F1E04324BFB3F5001CDCF1FE5C0DD95A
:100C200001F0004C4FEAC0024CEA5070B2F1004FA4
:100C300040EB830008BF20F00100704711F0804FA7
:100C400021D113F13872BCBF01F00040704741F46C
:100C500080114FEA5252C2F11802C2F1200C10FA70
:100C60000CF320FA02F018BF40F001004FEAC12354
:100C70004FEAD32303FA0CFC40EA0C0023FA02F3F8
:100C80004FEA4303CCE77FEA625307D150EA0133CE
:100C90001EBF4FF0FE4040F44000704701F000409E
:100CA00040F0FE4040F40000704700BF53B94AB91D
:100CB000002908BF00281CBF4FF0FF314FF0FF3064
:100CC00000F06EB9ADF1080C6DE904CE00F006F845
:100CD000DDF804E0DDE9022304B070472DE9F047B8
:100CE000089D04468C46002B40F083808A421746BC
:100CF00047D9B2FA82F242B1C2F1200024FA00F0E0
:100D00009140974040EA010C94404FEA1748230C69
:100D1000BCFBF8F61FFA87FE08FB16C143EA014345
:100D200006FB0EF1994209D9FB1806F1FF3080F05D
:100D30001981994240F21681023E3B445B1AA4B2EB
:100D4000B3FBF8F008FB103344EA034400FB0EFE4B
:100D5000A64509D93C1900F1FF3380F00581A6456D
:100D600040F2028102383C4440EA0640A4EB0E0403
:100D700000261DB1D4400023C5E900433146BDE83B
:100D8000F08702B9FFDEB2FA82F2002A50D1CB1B03
:100D90004FEA174E1FFA87F80126B3FBFEFC210C21
:100DA0000EFB1C3341EA034108FB0CF38B4207D9CD
:100DB00079180CF1FF3002D28B4200F2E9808446B0
:100DC000C91AA3B2B1FBFEF00EFB101143EA0144B5
:100DD00008FB00F8A04507D93C1900F1FF3302D207
:100DE000A04500F2D9801846A4EB080440EA0C4064
:100DF000BFE78B4209D9002D00F0B1800026C5E97C
:100E0000000130463146BDE8F087B3FA83F6002E84
:100E10004AD18B4202D3824200F2B880841A61EB3D
:100E2000030101208C46002DA8D0C5E9004CA5E7A0
:100E3000C2F1200320FA03F6974001FA02F04FEACC
:100E4000174ED9403043030CB1FBFEF61FFA87F86A
:100E50000EFB161143EA014306FB08F1994204FA1E
:100E600002F409D9FB1806F1FF3C80F08D8099420D
:100E700040F28A80023E3B445B1A81B2B3FBFEF033
:100E80000EFB103341EA034100FB08F38B4207D904
:100E9000791800F1FF3C73D28B4271D90238394482
:100EA000CB1A40EA064678E7C6F1200C03FA06F4AE
:100EB00022FA0CF31C4320FA0CF701FA06F34FEA6E
:100EC000144E21FA0CF11F433B0CB1FBFEF91FFA43
:100ED00084F80EFB191143EA014109FB08FA8A451F
:100EE00002FA06F200FA06F308D9611809F1FF3098
:100EF00048D28A4546D9A9F102092144A1EB0A0149
:100F0000BFB2B1FBFEF00EFB101147EA014700FB38
:100F100008F8B84507D9E71900F1FF312ED2B845D6
:100F20002CD90238274440EA0940A7EB0807A0FB68
:100F300002894F45C64649461AD317D05DB1B3EB77
:100F40000E0267EB010707FA0CFCF2404CEA0202C2
:100F5000F740C5E9002700263146BDE8F0872E4658
:100F600028460BE70646E9E61846FDE64345E5D286
:100F7000B8EB020E69EB04010138DFE70846D2E75F
:100F800060468DE78146B9E7664675E730464AE731
:100F9000ACF1020C394413E702383C4424E700BFAB
:100FA000704700BF01230370014B00221A64704791
:100FB0000008004010B54B1E044CE3624910216448
:100FC00010460EF031FF0023236410BD00080040DE
:100FD00008B5037803B908BDA0224FF48E71FFF75E
:100FE000E9FFF8E7037803B9704710B50446A0227B
:100FF0004FF48E71FFF7DEFF64200EF015FFA02284
:101000004FF48E712046FFF7D5FF10BD08B5037869
:1010100003B908BDA02240F61831FFF7CBFFF8E76F
:10102000037803B9704710B50446A0224FF48E71BF
:10103000FFF7C0FF32200EF0F7FE3C2240F61831D9
:101040002046FFF7B7FF32200EF0EEFEA02240F25E
:101050008C512046FFF7AEFF10BD41F2C803C358C4
:10106000BBB370B584B004460D464E0013F8112092
:10107000FF2A1CD00123694606F0BBFA38BB9DF855
:10108000083083F001038DF80830012269462046BC
:1010900006F05EFC41F2C803E25802F81500E3587E
:1010A00033449DF808205A70012004B070BD00F54B
:1010B00081501C3007F0F4FA014640B105220DF1D1
:1010C000090018F03DFA01238DF80830DDE7002013
:1010D000EBE70020704741F2C803C358002B40D013
:1010E00070B505460E4600F581501C3007F0D6FA63
:1010F00004460246012130460EF020FEC0B241F205
:10110000C803E958054601EB40035B7813F0010F73
:101110001AD183B21A4642B101EB4200407810F076
:10112000010F02D1501E82B2F5E7A34208D201EBB3
:101130004300407810F0010F02D101339BB2F4E775
:101140001AB9A3420FD0D8B270BDA34205D0A91AD4
:101150005D1BA94203DAD0B2F6E7D0B2F4E7D8B209
:10116000F2E7012070470120EEE700002DE9F04191
:1011700007460C464E888D888B7E13F0010F2BD0CE
:101180001F4B1A881F4B198830460EF0D7FD0646B4
:101190001FFA80F81C4B1A881C4B198828460EF041
:1011A000CDFD054680B2A37E13F0010F1DD0A4F83B
:1011B0000280A080637E1E2B01D91E236376217ED0
:1011C0003846FFF788FF2076FF220A21E07E0EF0E6
:1011D000B5FDE076BDE8F08130B20EF0C7FD86B215
:1011E00028B20EF0C3FD85B2CAE730B20EF0B0FDF2
:1011F0001FFA80F828B20EF0ABFD80B2D7E700BF2F
:101200001EA7010820A701081AA701081CA70108AA
:101210002DE9F04385B006460F460024A04612E0B3
:101220000DF10901484607F047FA00B2002808DB33
:101230009DF808302BB107EB400217F81030FF2B58
:101240001DD0013424B206F5815909F11C09484624
:1012500007F024FA84420ADAE5B201232A466946F5
:10126000304606F0C6F90028DAD00128E9D1304628
:1012700006F0BEF85FFA88F005B0BDE8F08307F825
:1012800010509DF80830537008F101081FFA88F8D3
:10129000D7E708B541F2C803C15809B9002008BD15
:1012A000FFF7B6FF0120FAE738B50C4615461146A0
:1012B00000F581501C3007F0F3F9C8B1014615B1B3
:1012C00003784E2B07D10522204618F039F9002368
:1012D0006371204638BD094B186820601B79204691
:1012E00000F8043F052218F02BF900236372F0E7A1
:1012F000034B03CB20606160EBE700BF64A70108EC
:101300006CA7010808B541F25403C25C0149FFF71C
:10131000CBFF08BD880200202DE9F8431746984608
:101320009DF8209041F2C803C2581AB106464C1EDF
:10133000032511E00023434559D203EB430207EB99
:101340008202002191700133DBB2F4E7013D15F018
:10135000FF0527D0013C24B2002C09DDB9F1000FB4
:10136000F4D002EB44035B7813F0010FF2D0EDE709
:10137000002517E005EB450307EB8301E2B207F810
:10138000232041F2C803F35803EB44035B784B700E
:1013900002313046FFF788FF0135EDB2454517D2DF
:1013A000013424B206F581501C3007F077F98442ED
:1013B0000EDA002CF4D0B9F1000FDBD041F2C803F3
:1013C000F35803EB44035B7813F0010FD2D1E7E746
:1013D0002946414508D201EB410007EB800000237C
:1013E00083700131C9B2F4E72846BDE8F8830020D4
:1013F000FBE708B54288838E9A4233D18288C38E38
:101400009A4231D1C288038F9A422FD1828AB0F892
:1014100046309A422CD1827D90F848309A4229D1A8
:10142000027E90F84A309A4226D1427E90F84B30A4
:101430009A4223D1827E90F84C309A4220D1C27DCC
:1014400090F849309A421DD1C27E90F84D309A42B0
:101450001AD1142200F14F011D3018F05FF8A8B91D
:10146000012000E0002008BD0020FCE70020FAE792
:101470000020F8E70020F6E70020F4E70020F2E77C
:101480000020F0E70020EEE70020ECE70020EAE78C
:1014900008B5EB2343804FF4967383804FF4966333
:1014A000C380012202760023437683820521817561
:1014B00033218176C37541F6490303812523438196
:1014C0004FF439638381C823C38140230382C3233C
:1014D00043828023C3760277142202491D3018F01C
:1014E0002FF808BD08A7010810B50446437F13B1C3
:1014F00004F11D0010BD142202491D3018F020F81F
:10150000F6E700BF08A701082DE9F04F83B00446B5
:1015100001921D469DF830B09DF834A09DF838909A
:101520009DF83C809DF840609DF84470837E03F0F8
:1015300001034176BDF8482082829DF84C208275D7
:10154000AB420BD0002D44D0B0F902000EF00EFCDF
:101550006080B4F904000EF009FCA0800023A3769B
:101560000DB10123A376019B1BB1A37E43F00203BF
:10157000A376BBF1000F03D0A37E43F00403A37650
:10158000BAF1000F03D0A37E63F07F03A376B9F115
:10159000000F03D0A37E43F01003A376B8F1000F31
:1015A00003D0A37E43F02003A3761FB1A37E43F0B4
:1015B0000803A3761EB1A37E43F04003A376FF2267
:1015C0000A219DF850000EF0B9FBE07603B0BDE8AB
:1015D000F08FB0F902000EF0BBFB6080B4F904009C
:1015E0000EF0B6FBA080B9E7418070478180C280D1
:1015F000704770B4034600F1320230301E685D68F7
:101600009C68D968166055609460D16010331032C0
:101610008342F3D11B88138070BC704738B50446F1
:1016200000F581551C352846FFF7E3FE00B138BDB3
:101630002946204606F057F92846FFF7DAFFF6E775
:1016400010B5AAB90A6841F24403C2524A6841F28D
:101650004603C2528A6841F24803C25200F58154DF
:101660001C34214606F03FF92046FFF7C2FF10BDAB
:101670000A6841F24A03C2524A6841F24C03C2521C
:101680008A6841F24E03C252E8E770B400F13203B7
:10169000024662301E685D689C68D96816605560B5
:1016A0009460D160103310328342F3D11B881380D1
:1016B00070BC7047C07D000900EB80007047C07DA2
:1016C00000F00F00013000EB800080007047000048
:1016D0004B2900D94B21B2F5A07F03D8042A03D8A7
:1016E000052201E04FF4A0720B1DDBB20849A1FBFB
:1016F00003139B081B01DBB2013A064981FB02C1BF
:10170000D217C2EBE10202F00F021343C375704718
:10171000CDCCCCCC6766666610B5044632B18B89F9
:101720004A8909890DF028FB204610BD4B8A0A8A98
:10173000C9890DF021FBF7E710B504463AB1C8237B
:101740000A2240F23F210DF017FB204610BD322344
:10175000402296210DF010FBF7E730B40D8802EB24
:10176000820400EB440320F814504C885C808C8881
:101770009C80CC88DC800C7A1C7291F90E3002EBD4
:10178000820200EB4202537230BC704701EB8101D0
:1017900000EB410191F909007047032905D802EBDC
:1017A00082020A4430F81200704700207047032973
:1017B0000BD8012A04D0083100EB4101888870471A
:1017C0000C3100EB410188887047002070472DE9FB
:1017D000F04782B004460E46904600F58559002138
:1017E0004846FFF7E4FF074641F2500A02463146F9
:1017F00034F80A000EF0A2FA85B224F80A504246E4
:1018000000214846FFF7C9FF009000233A463146C1
:1018100028460EF05FFA80B202B0BDE8F087000003
:101820002DE9F04F85B005460F4690461C461A46F6
:1018300003EB830300EB430191F90990A8EB09093D
:1018400030F81360BE4208D804EB840300EB430376
:10185000DE88BE423FD3012616E00021FFF7A7FF36
:101860004844009043463246002138460EF032FA92
:1018700000B240F2E73241460EF060FA80B205B0A5
:10188000BDE8F08F0136F6B2032E55D802EB820385
:10189000334435F813A0BA45F4D9711E04EB840320
:1018A000194435F811B0711E2246C9B22846FFF717
:1018B0007EFF00EB09030393224631462846FFF7DB
:1018C00076FF48440090039B5246594638460EF036
:1018D00001FA00B2CDE704EB840300EB4303B3F855
:1018E00002A0564513D90121FFF761FF00EB090B58
:1018F000224603212846FFF75AFF484400905B46E2
:101900003246514638460EF0E5F900B2B1E7012102
:10191000FFF74DFF00EB0906224603212846FFF79B
:1019200046FF484400903346044A128851463846E0
:101930000EF0D0F900B29CE700209AE726A7010834
:1019400010B5044600F58550FFF76AFF04F5815392
:101950001C339B7E13F0010F00D010BD00B20EF0BF
:10196000F7F980B2F9E700002DE9F04F85B00546A0
:10197000039116461C4600F5855919464846FFF75F
:1019800005FF371A224600214846FFF710FFBFB275
:1019900000EB07081FFA88F8224603214846FFF7A4
:1019A00006FF0744BFB2012C35D0484BB3F800A066
:1019B000012C34D0464BB3F800B005F581531C33ED
:1019C0009B7E13F0010F2ED05A46514603980EF01D
:1019D000B5F91FFA80FA3F4BB3F800B02246002158
:1019E0004846FFF7DAFE0390224603214846FFF7F8
:1019F000D4FE0090039B3A46414650460EF06AF9E9
:101A000080B2B0EB5B0F25DDA0EBAB07BFB24FF0B0
:101A10000008C1463BE0304BB3F800A0C8E72F4BAD
:101A2000B3F800B0C9E70FFA88F00EF091F91FFA89
:101A300080F838B20EF08CF987B20FFA8AF00EF007
:101A400087F91FFA80FA0FFA8BF00EF081F91FFA6E
:101A500080FBB9E75F46BBF1000F03DB00EBA70794
:101A6000BFB2D4E70BF10307F8E77B1CB9469FB27E
:101A700009E009EB070303EBD373C3F34F039F4262
:101A80001CD0BB461F4608F101085FFA88F8B8F180
:101A9000130F17D82346324639462846FFF750FF22
:101AA00082450FD0E5D907EB0B0303EBD373C3F3E8
:101AB0004F039F42D9D0B9461F46E4E77B1EBB4681
:101AC0009FB2E0E7384605B0BDE8F08F20A70108D7
:101AD0001EA7010826A701081CA701081AA70108CC
:101AE0000023032B0ED810B402EB82041C4430F800
:101AF000144021F813400133DBB2032BF4D95DF815
:101B0000044B70477047000070B4002408E031F8BF
:101B1000146003EB8305254420F815600134E4B21A
:101B2000032CF4D903EB830100EB41014A72032239
:101B30000A72C988054A1288914204D903EB8303CB
:101B400000EB4303DA8070BC704700BF26A7010892
:101B500010B401EB810200EB42034FF42A7420F829
:101B600012404FF471725A8040F20A529A804FF438
:101B7000C862DA80044A92F900205A721946012399
:101B80000B725DF8044B704719A7010808B5FFF701
:101B9000DFFF08BD0A884B889A4207D28A889342A1
:101BA00006D2CB889A4205D30020704700207047A8
:101BB0000020704701207047F0B585B041F2C8039E
:101BC000C358002B46D004460E4613F81120FF2AB6
:101BD0000DD00023694605F00CFD0746A8B104F5B9
:101BE000855086B90121FFF7B3FF002506E000F517
:101BF000855031B90121FFF7ABFF0025284605B01C
:101C0000F0BD0021F7E70021EDE79DF8081011F085
:101C1000020107D104F5855006B90121FFF798FFAD
:101C20000125EBE704F5855469462046FFF7B2FF2E
:101C3000054638B906B9012739462046FFF788FF1F
:101C40000125DBE706B901273A4669462046FFF73A
:101C500084FDD3E70025D1E7F8B5054600F58156A8
:101C60001C36304606F01AFD400017F0D3FA41F258
:101C7000C803E85098B10024304606F00FFD8442B6
:101C80000DDA41F2C803EA58FF2102F81410EB58AC
:101C900003EB440300225A700134E4B2ECE7284617
:101CA00005F05CFC0446A0BB41F2C803E95809B347
:101CB0002846FFF7ADFA074605F581561C36314632
:101CC000284605F00FFDB8B131462846FFF74EFA19
:101CD00000212846FFF770FF41F25403E95C2846D3
:101CE000FFF76AFF05F581501C30FFF782FC47B310
:101CF0002046F8BD0746DFE705F581501C30FFF7A9
:101D0000C7FB41F25406A95D2846FFF7E4F9A85540
:101D1000DEE705F581561C363046FFF7B9FB012199
:101D200005F58550FFF714FF01212846FFF744FF12
:101D30003046FFF75EFC012C05D0022C05D00024B4
:101D4000D6E70124D4E70224D2E70324D0E738B54C
:101D500004460D46FFF730FF00B938BD41F2540389
:101D6000E5542046FFF75AFCF7E72DE9F04184B02F
:101D700004460E461D461388ADF800305388ADF872
:101D800002309388ADF80430D388ADF806308DF872
:101D900008509DF928308DF80E3041F2C803C35821
:101DA0004F0003EB41035D7000F581501C3006F0DD
:101DB00077FC30B18046694604F58550FFF7EAFEAE
:101DC00038B904F586500430FFF72AF904B0BDE8AD
:101DD000F081052241460DF1090017F0B1FB002208
:101DE0006946204605F0B4FDB0F10008E9DB04F5D2
:101DF00086500430FFF7ECF841F2C803E25802F8CD
:101E00001680E3581F447D70E0E790F82101704789
:101E100090F825017047000038B50A4B1B783BB19C
:101E200000204FF08043586303F58033186438BDB9
:101E30000446044D1422291D03480EF0CFF82C70DF
:101E40000120F4E794020020388F002008B50846EE
:101E500015F04AFC08BD08B5084615F03BFC08BD66
:101E600008B5084615F02CFC08BD08B515F01EFC99
:101E700008BD08B515F010FC08BD0000014B93F833
:101E80002C0070479402002038B50DF0C7FF00F514
:101E900096751C4B5B6A9BB29C1CA4B2632C02D946
:101EA000A3F16104A4B20DF0B9FFA84207D2154B0B
:101EB0005B6AA342F7D14FF0804300225A620DF0D3
:101EC000ADFF00F596750F4B5B6A9BB29C1CA4B2EC
:101ED000632C02D9A3F16104A4B20DF09FFFA842C4
:101EE00008D2084B5B6AA342F7D14FF08043586A8F
:101EF00080B205E04FF08043D86A80B2013080B2F2
:101F000038BD00BF0000014030B585B01F4C012135
:101F10000291019100910B460022204605F0B2F992
:101F2000A4F52F64204602F087F93C21204602F0F8
:101F300041FD8023164943F2B8228B54154A53635E
:101F4000022512E000230093B4FA84F35B096422B3
:101F50003F21114803F004FD25460C4805F01EF909
:101F600058B90E4802F020F960B9094A43F6745393
:101F7000D45AE4B2A542F0D0E4E7B4FA84F04009C0
:101F800005B030BD05200DF04FFFEEE704760020D0
:101F9000AC38002000040040146B0020646B00206B
:101FA0002DE9F04186B0044600F54955283528460C
:101FB00005F04AF804F56E500C3006F059FA04F5B5
:101FC0007650243005F096FE4FF400723A4904F53D
:101FD00074500C3005F0D6F84FF48042374904F5C0
:101FE0007550183005F0CEF82046FFF735FE07464D
:101FF000012840D90021284602F0F0F801212846A6
:1020000005F074F8204605F0F3F904F581561C3606
:102010006D46012231462846FFF77EFB294604F52E
:102020006E5010300CF0AFFE0DF10C08002231465E
:102030004046FFF771FB98E8070085E8070029464E
:1020400004F5765028300CF09EFEB37EC3F34001B9
:1020500043F62C72A154C3F3001104F5745282F8B4
:102060004A10C3F3401304F5755484F856303846CB
:1020700006B0BDE8F08104F586560C3604F54B51E8
:102080000C3130460CF020FC04F5815808F11C0896
:102090004046FFF729FA014630460CF064FE42F252
:1020A0009413F158284602F099F898F81C10284625
:1020B00005F01CF8A6E700BF00000240000802403F
:1020C0002DE9F8436E48FFF76BFF07466D4C0C2176
:1020D000204610F05FF8082120460FF0BFFF6A4C41
:1020E0000021204610F056F80421204610F052F846
:1020F000082120460FF0B2FF0C2120460FF0AEFF62
:102100000C21624810F046F8614D05F1300605F1EA
:102110007C0905F5907433464A463146204609F05D
:10212000CFFC05F5BC78334642462146484609F0C7
:10213000C7FC334622462146404609F0C1FC2346EF
:102140002246214605F5D07009F0BAFC05F5FE7867
:1021500023462246414605F50B7009F0B1FC2346A3
:1021600022462146404609F0ABFC23462246214642
:1021700005F5197009F0A4FC05F5247923462246DB
:102180002146484609F09CFC23463246314605F577
:10219000337009F095FC05F53E782346224621462A
:1021A000404609F08DFC23462246314605F54A702B
:1021B00009F086FC23462246314605F5577009F0A2
:1021C0007FFC234622462146304609F079FC05F57E
:1021D000667633462246214605F5747009F070FC98
:1021E000234622462146304609F06AFC2346224611
:1021F0004946284809F064FC43464246214605F515
:102200007D7009F05DFC244802F016F8022F1CD006
:10221000032F23D0012F13D0FFF736FE4FF47A702F
:102220000DF002FE164B41F25702995C43F2B822C0
:1022300099541A4B186803681B689847BDE8F883DF
:10224000164B04F158021A60E6E7154C00223C21B7
:1022500020460BF009FA114B1C60DDE7FFF754FE36
:102260000028D9D0064805F0D3F80028D4D10C4C6A
:102270000022402120460BF0F7F9084B1C60CBE709
:10228000AC380020E08F002080900020A88E002035
:1022900094020020E4060020146B002000000020BF
:1022A0002405002038B5354C204606F0B7F804F573
:1022B000067005F0B9FC324B186809F005FC20B136
:1022C00004462F4B1B6883422AD12D4D2868036892
:1022D0005B68984704462B68834215D0002833D0AA
:1022E000264D0021284605F087FF002105F50670E0
:1022F00005F074FD4FF0804300225A63204B1C60B0
:1023000023681B68204698470DF088FD1D4BD3F8C5
:10231000483498421AD21C4801F046FF48BB38BDE9
:102320001A4D2846FEF75EFE0021A5F5687005F0FF
:1023300063FF4FF0804300225A63114B1C602368F7
:102340001B6820469847EAE7114CC9E7114A536ACF
:102350000C4CD4F84C145B1A18BF012384F82C30B1
:10236000536AC4F84C340DF059FD2930C4F84804C0
:10237000D1E705200DF058FDD1E700BF38740020EB
:102380000000002094020020646B0020D877002019
:10239000240500200000014008B50368144A934258
:1023A00003D0B3F1804F0DD008BD027F042AF8D1CD
:1023B000104805F0D9FD632200210DF0BFFC0C4B45
:1023C0001864F1E7037F042B05D0082BECD1022021
:1023D000FFF722FDE8E74FF080435B6B23B94FF036
:1023E00080439B6B002BDFD00120FFF715FDDBE75F
:1023F000000001405076002002685B4B9A4200D0FA
:10240000704710B586B059480DF09AFE584B1B78AE
:10241000DBB2022B09D0564B1B78DBB2012B69D003
:10242000534B00221A7006B010BD00230193029393
:1024300003931AE0991C4E4A02EB410189880198E6
:1024400010FA81F10191D91C02EB410189880298AF
:1024500010FA81F10291191D02EB41029288039951
:1024600011FA82F203920533DBB2132BE2D9019BFE
:1024700002330193019B9B080193029B0233029359
:10248000029B9B080293039B02330393039B9B08CD
:102490000393039937480DF0D5F8374A1379013B78
:1024A000DBB2137103BB134606221A710124334AAF
:1024B00041F25603D35C13F0400F03D143F6AD4312
:1024C000D35C9BB101992E4806F006F84FF4F562F3
:1024D00021460DF033FC4FF080435863029989B2D6
:1024E000284805F048FC9BE70024E0E74FF08043D4
:1024F0005C63F3E700230493059311E01C4A02EBAD
:1025000043018988049810FA81F10491591C02EB67
:1025100041029288059911FA82F205920533DBB2E5
:10252000132BEBD9049B02330493049B9B08049365
:10253000059B02330593059B9B0805934FF0804351
:102540005B6B5BB94FF080439B6B002B3FF468AF34
:10255000059989B20C480DF018F961E7049989B220
:102560000A480DF012F9EDE700200140388F0020F5
:10257000940200204875002000000020AC380020A4
:1025800038740020507600206C77002050750020B1
:102590007047000008B5064B5B6913F0010F00D1CE
:1025A00008BD044804F081FE014B01225A61F7E79F
:1025B000003C0140B875002008B5064B5B6913F07C
:1025C000020F00D108BD044804F06FFE014B022247
:1025D0005A61F7E7003C01400476002038B50C460C
:1025E0001546AC4204D254F8040B16F0B6F8F8E7DE
:1025F00038BD10B5044603683BB1426A04324169F4
:10260000FFF7ECFF206816F0A8F8204610BD2DE972
:10261000F04188461746CE6804360BE01834A542D0
:1026200007D0234653F8080B8342F7D016F095F8ED
:10263000F4E70436FB68B34203D9346804F5FC754B
:10264000EDE7D8F80C2093421DD0D8F80040D8F818
:10265000085000E01834A54207D0234653F8080B71
:102660009842F7D016F079F8F4E77C683D6800E00E
:102670001834A54216D0234653F8080B9842F7D0D9
:1026800016F06BF8F4E7D8F800403D6800E0183425
:10269000A54207D0234653F8080B9842F7D016F00E
:1026A0005CF8F4E7BDE8F08170B582B005460E46EF
:1026B00061B1941B01940F2C0DD82868012C13D004
:1026C000A4B12246314616F0C3FD0FE09142F0D08E
:1026D0000A4816F05DF8002201A9284616F016F9FE
:1026E0002860019BAB60E8E733780370019B6B6067
:1026F0002A680021D15402B070BD00BF74A7010840
:1027000038B50C461546AC4206D24FF4FC7016F0B4
:1027100028F844F8040BF6E738BD00002DE9F04333
:1027200083B004460D46274BA3FB0123CA1A03EBD3
:1027300052031B095E1C082200920333019393424B
:102740003BD86B4618686060B0F1005F37D28000FC
:1027500016F007F8804620606768BF1B7F0800EB13
:10276000870909EB8606324649462046FFF7C8FF2F
:10277000C4F8149058F82730E36003F5FC72226126
:10278000321F626256F8042CE26102F5FC7121628C
:10279000A3600C4BA3FB0513E91A03EB51031B09C0
:1027A00003EB4303C3EBC303EB1A03EB430302EB5B
:1027B000C303A36103B0BDE8F08301ABC2E715F02A
:1027C000E4FF00BF876118862DE9F04F83B006460D
:1027D000002441F22803C45441F22A034FF48052EA
:1027E000C25241F22C03C84AC25041F23003C74AD8
:1027F000C25041F23403C64AC25041F23803C54ABE
:10280000C25000F58552C44B03CB5061916103CB9C
:10281000D061116206F586500430FEF7C3FB41F229
:10282000C803F45006F586570C3742F2600807EBF0
:102830000805DFF8449347F8089005F10C036B6036
:10284000AC602C73EC612C626C62AC62EC622C6349
:102850006C63AC63EC632C64214605F11C00FFF74C
:102860005DFF6C64AC64EC642C656C65AC65EC6518
:102870002C666C66AC66214605F14400FFF74EFFFE
:10288000A64B47F8083042F2CC02BB1803F108010E
:10289000B9505C6042F2D403FC5442F2E402BB182B
:1028A00003F10801B9505C6042F2EC03FC5442F2BF
:1028B000FC02BB1803F10801B9505C6042F204133A
:1028C000FC5442F21412BB18BC505C609C6042F293
:1028D000201807EB080547F8089005F10C036B601A
:1028E000AC602C73EC612C626C62AC62EC622C63A9
:1028F0006C63AC63EC632C64214605F11C00FFF7AC
:102900000DFF6C64AC64EC642C656C65AC65EC65C7
:102910002C666C66AC66214605F14400FFF7FEFEAE
:102920007F4B47F80830EC6642F29013FC5442F2B9
:102930009413FC5042F298137A4AFA5043F26827F3
:10294000F519281D15F034FC85F85040A5F85440C1
:10295000AC65EC65A5F8604085F8624005F164035C
:1029600085F86440704A5A6005F174029A60DC6030
:102970001C746E4A1A6205F190025A629C6283F8D6
:102980002C406B4ADA6305F1AC021A645C6483F88C
:102990004840684A9A6505F1C801D9651C6683F804
:1029A00064406549596705F1E4019967DC6783F87C
:1029B00080406249C3F8901005F58071C3F8941007
:1029C000C3F8984083F89C405D49C3F8AC1005F506
:1029D0008E71C3F8B010C3F8B44083F8B8405949B9
:1029E000C3F8C81005F59C71C3F8CC10C3F8D040EB
:1029F00083F8D4405449C3F8E41005F5AA71C3F82C
:102A0000E810C3F8EC4083F8F0405049C3F80011D7
:102A100005F5B871C3F80411C3F8084183F80C41F7
:102A20004B49C3F81C1105F5C671C3F82011C3F852
:102A3000244183F828414749C3F8381105F5D4707B
:102A4000C3F83C01C3F8404183F844414248C3F80D
:102A5000540105F5E270C3F85801C3F85C4183F8EE
:102A600060413E48C3F8700105F5F070C3F8740189
:102A7000C3F8784183F87C413948C3F88C0105F5E7
:102A8000FE70C3F89001C3F8944183F8984135482B
:102A9000C3F8A80105F50670C3F8AC01C3F8B0414E
:102AA00083F8B4413048C3F8C40105F50D70C3F88C
:102AB000C801C3F8CC4183F8D0412C48C3F8E001E9
:102AC00005F51470C3F8E401C3F8E84183F8EC415C
:102AD000C3F8FC2105F51B72C3F80022C3F80442B9
:102AE00083F80842224AC3F8182205F52272C3F877
:102AF0001C22C3F8204283F824421E4AC3F8342221
:102B000005F529723AE000BFA0A70108ACA70108AB
:102B1000B8A70108C4A70108D89B010844A501086B
:102B2000DCA4010810A70108D0A70108DCA7010850
:102B3000E8A70108F4A7010800A8010810A80108E7
:102B400020A801082CA8010838A8010848A80108F5
:102B500058A8010860A8010868A8010874A801081D
:102B60007CA8010884A8010894A80108A0A801086D
:102B7000ACA80108B8A8010810A50108C3F83822BC
:102B8000C3F83C4283F84042E94AC3F8502205F5B5
:102B90003072C3F85422C3F8584283F85C42E54AC5
:102BA000C3F86C2205F53772C3F87022C3F874427B
:102BB00083F87842E04AC3F8882205F53E72C3F8EC
:102BC0008C22C3F8904283F89442DC4AC3F8A422D2
:102BD00005F54572C3F8A822C3F8AC4283F8B042A9
:102BE000D74AC3F8C02205F54C72C3F8C422C3F813
:102BF000C84283F8CC42D34AC3F8DC2205F55372AD
:102C0000C3F8E022C3F8E44283F8E842CE4AC3F8AE
:102C1000F82205F55A72C3F8FC22C3F8004383F882
:102C20000443CA4AC3F8142305F56172C3F8182394
:102C3000C3F81C4383F82043C54AC3F8302305F585
:102C40006872C3F83423C3F8384383F83C43C14A5D
:102C5000C3F84C2305F56F72C3F85023C3F85443EF
:102C600083F85843BC4AC3F8682305F57672C3F865
:102C70006C23C3F8704383F87443B84AC3F88423C1
:102C800005F57D72C3F88823C3F88C4383F890431D
:102C9000B34AC3F8A02305F58262C3F8A423C3F89E
:102CA000A84383F8AC43AF4AC3F8BC2305F22C42D7
:102CB000C3F8C023C3F8C44383F8C843AA4AC3F87F
:102CC000D82305F58962C3F8DC23C3F8E04383F811
:102CD000E443A64AC3F8F42305F26440C3F8F803BA
:102CE000C3F8FC4383F80044C3F8101405F5906161
:102CF000C3F81414C3F8184483F81C449C49C3F85F
:102D00002C1405F29C41C3F83014C3F8344483F802
:102D100038449849C3F8481405F59761C3F84C1432
:102D2000C3F8504483F854449349C3F8641405F23B
:102D3000D441C3F86814C3F86C4483F870448F49D5
:102D4000C3F8801405F59E61C3F88414C3F8884461
:102D500083F88C44C3F89C2405F20C52C3F8A024D9
:102D6000C3F8A44483F8A844854AC3F8B82405F5F9
:102D7000A562C3F8BC24C3F8C04483F8C444814AA4
:102D8000C3F8D42405F24452C3F8D824C3F8DC4471
:102D900083F8E0447C4AC3F8F02405F5AC62C3F83C
:102DA000F424C3F8F84483F8FC44784AC3F80C25AB
:102DB00005F27C52C3F81025C3F8144583F8184572
:102DC000734AC3F8282505F5B362C3F82C25C3F868
:102DD000304583F834456F4AC3F8442505F2B452B0
:102DE000C3F84825C3F84C4583F850456A4AC3F8F0
:102DF000602505F5BA62C3F86425C3F8684583F811
:102E00006C45664AC3F87C2505F2EC52C3F8802570
:102E1000C3F8844583F88845614AC3F8982505F5C9
:102E2000C162C3F89C25C3F8A04583F8A4455D4A58
:102E3000C3F8B42505F22462C3F8B825C3F8BC452D
:102E400083F8C045584AC3F8D02505F5C862C3F8D1
:102E5000D425C3F8D84583F8DC45544AC3F8EC259B
:102E600005F25C62C3F8F025C3F8F44583F8F84531
:102E70004F4AC3F8082605F5CF62C3F80C26C3F8FD
:102E8000104683F814464B4AC3F8242605F2946290
:102E9000C3F82826C3F82C4683F83046464AC3F8C0
:102EA000402605F5D662C3F84426C3F8484683F8A1
:102EB0004C46424AC3F85C2605F2CC62C3F8602651
:102EC000C3F8644683F868463D4AC3F8782605F59A
:102ED000DD62C3F87C26C3F8804683F88446394A0D
:102EE000C3F8942605F20472C3F89826C3F89C46EA
:102EF00083F8A046344AC3F8B02605F5E462C3F867
:102F0000B426C3F8B84683F8BC46304AC3F8CC268A
:102F100005F23C72C3F8D026C3F8D44683F8D846ED
:102F20002B4AC3F8E82605F5EB62C3F8EC2651E01E
:102F3000C4A80108D0A80108E0A80108F0A8010869
:102F4000FCA8010808A9010814A901081CA9010886
:102F500024A9010830A901083CA9010848A90108D1
:102F600058A9010864A9010870A9010878A90108F5
:102F700080A901088CA9010898A90108A4A9010841
:102F8000B4A90108BCA90108C0A90108C4A9010885
:102F9000CCA90108D4A90108DCA90108E4A9010809
:102FA000ECA90108F4A90108F8A90108FCA9010885
:102FB00000AA010804AA01080CAA010814AA010821
:102FC00020AA01082CAA010840AA010854AA010855
:102FD00064AA0108C3F8F04683F8F446E94AC3F846
:102FE000042705F27472C3F80827C3F80C4783F866
:102FF0001047E54AC3F8202705F5F262C3F82427F5
:10300000C3F8284783F82C47E04AC3F83C2705F269
:10301000AC72C3F84027C3F8444783F84847DC4AFA
:10302000C3F8582705F5F962C3F85C27C3F8604771
:1030300083F86447D74AC3F8742705F2E472C3F8EB
:103040007827C3F87C4783F88047D34AC3F8902792
:1030500005F50062C3F89427C3F8984783F89C47A6
:10306000CE4AC3F8AC2705F61C02C3F8B027C3F854
:10307000B44783F8B847CA4AC3F8C82705F63802E8
:10308000C3F8CC27C3F8D04783F8D447C54AC3F860
:10309000E42703F5FE62C3F8E827C3F8EC4783F89A
:1030A000F047C14AC3F8002803F60C02C3F804280D
:1030B000C3F8084883F80C48BC4AC3F81C2803F638
:1030C0002802C3F82028C3F8244883F82848B84ABF
:1030D000C3F8382803F64402C3F83C28C3F8404834
:1030E00083F84448B34AC3F8542803F50662C3F88A
:1030F0005828C3F85C4883F86048AF4A92E8030058
:10310000C3F8700883F87418AC4BF351D5F8203924
:10311000C5F8DC38A5F8E0484FF6FF73A5F8E238AB
:103120004FF47842A5F8E4281F22A5F8E6284FF6C8
:10313000E072A5F8E82885F8EA48C5F8EC48C5F833
:10314000F048C5F8F448C5F8F84885F8FC389623E7
:10315000A5F8FE38A5F80049A5F80249A5F80449E4
:10316000A5F80649C823A5F808396E23A5F80A3939
:103170005A23A5F80C394FF03C02A5F80E29A5F802
:1031800010392023A5F812391923A5F814398C4BCE
:10319000C5F818398B4BC5F81C39C5F8203943F6EA
:1031A0008C3173184FF0140AC3F804A01C815C81A1
:1031B000DC600A271F615F619C614FF00B029A83FC
:1031C000814A92F8009083F8624083F8604083F867
:1031D000619083F8A64083F8A44083F8A59083F813
:1031E000EA4083F8E84083F8E990A3F8EC40A3F8BC
:1031F000EE40A3F8F040A3F8F24083F8F440C3F89F
:10320000F84083F8FC4083F8FD40A3F8FE40A3F8A3
:103210000041A3F80241C3F80441082583F808518E
:10322000C3F80C4183F80851C3F80C4183F81051DE
:10323000C3F8144183F81051C3F8144183F81851AE
:10324000C3F81C4183F81851C3F81C4183F820418E
:1032500083F821414FF4C87BA3F822B14FF4FA78E8
:10326000A3F8248183F82851C3F82C4183F828510E
:10327000C3F82C4183F8304183F83141A3F832B1CF
:10328000A3F8348183F8387183F83951A3F83A816F
:103290004FF47A7CA3F83CC1032283F83E210E222E
:1032A00083F83F2183F840A1052283F841214FF0A4
:1032B000020083F842016422C3F8442140F63C70C6
:1032C000A3F8480141487050A3F84A41A3F84C4183
:1032D000A3F84E41A3F8504183F8524183F853417B
:1032E000A3F8544183F85851C3F85C4183F858510E
:1032F000C3F85C4183F86051C3F8644183F86051BE
:10330000C3F8644183F86851C3F86C4183F868518D
:10331000C3F86C4183F87051C3F8744183F870515D
:10332000C3F8744140F2CF70A3F87801A3F87AC1D2
:1033300083F87CA1A3F87E2101230093244B4FF452
:103340008072244906F574500C3003F0D8FE022335
:1033500000931F4B4FF400421F4906F5755018307B
:1033600003F0CDFE43F6A452B318C3F804A01C81A9
:103370005C81DC601F615F619C614FF00B01998390
:103380002CE000BF74AA01088CAA0108A4AA0108B5
:10339000ACAA0108B4AA0108B8AA0108BCAA01088D
:1033A000CCAA0108D8AA0108E8AA0108F8AA0108CD
:1033B0000CAB010818AB0108E89B0108009C010850
:1033C00024AC010880B4010824A701089CA40108CA
:1033D00000040240000002400008024083F86240FE
:1033E00083F8604083F8619083F8A64083F8A44096
:1033F00083F8A59083F8EA4083F8E84083F8E990E1
:10340000A3F8EC40A3F8EE40A3F8F040A3F8F24094
:1034100083F8F440C3F8F84083F8FC4083F8FD409B
:10342000A3F8FE40A3F80041A3F8024183F8044149
:10343000C3F8084183F80C51C3F8104183F80C51CC
:10344000C3F8104183F8144183F81541A3F816B16D
:10345000A3F8188183F81C51C3F8204183F81C514C
:10346000C3F8204183F8244183F82541A3F826B10D
:10347000A3F82881A3F82C814FF47A7CA3F82EC1FD
:103480001E2183F830114FF03C0183F8311183F88D
:1034900032710121C3F834113249B15083F83841F7
:1034A00083F8394183F83A41A3F83C41A3F83E41FF
:1034B000C3F84041C3F844412B4A127883F848517D
:1034C000C3F84C4183F84821C3F84C4183F850516C
:1034D000C3F8544183F85021C3F8544183F858513C
:1034E000C3F85C4183F85851C3F85C4183F86051DC
:1034F000C3F8644183F86051C3F8644183F86851AC
:10350000C3F86C4183F86851C3F86C41A3F870416B
:10351000462283F87221632283F873214FF41672D6
:10352000A3F8742140F2CF70A3F876014FF4C8627B
:10353000A3F878214FF44872A3F87A214FF03C02A7
:10354000A3F87C21094AC3F880214EF66022C3F813
:10355000842106F57C502C30FDF724FD304603B065
:10356000BDE8F08F5CA4010823A70108407E050098
:103570002DE9F043A1B00546514B036043F2B0166C
:10358000831984595F6802E015F0E7F81834A74200
:1035900005D0234653F8080B9842F5D1F6E7A85911
:1035A00008B115F0DAF843F29813E85805F54653D8
:1035B0002033984201D015F0D0F805F1240843F2E9
:1035C000A00708EB07043F4B48F80730D4F8B46075
:1035D000D4F8B89002E015F0C0F84836B14513D0E1
:1035E000306B06F13803984201D015F0B6F8B06997
:1035F00006F12003984201D015F0AFF8334653F896
:10360000080B9842E7D1E8E7D4F8B40008B115F008
:10361000A4F804F16C06306B04F1A403984201D0C5
:1036200015F09BF8B06906F12003984201D015F01F
:1036300094F8E06E0836B04201D015F08EF8224BB7
:1036400048F8073004F14406E76C206D616DA26D07
:10365000E36D14971590169117921093236E1193A2
:10366000636E1293A36E139310AA14A93046FEF74B
:10367000CEFF3046FEF7BDFF04F11C06676AA06A64
:10368000E16A226B636B1C971D901E911F92189329
:10369000A36B1993E36B1A93236C1B9318AA1CA9B1
:1036A0003046FEF7B4FF3046FEF7A3FF60680C34E7
:1036B000A04201D015F051F8284621B0BDE8F083B2
:1036C000D8A5010844A5010810A501082DE9F04F6F
:1036D000C9B006468846012808D026B94FF6FF73C0
:1036E000984500F0F28249B0BDE8F08F4FF6FF73C5
:1036F0009942F2D1DFF8F4A35046FFF765F8EB4C9E
:103700004FF0010984F824910025A4F82C51C4F845
:103710003051C4F83451C4F83851C4F83C51C4F89D
:103720004051C4F828A1E24BC4F8203194F872311A
:10373000082284F84421C4F8485184F84431C4F87C
:103740004851C4F84C51C4F85051C4F85451C4F80D
:103750005851A4F85C51A4F85E51A4F8605184F863
:10376000625184F8639184F8649184F86551C4F8D7
:103770006851C4F86C514FF4FA73A4F87031052302
:1037800084F8723140F6B832A4F8742140F2DC5368
:10379000A4F8763184F88090A4F88850C4F88C504E
:1037A000C4F89050C4F89450C4F89850C4F89C5091
:1037B000C4F884A0BF49E167C4F8185184F81C51CB
:1037C00084F87C91A4F88451C4F88851C4F88C51D1
:1037D000C4F89051C4F89451C4F89851C4F880A129
:1037E000B549C4F878114FF0FF3184F89C1184F882
:1037F000A491A4F8AC51C4F8B051C4F8B451C4F8C1
:10380000B851C4F8BC51C4F8C051C4F8A8A1AB4920
:10381000C4F8A01184F8C451A4F8E65184F8E85122
:103820004FF0030BA4F8EAB1C4F8EC51C4F8F0511E
:1038300084F8F4514FF41671A4F8F611C4F8F82185
:1038400084F83092A4F83852C4F83C52C4F840527C
:10385000C4F84452C4F84852C4F84C52C4F834A2D4
:10386000974AC4F82C2284F8505284F85A5284F8AB
:103870005B52C4F85C520422A4F86022A4F86232BD
:1038800004F50B773B4604F5D072514604F5FE7003
:1038900008F0F4FB84F86892A4F87052C4F87452EB
:1038A000C4F87852C4F87C52C4F88052C4F88452E8
:1038B000C4F86CA2834BC4F86432A4F8885284F82C
:1038C0008A9284F88B52C4F88C5284F89492A4F8AB
:1038D0009C52C4F8A052C4F8A452C4F8A852C4F828
:1038E000AC52C4F8B052C4F898A2774BC4F89032E6
:1038F000C4F8B452C4F8B852C4F8BC52C4F8C052A8
:10390000C4F8C4524FF04D0384F8C83284F8D09202
:10391000A4F8D852C4F8DC52C4F8E052C4F8E45217
:10392000C4F8E852C4F8EC52C4F8D4A2674BC4F807
:10393000CC3284F8F052A4F8F25284F8F45284F8AD
:10394000F55284F8FC92A4F80453C4F80853C4F860
:103950000C53C4F81053C4F81453C4F81853C4F8E3
:1039600000A35B4BC4F8F832C4F81C5384F820530E
:1039700084F8215384F8225384F8235384F8245381
:10398000A4F826B384F8F893A4F80054C4F80454B7
:10399000C4F80854C4F80C54C4F81054C4F81454AF
:1039A000C4F8FCA34B4BC4F8F4330623A4F8183432
:1039B00041F28832C4F81C2484F82054C4F82454FA
:1039C000C4F82854C4F82C54A4F83054A4F8325441
:1039D000A4F83454A4F83654A4F83854FA22A4F8BD
:1039E0003A2484F83C54A4F83E54A4F840344FF4EC
:1039F000FA63C4F8443404F53E73009304F5197374
:103A00003A46514604F54A7008F04EFB84F8D493C8
:103A1000A4F8DC53C4F8E053C4F8E453C4F8E85302
:103A2000C4F8EC53C4F8F053C4F8D8A32A4BC4F834
:103A3000D0332A4F87F80490BD813D617D61BD611F
:103A4000FD613D62C7F808A0254B3B607D623D8566
:103A500043F2C40B234B47F80B30234B43F2C8020D
:103A6000BB5043F2CC02BD501D7003F11000056045
:103A700043F2E403FD5043F2E803FD5043F2EC034C
:103A8000FD5043F2F003FD5043F2F403FD5043F2C6
:103A9000F803FD5043F2FC03FD5007F544531D604D
:103AA00043F20413FD50294622E000BF9402002097
:103AB000F0A5010808A6010820A6010868A60108CB
:103AC00080A6010898A60108E0A6010850A60108F2
:103AD000B0A60108C8A60108F8A60108E40600205F
:103AE000D8A5010810A50108B4370020AC38002083
:103AF000FEF714FE8748056043F20C13FD5043F2B5
:103B00001013FD5043F21413FD5043F21813FD50EF
:103B100043F21C13FD5043F22013FD5043F22413D3
:103B2000FD5043F22813FD5043F22C13FD5029465B
:103B3000FEF7F4FD784B47F80B30784B43F2301228
:103B4000BB5043F23412BD501D70183343F248127B
:103B5000BB5043F24C12BD501D70183343F260123B
:103B6000BB5043F26412BD501D7043F27813FD50F8
:103B700043F27C13FD5007F546531D6043F2841356
:103B8000FD5043F28813664AFA5043F28C1307EB58
:103B9000030C644A92E80300F850ACF8041043F2B6
:103BA0009413FD5443F29613FD5243F298100CF116
:103BB00014033B505C4A4FF00003511E3844FEF79B
:103BC00073FD43F2B013FD5043F2B413FD5043F2C2
:103BD000B813FD5043F2BC134FF0FF31F95443F2D8
:103BE000BD13FD5443F2BE134FF04D02FA5443F29D
:103BF000C4134EF66022FA5007F5475304F52472B9
:103C00001A603A46514604F5667009F03BFD84F8A7
:103C10006093A4F86853C4F86C53C4F87053C4F8A4
:103C20007453C4F87853C4F87C53C4F864A33F4B6E
:103C3000C4F85C3384F88053A4F8825384F8845326
:103C400084F8859384F8869384F88753204684F813
:103C5000885384F8899384F88A9384F88B5384F882
:103C60008C53802284F88D2384F88E5384F88F53EC
:103C700084F8905384F8915384F89253082384F87D
:103C800093330D2384F894337823A4F8963304F502
:103C90007473069304F54A73059304F53E73049315
:103CA00004F51973039304F5BC73029304F5FE73D2
:103CB000019304F55773009304F17C0304F5337208
:103CC0005146303008F0B4F907E51948FFF750FCC9
:103CD000184A43F268231849D150184813F0C6FD1A
:103CE000174812F0A4FC174812F0A1FC164812F075
:103CF0009EFC164D65B305F66C0401E014F02DFD35
:103D0000A54225D01C3C606804F10C039842F5D113
:103D1000F6E700BFEC37002044A501081C3800205E
:103D200010A70108F09B01082DAB010838A6010877
:103D3000E4060020AC380020009C01080C74002030
:103D40000874002004740020007400207C6B0020A4
:103D50007F4C43F2EC137F4AE25043F2382354F88D
:103D600003C0CDF850C043F23C23E758159704F543
:103D700049531E68169643F24423E558179543F2BB
:103D80004823E058109043F24C23E158119143F23C
:103D90005023E258129243F25423E3581393CDF880
:103DA00070C01D971E961F95189019911A921B931B
:103DB000694D18AA1CA92846FEF729FC2846FEF7DB
:103DC00018FC43F2102354F803C0CDF830C043F27E
:103DD0001423E7580D9743F21823E6580E9643F242
:103DE0001C23E5580F9543F22023E058089043F236
:103DF0002423E158099143F22823E2580A9243F21E
:103E00002C23E3580B93CDF890C025972696279541
:103E10002090219122922393504D20AA24A9284634
:103E2000FEF7F5FB2846FEF7E4FB43F2F013E058FB
:103E3000A5F11003984201D014F08FFC444B43F2DB
:103E40002C124749995043F2E0129C5843F2E41275
:103E50009D5802E014F081FC4834A54213D0206B39
:103E600004F13803984201D014F077FCA06904F102
:103E70002003984201D014F070FC234653F8080B3D
:103E80009842E7D1E8E7324A43F2E013D05808B14C
:103E900014F063FC2E4A43F2C813D058314B9842B9
:103EA00001D014F05AFC2A4A43F2B013D0582E4BDA
:103EB000984201D014F051FC254A43F29813D0588F
:103EC0002A4B984201D014F048FC214D43F22C13A8
:103ED000204AEA50264CA768E66820696169A26911
:103EE000E3693C973D963E903F9138923993236A1F
:103EF0003A93636A3B9338AA3CA92046FEF787FBB6
:103F00002046FEF776FB283CA768E66820696169D1
:103F1000A269E36944974596469047914092419340
:103F2000236A4293636A439340AA44A92046FEF75A
:103F30006EFB2046FEF75DFB43F23013E858A4F118
:103F4000100398423FF4CFAB14F007FCFFF7CBBB54
:103F5000AC38002010A50108DC6A0020B46A0020FB
:103F600044A501087C6A0020646A00204C6A002095
:103F70001C6A00202DE9F043A1B00546544B0360B4
:103F800043F2B016831984595F6802E014F0E5FB30
:103F90001834A74205D0234653F8080B9842F5D1B0
:103FA000F6E7A85908B114F0D8FB43F29813E85883
:103FB00005F546532033984201D014F0CEFB05F1AD
:103FC000240843F2A00708EB0704424B48F80730E7
:103FD000D4F8B460D4F8B89002E014F0BEFB4836D0
:103FE000B14513D0306B06F13803984201D014F07C
:103FF000B4FBB06906F12003984201D014F0ADFB88
:10400000334653F8080B9842E7D1E8E7D4F8B400F8
:1040100008B114F0A2FB04F16C06306B04F1A403A8
:10402000984201D014F099FBB06906F12003984240
:1040300001D014F092FBE06E0836B04201D014F0CB
:104040008CFB254B48F8073004F14406E76C206DE3
:10405000616DA26DE36D14971590169117921093F0
:10406000236E1193636E1293A36E139310AA14A977
:104070003046FEF7CCFA3046FEF7BBFA04F11C06D8
:10408000676AA06AE16A226B636B1C971D901E91A0
:104090001F921893A36B1993E36B1A93236C1B93D2
:1040A00018AA1CA93046FEF7B2FA3046FEF7A1FA6C
:1040B00060680C34A04201D014F04FFB43F2C811E9
:1040C000284614F04CFB284621B0BDE8F08300BF21
:1040D000D8A5010844A5010810A5010808B54FF6A8
:1040E000FF710120FFF7F2FA08BD08B54FF6FF7126
:1040F0000020FFF7EBFA08BD70B50446124B0360D1
:1041000000F6F80013F0B2FB04F6F40012F08FFA98
:1041100004F50F6012F08BFA04F6EC0012F087FA47
:1041200014F168060DD004F6D40501E014F015FB77
:10413000AE4206D01C3D686805F10C039842F5D1EB
:10414000F6E7204670BD00BF009C010870B504462C
:10415000144B036000F6F80013F088FB04F6F4003B
:1041600012F065FA04F50F6012F061FA04F6EC0043
:1041700012F05DFA14F168060DD004F6D40501E0E2
:1041800014F0EBFAAE4206D01C3D686805F10C0352
:104190009842F5D1F6E740F62411204614F0DFFAF4
:1041A000204670BD009C010803780B4A526B934275
:1041B00005D8094A526B934207D300207047064A3C
:1041C000536B0133536301207047034A536B013B28
:1041D00053630120704700BF0004004070B582B0F7
:1041E0000446F9B1C4F8DC18261DD4F8DC183046B2
:1041F00013F0FFFE304613F0EBFF85B20D49304659
:1042000013F07AFF811C2A4689B201A812F0DCF96A
:1042100001A904F50F6012F0F4F901A812F007FAF1
:1042200002B070BDD0F82039C0F8DC38002380F827
:104230006430D9E730AB010808B5054B00225A635A
:10424000FF2380F8FC38B0F8E00812F009FC08BD44
:10425000000400402DE9F04F85B00446039102931D
:10426000002A7ED1B0F80E59D4F8F038002B7BD05C
:104270001E8806F11407BFB2D4F8EC38002B75D0B5
:10428000B3F802A05FFA8AFA06F117081FFA88F855
:10429000B4F8E23803222946404612F0C5FD1FFA61
:1042A0008AF9B4F8E2384A462946384612F08FFCBB
:1042B00006F11A00B4F8E2384A46294680B212F0F4
:1042C00086FC05EB0907BFB207F1050B1FFA8BFB54
:1042D000B4F8E23808225946404612F0A5FD029B88
:1042E000002B46D0B4F8E43807225946404612F075
:1042F000ECFD06F1110005F10901B4F8E238009374
:1043000003231A4689B280B212F084FB1536B6B286
:10431000691C09F1FF33B4F8E02800929BB2052232
:1043200089B2304612F076FB0A226FF063010398DF
:104330000BF004FD034600B200281DDD9BB2E91A14
:1043400089B20A314B449BB20A3BB4F8E42800928C
:104350009BB2052289B2304612F05CFB05B0BDE885
:10436000F08FB0F8FE587FE7002682E74FF0000A92
:1043700088E7B4F8E038B7E7AAF10A03009301230D
:1043800000226FF063010BF0A5FCC3B2F91A89B2E9
:10439000029A3AB1B4F8E42800920522304612F0AD
:1043A00039FBDBE7B4F8E028F6E700002DE9F0413F
:1043B00088B0054617461E46B1F57A7F01D340F214
:1043C000E7310A46394906A815F080F82C1DD5F8C2
:1043D0001819204613F00DFE0221204613F01AFE94
:1043E00005F6EC0012F032F9D5F8EC38591D002B27
:1043F0003ED01A880023029301930123009306AB59
:10440000204613F089FE12F0FDF90446D5F8EC3889
:1044100083B31888241AA4B2143CA4B212F0F2F99F
:10442000804612F0F5F9804526D89FBBB5F80E19E5
:10443000D5F8EC388BB31A88B5F8E0C8B6F5803FEC
:104440002DD3B5F8E268D5F8EC0850B34388451D84
:1044500048B307880596CDF810C00020039002905D
:1044600001970095204612F005FF08B0BDE8F081E5
:104470000022BFE70020CDE712F0C4F9D5F8EC38F0
:1044800033B11C88041BC4F34F043234A4B2CCE70C
:104490000024F7E7B5F8FE18CAE70022CCE7B6B269
:1044A000D1E70023D3E70027D4E700BF34AB0108EE
:1044B0002DE9F04182B005460C461E461346E2B196
:1044C0002827E3B14FF05A084246394620460BF000
:1044D00035FC0023009355234246394680B20BF049
:1044E000F9FBC0B212F03EFA034632462146284696
:1044F000FFF75CFF02B0BDE8F0815027E1E74FF025
:10450000B408E1E72DE9F04784B0044688469246B6
:10451000071DD0F8DC18384613F06BFD384613F051
:1045200057FE86B24146384613F0E6FD8146B4F8A0
:10453000E03800933346B4F808290021084612F009
:1045400069FAB4F808394B451ED9A3EB0903C3F344
:104550004F05B4F8E23800934346324629463846C0
:1045600013F0AEFDBAF1000F10D012F04BF9A0F12C
:104570001402B4F8E23892B2B4F812190A2012F018
:104580001DFB04B0BDE8F0870025E2E705EB09005C
:1045900080B20A30A6F10E01B4F8E038B4F8E2288F
:1045A0000392029310220192034B00930E2389B2CF
:1045B00080B212F0EFFDD8E7209C01082DE9F04110
:1045C0008AB004460D461746642900D964252E2179
:1045D00004F164000AF0A4F8804625232A462E49F7
:1045E00008A814F073FF261DD4F8DC18304613F029
:1045F00000FD304613F0ECFD85B22A46B4F80A19E6
:1046000007A811F0E1FF079B591D002B37D01A882E
:10461000012302930023019300934346304613F095
:104620007BFD079B591D63B31A88002302930193F6
:104630000223009308AB304613F06EFD1FB3B4F8AD
:10464000E46812F0E5F8411B89B2079BF3B11A88C0
:10465000B4F8E0780798D8B14388441DD0B10588F4
:10466000059604970020039002900195009412F0A3
:1046700001FE07A811F0DBFF0AB0BDE8F0810022BF
:10468000C6E70022D1E7B4F8E268DAE70022DFE704
:104690000023E2E70025E3E738AB01082DE9F04706
:1046A00088B0044688469146071DD0F8DC18384685
:1046B00013F09FFC384613F08BFD86B2B4F80AA9BC
:1046C00012F0A6F8851BADB212F09CF8B4F80A29D6
:1046D000821AB4F8E0380093334692B22946504625
:1046E00012F098F908F109039BB26C2B4CD84323C4
:1046F000ADF81430B9F1000F02D146238DF8143013
:1047000012F080F8054605A9384613F0F5FC2D1A7D
:10471000ADB2A5F11E091FFA89F912F079F8024627
:10472000B4F8E238009305AB4946384613F0C8FCAC
:10473000263DADB212F06CF8811B89B20431B4F899
:10474000E038B4F8E2280392029308220192184B51
:104750000093052389B2284612F01CFD42461549F4
:1047600006A814F0B3FE06A9384613F0C5FC2D1AAE
:10477000ADB212F04DF80246B4F8E238009306AB41
:104780002946384613F09CFC12F03CF8A0F11405C1
:10479000ADB212F03DF8B4F81419411AB4F8E23889
:1047A0002A4689B20A2012F009FA08B0BDE8F0875B
:1047B0003C9C010840AB01082DE9F04385B006465A
:1047C00008461546642900D96420D6F8EC38DBB1D8
:1047D0005C88E2B20A210BF090FA0746B5B9B6F848
:1047E0000E5912F00FF81138E4B2B6F8E038009321
:1047F000631C0D22294680B212F00CF92C44A4B29D
:104800003FB905B0BDE8F0830024E2E7B6F8FE58F2
:10481000E7E711F0F7FF451FADB211F0F3FFA0F18C
:1048200005081FFA88F8A4EB07091FFA89F911F0A7
:10483000E9FFC7F38707C71BBFB2063FBFB2B6F891
:10484000E2380293CDF8049000974B464246214649
:10485000284612F0C2FBD4E730B585B004460846BE
:10486000154D002229460BF069FA002200925523CB
:10487000294600B20BF02EFAC0B212F073F894F889
:10488000EA38013303F0030384F8EA3803EBC30387
:104890000A4A02EB4313B4F8E02803900292302254
:1048A000019200931346B4F80219B4F8000912F00B
:1048B00071FC05B030BD00BF18FCFFFF449C01082F
:1048C00000B585B090F8EA3803EBC3030A4A02EB5F
:1048D0004313B0F8E02845F2AA2103910292302256
:1048E000019200931346B0F80219B0F8000912F0D3
:1048F00051FC05B05DF804FB449C010800B585B08F
:1049000099B1B0F8E038B0F8E2280392029330226F
:1049100001920C4B00931346B0F80619B0F8040945
:1049200012F038FC05B05DF804FBB0F8E0380093F5
:1049300030231A46B0F80619B0F8040912F06AF8E4
:10494000F0E700BFC4A001082DE9F04182B006469F
:104950008846041DD0F8DC18204613F04AFB204698
:1049600013F036FCC5B24146204613F0CDFBC7B26A
:1049700011F048FFC01B00EBD070ADB2B6F8E238C2
:10498000009343462A46C0F34F01204613F0A6FB8E
:1049900011F038FFC31B03EBD3735C100A3CB6F86D
:1049A000E23807F11402E91CA0B212F007F902B0D4
:1049B000BDE8F08110B50446643009F0B1FE01464F
:1049C0002046FFF7C1FF10BDF0B585B00D46164675
:1049D0001F469DF8283093B1B0F8FE481E3CA4B2A3
:1049E00011F010FF2838039702961C2201920095BF
:1049F0001346214680B212F0CDFB05B0F0BD002475
:104A0000EEE7000000B583B0B0F8E028009145F271
:104A1000AA230349FFF7D8FF03B05DF804FB00BFEA
:104A2000E4A1010800B583B0B0F8E02800914FF68A
:104A3000FF730349FFF7C8FF03B05DF804FB00BF35
:104A4000E4A1010800B583B0B0F8E028002300938A
:104A50004FF4FC630249FFF7B7FF03B05DF804FBB6
:104A600054A2010800B583B0B0F8E02800230093F9
:104A70004FF4FC630249FFF7A7FF03B05DF804FBA6
:104A8000C4A2010800B583B0B0F8E0280023009369
:104A90004FF4FC630249FFF797FF03B05DF804FB96
:104AA00034A3010800B583B0B0F8E02800230093D8
:104AB0001F230349FFF788FF03B05DF804FB00BF25
:104AC00034A3010800B583B0B0F8E02800230093B8
:104AD0004FF478430249FFF777FF03B05DF804FB1A
:104AE000A4A301082DE9F04383B004460A461B4FF6
:104AF0001B49384614F0EAFC251DD4F8DC1828467A
:104B000013F077FA284613F063FB86B2394628463D
:104B100013F0F2FA8046B4F8089911F073FEB4F875
:104B20000829821AF31DB4F8E01800919BB292B2E2
:104B30000021484611F06EFF11F064FEA0EB080161
:104B400089B21439B4F8E23800933B46324689B250
:104B5000284613F0B5FA03B0BDE8F083DC770020F7
:104B600040AB010830B583B004460D4610460A221A
:104B70006FF031010BF0E2F800B2002812DB0021E7
:104B8000009155230A220BF0A5F8C0B211F0EAFEFD
:104B900003460095B4F8E02807492046FFF714FFC4
:104BA00003B030BD55230093AA2300226FF03101DA
:104BB0000BF090F8C0B2E9E7E4A101082DE9F04F4D
:104BC00095B007460A91099210939DF87830119399
:104BD000031D1C460893D0F8DC18184613F009FA98
:104BE000204613F0F5FA5FFA80F808F10A085FFA38
:104BF00088F4A04604F10C031D460C9311F008FE46
:104C0000401B90FBF4F4E3B20F9311F0FBFD04465C
:104C100011F0FEFD844225D9322411F0F3FDA3B238
:104C20000B93A0EB4404A4B2089813F0D1FA82B21B
:104C3000214613A811F0C8FC07F164030D930A99EB
:104C4000184609F085FD82460F9B83420CD29B4695
:104C5000109B93B11B789BB10F9B9B4506D0012302
:104C600007930FE01424D8E78346F1E70BF1FF33F5
:104C70005FFA83FB0123079304E00023079301E01D
:104C800000230793CBF34709099BA3EB09095FFABC
:104C900089F909F101094FFA89F9BAF1010F01D92E
:104CA000994505D0B9F1000F07DB00250E952AE0E4
:104CB00003F1FF394FFA89F9F4E7D1444FFA89F942
:104CC000F3E700223AE0B7F8E068B7F8E2C8099BDA
:104CD0009C424AD0139B002B4FD01A88139800286F
:104CE0004DD04388441D00284BD00088CDF814C017
:104CF0000496002603960296019000940B9812F0F9
:104D0000B9FA0135EDB2AB453DD955FA89F4E4B2B3
:104D1000A24502D8A4EB0A04E4B20A9BE118C9B286
:104D20000131C9B20D9809F0FBFC064613A811F039
:104D30008DFC139B591D002BC3D01A8801230293AD
:104D40000A230193002300933346089813F0E4F9F3
:104D50000C9B05FB083189B2079B002BB3D00E9B3F
:104D6000002BB0D0414489B2ADE708EB01039BB200
:104D70000E93334666469C46ACE70022AEE700231E
:104D8000B0E70020B2E7079BDBB9079B9BB90F9BFD
:104D90009B4510D21BFB08F10C9B13FA81F189B2E1
:104DA000139B002B60D01A88B7F8E0380093434675
:104DB0000B9811F02FFE13A811F039FC15B0BDE8C7
:104DC000F08F13A811F042FC139B591D2BB31A88C6
:104DD000012302930023019302230093109B089860
:104DE00013F09AF9119B03BB139BC3B11A88B7F850
:104DF000E048B7F8E258139999B14B88481D91B132
:104E0000098805950494002403940294019100906C
:104E10000E990B9812F02EFAB7E70022D8E700227D
:104E2000E5E70023EAE70021EBE7139BB3B11A881B
:104E3000B7F8E048139999B14B88481D91B10D8896
:104E40004FF478410591049400210391029101955A
:104E500000900E990B9812F00DFA96E70022E7E702
:104E60000023EAE70025EBE700229DE72DE9F04F5C
:104E70008FB04C680B68E41AE410594B03FB04F440
:104E8000A5B20A92954202D20FB0BDE8F08F074654
:104E90008A46021D0B92D0F8DC189046104613F09B
:104EA000A8F8404613F094F9C0B20A30C1B2079195
:104EB0000C31089111F0A6FC0646404613F088F923
:104EC000A6F1640182B289B20DA811F07DFB0A9BA4
:104ED0004FFA83FBED1AADB2052D03D8A4F1060BF2
:104EE0004FFA8BFBBBF1000F0ADBA3B20993A3EBD4
:104EF0000B03062BA8BF0623DBB2069300241FE09A
:104F00004FF0000BF1E700223AE00D9B002B48D058
:104F10001A880D99002946D04B88481D002944D095
:104F20000D88CDF81490CDF81080002103910291E6
:104F3000019500903146322012F09CF90134E4B220
:104F4000069B9C4233D254FA8BF5EDB20DA811F0BA
:104F50007DFB079B089A04FB0326B6B2B7F8E088EE
:104F6000B7F8E298099B9D42CFDCDAF8003005EBF8
:104F7000450253F832300D9A511D002AC3D01288D1
:104F8000012002900A200190002000900B9813F05D
:104F9000C3F80A9B9D42B8D1B7F8E288B7F8E09809
:104FA000B3E70022B5E70023B7E70025B9E7069B82
:104FB000052B0ED8079A089903FB021189B20D9BA5
:104FC0005BB11A88B7F8E0380093079B322011F0E4
:104FD00021FD0DA811F02BFB56E70022F2E700BFE0
:104FE000ABAAAAAA2DE9F04F91B004460691174644
:104FF0001E4600F10408D0F8DC18404612F0F9FF14
:10500000404613F0E5F8C5B20535EDB294F8FC382A
:10501000B34240F0AD80B7F5805F01D340F6FF7733
:1050200011F0F6FBAEB2451BADB211F0EBFB8146C1
:10503000A0F1400A1FFA8AFAB7F5006F00F2658105
:105040002823009300234FF40062194638460AF0E3
:1050500041FE1FFA80FBCDF800A0282340F6FF7226
:1050600040F601014FF461600AF034FEC7B2203708
:10507000FFB2AE1BB6B2A6F10F01A9F13602B4F829
:10508000E2380193052300930A2392B289B21B20D0
:1050900011F0A7FDA6F10A091FFA89F9B4F8E4385E
:1050A0000A2249461C2011F010FFB4F8E2380A2207
:1050B00049461C2011F0B8FEA6F10E091FFA89F925
:1050C000B4F8E438009308235A464946202011F0EA
:1050D000A1FC0AF1FF339B45C0F224811FFA87F936
:1050E000781E711FB4F8E23800930623032289B2B8
:1050F00080B211F08FFC069A91490EA814F0E6F9DF
:105100004323ADF834300EA9404612F0F5FF824635
:10511000C0F34F07A9EB07091FFA89F7B4F8E23883
:1051200000930EAB2A463946404612F0C9FF574459
:10513000BFB2B81D0436B4F8E038B4F8E2280392E0
:105140000293082201927F4B00930523B1B280B2F3
:1051500012F020F807F10E01B4F8E23800930DAB1D
:105160002A4689B2404612F0ABFF11B0BDE8F08F7D
:1051700084F8FC68ABB2079305F13C0911F042FBDF
:105180001438009000236422194630460AF0A2FD2C
:1051900082B20892282300930023642219463046E5
:1051A0000AF098FDC2B2099211F02CFBA0F10A0A94
:1051B0001FFA8AFA11F026FB0A3880B2079B03F126
:1051C000140BB4F8E0380293CDF804B000904B46CD
:1051D000524649460A2011F000FF11F013FBA0F1DE
:1051E0000A0A1FFA8AFA11F00DFB0A3880B2B4F8E5
:1051F000E2380293CDF804B000904B46524649463F
:105200000A2011F0C9FE002E5AD1002E6AD02F219B
:1052100004F1640009F084FA8346FBF73BF85FFA77
:1052200080FABAF1040F01D94FF0040A52465946E8
:105230000AA814F085F92523324643490AA85044A8
:1052400014F044F904F6EC0011F000FAD4F8EC384C
:10525000591D002B50D01A8800230293019301237B
:1052600000930AAB404612F057FF11F0CBFAD4F886
:10527000EC38002B42D01A88801A00EBD070C0F3B3
:105280004F00079B4B4403F10A01B4F8E098B4F8CF
:10529000E2A8D4F8EC689EB3738806F1050C8EB3CF
:1052A000B6F800E0CDF814A0CDF8109000260396D3
:1052B0000296CDF804E0CDF800C011F0DBFFAAE6BD
:1052C000089A0A3292B2099BA9EB030080B2B4F8A3
:1052D000E2380293019000924B4649460A2011F0B1
:1052E0007CFE92E72D2104F1640009F019FA0146D1
:1052F0000AA814F0EBF8A5E70022ADE70022BBE70F
:105300000023CAE74FF0000ECCE7CDF800A0282319
:1053100040F6FF7240F6010138460AF0DBFC1FFA46
:1053200080FB98E60BF12000AAEB0B02B4F8E03802
:105330000093082392B2494680B211F06BFBCDE690
:105340004CAB01083C9C010844AB01082DE9F0413D
:1053500084B00546041DD0F8DC18204612F049FE42
:10536000204612F035FFC4B20534E4B21E3411F009
:105370004FFA041BA4B2631F9EB213F0010F01D1B8
:10538000063CA6B211F03EFA0446D5F8F0387BB1DF
:105390001888241AA4B2363CA4B2214605F1540060
:1053A00002F048FB074628B9384604B0BDE8F08152
:1053B0000020EEE7D5F8F83813B11B88002BF3D1A5
:1053C00005F6F80802233246214603A812F00BFA2C
:1053D00003A9404612F034FA03A812F047FAB5F8D0
:1053E000E038ADF80430B5F8E238ADF80630B5F87D
:1053F000E438ADF80830B5F8E638ADF80A300422E4
:105400000DEB0201404612F05AFACDE72DE9F04FBC
:1054100089B0044605910692079300F10408D0F87C
:10542000DC18404612F0E5FD404612F0D1FEC5B250
:105430000535EDB205F11E0911F0EAF9A0EB0900FE
:1054400080B2431F9EB213F0010F01D1063886B21D
:105450007608D4F8F038002B00F0B4801F8807F1EC
:1054600013039BB2049307F1050A1FFA8AFA59FA4B
:1054700086F611F0C7F9A0F14602B4F8E23892B20C
:105480003146504611F09AFB11F0BCF9D4F8F038CF
:10549000002B00F099801B88184480B24138B11E5F
:1054A000B4F8E038B4F8E228039202934FF0080A07
:1054B000CDF804A0DFF824B10BF61C0300930523FC
:1054C000524689B280B211F065FE11F09BF9A0F14D
:1054D0001401721FB4F8E23800933F4B92B289B2C4
:1054E000404612F0EDFD11F093F9A0F10C02B4F872
:1054F000E23892B20A21049811F069FB07F1110019
:10550000B4F8E038B4F8E22803920293CDF804A08E
:105510000BF62403009353460522114680B211F086
:1055200039FE0F37BFB2B4F8E4380922494638468D
:1055300011F044FBB4F8E638092205EB09013846BE
:1055400011F03CFBD4F8F038002B3FD019880F390C
:10555000B4F8E4380093069B2A4689B2404612F01C
:10556000AFFDD4F8F0389BB319881E31B4F8E63893
:105570000093079B2A4689B2404612F0A1FDD4F859
:10558000F0383BB31E880644B6B21E36B6B2DDF81C
:1055900014904946404612F0AFFD074611F032F92B
:1055A000811BC81B00EBD07006EB6000B4F8E2383A
:1055B00000934B462A4681B2404612F081FD09B065
:1055C000BDE8F08F00274AE7002365E70021BEE72A
:1055D0000021CAE70026D6E7C8AD0108F89B0108FC
:1055E0002DE9F0478AB00646022946D9341DD6F87F
:1055F000DC18204612F0FDFC204612F0E9FD5FFAAF
:1056000080F903A9204612F077FD074611F0FAF859
:10561000C51BC5F34F0511F0FBF800EB40008046B9
:10562000002833DBC8F38F08204612F0D1FD0FFAB3
:1056300080FA204612F0D4FD0AFA80F1A5F10A00A2
:10564000C9B2A8EB010189B20A3907F11402B6F810
:10565000E038009309F1140392B289B280B211F0DC
:10566000D9F9B6F8E238009303AB42462946204602
:1056700012F026FD0AB0BDE8F087064B03EB81016E
:10568000D1F82C1803A813F021FFAFE700F10308AD
:10569000C8E700BFF89B01082DE9F04F8BB0064624
:1056A0008A46914600F10408D0F8DC18404612F012
:1056B000A0FC3A213046FFF77DF9404612F088FD04
:1056C000C7B20537FFB207F10C0B11F09BF8044687
:1056D000404612F07DFDA4F1640182B289B206A8B1
:1056E00010F072FF002418E000222AE0634684468E
:1056F000184635E000223AE000233CE00025CDF8D2
:1057000014C004900020039002900195CDF800E0B1
:10571000322011F0AFFD0134E4B2022C31D81C4B21
:1057200003EB84033AF81420D3F82C1807A813F0DD
:10573000CDFE06A810F08AFF069B591D002BD3D082
:105740001A880023029305200190009307AB40467E
:1057500012F0E2FCB6F8E2C8B6F8E0084C45C5D055
:1057600004FB07B189B2069B002BC3D01A88069DA3
:10577000002DC1D06B8805F1050E002DBED02D88FF
:10578000BDE706A810F053FF0BB0BDE8F08F00BFD7
:10579000F89B010870B582B004460D46061DD0F88E
:1057A000DC18304612F025FC11F032F8A0F132027C
:1057B000B4F8E83800932B4692B26421304612F0D8
:1057C0007FFC02B070BD10B50446D0F8F8380BB1BC
:1057D0001B8823B904F1540002F05BF910BD00F6F8
:1057E000F80012F043F8F5E72DE9F04F87B0834653
:1057F0000C46039200F164063921304608F090FF10
:105800000546BBF8E00811F02BF92146304608F0B8
:1058100087FF03783BBB0BF10404DBF8DC18204660
:1058200012F0E7FB0321204612F0F4FB2946204644
:1058300012F06AFC064610F0E5FF861BC6F34F0621
:1058400010F0E6FFBBF8E23800932B46C0F34F029E
:105850003146204612F042FC0121204612F0DAFBCC
:1058600007B0BDE8F08F04460BF104031E46DBF8D9
:10587000DC18184612F0BDFB304612F0A9FC83B2CA
:1058800005339BB204932046FAF704FDC5B2681CA9
:1058900013F0C0FC07460028E2D0214613F036FE84
:1058A0004FF000084FF00109CDF814B0B34613E0F3
:1058B000049B19FB03F2039B13FA82F2059BB3F8D6
:1058C000E2380093434692B20021584612F006FC9B
:1058D00035E002365FFA86F8A8453CD208F10104AB
:1058E000E4B226460134E4B2A54202D93B5D0A2B5C
:1058F000F7D1A54201D900233B55B844414658464B
:1059000012F002FC5FFA80FA10F07CFF8245CFDAD9
:1059100010F078FFA0EB0A0A0AEBDA7A049B19FB75
:1059200003F2039B13FA82F2059BB3F8E23800936B
:10593000434692B2CAF34F01584612F0CFFB09F129
:1059400001095FFA89F9B9F1070F04D8A542C0D956
:105950000A233B55BDE7384613F064FC80E700009E
:105960002DE9F04F8BB004460D4617469A46DDF8F8
:10597000509000F10408D0F8DC18404612F039FBD2
:1059800004F1640309932946184608F0C9FE054648
:10599000404612F01DFC80B2053083B208932946C0
:1059A000404612F0B1FB064610F02CFF864230D381
:1059B0000021B4F8E23800932B463A46404612F0F4
:1059C0008DFBB9F1000F14D04946404612F09CFB04
:1059D000054610F017FFA84221D80021089B1F445C
:1059E000BFB2B4F8E23800934B463A46404612F054
:1059F00075FB10F007FFD4F8F038B3B11E88801B98
:105A00003E4E86FB0036A6EBE076B6B20025BB46DE
:105A100056E010F0F7FE811BC1F34F01C9E710F00B
:105A2000F1FE411BC1F34F01D8E70026E7E7B4F8C8
:105A3000E0784BE0B4F8E2984CE04421099808F093
:105A40006FFE079004F50F6010F000FED4F8F038F8
:105A5000591D002B46D01A88012302930020019083
:105A60000093079B404612F057FBA9B2D4F8F038D8
:105A7000002B39D01A88B01810FB01F0304480B2E6
:105A8000089B0BEB030189B2D4F8F0E8BEF1000FDC
:105A90002CD0BEF802300EF1050CBEF1000F27D05D
:105AA000BEF800E0CDF81490049700270397029702
:105AB000CDF804E0CDF800C011F0DCFB0135EDB20B
:105AC000012D18D8AA45B2D0B4F8E278AA45B1D0D1
:105AD000B4F8E098002DB0D04521099808F020FED8
