:020000040800F2
:1000000000000120C10901081508010817080108AE
:10001000190801081B0801081D080108000000005C
:100020000000000000000000000000001F080108A0
:100030002108010800000000230801082508010824
:10004000110A0108110A0108110A0108110A010820
:10005000110A0108110A01083D2E0008612E00084E
:10006000110A0108110A0108110A0108110A010800
:10007000110A0108110A0108110A0108110A0108F0
:10008000110A0108110A0108110A01080000000004
:10009000000000000000000000000000110A01083C
:1000A000110A0108110A0108110A01082D080108A6
:1000B0003D080108110A0108110A0108110A010886
:1000C000110A0108110A0108110A0108110A0108A0
:1000D000110A0108110A0108110A010800000000B4
:1000E000110A0108110A0108110A010800000000A4
:1000F000000000000000000000000000110A0108DC
:1001000000000000110A0108110A0108110A010883
:1001100000000000000000000000000000000000DF
:100120004D080108110A0108110A01085D080108BB
:10013000110A01080000000000000000000000009B
:10014000000000000000000000000000110A01088B
:10015000110A0108110A0108110A0108110A01080F
:10016000110A0108110A0108000000000000000047
:10017000000000000000000000000000000000007F
:1001800000000000110A010800000000000000004B
:04019000110A010847
:1001A00010B5054C237833B9044B13B10448AFF3B1
:1001B00000800123237010BD7802002000000000A1
:1001C000F4AB010808B5034B1BB103490348AFF377
:1001D000008008BD000000007C020020F4AB010894
:1001E00001F0FF01102A2BDB10F0070F08D010F8E8
:1001F000013B013A8B422DD010F0070F42B3F6D1EC
:10020000F0B441EA012141EA014122F007047FF004
:1002100000070023F0E80256083C85EA010586EA5B
:10022000010685FA47F5A3FA87F586FA47F6A5FA97
:1002300087F68EB9EED1F0BC01F0FF0102F00702A3
:1002400032B110F8013B013A83EA010313B1F8D14E
:100250000020704701387047002D06BF354603382F
:10026000073815F0010F07D1013015F4807F02BF68
:10027000013015F4C03F0130F0BC0138704700BFB9
:1002800010F8012B11F8013B012A28BF9A42F7D040
:10029000D01A7047034613F8012B002AFBD1181A15
:1002A0000138704781F0004102E000BF83F0004355
:1002B00030B54FEA41044FEA430594EA050F08BF01
:1002C00090EA020F1FBF54EA000C55EA020C7FEAC5
:1002D000645C7FEA655C00F0E2804FEA5454D4EB42
:1002E0005555B8BF6D420CDD2C4480EA020281EA0C
:1002F000030382EA000083EA010180EA020281EA44
:100300000303362D88BF30BD11F0004F4FEA013195
:100310004FF4801C4CEA113102D0404261EB4101A4
:1003200013F0004F4FEA03334CEA133302D052422A
:1003300063EB430394EA050F00F0A780A4F10104E6
:10034000D5F1200E0DDB02FA0EFC22FA05F2801820
:1003500041F1000103FA0EF2801843FA05F3594106
:100360000EE0A5F120050EF1200E012A03FA0EFC85
:1003700028BF4CF0020C43FA05F3C01851EBE371AF
:1003800001F0004507D54FF0000EDCF1000C7EEBCC
:1003900000006EEB0101B1F5801F1BD3B1F5001F0A
:1003A0000CD349085FEA30004FEA3C0C04F1010429
:1003B0004FEA445212F5800F80F09A80BCF1004F52
:1003C00008BF5FEA500C50F1000041EB045141EAD4
:1003D000050130BD5FEA4C0C404141EB0101013C9D
:1003E00028BFB1F5801FE9D291F0000F04BF01468C
:1003F0000020B1FA81F308BF2033A3F10B03B3F15E
:1004000020020CDA0C3208DD02F1140CC2F10C02ED
:1004100001FA0CF021FA02F10CE002F11402D8BF4B
:10042000C2F1200C01FA02F120FA0CFCDCBF41EA17
:100430000C019040E41AA2BF01EB0451294330BDE6
:100440006FEA04041F3C1CDA0C340EDC04F11404C3
:10045000C4F1200220FA04F001FA02F340EA03009A
:1004600021FA04F345EA030130BDC4F10C04C4F1E0
:10047000200220FA02F001FA04F340EA03002946C0
:1004800030BD21FA04F0294630BD94F0000F83F40A
:10049000801306BF81F480110134013D4EE77FEAED
:1004A000645C18BF7FEA655C29D094EA050F08BF39
:1004B00090EA020F05D054EA000C04BF194610461A
:1004C00030BD91EA030F1EBF0021002030BD5FEA5E
:1004D000545C05D14000494128BF41F0004130BD86
:1004E00014F580043CBF01F5801130BD01F00045DA
:1004F00045F0FE4141F470014FF0000030BD7FEA4D
:10050000645C1ABF194610467FEA655C1CBF0B4647
:10051000024650EA013406BF52EA033591EA030F5E
:1005200041F4002130BD00BF90F0000F04BF002156
:10053000704730B54FF4806404F132044FF0000589
:100540004FF0000150E700BF90F0000F04BF002102
:10055000704730B54FF4806404F1320410F0004568
:1005600048BF40424FF000013EE700BF42004FEA63
:10057000E2014FEA31014FEA02701FBF12F07F43E0
:1005800093F07F4F81F06051704732F07F4208BF97
:10059000704793F07F4F04BF41F40021704730B59E
:1005A0004FF4607401F0004521F000411CE700BFEA
:1005B00050EA010208BF704730B54FF000050AE06D
:1005C00050EA010208BF704730B511F0004502D56E
:1005D000404261EB41014FF4806404F132045FEA70
:1005E000915C3FF4D8AE4FF003025FEADC0C18BF19
:1005F00003325FEADC0C18BF033202EBDC02C2F10B
:10060000200300FA03FC20FA02F001FA03FE40EA9C
:100610000E0021FA02F11444BDE600BF70B54FF0A0
:10062000FF0C4CF4E06C1CEA11541DBF1CEA13557E
:1006300094EA0C0F95EA0C0F00F0DEF82C4481EAE6
:10064000030621EA4C5123EA4C5350EA013518BF06
:1006500052EA033541F4801143F4801338D0A0FBF3
:1006600002CE4FF00005E1FB02E506F00042E0FBA0
:1006700003E54FF00006E1FB03569CF0000F18BFA6
:100680004EF0010EA4F1FF04B6F5007F64F540744E
:1006900004D25FEA4E0E6D4146EB060642EAC621E1
:1006A00041EA55514FEAC52040EA5E504FEACE2E4E
:1006B000B4F1FD0C88BFBCF5E06F1ED8BEF1004F51
:1006C00008BF5FEA500E50F1000041EB045170BDCD
:1006D00006F0004646EA010140EA020081EA030111
:1006E000B4EB5C04C2BFD4EB0C0541EA045170BD0D
:1006F00041F480114FF0000E013C00F3AB8014F187
:10070000360FDEBF002001F0004170BDC4F10004CF
:10071000203C35DA0C341BDC04F11404C4F1200550
:1007200000FA05F320FA04F001FA05F240EA0200AB
:1007300001F0004221F0004110EBD37021FA04F6E1
:1007400042EB06015EEA430E08BF20EAD37070BD9B
:10075000C4F10C04C4F1200500FA04F320FA05F0FA
:1007600001FA04F240EA020001F0004110EBD370FC
:1007700041F100015EEA430E08BF20EAD37070BD6C
:10078000C4F1200500FA05F24EEA020E20FA04F345
:1007900001FA05F243EA020321FA04F001F00041F4
:1007A00021FA04F220EA020000EBD3705EEA430E65
:1007B00008BF20EAD37070BD94F0000F0FD101F094
:1007C0000046400041EB010111F4801F08BF013CCD
:1007D000F7D041EA060195F0000F18BF704703F00B
:1007E0000046520043EB030313F4801F08BF013D92
:1007F000F7D043EA0603704794EA0C0F0CEA13554E
:1008000018BF95EA0C0F0CD050EA410618BF52EA07
:100810004306D1D181EA030101F000414FF000000D
:1008200070BD50EA410606BF1046194652EA43061B
:1008300019D094EA0C0F02D150EA013613D195EA8F
:100840000C0F05D152EA03361CBF104619460AD1D7
:1008500081EA030101F0004141F0FE4141F47001E1
:100860004FF0000070BD41F0FE4141F4780170BDD1
:1008700070B54FF0FF0C4CF4E06C1CEA11541DBF36
:100880001CEA135594EA0C0F95EA0C0F00F0A7F838
:10089000A4EB050481EA030E52EA03354FEA013165
:1008A00000F088804FEA03334FF0805545EA131378
:1008B00043EA12634FEA022245EA111545EA106540
:1008C0004FEA00260EF000419D4208BF964244F1D7
:1008D000FD0404F5407402D25B084FEA3202B61AF6
:1008E00065EB03055B084FEA32024FF480104FF4CA
:1008F000002CB6EB020E75EB030E22BFB61A75463E
:1009000040EA0C005B084FEA3202B6EB020E75EBD0
:10091000030E22BFB61A754640EA5C005B084FEA38
:100920003202B6EB020E75EB030E22BFB61A754605
:1009300040EA9C005B084FEA3202B6EB020E75EB10
:10094000030E22BFB61A754640EADC0055EA060ED1
:1009500018D04FEA051545EA16754FEA06164FEA14
:10096000C30343EA52734FEAC2025FEA1C1CC0D1C0
:1009700011F4801F0BD141EA00014FF000004FF04D
:10098000004CB6E711F4801F04BF01430020B4F10E
:10099000FD0C88BFBCF5E06F3FF6AFAEB5EB030CC6
:1009A00004BFB6EB020C5FEA500C50F1000041EBC3
:1009B000045170BD0EF0004E4EEA113114EB5C0490
:1009C000C2BFD4EB0C0541EA045170BD41F4801163
:1009D0004FF0000E013C90E645EA060E8DE60CEA6B
:1009E000135594EA0C0F08BF95EA0C0F3FF43BAF88
:1009F00094EA0C0F0AD150EA01347FF434AF95EA3F
:100A00000C0F7FF425AF104619462CE795EA0C0F22
:100A100006D152EA03353FF4FDAE1046194622E7EF
:100A200050EA410618BF52EA43067FF4C5AE50EAC9
:100A300041047FF40DAF52EA43057FF4EBAE12E7B9
:100A40004FF0FF3C06E000BF4FF0010C02E000BF9A
:100A50004FF0010C4DF804CD4FEA410C7FEA6C5C7D
:100A60004FEA430C18BF7FEA6C5C1BD001B050EA20
:100A7000410C0CBF52EA430C91EA030F02BF90EA0B
:100A8000020F0020704710F1000F91EA030F58BFCA
:100A9000994208BF90422CBFD8176FEAE37040F02C
:100AA000010070474FEA410C7FEA6C5C02D150EACA
:100AB000013C07D14FEA430C7FEA6C5CD6D152EA85
:100AC000033CD3D05DF8040B704700BF844610464A
:100AD00062468C461946634600E000BF01B5FFF749
:100AE000B7FF002848BF10F1000F01BD4DF808ED19
:100AF000FFF7F4FF0CBF012000205DF808FB00BFEA
:100B00004DF808EDFFF7EAFF34BF012000205DF843
:100B100008FB00BF4DF808EDFFF7E0FF94BF012090
:100B200000205DF808FB00BF4DF808EDFFF7CEFF91
:100B300094BF012000205DF808FB00BF4DF808EDD0
:100B4000FFF7C4FF34BF012000205DF808FB00BFA1
:100B50004FEA410C7FEA6C5C02D150EA013C0AD1B9
:100B60004FEA430C7FEA6C5C02D152EA033C02D1AB
:100B70004FF0000070474FF0010070474FEA41020C
:100B800012F5001215D211D56FF47873B3EB6252DF
:100B900012D94FEAC12343F0004343EA505311F006
:100BA000004F23FA02F018BF404270474FF0000098
:100BB000704750EA013005D111F0004008BF6FF0D6
:100BC000004070474FF00000704700BF4A0011D24C
:100BD00012F5001211D20DD56FF47873B3EB625297
:100BE0000ED44FEAC12343F0004343EA505323FAA3
:100BF00002F070474FF00000704750EA013002D118
:100C00004FF0FF3070474FF0000070474FEA41024D
:100C1000B2F1E04324BFB3F5001CDCF1FE5C0DD95A
:100C200001F0004C4FEAC0024CEA5070B2F1004FA4
:100C300040EB830008BF20F00100704711F0804FA7
:100C400021D113F13872BCBF01F00040704741F46C
:100C500080114FEA5252C2F11802C2F1200C10FA70
:100C60000CF320FA02F018BF40F001004FEAC12354
:100C70004FEAD32303FA0CFC40EA0C0023FA02F3F8
:100C80004FEA4303CCE77FEA625307D150EA0133CE
:100C90001EBF4FF0FE4040F44000704701F000409E
:100CA00040F0FE4040F40000704700BF53B94AB91D
:100CB000002908BF00281CBF4FF0FF314FF0FF3064
:100CC00000F074B9ADF1080C6DE904CE00F006F83F
:100CD000DDF804E0DDE9022304B070472DE9F047B8
:100CE000089D04468E46002B4DD18A42944669D910
:100CF000B2FA82F252B101FA02F3C2F1200120FAF3
:100D000001F10CFA02FC41EA030E94404FEA1C4840
:100D1000210CBEFBF8F61FFA8CF708FB16E341EA3C
:100D2000034306FB07F199420AD91CEB030306F1C2
:100D3000FF3080F01F81994240F21C81023E6344E3
:100D40005B1AA4B2B3FBF8F008FB103344EA034487
:100D500000FB07F7A7420AD91CEB040400F1FF339C
:100D600080F00A81A74240F207816444023840EAD9
:100D70000640E41B00261DB1D4400023C5E9004312
:100D80003146BDE8F0878B4209D9002D00F0EF8095
:100D90000026C5E9000130463146BDE8F087B3FAC8
:100DA00083F6002E4AD18B4202D3824200F2F980B0
:100DB000841A61EB030301209E46002DE0D0C5E9B3
:100DC000004EDDE702B9FFDEB2FA82F2002A40F0FF
:100DD0009280A1EB0C014FEA1C471FFA8CFE012602
:100DE000200CB1FBF7F307FB131140EA01410EFBA6
:100DF00003F0884208D91CEB010103F1FF3802D24D
:100E0000884200F2CB804346091AA4B2B1FBF7F046
:100E100007FB101144EA01440EFB00FEA64508D969
:100E20001CEB040400F1FF3102D2A64500F2BB80A6
:100E30000846A4EB0E0440EA03409CE7C6F12007F5
:100E4000B34022FA07FC4CEA030C20FA07F401FA3B
:100E500006F31C43F9404FEA1C4900FA06F3B1FBC4
:100E6000F9F8200C1FFA8CFE09FB181140EA014129
:100E700008FB0EF0884202FA06F20BD91CEB0101C6
:100E800008F1FF3A80F08880884240F28580A8F11E
:100E900002086144091AA4B2B1FBF9F009FB101170
:100EA00044EA014100FB0EFE8E4508D91CEB01010E
:100EB00000F1FF346CD28E456AD90238614440EAB1
:100EC0000840A0FB0294A1EB0E01A142C846A64631
:100ED00056D353D05DB1B3EB080261EB0E0101FABA
:100EE00007F722FA06F3F1401F43C5E90071002617
:100EF0003146BDE8F087C2F12003D8400CFA02FC6D
:100F000021FA03F3914001434FEA1C471FFA8CFE7C
:100F1000B3FBF7F007FB10360B0C43EA064300FB6C
:100F20000EF69E4204FA02F408D91CEB030300F10A
:100F3000FF382FD29E422DD9023863449B1B89B2C1
:100F4000B3FBF7F607FB163341EA034106FB0EF34A
:100F50008B4208D91CEB010106F1FF3816D28B42F7
:100F600014D9023E6144C91A46EA004638E72E46C3
:100F7000284605E70646E3E61846F8E64B45A9D2BB
:100F8000B9EB020864EB0C0E0138A3E74646EAE72A
:100F9000204694E74046D1E7D0467BE7023B6144D8
:100FA00032E7304609E76444023842E7704700BF41
:100FB00001230370014B00221A64704700080040AF
:100FC00010B54B1E044CE3624908216410460FF033
:100FD00073FD0023236410BD0008004008B50378AA
:100FE00003B908BDA0224FF48E71FFF7E9FFF8E7BF
:100FF000037803B9704710B50446A0224FF48E71F0
:10100000FFF7DEFF64200FF057FDA0224FF48E7132
:101010002046FFF7D5FF10BD08B5037803B908BD1A
:10102000A02240F61831FFF7CBFFF8E7037803B9A9
:10103000704710B50446A0224FF48E71FFF7C0FF31
:1010400032200FF039FD3C2240F618312046FFF7E0
:10105000B7FF32200FF030FDA02240F28C51204625
:10106000FFF7AEFF10BD09B10020704700F58050BA
:1010700090F85400704700F58053D3F8C830CBB3D4
:1010800070B584B004460D464E0013F81120FF2AB7
:101090001ED00123694606F038FB48BB9DF8083096
:1010A00083F001038DF8083001226946204606F0DE
:1010B000F3FC04F58054D4F8C83003F81500D4F8D4
:1010C000C83033449DF808205A70012004B070BD28
:1010D00000F581501C3007F09BFC014640B1052211
:1010E0000DF1090019F03CFA01238DF80830DBE717
:1010F0000020EBE70020704700F58053D3F8C8309C
:10110000002B41D070B505460E4600F581501C30CD
:1011100007F07CFC04460246012130460FF010FC2B
:10112000C0B205F58055D5F8C820054602EB40034E
:101130005B7813F0010F1AD183B2194641B102EB6B
:101140004100407810F0010F02D1481E81B2F5E74E
:10115000A34208D202EB4300407810F0010F02D105
:1011600001339BB2F4E719B9A3420FD0D8B270BDD6
:10117000A34205D06A1A5D1BAA4203DAC8B2F6E799
:10118000C8B2F4E7D8B2F2E7012070470120EEE7D9
:101190002DE9F04107460C464E888D888B7E13F072
:1011A000010F2BD01F4B1A881F4B198830460FF0A8
:1011B000C7FB06461FFA80F81C4B1A881C4B19887F
:1011C00028460FF0BDFB054680B2A37E13F0010F49
:1011D0001DD0A4F80280A080637E1E2B01D91E239F
:1011E0006376217E3846FFF787FF2076FF220A21AB
:1011F000E07E0FF0A5FBE076BDE8F08130B20FF0A5
:10120000B7FB86B228B20FF0B3FB85B2CAE730B2A3
:101210000FF0A0FB1FFA80F828B20FF09BFB80B202
:10122000D7E700BF56C0010858C001084EC00108EA
:1012300050C001082DE9F04385B006460F46002452
:10124000A04612E00DF10901484607F0EDFB00B29F
:10125000002808DB9DF808302BB107EB400217F897
:101260001030FF2B1DD0013424B206F5815909F14D
:101270001C09484607F0CAFB84420ADAE5B201239A
:101280002A466946304606F040FA0028DAD001289E
:10129000E9D1304606F03AF95FFA88F005B0BDE8CA
:1012A000F08307F810509DF80830537008F10108DA
:1012B0001FFA88F8D7E708B500F58053D3F8C810AF
:1012C00009B9002008BDFFF7B5FF0120FAE708B50E
:1012D0004288838E9A4233D18288C38E9A4231D11A
:1012E000C288038F9A422FD1828AB0F846309A4240
:1012F0002CD1827D90F848309A4229D1027E90F814
:101300004A309A4226D1427E90F84B309A4223D1FD
:10131000827E90F84C309A4220D1C27D90F84930BC
:101320009A421DD1C27E90F84D309A421AD11422B1
:1013300000F14F011D3019F0FFF8A8B9012000E0BD
:10134000002008BD0020FCE70020FAE70020F8E7B5
:101350000020F6E70020F4E70020F2E70020F0E7A5
:101360000020EEE70020ECE70020EAE708B5EB23D9
:1013700043804FF4967383804FF49663C3800122B9
:10138000027600234376838205218175332181769D
:10139000C37541F649030381252343814FF4396323
:1013A0008381C823C38140230382C32343828023D4
:1013B000C3760277142202491D3019F0D1F808BD16
:1013C00044C0010810B50446437F13B104F11D0069
:1013D00010BD142202491D3019F0C2F8F6E700BF13
:1013E00044C001082DE9F84F044616461D469DF8F5
:1013F00028B09DF82CA09DF830909DF834809DF881
:101400003870837E03F001034176BDF83C20828270
:101410009DF840208275AB420BD0002D3DD0B0F935
:1014200002000FF0A5FA6080B4F904000FF0A0FAF2
:10143000A0800023A3760DB10123A3761EB1A37E65
:1014400043F00203A376BBF1000F03D0A37E43F069
:101450000403A376BAF1000F03D0A37E63F07F03E9
:10146000A376B9F1000F03D0A37E43F01003A37657
:10147000B8F1000F03D0A37E43F02003A3761FB181
:10148000A37E43F00803A376FF220A219DF84400BF
:101490000FF056FAE076BDE8F88FB0F902000FF0D1
:1014A00059FA6080B4F904000FF054FAA080C0E744
:1014B000418070478180C280704710B5034600F1BB
:1014C000320230301C68D3F804E0D3F808C0D96881
:1014D0001460C2F804E0C2F808C0D16010331032C2
:1014E0008342EFD11B88138010BD38B5044600F548
:1014F00081551C352846FFF7EAFE00B138BD294664
:10150000204606F094FA2846FFF7D7FFF6E710B515
:10151000A2B90A6800F58053A3F844204A68A3F8EA
:1015200046208A68A3F8482000F581541C342146DF
:1015300006F07DFA2046FFF7C0FF10BD0A6800F5EF
:101540008053A3F84A204A68A3F84C208A68A3F87D
:101550004E20E9E710B500F13203024662301C6804
:10156000D3F804E0D3F808C0D9681460C2F804E0E6
:10157000C2F808C0D160103310328342EFD11B880B
:10158000138010BDC07D000900EB80007047C07D56
:1015900000F00F00013000EB800080007047000079
:1015A0004B2900D94B21B2F5A07F03D8042A03D8D8
:1015B000052201E04FF4A0720B1DDBB20949A1FB2B
:1015C00003139B081B01DBB2C375013A064981FB7B
:1015D00002C1D217C2EBE10202F00F021343C3753E
:1015E000704700BFCDCCCCCC6766666610B50446AC
:1015F00032B94A89134609890EF098F9204610BD80
:101600004B8A0A8AC9890EF091F9F7E710B50446AA
:101610003AB9C8230A2240F23F210EF087F920464A
:1016200010BD3223402296210EF080F9F7E700B575
:10163000B1F800E002EB820C00EB4C0320F81CE058
:10164000B1F802C0A3F802C0B1F804C0A3F804C006
:10165000B1F806C0A3F806C091F808C083F808C026
:1016600091F90E3002EB820200EB420253725DF8F8
:1016700004FB01EB810100EB410191F90900704786
:10168000032905D802EB82020A4430F812007047A1
:101690000020704703290BD8012A04D0083100EB41
:1016A0004100808870470C3100EB41008088704712
:1016B000002070472DE9F04383B004460E46904663
:1016C00000F5855900214846FFF7E4FF074604F579
:1016D000805402463146B4F850000FF031F985B21B
:1016E000A4F85050424600214846FFF7C9FF009039
:1016F00000233A46314628460FF0F0F880B203B096
:10170000BDE8F0832DE9F04F85B005460F469046C1
:101710001C4603EB830300EB430292F90990A8EB0C
:10172000090930F813608E4208D804EB840300EBFB
:101730004303DE888E4240D3012617E02246002173
:10174000FFF7A8FF48440090434632460021384640
:101750000FF0C4F800B240F2E73241460FF0F0F863
:1017600080B205B0BDE8F08F0136F6B2032E57D82F
:1017700004EB8403334435F813A0BA45F4D9721E40
:1017800004EB84031A4435F812B0711E2246C9B224
:101790002846FFF77FFF00EB0903039322463146FB
:1017A0002846FFF777FF48440090039B524659466E
:1017B00038460FF093F800B2CDE704EB840300EB5A
:1017C0004303B3F802A0564514D922460121FFF77E
:1017D00061FF00EB090B224603212846FFF75AFF61
:1017E000484400905B463246514638460FF076F842
:1017F00000B2B0E722460121FFF74CFF00EB0906DB
:10180000224603212846FFF745FF4844009033460F
:10181000044A1288514638460FF060F800B29AE741
:10182000002098E754C0010810B5044600F5855023
:10183000FFF768FF04F5805494F8563013F0010F59
:1018400000D010BD00B20FF085F880B2F9E70000BB
:101850002DE9F04F85B00546039116461C4600F56C
:10186000855919464846FFF704FF371A22460021DA
:101870004846FFF70FFFBFB200EB07081FFA88F8D2
:10188000224603214846FFF705FF0744BFB2012C5B
:1018900035D0484BB3F800A0012C34D0464BB3F8F8
:1018A00000B005F5805393F8563013F0010F2ED099
:1018B0005A46514603980FF043F81FFA80FA3F4BFF
:1018C000B3F800B0224600214846FFF7D9FE039046
:1018D000224603214846FFF7D3FE0090039B3A4679
:1018E000414650460EF0FAFF80B2B0EB5B0F25DDAB
:1018F000A0EBAB07BFB24FF00008C1463BE0304B56
:10190000B3F800A0C8E72F4BB3F800B0C9E70FFA4F
:1019100088F00FF01FF81FFA80F838B20FF01AF8AD
:1019200087B20FFA8AF00FF015F81FFA80FA0FFA53
:101930008BF00FF00FF81FFA80FBB9E75F46BBF1A1
:10194000000F03DB00EBA707BFB2D4E70BF10307DF
:10195000F8E77B1CB9469FB209E009EB070303EBEC
:10196000D373C3F34F039F421CD0BB461F4608F1FD
:1019700001085FFA88F8B8F1130F17D823463246EA
:1019800039462846FFF750FF82450FD0E5D907EBCF
:101990000B0303EBD373C3F34F039F42D9D0B94674
:1019A0001F46E4E77B1EBB469FB2E0E7384605B022
:1019B000BDE8F08F58C0010856C0010854C00108A6
:1019C00050C001084EC00108002308E002EB820C61
:1019D0009C4430F81CC021F813C00133DBB2032B48
:1019E000F4D9704710B54FF0000C0AE031F81C40F4
:1019F00003EB830EE64420F81E400CF1010C5FFA65
:101A00008CFCBCF1030FF1D903EB830100EB410126
:101A10004A7203220A72C988044A1288914204D980
:101A200003EB830300EB4303DA8010BD54C00108CD
:101A300001EB810200EB42034FF42A7C20F812C034
:101A40004FF471725A8040F20A529A804FF4C86281
:101A5000DA80044A92F900205A72194601230B7267
:101A6000704700BF4CC0010808B5FFF7E1FF08BD93
:101A70000A884B889A4207D28A88934206D2CB883A
:101A80009A4205D30020704700207047002070471D
:101A90000120704770B584B000F58053D3F8C8308A
:101AA000002B41D004460D46012902D011B101227C
:101AB00000E0002213F81220FF2A18D00023694604
:101AC000204605F022FEC8B99DF8083013F0020F39
:101AD0001DD004F5855469462046FFF7C9FF064628
:101AE000E0B929462046FFF7A3FF01260CE029466E
:101AF00004F58550FFF79CFF002605E0294604F514
:101B00008550FFF795FF0026304604B070BD29468A
:101B100004F58550FFF78CFF0126F5E72A46694654
:101B20002046FFF784FDEFE70026EDE7F8B5054610
:101B300000F581561C36304606F068FF400018F06C
:101B400039FB05F58053C3F8C800A8B100240EE0A6
:101B500005F58053D3F8C820FF2102F81410D3F8FC
:101B6000C83003EB440300225A700134E4B230461B
:101B700006F04CFF8442EBDB284605F07EFD044670
:101B8000D0BB05F58053D3F8C81021B32846FFF722
:101B900051FB074605F581561C363146284605F0AF
:101BA00040FED0B131462846FFF7F2FA002201216B
:101BB0002846FFF76FFF05F5805393F85420002166
:101BC0002846FFF767FF05F581501C30FFF775FCCD
:101BD0005FB32046F8BD0746DCE705F581501C30B1
:101BE000FFF7C4FB05F5805696F854102846FFF71A
:101BF00083FA86F85400D9E705F581561C3630463D
:101C0000FFF7B4FB012105F58550FFF711FF012215
:101C100000212846FFF73EFF3046FFF74EFC012C1F
:101C200005D0022C05D00024D3E70124D1E70224FB
:101C3000CFE70324CDE770B504460E4679B90125F8
:101C4000324629462046FFF725FF38B11DB904F575
:101C5000805383F854602046FFF747FC70BD002591
:101C6000EEE72DE9F04184B004460E461D46138888
:101C7000ADF800305388ADF802309388ADF80430E9
:101C8000D388ADF806308DF808509DF928308DF8CE
:101C90000E3000F58053D3F8C8304F0003EB4103FA
:101CA0005D7000F581501C3006F0B2FE30B1804608
:101CB000694604F58550FFF7DBFE38B904F5865018
:101CC0000430FFF7B3F904B0BDE8F08105224146C6
:101CD0000DF1090018F044FC00226946204605F089
:101CE000DBFEB0F10008E9DB04F586500430FFF7B5
:101CF00075F904F58054D4F8C83003F81680D4F888
:101D0000C8301F447D70DEE770B582B005460E46D0
:101D100061B1941B01940F2C0DD82868012C13D0AD
:101D2000A4B12246314618F065FA0FE09142F0D096
:101D30000A4817F00CFD002201A9284617F0C6FD3D
:101D40002860019BAB60E8E733780370019B6B6010
:101D50002A680021D15402B070BD00BF68AC0108F0
:101D6000F0B589B0044608461646114600F5815084
:101D70001C3006F04DFE054604F1080323604FF0C9
:101D80000003421D01462046FFF7BEFF8DB116B18C
:101D90002B784E2B02D1204609B0F0BD626802B10B
:101DA000002204230093224B0021204617F07CFEE2
:101DB000F1E704AE02961F4A4FF00003D11F02A8BC
:101DC000FFF7A2FF234653F8080B0299B14217D040
:101DD000984227D0A7682160039B6360049BA3609F
:101DE00010B30290049700230393029A1370029891
:101DF00004AB9842CFD00499013117F08FFCCAE7A9
:101E0000039A2AB9039B636022680021D154EAE750
:101E1000012A04D0002AF5D018F0ECF9F2E70B788B
:101E20000370EFE72846D6E704AB0293DBE700BF79
:101E300094AC0108A3AC010810B5044642B901F501
:101E4000805393F854202046FFF78AFF204610BDA8
:101E50000022F8E72DE9F04786B0174698469DF82E
:101E6000389000F58053D3F8C8201AB106464C1EAE
:101E7000032513E0002307E003EB430207EB820294
:101E8000002191700133DBB24345F5D3002067E0B8
:101E9000013D15F0FF0525D0013C24B2002C09DDE1
:101EA000B9F1000FF4D002EB44035B7813F0010F9B
:101EB000F2D0EDE7002515E0009802AB984203D080
:101EC0000299013117F02AFC2946414547D201EB1E
:101ED000410007EB8000002383700131C9B2F4E7B1
:101EE000013424B206F581501C3006F08FFD844287
:101EF000EADA002CF4D0B9F1000F09D006F58053CE
:101F0000D3F8C83003EB44035B7813F0010FE7D03C
:101F100005EB450307EB830AE2B207F8232006F539
:101F20008053D3F8C83003EB44035B788AF8013060
:101F300031466846FFF714FF0A2200990AF10200B1
:101F400018F00EFB0135EDB24545B5D2009802AB55
:101F50009842C5D00299013117F0E0FBC0E728464E
:101F600006B0BDE8F0870000014B0360704700BF7A
:101F70006CB0010870470000024A0260024A026029
:101F8000704700BF94B001086CB001087047002092
:101F900070470000014B0360704700BFF0B00108BC
:101FA0000A4B1B783BB100204FF08043586303F588
:101FB00080331864704710B504461422044905485C
:101FC0000EF054FE014B1C70012010BDC4760020A1
:101FD000883500201C88002010B50446044B03609F
:101FE000044B0360502117F099FB204610BD00BF41
:101FF00094B001086CB0010810B50446034B0360AF
:10200000502117F08BFB204610BD00BF6CB00108BB
:1020100010B50446034B0360242117F07FFB2046D4
:1020200010BD00BFF0B0010808B5084616F098FAD8
:1020300008BD08B5084616F085FA08BD08B508467B
:1020400016F072FA08BD08B516F060FA08BD08B5BA
:1020500016F04EFA08BD08B515F0A6F808BD000048
:1020600010B4034600220270E149416000F1100102
:102070008160C2600274DF49016200F12C0141629B
:10208000826280F82C20DC49C16300F148010164C0
:10209000426480F84820D949816500F16401C16536
:1020A000026680F86420D649416700F180018167AB
:1020B000C26780F88020D349C0F8901000F19C01DD
:1020C000C0F89410C0F8982080F89C20CE49C0F841
:1020D000AC1000F1B801C0F8B010C0F8B42080F81E
:1020E000B820CA49C0F8C81000F1D401C0F8CC101B
:1020F000C0F8D02080F8D420C549C0F8E41000F121
:10210000F001C0F8E810C0F8EC2080F8F020C149D8
:10211000C0F8001100F58671C0F80411C0F808215C
:1021200080F80C21BC49C0F81C1100F59471C0F86E
:102130002011C0F8242180F82821B848C3F83801BC
:1021400003F5A271C3F83C11C3F8402183F8442180
:10215000B349C3F8541103F5B071C3F85811C3F86B
:102160005C2183F86021AF49C3F8701103F5BE719B
:10217000C3F87411C3F8782183F87C21AA49C3F805
:102180008C1103F5CC71C3F89011C3F8942183F836
:102190009821A649C3F8A81103F5DA71C3F8AC1168
:1021A000C3F8B02183F8B421A149C3F8C41103F5E1
:1021B000E871C3F8C811C3F8CC2183F8D0219D4938
:1021C000C3F8E01103F5F671C3F8E411C3F8E82190
:1021D00083F8EC219849C3F8FC1103F50271C3F8A8
:1021E0000012C3F8042283F808229449C3F8181295
:1021F00003F50971C3F81C12C3F8202283F82422C6
:102200008F49C3F8341203F51071C3F83812C3F8BC
:102210003C2283F840228B49C3F8501203F5177112
:10222000C3F85412C3F8582283F85C228649C3F8D5
:102230006C1203F51E71C3F87012C3F8742283F890
:1022400078228249C3F8881203F52571C3F88C12ED
:10225000C3F8902283F894227D49C3F8A41203F5B1
:102260002C71C3F8A812C3F8AC2283F8B0227949C4
:10227000C3F8C01203F53371C3F8C412C3F8C822FF
:1022800083F8CC227449C3F8DC1203F53A71C3F821
:10229000E012C3F8E42283F8E8227049C3F8F81288
:1022A00003F54171C3F8FC12C3F8002383F804233B
:1022B0006B49C3F8141303F54871C3F81813C3F836
:1022C0001C2383F820236749C3F8301303F54F71AB
:1022D000C3F83413C3F8382383F83C236249C3F8A6
:1022E0004C1303F55671C3F85013C3F8542383F805
:1022F00058235E49C3F8681303F55D71C3F86C1386
:10230000C3F8702383F874235949C3F8841303F581
:102310006471C3F88813C3F88C2383F8902355495C
:10232000C3F8A01303F56B71C3F8A413C3F8A82373
:1023300083F8AC235049C3F8BC1303F57271C3F89A
:10234000C013C3F8C42383F8C8234C49C3F8D81377
:1023500003F57974C3F8DC43C3F8E02383F8E4237E
:10236000C3F8F40303F58060C3F8F803C3F8FC2353
:1023700083F800244248C3F8100403F21C40C3F859
:102380001404C3F8182483F81C243E48C3F82C0412
:1023900003F58760C3F83004C3F8342483F8382485
:1023A0003948C3F8480403F25440C3F84C04C3F856
:1023B000502483F854243548C3F8640403F58E6030
:1023C000C3F86804C3F86C2483F87024C3F880143D
:1023D00003F28C41C3F88414C3F8882483F88C2456
:1023E0002B49C3F89C1403F59561C3F8A01451E080
:1023F000A4AC0108B0AC0108BCAC0108C8AC010831
:10240000D4AC0108E4AC0108F4AC010800AD01084B
:102410000CAD01081CAD01082CAD010834AD01085C
:102420003CAD010848AD010850AD010858AD0108A8
:1024300068AD010874AD010880AD01088CAD0108DC
:1024400098AD0108A4AD0108B4AD0108C4AD010800
:10245000D0AD0108DCAD0108E8AD0108F0AD010820
:10246000F8AD010804AE010810AE01081CAE010869
:102470002CAE010838AE010844AE01084CAE01088C
:1024800028B1010854AE010860AE01086CAE010825
:102490007CAE0108C3F8A42483F8A824BA49C3F881
:1024A000B81403F2C441C3F8BC14C3F8C02483F8C1
:1024B000C424B649C3F8D41403F59C61C3F8D814F6
:1024C000C3F8DC2483F8E024B149C3F8F01403F224
:1024D000FC41C3F8F414C3F8F82483F8FC24AD4994
:1024E000C3F80C1503F5A361C3F81015C3F8142540
:1024F00083F81825A849C3F8281503F23451C3F806
:102500002C15C3F8302583F83425A449C3F84415A5
:1025100003F5AA61C3F84815C3F84C2583F8502584
:102520009F49C3F8601503F26C51C3F86415C3F8F2
:10253000682583F86C259B49C3F87C1503F5B161C8
:10254000C3F88015C3F8842583F888259649C3F815
:10255000981503F2A451C3F89C15C3F8A02583F87D
:10256000A4259249C3F8B41503F5B861C3F8B815AA
:10257000C3F8BC2583F8C0258D49C3F8D01503F2F4
:10258000DC51C3F8D415C3F8D82583F8DC25894974
:10259000C3F8EC1503F5BF61C3F8F015C3F8F425D3
:1025A00083F8F8258449C3F8081603F21461C3F8C8
:1025B0000C16C3F8102683F814268049C3F8241695
:1025C00003F5C661C3F82816C3F82C2683F8302615
:1025D0007B49C3F8401603F24C61C3F84416C3F8B4
:1025E000482683F84C267749C3F85C1603F5CD617D
:1025F000C3F86016C3F8642683F868267249C3F8E6
:10260000781603F28461C3F87C16C3F8802683F839
:1026100084266E49C3F8941603F5D461C3F898165E
:10262000C3F89C2683F8A0266949C3F8B01603F2C4
:10263000BC61C3F8B416C3F8B82683F8BC26654954
:10264000C3F8CC1603F5DB61C3F8D016C3F8D42663
:1026500083F8D8266049C3F8E81603F2F461C3F89A
:10266000EC16C3F8F02683F8F4265C49C3F8041787
:1026700003F5E261C3F80817C3F80C2783F81027A5
:102680005749C3F8201703F22C71C3F82417C3F875
:10269000282783F82C275349C3F83C1703F5E96131
:1026A000C3F84017C3F8442783F848274E49C3F8B6
:1026B000581703F26471C3F85C17C3F8602783F8F6
:1026C00064274A49C3F8741703F5F061C3F8781713
:1026D000C3F87C2783F880274549C3F8901703F295
:1026E0009C71C3F89417C3F8982783F89C27414935
:1026F000C3F8AC1703F5F761C3F8B017C3F8B427F4
:1027000083F8B8273C49C3F8C81703F2D471C3F85B
:10271000CC17C3F8D02783F8D4273849C3F8E41777
:1027200003F5FE61C3F8E817C3F8EC2783F8F02738
:102730003349C3F8001803F60C01C3F80418C3F8B2
:10274000082883F80C282F49C3F81C1803F6280121
:10275000C3F82018C3F8242883F828282A49C3F886
:10276000381803F64401C3F83C18C3F8402883F82E
:102770004428264A92E80300C3F8540883F85818FE
:1027800018465DF8044B704784AE010888AE010816
:102790008CAE010894AE01089CAE0108A4AE0108FD
:1027A000ACAE0108B4AE0108BCAE0108C0AE010871
:1027B000C4AE0108C8AE0108CCAE0108D4AE010811
:1027C000DCAE0108E8AE0108F4AE010808AF01086C
:1027D0001CAF01082CAF01083CAF010854AF010841
:1027E0006CAF010874AF01087CAF010880AF01082D
:1027F00084AF010894AF0108A0AF0108B0AF010891
:10280000C0AF0108D4AF0108E0AF01080CAC01086B
:10281000014B1878704700BFEC75002038B50EF0FA
:1028200045F900F596751B4B5B6A9BB29C1CA4B2E4
:10283000632C01D9613B9CB20EF038F9A84207D253
:10284000144B5B6AA342F7D14FF0804300225A62D7
:102850000EF02CF900F596750E4B5B6A9BB29C1C32
:10286000A4B2632C01D9613B9CB20EF01FF9A842BF
:1028700008D2084B5B6AA342F7D14FF08043586AF5
:1028800080B205E04FF08043D86A80B2013080B258
:1028900038BD00BF0000014030B585B01F4C01219C
:1028A0000291019100910B460022204604F073FD35
:1028B000A4F6D825284601F0A7FD3B21284602F0C2
:1028C0006AF9A4F55464802384F8B832144A536337
:1028D000022507E0114804F0EAFCC8B9114801F0EC
:1028E00037FD88B9104BB3F85C4DE4B2A542F1D086
:1028F00000230093B4FA84F35B0964223E210B4861
:1029000003F00EF92546E5E705200EF0D5F8E9E7D6
:10291000B4FA84F0400905B030BD00BFF072002069
:102920000004004068680020B0650020186800209E
:102930002DE9F0416B4C204605F02EFD064604F5CE
:102940004054032384F8B13C84F8B03C664C0C211D
:10295000204610F085FA0821204610F0E5F9634C76
:102960000021204610F07CFA0421204610F078FA6D
:102970000821204610F0D8F90C21204610F0D4F997
:102980000C215B4810F06CFA5A4DDFF8B0815A4CBC
:102990002B4642462946204609F07CF9574F2B46E4
:1029A0003A462146404609F075F92B462246214613
:1029B000384609F06FF9234622462146504809F06F
:1029C00069F9504F2346224639464F4809F062F9CB
:1029D000234622462146384609F05CF92346224622
:1029E00021464A4809F056F9DFF84C812346224631
:1029F0002146404609F04EF923462A4629464448D6
:102A000009F048F9434F234622462146384609F04B
:102A100041F92346224629463F4809F03BF923461F
:102A2000224629463D4809F035F9234622462146EB
:102A3000284609F02FF93A4D2B46224621463948BF
:102A400009F028F9234622462146284609F022F9B2
:102A5000234622464146344809F01CF93B463A4693
:102A60002146324809F016F9314801F0CDFC022E1A
:102A70001DD0032E24D0012E15D0FFF7CFFE40F23B
:102A8000DC500EF019F8174B03F5805292F85720DE
:102A900003F5405383F8B822264B186803681B6877
:102AA0009847BDE8F081234B144A1A60E5E7224CB1
:102AB00000223B2120460AF03BFF1E4B1C60DCE756
:102AC000FFF7EAFE0028D8D0064804F031FD0028C0
:102AD000D3D1194C00223F2120460AF029FF154B83
:102AE0001C60CAE7B0350020D48900201C8A002071
:102AF000AC8A002080770020387500209C7600206A
:102B000094020020F0020020503500200C750020B7
:102B10005C030020507700201C7700202003002059
:102B2000B47500209075002088030020C87600202E
:102B30001868002000000020D0740020F0750020EC
:102B400038B50DF0B3FF444B1B6898423AD8434B5D
:102B5000186809F0A3F8044618B1404B1B6883427B
:102B60004FD13E4D286803685B68984704462B6840
:102B700083421BD0002858D0394D0021284605F04B
:102B800027FD002105F5047005F0A2FAA5F67C32B8
:102B9000002382F8B13C82F8B03C4FF0804253638E
:102BA0002E4B1C6023681B68204698470DF07EFF63
:102BB0002C4B1B6898423AD22B4801F0C9FB0028E5
:102BC00046D138BD0DF072FF6430234B18604021B0
:102BD00026480EF0EFFD01280FD1642124480DF0A6
:102BE000E9FB4FF4806123480EF0E4FD012806D193
:102BF000642121480DF0DEFBA9E70021EEE700216A
:102C0000F7E71E4D2846FEF7F3F90021A5F565709C
:102C100005F0DEFC4FF0804300225A630F4B1C602E
:102C200023681B6820469847CBE7154CA4E7154955
:102C30004B6A154A10681B1A18BF0123134803700A
:102C40004B6A13600DF032FF2930064B1860B3E772
:102C500005200DF031FFB4E7D477002000000020FC
:102C60002C710020D077002068680020000402400A
:102C7000447200200000024054740020C074002000
:102C8000D074002000000140CC770020EC750020BB
:102C900008B50368144A934203D0B3F1804F0DD0B6
:102CA00008BD027F042AF8D1104805F02DF96322EF
:102CB00000210DF045FE0C4B1864F1E7037F042B57
:102CC00005D0082BECD10220FFF76AF9E8E74FF0B6
:102CD00080435B6B23B94FF080439B6B002BDFD0AD
:102CE0000120FFF75DF9DBE7000001403C730020A5
:102CF00002684A4B9A4200D0704710B586B04848E7
:102D00000EF066F8474B1B78DBB2022B09D0454B1F
:102D10001B78DBB2012B49D0424B00221A7006B05F
:102D200010BD0023019302930393132B18D8991C11
:102D30003D4A32F81110019810FA81F10191D91C25
:102D400032F81110029810FA81F10291191D32F82F
:102D50001120039911FA82F203920533DBB2E4E702
:102D6000019B02330193019B9B080193029B023359
:102D70000293029B9B080293039B02330393039BE2
:102D80009B0803930399294C20460DF070FA019992
:102D9000A4F5667005F0F4FC4FF080435863029987
:102DA00089B2A4F5C47005F00EF8B5E700230493CA
:102DB0000593132B10D81C4931F81320049810FAEE
:102DC00082F204925A1C31F81220059911FA82F20B
:102DD00005920533DBB2ECE7049B02330493049BBA
:102DE0009B080493059B02330593059B9B08059361
:102DF0004FF080435B6B53B94FF080439B6B002BCC
:102E00008AD0059989B20A480DF0D4FA84E704996A
:102E100089B208480DF0CEFAEEE700BF002001406D
:102E20001C880020C476002088350020C47400204F
:102E300044740020347200207047000008B5064B2F
:102E40005B6913F0010F00D108BD044804F0B6FA25
:102E5000014B01225A61F7E7003C0140A4720020B7
:102E600008B5064B5B6913F0020F00D108BD04489A
:102E700004F0A4FA014B02225A61F7E7003C01403A
:102E8000F072002038B50C46154605E04FF4FC7191
:102E900054F8040B16F042FCAC42F7D338BD10B521
:102EA000044603684BB1426A04324169FFF7EAFF06
:102EB00061688900206816F031FC204610BD2DE9BC
:102EC000F04188461746CE6804360DE01834A54216
:102ED00009D0234653F8080B9842F7D0A168013176
:102EE00016F01CFCF2E70436FB68B34203D93468E1
:102EF00004F5FC75EBE7D8F80C20934221D0D8F804
:102F00000040D8F8085000E01834A54209D0234604
:102F100053F8080B9842F7D0A168013116F0FEFB78
:102F2000F2E77C683D6800E01834A5421AD02346D9
:102F300053F8080B9842F7D0A168013116F0EEFB68
:102F4000F2E7D8F800403D6800E01834A54209D007
:102F5000234653F8080B9842F7D0A168013116F0C8
:102F6000DDFBF2E7BDE8F08138B50C46154605E01B
:102F70004FF4FC7016F0D4FB44F8040BAC42F7D3CA
:102F800038BD00002DE9F04383B004460D46274BC1
:102F9000A3FB0123CA1A03EB52031B095E1C082280
:102FA00000920333019393423BD86B4618686060EC
:102FB000B0F1005F37D2800016F0B2FB804620608F
:102FC0006768BF1B7F0800EB870909EB860632465E
:102FD00049462046FFF7C8FFC4F8149058F8273038
:102FE000E36003F5FC722261321F626256F8042C22
:102FF000E26102F5FC712162A3600C4BA3FB051397
:10300000E91A03EB51031B0903EB4303C3EBC303AF
:10301000EB1A03EB430302EBC303A36103B0BDE868
:10302000F08301ABC2E716F08FFB00BF8761188603
:103030002DE9F04F83B0824600F58055002485F8D5
:1030400028404FF480536B85D64BEB62D64B2B63F5
:10305000D64B6B63D64BAB63D64B03CBC5F8B400F2
:10306000C5F8B81003CBC5F8BC00C5F8C0100AF508
:1030700086500430FDF79CFFC5F8C8400AF5865617
:103080000C3642F2600906EB0905DFF85CB346F83E
:1030900009B0C94B46F8093005F10C036B60AC6010
:1030A0002C7305F11C074FF028084246214638468C
:1030B00017F0C8F8EC612C626C62AC62EC622C63B5
:1030C0006C63AC63EC632C6421463846FFF75AFF0F
:1030D00005F1440742462146384617F0B3F86C64C0
:1030E000AC64EC642C656C65AC65EC652C666C6658
:1030F000AC6621463846FFF745FFB04B46F809302D
:1031000005F17403EB662C6785F8744005F18C03B8
:10311000C5F88430C5F8884085F88C4005F1A403D3
:10312000C5F89C30C5F8A04085F8A440C5F8B44067
:10313000C5F8B840C5F8BC4042F22013F71846F86D
:1031400003B09D4AF25007F10C037B60BC603C73F6
:1031500007F11C0542462146284617F073F8FC612A
:103160003C627C62BC62FC623C637C63BC63FC636B
:103170003C6421462846FFF705FF07F14405424617
:103180002146284617F05EF87C64BC64FC643C650C
:103190007C65BC65FC653C667C66BC662146284651
:1031A000FFF7F0FE06F50056854BC6F82031C6F84D
:1031B0008C4186F89041C6F89441824BC6F898310C
:1031C00043F268260AEB0605281D15F0FBFF7E4B2F
:1031D0004AF806307D4B4AF8063085F85040A5F88D
:1031E0005440AC65EC65A5F8604085F8624005F197
:1031F0006400FEF735FF764B4AF80630754BC5F88C
:10320000C038A5F8C4484FF6FF72A5F8C6284FF499
:103210007841A5F8C8181F21A5F8CA184FF6E07123
:10322000A5F8CC184CF21861A5F8CE1885F8D0484E
:10323000C5F8D448C5F8D848C5F8DC48C5F8E04812
:10324000C5F8E448C5F8E84885F8EC289622A5F8C2
:10325000EE28A5F8F048A5F8F248A5F8F448A5F836
:10326000F648C822A5F8F8286E22A5F8FA285A22AE
:10327000A5F8FC284FF03C01A5F8FE18A5F8002998
:103280002022A5F802291922A5F80429524AC5F8D6
:103290000829C5F80C39C5F8103943F67C310AEB1A
:1032A00001034FF01408C3F804801C815C81DC60CA
:1032B0004FF00A0BC3F810B0C3F814B09C614FF084
:1032C0000B00988344F620621A6203F124024348FB
:1032D000077882F8424082F8404082F8417082F8D4
:1032E000864082F8844082F8857082F8CA4082F86D
:1032F000C84082F8C970A2F8CC40A2F8CE40A2F82B
:10330000D040A2F8D24082F8D440C2F8D84082F827
:10331000DC4082F8DD40A2F8DE40A2F8E040A2F8EE
:10332000E2402F4A4AF80120082583F80851C3F8E3
:103330000C4183F80851C3F80C4183F8104183F81D
:1033400011414FF4C879A3F812914FF4FA76A3F81B
:10335000146183F81851C3F81C4183F81851C3F85D
:103360001C4183F8204183F82141A3F82291A3F85E
:1033700024611C4A4AF80120A3F82841A3F82A41F5
:10338000A3F82C41A3F82E4183F8304183F8314152
:10339000A3F8324183F8344183F8354183F838513A
:1033A00024E000BFF4AF010800B001080CB0010830
:1033B00018B0010814AC0108D0BC010804BD010814
:1033C00038BD01085CC001086CB0010894B0010868
:1033D00008BA01087CC5010850BA010843C00108B9
:1033E00030B0010820BC0108BCB00108C3F83C4162
:1033F00083F83851C3F83C4183F84051C3F8444145
:1034000083F84051C3F8444183F84851C3F84C4114
:1034100083F84851C3F84C4183F85051C3F85441E4
:1034200083F85051C3F8544183F85851C3F85C41B4
:1034300083F85851C3F85C4183F860414FF4F5625A
:10344000A3F862214FF47A71A3F8641183F86681BE
:103450006422A3F8682183F86A51A3F86C61A3F889
:103460006E11032283F870210E2283F8712183F8F4
:103470007281052283F873214FF0020C83F874C126
:1034800001230093814B4FF4807281490AF57350F8
:10349000343003F0B0FE022300937C4B4FF4004223
:1034A0007C490AF5755003F0A6FE43F68C510AEBF1
:1034B0000103C3F804801C815C81DC60C3F810B098
:1034C000C3F814B09C614FF00B00988344F6206061
:1034D000186203F1240282F8424082F8404082F8E8
:1034E000417082F8864082F8844082F8857082F8C4
:1034F000CA4082F8C84082F8C970A2F8CC40A2F84D
:10350000CE40A2F8D040A2F8D24082F8D440C2F80F
:10351000D84082F8DC4082F8DD40A2F8DE40A2F814
:10352000E040A2F8E2405C4A4AF8012083F80851E2
:10353000C3F80C4183F80851C3F80C4183F81041DB
:1035400083F81141A3F81291A3F8146183F818517C
:10355000C3F81C4183F81851C3F81C4183F820417B
:1035600083F82141A3F82291A3F824614B4A4AF839
:10357000012083F8284183F8294183F82A414FF03C
:10358000010083F82B01A3F82C41A3F82E41C3F8C6
:103590003041C3F83441424A127883F83851C3F8B5
:1035A0003C4183F83821C3F83C4183F84051C3F8CB
:1035B000444183F84021C3F8444183F84851C3F89B
:1035C0004C4183F84851C3F84C4183F85051C3F83B
:1035D000544183F85051C3F8544183F85851C3F80B
:1035E0005C4183F85851C3F85C41A3F8604183F80B
:1035F0006241462283F86321632283F864214FF4F9
:103600001672A3F8662140F2CF72A3F868214FF436
:10361000C862A3F86A214FF44872A3F86C214FF0F6
:103620003C02A3F86E211F4AC3F870214EF66022B7
:10363000C3F87421A3F878614FF47A71A3F87A1172
:103640001E2683F87C614FF03C0283F87D2183F8CD
:103650007EB10122C3F880210AF57C501030FDF7BD
:10366000A7FC0AF5405383F8145FC3F8184F83F89A
:10367000145FC3F8184F83F81C6F40F63C72A3F830
:103680001E2F504603B0BDE8F08F00BF000402407B
:10369000000002400008024030B00108E4BB01080D
:1036A00052C00108407E0500F0B5A1B005460746AE
:1036B000554B47F8B43BD0F8B4407E6800E048343E
:1036C000A6421BD0206B04F13803984203D0A16BB3
:1036D000013116F023F8A06904F12003984203D0C9
:1036E000216A013116F01AF8234653F8080B984264
:1036F000E5D0A168013116F011F8E0E7D5F8B40083
:10370000B968091A08B116F009F805F16C04D5F882
:103710009C0005F1A403984204D0D5F8A41001310F
:1037200015F0FCFFA06904F12003984203D0216A40
:10373000013115F0F3FFE86E04F10803984203D05D
:10374000A168013115F0EAFF2C46304B44F8443BA8
:10375000D4F808E0CDF830E0D4F80CC0CDF834C08F
:1037600027690E9766690F96A0690890E16909912B
:10377000226A0A92636A0B93CDF850E0CDF854C0E8
:1037800016971796109011911292139310AA14A9DC
:103790002046FFF794FB2046FFF781FB05F11C0450
:1037A000D5F824E0CDF810E0D5F828C0CDF814C045
:1037B000EF6A06972E6B0796686B0090A96B0191D4
:1037C000EA6B02922B6C0393CDF870E0CDF874C0D5
:1037D0001E971F96189019911A921B9318AA1CA94C
:1037E0002046FFF76CFB2046FFF759FB686805F1A0
:1037F0000C03984203D0E968013115F08FFF044BA8
:103800002B60284621B0F0BD04BD0108D0BC0108E2
:10381000BCB001082DE9F04FA9B005460E460128BD
:1038200008D025B94FF6FF739E4200F0A88229B058
:10383000BDE8F08F4FF6FF739942F2D1BB4F384687
:10384000FFF7F6FBBA4BDFF844A3C3F800A000244F
:103850001C719C609C811C615C619C61DC611C62D0
:103860009F60B44A1A60082283F824209C620522D3
:1038700083F824209C62DC621C635C639C639C87ED
:10388000DC87A3F8404083F842404FF0010983F8F9
:10389000439083F8449083F845409C64DC644FF483
:1038A000FA72A3F8502040F6B830A3F8520040F264
:1038B000DC51A3F85410A04BC3F800A01C719C600D
:1038C0009C811C615C619C61DC611C629F609B4A05
:1038D0001A60C3F89C4083F8A040C3F8A44083F862
:1038E000A840974BC3F800A01C719C609C811C6190
:1038F0005C619C61DC611C629F60924A1A604FF0BF
:10390000FF3283F82420904AC2F800A0147194601A
:103910009481146154619461D461146297608B4BFB
:10392000136082F82440A2F8464082F848404FF0E5
:10393000030BA2F84AB0D464146582F854404FF4E3
:103940001673A2F856309065DFF84482C8F800A0DC
:1039500088F80440C8F80840A8F80C40C8F810409F
:10396000C8F81440C8F81840C8F81C40C8F82040EF
:10397000C8F80870764BC8F8003088F8244088F8FA
:103980002E4088F82F40C8F830400423A8F834307F
:10399000A8F83610434639466E4808F001FD6E4BD4
:1039A000C3F800A01C719C609C811C615C619C61DF
:1039B000DC611C629F60694A1A609C8483F82690CF
:1039C00083F827409C62DFF8CC91C9F800A089F801
:1039D0000440C9F80840A9F80C40C9F81040C9F8DB
:1039E0001440C9F81840C9F81C40C9F82040C9F86B
:1039F00008704A465A4942F8241BC9F824405460CA
:103A00009460D46014614FF04C0189F83810554A25
:103A1000C2F800A01471946094811461546194619F
:103A2000D461146297605049116082F82440D484B4
:103A300082F8284082F829404C49C1F800A00C7156
:103A40008C608C810C614C618C61CC610C628F60EC
:103A5000474A0A604C6281F8284081F8294081F881
:103A60002A4081F82B4081F82C40A1F82EB0414A21
:103A7000C2F800A01471946094811461546194613F
:103A8000D461146297603C4810600620908441F233
:103A9000883CC2F828C082F82C40146354639463B5
:103AA0009487D487A2F84040A2F84240A2F844404C
:103AB0004FF0FA0CA2F846C082F84840A2F84A40FB
:103AC000A2F84C004FF4FA60106500914246394666
:103AD0002A4808F081FC2A4BC3F800A01C719C60A6
:103AE0009C811C615C619C61DC611C629F60254A59
:103AF0001A60DFF8A480C8F800A088F80440C8F86D
:103B00000840A8F80C40C8F81040C8F81440C8F89D
:103B10001840C8F81C40C8F82040C8F808701A4B74
:103B2000C8F80030C8F8244038E000BFB0350020A5
:103B30003875002000BF0108F0750020A0BE010804
:103B40009C760020B8BE01089402002048BF0108FE
:103B500040BE0108F00200200C750020E8BE0108FC
:103B600058BE01085C03002070BE01085077002099
:103B7000D0BE0108C876002090BF01081C77002045
:103B80009075002030BF010818BF0108F0B001088F
:103B900050350020D074002088030020A8F8284069
:103BA000894B8A490B600B46894A43F80C2B4B60C2
:103BB0008C600C7301F11C0B28222146584616F02C
:103BC00041FBABF11C01CC61CBF80440CBF80840C1
:103BD000CBF80C40CBF81040CBF81440CBF8184091
:103BE000CBF81C40CBF82040CBF824402146584667
:103BF000FFF7C8F9ABF11C0101F1440B2822214663
:103C0000584616F01FFBABF144014C64CBF804405E
:103C1000CBF80840CBF80C40CBF81040CBF8144060
:103C2000CBF81840CBF81C40CBF82040CBF8244010
:103C300021465846FFF7A6F908F5405B654BCBF8DF
:103C4000C4300BF59C73CBF83031CBF834418BF892
:103C500038411833CBF84831CBF84C418BF8504100
:103C60001833CBF86031CBF864418BF86841CBF85E
:103C70007841CBF87C41CBF88041CBF88441564B5E
:103C8000CBF88831554B93E80300CBF88C01ABF8A7
:103C900090118BF89441ABF896410BF5D073CBF8AB
:103CA00098314F4A4FF00003511E0BF5CC70FEF7D0
:103CB0002BF8CBF8B041CBF8B441CBF8B8414FF07A
:103CC000FF328BF8BC218BF8BD414FF04C018BF8D3
:103CD000BE114EF66023CBF8C431CBF8C0914246FA
:103CE0003946404809F032FE3F4BC3F800A01C7132
:103CF0009C609C811C615C619C61DC611C629F60BA
:103D00003A4A1A6083F82440DC8483F82840012171
:103D100083F8291083F82A1083F82B4083F82C406D
:103D200083F82D1083F82E1083F82F40802183F81C
:103D3000301083F8314083F8324083F8334083F801
:103D4000344083F83540072283F836200C2283F86C
:103D5000372078221A87264A0692264A0592264A52
:103D60000492264A0392264A0292264A019200931E
:103D7000254B264A3946264808F0E6FA51E5244AFA
:103D8000244B1360244B1360174A184911601360C9
:103D9000144A224911601360214B224A1A6003F52C
:103DA0004053D3F8B041D3F8B45104E0A1680131D5
:103DB00015F0B4FC1834A54236D0234653F8080B4E
:103DC0009842F3D1F6E700BFBCB001084C340020A4
:103DD000D0BC010804BD01085CC0010824AC010886
:103DE00025B00108B47500202003002078BF010829
:103DF000907500201C770020507700200C75002063
:103E00009C760020F0020020F07500205C0300206A
:103E10008077002088BE0108F0B0010860BF01086B
:103E20008803002018BF0108784BD3F8B001D3F8FD
:103E3000B811091A08B115F071FC744BD3F8980148
:103E400003F5D073984206D0A3F5D073D3F8A01130
:103E5000013115F063FC6E48FFF726FC6D4B6E4A8E
:103E600013606E4A6E49116013606E4A6E491160AC
:103E700013606E4A6E49116013606E4A6E4911609C
:103E800013606E4A6E49116013606E4A6E4911608C
:103E900013606E4A6E49116013606E4A6E4911607C
:103EA00013606E4A6E49116013606E4A6E4911606C
:103EB00013606E4A6E49116013606E4A6E4911605C
:103EC00013606E4A6E49116013606E4C04F54053E6
:103ED0006D4AC3F88C2D6D4AC3F88C2D6C49C3F81C
:103EE0007C1BC3F87C2B6B4AC3F8682203F5356052
:103EF00014F0A5FC684813F027FA684813F024FA78
:103F0000674813F021FA04F56D5013F01DFA654867
:103F100013F01AFA644D75B1644C03E0E1680131A5
:103F200015F0FCFBA54206D01C3C606804F10C03B4
:103F30009842F3D1F6E75E4B5E4AC3F868225E4AC8
:103F4000C3F868225D4AC3F8EC215D4AC3F8EC214E
:103F500003F50C74D4F808C0CDF850C0E768159785
:103F60002669169665691795A0691090E169119107
:103F7000226A1292636A1393CDF870C01D971E9641
:103F80001F95189019911A921B9318AA1CA92046E4
:103F9000FEF795FF2046FEF782FF283CD4F808C0C4
:103FA000CDF830C0E7680D9726690E9665690F95C4
:103FB000A0690890E1690991226A0A92636A0B93E9
:103FC000CDF890C025972696279520902191229292
:103FD000239320AA24A92046FEF771FF2046FEF76E
:103FE0005EFFA4F11802134653F8080B984203D061
:103FF0009168013115F092FB2D4B324AC3F8EC2148
:1040000003F59670FFF750FB11E400BF88330020E2
:104010004C340020F0B00108880300209075002087
:1040200030BF01081C770020C0BF0108C8760020FF
:1040300090BF010850770020D0BE01085C0300202B
:1040400070BE0108D074002058BE01080C75002015
:10405000E8BE0108F0020020A8BF0108503500208A
:1040600040BE01089402002048BF01089C76002051
:10407000B8BE0108F0750020A0BE01083875002008
:1040800000BF0108B0350020E4BB010830B00108D2
:1040900020BC010808BA0108FC700020F87000205C
:1040A000F4700020EC70002080680020D0700020A8
:1040B000B065002094B001086CB0010838BD01085B
:1040C000D0BC0108BCB00108F0B5A1B00546074658
:1040D000574B47F8B43BD0F8B4407E6800E0483412
:1040E000A6421BD0206B04F13803984203D0A16B89
:1040F000013115F013FBA06904F12003984203D0AD
:10410000216A013115F00AFB234653F8080B984247
:10411000E5D0A168013115F001FBE0E7D5F8B40066
:10412000B968091A08B115F0F9FA05F16C04D5F867
:104130009C0005F1A403984204D0D5F8A4100131E5
:1041400015F0ECFAA06904F12003984203D0216A2B
:10415000013115F0E3FAE86E04F10803984203D048
:10416000A168013115F0DAFA2C46324B44F8443B91
:10417000D4F808E0CDF830E0D4F80CC0CDF834C065
:1041800027690E9766690F96A0690890E169099101
:10419000226A0A92636A0B93CDF850E0CDF854C0BE
:1041A00016971796109011911292139310AA14A9B2
:1041B0002046FEF784FE2046FEF771FE05F11C0442
:1041C000D5F824E0CDF810E0D5F828C0CDF814C01B
:1041D000EF6A06972E6B0796686B0090A96B0191AA
:1041E000EA6B02922B6C0393CDF870E0CDF874C0AB
:1041F0001E971F96189019911A921B9318AA1CA922
:104200002046FEF75CFE2046FEF749FE686805F191
:104210000C03984203D0E968013115F07FFA064B90
:104220002B60C021284615F079FA284621B0F0BD50
:1042300004BD0108D0BC0108BCB0010808B54FF6A8
:10424000FF710120FFF7E6FA08BD08B54FF6FF71D0
:104250000020FFF7DFFA08BD70B50646194B036072
:1042600000F6E80014F0EBFA06F6E40013F06CF840
:1042700006F50E6013F068F806F6DC0013F064F83B
:1042800006F6D80013F060F806F6D40013F05CF8D8
:1042900016F168050FD006F6B80403E0E1680131B5
:1042A00015F03CFAA54206D01C3C606804F10C03F2
:1042B0009842F3D1F6E7044B3360044B3360304649
:1042C00070BD00BF08BA010894B001086CB00108C5
:1042D00070B506461B4B036000F6E80014F0AFFA19
:1042E00006F6E40013F030F806F50E6013F02CF833
:1042F00006F6DC0013F028F806F6D80013F024F8D0
:1043000006F6D40013F020F816F168050FD006F673
:10431000B80403E0E168013115F000FAA54206D0C7
:104320001C3C606804F10C039842F3D1F6E7064B9D
:104330003360064B336040F61411304615F0EEF949
:10434000304670BD08BA010894B001086CB001088D
:104350000378154A526B934205D8134A526B934225
:1043600011D300207047104A526B9B1A082B05D9B5
:104370000D4A536B08335363012070470A4A536B4D
:1043800001335363F8E7084A526BD31A082B05D957
:10439000054A536B083B536301207047024A536B35
:1043A000013B5363F8E700BF0004004070B582B0E2
:1043B0000446F9B1C4F8C018261DD4F8C018304618
:1043C00014F022FE304614F00DFF85B20D49304640
:1043D00014F09CFE811C2A4689B201A812F080FFCD
:1043E00001A904F6D80012F098FF01A812F0ACFF62
:1043F00002B070BDD0F81039C0F8C038002380F882
:104400006430D9E700B1010808B5054B00225A63B2
:10441000FF2380F8EC38B0F8C40813F007FA08BDA1
:10442000000400402DE9F04F85B00291012A7CD8AC
:1044300004461F467CD0B0F8EE58D4F8D838002B8C
:1044400079D01E8806F1140A1FFA8AFAD4F8D438F3
:10445000002B72D05B88DBB2039306F117081FFABA
:1044600088F8B4F8C63803222946404613F0C3FB47
:10447000BDF80C90B4F8C6384A462946504613F0A9
:1044800088FA06F11A00B4F8C6384A46294680B2BE
:1044900013F07FFA05EB090A1FFA8AFA0AF1050BF5
:1044A0001FFA8BFBB4F8C63808225946404613F071
:1044B000A2FB002F43D0B4F8C83807225946404623
:1044C00013F0EAFB06F1110005F10901B4F8C63852
:1044D000009303231A4689B280B213F06DF91536A2
:1044E000B6B2B4F8C43800934B460522294630468C
:1044F00013F062F90A226FF0630102980CF020FABF
:10450000034600B2002820DD9BB2E91A89B20A31C5
:1045100089B24B449BB20A3B9BB29FB1B4F8C82806
:1045200000920522304613F047F905B0BDE8F08F40
:10453000B0F8FE5881E7002684E700238BE7B4F843
:10454000C438BAE7B4F8C428EAE7039B0A3B0093EF
:10455000012300226FF063010CF0C0F9C3B2AAEB93
:10456000030189B23FB1B4F8C82800920522304651
:1045700013F022F9D9E7B4F8C428F6E7012A75D870
:104580002DE9F04186B0054617461E46B1F57A7F03
:1045900001D340F2E7310A46354904A815F0A4FFDB
:1045A0002C1DD5F80819204614F02EFD02212046B6
:1045B00014F03BFD05F6D40012F0D7FED5F8D43840
:1045C000591D002B37D01A88002302930193012331
:1045D000009304AB204614F0A9FD13F021F8044623
:1045E000D5F8D4384BB31888241AA4B2143CA4B21A
:1045F00013F016F8804613F019F880451FD8012FE4
:104600002BD0B5F8EE18B5F8C478B6F5803F27D3AF
:10461000B5F8C668D5F8D40820B3028820B343881B
:1046200005300396029701920090204613F09AFC01
:1046300006B0BDE8F0810022C6E70020D4E712F002
:10464000EFFFD5F8D43833B11C88041BC4F34F04F2
:104650003234A4B2D3E70024F7E7B5F8FE18D2E766
:10466000B6B2D7E70022D9E70023D9E7704700BFE9
:1046700004B101082DE9F04182B005460C461E4602
:104680001346E2B12827E3B14FF05A0842463946B3
:1046900020460CF055F90023009355234246394635
:1046A00080B20CF01BF9C0B213F020F8034632467A
:1046B00021462846FFF762FF02B0BDE8F08150278F
:1046C000E1E74FF0B408E1E7012B00D970472DE98D
:1046D000F04F85B004460F4616461D4600F104090A
:1046E000D0F8C018484614F08FFC484614F07AFD04
:1046F0001FFA80F83968484614F008FD8246012DFB
:104700002CD10021B4F8C43800934346B4F8F828FB
:10471000002013F051F8B4F8F808504524D9A0EB64
:104720000A00C0F34F0B012D21D14246B4F8C63820
:1047300000933B685946484614F0CCFCDEB112F0B9
:104740006FFFA0F11402B4F8C63892B2B4F802199F
:104750000A2013F015F905B0BDE8F08F12F066FFDE
:10476000A0EB080189B2CDE74FF0000BDBE712F0B8
:104770005DFF0246DAE70BEB0A0080B20A30A8F1CF
:104780000E01B4F8C438B4F8C6280392029310227C
:104790000192044B00930E2389B280B213F0E2FB26
:1047A000CDE700BFF0B101082DE9F04188B0044623
:1047B0000D461746642900D964252D2104F16400B3
:1047C0000AF03EFD804625232A462B4906A815F00F
:1047D0008BFE261DD4F8C018304614F015FC304668
:1047E00014F000FD85B22A46B4F8FA1805A812F0B4
:1047F00077FD059B591D002B32D01A8801230293A7
:104800000023019300934346304614F08FFC059B30
:10481000591D3BB31A88002302930193022300938E
:1048200006AB304614F082FCF7B1B4F8C86812F059
:10483000FDFE411B89B2B4F8C4480598B8B102889E
:10484000B8B143880530039602940192009000208D
:1048500013F088FB05A812F077FD08B0BDE8F081E1
:104860000022CBE70022D6E7B4F8C668DFE70022D3
:10487000E6E70023E6E700BF08B101082DE9F047AD
:1048800088B004460D461646071DD0F8C0183846B5
:1048900014F0BAFB384614F0A5FC05F109039BB2ED
:1048A0006C2B61D81FFA80F84323ADF8143016B989
:1048B00046238DF814302A46354906A815F014FE13
:1048C00012F0AEFE054605A9384614F01FFC2D1A5D
:1048D000ADB2A5F11E091FFA89F906A9384614F0F0
:1048E00015FCA9EB0006B6B2083EB6B212F09EFE69
:1048F000A0EB08001FFA80FA12F092FE0246B4F80C
:10490000C438009343465146304612F055FF12F02A
:104910008DFE0246B4F8C638009305AB49463846CA
:1049200014F0D8FB263DADB212F080FEA0EB0801DA
:1049300089B20431B4F8C438B4F8C628039202939B
:1049400008220192134B0093052389B2284613F0E5
:1049500009FB12F06BFE0246B4F8C638009306ABB2
:104960003146384614F0B6FB12F05AFEA0F1140599
:10497000ADB212F05BFEB4F80419411AB4F8C638AF
:104980002A4689B20A2012F0FBFF08B0BDE8F08782
:1049900010B1010868B80108012A42D8F0B585B005
:1049A000044608461546642900D96420D4F8E03846
:1049B00063B35A88D2B203210BF0A1FF012D27D097
:1049C000B4F8EE58002281B204F50E6012F0C8FD72
:1049D00012F026FED4F8E038EBB11B88C01A80B282
:1049E000053880B2B4F8C468B4F8C678D4F8E018D2
:1049F00099B10A8899B14B880531039702960192C3
:104A00000091294613F0AEFA05B0F0BD0022D1E7BF
:104A1000B4F8FE58D6E70023E0E70022EAE70023D7
:104A2000EAE7704730B585B004460846164D0022C7
:104A300029460BF085FF002200925523294600B23B
:104A40000BF04CFFC0B212F051FE94F8D038013395
:104A5000DBB284F8D03803F0030384F8D03803EBDA
:104A6000C3030A4A02EB4313B4F8C428039002922A
:104A70003022019200931346B4F8F218B4F8F0080B
:104A800013F070FA05B030BD18FCFFFF0CB201083E
:104A900000B585B090F8D03803EBC3030A4A02EBA7
:104AA0004313B0F8C42845F2AA21039102923022A0
:104AB000019200931346B0F8F218B0F8F00813F022
:104AC00051FA05B05DF804FB0CB20108012A26D8A2
:104AD00000B585B00346B0F8F408B3F8F6C81AB9C3
:104AE000B3F8F008B3F8F2C881B1B3F8C428B3F84A
:104AF000C6380393029230220192094B0093134669
:104B0000614613F02FFA05B05DF804FBB3F8C43822
:104B1000009330231A46614612F04EFEF3E77047C9
:104B200070B801082DE9F04182B005468846071D9E
:104B3000D0F8C018384614F067FA384614F052FB23
:104B4000C4B24146384614F0E9FAC6B212F068FD24
:104B5000801B00EBD070A4B2B5F8C6380093434672
:104B60002246C0F34F01384614F0C2FA12F058FD45
:104B7000831B03EBD3734FEA630CACF10A0CB5F85B
:104B8000C63806F11402E11C1FFA8CF012F0F8FE90
:104B900002B0BDE8F08110B5044664300AF050FB65
:104BA00001462046FFF7BEFF10BDF0B585B01E469A
:104BB0009DF82830012B13D80C46154612D0B0F8BA
:104BC000EE781E3FBFB212F02BFD283803960295F7
:104BD0001C22019200941346394680B213F0C2F9A8
:104BE00005B0F0BD0027EEE700B583B0B0F8C428EB
:104BF000009145F2AA230349FFF7D7FF03B05DF800
:104C000004FB00BF6CB7010800B583B0B0F8C4283E
:104C100000914FF6FF730349FFF7C7FF03B05DF83C
:104C200004FB00BF6CB7010800B583B0B0F8C4281E
:104C300000914FF4FC630349FFF7B7FF03B05DF841
:104C400004FB00BF8CB6010800B583B0B0F8C428DF
:104C500000914FF4FC630349FFF7A7FF03B05DF831
:104C600004FB00BFDCB7010800B583B0B0F8C4286E
:104C700000914FF4FC630349FFF797FF03B05DF821
:104C800004FB00BF90B9010800B583B0B0F8C42898
:104C900000911F230249FFF788FF03B05DF804FB72
:104CA00090B9010800B583B0B0F8C42800914FF462
:104CB00078430349FFF779FF03B05DF804FB00BFB9
:104CC000FCB6010870B584B004460A462A492B4850
:104CD00015F00AFC251DD4F8C018284614F094F9E4
:104CE00004F6D80012F041FBD4F8D838591D4BB364
:104CF0001A880023029301930093204B284614F056
:104D000015FA12F08DFC283880B2B4F8C458B4F803
:104D1000C668D4F8D818B9B10A88B9B14B8805313A
:104D20000396029501920091002113F01BF9D4F82B
:104D3000D8386BB15D88C5F11C056DB2002D09DC5A
:104D400004B070BD0022D4E70022E6E70023E6E7C6
:104D50000025F0E712F064FC283880B2D4F8D83887
:104D600043B15988B4F8C4380093ABB2282212F08A
:104D700023FDE5E70021F5E710B10108D877002011
:104D800030B583B004460D4610460A226FF031015B
:104D90000BF0D6FD00B2002812DB00210091552354
:104DA0000A220BF09BFDC0B212F0A0FC0346009556
:104DB000B4F8C42807492046FFF7F7FE03B030BD1A
:104DC00055230093AA2300226FF031010BF086FDDA
:104DD000C0B2E9E76CB701082DE9F04F91B0074682
:104DE000069105920C939DF868300D93051DD0F83F
:104DF000C018284614F008F9284614F0F3F95FFAB1
:104E000080F808F10A085FFA88F4A04604F10C0360
:104E10001E46089312F00AFC801B90FBF4F4E3B2E8
:104E20000B9312F0FDFB044612F000FCA04225D2C9
:104E3000322412F0F5FBA3B20793A0EB4404A4B212
:104E4000284614F0CFF982B221460FA812F048FA92
:104E500007F164030993069918460AF009FA824695
:104E60000B9B83420CD29B460C9B93B11B789BB14E
:104E70000B9B9B4506D0012304930FE01424D8E735
:104E80008346F1E70BF1FF3B5FFA8BFB01230493B1
:104E900004E00023049301E000230493CBF34709CB
:104EA000059BA3EB09095FFA89F909F101094FFA9A
:104EB00089F9BAF1010F01D9994505D0B9F1000F6F
:104EC00007DB00250A9523E003F1FF394FFA89F942
:104ED000F4E7D1444FFA89F9F3E7002234E0B7F858
:104EE000C468B7F8C6C8059B9C4243D00F980028F9
:104EF00048D00288002847D043880530CDF80CC040
:104F0000029601920090079813F02CF80135EDB24B
:104F1000AB453BD955FA89F4E4B2A24502D8A4EBDB
:104F20000A04E4B2069BE118C9B20131C9B209987A
:104F30000AF086F906460FA812F017FA381D0F9BE3
:104F4000591D002BC9D01A88012302930A2301930B
:104F500000230093334614F0E9F8089B05FB083161
:104F600089B2049B002BBAD00A9B002BB7D04144D6
:104F700089B2B4E708EB01039BB20A933346664655
:104F80009C46B3E70022B5E70023B6E7049BDBB9F4
:104F9000049B9BB90B9B9B4510D21BFB08F1089B04
:104FA00013FA81F189B20F9B002B50D01A88B7F801
:104FB000C43800934346079812F0FEFB0FA812F086
:104FC000C3F911B0BDE8F08F0FA812F0CEF9381D6B
:104FD0000F9B591DF3B11A880123029300230193FB
:104FE000022300930C9B14F0A1F80D9BC3B9B7F8F2
:104FF000C408B7F8C6480F9971B10A8871B14B88D7
:10500000053103940290019200910A99079812F0D9
:10501000A9FFBDE70022DFE70022EFE70023EFE76B
:10502000B7F8C4080F9971B10A8871B14B8805317E
:105030004FF4784403940290019200910A990798E2
:1050400012F090FFA4E70022EFE70023EFE7002231
:10505000ADE700002DE9F04F8DB04C680B68E41A05
:10506000E410584B03FB04F4A5B20792954202D218
:105070000DB0BDE8F08F07468B4600F10408D0F86C
:10508000C018404613F0C0FF404614F0ABF8C0B261
:105090000A30C1B204910C31059112F0C1FA0646F2
:1050A000404614F09FF8A6F1640182B289B20BA8C1
:1050B00012F016F9079B4FFA83FAED1AADB2052DDF
:1050C00003D8A4F1060A4FFA8AFABAF1000F0DDBF1
:1050D000A3B20693A3EB0A03062BA8BF0623DBB2F9
:1050E00009930024CDF820B09B4618E04FF0000A49
:1050F000EEE7002233E00B99002946D00A88002908
:1051000045D04B880531CDF80C90CDF80880019240
:1051100000913146322012F025FF0134E4B25C45A3
:1051200037D254FA8AF5EDB20BA812F01EF9059B9E
:10513000049A04FB0236B6B2B7F8C488B7F8C6982A
:10514000069B9D42D7DC381D089B1B6805EB45027A
:1051500053F832300B9A511D002ACAD012884FF0F2
:10516000010CCDF808C04FF00A0CCDF804C04FF088
:10517000000CCDF800C013F0D9FF079B9D42BAD1B7
:10518000B7F8C688B7F8C498B5E70022B7E7002398
:10519000B8E7099B052B0ED8059A049903FB01215A
:1051A00089B20B9B5BB11A88B7F8C4380093049B93
:1051B000322012F001FB0BA812F0C6F858E70022CB
:1051C000F2E700BFABAAAAAA2DE9F04F91B00446BE
:1051D000069117461E4600F10408D0F8C018404654
:1051E00013F012FF404613F0FDFFC5B20535EDB2D6
:1051F00094F8EC38B34240F0AD80B7F5805F01D34E
:1052000040F6FF7712F012FAAEB2451BADB212F0C3
:1052100007FA8146A0F1400A1FFA8AFAB7F5006F33
:1052200000F264812823009300234FF400621946A2
:1052300038460BF053FB1FFA80FBCDF800A0282363
:1052400040F6FF7240F601014FF461600BF046FB3F
:10525000C7B22037FFB2AE1BB6B2A6F10F01A9F15B
:105260003602B4F8C6380193052300930A2392B29C
:1052700089B21B2012F097FBA6F10A091FFA89F9DF
:10528000B4F8C8380A2249461C2012F005FDB4F8CB
:10529000C6380A2249461C2012F0ADFCA6F10E09C0
:1052A0001FFA89F9B4F8C838009308235A464946CA
:1052B000202012F081FA0AF1FF339B45C0F22381CE
:1052C0001FFA87F9781E711FB4F8C63800930623B9
:1052D000032289B280B212F06FFA069A91490EA8A1
:1052E00015F002F94323ADF834300EA9404613F00F
:1052F0000DFF8246C0F34F07A9EB07091FFA89F794
:10530000B4F8C63800930EAB2A463946404613F02F
:10531000E1FE5744BFB2B81D0436B4F8C438B4F83F
:10532000C62803920293082201927F4B0093052323
:10533000B1B280B212F016FE07F10E01B4F8C63811
:1053400000930DAB2A4689B2404613F0C3FE11B05C
:10535000BDE8F08F84F8EC68ABB2079305F13C0927
:1053600012F05EF91438009000236422194630468A
:105370000BF0B4FA82B2089228230093002364222F
:10538000194630460BF0AAFAC2B2099212F048F957
:10539000A0F10A0A1FFA8AFA12F042F90A3880B21A
:1053A000079B03F1140BB4F8C4380293CDF804B092
:1053B00000904B46524649460A2012F0F4FC12F087
:1053C0002FF9A0F10A0A1FFA8AFA12F029F90A380D
:1053D00080B2B4F8C6380293CDF804B000904B46C2
:1053E000524649460A2012F0BDFC002E59D1002E2B
:1053F00069D02E2104F1640009F022FF8346FAF7F8
:1054000049FF5FFA80FABAF1040F01D94FF0040A9C
:10541000524659460AA815F0A3F8252332464349B7
:105420000AA8504415F060F804F6D40011F09DFF6E
:10543000201DD4F8D438591D002B4ED01A880023D3
:1054400002930193012300930AAB13F06FFE12F055
:10545000E7F8D4F8D438002B41D01A88801A00EB32
:10546000D070C0F34F00079949440A31B4F8C4988A
:10547000B4F8C6A8D4F8D4689EB3738806F1050CB6
:105480008EB3B6F800E0CDF814A0CDF81090002649
:1054900003960296CDF804E0CDF800C012F0D0FDDE
:1054A000ABE6089A0A3292B2099BA9EB030080B2DC
:1054B000B4F8C6380293019000924B4649460A2040
:1054C00012F071FC93E72C2104F1640009F0B8FE9E
:1054D00001460AA815F008F8A6E70022AFE7002267
:1054E000BCE70023CAE74FF0000ECCE7CDF800A0E0
:1054F000282340F6FF7240F6010138460BF0EEF922
:105500001FFA80FB99E60BF12000AAEB0B02B4F81E
:10551000C4380093082392B2494680B212F04CF985
:10552000CEE600BF1CB1010868B8010814B101083B
:105530002DE9F04184B00546041DD0F8C01820467E
:1055400013F062FD204613F04DFEC4B20534E4B200
:105550001E3412F06BF8041BA4B2631F9EB213F04A
:10556000010F01D1063CA6B212F05AF80446D5F854
:10557000D8387BB11888241AA4B2363CA4B221468C
:1055800005F1540002F0FCFA074628B9384604B089
:10559000BDE8F0810020EEE7D5F8E83813B11B88AC
:1055A000002BF3D105F6E80802233246214603A872
:1055B00013F001F903A9404613F02AF903A813F0E8
:1055C0003EF9B5F8C438ADF80430B5F8C638ADF8D2
:1055D0000630B5F8C838ADF80830B5F8CA38ADF8B7
:1055E0000A3004220DEB0201404613F0ACF9CDE77E
:1055F0002DE9F04F89B0044605910692079300F11A
:105600000408D0F8C018404613F0FEFC404613F0E2
:10561000E9FDC5B20535EDB205F11E0912F006F837
:10562000A0EB090080B2431F9EB213F0010F01D11D
:10563000063886B27608D4F8D838002B00F0B0804F
:105640001F8807F1130B1FFA8BFB07F1050A1FFADE
:105650008AFA59FA86F611F0E3FFA0F14602B4F88F
:10566000C63892B23146504612F08AF911F0D8FF8E
:10567000D4F8D838002B00F095801B88184480B2ED
:105680004138B11EB4F8C438B4F8C6280392029366
:105690004FF0080ACDF804A0464B0093052352466C
:1056A00089B280B212F05EFC11F0BAFFA0F11401D1
:1056B000721FB4F8C63800933F4B92B289B240468D
:1056C00013F008FD11F0B2FFA0F10C02B4F8C638D7
:1056D00092B20A21584612F05CF907F11100B4F8B1
:1056E000C438B4F8C62803920293CDF804A0334B13
:1056F000009353460522114680B212F033FC0F3757
:10570000BFB2B4F8C83809224946384612F038F911
:10571000B4F8CA38092205EB0901384612F030F90D
:10572000D4F8D838002B3FD019880F39B4F8C838CE
:105730000093069B2A4689B2404613F0CBFCD4F86E
:10574000D8389BB319881E31B4F8CA380093079B28
:105750002A4689B2404613F0BDFCD4F8D8383BB392
:105760001E880644B6B21E36B6B2DDF8149049461D
:10577000404613F0CBFC074611F052FF811BC91BBA
:1057800001EBD17106EB6101B4F8C63800934B46CA
:105790002A4689B2404613F09DFC09B0BDE8F08F5F
:1057A00000274EE7002369E70021BEE70021CAE792
:1057B0000026D6E758B801086CBC010860B801089B
:1057C0002DE9F04F8BB00446022948D904F10408B2
:1057D000D4F8C018404613F017FC404613F002FD01
:1057E0005FFA80F903A9404613F090FC064611F0D9
:1057F00017FF851BC5F34F0511F018FF00EB4000A4
:105800000746002832DBC7F38F0704F1040B584624
:1058100013F0E8FC0FFA80FA584613F0EBFC0AFA92
:1058200080F1A5F10A00C9B2791A89B20A3906F1E4
:105830001402B4F8C438009309F1140392B289B287
:1058400080B211F0B9FFB4F8C638009303AB3A4602
:105850002946404613F03EFC0BB0BDE8F08F044BE8
:1058600053F8211003A814F03FFEAFE7C71CCAE7A6
:105870004CB801082DE9F04788B0064689469046A5
:10588000051DD0F8C018284613F0BEFB392130465C
:10589000FFF781F9284613F0A5FCC7B20537FFB220
:1058A00007F10C0A11F0BCFE0446284613F09AFCDE
:1058B000A4F1640182B289B204A811F011FD0024A0
:1058C00013E0002224E06346844618462EE00022BE
:1058D00033E000230535CDF80CC00290019200950D
:1058E000322012F03FFB0134E4B2022C29D839F8FF
:1058F0001420174B53F8241005A814F0F5FD04A844
:1059000011F033FD301D049B591D002BD9D01A888E
:105910000023029305250195009305AB13F006FCC7
:10592000B6F8C6C8B6F8C4084445CCD004FB07A1F5
:1059300089B2049D002DCAD02A88002DC9D06B8859
:10594000C8E704A811F000FD08B0BDE8F08700BF6B
:105950004CB8010870B582B004460D46061DD0F85B
:10596000C018304613F050FB11F060FEA0F1320277
:10597000B4F8CC3800932B4692B26421304613F031
:10598000A9FB02B070BD10B50446D0F8E8380BB1E1
:105990001B8823B904F1540002F021F910BD00F670
:1059A000E80012F04CFFF5E72DE9F04F87B0834691
:1059B0000C46039200F164063821304609F040FCA1
:1059C0000546BBF8C40811F031FF2146304609F006
:1059D00037FC03783BBB0BF10404DBF8C01820460E
:1059E00013F012FB0321204613F01FFB294620462B
:1059F00013F094FB064611F013FE861BC6F34F0608
:105A000011F014FEBBF8C63800932B46C0F34F02CA
:105A10003146204613F06CFB0121204613F005FBB4
:105A200007B0BDE8F08F04460BF104031E46DBF817
:105A3000C018184613F0E8FA304613F0D3FB83B2CF
:105A400005339BB204932046FAF724FCC5B2681CC8
:105A500014F0B0FB07460028E2D0214614F064FDA4
:105A60004FF000084FF00109CDF814B0B34613E031
:105A7000049B19FB03F2039B13FA82F2059BB3F814
:105A8000C6380093434692B20021584613F030FBCB
:105A900035E002365FFA86F8A8453CD208F10104E9
:105AA000E4B226460134E4B2A54202D93B5D0A2B9A
:105AB000F7D1A54201D900233B55B8444146584689
:105AC00013F02CFB5FFA80FA11F0AAFD8245CFDAC1
:105AD00011F0A6FDA0EB0A0A0AEBDA7A049B19FB87
