:020000040800F2
:10000000000001203524010845AA000847AA00087D
:1000100049AA00084BAA00084DAA000800000000E9
:100020000000000000000000000000004FAA0008CF
:1000300051AA00080000000053AA000855AA0008B1
:1000400085240108852401088524010885240108E8
:100050008524010885240108B92B0008DD2B000840
:1000600085240108852401088524010885240108C8
:1000700085240108852401088524010885240108B8
:10008000852401088524010885240108000000005A
:1000900000000000000000000000000085240108AE
:1000A0008524010885240108852401085DAA00082B
:1000B0006DAA00088524010885240108852401080B
:1000C0008524010885240108852401088524010868
:1000D000852401088524010885240108000000000A
:1000E00085240108852401088524010800000000FA
:1000F000000000000000000000000000852401084E
:1001000000000000852401088524010885240108D9
:1001100000000000000000000000000000000000DF
:100120007DAA000885240108852401088DAA0008FD
:10013000852401080000000000000000000000000D
:1001400000000000000000000000000085240108FD
:1001500085240108852401088524010885240108D7
:10016000852401088524010800000000000000002B
:10017000000000000000000000000000000000007F
:1001800000000000852401080000000000000000BD
:0401900085240108B9
:1001A00010B5054C237833B9044B13B10448AFF3B1
:1001B00000800123237010BD6802002000000000B1
:1001C000F031010808B5034B1BB103490348AFF3F5
:1001D000008008BD000000006C020020F031010822
:1001E00081F0004102E000BF83F0004330B54FEAE8
:1001F00041044FEA430594EA050F08BF90EA020F55
:100200001FBF54EA000C55EA020C7FEA645C7FEAE7
:10021000655C00F0E2804FEA5454D4EB5555B8BF0A
:100220006D420CDD2C4480EA020281EA030382EA7B
:10023000000083EA010180EA020281EA0303362D0D
:1002400088BF30BD11F0004F4FEA01314FF4801CE0
:100250004CEA113102D0404261EB410113F0004FF2
:100260004FEA03334CEA133302D0524263EB4303A9
:1002700094EA050F00F0A780A4F10104D5F1200E47
:100280000DDB02FA0EFC22FA05F2801841F10001A2
:1002900003FA0EF2801843FA05F359410EE0A5F176
:1002A00020050EF1200E012A03FA0EFC28BF4CF0A7
:1002B000020C43FA05F3C01851EBE37101F000455D
:1002C00007D54FF0000EDCF1000C7EEB00006EEB6A
:1002D0000101B1F5801F1BD3B1F5001F0CD34908F4
:1002E0005FEA30004FEA3C0C04F101044FEA44524B
:1002F00012F5800F80F09A80BCF1004F08BF5FEAD2
:10030000500C50F1000041EB045141EA050130BDB1
:100310005FEA4C0C404141EB010111F4801FA4F154
:100320000104E9D191F0000F04BF01460020B1FAA9
:1003300081F308BF2033A3F10B03B3F120020CDAE1
:100340000C3208DD02F1140CC2F10C0201FA0CF0BF
:1003500021FA02F10CE002F11402D8BFC2F1200C24
:1003600001FA02F120FA0CFCDCBF41EA0C019040DA
:10037000E41AA2BF01EB0451294330BD6FEA040423
:100380001F3C1CDA0C340EDC04F11404C4F120020E
:1003900020FA04F001FA02F340EA030021FA04F320
:1003A00045EA030130BDC4F10C04C4F1200220FA77
:1003B00002F001FA04F340EA0300294630BD21FAB5
:1003C00004F0294630BD94F0000F83F4801306BF7B
:1003D00081F480110134013D4EE77FEA645C18BF6F
:1003E0007FEA655C29D094EA050F08BF90EA020F06
:1003F00005D054EA000C04BF1946104630BD91EAFE
:10040000030F1EBF0021002030BD5FEA545C05D100
:100410004000494128BF41F0004130BD14F580043F
:100420003CBF01F5801130BD01F0004545F0FE41B3
:1004300041F470014FF0000030BD7FEA645C1ABFE8
:10044000194610467FEA655C1CBF0B46024650EA1F
:10045000013406BF52EA033591EA030F41F400214B
:1004600030BD00BF90F0000F04BF0021704730B5D1
:100470004FF4806404F132044FF000054FF00001A6
:1004800050E700BF90F0000F04BF0021704730B567
:100490004FF4806404F1320410F0004548BF40423C
:1004A0004FF000013EE700BF42004FEAE2014FEA91
:1004B00031014FEA02701FBF12F07F4393F07F4F6C
:1004C00081F06051704732F07F4208BF704793F06F
:1004D0007F4F04BF41F40021704730B54FF4607482
:1004E00001F0004521F000411CE700BF50EA010285
:1004F00008BF704730B54FF000050AE050EA01022E
:1005000008BF704730B511F0004502D5404261EB9D
:1005100041014FF4806404F132045FEA915C3FF4DE
:10052000D8AE4FF003025FEADC0C18BF03325FEA7B
:10053000DC0C18BF033202EBDC02C2F1200300FA2C
:1005400003FC20FA02F001FA03FE40EA0E0021FA51
:1005500002F11444BDE600BF70B54FF0FF0C4CF43F
:10056000E06C1CEA11541DBF1CEA135594EA0C0FF1
:1005700095EA0C0F00F0DEF82C4481EA030621EA2C
:100580004C5123EA4C5350EA013518BF52EA033567
:1005900041F4801143F4801338D0A0FB02CE4FF019
:1005A0000005E1FB02E506F00042E0FB03E54FF049
:1005B0000006E1FB03569CF0000F18BF4EF0010E41
:1005C000A4F1FF04B6F5007F64F5407404D25FEA3D
:1005D0004E0E6D4146EB060642EAC62141EA5551F0
:1005E0004FEAC52040EA5E504FEACE2EB4F1FD0C32
:1005F00088BFBCF5E06F1ED8BEF1004F08BF5FEAB0
:10060000500E50F1000041EB045170BD06F0004661
:1006100046EA010140EA020081EA0301B4EB5C040E
:10062000C2BFD4EB0C0541EA045170BD41F4801106
:100630004FF0000E013C00F3AB8014F1360FDEBF2B
:10064000002001F0004170BDC4F10004203C35DA07
:100650000C341BDC04F11404C4F1200500FA05F38A
:1006600020FA04F001FA05F240EA020001F000422B
:1006700021F0004110EBD37021FA04F642EB0601A1
:100680005EEA430E08BF20EAD37070BDC4F10C04CB
:10069000C4F1200500FA04F320FA05F001FA04F28F
:1006A00040EA020001F0004110EBD37041F100017B
:1006B0005EEA430E08BF20EAD37070BDC4F1200586
:1006C00000FA05F24EEA020E20FA04F301FA05F2EE
:1006D00043EA020321FA04F001F0004121FA04F296
:1006E00020EA020000EBD3705EEA430E08BF20EA66
:1006F000D37070BD94F0000F0FD101F000464000A0
:1007000041EB010111F4801F08BF013CF7D041EA21
:10071000060195F0000F18BF704703F00046520025
:1007200043EB030313F4801F08BF013DF7D043EAF6
:100730000603704794EA0C0F0CEA135518BF95EAAC
:100740000C0F0CD050EA410618BF52EA4306D1D133
:1007500081EA030101F000414FF0000070BD50EA52
:10076000410606BF1046194652EA430619D094EADC
:100770000C0F02D150EA013613D195EA0C0F05D1C6
:1007800052EA03361CBF104619460AD181EA03011A
:1007900001F0004141F0FE4141F470014FF00000D2
:1007A00070BD41F0FE4141F4780170BD70B54FF06D
:1007B000FF0C4CF4E06C1CEA11541DBF1CEA1355ED
:1007C00094EA0C0F95EA0C0F00F0A7F8A4EB0504CF
:1007D00081EA030E52EA03354FEA013100F08880C6
:1007E0004FEA03334FF0805545EA131343EA12638F
:1007F0004FEA022245EA111545EA10654FEA002644
:100800000EF000419D4208BF964244F1FD0404F5FC
:10081000407402D25B084FEA3202B61A65EB030558
:100820005B084FEA32024FF480104FF4002CB6EB15
:10083000020E75EB030E22BFB61A754640EA0C0095
:100840005B084FEA3202B6EB020E75EB030E22BFD5
:10085000B61A754640EA5C005B084FEA3202B6EB16
:10086000020E75EB030E22BFB61A754640EA9C00D5
:100870005B084FEA3202B6EB020E75EB030E22BFA5
:10088000B61A754640EADC0055EA060E18D04FEA63
:10089000051545EA16754FEA06164FEAC30343EA03
:1008A00052734FEAC2025FEA1C1CC0D111F4801FD0
:1008B0000BD141EA00014FF000004FF0004CB6E7C9
:1008C00011F4801F04BF01430020B4F1FD0C88BF68
:1008D000BCF5E06F3FF6AFAEB5EB030C04BFB6EB73
:1008E000020C5FEA500C50F1000041EB045170BD66
:1008F0000EF0004E4EEA113114EB5C04C2BFD4EB93
:100900000C0541EA045170BD41F480114FF0000E16
:10091000013C90E645EA060E8DE60CEA135594EA92
:100920000C0F08BF95EA0C0F3FF43BAF94EA0C0F95
:100930000AD150EA01347FF434AF95EA0C0F7FF40A
:1009400025AF104619462CE795EA0C0F06D152EA5E
:1009500003353FF4FDAE1046194622E750EA410642
:1009600018BF52EA43067FF4C5AE50EA41047FF453
:100970000DAF52EA43057FF4EBAE12E74A0011D205
:1009800012F5001211D20DD56FF47873B3EB6252E9
:100990000ED44FEAC12343F0004343EA505323FAF5
:1009A00002F070474FF00000704750EA013002D16A
:1009B0004FF0FF3070474FF0000070474FEA4102A0
:1009C000B2F1E04324BFB3F5001CDCF1FE5C0DD9AD
:1009D00001F0004C4FEAC0024CEA5070B2F1004FF7
:1009E00040EB830008BF20F00100704711F0804FFA
:1009F00021D113F13872BCBF01F00040704741F4BF
:100A000080114FEA5252C2F11802C2F1200C10FAC2
:100A10000CF320FA02F018BF40F001004FEAC123A6
:100A20004FEAD32303FA0CFC40EA0C0023FA02F34A
:100A30004FEA4303CCE77FEA625307D150EA013320
:100A40001EBF4FF0FE4040F44000704701F00040F0
:100A500040F0FE4040F40000704700BF53B94AB96F
:100A6000002908BF00281CBF4FF0FF314FF0FF30B6
:100A700000F072B9ADF1080C6DE904CE00F006F893
:100A8000DDF804E0DDE9022304B070472DE9F0470A
:100A9000089E04468846002B4BD18A42154667D9EA
:100AA000B2FA82F24AB1C2F1200701FA02F320FA47
:100AB00007F7954047EA030894404FEA154E230C88
:100AC000B8FBFEF71FFA85FC0EFB178843EA0843C4
:100AD00007FB0CF1994209D9EB1807F1FF3080F0C0
:100AE0001B81994240F21881023F2B445B1AA4B249
:100AF000B3FBFEF00EFB103344EA034400FB0CFC96
:100B0000A44509D92C1900F1FF3380F00781A445D1
:100B100040F2048102382C4440EA0740A4EB0C0464
:100B200000271EB1D4400023C6E900433946BDE882
:100B3000F0878B4209D9002E00F0EB800027C6E930
:100B4000000138463946BDE8F087B3FA83F7002F35
:100B500047D18B4202D3824200F2FA80841A61EBC1
:100B6000030301209846002EE0D0C6E90048DDE7E7
:100B700002B9FFDEB2FA82F2002A40F08F80491BF0
:100B80004FEA154E1FFA85F80127B1FBFEFC230C36
:100B90000EFB1C1143EA014308FB0CF1994207D9F3
:100BA000EB180CF1FF3002D2994200F2CD8084465E
:100BB000591AA3B2B1FBFEF00EFB101443EA044431
:100BC00008FB00F8A04507D92C1900F1FF3302D229
:100BD000A04500F2B6801846A4EB080440EA0C4099
:100BE0009FE7C7F1200CBB4022FA0CFE4EEA030E31
:100BF00001FA07F420FA0CF521FA0CF34FEA1E482B
:100C00002543B3FBF8F92C0C08FB19331FFA8EFAB5
:100C100044EA034309FB0AF49C4202FA07F200FA91
:100C200007F10BD91EEB030309F1FF3080F0878039
:100C30009C4240F28480A9F1020973441B1BADB2AF
:100C4000B3FBF8F008FB103345EA034400FB0AFA53
:100C5000A24508D91EEB040400F1FF336BD2A24574
:100C600069D90238744440EA0940A0FB0289A4EB28
:100C70000A044C45C2464B4654D351D0002E69D08D
:100C8000B1EB0A0564EB030404FA0CFCFD40FC40E4
:100C90004CEA0505C6E90054002747E7C2F12003E6
:100CA00020FA03F7954001FA02F021FA03F34FEA24
:100CB000154E3843010CB3FBFEF71FFA85F80EFB07
:100CC000173341EA034107FB08F38B4204FA02F4AD
:100CD00007D9691807F1FF3C2FD28B422DD9023F6B
:100CE0002944CB1A81B2B3FBFEF00EFB103341EA6C
:100CF000034100FB08F38B4207D9691800F1FF3C60
:100D000017D28B4215D902382944C91A40EA07473D
:100D10003BE73746304609E70746E7E61846FBE675
:100D20004145ABD2B8EB020A69EB0E02013813461B
:100D3000A4E76046E9E7184695E76746D1E78146AC
:100D40007CE702382C4447E7ACF1020C2B442FE738
:100D5000384608E73746E9E6704700BF034613F810
:100D6000012B002AFBD1181A01387047000000003F
:100D700001F0FF01102A2BDB10F0070F08D010F84C
:100D8000013B013A8B422DD010F0070F42B3F6D150
:100D9000F0B441EA012141EA014122F007047FF069
:100DA00000070023F0E80256083C85EA010586EAC0
:100DB000010685FA47F5A3FA87F586FA47F6A5FAFC
:100DC00087F68EB9EED1F0BC01F0FF0102F0070208
:100DD00032B110F8013B013A83EA010313B1F8D1B3
:100DE0000020704701387047002D06BF3546033894
:100DF000073815F0010F07D1013015F4807F02BFCD
:100E0000013015F4C03F0130F0BC0138704700BF1D
:100E100001230370014B00221A6470470008004050
:100E200010B54B1E044CE36249102164104609F0D2
:100E300005FF0023236410BD0008004008B50378B7
:100E400003B908BDA0224FF48E71FFF7E9FFF8E760
:100E5000037803B9704710B50446A0224FF48E7191
:100E6000FFF7DEFF642009F0E9FEA0224FF48E7147
:100E70002046FFF7D5FF10BD08B5037803B908BDBC
:100E8000A02240F61831FFF7CBFFF8E7037803B94B
:100E9000704710B50446A0224FF48E71FFF7C0FFD3
:100EA000322009F0CBFE3C2240F618312046FFF7F5
:100EB000B7FF322009F0C2FEA02240F28C5120463A
:100EC000FFF7AEFF10BD41F29C03C358ABB370B542
:100ED00084B00D4604464E0013F81120FF2A1CD0A2
:100EE0000123694604F084FD58BB9DF8083083F067
:100EF00001038DF8083001226946204604F016FFF0
:100F000041F29C03E25802F81500E35833449DF87F
:100F100008205A70012004B070BD00F581501C30CB
:100F200005F0C6FC014650B105220DF1090011F093
:100F30001BFE01238DF80830DDE7002070470020FC
:100F4000E9E70020E7E741F29C03C358002B40D0BB
:100F500070B50E46044600F581501C3005F0A5FC26
:100F6000054602460121304609F0F4FDC0B241F2C7
:100F70009C03E258044602EB40035B7813F0010F38
:100F80001AD180B2034643B102EB4301497811F014
:100F9000010F02D1013B9BB2F5E7A84208D202EB58
:100FA0004001497811F0010F02D1013080B2F4E71D
:100FB0001BB9A8420FD0C0B270BDA84205D0E21A3A
:100FC000041BA24203DBC0B2F6E7D8B2F4E7D8B202
:100FD000F2E7012070470120EEE700002DE9F04123
:100FE00080460C464E888D888B7E13F0010F29D0E9
:100FF0001D4B1A881D4B1988304609F0ABFD07467A
:1010000086B21B4B1A881B4B1988284609F0A2FD93
:10101000054680B2A37E13F0010F1CD06680A0802D
:10102000637E1E2B01D91E236376217E4046FFF787
:101030008AFF2076FF220A21E07E09F08BFDE07610
:10104000BDE8F08130B209F09BFD86B228B209F00C
:1010500097FD85B2CCE738B209F084FD86B228B29C
:1010600009F080FD80B2D9E7463A0108483A010804
:10107000423A0108443A01082DE9F04385B006469A
:101080008846002406F581551C35284605F00DFCE0
:10109000844209DA08EB4403FF2208F814200022F6
:1010A0005A700134E4B2EDE70024A14612E00DF1DC
:1010B0000901284605F008FC00B2002808DB9DF86D
:1010C00008302BB108EB400218F81030FF2B19D074
:1010D000013424B2284605F0E8FB84420ADAE7B27C
:1010E00001233A466946304604F082FC0028DED0EF
:1010F0000128EDD1304604F0A3FB5FFA89F005B07A
:10110000BDE8F08308F810709DF80830537009F1BD
:1011100001091FFA89F9DBE708B541F29C03C158C0
:1011200019B1FFF7A9FF012008BD0020FCE700006E
:1011300038B50C461546114600F581501C3005F0B7
:10114000B7FBC8B1014615B103784E2B07D1052274
:10115000204611F009FD00236371204638BD094B7C
:10116000186820601B79204600F8043F052211F022
:10117000FBFC00236372F0E7034B03CB206061604C
:10118000EBE700BF943A01089C3A010808B541F228
:101190005403C25C0149FFF7CBFF08BD8402002065
:1011A0002DE9F8439DF8209041F29C0450F804C0CA
:1011B000BCF1000F05D01F46164680464C1E032585
:1011C00013E0002107E001EB4104A00010440024DB
:1011D00084700131C9B29942F5D300204FE0013D3E
:1011E00015F0FF0527D0013C24B2002C09DDB9F130
:1011F000000FF4D00CEB44035B7813F0010FF2D036
:10120000EDE7002517E005EB45029300F118E2B287
:10121000F25441F29C0358F8033003EB44035B782B
:101220004B7002314046FFF783FF0135EDB2BD42FE
:1012300018D2013424B208F581501C3005F035FB7A
:1012400084420FDA002CF4D0B9F1000FDBD041F268
:101250009C0358F8033003EB44035B7813F0010F51
:10126000D1D1E6E72946B94208D201EB4103980003
:101270003044002383700131C9B2F4E72846BDE849
:10128000F8834288C38B9A4201D00020704782883D
:10129000038C9A4201D000207047C288438C9A4246
:1012A00001D000207047828A038E9A4201D000202C
:1012B0007047827D90F832309A4201D0002070470A
:1012C000027E90F834309A4201D000207047427E6E
:1012D00090F835309A4201D000207047827E90F815
:1012E00036309A4201D000207047C27D90F83330EA
:1012F0009A4206D1C27E90F837309A4203D000203D
:1013000070470020704701207047EB2343804FF463
:10131000967383804FF49663C38001230376002382
:10132000437683820522827533228276C37540F626
:10133000FC0303813223438140F2DF238381C823EE
:10134000C38140230382C32343828023C376704733
:101350002DE9F84F044693461D469DF828A09DF8B8
:101360002C909DF830809DF834709DF83860837E15
:1013700003F001034176BDF83C2082829DF84020B5
:101380008275AB420BD0002D3DD0B0F9020009F0C0
:10139000F7FB6080B4F9040009F0F2FBA0800023A1
:1013A000A3760DB10123A376BBF1000F03D0A37E7A
:1013B00043F00203A376BAF1000F03D0A37E43F0FB
:1013C0000403A376B9F1000F03D0A37E63F07F037B
:1013D000A376B8F1000F03D0A37E43F01003A376E9
:1013E0001FB1A37E43F02003A3761EB1A37E43F07A
:1013F0000803A376FF220A219DF8440009F0AAFB06
:10140000E076BDE8F88FB0F9020009F0ABFB608030
:10141000B4F9040009F0A6FBA080C0E74180704742
:101420008180C280704730B4046841688268C568B2
:10143000C461016242628562046941698269C46271
:101440000163426330BC704738B5054600F58154EE
:101450001C342046FFF715FF00B138BD2146284651
:1014600004F02EFC2046FFF7DEFFF6E710B5AAB128
:101470000A6841F24A03C2524A6841F24C03C2521E
:101480008A6841F24E03C25200F581541C34214651
:1014900004F016FC2046FFF7C6FF10BD0A6841F2B3
:1014A0004403C2524A6841F24603C2528A6841F27A
:1014B0004803C252E8E730B4034653F81C4F59685A
:1014C0009A68DD68046041608260C5601C69596982
:1014D0009A6904614161826130BC7047C07D000936
:1014E00000EB80007047C37D03F00F03013303EB73
:1014F00083039800704700004B2900D94B21B2F5B7
:10150000A07F03D8042A03D8052201E04FF4A0727B
:101510000B1DDBB20849A1FB03139B081B01DBB2C7
:10152000013A064981FB02C1D217C2EBE10202F087
:101530000F021343C3757047CDCCCCCC676666668B
:1015400010B5044632B94B8A0A8AC98908F0FAFEF6
:10155000204610BD8B894A89098908F0F3FEF7E718
:1015600010B5044632B932234022962108F0EAFE33
:10157000204610BDC8230A2240F23F2108F0E2FEB7
:10158000F6E770B40E8893009C1865004419465322
:101590004D8865808D88A580CD88E5800D7A25727F
:1015A00091F90E10617270BC704701EB81014B0024
:1015B000184490F909007047032905D802EB82020C
:1015C000114430F8110070470020704703290BD8F0
:1015D000012A04D0083100EB4101888870470C31A2
:1015E00000EB410188887047002070472DE9F047E3
:1015F00082B005460F46924600F58354143400210C
:101600002046FFF7E3FF804641F250090246394683
:1016100035F8090009F09EFA86B225F809605246AD
:1016200000212046FFF7C8FF0090002342463946BC
:10163000304609F05BFA80B202B0BDE8F0870000E6
:101640002DE9F04F85B00646884691461C4619465E
:101650009B0023445A00831893F90900A9EB000763
:10166000B55A454513D804EB840253003344DD8852
:10167000454540D30125032D71D801EB81032B444F
:1016800036F813A0C24519D80135EDB2F3E722466A
:1016900000213046FFF79AFF384400904B462A4617
:1016A0000021404609F022FA00B240F2E7324946F2
:1016B00009F050FA80B205B0BDE8F08F6A1E04EB65
:1016C00084031A4436F812B0691E2246C9B2304665
:1016D000FFF77CFFC3190393224629463046FFF7E4
:1016E00075FF38440090039B52465946404609F026
:1016F000FDF900B2D9E704EB840253003344B3F898
:1017000002A0554515D8224601213046FFF75EFF5D
:10171000C519224603213046FFF758FF3844114BC4
:101720001A8800902B465146404609F0DFF900B276
:10173000BBE7224601213046FFF748FF00EB070BCD
:10174000224603213046FFF741FF384400905B46B4
:101750002A465146404609F0C9F900B2A5E70020E3
:10176000A3E700BF4E3A010810B5044600F58350C8
:101770001430FFF765FF04F581531C339B7E13F093
:10178000010F00D010BD00B209F0ECF980B2F9E70A
:101790002DE9F04F85B00546039116461C4600F52D
:1017A000835808F1140819464046FFF7FEFE371A21
:1017B000224600214046FFF709FFBFB238441FFA16
:1017C00080F9224603214046FFF700FF0744BFB2DD
:1017D000012C35D0484BB3F800A0012C34D0474B36
:1017E000B3F800B005F581531C339B7E13F0010F55
:1017F0002ED05A465146039809F0ACF91FFA80FAE8
:101800003F4BB3F800B0224600214046FFF7D4FE1C
:101810000390224603214046FFF7CEFE0090039B33
:101820003A464946504609F061F980B2B0EB5B0F89
:1018300025DDA0EBAB07BFB24FF00008C1463BE08F
:10184000304BB3F800A0C8E72F4BB3F800B0C9E79E
:101850000FFA89F009F086F91FFA80F938B209F019
:1018600081F987B20FFA8AF009F07CF91FFA80FA41
:101870000FFA8BF009F076F91FFA80FBB9E75F46A3
:10188000BBF1000F03DB00EBA707BFB2D4E70BF1FE
:101890000307F8E77B1CB9469FB209E009EB070391
:1018A00003EBD373C3F34F039F421CD0BB461F46C9
:1018B00008F101085FFA88F8B8F1130F17D823462A
:1018C000324639462846FFF74FFF82450FD0E5D90B
:1018D00007EB0B0303EBD373C3F34F039F42D9D042
:1018E000B9461F46E4E77B1EBB469FB2E0E7384699
:1018F00005B0BDE8F08F00BF483A0108463A01083C
:101900004E3A0108443A0108423A01080023032BE9
:101910000ED810B402EB82041C4430F8144021F8B5
:1019200013400133DBB2032BF4D95DF8044B70474D
:101930007047000070B40024032C09D831F81460FB
:1019400003EB8305254420F815600134E4B2F3E786
:101950009C001C4461000C4601444A7203220A7236
:10196000C988044A1288914201D92044C28070BCBF
:10197000704700BF4E3A010830B48B005A1854002B
:1019800002194FF42A7505534FF47174548040F2D4
:101990000A5494804FF4C864D480034C2478547261
:1019A0000123137230BC7047403A010808B5FFF7B5
:1019B000E3FF08BD0A884B889A4207D28A8893427F
:1019C00006D2CB889A4205D300207047002070478A
:1019D000002070470120704770B584B041F29C032D
:1019E000C358002B4DD00D46044613F81120FF2A92
:1019F0000CD100F58350143031B10021FFF7BCFF4A
:101A00000026304604B070BD0121F7E70023694687
:101A100003F0EEFF50B104F58350143025B10021DE
:101A2000FFF7AAFF0026ECE70121F9E79DF808304F
:101A300013F0020F0AD104F58350143025B10021B0
:101A4000FFF79AFF0126DCE70121F9E704F583544B
:101A5000143469462046FFF7ADFF064640B92DB164
:101A600000212046FFF788FF0126CAE70121F8E799
:101A70002DB9012269462046FFF783FDC1E7002208
:101A8000F8E70026BDE770B5044603F066FF0028BE
:101A90003DD104F581501C3004F007FF400010F0E8
:101AA0004BFF41F29C03E05010B301462046FFF784
:101AB000E3FA064604F581551C352946204604F014
:101AC00011F8B8B129462046FFF788FA00212046D0
:101AD000FFF782FF41F25403E15C2046FFF77CFFF1
:101AE00004F581501C30FFF79EFC66B3002027E010
:101AF0000026DFE704F581501C30FFF706FC41F2B9
:101B00005405615D2046FFF71EFA6055DEE7064684
:101B100004F581551C352846FFF7F7FB012104F534
:101B200083501430FFF728FF01212046FFF754FFB0
:101B30002846FFF778FC012E07D0022E01D00020A6
:101B400070BD0320FCE70120FAE70220F8E738B572
:101B500004460D46FFF740FF00B938BD41F254037B
:101B6000E5542046FFF770FCF7E72DE9F04184B01B
:101B700004460F461D461388ADF800305388ADF873
:101B800002309388ADF80430D388ADF806308DF874
:101B900008509DF928308DF80E3041F29C03C3584F
:101BA0004E0033445D7000F581501C3004F080FE1F
:101BB00038B18046694604F583501430FFF7FAFEC9
:101BC00038B904F584501830FFF760F904B0BDE867
:101BD000F081052241460DF1090010F0C5FF0022F9
:101BE0006946204604F0A2F8B0F10008E9DD04F5EA
:101BF00084501830FFF722F941F29C03E25802F8B2
:101C00001780E3581E447570E0E7704770477047CF
:101C1000704770477047704770477047704770470C
:101C2000704770477047704738B50A4B1B783BB117
:101C300000204FF08043586303F58033186438BDAB
:101C40000446044D1422291D034809F0D1F82C70D4
:101C50000120F4E790020020F031002038B505465D
:101C600000F585542046094B40F8743B0FF00CFDFD
:101C700004F170000EF053FB04F16C000EF04FFB0A
:101C800004F168000EF04BFB284638BD60320108B5
:101C90002DE9F04F83B00646002441F22803C454D6
:101CA00041F22A034FF48052C25241F22C03D14A2E
:101CB000C25041F23003D04AC25041F23403CF4AFD
:101CC000C25041F23803CE4AC25000F58352CD4B88
:101CD00003CB9062D16203CB1063516306F584504D
:101CE0001830FFF795F841F29C03F45006F585553E
:101CF000281D10F0E9F8A5F850406C65AC65A5F812
:101D00005C4085F85E40C04B2B60A5F860404FF604
:101D1000FF73A5F862304FF47842A5F864201F22C3
:101D2000A5F86620AC66EC662C676C6785F87830A1
:101D3000C823A5F87A30A5F87C304FF03C0BA5F805
:101D40007EB09623A5F880304FF01E03A5F88230B0
:101D5000D723A5F88430AD4BC5F88830AC4BC5F817
:101D60008C3041F23012B318B45008251D719C60BC
:101D70001D719C601D731C611D731C611D759C6130
:101D80001D759C611C775C774FF4C879A3F81E9091
:101D90004FF4FA78A3F8208083F824509C6283F8EB
:101DA00024509C6283F82C4083F82D40A3F82E9099
:101DB000A3F830800A2783F8347083F83550A3F8ED
:101DC00036804FF47A7AA3F838A0032283F83A20B9
:101DD0000E2283F83B20142083F83C00052283F870
:101DE0003D204FF0020283F83E206421196440F642
:101DF0003C72A3F84420A3F84840A3F84A40DC64AE
:101E00001F655F659C654FF00B02A3F85C20814A5B
:101E1000127883F8A24083F8A04083F8A12083F8C9
:101E2000E64083F8E44083F8E52083F82A4183F80C
:101E3000284183F82921A3F82C41A3F82E41A3F8C7
:101E40003041A3F8324183F83441C3F8384183F874
:101E50003C4183F83D41A3F83E41A3F84041A3F83B
:101E60004241A3F84441A3F84641A3F84841A3F8EE
:101E70004A4183F84C4183F84D41A3F84E4183F821
:101E80005051C3F8544183F85051C3F8544183F87A
:101E90005851C3F85C4183F85851C3F85C4183F84A
:101EA0006051C3F8644183F86051C3F8644183F81A
:101EB0006851C3F86C4183F86851C3F86C4140F233
:101EC000CF7CA3F870C1A3F872A183F87401A3F8C2
:101ED000761101230093504B4FF480724F4906F561
:101EE0009550284403F032FB022300934A4B4FF4F1
:101EF00000424B4906F59750143003F027FB06F5D6
:101F00009A531C705C601D72DC601D72DC601C7476
:101F10005C74A3F81290A3F814801D76DC611D7622
:101F2000DC6183F8204083F82140A3F82290A3F8D5
:101F30002480A3F82880A3F82AA04FF01E0183F87C
:101F40002C1083F82DB083F82E70012119639C8624
:101F5000DC869C63DF631F645C644FF00B02A3F8B4
:101F6000482083F84A4083F84B4083F84C40A3F85C
:101F70004E40A3F850405C652A4A127883F85850C6
:101F8000DC6583F85820DC6583F860505C6683F874
:101F900060205C6683F86850DC6683F86850DC6615
:101FA00083F870505C6783F870505C67462283F852
:101FB0007820632283F879204FF41672A3F87A20F0
:101FC00040F2CF7CA3F87CC04FF4C862A3F87E2017
:101FD0004FF44872A3F88020A3F882B0124AC3F8E5
:101FE000842006F59E502844FEF712FF304603B0C9
:101FF000BDE8F08FA43A0108B03A0108BC3A0108E4
:10200000C83A010808320108603201083C3D010865
:10201000C84501084C3A0108000402400000024093
:10202000000802404B3A0108E0930400012800D068
:1020300070474FF6FF739942FAD12DE9F04F87B000
:10204000E24F3846FFF724FEE14AE249384610F0F5
:102050001AFAE14C012684F8306000252587E563F3
:1020600025646564A564E5646763DC4BE36294F80A
:102070008030082284F85020656584F8503065650A
:10208000A565E56525666566A4F86850A4F86A50FC
:10209000A4F86C5084F86E5084F86F6084F8706017
:1020A0006567A56784F87C504FF4FA73A4F87E3016
:1020B000052384F8803040F6B83BA4F882B040F2A3
:1020C000DC59A4F88490C24AC54904F12C0010F0F0
:1020D000DAF984F88C60A4F89450C4F89850C4F8E5
:1020E0009C50C4F8A050C4F8A450C4F8A850C4F838
:1020F0009070BC4BC4F88830C4F800514FF007080A
:1021000084F80481B24AB84904F1880010F0BBF9A0
:1021100084F80C61A4F81451C4F81851C4F81C5187
:10212000C4F82051C4F82451C4F82851C4F81071DF
:10213000AE4BC4F80831FF2384F82C31A44AAC49D3
:1021400004F5847010F09FF984F83461A4F83C51D0
:10215000C4F84051C4F84451C4F84851C4F84C5133
:10216000C4F85051C4F83871A24BC4F8303184F827
:102170005451A4F8765184F878514FF0030AA4F82A
:102180007AA1C4F87C51C4F8805184F884514FF48A
:102190001673A4F88631C4F888B104F5987B8C4A8C
:1021A0009549584610F06FF984F89061A4F8985159
:1021B000C4F89C51C4F8A051C4F8A451C4F8A85163
:1021C000C4F8AC51C4F894718C4BC4F88C3184F8C9
:1021D000B05184F8BA5184F8BB51C4F8BC510423FF
:1021E000A4F8C031A4F8C29104F5C679784A8449AC
:1021F000484610F048F94B465A4639460BF19400D0
:1022000007F0C4F8724A7F4904F5E27010F03BF918
:1022100084F80862A4F81052C4F81452C4F8185292
:10222000C4F81C52C4F82052C4F82452C4F80C72EA
:10223000754BC4F80432A4F8285284F82A6284F852
:102240002B52C4F82C52624A704904F5017010F008
:102250001AF984F83462A4F83C52C4F84052C4F825
:102260004452C4F84852C4F84C52C4F85052C4F80E
:102270003872674BC4F83032554A664904F50C7021
:1022800010F001F984F85862A4F86052C4F864525E
:10229000C4F86852C4F86C52C4F87052C4F874524E
:1022A000C4F85C725C4BC4F8543284F87852A4F8D9
:1022B0007A5284F87C5284F87D52DFF87CB104F5C0
:1022C00020730BF1100207CA83E80700404A534904
:1022D000A3F12C0010F0D7F884F89062A4F898527B
:1022E000C4F89C52C4F8A052C4F8A452C4F8A8522E
:1022F000C4F8AC52C4F89472494BC4F88C32C4F898
:10230000B05284F8B45284F8B55284F8B65284F8C6
:10231000B75284F8B852A4F8BAA204F5237A2C4A2A
:102320004049504610F0AFF8CDF800A004F5017315
:102330004A46394609F5987007F04AF8244A3A495E
:1023400004F52F7010F09FF884F80863A4F8105378
:10235000C4F81453C4F81853C4F81C53C4F82053D9
:10236000C4F82453C4F80C73304BC4F8043304F598
:102370004179174A2E49484610F085F884F82C63B5
:10238000A4F83453C4F83853C4F83C53C4F8405349
:10239000C4F84453C4F84853C4F83073254BC4F808
:1023A0002833A4F84C53A4F84E534FF49673A4F872
:1023B00050334FF41673A4F8523340F2CF73A4F89D
:1023C0005433022384F8563338E000BFD806002087
:1023D000000000205D1C0008900200202839010840
:1023E0000B1C0008403901080D1C00085839010871
:1023F0000F1C0008A0390108111C0008B839010899
:10240000131C0008151C0008D0390108171C00080F
:10241000003A0108191C0008883901081B1C000833
:10242000E83901081D1C00081F1C0008183A0108A3
:10243000211C0008303A010808320108364A3749A1
:1024400004F54A7010F01FF884F85C63A4F8645334
:10245000C4F86853C4F86C53C4F87053C4F8745388
:10246000C4F87853C4F860732D4BC4F8583384F81B
:102470007C53A4F87E5384F8805384F8816384F8F5
:10248000826384F8835384F8845384F8856384F8E2
:10249000866384F88753802384F8883384F88953CB
:1024A00084F88A5304F563760BF11C050FCD0FC633
:1024B0000FCD0FC60FCD0FC62B68336084F8C083D5
:1024C0000A2384F8C1337823A4F8C23304F556757F
:1024D000114A144928460FF0D6FF04F57174CDF85F
:1024E0001490A4F584730493CDF80CA0B83B029328
:1024F000FC3B0193BC3300932B46A5F58272394611
:10250000204606F00DFF044A074920460FF0BBFFA6
:1025100007B0BDE8F08F00BF00000020231C0008BA
:1025200070390108251C0008271C0008014B93F88E
:10253000380470479002002038B508F079FB00F5A8
:1025400096751C4B5B6A9BB29C1CA4B2632C02D98F
:10255000A3F16104A4B208F06BFBA84207D2154BAB
:102560005B6AA342F7D14FF0804300225A6208F021
:102570005FFB00F596750F4B5B6A9BB29C1CA4B287
:10258000632C02D9A3F16104A4B208F051FBA84264
:1025900008D2084B5B6AA342F7D14FF08043586AD8
:1025A00080B205E04FF08043D86A80B2013080B23B
:1025B00038BD00BF0000014030B585B00546164C5F
:1025C000012302930193009300221146204603F059
:1025D00080F8A4F5157400224FF6FF71204600F034
:1025E00037FC2946204600F001FF0C4A41F2103327
:1025F000D45AE4B2084802F0F8FF40B9B4FA84F3C0
:102600005B0996222946064801F050FDEDE7B4FA31
:1026100084F0400905B030BDCC190020D806002058
:10262000781700202DE9F04786B0044600F5855064
:1026300000F056FB04F58950103003F08AFF04F5D2
:102640009A5003F0BFFC04F5955808F108084FF4C0
:1026500000722149404602F0BCFF04F59757143739
:102660004FF480421D49384602F0B3FF2046FFF781
:102670000AFA814604F581561C366D460122314620
:102680002846FEF75DFF294604F58B50183007F009
:1026900060FE0DF10C0A002231465046FEF750FF55
:1026A0009AE8070085E80700294604F59B50143096
:1026B00007F04FFEB37EC3F3400141F2C832A1548C
:1026C000C3F3001288F83E20C3F3401387F83E306E
:1026D000484606B0BDE8F08700000240000802400E
:1026E0002DE9F047DFF8C8814046FFF79BFF07461A
:1026F000654C0C2120460AF037FD082120460AF0DF
:1027000093FC624C002120460AF02EFD0421204655
:102710000AF02AFD082120460AF086FC0C212046FA
:102720000AF082FC0C215A480AF01EFD594D05F5AD
:10273000717605F1880A05F12C043346524631467C
:10274000204605F0D3FF05F5847933464A462146F5
:10275000504605F0CBFF334622462146484605F059
:10276000C5FF23462246214605F5987005F0BEFFB9
:1027700005F5E27923462246494605F5C67005F07F
:10278000B5FF234622462146484605F0AFFF2346C3
:102790002246214605F5017005F0A8FF2346224692
:1027A000214605F50C7005F0A1FF2346324631465F
:1027B00005F5157005F09AFF23462246214605F5DA
:1027C000237005F093FF23462246314605F52F700E
:1027D00005F08CFF23462246314605F5567005F07C
:1027E00085FF234622462146304605F07FFF05F54A
:1027F0004A7633462246214605F5417005F076FFBC
:10280000234622462146304605F070FF00224FF64F
:10281000FF7108F5855000F01BFB022F15D0032F28
:102820001CD0012F0CD0FFF787FE4FF47A7008F010
:1028300005FA194B186803681B689847BDE8F087CC
:10284000154B04F1DC021A60EDE7322213491448FB
:1028500001F082FB104B134A1A60E4E7124B80220E
:102860005A631248FFF7A8FE0028DCD0104802F097
:10287000F7FF0028D7D132220E49094801F06CFB3E
:10288000054B084A1A60CEE7983200203833002002
:10289000603100209002002004000020D43A01089A
:1028A00078170020C004002000040040E83A010826
:1028B000D8060020F83A010838B53B4C204603F012
:1028C00021FE04F5047003F033FB384B186805F063
:1028D00011FF20B10446354B1B6883422FD1334D85
:1028E000286803685B68984704462B68834215D0C4
:1028F000002838D02C4D0021284603F053FE00213B
:1029000005F5047003F0CDFB4FF0804300225A63BD
:10291000264B1C6023681B682046984708F088F9FE
:10292000234BD3F83C3498421FD2224A41F257033A
:10293000D25C1F4B93F84434934229D338BD1E4DCB
:102940002846FEF785FA0021A5F5267003F02AFE39
:102950004FF0804300225A63144B1C6023681B68AD
:1029600020469847EAE7154CC4E7154A536A104CCD
:10297000D4F840145B1A18BF012384F83834536A22
:10298000C4F8403408F054F92930C4F83C04CCE7CA
:102990000133DBB2064A82F844340A4A5363052005
:1029A00008F04CF9CAE700BF081800200400002016
:1029B00090020020D8060020A01A0020C0040020A9
:1029C000000001400004004008B50368144A934227
:1029D00003D0B3F1804F0DD008BD027F042AF8D197
:1029E000104803F01DFC6322002108F0B3F80C4BE3
:1029F0001864F1E7037F042B05D0082BECD10220EB
:102A0000FFF712F9E8E74FF080435B6B23B94FF013
:102A100080439B6B002BDFD00120FFF705F9DBE73C
:102A200000000140181A00200268594B9A4200D059
:102A3000704710B586B0574808F08CFA564B1B7893
:102A4000DBB2022B09D0544B1B78DBB2012B67D0D1
:102A5000514B00221A7006B010BD0023019302935F
:102A60000393132B18D8991C4B4A02EB4101888819
:102A7000019901440191D91C02EB41018888029916
:102A800001440291191D02EB41029188039A0A4404
:102A900003920533DBB2E4E7019B02330193019B10
:102AA0009B080193029B02330293029B9B080293B3
:102AB000039B02330393039B9B08039303993748BB
:102AC00007F036FD364A1379013BDBB21371C3B907
:102AD000134606221A710124324A41F24D13D35C87
:102AE0008BB94FF080435C6302992E4A41F2613307
:102AF000D35C002BACD089B202F59D5007F018FDD5
:102B0000A6E70024E8E70199274803F0EDFD4FF41C
:102B1000F562214608F01EF84FF080435863E3E762
:102B20000023049305930FE01B4A02EB43018888BE
:102B3000049901440491591C02EB41029188059AC1
:102B40000A4405920533DBB2132BEDD9049B023303
:102B50000493049B9B080493059B02330593059BF8
:102B60009B0805934FF080435B6B5BB94FF080434C
:102B70009B6B002B3FF46CAF059989B20B4807F0B3
:102B800031FD65E7049989B2094807F02BFDEDE7AF
:102B900000200140F0310020900200201418002095
:102BA00004000020D806002008180020301A002059
:102BB0001C1800207047000008B5064B5B6913F035
:102BC000010F00D108BD044802F096FD014B01221F
:102BD0005A61F7E7003C01408019002008B5064B18
:102BE0005B6913F0020F00D108BD044802F084FDB8
:102BF000014B02225A61F7E7003C0140CC1900204A
:102C000010B504465C210FF043FC204610BD10B502
:102C1000044680210FF03CFC204610BD10B5044650
:102C200028210FF035FC204610BD10B504465C216C
:102C30000FF02EFC204610BD10B5044638210FF0D1
:102C400027FC204610BD10B5044640210FF020FCA3
:102C5000204610BD10B504462C210FF019FC20466B
:102C600010BD10B5044624210FF012FC204610BD03
:102C700010B5044638210FF00BFC204610BD10B5EE
:102C8000044630210FF004FC204610BD10B5044668
:102C900048210FF0FDFB204610BD10B5044624214D
:102CA0000FF0F6FB204610BD10B5044630210FF0A2
:102CB000EFFB204610BD10B504466C210FF0E8FB79
:102CC000204610BD10B5044674210FF0E1FB2046EC
:102CD00010BD08B54FF6FF710120FFF7A7F908BD39
:102CE0002DE9F04184B00446051DD0F8881028462F
:102CF0000FF02FF8022128460FF03CF828460FF07D
:102D0000F3F81FFA80F8284F394628460FF096F856
:102D1000811C04F16806424689B201A80DF0CCFA84
:102D200001A930460DF0E5FA01A80DF0F8FAD4F843
:102D30008C1028460FF00DF828460FF0D5F886B213
:102D4000394628460FF07AF8811C04F16C073246A8
:102D500089B202A80DF0B0FA02A938460DF0C9FAFE
:102D600002A80DF0DCFA114928460FF067F8811C23
:102D70007034324689B203A80DF09EFA03A92046AA
:102D80000DF0B7FA03A80DF0CAFA0DF0F7F901201B
:102D90000DF0E8FB002106480AF0E6F9054B002299
:102DA0005A6304B0BDE8F081D03B0108D43B010870
:102DB000A83100200004004010B50446094B40F83B
:102DC000743B0EF061FC04F170000DF0A8FA04F100
:102DD0006C000DF0A4FA04F168000DF0A0FA204692
:102DE00010BD00BF6032010808B508460EF0FEFABB
:102DF00008BD08B508460EF0EFFA08BD08B508464C
:102E00000EF0E0FA08BD08B50EF0D2FA08BD08B51C
:102E10000EF0C4FA08BD000010B504460B4B40F894
:102E2000743B0EF031FC04F170000DF078FA04F1FF
:102E30006C000DF074FA04F168000DF070FA902146
:102E400020460FF025FB204610BD00BF6032010870
:102E500008B5A0F86210A0F86020FF2180F8781073
:102E600010460DF075FC08BD2DE9F04F85B0044605
:102E70000391002A79D1B0F87E50E36E002B77D011
:102E80001E8806F114091FFA89F9A36E002B71D070
:102E9000B3F802A05FFA8AFA06F11707BFB2B4F8D6
:102EA00062300322294638460DF032FE1FFA8AF8B6
:102EB000B4F862304246294648460DF000FD06F15E
:102EC0001A00B4F862304246294680B20DF0F7FC91
:102ED00005EB08091FFA89F909F1050B1FFA8BFBAD
:102EE000B4F862300822594638460DF011FEB4F8A5
:102EF00064300722594638460DF05BFE06F111009A
:102F000005F10901B4F86230009303231A4689B22F
:102F100080B20DF0F7FB1536B6B2691C08F1FF332D
:102F2000B4F8602000929BB2052289B230460DF0C1
:102F3000E9FB0A226FF06301039807F00BFE07B26A
:102F4000002F1ADD80B2291A89B20A31404483B2B7
:102F50000A3BB4F8642000929BB2052289B2304645
:102F60000DF0D0FB05B0BDE8F08FB0F8805084E7DD
:102F7000002686E74FF0000A8CE7AAF10A030093C7
:102F8000012300226FF06301384607F0AFFDC3B2A2
:102F9000A9EB0301B4F864200092052289B23046FF
:102FA0000DF0B0FBDEE70000F0B589B00446164630
:102FB000B1F57A7F01D340F2E7310A46264907A8E6
:102FC0000FF098FD251DD4F8881028460EF0C1FE9C
:102FD000022128460EF0CEFE04F168000DF0AEF995
:102FE000A36E591D63B31A88002301930123009334
:102FF00007AB28460EF02AFF0DF07CFAA36E0BB348
:103000001A88801AC0F34F00323080B2E6B1B4F8AB
:103010008010B4F86060B4F86270A46EBCB16388CC
:10302000651DB4B1B4F800C005970496002403945C
:103030000294CDF804C000950DF086FF09B0F0BDF4
:103040000022D1E70022DCE7B4F87E10E1E700239C
:10305000E6E74FF0000CE7E7DC3B01082DE9F0471D
:1030600084B0044688469246061DD0F88C1030463F
:103070000EF06FFE30460EF037FF87B24146304605
:103080000EF0DCFE8146B4F87A20B4F8603000938C
:103090003B46002108460DF035FBB4F87A1049454F
:1030A0001ED9A1EB0901C1F34F05B4F862300093BA
:1030B00043463A46294630460EF0B2FEBAF1000FBA
:1030C00010D00DF017FAA0F11402B4F8623092B2E9
:1030D000B4F882100A200DF0E9FB04B0BDE8F087D7
:1030E0000025E2E705EB090080B20A30A7F10E01E6
:1030F000B4F86030B4F86220039202931022019277
:10310000034B00930E2389B280B20DF0B7FED8E7CF
:103110008032010870B586B004460A46642900D999
:1031200064222523134903A80FF0E4FC251DD4F8DD
:103130008C1028460EF00DFE28460EF0D5FE86B205
:103140000DF0DEF9811BB4F87C20B4F860300093F8
:10315000334689B200200DF0D5FA0DF0D1F9B4F85C
:103160006230009303AB02460A2128460EF058FE57
:1031700006B070BDE03B01082DE9F04788B0044679
:103180000F469146061DD0F88C1030460EF0E1FD3A
:1031900030460EF0A9FE1FFA80F8B4F87CA00DF0BE
:1031A000AFF9A0EB080085B20DF0A4F9B4F87C20CB
:1031B000821AB4F860300093434692B229465046D2
:1031C0000DF0A0FA07F109039BB26C2B50D84323F2
:1031D0008DF8143000238DF81530B9F1000F02D1AD
:1031E00046238DF814300DF085F9054605A93046C3
:1031F0000EF024FE2D1AADB2A5F11E091FFA89F9B1
:103200000DF07EF9B4F86230009305AB02464946F2
:1032100030460EF005FE263DADB20DF071F9A0EB83
:10322000080189B20431B4F86030B4F86220039226
:10323000029308220192164B0093052389B2284677
:103240000DF01CFE3A46134906A80FF053FC06A9E0
:1032500030460EF0F3FD2D1AADB20DF051F9B4F871
:103260006230009306AB0246294630460EF0D8FD88
:103270000DF040F9A0F11402B4F8623092B2B4F843
:1032800084100A200DF012FB08B0BDE8F08700BFE3
:103290009C320108EC3B01082DE9F04385B006465D
:1032A00008461746642900D96420B36EDBB15C88F8
:1032B000E2B20A2107F02DFC0546B7B9B6F87E70D8
:1032C0000DF018F91138E4B2B6F860300093631CC1
:1032D0000D22394680B20DF015FA3C44A4B23DB936
:1032E00005B0BDE8F0830024E2E7B6F88070E7E7B8
:1032F0000DF000F905381FFA80F80DF0FBF80538DD
:103300001FFA80F9671BBFB20DF0F4F8C5F387050B
:10331000451BADB2063DADB2B6F8623002930197DF
:1033200000953B464A46214640460DF0CBFCD7E788
:1033300030B585B005460C4610464FF4FA720021B0
:1033400007F008FC55230093FF234FF4FA72002185
:1033500000B207F0CBFBC0B20DF07CF904F0030320
:10336000EA6EAAB114883234B5F8801003EBC303B7
:103370005A01084B1344B5F86020039002923022A2
:10338000019200931346A0B20DF078FD05B030BD58
:103390000024E8E7A432010800B585B00246C36EF8
:1033A0007BB11B88323398B269B9B2F87E10B2F89B
:1033B0006030009330231A460DF0A4F905B05DF893
:1033C00004FB0023EEE7B2F87E10B2F86030B2F8EA
:1033D00062200392029330220192034B0093134622
:1033E0000DF04CFDEAE700BF243701082DE9F0415C
:1033F00082B005468846061DD0F88C1030460EF087
:10340000A8FC30460EF070FDC4B2414630460EF0C6
:1034100015FDC7B20DF06EF8C01B00EBD070A4B262
:10342000B5F86230009343462246C0F34F01304660
:103430000EF0F6FC0DF05EF8C01B00EBD0704010F3
:103440000A38B5F8623007F11402E11C80B20DF0C1
:103450002DFA02B0BDE8F0812DE9F04784B00546B1
:103460001446072202A80FF07FFB00238DF80F30CF
:103470002E1DD5F88C1030460EF06BFC30460EF049
:1034800033FD87B202A930460EF0D8FC804664B303
:10349000B5F88040E41BA4B20F3CA4B2B5F87AA002
:1034A00004F107091FFA89F90DF024F8B5F87A201C
:1034B000821AB5F8603000933B4692B249465046B6
:1034C0000DF020F90DF016F8A0EB080189B21439BF
:1034D000E219B5F86230009302AB92B289B230467D
:1034E0000EF09EFC04B0BDE8F0870024D6E7000093
:1034F00008B50A460149FFF7AFFF08BDF03B0108D8
:1035000008B50A460149FFF7A7FF08BDF43B0108CB
:1035100008B500220149FFF79FFF08BDF83B0108ED
:1035200008B500220149FFF797FF08BD003C0108DC
:1035300008B500220149FFF78FFF08BD083C0108CC
:1035400008B500220149FFF787FF08BD103C0108BC
:1035500008B500220149FFF77FFF08BD183C0108AC
:1035600038B50546054C0A46054920460FF0C2FA13
:10357000002221462846FFF76FFF38BDA41A00201D
:10358000EC3B01082DE9F04F8FB080460991914640
:103590009B469DF864300B93031D1D460793D0F89E
:1035A0008C1018460EF0D5FB28460EF09DFCC7B2D5
:1035B0000A37FFB207F10C0208920CF09BFF044699
:1035C00028460EF091FCA4F1640182B289B20DA8E4
:1035D0000CF072FEB9F1060F0BD94FF0060A189BDA
:1035E00083B11B788BB1BAF1060F04D00123069387
:1035F0000DE0CA46F3E70AF1FF3A5FFA8AFA0123BF
:10360000069304E00023069301E000230693ABEB4E
:103610005A06F6B2013676B2B9F1010F01D95E450C
:1036200004D0002E06DB00250A952BE00BF1FF36B7
:1036300076B2F6E74E4476B2F5E7002237E0B8F806
:1036400060C0B8F862E05C4545D00D9B002B49D0C6
:103650001A880D98002847D04388441D002845D07B
:103660000088CDF814E0CDF810C04FF0000CCDF874
:103670000CC0CDF808C00190009432200DF064FC1D
:103680000135EDB2AA4533D955FA86F4E4B24C457A
:1036900002D3A4EB0904E4B20DA80CF04FFE099B81
:1036A00053F824300D9A511D002AC6D012880A20E2
:1036B00001900020009007980EF0C8FB089B05FBC6
:1036C000073189B2069B002BB9D00A9B002BB6D0DC
:1036D000394489B2B3E77B189BB20A936346F44638
:1036E0009E46B2E70022B4E70023B6E70020B8E721
:1036F000069BD3B9069B93B9BAF1050F0FD8089B67
:103700000AFB073A1FFA8AF10D9B002B5ED01A883C
:10371000B8F8603000933B4632200CF0F3FF0DA860
:103720000CF0FDFD0FB0BDE8F08F0DA80CF006FE0B
:103730000D9B591D1BB31A8800230193022300938C
:10374000189B07980EF082FB0B9B03BB0D9BC3B12C
:103750001A88B8F86050B8F862600D9999B14B8832
:10376000481D91B10C8805960495002103910291A2
:10377000019400900A9932200DF0E6FBBAE700228E
:10378000DAE70022E5E70023EAE70024EBE70D9BF8
:10379000B3B11A88B8F860500D9999B14B88481D9B
:1037A00091B10C884FF47841059104950021039163
:1037B0000291019400900A9932200DF0C5FB99E71F
:1037C0000022E7E70023EAE70024EBE700229FE777
:1037D0002DE9F04F91B00446069117461E46051D8F
:1037E000D0F88C1028460EF0B4FA28460EF07CFB78
:1037F000C0B205305FFA80FA94F87830B34240F0F6
:10380000B280B7F5805F01D340F6FF770CF078FE09
:103810001FFA8AF8A0EB08001FFA80FA0CF06AFE83
:103820008346A0F140091FFA89F9B7F5006F00F24D
:1038300043812823009300234FF400621946384641
:1038400007F054F987B2CDF80090282340F6FF72B4
:1038500040F601014FF4616007F048F9C6B2203626
:10386000F6B2AAEB08081FFA88F8A8F10F01ABF12D
:103870003602B4F862300193052300930A2392B212
:1038800089B21B200DF025F8A8F10A0B1FFA8BFB5B
:10389000B4F864300A2259461C200DF08AF9B4F8B5
:1038A00062300A2259461C200DF032F9A8F10E0BA5
:1038B0001FFA8BFBB4F86430009308233A4659464C
:1038C00020200CF01FFF09F1FF339F42C0F200815E
:1038D000B6B2701EA8F10501B4F862300093062359
:1038E000032289B280B20CF00DFF069A7F490EA820
:1038F0000FF000F910AF432327F80C3D0EA928461E
:103900000EF09CFA8146C0F34F03F61AB6B2B4F833
:10391000623000930EAB5246314628460EF080FAD4
:103920004E44B6B2B01D08F10408B4F86030B4F8E3
:10393000622003920293082201926D4B00930523AB
:103940001FFA88F180B20DF099FA06F10E01B4F871
:10395000623000933B46524689B228460EF060FA28
:1039600011B0BDE8F08F84F878601FFA8AF808F18A
:103970003C090CF0BFFD1438009000236422194666
:10398000304607F0B3F883B208932823009300234E
:1039900064221946304607F0A9F8C3B209930CF027
:1039A000A9FD0A3883B207930CF0A4FD0A3880B24F
:1039B00008F1140BB4F860300293CDF804B0009015
:1039C0004B46079A49460A200DF07CF90CF092FD0F
:1039D0000A3883B207930CF08DFD0A3880B2B4F830
:1039E00062300293CDF804B000904B46079A4946E6
:1039F0000A200DF046F9002E40D1002E50D025238C
:103A000032463C490AA80FF075F804F168000CF042
:103A100095FCA36E591D002B45D01A8800230193F5
:103A2000012300930AAB28460EF010FA0CF062FD59
:103A3000A36E002B39D01A88801A00EBD070C0F327
:103A40004F00C84408F10A01B4F86080B4F86290ED
:103A5000A66E66B3738806F1050C56B3B6F800E09F
:103A6000CDF81490CDF81080002603960296CDF87C
:103A700004E0CDF800C00DF067FAC2E6089A0A32F9
:103A800092B2099BA9EB03039BB2B4F862100291B6
:103A9000019300924B4649460A200DF013F9ACE71A
:103AA000154B0A93B1E70022B8E70022C4E70023D0
:103AB000D1E74FF0000ED3E7CDF80090282340F671
:103AC000FF7240F60101384607F010F887B2BAE6F7
:103AD00007F12000A9EB0702B4F860300093082337
:103AE00092B2594680B20CF00DFEF1E62C3C010872
:103AF0009C320108203C01084F4646002DE9F04168
:103B000084B00546041DD0F88C1020460EF021F933
:103B100020460EF0E9F9C4B20534E4B21E340CF0CC
:103B2000EFFC001B80B2461FB6B216F0010F01D1A8
:103B3000063886B20CF0DEFCEB6E002B38D01C8809
:103B4000041BA4B2363CA4B2214605F1500002F099
:103B500060F9074640B36B6F0BB11B8823BB05F1BF
:103B6000740802233246214603A80DF04BFD03A939
:103B700040460DF073FD03A80DF086FDB5F86030EA
:103B8000ADF80430B5F86230ADF80630B5F8643001
:103B9000ADF80830B5F86630ADF80A3004220DEB08
:103BA000020140460DF099FD384604B0BDE8F081B1
:103BB0000024C5E72DE9F04F89B00446059106922F
:103BC000079300F10408D0F88C1040460EF0C1F8BD
:103BD00040460EF089F9C6B20536F6B206F11E0966
:103BE0000CF08EFCA0EB090080B2451FADB215F0C1
:103BF000010F01D1851FADB26D08E36E002B00F0FF
:103C0000B0801F8807F113039BB2049307F1050AE4
:103C10001FFA8AFA59FA85F50CF06CFCA0F14602FD
:103C2000B4F8623092B2294650460CF03FFE0CF0D8
:103C300061FCE36E002B00F096801B88184480B274
:103C40004138A91EB4F86030B4F8622003920293A0
:103C50004FF0080ACDF804A0DFF820B10BF2EC53C6
:103C600000930523524689B280B20DF007F90CF09B
:103C700041FCA0F114016A1FB4F8623000933E4B7E
:103C800092B289B240460EF0CBF80CF039FCA0F1AC
:103C90000C02B4F8623092B20A2104980CF00FFEC4
:103CA00007F11100B4F86030B4F862200392029377
:103CB000CDF804A00BF2F4530093534605221146AD
:103CC00080B20DF0DBF80F37BFB2B4F864300922D0
:103CD000494638460CF0EAFDB4F86630092206EB96
:103CE000090138460CF0E2FDE36E002B3DD0198847
:103CF0000F39B4F864300093069B324689B24046CF
:103D00000EF08EF8E36E93B319881E31B4F8663066
:103D10000093079B324689B240460EF081F8E36E6D
:103D20003BB31D880544ADB21E35ADB2DDF814902D
:103D3000494640460EF082F807460CF0DBFB401B7C
:103D4000C01B00EBD07005EB6000B4F8623000934C
:103D50004B46324681B240460EF062F809B0BDE8EB
:103D6000F08F00274EE7002368E70021C0E700211D
:103D7000CBE70025D6E700BF1C3C010858320108FC
:103D80002DE9F0478AB08046022946D908F104059A
:103D9000D8F88C1028460DF0DCFF28460EF0A4F869
:103DA0005FFA80FA03A928460EF048F881460CF025
:103DB000A1FBA0EB0900C0F34F070CF0A1FB00EB47
:103DC00040000646002831DBC6F38F0628460EF079
:103DD0008BF804B228460EF08FF804FA80F1A7F1B0
:103DE0000A00C9B2711A89B20A3909F11402B8F885
:103DF000603000930AF1140392B289B280B20CF0E1
:103E000081FCB8F86230009303AB3246394628464D
:103E10000EF006F80AB0BDE8F087054B03EB810110
:103E2000D1F8FC1503A80EF065FEAFE7C61CCBE782
:103E3000583201082DE9F04F8BB005468A4691466D
:103E4000071DD0F88C1038460DF083FF38492846FE
:103E5000FFF7CCFA38460EF047F8C6B20536F6B290
:103E600006F10C080CF046FB044638460EF03CF810
:103E7000A4F1640182B289B206A80CF01DFA0024F4
:103E80001FE0002231E07346E6469C463BE00022FC
:103E900040E0002300F1050B002840D00088CDF859
:103EA00014E0CDF810C04FF0000CCDF80CC0CDF8E8
:103EB00008C00190CDF800B032200DF045F8013473
:103EC000E4B2022C2DD81B4B03EB84033AF81420E8
:103ED000D3F8FC1507A80EF00DFE06A80CF02EFA7C
:103EE000069B591D002BCCD01A8805230193002373
:103EF000009307AB38460DF0A9FFB5F862E0B5F8BE
:103F000060C04C45BFD004FB068189B2069B002BE4
:103F1000BDD01A8806980028BBD04388BAE7002095
:103F2000BDE706A80CF0FBF90BB0BDE8F08F00BFB1
:103F3000303C01085832010810B50446436F0BB1FC
:103F40001B8823B904F1500001F092FF10BD7430BA
:103F50000DF09AFBF6E700002DE9F04F87B083469D
:103F60000C460492B0F860000CF0F2FB2378FBB131
:103F70000BF104031D460393DBF88C1018460DF07B
:103F8000E8FE28460DF0B0FF80B2053083B20593FD
:103F90002046FCF7E3FEC7B2781C0EF0CDFC80464D
:103FA00040B321460EF0C6FD00264FF0010961E046
:103FB0000BF10405DBF88C1028460DF0CAFE032136
:103FC00028460DF0D7FE384E314628460DF036FF14
:103FD00004460CF08FFA041BC4F34F040CF090FA63
:103FE000BBF8623000933346C0F34F0221462846A7
:103FF0000DF016FF07B0BDE8F08F25466C1CE4B24B
:10400000A74203D918F804300A2BF6D1A74202D9E7
:10401000002308F804304644314603980DF00EFFA3
:104020005FFA80FA0CF066FA824528DA0CF062FA40
:10403000A0EB0A0000EBD070059B19FB03F2049B78
:1040400013FA82F2BBF862300093334692B2C0F3A7
:104050004F0103980DF0E4FE09F101095FFA89F9B7
:10406000B9F1070F1BD8A74202D90A2308F8043078
:104070000235EEB2BE4212D2751CEDB2BEE7059B10
:1040800019FB03F2049B13FA82F2BBF8623000932F
:10409000334692B2002103980DF0C2FEDCE74046A1
:1040A0000EF052FCA6E700BF3C3C01082DE9F04FA2
:1040B00089B005460E4691469846031D1C46079357
:1040C000D0F88C1018460DF044FE20460DF00CFF81
:1040D00087B20537BFB2314620460DF0AFFE044629
:1040E0000CF008FA844217D30021B5F8623000932F
:1040F00033464A4607980DF093FE0CF0FBF9EB6E41
:1041000083B11E88801B324E86FB0036A6EBE0761C
:10411000B6B20024BB4643E00CF0ECF9001BC0F340
:104120004F01E2E70026EDE7B5F860703EE0B5F834
:1041300062A005F16C000CF001F9264B03EB84033F
:10414000D3F80836EA6E511D002A34D012880020B8
:1041500001900120009007980DF078FEA1B2EB6E5F
:104160005BB31A88B01810FB01F0304480B20BEB3F
:10417000090189B2EB6E13B3B3F802C003F1050E67
:1041800003B31B88CDF814A0049700270397029768
:104190000193CDF800E063460CF0D6FE0134E4B2A2
:1041A000012C11D8A045BFD0B5F86270A045BED093
:1041B000B5F860A0BDE70022C9E70022D2E74FF0C2
:1041C000000CDBE70023DDE709B0BDE8F08F00BF9E
:1041D00056555555583201082DE9F0438BB0074626
:1041E000061DD0F88C1030460DF0B3FD30460DF0B2
:1041F0007BFE85B26A1D1FFA82F8B7F860000CF0EA
:10420000A7FA2A493846FFF7F1F81135ACB2DFF8C2
:10421000AC90494630460DF011FE05460CF06AF9A7
:10422000411B08EB0402B7F8623000934B4692B290
:10423000C1F34F0130460DF0F3FD02AD1C4A1D499C
:1042400028460EF057FC294630460DF0F7FD814612
:104250000CF050F9A0EB090104EB4802B7F862300A
:1042600000932B4692B2C1F34F0130460DF0D8FDBA
:10427000114B93E8070085E80700294630460DF00A
:10428000DDFD81460CF036F9A0EB090108EB480290
:104290002244B7F8623000932B4692B2C1F34F012B
:1042A00030460DF0BDFD0BB0BDE8F083443C010885
:1042B000603C0108683C0108783C01084C3C01085E
:1042C0002DE9F04F8DB006468A4615461C469DF8EE
:1042D000583006939DF85C30079300F10408D0F83D
:1042E0008C1040460DF035FD40460DF0FDFDC7B287
:1042F0000537FFB207F10C0900230A2B07D80CAAD7
:104300001A44572102F80C1C0133DBB2F5E70023F5
:104310008DF82F3009A940460DF090FD83464046A8
:104320000DF0E2FD82B2594608A80BF0C5FF002D42
:1043300000F0D380A34AA44909A80EF0DBFB089B38
:10434000591D002B00F0CB801A88002301930093A5
:1043500009AB40460DF07AFD089B002B00F0C180B0
:104360001A88B6F86050B6F862C00899002900F0C3
:10437000BA804B88481D002900F0B7800988CDF825
:1043800014C00495002503950295019100904946BB
:104390000A200CF0D9FD08A80BF0D0FFBAF80030C5
:1043A0008A4A8B4909A80EF0A5FB089B591D002BD2
:1043B00000F09D801A88002301930223009309AB2B
:1043C00040460DF043FD07EB0901089B002B00F070
:1043D00090801A88B6F860C0B6F862E008980028A5
:1043E00000F089804388451D002800F08680008801
:1043F000CDF814E0CDF810C04FF0000CCDF80CC093
:10440000CDF808C0019000950A200CF09DFD08A889
:104410000BF094FF002C72D06A4A6E4909A80EF086
:1044200069FB089B591D002B6BD01A880023019350
:10443000009309AB40460DF009FD07EB47014944E5
:10444000089B002B5FD01A88B6F86050B6F862C09F
:104450000898002859D04388441D002857D0008868
:10446000CDF814C0049500250395029501900094A1
:104470000A200CF069FD08A80BF060FFBAF80230C2
:10448000554A534909A80EF035FB089B591D002BCE
:104490003FD01A88002301930223009309AB4046C2
:1044A0000DF0D4FC09EB8701089BA3B31A88B6F87A
:1044B0006040B6F862C0089D7DB36B88681D75B317
:1044C0002D88CDF814C0049400240394029401951F
:1044D00000900A200CF038FD3EE0404A2BE7002215
:1044E00033E700223DE7002344E7002147E70022AD
:1044F00061E700226EE7002375E7002078E7374A7E
:104500008BE7002292E700229EE70023A4E7002029
:10451000A6E70022BEE70022C9E70023CEE7002578
:10452000CFE700222EE0002241E0002305F1050C38
:10453000002D45D02D88CDF814B0CDF810E04FF007
:10454000000ECDF80CE0CDF808E00195CDF800C0E4
:104550000CF0FAFC0134E4B2062C43D808A80BF0A6
:10456000EDFEA31C1E4A02EB83023AF81330D2F888
:104570001026174909A80EF0BDFA089B591D002BFB
:10458000CFD01A88002301930223009309AB404641
:104590000DF05CFC0BF0AEFFC0F34F000A3080B2B0
:1045A00004FB079189B2089B002BBCD01A88B6F88F
:1045B00060E0B6F862B0089D002DB6D06B88B5E714
:1045C0000025B8E7843C0108883C0108943C0108B8
:1045D0009C3C0108A43C0108AC3C0108F03B0108EC
:1045E00058320108069B002B37D06922079B002B0D
:1045F00035D067231F4909A80EF07CFA08A80BF0F4
:104600009DFE089B591D63B31A88002301930093F4
:1046100009AB40460DF01AFC07EB47077900494407
:10462000089B03B31A88B6F86070B6F86260089801
:10463000D8B14388441DD0B1058805960497002061
:1046400003900290019500940A200CF07DFC08A8CC
:104650000BF065FE0DB0BDE8F08F2022C6E72023E9
:10466000C8E70022D1E70022DDE70023E2E70025CA
:10467000E3E700BFB43C01082DE9F04F83B09DF89B
:104680003070086870B1058870B14488E4B235B103
:104690002BB19946D018A84201DC9C4206D203B047
:1046A000BDE8F08F0025EFE70024EFE71D46164632
:1046B0008A46E41AC4F347041FFA83F843462246A5
:1046C000314650460BF051FE04EB0802013A4346D6
:1046D00092B23146CDF804A050460BF046FE04F1EC
:1046E000010BA8F1020A1FFA8AFA53465A463146CC
:1046F00001980BF070FE08EB060189B201395346B0
:104700005A4689B201980BF066FE002FC7D0062DDD
:10471000C5D90025A9F106039D42C0DA621992B2FB
:10472000A8F106030332F11C9BB292B289B2019840
:104730000BF01BFE0135ADB2ECE700002DE9F04FA8
:1047400093B005468A4693460C939DF870300A93C1
:10475000031D1C460793D0F88C1018460DF0F9FA8B
:1047600020460DF0C1FBC0B20530C3B20B930C3331
:1047700009930023082B07D812AA1A44572102F8DC
:104780000C1C0133DBB2F5E700238DF845300FA98F
:1047900007980DF053FB00F11404A4B20A9B0BB967
:1047A0002E3084B207980DF09FFB82B221460EA8EE
:1047B0000BF082FD0BF09EFE844215D3322308934A
:1047C000089B1C44A4B21434A4B20D940BF098FEC0
:1047D0000999431AB5F8602000929BB21022204636
:1047E0000BF090FF002440E00BF084FE001BC0F3B0
:1047F0004F030893E4E70EA80BF0A0FD0A9B002BE3
:104800004AD00A20B31C80B20E9A511D002A4FD004
:10481000128801900020009007980DF017FB0B9B69
:10482000099A04FB0327BFB20E9B002B42D01A88C3
:104830000E99002940D04B88481D00293ED0B1F880
:1048400000C0CDF81490CDF81080002103910291A2
:10485000CDF804C00090394608980CF075FB7378C9
:1048600013F0020F2DD00134E4B25C453AD2B5F812
:104870006280B5F8609004EB440293000AEB0306F3
:10488000B278002AEFD01AF803300C9A9342B2D0D3
:104890004B46C1469846AEE7737803F00103009398
:1048A00010230A220EA92846FFF7E6FE2420A9E7D6
:1048B0000022AEE70022BBE70023BDE74FF0000C6B
:1048C000BFE7791DB5F86030B5F862200392029316
:1048D00010220192144B00930E2389B20D980CF014
:1048E000CDFAC0E7BBF1060F15D80B9B099A0BFB5D
:1048F000032B1FFA8BFB0E9B9BB11C880BF000FE59
:10490000A0EB0B03B5F8602000929BB222465946FB
:1049100008980BF0F7FE0EA80BF001FD13B0BDE8F0
:10492000F08F0024EAE700BF803201082DE9F04152
:1049300088B00446884615461E469DF83830432206
:104940008DF81C2000228DF81D2013B946238DF808
:104950001C30271DD4F8881038460DF0FAF90221D2
:1049600038460DF007FA4246374906A80EF0C2F85D
:1049700004F168000BF0E2FCA36E591D002B57D028
:104980001A88002301930123009306AB38460DF0EB
:104990005DFAA36E002B4DD01A88B4F860C0B4F84D
:1049A00062E0A16E002947D04B88481D002945D000
:1049B000B1F80080CDF814E0CDF810C000210391CB
:1049C0000291CDF804800090314628460CF0BCFAE4
:1049D000A36E002B35D0198808310D44ADB2B4F860
:1049E0006030B4F862200392029308220192174BC0
:1049F00000930523314628460CF040FAD4F88C1079
:104A000038460DF0A6F938460DF06EFA05F10801AA
:104A100056FA80F292B2013AB4F86230009307ABD2
:104A200092B289B238460DF0FBF908B0BDE8F081CA
:104A30000022A6E70022B0E70023B6E74FF0000807
:104A4000B8E70021C8E700BF2C3C01089C320108F0
:104A50002DE9F04385B00746084615461E46BDF8C9
:104A600030406422142106F054F88046A5F1140960
:104A70001FFA89F9331B9BB20133B7F8602000920B
:104A80009BB21422214648460BF03CFEB7F8623038
:104A900002930194CDF8009023462A4631462846D9
:104AA0000CF0EFF8B8F1000F02D105B0BDE8F083CB
:104AB000341B0094002364221946404606F016F881
:104AC00084B214230093002364221946404606F062
:104AD0000DF880B2331B9BB2281A80B2B7F862205F
:104AE0000292019300902A46314628460CF0EAF8DB
:104AF000DBE72DE9F04383B00746884615461C46A0
:104B0000BDF82860BDF92C90581F0A32B7F8623002
:104B10000193052300930A2392B2314680B20BF031
:104B2000D8FEB8F1000F21D104EB0800711CA5EBF1
:104B30000802B7F860300093082392B289B280B2BD
:104B40000BF0E0FDB9F1000F0DDD04EB090080B2C0
:104B50000138311FB7F8623000931223032289B263
:104B600080B20BF0CFFD03B0BDE8F083711CB7F845
:104B7000643000930823424689B220460BF0C2FD00
:104B8000D2E700002DE9F04F8FB00446089109925A
:104B90000B939DF868509DF86CB0031DD0F88C10F5
:104BA000984618460DF0D5F840460DF09DF906B22E
:104BB00040460DF0A1F906FA80F0C7B20A974046C8
:104BC0000DF092F906B2CDF81C8040460DF094F934
:104BD00000B2361AF6B205365FFA86FA1FFA8AF67E
:104BE00006F10C081FFA87F9B4F862300093A94B5C
:104BF00009EB0802142107980DF012F90746089AEC
:104C0000A5490DA80DF076FF04F16C030893184632
:104C10000BF094FBE36E591D002B00F009811A88FC
:104C20000023019300930DAB07980DF00FF9781D49
:104C300080B2E36E002B00F0FD801A88B4F860C0EB
:104C4000B4F862E0E16E002900F0F6804B884F1D59
:104C5000002900F0F3800988CDF814E0CDF810C0E9
:104C60004FF0000CCDF80CC0CDF808C001910097B2
:104C700041460CF069F908980BF060FB002D00F03C
:104C8000DF80864BE26E511D002A00F0DB80128827
:104C9000002001900120009007980DF0D7F80BF04C
:104CA00029FCE36E002B00F0CF801A88801A80B2B6
:104CB000143880B2B4F860C0B4F862E0E16E002944
:104CC00000F0C4804B884F1D002900F0C180098886
:104CD000CDF814E0CDF810C04FF0000CCDF80CC0AA
:104CE000CDF808C00191009741460CF02DF90BF06A
:104CF00001FCA36E002B00F0AD801A88801A00EB37
:104D0000D070C0F34F02283A46440F369DF8603009
:104D10000093334692B209992046FFF707FEA36E2F
:104D2000002B00F099805F8857443744BFB2BBF135
:104D3000000F00F09C8009EB07030A9A07EB520072
:104D400080B2B4F86220029201901E2200929BB2BF
:104D50001422394610460BF0B5FF0B9A50490CA8A7
:104D60000DF0C8FE08980BF0E9FAE36E591D002B10
:104D700074D01A880023019300930CAB07980DF0B0
:104D800065F8E36E002B6BD01A88B4F86050B4F865
:104D900062C0E16E002965D04B88481D002963D0B0
:104DA000B1F800E0CDF814C0049500210391029100
:104DB000CDF804E00090394628200CF0C5F80BF03F
:104DC00099FB05460BF09CFBA0F12803A5F114020A
:104DD00000969BB292B29DF864102046FFF738FE11
:104DE000642200219DF8700005F0B4FE05460BF02A
:104DF00081FB40380090002364221946E8B205F098
:104E000075FE86B20BF076FB05460BF079FBA5F13B
:104E100040024FF0FF3301931E3880B200902023F0
:104E200092B231462046FFF764FE0FB0BDE8F08F26
:104E30000022F5E6002201E7002308E700210BE746
:104E4000184B1FE7002223E700222FE700233AE751
:104E500000213DE7002251E7002765E7002289E7AE
:104E6000002292E7002398E74FF0000E9AE70BF03C
:104E700041FBA0F1460292B2E36E43B15B88B4F805
:104E800060100091394614200BF03CFC97E700239A
:104E9000F5E700BFBC3C0108DC3B0108F43B01081E
:104EA0002C3C0108F03B01082DE9F04F8BB0044683
:104EB0000791914698469DF858B09DF85CA0061D54
:104EC000D0F88C1030460CF044FF30460DF00CF852
:104ED000C5B20535EDB205F10C0704F16C0306937C
:104EE00018460BF02BFABBF1000F00F0CD809D4B64
:104EF000E26E511D002A00F0C98012880020019046
:104F00000120009030460CF0A1FF0BF0F3FAE36EA5
:104F1000002B00F0BD801A88801A80B2143880B24D
:104F2000B4F860C0B4F862E0E36E002B00F0B28029
:104F3000B3F802B0591D002B00F0AF801B88CDF8EC
:104F400014E0CDF810C04FF0000CCDF80CC0CDF837
:104F500008C0019300915B4639460BF0F5FF0698B7
:104F60000BF0ECF9BAF1000F0CD0E36E591D002BD9
:104F700000F095801A880023019300937A4B304605
:104F80000CF064FFE36E002B00F08B801A88B4F8FD
:104F900060C0B4F862E0E16E002900F084804B88C4
:104FA000481D002900F08180B1F800A0CDF814E080
:104FB000CDF810C0002103910291CDF804A000901B
:104FC000394628200BF0C0FF3D441435A36E002B5A
:104FD0006ED05A882A44B4F862300093634B92B280
:104FE000282130460CF01CFF00F132029DF85030B1
:104FF00000932B4692B207992046FFF797FC0BF0DF
:1050000079FA07460BF07CFAA0F12803A7F1140205
:1050100000959BB292B29DF854102046FFF718FD00
:105020000BF068FA403885B205EB4507FF08A9EB9D
:105030000803002BB8BF5B421846002B3ADBC0F3D5
:105040008F00874238D3C1454AD300EB550080B268
:105050002A46002105F07EFD1FFA80F90BF050FA78
:105060000746A0F11E039BB26A0801920093202319
:105070002A4649462046FFF73CFD236F0BB11D88A9
:1050800095BB0BB0BDE8F08F394B31E7002235E717
:10509000002241E74FF0000B4CE700234FE70022CE
:1050A00069E7002273E700237AE74FF0000A7DE703
:1050B00000228FE7D81CC2E7C01B4FF47A72002190
:1050C00080B205F047FDEB08009300234FF47A729D
:1050D000194680B205F00AFD17FA80F080B2B2E7F7
:1050E000C0EB550080B2B3E74246224908A80DF054
:1050F00001FD04F170000BF021F9236F591D4BB332
:105100001A88002301930123009308AB30460CF06A
:105110009DFE0BF0EFF9401B00EBD070C0F34F0089
:10512000A7F1460189B2B4F86060B4F86270226FEA
:1051300092B15388541D8AB1B2F800C00597049605
:10514000002203920292CDF804C000942A460BF08C
:10515000FBFE96E70022D4E70023EBE74FF0000CBC
:10516000ECE700BFF43B0108C43C0108C83C01085F
:10517000F03B0108D03C0108F0B589B00446164662
:105180001F46B1F57A7F01D340F2E7310A461E4946
:1051900007A80DF0AFFC251DD4F88C1028460CF0A4
:1051A000D8FD04F16C000BF0C9F8E36E591D1BB378
:1051B0001A88002301939DF83830009307AB2846E6
:1051C0000CF044FEE36ECBB11A88B4F86050E16E87
:1051D000B1B14B88481DA9B10C88BDF83C100591B0
:1051E00004950021039102910194009039463046C4
:1051F0000BF0AAFE09B0F0BD0022DAE70022E4E7D6
:105200000023E7E70024E8E7DC3B010800B583B0B2
:1052100062B1B0F88030B0F86220019201220092B1
:105220000A22FFF7A9FF03B05DF804FBB0F87E3057
:10523000F1E700002DE9F04F8FB00646041DD0F8CD
:105240008C1020460CF085FD20460CF04DFEC0B2BF
:105250000530C3B206939BB205931E330793736F59
:10526000002B00F0A1801A88002A00F09D805B8846
:1052700008935A080992D2B20B92DBB2013BDBB21F
:105280000A9396F85E3043B1B6F850900024049427
:10529000DFF8B4A247F6FF7804E0B6F85C90F5E7D3
:1052A0000134E4B24F464C4517DA06F150051FFAB7
:1052B00084FB5946284600F01FFE074659462846FB
:1052C00000F026FEB84500DDB846BA4500DABA4619
:1052D000049B8342E4D20490E2E7B8F1000F66DB5E
:1052E000D04500DCD046089B059AA3EB020B1FFAC1
:1052F0008BFB06F1740A50460CF0D5F900250D958C
:105300000C957B1E9D4257DB9DF82420736F002B6C
:1053100000F00C811B8801210091002150460CF007
:1053200055FAF36E002B00F003811C881434A4B2EC
:10533000736F002B00F0FE80B3F800B0736F002B8A
:1053400000F0FB80DD1D002B00F0F9801F88002B92
:1053500000F0F78093F8059050460CF025FA039082
:10536000CDF8089001970095089B5A46079F39464B
:1053700020460BF0B9FE069B5C083B1BB6F8642088
:105380000192022500959BB200221FFA88F1304657
:10539000FFF7F2FEB6F8663001930095E31900229C
:1053A00004993046FFF7E8FE0FB0BDE8F08FC8F172
:1053B00000030FFA83F893E7BDF93030ADF83430CD
:1053C000B8F1000F12D19DF82430ADF83030BDF99E
:1053D0003230ADF83630049B002B5BD10A9BADF820
:1053E0003230002D7CD10135ADB28AE7294606F175
:1053F000500000F081FD002824DD07EE900AB8EE91
:10540000E77ADDED0B7AF8EE677A67EE277A07EE3A
:10541000108AB8EEC70A87EE800A0DF08FF8DDED2E
:105420000B7AF8EEE77A77EEC07AFDEEE77A17EEC0
:10543000903A1BB2ADF83030002BC8DC0123ADF838
:105440003030C4E7404200B207EE900AB8EEE77A87
:10545000DDED0B7AF8EE677A67EE277A07EE108AB1
:10546000B8EEC70A87EE800A0DF068F8DDED0B7A1A
:10547000F8EEE77A77EE807AFDEEE77A17EE903A6B
:105480001BB2ADF83030089A9342A0DB531EADF842
:1054900030309CE7294606F1500000F039FD07EE58
:1054A000900AB8EE677A07EE90BAF8EE677A67EE80
:1054B000277A9DED047AB8EE470A87EE800A0DF050
:1054C0003DF8BDEEC00A10EE103A1BB25B4502DBA0
:1054D0000BF1FF331BB20A9AD31AADF8323080E7D2
:1054E000012410E099B2531A9BB201339BB20A46D1
:1054F000E4B2691EA01CC0B2009089B250460CF004
:105500007DF9013C64B2002CFFF66DAF0EAB03EBEE
:10551000440333F9081C8AB233F9043C9942E1DCB4
:105520009BB29B1A9BB201339BB2E1E70023F2E6E8
:105530000024FBE64FF0000B00E7002503E70027FF
:1055400005E74FF0000907E70180FFFFF0B40826E8
:10555000067000254560067045608581857345614C
:10556000856185838577C57780F82050456285629F
:10557000C5620587012680F83E60642780F83F7089
:10558000322780F84070042780F84170142780F893
:10559000427040F2DC57A0F844704FF49677A0F8C0
:1055A000467040F6C417A0F8487045610163436334
:1055B0004287BDF810308387858348F20103038159
:1055C00047F6FE734381C673856185770674F0BC28
:1055D000704700234362C1620287B0F8482082818D
:1055E00090F8412002704360704710B5044605F002
:1055F0001FFBA36A984201D2002010BD05F018FBE2
:1056000094F842301844A062218FE06A06F086F9CF
:10561000D8B994F83F104900C9B294F82030B3B11A
:10562000204604F092FF94F84030984202DA0023BA
:1056300084F8203094F82030A3B9636A0BB1E37F7B
:105640004BB300206062E077D7E70021E5E7204612
:1056500004F07BFF94F83F309842EBDD012384F89F
:105660002030E7E705F0E4FA636AC01A53B1A38972
:10567000834207D3B4F84430834219D2E37F33B175
:105680000020BAE705F0D4FA60620020B5E70123F4
:10569000E3770220B1E705F0CBFA636AC01A002372
:1056A0006362A389834201D80020A6E70120A4E712
:1056B0000020A2E7B0F908308B4206DCB0F90A30CE
:1056C0008B4204DB8183012070470020704700205B
:1056D000704770B504469DF810509DF81460028123
:1056E0004381FFF7E7FF2574E573B54200D22674C6
:1056F0009DF81830A37370BD70B50646418F006BDE
:1057000006F00CF9044605F093FA012C20D07369D9
:1057100023B17369C31AB289934218D97061002406
:10572000254604E001231D44EDB20134E4B20F2C00
:1057300007D8B18F706B06F0F1F80128F2D0002382
:10574000F1E708352B0914BF01230023B37770BD9F
:105750007369002BFBD0F27B7369C31AB1898B424A
:105760001CD2B369C31AB6F846108B4200D2327C01
:10577000B061B37FDBB296F83E108B4211D0B38B91
:1057800013441BB2B383B38B1BB2B6F90A20934206
:105790000CDDB37B0BB1B6F90820B2830023736133
:1057A000D5E7B38B9B1A1BB2B383ECE7B38B1BB269
:1057B000B6F908108B42F1DAB37B03B11146B1831D
:1057C000ECE7000041F22803C35C0BB101207047F5
:1057D00010B582B0044601220E490F4809F00AFBB9
:1057E00010B1012002B010BD02AA0B4B42F8043DDB
:1057F00069460A4809F038FF20B9012041F2280320
:10580000E054EFE700220549104609F0F3FA0020C2
:10581000E8E700BF383D0108A81A0020F43F01085E
:1058200041F22803C35C012B08D910B5044609F0E6
:105830001FFE41F228030122E25410BD7047000010
:1058400010B50446FFF7ECFF00220449104609F0AA
:10585000D1FA41F228030022E25410BDF43F0108BE
:1058600030B585B009238DF800304FF48053039391
:105870000023019301238DF801308023029341F22C
:105880002A03C45A20460DF057F878B1054623463E
:105890000246694606480AF061F8B0FA80F46409E5
:1058A00028460DF051F8204605B030BD0024FAE737
:1058B000383D010810B5044601220B490B4809F098
:1058C00099FA08B1002010BD41F23403E05809F004
:1058D0003DFF41F23803E05809F038FF2046FFF75A
:1058E000AFFF0120EFE700BF383D0108A81A0020F4
:1058F00038B5144609B1204638BD054609F0B8FD53
:1059000041F228030122EA54F5E710B40B884888D5
:1059100000EB43008B8803EB4000CB8803EB400394
:10592000087A00EB430391F90E0000EB43000023DB
:10593000042B05DCCC18647A04EB40000133F7E754
:1059400000F17503C87BDCB2A04214BF0020012027
:1059500002B1CB735DF8044B704770B5C8B0044614
:105960000CF048FC10B9012048B070BD2046FFF78C
:1059700029FF00283AD02646012241F22C03E158A3
:10598000204609F05FFAC8B900250023019301AB56
:10599000102202A9304609F055FB019B102B09D1BA
:1059A000002202A92046FFF7B0FF0028EDD0013504
:1059B000ADB2EAE7204609F05BFD35B902A941F234
:1059C0003003E05809F023FE20B12046FFF738FFEE
:1059D0000020C9E741F22C05605909F0B7FE615972
:1059E00041F23003E05809F017FFEEE70220BBE771
:1059F000F0B587B004460F4616461D46FFF7E2FE97
:105A0000002855D041F22803E35C022B0AD141F271
:105A10002803E35C022B16D0012229462046FFF71B
:105A200067FF46E02046FFF7FBFE012241F22C0310
:105A3000E158204609F006FA0028E8D141F228038F
:105A40000222E254E3E73101204609F025FD88B93E
:105A500006AB002243F8042D102201A9204609F0CC
:105A6000F1FA059B102B0BD0012229462046FFF7A7
:105A70003FFF1EE0032229462046FFF739FF18E0CA
:105A8000002201A92046FFF740FF58B101AE0FCE1A
:105A900038607960BA60FB60002229462046FFF733
:105AA00027FF06E0022229462046FFF721FF00E0FB
:105AB000012007B0F0BD30B4088800240C807523A5
:105AC0001B2C07D85B009BB20D5D2B449BB20134AD
:105AD000E4B2F5E7834214BF0020012002B10B803D
