:020000040800F2
:1000000000000120E90A01083D0901083F09010833
:1000100041090108430901084509010800000000E1
:100020000000000000000000000000004709010877
:1000300049090108000000004B0901084D090108A9
:10004000390B0108390B0108390B0108390B01087C
:10005000390B0108390B0108F92E00081D2F000883
:10006000390B0108390B0108390B0108390B01085C
:10007000390B0108390B0108390B0108390B01084C
:10008000390B0108390B0108390B01080000000089
:10009000000000000000000000000000390B010813
:1000A000390B0108390B0108390B01085509010802
:1000B00065090108390B0108390B0108390B0108E2
:1000C000390B0108390B0108390B0108390B0108FC
:1000D000390B0108390B0108390B01080000000039
:1000E000390B0108390B0108390B01080000000029
:1000F000000000000000000000000000390B0108B3
:1001000000000000390B0108390B0108390B010808
:1001100000000000000000000000000000000000DF
:1001200075090108390B0108390B01088509010817
:10013000390B010800000000000000000000000072
:10014000000000000000000000000000390B010862
:10015000390B0108390B0108390B0108390B01086B
:10016000390B0108390B01080000000000000000F5
:10017000000000000000000000000000000000007F
:1001800000000000390B0108000000000000000022
:04019000390B01081E
:1001A00010B5054C237833B9044B13B10448AFF3B1
:1001B00000800123237010BD7C020020000000009D
:1001C00038B2010808B5034B1BB103490348AFF32C
:1001D000008008BD000000008002002038B2010845
:1001E00001F0FF01102A2BDB10F0070F08D010F8E8
:1001F000013B013A8B422DD010F0070F42B3F6D1EC
:10020000F0B441EA012141EA014122F007047FF004
:1002100000070023F0E80256083C85EA010586EA5B
:10022000010685FA47F5A3FA87F586FA47F6A5FA97
:1002300087F68EB9EED1F0BC01F0FF0102F00702A3
:1002400032B110F8013B013A83EA010313B1F8D14E
:100250000020704701387047002D06BF354603382F
:10026000073815F0010F07D1013015F4807F02BF68
:10027000013015F4C03F0130F0BC0138704700BFB9
:1002800010F8012B11F8013B012A28BF9A42F7D040
:10029000D01A7047034613F8012B002AFBD1181A15
:1002A0000138704781F0004102E000BF83F0004355
:1002B00030B54FEA41044FEA430594EA050F08BF01
:1002C00090EA020F1FBF54EA000C55EA020C7FEAC5
:1002D000645C7FEA655C00F0E2804FEA5454D4EB42
:1002E0005555B8BF6D420CDD2C4480EA020281EA0C
:1002F000030382EA000083EA010180EA020281EA44
:100300000303362D88BF30BD11F0004F4FEA013195
:100310004FF4801C4CEA113102D0404261EB4101A4
:1003200013F0004F4FEA03334CEA133302D052422A
:1003300063EB430394EA050F00F0A780A4F10104E6
:10034000D5F1200E0DDB02FA0EFC22FA05F2801820
:1003500041F1000103FA0EF2801843FA05F3594106
:100360000EE0A5F120050EF1200E012A03FA0EFC85
:1003700028BF4CF0020C43FA05F3C01851EBE371AF
:1003800001F0004507D54FF0000EDCF1000C7EEBCC
:1003900000006EEB0101B1F5801F1BD3B1F5001F0A
:1003A0000CD349085FEA30004FEA3C0C04F1010429
:1003B0004FEA445212F5800F80F09A80BCF1004F52
:1003C00008BF5FEA500C50F1000041EB045141EAD4
:1003D000050130BD5FEA4C0C404141EB0101013C9D
:1003E00028BFB1F5801FE9D291F0000F04BF01468C
:1003F0000020B1FA81F308BF2033A3F10B03B3F15E
:1004000020020CDA0C3208DD02F1140CC2F10C02ED
:1004100001FA0CF021FA02F10CE002F11402D8BF4B
:10042000C2F1200C01FA02F120FA0CFCDCBF41EA17
:100430000C019040E41AA2BF01EB0451294330BDE6
:100440006FEA04041F3C1CDA0C340EDC04F11404C3
:10045000C4F1200220FA04F001FA02F340EA03009A
:1004600021FA04F345EA030130BDC4F10C04C4F1E0
:10047000200220FA02F001FA04F340EA03002946C0
:1004800030BD21FA04F0294630BD94F0000F83F40A
:10049000801306BF81F480110134013D4EE77FEAED
:1004A000645C18BF7FEA655C29D094EA050F08BF39
:1004B00090EA020F05D054EA000C04BF194610461A
:1004C00030BD91EA030F1EBF0021002030BD5FEA5E
:1004D000545C05D14000494128BF41F0004130BD86
:1004E00014F580043CBF01F5801130BD01F00045DA
:1004F00045F0FE4141F470014FF0000030BD7FEA4D
:10050000645C1ABF194610467FEA655C1CBF0B4647
:10051000024650EA013406BF52EA033591EA030F5E
:1005200041F4002130BD00BF90F0000F04BF002156
:10053000704730B54FF4806404F132044FF0000589
:100540004FF0000150E700BF90F0000F04BF002102
:10055000704730B54FF4806404F1320410F0004568
:1005600048BF40424FF000013EE700BF42004FEA63
:10057000E2014FEA31014FEA02701FBF12F07F43E0
:1005800093F07F4F81F06051704732F07F4208BF97
:10059000704793F07F4F04BF41F40021704730B59E
:1005A0004FF4607401F0004521F000411CE700BFEA
:1005B00050EA010208BF704730B54FF000050AE06D
:1005C00050EA010208BF704730B511F0004502D56E
:1005D000404261EB41014FF4806404F132045FEA70
:1005E000915C3FF4D8AE4FF003025FEADC0C18BF19
:1005F00003325FEADC0C18BF033202EBDC02C2F10B
:10060000200300FA03FC20FA02F001FA03FE40EA9C
:100610000E0021FA02F11444BDE600BF70B54FF0A0
:10062000FF0C4CF4E06C1CEA11541DBF1CEA13557E
:1006300094EA0C0F95EA0C0F00F0DEF82C4481EAE6
:10064000030621EA4C5123EA4C5350EA013518BF06
:1006500052EA033541F4801143F4801338D0A0FBF3
:1006600002CE4FF00005E1FB02E506F00042E0FBA0
:1006700003E54FF00006E1FB03569CF0000F18BFA6
:100680004EF0010EA4F1FF04B6F5007F64F540744E
:1006900004D25FEA4E0E6D4146EB060642EAC621E1
:1006A00041EA55514FEAC52040EA5E504FEACE2E4E
:1006B000B4F1FD0C88BFBCF5E06F1ED8BEF1004F51
:1006C00008BF5FEA500E50F1000041EB045170BDCD
:1006D00006F0004646EA010140EA020081EA030111
:1006E000B4EB5C04C2BFD4EB0C0541EA045170BD0D
:1006F00041F480114FF0000E013C00F3AB8014F187
:10070000360FDEBF002001F0004170BDC4F10004CF
:10071000203C35DA0C341BDC04F11404C4F1200550
:1007200000FA05F320FA04F001FA05F240EA0200AB
:1007300001F0004221F0004110EBD37021FA04F6E1
:1007400042EB06015EEA430E08BF20EAD37070BD9B
:10075000C4F10C04C4F1200500FA04F320FA05F0FA
:1007600001FA04F240EA020001F0004110EBD370FC
:1007700041F100015EEA430E08BF20EAD37070BD6C
:10078000C4F1200500FA05F24EEA020E20FA04F345
:1007900001FA05F243EA020321FA04F001F00041F4
:1007A00021FA04F220EA020000EBD3705EEA430E65
:1007B00008BF20EAD37070BD94F0000F0FD101F094
:1007C0000046400041EB010111F4801F08BF013CCD
:1007D000F7D041EA060195F0000F18BF704703F00B
:1007E0000046520043EB030313F4801F08BF013D92
:1007F000F7D043EA0603704794EA0C0F0CEA13554E
:1008000018BF95EA0C0F0CD050EA410618BF52EA07
:100810004306D1D181EA030101F000414FF000000D
:1008200070BD50EA410606BF1046194652EA43061B
:1008300019D094EA0C0F02D150EA013613D195EA8F
:100840000C0F05D152EA03361CBF104619460AD1D7
:1008500081EA030101F0004141F0FE4141F47001E1
:100860004FF0000070BD41F0FE4141F4780170BDD1
:1008700070B54FF0FF0C4CF4E06C1CEA11541DBF36
:100880001CEA135594EA0C0F95EA0C0F00F0A7F838
:10089000A4EB050481EA030E52EA03354FEA013165
:1008A00000F088804FEA03334FF0805545EA131378
:1008B00043EA12634FEA022245EA111545EA106540
:1008C0004FEA00260EF000419D4208BF964244F1D7
:1008D000FD0404F5407402D25B084FEA3202B61AF6
:1008E00065EB03055B084FEA32024FF480104FF4CA
:1008F000002CB6EB020E75EB030E22BFB61A75463E
:1009000040EA0C005B084FEA3202B6EB020E75EBD0
:10091000030E22BFB61A754640EA5C005B084FEA38
:100920003202B6EB020E75EB030E22BFB61A754605
:1009300040EA9C005B084FEA3202B6EB020E75EB10
:10094000030E22BFB61A754640EADC0055EA060ED1
:1009500018D04FEA051545EA16754FEA06164FEA14
:10096000C30343EA52734FEAC2025FEA1C1CC0D1C0
:1009700011F4801F0BD141EA00014FF000004FF04D
:10098000004CB6E711F4801F04BF01430020B4F10E
:10099000FD0C88BFBCF5E06F3FF6AFAEB5EB030CC6
:1009A00004BFB6EB020C5FEA500C50F1000041EBC3
:1009B000045170BD0EF0004E4EEA113114EB5C0490
:1009C000C2BFD4EB0C0541EA045170BD41F4801163
:1009D0004FF0000E013C90E645EA060E8DE60CEA6B
:1009E000135594EA0C0F08BF95EA0C0F3FF43BAF88
:1009F00094EA0C0F0AD150EA01347FF434AF95EA3F
:100A00000C0F7FF425AF104619462CE795EA0C0F22
:100A100006D152EA03353FF4FDAE1046194622E7EF
:100A200050EA410618BF52EA43067FF4C5AE50EAC9
:100A300041047FF40DAF52EA43057FF4EBAE12E7B9
:100A40004FF0FF3C06E000BF4FF0010C02E000BF9A
:100A50004FF0010C4DF804CD4FEA410C7FEA6C5C7D
:100A60004FEA430C18BF7FEA6C5C1BD001B050EA20
:100A7000410C0CBF52EA430C91EA030F02BF90EA0B
:100A8000020F0020704710F1000F91EA030F58BFCA
:100A9000994208BF90422CBFD8176FEAE37040F02C
:100AA000010070474FEA410C7FEA6C5C02D150EACA
:100AB000013C07D14FEA430C7FEA6C5CD6D152EA85
:100AC000033CD3D05DF8040B704700BF844610464A
:100AD00062468C461946634600E000BF01B5FFF749
:100AE000B7FF002848BF10F1000F01BD4DF808ED19
:100AF000FFF7F4FF0CBF012000205DF808FB00BFEA
:100B00004DF808EDFFF7EAFF34BF012000205DF843
:100B100008FB00BF4DF808EDFFF7E0FF94BF012090
:100B200000205DF808FB00BF4DF808EDFFF7CEFF91
:100B300094BF012000205DF808FB00BF4DF808EDD0
:100B4000FFF7C4FF34BF012000205DF808FB00BFA1
:100B50004FEA410C7FEA6C5C02D150EA013C0AD1B9
:100B60004FEA430C7FEA6C5C02D152EA033C02D1AB
:100B70004FF0000070474FF0010070474FEA41020C
:100B800012F5001215D211D56FF47873B3EB6252DF
:100B900012D94FEAC12343F0004343EA505311F006
:100BA000004F23FA02F018BF404270474FF0000098
:100BB000704750EA013005D111F0004008BF6FF0D6
:100BC000004070474FF00000704700BF4A0011D24C
:100BD00012F5001211D20DD56FF47873B3EB625297
:100BE0000ED44FEAC12343F0004343EA505323FAA3
:100BF00002F070474FF00000704750EA013002D118
:100C00004FF0FF3070474FF0000070474FEA41024D
:100C1000B2F1E04324BFB3F5001CDCF1FE5C0DD95A
:100C200001F0004C4FEAC0024CEA5070B2F1004FA4
:100C300040EB830008BF20F00100704711F0804FA7
:100C400021D113F13872BCBF01F00040704741F46C
:100C500080114FEA5252C2F11802C2F1200C10FA70
:100C60000CF320FA02F018BF40F001004FEAC12354
:100C70004FEAD32303FA0CFC40EA0C0023FA02F3F8
:100C80004FEA4303CCE77FEA625307D150EA0133CE
:100C90001EBF4FF0FE4040F44000704701F000409E
:100CA00040F0FE4040F40000704700BF53B94AB91D
:100CB000002908BF00281CBF4FF0FF314FF0FF3064
:100CC00000F074B9ADF1080C6DE904CE00F006F83F
:100CD000DDF804E0DDE9022304B070472DE9F047B8
:100CE000089D04468E46002B4DD18A42944669D910
:100CF000B2FA82F252B101FA02F3C2F1200120FAF3
:100D000001F10CFA02FC41EA030E94404FEA1C4840
:100D1000210CBEFBF8F61FFA8CF708FB16E341EA3C
:100D2000034306FB07F199420AD91CEB030306F1C2
:100D3000FF3080F01F81994240F21C81023E6344E3
:100D40005B1AA4B2B3FBF8F008FB103344EA034487
:100D500000FB07F7A7420AD91CEB040400F1FF339C
:100D600080F00A81A74240F207816444023840EAD9
:100D70000640E41B00261DB1D4400023C5E9004312
:100D80003146BDE8F0878B4209D9002D00F0EF8095
:100D90000026C5E9000130463146BDE8F087B3FAC8
:100DA00083F6002E4AD18B4202D3824200F2F980B0
:100DB000841A61EB030301209E46002DE0D0C5E9B3
:100DC000004EDDE702B9FFDEB2FA82F2002A40F0FF
:100DD0009280A1EB0C014FEA1C471FFA8CFE012602
:100DE000200CB1FBF7F307FB131140EA01410EFBA6
:100DF00003F0884208D91CEB010103F1FF3802D24D
:100E0000884200F2CB804346091AA4B2B1FBF7F046
:100E100007FB101144EA01440EFB00FEA64508D969
:100E20001CEB040400F1FF3102D2A64500F2BB80A6
:100E30000846A4EB0E0440EA03409CE7C6F12007F5
:100E4000B34022FA07FC4CEA030C20FA07F401FA3B
:100E500006F31C43F9404FEA1C4900FA06F3B1FBC4
:100E6000F9F8200C1FFA8CFE09FB181140EA014129
:100E700008FB0EF0884202FA06F20BD91CEB0101C6
:100E800008F1FF3A80F08880884240F28580A8F11E
:100E900002086144091AA4B2B1FBF9F009FB101170
:100EA00044EA014100FB0EFE8E4508D91CEB01010E
:100EB00000F1FF346CD28E456AD90238614440EAB1
:100EC0000840A0FB0294A1EB0E01A142C846A64631
:100ED00056D353D05DB1B3EB080261EB0E0101FABA
:100EE00007F722FA06F3F1401F43C5E90071002617
:100EF0003146BDE8F087C2F12003D8400CFA02FC6D
:100F000021FA03F3914001434FEA1C471FFA8CFE7C
:100F1000B3FBF7F007FB10360B0C43EA064300FB6C
:100F20000EF69E4204FA02F408D91CEB030300F10A
:100F3000FF382FD29E422DD9023863449B1B89B2C1
:100F4000B3FBF7F607FB163341EA034106FB0EF34A
:100F50008B4208D91CEB010106F1FF3816D28B42F7
:100F600014D9023E6144C91A46EA004638E72E46C3
:100F7000284605E70646E3E61846F8E64B45A9D2BB
:100F8000B9EB020864EB0C0E0138A3E74646EAE72A
:100F9000204694E74046D1E7D0467BE7023B6144D8
:100FA00032E7304609E76444023842E7704700BF41
:100FB00001230370014B00221A64704700080040AF
:100FC00010B54B1E044CE3624908216410460FF033
:100FD00007FE0023236410BD0008004008B5037815
:100FE00003B908BDA0224FF48E71FFF7E9FFF8E7BF
:100FF000037803B9704710B50446A0224FF48E71F0
:10100000FFF7DEFF64200FF0EBFDA0224FF48E719E
:101010002046FFF7D5FF10BD08B5037803B908BD1A
:10102000A02240F61831FFF7CBFFF8E7037803B9A9
:10103000704710B50446A0224FF48E71FFF7C0FF31
:1010400032200FF0CDFD3C2240F618312046FFF74C
:10105000B7FF32200FF0C4FDA02240F28C51204691
:10106000FFF7AEFF10BD09B10020704700F58050BA
:1010700090F85400704700F58053D3F8C830CBB3D4
:1010800070B584B004460D464E0013F81120FF2AB7
:101090001ED00123694606F0B0FB48BB9DF808301E
:1010A00083F001038DF8083001226946204606F0DE
:1010B0006BFD04F58054D4F8C83003F81500D4F85B
:1010C000C83033449DF808205A70012004B070BD28
:1010D00000F581501C3007F025FD014640B1052286
:1010E0000DF1090019F05EFD01238DF80830DBE7F2
:1010F0000020EBE70020704700F58053D3F8C8309C
:10110000002B41D070B505460E4600F581501C30CD
:1011100007F006FD04460246012130460FF0A4FC0C
:10112000C0B205F58055D5F8C820054602EB40034E
:101130005B7813F0010F1AD183B2194641B102EB6B
:101140004100407810F0010F02D1481E81B2F5E74E
:10115000A34208D202EB4300407810F0010F02D105
:1011600001339BB2F4E719B9A3420FD0D8B270BDD6
:10117000A34205D06A1A5D1BAA4203DAC8B2F6E799
:10118000C8B2F4E7D8B2F2E7012070470120EEE7D9
:101190002DE9F04107460C464E888D888B7E13F072
:1011A000010F2BD01F4B1A881F4B198830460FF0A8
:1011B0005BFC06461FFA80F81C4B1A881C4B1988EA
:1011C00028460FF051FC054680B2A37E13F0010FB4
:1011D0001DD0A4F80280A080637E1E2B01D91E239F
:1011E0006376217E3846FFF787FF2076FF220A21AB
:1011F000E07E0FF039FCE076BDE8F08130B20FF010
:101200004BFC86B228B20FF047FC85B2CAE730B279
:101210000FF034FC1FFA80F828B20FF02FFC80B2D8
:10122000D7E700BF9AC601089CC6010892C601080C
:1012300094C601082DE9F04385B006460F46002408
:10124000A04612E00DF10901484607F077FC00B214
:10125000002808DB9DF808302BB107EB400217F897
:101260001030FF2B1DD0013424B206F5815909F14D
:101270001C09484607F054FC84420ADAE5B201230F
:101280002A466946304606F0B8FA0028DAD0012826
:10129000E9D1304606F0B2F95FFA88F005B0BDE852
:1012A000F08307F810509DF80830537008F10108DA
:1012B0001FFA88F8D7E708B500F58053D3F8C810AF
:1012C00009B9002008BDFFF7B5FF0120FAE708B50E
:1012D0004288838E9A4233D18288C38E9A4231D11A
:1012E000C288038F9A422FD1828AB0F846309A4240
:1012F0002CD1827D90F848309A4229D1027E90F814
:101300004A309A4226D1427E90F84B309A4223D1FD
:10131000827E90F84C309A4220D1C27D90F84930BC
:101320009A421DD1C27E90F84D309A421AD11422B1
:1013300000F14F011D3019F021FCA8B9012000E097
:10134000002008BD0020FCE70020FAE70020F8E7B5
:101350000020F6E70020F4E70020F2E70020F0E7A5
:101360000020EEE70020ECE70020EAE708B5EB23D9
:1013700043804FF4967383804FF49663C3800122B9
:10138000027600234376838205218175332181769D
:10139000C37541F649030381252343814FF4396323
:1013A0008381C823C38140230382C32343828023D4
:1013B000C3760277142202491D3019F0F3FB08BDF1
:1013C00088C6010810B50446437F13B104F11D001F
:1013D00010BD142202491D3019F0E4FBF6E700BFEE
:1013E00088C601082DE9F84F044616461D469DF8AB
:1013F00028B09DF82CA09DF830909DF834809DF881
:101400003870837E03F001034176BDF83C20828270
:101410009DF840208275AB420BD0002D3DD0B0F935
:1014200002000FF039FB6080B4F904000FF034FBC8
:10143000A0800023A3760DB10123A3761EB1A37E65
:1014400043F00203A376BBF1000F03D0A37E43F069
:101450000403A376BAF1000F03D0A37E63F07F03E9
:10146000A376B9F1000F03D0A37E43F01003A37657
:10147000B8F1000F03D0A37E43F02003A3761FB181
:10148000A37E43F00803A376FF220A219DF84400BF
:101490000FF0EAFAE076BDE8F88FB0F902000FF03D
:1014A000EDFA6080B4F904000FF0E8FAA080C0E71C
:1014B000418070478180C280704710B5034600F1BB
:1014C000320230301C68D3F804E0D3F808C0D96881
:1014D0001460C2F804E0C2F808C0D16010331032C2
:1014E0008342EFD11B88138010BD38B5044600F548
:1014F00081551C352846FFF7EAFE00B138BD294664
:10150000204606F00CFB2846FFF7D7FFF6E710B59C
:10151000A2B90A6800F58053A3F844204A68A3F8EA
:1015200046208A68A3F8482000F581541C342146DF
:1015300006F0F5FA2046FFF7C0FF10BD0A6800F577
:101540008053A3F84A204A68A3F84C208A68A3F87D
:101550004E20E9E710B500F13203024662301C6804
:10156000D3F804E0D3F808C0D9681460C2F804E0E6
:10157000C2F808C0D160103310328342EFD11B880B
:10158000138010BDC07D000900EB80007047C07D56
:1015900000F00F00013000EB800080007047000079
:1015A0004B2900D94B21B2F5A07F03D8042A03D8D8
:1015B000052201E04FF4A0720B1DDBB20949A1FB2B
:1015C00003139B081B01DBB2C375013A064981FB7B
:1015D00002C1D217C2EBE10202F00F021343C3753E
:1015E000704700BFCDCCCCCC6766666610B50446AC
:1015F00032B94A89134609890EF02EFA204610BDE9
:101600004B8A0A8AC9890EF027FAF7E710B5044613
:101610003AB9C8230A2240F23F210EF01DFA2046B3
:1016200010BD3223402296210EF016FAF7E700B5DE
:10163000B1F800E002EB820C00EB4C0320F81CE058
:10164000B1F802C0A3F802C0B1F804C0A3F804C006
:10165000B1F806C0A3F806C091F808C083F808C026
:1016600091F90E3002EB820200EB420253725DF8F8
:1016700004FB01EB810100EB410191F90900704786
:10168000032905D802EB82020A4430F812007047A1
:101690000020704703290BD8012A04D0083100EB41
:1016A0004100808870470C3100EB41008088704712
:1016B000002070472DE9F04383B004460E46904663
:1016C00000F5855900214846FFF7E4FF074604F579
:1016D000805402463146B4F850000FF0C5F985B287
:1016E000A4F85050424600214846FFF7C9FF009039
:1016F00000233A46314628460FF084F980B203B001
:10170000BDE8F0832DE9F04F85B005460F469046C1
:101710001C4603EB830300EB430292F90990A8EB0C
:10172000090930F813608E4208D804EB840300EBFB
:101730004303DE888E4240D3012617E02246002173
:10174000FFF7A8FF48440090434632460021384640
:101750000FF058F900B240F2E73241460FF084F939
:1017600080B205B0BDE8F08F0136F6B2032E57D82F
:1017700004EB8403334435F813A0BA45F4D9721E40
:1017800004EB84031A4435F812B0711E2246C9B224
:101790002846FFF77FFF00EB0903039322463146FB
:1017A0002846FFF777FF48440090039B524659466E
:1017B00038460FF027F900B2CDE704EB840300EBC5
:1017C0004303B3F802A0564514D922460121FFF77E
:1017D00061FF00EB090B224603212846FFF75AFF61
:1017E000484400905B463246514638460FF00AF9AD
:1017F00000B2B0E722460121FFF74CFF00EB0906DB
:10180000224603212846FFF745FF4844009033460F
:10181000044A1288514638460FF0F4F800B29AE7AD
:10182000002098E798C6010810B5044600F58550D9
:10183000FFF768FF04F5805494F8563013F0010F59
:1018400000D010BD00B20FF019F980B2F9E7000026
:101850002DE9F04F85B00546039116461C4600F56C
:10186000855919464846FFF704FF371A22460021DA
:101870004846FFF70FFFBFB200EB07081FFA88F8D2
:10188000224603214846FFF705FF0744BFB2012C5B
:1018900035D0484BB3F800A0012C34D0464BB3F8F8
:1018A00000B005F5805393F8563013F0010F2ED099
:1018B0005A46514603980FF0D7F81FFA80FA3F4B6B
:1018C000B3F800B0224600214846FFF7D9FE039046
:1018D000224603214846FFF7D3FE0090039B3A4679
:1018E000414650460FF08EF880B2B0EB5B0F25DD1D
:1018F000A0EBAB07BFB24FF00008C1463BE0304B56
:10190000B3F800A0C8E72F4BB3F800B0C9E70FFA4F
:1019100088F00FF0B3F81FFA80F838B20FF0AEF885
:1019200087B20FFA8AF00FF0A9F81FFA80FA0FFABF
:101930008BF00FF0A3F81FFA80FBB9E75F46BBF10D
:10194000000F03DB00EBA707BFB2D4E70BF10307DF
:10195000F8E77B1CB9469FB209E009EB070303EBEC
:10196000D373C3F34F039F421CD0BB461F4608F1FD
:1019700001085FFA88F8B8F1130F17D823463246EA
:1019800039462846FFF750FF82450FD0E5D907EBCF
:101990000B0303EBD373C3F34F039F42D9D0B94674
:1019A0001F46E4E77B1EBB469FB2E0E7384605B022
:1019B000BDE8F08F9CC601089AC6010898C60108C8
:1019C00094C6010892C60108002308E002EB820CCD
:1019D0009C4430F81CC021F813C00133DBB2032B48
:1019E000F4D9704710B54FF0000C0AE031F81C40F4
:1019F00003EB830EE64420F81E400CF1010C5FFA65
:101A00008CFCBCF1030FF1D903EB830100EB410126
:101A10004A7203220A72C988044A1288914204D980
:101A200003EB830300EB4303DA8010BD98C6010883
:101A300001EB810200EB42034FF42A7C20F812C034
:101A40004FF471725A8040F20A529A804FF4C86281
:101A5000DA80044A92F900205A72194601230B7267
:101A6000704700BF90C6010808B5FFF7E1FF08BD49
:101A70000A884B889A4207D28A88934206D2CB883A
:101A80009A4205D30020704700207047002070471D
:101A90000120704770B584B000F58053D3F8C8308A
:101AA000002B41D004460D46012902D011B101227C
:101AB00000E0002213F81220FF2A18D00023694604
:101AC000204605F09AFEC8B99DF8083013F0020FC1
:101AD0001DD004F5855469462046FFF7C9FF064628
:101AE000E0B929462046FFF7A3FF01260CE029466E
:101AF00004F58550FFF79CFF002605E0294604F514
:101B00008550FFF795FF0026304604B070BD29468A
:101B100004F58550FFF78CFF0126F5E72A46694654
:101B20002046FFF784FDEFE70026EDE7F8B5054610
:101B300000F581561C36304606F0F2FF400018F0E2
:101B40005BFE05F58053C3F8C800A8B100240EE081
:101B500005F58053D3F8C820FF2102F81410D3F8FC
:101B6000C83003EB440300225A700134E4B230461B
:101B700006F0D6FF8442EBDB284605F0F6FD04466E
:101B8000D0BB05F58053D3F8C81021B32846FFF722
:101B900051FB074605F581561C363146284605F0AF
:101BA000B8FED0B131462846FFF7F2FA00220121F3
:101BB0002846FFF76FFF05F5805393F85420002166
:101BC0002846FFF767FF05F581501C30FFF775FCCD
:101BD0005FB32046F8BD0746DCE705F581501C30B1
:101BE000FFF7C4FB05F5805696F854102846FFF71A
:101BF00083FA86F85400D9E705F581561C3630463D
:101C0000FFF7B4FB012105F58550FFF711FF012215
:101C100000212846FFF73EFF3046FFF74EFC012C1F
:101C200005D0022C05D00024D3E70124D1E70224FB
:101C3000CFE70324CDE770B504460E4679B90125F8
:101C4000324629462046FFF725FF38B11DB904F575
:101C5000805383F854602046FFF747FC70BD002591
:101C6000EEE72DE9F04184B004460E461D46138888
:101C7000ADF800305388ADF802309388ADF80430E9
:101C8000D388ADF806308DF808509DF928308DF8CE
:101C90000E3000F58053D3F8C8304F0003EB4103FA
:101CA0005D7000F581501C3006F03CFF30B180467D
:101CB000694604F58550FFF7DBFE38B904F5865018
:101CC0000430FFF7B3F904B0BDE8F08105224146C6
:101CD0000DF1090018F066FF00226946204605F064
:101CE00053FFB0F10008E9DB04F586500430FFF73C
:101CF00075F904F58054D4F8C83003F81680D4F888
:101D0000C8301F447D70DEE770B582B005460E46D0
:101D100061B1941B01940F2C0DD82868012C13D0AD
:101D2000A4B12246314618F087FD0FE09142F0D071
:101D30000A4818F02EF8002201A9284618F0E8F801
:101D40002860019BAB60E8E733780370019B6B6010
:101D50002A680021D15402B070BD00BFACB20108A6
:101D6000F0B589B0044608461646114600F5815084
:101D70001C3006F0D7FE054604F1080323604FF03F
:101D80000003421D01462046FFF7BEFF8DB116B18C
:101D90002B784E2B02D1204609B0F0BD626802B10B
:101DA000002204230093224B0021204618F09EF9C4
:101DB000F1E704AE02961F4A4FF00003D11F02A8BC
:101DC000FFF7A2FF234653F8080B0299B14217D040
:101DD000984227D0A7682160039B6360049BA3609F
:101DE00010B30290049700230393029A1370029891
:101DF00004AB9842CFD00499013117F0B1FFCAE784
:101E0000039A2AB9039B636022680021D154EAE750
:101E1000012A04D0002AF5D018F00EFDF2E70B7865
:101E20000370EFE72846D6E704AB0293DBE700BF79
:101E3000D8B20108E7B2010810B5044642B901F56D
:101E4000805393F854202046FFF78AFF204610BDA8
:101E50000022F8E72DE9F04786B0174698469DF82E
:101E6000389000F58053D3F8C8201AB106464C1EAE
:101E7000032513E0002307E003EB430207EB820294
:101E8000002191700133DBB24345F5D3002067E0B8
:101E9000013D15F0FF0525D0013C24B2002C09DDE1
:101EA000B9F1000FF4D002EB44035B7813F0010F9B
:101EB000F2D0EDE7002515E0009802AB984203D080
:101EC0000299013117F04CFF2946414547D201EBF9
:101ED000410007EB8000002383700131C9B2F4E7B1
:101EE000013424B206F581501C3006F019FE8442FC
:101EF000EADA002CF4D0B9F1000F09D006F58053CE
:101F0000D3F8C83003EB44035B7813F0010FE7D03C
:101F100005EB450307EB830AE2B207F8232006F539
:101F20008053D3F8C83003EB44035B788AF8013060
:101F300031466846FFF714FF0A2200990AF10200B1
:101F400018F030FE0135EDB24545B5D2009802AB30
:101F50009842C5D00299013117F002FFC0E7284628
:101F600006B0BDE8F0870000014B0360704700BF7A
:101F7000B0B6010870470000024A0260024A0260DF
:101F8000704700BFD8B60108B0B6010870470020FE
:101F900070470000014B0360704700BF34B7010871
:101FA0000A4B1B783BB100204FF08043586303F588
:101FB00080331864704710B504461422044905485C
:101FC0000EF0E8FF014B1C70012010BDD4760020FC
:101FD000983500202C88002010B50446044B03607F
:101FE000044B0360502117F0BBFE204610BD00BF1C
:101FF000D8B60108B0B6010810B50446034B03601B
:10200000502117F0ADFE204610BD00BFB0B601084C
:1020100010B50446034B0360242117F0A1FE2046AF
:1020200010BD00BF34B7010808B5084616F014FD0E
:1020300008BD08B5084616F001FD08BD08B50846FC
:1020400016F0EEFC08BD08B516F0DCFC08BD08B5BE
:1020500016F0CAFC08BD08B515F022FB08BD00004B
:1020600010B4034600220270E149416000F1100102
:102070008160C2600274DF49016200F12C0141629B
:10208000826280F82C20DC49C16300F148010164C0
:10209000426480F84820D949816500F16401C16536
:1020A000026680F86420D649416700F180018167AB
:1020B000C26780F88020D349C0F8901000F19C01DD
:1020C000C0F89410C0F8982080F89C20CE49C0F841
:1020D000AC1000F1B801C0F8B010C0F8B42080F81E
:1020E000B820CA49C0F8C81000F1D401C0F8CC101B
:1020F000C0F8D02080F8D420C549C0F8E41000F121
:10210000F001C0F8E810C0F8EC2080F8F020C149D8
:10211000C0F8001100F58671C0F80411C0F808215C
:1021200080F80C21BC49C0F81C1100F59471C0F86E
:102130002011C0F8242180F82821B848C3F83801BC
:1021400003F5A271C3F83C11C3F8402183F8442180
:10215000B349C3F8541103F5B071C3F85811C3F86B
:102160005C2183F86021AF49C3F8701103F5BE719B
:10217000C3F87411C3F8782183F87C21AA49C3F805
:102180008C1103F5CC71C3F89011C3F8942183F836
:102190009821A649C3F8A81103F5DA71C3F8AC1168
:1021A000C3F8B02183F8B421A149C3F8C41103F5E1
:1021B000E871C3F8C811C3F8CC2183F8D0219D4938
:1021C000C3F8E01103F5F671C3F8E411C3F8E82190
:1021D00083F8EC219849C3F8FC1103F50271C3F8A8
:1021E0000012C3F8042283F808229449C3F8181295
:1021F00003F50971C3F81C12C3F8202283F82422C6
:102200008F49C3F8341203F51071C3F83812C3F8BC
:102210003C2283F840228B49C3F8501203F5177112
:10222000C3F85412C3F8582283F85C228649C3F8D5
:102230006C1203F51E71C3F87012C3F8742283F890
:1022400078228249C3F8881203F52571C3F88C12ED
:10225000C3F8902283F894227D49C3F8A41203F5B1
:102260002C71C3F8A812C3F8AC2283F8B0227949C4
:10227000C3F8C01203F53371C3F8C412C3F8C822FF
:1022800083F8CC227449C3F8DC1203F53A71C3F821
:10229000E012C3F8E42283F8E8227049C3F8F81288
:1022A00003F54171C3F8FC12C3F8002383F804233B
:1022B0006B49C3F8141303F54871C3F81813C3F836
:1022C0001C2383F820236749C3F8301303F54F71AB
:1022D000C3F83413C3F8382383F83C236249C3F8A6
:1022E0004C1303F55671C3F85013C3F8542383F805
:1022F00058235E49C3F8681303F55D71C3F86C1386
:10230000C3F8702383F874235949C3F8841303F581
:102310006471C3F88813C3F88C2383F8902355495C
:10232000C3F8A01303F56B71C3F8A413C3F8A82373
:1023300083F8AC235049C3F8BC1303F57271C3F89A
:10234000C013C3F8C42383F8C8234C49C3F8D81377
:1023500003F57974C3F8DC43C3F8E02383F8E4237E
:10236000C3F8F40303F58060C3F8F803C3F8FC2353
:1023700083F800244248C3F8100403F21C40C3F859
:102380001404C3F8182483F81C243E48C3F82C0412
:1023900003F58760C3F83004C3F8342483F8382485
:1023A0003948C3F8480403F25440C3F84C04C3F856
:1023B000502483F854243548C3F8640403F58E6030
:1023C000C3F86804C3F86C2483F87024C3F880143D
:1023D00003F28C41C3F88414C3F8882483F88C2456
:1023E0002B49C3F89C1403F59561C3F8A01451E080
:1023F000E8B20108F4B2010800B301080CB3010807
:1024000018B3010828B3010838B3010844B3010820
:1024100050B3010860B3010870B3010878B3010834
:1024200080B301088CB3010894B301089CB3010880
:10243000ACB30108B8B30108C4B30108D0B30108B4
:10244000DCB30108E8B30108F8B3010808B40108D7
:1024500014B4010820B401082CB4010834B40108F4
:102460003CB4010848B4010854B4010860B4010840
:1024700070B401087CB4010888B4010890B4010864
:102480006CB7010898B40108A4B40108B0B40108FD
:10249000C0B40108C3F8A42483F8A824BA49C3F837
:1024A000B81403F2C441C3F8BC14C3F8C02483F8C1
:1024B000C424B649C3F8D41403F59C61C3F8D814F6
:1024C000C3F8DC2483F8E024B149C3F8F01403F224
:1024D000FC41C3F8F414C3F8F82483F8FC24AD4994
:1024E000C3F80C1503F5A361C3F81015C3F8142540
:1024F00083F81825A849C3F8281503F23451C3F806
:102500002C15C3F8302583F83425A449C3F84415A5
:1025100003F5AA61C3F84815C3F84C2583F8502584
:102520009F49C3F8601503F26C51C3F86415C3F8F2
:10253000682583F86C259B49C3F87C1503F5B161C8
:10254000C3F88015C3F8842583F888259649C3F815
:10255000981503F2A451C3F89C15C3F8A02583F87D
:10256000A4259249C3F8B41503F5B861C3F8B815AA
:10257000C3F8BC2583F8C0258D49C3F8D01503F2F4
:10258000DC51C3F8D415C3F8D82583F8DC25894974
:10259000C3F8EC1503F5BF61C3F8F015C3F8F425D3
:1025A00083F8F8258449C3F8081603F21461C3F8C8
:1025B0000C16C3F8102683F814268049C3F8241695
:1025C00003F5C661C3F82816C3F82C2683F8302615
:1025D0007B49C3F8401603F24C61C3F84416C3F8B4
:1025E000482683F84C267749C3F85C1603F5CD617D
:1025F000C3F86016C3F8642683F868267249C3F8E6
:10260000781603F28461C3F87C16C3F8802683F839
:1026100084266E49C3F8941603F5D461C3F898165E
:10262000C3F89C2683F8A0266949C3F8B01603F2C4
:10263000BC61C3F8B416C3F8B82683F8BC26654954
:10264000C3F8CC1603F5DB61C3F8D016C3F8D42663
:1026500083F8D8266049C3F8E81603F2F461C3F89A
:10266000EC16C3F8F02683F8F4265C49C3F8041787
:1026700003F5E261C3F80817C3F80C2783F81027A5
:102680005749C3F8201703F22C71C3F82417C3F875
:10269000282783F82C275349C3F83C1703F5E96131
:1026A000C3F84017C3F8442783F848274E49C3F8B6
:1026B000581703F26471C3F85C17C3F8602783F8F6
:1026C00064274A49C3F8741703F5F061C3F8781713
:1026D000C3F87C2783F880274549C3F8901703F295
:1026E0009C71C3F89417C3F8982783F89C27414935
:1026F000C3F8AC1703F5F761C3F8B017C3F8B427F4
:1027000083F8B8273C49C3F8C81703F2D471C3F85B
:10271000CC17C3F8D02783F8D4273849C3F8E41777
:1027200003F5FE61C3F8E817C3F8EC2783F8F02738
:102730003349C3F8001803F60C01C3F80418C3F8B2
:10274000082883F80C282F49C3F81C1803F6280121
:10275000C3F82018C3F8242883F828282A49C3F886
:10276000381803F64401C3F83C18C3F8402883F82E
:102770004428264A92E80300C3F8540883F85818FE
:1027800018465DF8044B7047C8B40108CCB4010882
:10279000D0B40108D8B40108E0B40108E8B40108D5
:1027A000F0B40108F8B4010800B5010804B5010847
:1027B00008B501080CB5010810B5010818B50108E5
:1027C00020B501082CB5010838B501084CB5010841
:1027D00060B5010870B5010880B5010898B5010819
:1027E000B0B50108B8B50108C0B50108C4B5010805
:1027F000C8B50108D8B50108E4B50108F4B5010869
:1028000004B6010818B6010824B6010850B2010840
:10281000014B1878704700BFFC75002008B50248CE
:102820000DF0D3FD80B208BD5435002038B50EF050
:10283000D1F900F596751B4B5B6A9BB29C1CA4B248
:10284000632C01D9613B9CB20EF0C4F9A84207D2B7
:10285000144B5B6AA342F7D14FF0804300225A62C7
:102860000EF0B8F900F596750E4B5B6A9BB29C1C96
:10287000A4B2632C01D9613B9CB20EF0ABF9A84223
:1028800008D2084B5B6AA342F7D14FF08043586AE5
:1028900080B205E04FF08043D86A80B2013080B248
:1028A00038BD00BF0000014030B585B01F4C01218C
:1028B0000291019100910B460022204604F0E3FDB5
:1028C000A4F6D825284601F0FDFD3B21284602F05C
:1028D000C2F9A4F55464802384F8B832144A12680B
:1028E0005363022507E0114804F059FDC8B91148A7
:1028F00001F092FD88B9104BB3F85C4DE4B2A542EB
:10290000F1D000230093B4FA84F35B0964223E21E2
:102910000A4803F065F92546E5E705200EF060F961
:10292000E9E7B4FA84F0400905B030BD0073002037
:10293000748A002078680020C06500202868002084
:102940002DE9F041884C20460EF024FA64212046FF
:102950000EF0C4FA20460EF00BFC642120460EF067
:10296000BDFA20460EF004FC642120460EF0B6FAB3
:1029700020460EF0FDFB85B2642120460EF0AEFA33
:1029800020460EF0F5FB86B2642120460EF0A6FA32
:1029900020460EF0EDFB87B220460EF07FFA734C16
:1029A0003B4632462946204605F06EFD064604F5B4
:1029B0004054032384F8B13C84F8B03C6C4C0C21A7
:1029C000204610F0C9FC0821204610F029FC694C73
:1029D0000021204610F0C0FC0421204610F0BCFC71
:1029E0000821204610F01CFC0C21204610F018FC99
:1029F0000C21614810F0B0FC604B0A221A700022D2
:102A00005A6019784FF47A7201FB02F25A605C4DF9
:102A1000DFF8B4815B4C2B4642462946204609F03C
:102A2000CDF9594F2B463A462146404609F0C6F9A2
:102A30002B4622462146384609F0C0F92346224655
:102A40002146524809F0BAF9514F234622463946E9
:102A5000504809F0B3F9234622462146384609F08A
:102A6000ADF92346224621464B4809F0A7F9DFF885
:102A70005481234622462146404609F09FF92346C9
:102A80002A462946454809F099F9454F23462246EA
:102A90002146384609F092F9234622462946414804
:102AA00009F08CF92346224629463F4809F086F969
:102AB000234622462146284609F080F93B4D2B4605
:102AC000224621463A4809F079F923462246214612
:102AD000284609F073F9234622464146354809F055
:102AE0006DF93B463A462146334809F067F93348C9
:102AF00001F0E8FC022E1CD0032E23D0012E14D0AE
:102B0000FFF794FEC8200EF06BF8184B03F58052C7
:102B100092F8572003F5405383F8B822284B1868E1
:102B200003681B689847BDE8F081254B164A1A6078
:102B3000E6E7244C00223B2120460AF08DFF204B83
:102B40001C60DDE7FFF7B0FE0028D9D0074804F08D
:102B500067FD0028D4D11B4C00223F2120460AF0FB
:102B60007BFF174B1C60CBE72C880020C035002072
:102B7000E48900202C8A0020BC8A002054350020E3
:102B80009077002048750020AC7600209802002045
:102B9000F40200205C3500201C750020600300203A
:102BA000607700202C77002024030020C4750020CB
:102BB000A07500208C030020D87600202868002013
:102BC00000000020E07400200076002038B50EF0F0
:102BD00001F8444B1B6898423AD8434B186809F0F7
:102BE000F1F8044618B1404B1B6883424FD13E4D6B
:102BF000286803685B68984704462B6883421BD0AB
:102C0000002858D0394D0021284605F05FFD0021ED
:102C100005F5047005F0D4FAA5F67C32002382F89D
:102C2000B13C82F8B03C4FF0804253632E4B1C60A5
:102C300023681B68204698470DF0CCFF2C4B1B687F
:102C400098423AD22B4801F0E7FB002846D138BD24
:102C50000DF0C0FF6430234B1860402126480EF071
:102C600041FF01280FD1642124480DF037FC4FF4B7
:102C7000806123480EF036FF012806D164212148E7
:102C80000DF02CFCA9E70021EEE70021F7E71E4D2F
:102C90002846FEF7ADF90021A5F5657005F016FD93
:102CA0004FF0804300225A630F4B1C6023681B685F
:102CB00020469847CBE7154CA4E715494B6A154ABF
:102CC00010681B1A18BF0123134803704B6A136066
:102CD0000DF080FF2930064B1860B3E705200DF09A
:102CE0007FFFB4E7E4770020000000203C71002063
:102CF000E077002078680020000402405472002031
:102D00000000024064740020D0740020E0740020B1
:102D100000000140DC770020FC75002010B503683E
:102D20001D4A934203D0B3F1804F1FD010BD027FE4
:102D3000042AF8D1194805F05FF9632200210DF04B
:102D400093FE154B18640DF045FF0446144B1B7899
:102D500013B1144B1B6813B9124B1C60E6E7114BFF
:102D60001968411A10480DF016FBF5E7037F042B94
:102D700005D0082BDAD10220FFF712F9D6E74FF081
:102D800080435B6B23B94FF080439B6B002BCDD00E
:102D90000120FFF705F9C9E7000001404C7300204E
:102DA000FC750020943500205435002002684A4B01
:102DB0009A4200D0704710B586B048480EF09CF992
:102DC000474B1B78DBB2022B09D0454B1B78DBB29B
:102DD000012B49D0424B00221A7006B010BD0023CF
:102DE000019302930393132B18D8991C3D4A32F890
:102DF0001110019810FA81F10191D91C32F81110CB
:102E0000029810FA81F10291191D32F811200399EC
:102E100011FA82F203920533DBB2E4E7019B02333D
:102E20000193019B9B080193029B02330293029B37
:102E30009B080293039B02330393039B9B0803931A
:102E40000399294C20460DF0A6FA0199A4F5667065
:102E500005F020FD4FF080435863029989B2A4F534
:102E6000C47005F028F8B5E7002304930593132BED
:102E700010D81C4931F81320049810FA82F20492F9
:102E80005A1C31F81220059911FA82F20592053385
:102E9000DBB2ECE7049B02330493049B9B0804938E
:102EA000059B02330593059B9B0805934FF08043D8
:102EB0005B6B53B94FF080439B6B002B8AD0059915
:102EC00089B20A480DF00AFB84E7049989B20848E0
:102ED0000DF004FBEEE700BF002001402C8800202D
:102EE000D476002098350020D4740020547400203B
:102EF000447200207047000008B5064B5B6913F070
:102F0000010F00D108BD044804F0D0FA014B0122A2
:102F10005A61F7E7003C0140B472002008B5064B47
:102F20005B6913F0020F00D108BD044804F0BEFA3B
:102F3000014B02225A61F7E7003C01400073002078
:102F400038B50C46154605E04FF4FC7154F8040BF7
:102F500016F006FFAC42F7D338BD10B5044603683F
:102F60004BB1426A04324169FFF7EAFF61688900A8
:102F7000206816F0F5FE204610BD2DE9F041884688
:102F80001746CE6804360DE01834A54209D0234612
:102F900053F8080B9842F7D0A168013116F0E0FE13
:102FA000F2E70436FB68B34203D9346804F5FC75D4
:102FB000EBE7D8F80C20934221D0D8F80040D8F89D
:102FC000085000E01834A54209D0234653F8080BF6
:102FD0009842F7D0A168013116F0C2FEF2E77C6892
:102FE0003D6800E01834A5421AD0234653F8080B78
:102FF0009842F7D0A168013116F0B2FEF2E7D8F896
:1030000000403D6800E01834A54209D0234653F83B
:10301000080B9842F7D0A168013116F0A1FEF2E743
:10302000BDE8F08138B50C46154605E04FF4FC705C
:1030300016F098FE44F8040BAC42F7D338BD0000FC
:103040002DE9F04383B004460D46274BA3FB012333
:10305000CA1A03EB52031B095E1C082200920333B9
:10306000019393423BD86B4618686060B0F1005FF3
:1030700037D2800016F076FE804620606768BF1B5E
:103080007F0800EB870909EB860632464946204651
:10309000FFF7C8FFC4F8149058F82730E36003F531
:1030A000FC722261321F626256F8042CE26102F562
:1030B000FC712162A3600C4BA3FB0513E91A03EB1F
:1030C00051031B0903EB4303C3EBC303EB1A03EBED
:1030D000430302EBC303A36103B0BDE8F08301AB7C
:1030E000C2E716F053FE00BF876118862DE9F04F46
:1030F00083B0824600F58055002485F828404FF4BF
:1031000080536B85D64BEB62D64B2B63D64B6B63F0
:10311000D64BAB63D64B03CBC5F8B400C5F8B8109B
:1031200003CBC5F8BC00C5F8C0100AF586500430C2
:10313000FDF73EFFC5F8C8400AF586560C3642F248
:10314000600906EB0905DFF85CB346F809B0C94B26
:1031500046F8093005F10C036B60AC602C7305F187
:103160001C074FF0280842462146384617F08CFBD2
:10317000EC612C626C62AC62EC622C636C63AC63DD
:10318000EC632C6421463846FFF75AFF05F14407EB
:1031900042462146384617F077FB6C64AC64EC6419
:1031A0002C656C65AC65EC652C666C66AC6621467E
:1031B0003846FFF745FFB04B46F8093005F1740378
:1031C000EB662C6785F8744005F18C03C5F88430F4
:1031D000C5F8884085F88C4005F1A403C5F89C30FB
:1031E000C5F8A04085F8A440C5F8B440C5F8B8407B
:1031F000C5F8BC4042F22013F71846F803B09D4AC8
:10320000F25007F10C037B60BC603C7307F11C05B6
:1032100042462146284617F037FBFC613C627C623F
:10322000BC62FC623C637C63BC63FC633C6421461F
:103230002846FFF705FF07F1440542462146284688
:1032400017F022FB7C64BC64FC643C657C65BC6557
:10325000FC653C667C66BC6621462846FFF7F0FEAE
:1032600006F50056854BC6F82031C6F88C4186F825
:103270009041C6F89441824BC6F8983143F26826D3
:103280000AEB0605281D16F0BFFA7E4B4AF80630F9
:103290007D4B4AF8063085F85040A5F85440AC659F
:1032A000EC65A5F8604085F8624005F16400FEF722
:1032B000D7FE764B4AF80630754BC5F8C038A5F8EE
:1032C000C4484FF6FF72A5F8C6284FF47841A5F818
:1032D000C8181F21A5F8CA184FF6E071A5F8CC1838
:1032E0004CF21861A5F8CE1885F8D048C5F8D44836
:1032F000C5F8D848C5F8DC48C5F8E048C5F8E44842
:10330000C5F8E84885F8EC289622A5F8EE28A5F837
:10331000F048A5F8F248A5F8F448A5F8F648C82200
:10332000A5F8F8286E22A5F8FA285A22A5F8FC2854
:103330004FF03C01A5F8FE18A5F800292022A5F8B9
:1033400002291922A5F80429524AC5F80829C5F806
:103350000C39C5F8103943F67C310AEB01034FF004
:103360001408C3F804801C815C81DC604FF00A0BF8
:10337000C3F810B0C3F814B09C614FF00B009883F1
:1033800044F620621A6203F124024348077882F867
:10339000424082F8404082F8417082F8864082F8CC
:1033A000844082F8857082F8CA4082F8C84082F86A
:1033B000C970A2F8CC40A2F8CE40A2F8D040A2F842
:1033C000D24082F8D440C2F8D84082F8DC4082F87B
:1033D000DD40A2F8DE40A2F8E040A2F8E2402F4A29
:1033E0004AF80120082583F80851C3F80C4183F8F6
:1033F0000851C3F80C4183F8104183F811414FF490
:10340000C879A3F812914FF4FA76A3F8146183F8FF
:103410001851C3F81C4183F81851C3F81C4183F8B4
:10342000204183F82141A3F82291A3F824611C4A8A
:103430004AF80120A3F82841A3F82A41A3F82C4117
:10344000A3F82E4183F8304183F83141A3F832418B
:1034500083F8344183F8354183F8385124E000BFC4
:1034600038B6010844B6010850B601085CB6010838
:1034700058B2010814C3010848C301087CC30108FD
:10348000A0C60108B0B60108D8B601084CC00108B2
:10349000C0CB010894C0010887C6010874B60108B2
:1034A00064C2010800B70108C3F83C4183F83851F1
:1034B000C3F83C4183F84051C3F8444183F840517C
:1034C000C3F8444183F84851C3F84C4183F848514C
:1034D000C3F84C4183F85051C3F8544183F850511C
:1034E000C3F8544183F85851C3F85C4183F85851EC
:1034F000C3F85C4183F860414FF4F562A3F86221A0
:103500004FF47A71A3F8641183F866816422A3F8FA
:10351000682183F86A51A3F86C61A3F86E11032245
:1035200083F870210E2283F8712183F872810522BD
:1035300083F873214FF0020C83F874C101230093C8
:10354000814B4FF4807281490AF57350343003F097
:10355000CAFE022300937C4B4FF400427C490AF5DB
:10356000755003F0C0FE43F68C510AEB0103C3F81B
:1035700004801C815C81DC60C3F810B0C3F814B017
:103580009C614FF00B00988344F62060186203F1B1
:10359000240282F8424082F8404082F8417082F86A
:1035A000864082F8844082F8857082F8CA4082F8AA
:1035B000C84082F8C970A2F8CC40A2F8CE40A2F868
:1035C000D040A2F8D24082F8D440C2F8D84082F865
:1035D000DC4082F8DD40A2F8DE40A2F8E040A2F82C
:1035E000E2405C4A4AF8012083F80851C3F80C41D4
:1035F00083F80851C3F80C4183F8104183F8114156
:10360000A3F81291A3F8146183F81851C3F81C4170
:1036100083F81851C3F81C4183F8204183F82141F5
:10362000A3F82291A3F824614B4A4AF8012083F8B9
:10363000284183F8294183F82A414FF0010083F89B
:103640002B01A3F82C41A3F82E41C3F83041C3F855
:103650003441424A127883F83851C3F83C4183F828
:103660003821C3F83C4183F84051C3F8444183F802
:103670004021C3F8444183F84851C3F84C4183F8D2
:103680004851C3F84C4183F85051C3F8544183F872
:103690005051C3F8544183F85851C3F85C4183F842
:1036A0005851C3F85C41A3F8604183F86241462257
:1036B00083F86321632283F864214FF41672A3F820
:1036C000662140F2CF72A3F868214FF4C862A3F8D4
:1036D0006A214FF44872A3F86C214FF03C02A3F822
:1036E0006E211F4AC3F870214EF66022C3F8742180
:1036F000A3F878614FF47A71A3F87A111E2683F843
:103700007C614FF03C0283F87D2183F87EB1012279
:10371000C3F880210AF57C501030FDF749FC0AF50A
:10372000405383F8145FC3F8184F83F8145FC3F84D
:10373000184F83F81C6F40F63C72A3F81E2F5046BA
:1037400003B0BDE8F08F00BF00040240000002405B
:103750000008024074B6010828C2010896C6010894
:10376000407E0500F0B5A1B005460746554B47F829
:10377000B43BD0F8B4407E6800E04834A6421BD089
:10378000206B04F13803984203D0A16B013116F08D
:10379000E7FAA06904F12003984203D0216A0131BD
:1037A00016F0DEFA234653F8080B9842E5D0A168DC
:1037B000013116F0D5FAE0E7D5F8B400B968091A76
:1037C00008B116F0CDFA05F16C04D5F89C0005F1AE
:1037D000A403984204D0D5F8A410013116F0C0FA21
:1037E000A06904F12003984203D0216A013116F048
:1037F000B7FAE86E04F10803984203D0A1680131DA
:1038000016F0AEFA2C46304B44F8443BD4F808E0AE
:10381000CDF830E0D4F80CC0CDF834C027690E974D
:1038200066690F96A0690890E1690991226A0A9277
:10383000636A0B93CDF850E0CDF854C016971796F5
:10384000109011911292139310AA14A92046FFF719
:1038500094FB2046FFF781FB05F11C04D5F824E01A
:10386000CDF810E0D5F828C0CDF814C0EF6A06975F
:103870002E6B0796686B0090A96B0191EA6B029220
:103880002B6C0393CDF870E0CDF874C01E971F9693
:10389000189019911A921B9318AA1CA92046FFF799
:1038A0006CFB2046FFF759FB686805F10C03984252
:1038B00003D0E968013116F053FA044B2B60284617
:1038C00021B0F0BD48C3010814C3010800B70108C6
:1038D0002DE9F04FA9B005460E46012808D025B9BC
:1038E0004FF6FF739E4200F0AF8229B0BDE8F08F23
:1038F0004FF6FF739942F2D1B94B4FF0080883F8A5
:10390000008000245C6083F800805C60B54F38461E
:10391000FFF7ECFBB44BDFF828A3C3F800A01C7141
:103920009C609C811C615C619C61DC611C629F608D
:10393000AE4A1A6083F824809C62052283F8242012
:103940009C62DC621C635C639C639C87DC87A3F8DD
:10395000404083F842404FF0010983F8439083F8D8
:10396000449083F845409C64DC644FF4FA72A3F8F9
:10397000502040F6B830A3F8520040F2DC51A3F8D2
:1039800054109B4BC3F800A01C719C609C811C616F
:103990005C619C61DC611C629F60964A1A60C3F89E
:1039A0009C4083F8A040C3F8A44083F8A840924B01
:1039B000C3F800A01C719C609C811C615C619C61CF
:1039C000DC611C629F608D4A1A604FF0FF3283F801
:1039D00024208B4AC2F800A0147194609481146171
:1039E00054619461D46114629760864B136082F8CD
:1039F0002440A2F8464082F848404FF0030BA2F85A
:103A00004AB0D464146582F854404FF41673A2F897
:103A100056309065DFF82C82C8F800A088F8044082
:103A2000C8F80840A8F80C40C8F81040C8F814407E
:103A3000C8F81840C8F81C40C8F82040C8F80870FA
:103A4000714BC8F8003088F8244088F82E4088F878
:103A50002F40C8F830400423A8F83430A8F83610B6
:103A600043463946694808F02FFD694BC3F800A06A
:103A70001C719C609C811C615C619C61DC611C62AE
:103A80009F60644A1A609C8483F8269083F82740DC
:103A90009C62DFF8B491C9F800A089F80440C9F825
:103AA0000840A9F80C40C9F81040C9F81440C9F8FA
:103AB0001840C9F81C40C9F82040C9F808704A46A7
:103AC000554942F8241BC9F8244054609460D460DE
:103AD00014614FF04C0189F83810504AC2F800A028
:103AE000147194609481146154619461D46114627E
:103AF00097604B49116082F82440D48482F82840B2
:103B000082F829404749C1F800A00C718C608C8173
:103B10000C614C618C61CC610C628F60424A0A601E
:103B20004C6281F8284081F8294081F82A4081F8C8
:103B30002B4081F82C40A1F82EB03C4AC2F800A0DE
:103B4000147194609481146154619461D46114621D
:103B50009760374810600620908441F2883CC2F894
:103B600028C082F82C401463546394639487D487EC
:103B7000A2F84040A2F84240A2F844404FF0FA0CAC
:103B8000A2F846C082F84840A2F84A40A2F84C0089
:103B90004FF4FA601065009142463946254808F016
:103BA000AFFC254BC3F800A01C719C609C811C617C
:103BB0005C619C61DC611C629F60204A1A60DFF8D6
:103BC0008C80C8F800A088F80440C8F80840A8F81D
:103BD0000C40C8F81040C8F81440C8F8184037E046
:103BE00054350020C03500204875002044C5010828
:103BF00000760020E4C40108AC760020FCC4010873
:103C0000980200208CC5010884C40108F402002039
:103C10001C7500202CC501089CC40108600300200D
:103C2000B4C401086077002014C50108D8760020CC
:103C3000D4C501082C770020A075002074C50108A8
:103C400034B701085C350020E07400208C030020AC
:103C5000C8F81C40C8F82040C8F808708C4BC8F859
:103C60000030C8F82440A8F828408A4B8A490B60E5
:103C70000B468A4A43F80C2B4B608C600C7301F1A5
:103C80001C0B28222146584616F0FEFDABF11C0104
:103C9000CC61CBF80440CBF80840CBF80C40CBF813
:103CA0001040CBF81440CBF81840CBF81C40CBF8B0
:103CB0002040CBF8244021465846FFF7C1F9ABF12C
:103CC0001C0101F1440B28222146584616F0DCFD68
:103CD000ABF144014C64CBF80440CBF80840CBF87E
:103CE0000C40CBF81040CBF81440CBF81840CBF880
:103CF0001C40CBF82040CBF8244021465846FFF723
:103D00009FF908F5405B664BCBF8C4300BF59C730C
:103D1000CBF83031CBF834418BF838411833CBF83D
:103D20004831CBF84C418BF850411833CBF8603117
:103D3000CBF864418BF86841CBF87841CBF87C41F3
:103D4000CBF88041CBF88441564BCBF88831564BA9
:103D500093E80300CBF88C01ABF890118BF89441F9
:103D6000ABF896410BF5D073CBF898314F4A4FF032
:103D70000003511E0BF5CC70FDF7C6FFCBF8B04128
:103D8000CBF8B441CBF8B8414FF0FF328BF8BC21EF
:103D90008BF8BD414FF04C018BF8BE114EF66023FD
:103DA000CBF8C431CBF8C09142463946404809F0BF
:103DB00061FE404BC3F800A01C719C609C811C619B
:103DC0005C619C61DC611C6239469F603A48186006
:103DD00083F82440DC8483F82840012083F82900FC
:103DE00083F82A0083F82B4083F82C4083F82D00B9
:103DF00083F82E0083F82F40802083F8300083F86A
:103E0000314083F8324083F8334083F8344083F8FC
:103E10003540072283F836200C2283F83720782299
:103E20001A87264A0692264A0592264A0492264A6C
:103E30000392264A0292264A01920093254B264A73
:103E4000264808F015FB4AE5244A254B1360254B0C
:103E50001360184A184911601360154A224911600D
:103E60001360224B0A4A1A6003F54053D3F8B0415D
:103E7000D3F8B45104E0A168013115F071FF183492
:103E8000A54235D0234653F8080B9842F3D1F6E704
:103E90005CC5010800B701085034002014C30108B4
:103EA00048C30108A0C6010868B2010869B6010844
:103EB000C475002024030020BCC50108A0750020A3
:103EC0002C770020607700201C750020AC76002045
:103ED000F40200200076002060030020907700208C
:103EE000CCC4010834B70108A4C501088C03002024
:103EF000784BD3F8B001D3F8B811091A08B115F00E
:103F00002FFF744BD3F8980103F5D073984206D075
:103F1000A3F5D073D3F8A011013115F021FF6E483D
:103F2000FFF720FC6D4B6E4A13606E4A6E491160BC
:103F300013606E4A6E49116013606E4A6E491160DB
:103F400013606E4A6E49116013606E4A6E491160CB
:103F500013606E4A6E49116013606E4A6E491160BB
:103F600013606E4A6E49116013606E4A6E491160AB
:103F700013606E4A6E49116013606E4A6E4911609B
:103F800013606E4A6E49116013606E4A6E4911608B
:103F900013606E4C04F540536D4AC3F88C2D6D4A86
:103FA000C3F88C2D6C49C3F87C1BC3F87C2B6B4A7F
:103FB000C3F8682203F5356014F062FF684813F017
:103FC0003FFC684813F03CFC674813F039FC04F5EB
:103FD0006D5013F035FC654813F032FC644D75B13B
:103FE000644C03E0E168013115F0BAFEA54206D049
:103FF0001C3C606804F10C039842F3D1F6E75E4B79
:104000005E4AC3F868225E4AC3F868225D4AC3F874
:10401000EC215D4AC3F8EC2103F50C74D4F808C018
:10402000CDF850C0E768159726691696656917950B
:10403000A0691090E1691191226A1292636A139348
:10404000CDF870C01D971E961F95189019911A9261
:104050001B9318AA1CA92046FEF78FFF2046FEF7E7
:104060007CFF283CD4F808C0CDF830C0E7680D9735
:1040700026690E9665690F95A0690890E169099116
:10408000226A0A92636A0B93CDF890C02597269610
:104090002795209021912292239320AA24A920469B
:1040A000FEF76BFF2046FEF758FFA4F118021346F7
:1040B00053F8080B984203D09168013115F050FE77
:1040C0002D4B324AC3F8EC2103F59670FFF74AFBFB
:1040D0000BE400BF8C3300205034002034B70108BB
:1040E0008C030020A075002074C501082C770020E7
:1040F00004C60108D8760020D4C5010860770020E6
:1041000014C5010860030020B4C40108E074002055
:104110009CC401081C7500202CC50108F402002075
:10412000ECC501085C35002084C401089802002019
:104130008CC50108AC760020FCC401080076002084
:10414000E4C401084875002044C50108C0350020BA
:1041500028C2010874B6010864C201084CC00108F5
:104160000C7100200871002004710020FC700020F8
:1041700090680020E0700020C0650020D8B60108DB
:10418000B0B601087CC3010814C3010800B70108D8
:10419000F0B5A1B005460746574B47F8B43BD0F8F9
:1041A000B4407E6800E04834A6421BD0206B04F186
:1041B0003803984203D0A16B013115F0D1FDA069FD
:1041C00004F12003984203D0216A013115F0C8FDA3
:1041D000234653F8080B9842E5D0A168013115F049
:1041E000BFFDE0E7D5F8B400B968091A08B115F0C9
:1041F000B7FD05F16C04D5F89C0005F1A4039842C5
:1042000004D0D5F8A410013115F0AAFDA06904F17D
:104210002003984203D0216A013115F0A1FDE86E18
:1042200004F10803984203D0A168013115F098FD0C
:104230002C46324B44F8443BD4F808E0CDF830E04B
:10424000D4F80CC0CDF834C027690E9766690F9674
:10425000A0690890E1690991226A0A92636A0B9346
:10426000CDF850E0CDF854C01697179610901191E4
:104270001292139310AA14A92046FEF77EFE204640
:10428000FEF76BFE05F11C04D5F824E0CDF810E034
:10429000D5F828C0CDF814C0EF6A06972E6B0796A4
:1042A000686B0090A96B0191EA6B02922B6C0393EF
:1042B000CDF870E0CDF874C01E971F961890199134
:1042C0001A921B9318AA1CA92046FEF756FE2046F8
:1042D000FEF743FE686805F10C03984203D0E968D5
:1042E000013115F03DFD064B2B60C021284615F02D
:1042F00037FD284621B0F0BD48C3010814C30108AA
:1043000000B7010808B54FF6FF710120FFF7E0FA8A
:1043100008BD08B54FF6FF710020FFF7D9FA08BDB8
:1043200070B50646194B036000F6E80014F0A8FDCE
:1043300006F6E40013F084FA06F50E6013F080FA36
:1043400006F6DC0013F07CFA06F6D80013F078FAD3
:1043500006F6D40013F074FA16F168050FD006F6CD
:10436000B80403E0E168013115F0FAFCA54206D07B
:104370001C3C606804F10C039842F3D1F6E7044B4F
:104380003360044B3360304670BD00BF4CC0010841
:10439000D8B60108B0B6010870B506461B4B0360DD
:1043A00000F6E80014F06CFD06F6E40013F048FA9D
:1043B00006F50E6013F044FA06F6DC0013F040FA3E
:1043C00006F6D80013F03CFA06F6D40013F038FADB
:1043D00016F168050FD006F6B80403E0E168013174
:1043E00015F0BEFCA54206D01C3C606804F10C032D
:1043F0009842F3D1F6E7064B3360064B336040F644
:104400001411304615F0ACFC304670BD4CC00108AC
:10441000D8B60108B0B601080278124B1B68596B78
:104420008A4204D8596B8A420ED300207047596BD8
:10443000521A082A04D95A6B08325A63012070476D
:104440005A6B01325A63F9E7596B8A1A082A04D960
:104450005A6B083A5A63012070475A6B013A5A6303
:10446000F9E700BF748A002070B582B00446F9B144
:10447000C4F8C018261DD4F8C018304615F0E5F869
:10448000304615F0D1F985B20D49304615F060F986
:10449000811C2A4689B201A813F09EF901A904F6ED
:1044A000D80013F0B6F901A813F0CAF902B070BD34
:1044B000D0F81039C0F8C038002380F86430D9E74C
:1044C00044B7010808B5064B1B6800225A63FF2356
:1044D00080F8EC38B0F8C40813F024FC08BD00BF25
:1044E000748A00202DE9F04F85B00291012A7CD812
:1044F00004461F467CD0B0F8EE58D4F8D838002BCC
:1045000079D01E8806F1140A1FFA8AFAD4F8D43832
:10451000002B72D05B88DBB2039306F117081FFAF9
:1045200088F8B4F8C63803222946404613F0DFFD68
:10453000BDF80C90B4F8C6384A462946504613F0E8
:10454000A4FC06F11A00B4F8C6384A46294680B2DF
:1045500013F09BFC05EB090A1FFA8AFA0AF1050B16
:104560001FFA8BFBB4F8C63808225946404613F0B0
:10457000BEFD002F43D0B4F8C83807225946404644
:1045800013F006FE06F1110005F10901B4F8C63872
:10459000009303231A4689B280B213F089FB1536C3
:1045A000B6B2B4F8C43800934B46052229463046CB
:1045B00013F07EFB0A226FF0630102980CF054FAAC
:1045C000034600B2002820DD9BB2E91A89B20A3105
:1045D00089B24B449BB20A3B9BB29FB1B4F8C82846
:1045E00000920522304613F063FB05B0BDE8F08F62
:1045F000B0F8FE5881E7002684E700238BE7B4F883
:10460000C438BAE7B4F8C428EAE7039B0A3B00932E
:10461000012300226FF063010CF0F4F9C3B2AAEB9E
:10462000030189B23FB1B4F8C82800920522304690
:1046300013F03EFBD9E7B4F8C428F6E7012A75D891
:104640002DE9F04186B0054617461E46B1F57A7F42
:1046500001D340F2E7310A46354904A816F066FA5C
:104660002C1DD5F80819204614F0EFFF0221204632
:1046700014F0FCFF05F6D40013F0F3F8D5F8D438A5
:10468000591D002B37D01A88002302930193012370
:10469000009304AB204615F06BF813F03DFA044686
:1046A000D5F8D4384BB31888241AA4B2143CA4B259
:1046B00013F032FA804613F035FA80451FD8012FE7
:1046C0002BD0B5F8EE18B5F8C478B6F5803F27D3EF
:1046D000B5F8C668D5F8D40820B3028820B343885B
:1046E00005300396029701920090204613F0B6FE23
:1046F00006B0BDE8F0810022C6E70020D4E713F041
:104700000BFAD5F8D43833B11C88041BC4F34F041A
:104710003234A4B2D3E70024F7E7B5F8FE18D2E7A5
:10472000B6B2D7E70022D9E70023D9E7704700BF28
:1047300048B701082DE9F04182B005460C461E46F7
:104740001346E2B12827E3B14FF05A0842463946F2
:1047500020460CF089F90023009355234246394640
:1047600080B20CF04FF9C0B213F03CFA0346324667
:1047700021462846FFF762FF02B0BDE8F0815027CE
:10478000E1E74FF0B408E1E7012B00D970472DE9CC
:10479000F04F85B004460F4616461D4600F1040949
:1047A000D0F8C018484614F050FF484615F03CF8C1
:1047B0001FFA80F83968484614F0CAFF8246012D76
:1047C0002CD10021B4F8C43800934346B4F8F8283B
:1047D000002013F06DFAB4F8F808504524D9A0EB86
:1047E0000A00C0F34F0B012D21D14246B4F8C63860
:1047F00000933B685946484614F08EFFDEB113F033
:104800008BF9A0F11402B4F8C63892B2B4F80219C8
:104810000A2013F031FB05B0BDE8F08F13F082F9E8
:10482000A0EB080189B2CDE74FF0000BDBE713F0F6
:1048300079F90246DAE70BEB0A0080B20A30A8F1F8
:104840000E01B4F8C438B4F8C628039202931022BB
:104850000192044B00930E2389B280B213F0FEFD47
:10486000CDE700BF34B801082DE9F04188B0044617
:104870000D461746642900D964252D2104F16400F2
:104880000AF074FD804625232A462B4906A816F017
:104890004DF9261DD4F8C018304614F0D6FE304627
:1048A00014F0C2FF85B22A46B4F8FA1805A812F02F
:1048B00093FF059B591D002B32D01A8801230293C8
:1048C0000023019300934346304614F051FF059BAB
:1048D000591D3BB31A8800230293019302230093CE
:1048E00006AB304614F044FFF7B1B4F8C86813F0D3
:1048F00019F9411B89B2B4F8C4480598B8B10288C7
:10490000B8B14388053003960294019200900020CC
:1049100013F0A4FD05A812F093FF08B0BDE8F081E4
:104920000022CBE70022D6E7B4F8C668DFE7002212
:10493000E6E70023E6E700BF4CB701082DE9F047A2
:1049400088B004460D461646071DD0F8C0183846F4
:1049500014F07BFE384614F067FF05F109039BB2A3
:104960006C2B61D81FFA80F84323ADF8143016B9C8
:1049700046238DF814302A46354906A816F0D6F895
:1049800013F0CAF8054605A9384614F0E1FE2D1AC1
:10499000ADB2A5F11E091FFA89F906A9384614F02F
:1049A000D7FEA9EB0006B6B2083EB6B213F0BAF8CD
:1049B000A0EB08001FFA80FA13F0AEF80246B4F834
:1049C000C438009343465146304613F071F913F052
:1049D000A9F80246B4F8C638009305AB49463846F4
:1049E00014F09AFE263DADB213F09CF8A0EB08013E
:1049F00089B20431B4F8C438B4F8C62803920293DB
:104A000008220192134B0093052389B2284613F024
:104A100025FD13F087F80246B4F8C638009306ABBC
:104A20003146384614F078FE13F076F8A0F11405FC
:104A3000ADB213F077F8B4F80419411AB4F8C638D7
:104A40002A4689B20A2013F017FA08B0BDE8F087A9
:104A500054B70108ACBE0108012A42D8F0B585B0B0
:104A6000044608461546642900D96420D4F8E03885
:104A700063B35A88D2B203210BF0D5FF012D27D0A2
:104A8000B4F8EE58002281B204F50E6012F0E4FF93
:104A900013F042F8D4F8E038EBB11B88C01A80B2AA
:104AA000053880B2B4F8C468B4F8C678D4F8E01811
:104AB00099B10A8899B14B88053103970296019202
:104AC0000091294613F0CAFC05B0F0BD0022D1E7E1
:104AD000B4F8FE58D6E70023E0E70022EAE7002317
:104AE000EAE7704730B585B004460846164D002207
:104AF00029460BF0B9FF002200925523294600B247
:104B00000BF080FFC0B213F06DF894F8D038013389
:104B1000DBB284F8D03803F0030384F8D03803EB19
:104B2000C3030A4A02EB4313B4F8C4280390029269
:104B30003022019200931346B4F8F218B4F8F0084A
:104B400013F08CFC05B030BD18FCFFFF50B8010815
:104B500000B585B090F8D03803EBC3030A4A02EBE6
:104B60004313B0F8C42845F2AA21039102923022DF
:104B7000019200931346B0F8F218B0F8F00813F061
:104B80006DFC05B05DF804FB50B80108012A26D879
:104B900000B585B00346B0F8F408B3F8F6C81AB902
:104BA000B3F8F008B3F8F2C881B1B3F8C428B3F889
:104BB000C6380393029230220192094B00931346A8
:104BC000614613F04BFC05B05DF804FBB3F8C43844
:104BD000009330231A46614613F06AF8F3E77047F2
:104BE000B4BE01082DE9F04182B005468846071D94
:104BF000D0F8C018384614F028FD384614F014FEDA
:104C0000C4B24146384614F0ABFDC6B212F084FF80
:104C1000801B00EBD070A4B2B5F8C63800934346B1
:104C20002246C0F34F01384614F084FD12F074FFA1
:104C3000831B03EBD3734FEA630CACF10A0CB5F89A
:104C4000C63806F11402E11C1FFA8CF013F014F9B7
:104C500002B0BDE8F08110B5044664300AF086FB6E
:104C600001462046FFF7BEFF10BDF0B585B01E46D9
:104C70009DF82830012B13D80C46154612D0B0F8F9
:104C8000EE781E3FBFB212F047FF28380396029518
:104C90001C22019200941346394680B213F0DEFBC9
:104CA00005B0F0BD0027EEE700B583B0B0F8C4282A
:104CB000009145F2AA230349FFF7D7FF03B05DF83F
:104CC00004FB00BFB0BD010800B583B0B0F8C42834
:104CD00000914FF6FF730349FFF7C7FF03B05DF87C
:104CE00004FB00BFB0BD010800B583B0B0F8C42814
:104CF00000914FF4FC630349FFF7B7FF03B05DF881
:104D000004FB00BFD0BC010800B583B0B0F8C428D4
:104D100000914FF4FC630349FFF7A7FF03B05DF870
:104D200004FB00BF20BE010800B583B0B0F8C42862
:104D300000914FF4FC630349FFF797FF03B05DF860
:104D400004FB00BFD4BF010800B583B0B0F8C4288D
:104D500000911F230249FFF788FF03B05DF804FBB1
:104D6000D4BF010800B583B0B0F8C42800914FF457
:104D700078430349FFF779FF03B05DF804FB00BFF8
:104D800040BD010870B584B004460A462A492B4844
:104D900015F0CCFE251DD4F8C018284614F055FC9B
:104DA00004F6D80012F05DFDD4F8D838591D4BB385
:104DB0001A880023029301930093204B284614F095
:104DC000D7FC12F0A9FE283880B2B4F8C458B4F861
:104DD000C668D4F8D818B9B10A88B9B14B8805317A
:104DE0000396029501920091002113F037FBD4F84D
:104DF000D8386BB15D88C5F11C056DB2002D09DC9A
:104E000004B070BD0022D4E70022E6E70023E6E705
:104E10000025F0E712F080FE283880B2D4F8D838A8
:104E200043B15988B4F8C4380093ABB2282212F0C9
:104E30003FFFE5E70021F5E754B70108E8770020D8
:104E400030B583B004460D4610460A226FF031019A
:104E50000BF00AFE00B2002812DB0021009155235E
:104E60000A220BF0CFFDC0B212F0BCFE0346009543
:104E7000B4F8C42807492046FFF7F7FE03B030BD59
:104E800055230093AA2300226FF031010BF0BAFDE5
:104E9000C0B2E9E7B0BD01082DE9F04F91B0074677
:104EA000069105920C939DF868300D93051DD0F87E
:104EB000C018284614F0C9FB284614F0B5FC5FFA68
:104EC00080F808F10A085FFA88F4A04604F10C03A0
:104ED0001E46089312F026FE801B90FBF4F4E3B20A
:104EE0000B9312F019FE044612F01CFEA04225D2CC
:104EF000322412F011FEA3B20793A0EB4404A4B233
:104F0000284614F091FC82B221460FA812F064FCEE
:104F100007F164030993069918460AF03FFA82469E
:104F20000B9B83420CD29B460C9B93B11B789BB18D
:104F30000B9B9B4506D0012304930FE01424D8E774
:104F40008346F1E70BF1FF3B5FFA8BFB01230493F0
:104F500004E00023049301E000230493CBF347090A
:104F6000059BA3EB09095FFA89F909F101094FFAD9
:104F700089F9BAF1010F01D9994505D0B9F1000FAE
:104F800007DB00250A9523E003F1FF394FFA89F981
:104F9000F4E7D1444FFA89F9F3E7002234E0B7F897
:104FA000C468B7F8C6C8059B9C4243D00F98002838
:104FB00048D00288002847D043880530CDF80CC07F
:104FC000029601920090079813F048FA0135EDB26D
:104FD000AB453BD955FA89F4E4B2A24502D8A4EB1B
:104FE0000A04E4B2069BE118C9B20131C9B20998BA
:104FF0000AF0BCF906460FA812F033FC381D0F9BCF
:10500000591D002BC9D01A88012302930A2301934A
:1050100000230093334614F0ABFB089B05FB0831DB
:1050200089B2049B002BBAD00A9B002BB7D0414415
:1050300089B2B4E708EB01039BB20A933346664694
:105040009C46B3E70022B5E70023B6E7049BDBB933
:10505000049B9BB90B9B9B4510D21BFB08F1089B43
:1050600013FA81F189B20F9B002B50D01A88B7F840
:10507000C43800934346079812F01AFE0FA812F0A6
:10508000DFFB11B0BDE8F08F0FA812F0EAFB381D6E
:105090000F9B591DF3B11A8801230293002301933A
:1050A000022300930C9B14F063FB0D9BC3B9B7F86C
:1050B000C408B7F8C6480F9971B10A8871B14B8816
:1050C000053103940290019200910A99079813F018
:1050D000C5F9BDE70022DFE70022EFE70023EFE795
:1050E000B7F8C4080F9971B10A8871B14B880531BE
:1050F0004FF4784403940290019200910A99079822
:1051000013F0ACF9A4E70022EFE70023EFE7002259
:10511000ADE700002DE9F04F8DB04C680B68E41A44
:10512000E410584B03FB04F4A5B20792954202D257
:105130000DB0BDE8F08F07468B4600F10408D0F8AB
:10514000C018404614F081FA404614F06DFBC0B21E
:105150000A30C1B204910C31059112F0DDFC064613
:10516000404614F061FBA6F1640182B289B20BA83B
:1051700012F032FB079B4FFA83FAED1AADB2052D00
:1051800003D8A4F1060A4FFA8AFABAF1000F0DDB30
:10519000A3B20693A3EB0A03062BA8BF0623DBB238
:1051A00009930024CDF820B09B4618E04FF0000A88
:1051B000EEE7002233E00B99002946D00A88002947
:1051C00045D04B880531CDF80C90CDF80880019280
:1051D00000913146322013F041F90134E4B25C45CC
:1051E00037D254FA8AF5EDB20BA812F03AFB059BC0
:1051F000049A04FB0236B6B2B7F8C488B7F8C6986A
:10520000069B9D42D7DC381D089B1B6805EB4502B9
:1052100053F832300B9A511D002ACAD012884FF031
:10522000010CCDF808C04FF00A0CCDF804C04FF0C7
:10523000000CCDF800C014F09BFA079B9D42BAD138
:10524000B7F8C688B7F8C498B5E70022B7E70023D7
:10525000B8E7099B052B0ED8059A049903FB012199
:1052600089B20B9B5BB11A88B7F8C4380093049BD2
:10527000322012F01DFD0BA812F0E2FA58E70022CE
:10528000F2E700BFABAAAAAA2DE9F04F91B00446FD
:10529000069117461E4600F10408D0F8C018404693
:1052A00014F0D3F9404614F0BFFAC5B20535EDB29B
:1052B00094F8EC38B34240F0AD80B7F5805F01D38D
:1052C00040F6FF7712F02EFCAEB2451BADB212F0E5
:1052D00023FC8146A0F1400A1FFA8AFAB7F5006F55
:1052E00000F264812823009300234FF400621946E2
:1052F00038460BF087FB1FFA80FBCDF800A028236F
:1053000040F6FF7240F601014FF461600BF07AFB4A
:10531000C7B22037FFB2AE1BB6B2A6F10F01A9F19A
:105320003602B4F8C6380193052300930A2392B2DB
:1053300089B21B2012F0B3FDA6F10A091FFA89F900
:10534000B4F8C8380A2249461C2012F021FFB4F8EC
:10535000C6380A2249461C2012F0C9FEA6F10E09E1
:105360001FFA89F9B4F8C838009308235A46494609
:10537000202012F09DFC0AF1FF339B45C0F22381EF
:105380001FFA87F9781E711FB4F8C63800930623F8
:10539000032289B280B212F08BFC069A91490EA8C2
:1053A00015F0C4FB4323ADF834300EA9404614F089
:1053B000CFF98246C0F34F07A9EB07091FFA89F717
:1053C000B4F8C63800930EAB2A463946404614F06E
:1053D000A3F95744BFB2B81D0436B4F8C438B4F8C2
:1053E000C62803920293082201927F4B0093052363
:1053F000B1B280B213F032F807F10E01B4F8C6383A
:1054000000930DAB2A4689B2404614F085F911B0DD
:10541000BDE8F08F84F8EC68ABB2079305F13C0966
:1054200012F07AFB143800900023642219463046AB
:105430000BF0E8FA82B2089228230093002364223A
:10544000194630460BF0DEFAC2B2099212F064FB44
:10545000A0F10A0A1FFA8AFA12F05EFB0A3880B23B
:10546000079B03F1140BB4F8C4380293CDF804B0D1
:1054700000904B46524649460A2012F010FF12F0A7
:105480004BFBA0F10A0A1FFA8AFA12F045FB0A3810
:1054900080B2B4F8C6380293CDF804B000904B4601
:1054A000524649460A2012F0D9FE002E59D1002E4C
:1054B00069D02E2104F1640009F058FF8346FAF701
:1054C000E9FE5FFA80FABAF1040F01D94FF0040A3D
:1054D000524659460AA815F065FB25233246434932
:1054E0000AA8504415F022FB04F6D40012F0B9F9D2
:1054F000201DD4F8D438591D002B4ED01A88002313
:1055000002930193012300930AAB14F031F912F0D6
:1055100003FBD4F8D438002B41D01A88801A00EB52
:10552000D070C0F34F00079949440A31B4F8C498C9
:10553000B4F8C6A8D4F8D4689EB3738806F1050CF5
:105540008EB3B6F800E0CDF814A0CDF81090002688
:1055500003960296CDF804E0CDF800C012F0ECFFFF
:10556000ABE6089A0A3292B2099BA9EB030080B21B
:10557000B4F8C6380293019000924B4649460A207F
:1055800012F08DFE93E72C2104F1640009F0EEFE89
:1055900001460AA815F0CAFAA6E70022AFE70022E2
:1055A000BCE70023CAE74FF0000ECCE7CDF800A01F
:1055B000282340F6FF7240F6010138460BF022FA2C
:1055C0001FFA80FB99E60BF12000AAEB0B02B4F85E
:1055D000C4380093082392B2494680B212F068FBA7
:1055E000CEE600BF60B70108ACBE010858B701089D
:1055F0002DE9F04184B00546041DD0F8C0182046BE
:1056000014F023F8204614F00FF9C4B20534E4B2C4
:105610001E3412F087FA041BA4B2631F9EB213F06B
:10562000010F01D1063CA6B212F076FA0446D5F875
:10563000D8387BB11888241AA4B2363CA4B22146CB
:1056400005F1540002F014FB074628B9384604B0AF
:10565000BDE8F0810020EEE7D5F8E83813B11B88EB
:10566000002BF3D105F6E80802233246214603A8B1
:1056700013F0C2FB03A9404613F0EBFB03A813F0A1
:10568000FFFBB5F8C438ADF80430B5F8C638ADF84E
:105690000630B5F8C838ADF80830B5F8CA38ADF8F6
:1056A0000A3004220DEB0201404613F06DFCCDE7F9
:1056B0002DE9F04F89B0044605910692079300F159
:1056C0000408D0F8C018404613F0BFFF404614F05D
:1056D000ABF8C5B20535EDB205F11E0912F022FA9C
:1056E000A0EB090080B2431F9EB213F0010F01D15D
:1056F000063886B27608D4F8D838002B00F0B0808F
:105700001F8807F1130B1FFA8BFB07F1050A1FFA1D
:105710008AFA59FA86F612F0FFF9A0F14602B4F8B7
:10572000C63892B23146504612F0A6FB12F0F4F998
:10573000D4F8D838002B00F095801B88184480B22C
:105740004138B11EB4F8C438B4F8C62803920293A5
:105750004FF0080ACDF804A0464B009305235246AB
:1057600089B280B212F07AFE12F0D6F9A0F11401DB
:10577000721FB4F8C63800933F4B92B289B24046CC
:1057800013F0CAFF12F0CEF9A0F10C02B4F8C6383B
:1057900092B20A21584612F078FB07F11100B4F8D2
:1057A000C438B4F8C62803920293CDF804A0334B52
:1057B000009353460522114680B212F04FFE0F3778
:1057C000BFB2B4F8C83809224946384612F054FB33
:1057D000B4F8CA38092205EB0901384612F04CFB2F
:1057E000D4F8D838002B3FD019880F39B4F8C8380E
:1057F0000093069B2A4689B2404613F08DFFD4F8E9
:10580000D8389BB319881E31B4F8CA380093079B67
:105810002A4689B2404613F07FFFD4F8D8383BB30C
:105820001E880644B6B21E36B6B2DDF8149049465C
:10583000404613F08DFF074612F06EF9811BC91B1D
:1058400001EBD17106EB6101B4F8C63800934B4609
:105850002A4689B2404613F05FFF09B0BDE8F08FD9
:1058600000274EE7002369E70021BEE70021CAE7D1
:105870000026D6E79CBE0108B0C20108A4BE0108FC
:105880002DE9F04F8BB00446022948D904F10408F1
:10589000D4F8C018404613F0D8FE404613F0C4FFB9
:1058A0005FFA80F903A9404613F052FF064612F052
:1058B00033F9851BC5F34F0512F034F900EB4000B6
:1058C0000746002832DBC7F38F0704F1040B584664
:1058D00013F0AAFF0FFA80FA584613F0ADFF0AFA48
:1058E00080F1A5F10A00C9B2791A89B20A3906F124
:1058F0001402B4F8C438009309F1140392B289B2C7
:1059000080B212F0D5F9B4F8C638009303AB3A462A
:105910002946404613F000FF0BB0BDE8F08F044B62
:1059200053F8211003A815F001F9AFE7C71CCAE727
:1059300090BE01082DE9F04788B00646894690469A
:10594000051DD0F8C018284613F07FFE39213046D7
:10595000FFF781F9284613F067FFC7B20537FFB29A
:1059600007F10C0A12F0D8F80446284613F05CFF41
:10597000A4F1640182B289B204A811F02DFF0024C1
:1059800013E0002224E06346844618462EE00022FD
:1059900033E000230535CDF80CC00290019200954C
:1059A000322012F05BFD0134E4B2022C29D839F820
:1059B0001420174B53F8241005A815F0B7F804A8C5
:1059C00011F04FFF301D049B591D002BD9D01A88B0
:1059D0000023029305250195009305AB13F0C8FE43
:1059E000B6F8C6C8B6F8C4084445CCD004FB07A135
:1059F00089B2049D002DCAD02A88002DC9D06B8899
:105A0000C8E704A811F01CFF08B0BDE8F08700BF8C
:105A100090BE010870B582B004460D46061DD0F850
:105A2000C018304613F011FE12F07CF8A0F13202DB
:105A3000B4F8CC3800932B4692B26421304613F070
:105A40006BFE02B070BD10B50446D0F8E8380BB15B
:105A50001B8823B904F1540002F039F910BD00F697
:105A6000E80013F00DFAF5E72DE9F04F87B0834613
:105A70000C46039200F164063821304609F076FCAA
:105A80000546BBF8C40812F04DF92146304609F02E
:105A90006DFC03783BBB0BF10404DBF8C018204617
:105AA00013F0D3FD0321204613F0E0FD29462046E4
:105AB00013F056FE064612F02FF8861BC6F34F066B
:105AC00012F030F8BBF8C63800932B46C0F34F02F3
:105AD0003146204613F02EFE0121204613F0C6FD6C
