:020000040800F2
:1000000000000120919C0108CD990108D3990108B5
:10001000D9990108DF990108E5990108000000005D
:10002000000000000000000000000000EB99010843
:10003000F999010800000000079A0108159A0108C3
:10004000E19C0108E19C0108E19C0108E19C010898
:10005000E19C0108E19C0108E151000815520008EB
:10006000E19C0108E19C0108E19C0108E19C010878
:10007000E19C0108E19C0108E19C0108E19C010868
:10008000E19C0108E19C0108E19C010800000000DE
:10009000000000000000000000000000E19C0108DA
:1000A000E19C0108E19C0108E19C0108219A0108FA
:1000B000359A0108E19C0108E19C0108E19C0108D6
:1000C000E19C0108E19C0108E19C0108E19C010818
:1000D000E19C0108E19C0108E19C0108000000008E
:1000E000E19C0108E19C0108E19C0108000000007E
:1000F000000000000000000000000000E19C01087A
:1001000000000000E19C0108E19C0108E19C01085D
:1001100000000000000000000000000000000000DF
:10012000499A0108E19C0108E19C01085D9A0108D7
:10013000E19C010800000000000000000000000039
:10014000000000000000000000000000E19C010829
:10015000E19C0108E19C0108E19C0108E19C010887
:10016000E19C0108E19C0108000000000000000083
:10017000000000000000000000000000000000007F
:1001800000000000E19C01080000000000000000E9
:04019000E19C0108E5
:1001A00010B5054C237833B9044B13B10448AFF3B1
:1001B00000800123237010BDA40200200000000075
:1001C0008899020808B5034B1BB103490348AFF3F4
:1001D000008008BD00000000A802002088990208E5
:1001E00001F0FF01102A2BDB10F0070F08D010F8E8
:1001F000013B013A8B422DD010F0070F42B3F6D1EC
:10020000F0B441EA012141EA014122F007047FF004
:1002100000070023F0E80256083C85EA010586EA5B
:10022000010685FA47F5A3FA87F586FA47F6A5FA97
:1002300087F68EB9EED1F0BC01F0FF0102F00702A3
:1002400032B110F8013B013A83EA010313B1F8D14E
:100250000020704701387047002D06BF354603382F
:10026000073815F0010F07D1013015F4807F02BF68
:10027000013015F4C03F0130F0BC0138704700BFB9
:1002800010F8012B11F8013B012A28BF9A42F7D040
:10029000D01A7047034613F8012B002AFBD1181A15
:1002A0000138704781F0004102E000BF83F0004355
:1002B00030B54FEA41044FEA430594EA050F08BF01
:1002C00090EA020F1FBF54EA000C55EA020C7FEAC5
:1002D000645C7FEA655C00F0E2804FEA5454D4EB42
:1002E0005555B8BF6D420CDD2C4480EA020281EA0C
:1002F000030382EA000083EA010180EA020281EA44
:100300000303362D88BF30BD11F0004F4FEA013195
:100310004FF4801C4CEA113102D0404261EB4101A4
:1003200013F0004F4FEA03334CEA133302D052422A
:1003300063EB430394EA050F00F0A780A4F10104E6
:10034000D5F1200E0DDB02FA0EFC22FA05F2801820
:1003500041F1000103FA0EF2801843FA05F3594106
:100360000EE0A5F120050EF1200E012A03FA0EFC85
:1003700028BF4CF0020C43FA05F3C01851EBE371AF
:1003800001F0004507D54FF0000EDCF1000C7EEBCC
:1003900000006EEB0101B1F5801F1BD3B1F5001F0A
:1003A0000CD349085FEA30004FEA3C0C04F1010429
:1003B0004FEA445212F5800F80F09A80BCF1004F52
:1003C00008BF5FEA500C50F1000041EB045141EAD4
:1003D000050130BD5FEA4C0C404141EB0101013C9D
:1003E00028BFB1F5801FE9D291F0000F04BF01468C
:1003F0000020B1FA81F308BF2033A3F10B03B3F15E
:1004000020020CDA0C3208DD02F1140CC2F10C02ED
:1004100001FA0CF021FA02F10CE002F11402D8BF4B
:10042000C2F1200C01FA02F120FA0CFCDCBF41EA17
:100430000C019040E41AA2BF01EB0451294330BDE6
:100440006FEA04041F3C1CDA0C340EDC04F11404C3
:10045000C4F1200220FA04F001FA02F340EA03009A
:1004600021FA04F345EA030130BDC4F10C04C4F1E0
:10047000200220FA02F001FA04F340EA03002946C0
:1004800030BD21FA04F0294630BD94F0000F83F40A
:10049000801306BF81F480110134013D4EE77FEAED
:1004A000645C18BF7FEA655C29D094EA050F08BF39
:1004B00090EA020F05D054EA000C04BF194610461A
:1004C00030BD91EA030F1EBF0021002030BD5FEA5E
:1004D000545C05D14000494128BF41F0004130BD86
:1004E00014F580043CBF01F5801130BD01F00045DA
:1004F00045F0FE4141F470014FF0000030BD7FEA4D
:10050000645C1ABF194610467FEA655C1CBF0B4647
:10051000024650EA013406BF52EA033591EA030F5E
:1005200041F4002130BD00BF90F0000F04BF002156
:10053000704730B54FF4806404F132044FF0000589
:100540004FF0000150E700BF90F0000F04BF002102
:10055000704730B54FF4806404F1320410F0004568
:1005600048BF40424FF000013EE700BF42004FEA63
:10057000E2014FEA31014FEA02701FBF12F07F43E0
:1005800093F07F4F81F06051704732F07F4208BF97
:10059000704793F07F4F04BF41F40021704730B59E
:1005A0004FF4607401F0004521F000411CE700BFEA
:1005B00050EA010208BF704730B54FF000050AE06D
:1005C00050EA010208BF704730B511F0004502D56E
:1005D000404261EB41014FF4806404F132045FEA70
:1005E000915C3FF4D8AE4FF003025FEADC0C18BF19
:1005F00003325FEADC0C18BF033202EBDC02C2F10B
:10060000200300FA03FC20FA02F001FA03FE40EA9C
:100610000E0021FA02F11444BDE600BF70B54FF0A0
:10062000FF0C4CF4E06C1CEA11541DBF1CEA13557E
:1006300094EA0C0F95EA0C0F00F0DEF82C4481EAE6
:10064000030621EA4C5123EA4C5350EA013518BF06
:1006500052EA033541F4801143F4801338D0A0FBF3
:1006600002CE4FF00005E1FB02E506F00042E0FBA0
:1006700003E54FF00006E1FB03569CF0000F18BFA6
:100680004EF0010EA4F1FF04B6F5007F64F540744E
:1006900004D25FEA4E0E6D4146EB060642EAC621E1
:1006A00041EA55514FEAC52040EA5E504FEACE2E4E
:1006B000B4F1FD0C88BFBCF5E06F1ED8BEF1004F51
:1006C00008BF5FEA500E50F1000041EB045170BDCD
:1006D00006F0004646EA010140EA020081EA030111
:1006E000B4EB5C04C2BFD4EB0C0541EA045170BD0D
:1006F00041F480114FF0000E013C00F3AB8014F187
:10070000360FDEBF002001F0004170BDC4F10004CF
:10071000203C35DA0C341BDC04F11404C4F1200550
:1007200000FA05F320FA04F001FA05F240EA0200AB
:1007300001F0004221F0004110EBD37021FA04F6E1
:1007400042EB06015EEA430E08BF20EAD37070BD9B
:10075000C4F10C04C4F1200500FA04F320FA05F0FA
:1007600001FA04F240EA020001F0004110EBD370FC
:1007700041F100015EEA430E08BF20EAD37070BD6C
:10078000C4F1200500FA05F24EEA020E20FA04F345
:1007900001FA05F243EA020321FA04F001F00041F4
:1007A00021FA04F220EA020000EBD3705EEA430E65
:1007B00008BF20EAD37070BD94F0000F0FD101F094
:1007C0000046400041EB010111F4801F08BF013CCD
:1007D000F7D041EA060195F0000F18BF704703F00B
:1007E0000046520043EB030313F4801F08BF013D92
:1007F000F7D043EA0603704794EA0C0F0CEA13554E
:1008000018BF95EA0C0F0CD050EA410618BF52EA07
:100810004306D1D181EA030101F000414FF000000D
:1008200070BD50EA410606BF1046194652EA43061B
:1008300019D094EA0C0F02D150EA013613D195EA8F
:100840000C0F05D152EA03361CBF104619460AD1D7
:1008500081EA030101F0004141F0FE4141F47001E1
:100860004FF0000070BD41F0FE4141F4780170BDD1
:1008700070B54FF0FF0C4CF4E06C1CEA11541DBF36
:100880001CEA135594EA0C0F95EA0C0F00F0A7F838
:10089000A4EB050481EA030E52EA03354FEA013165
:1008A00000F088804FEA03334FF0805545EA131378
:1008B00043EA12634FEA022245EA111545EA106540
:1008C0004FEA00260EF000419D4208BF964244F1D7
:1008D000FD0404F5407402D25B084FEA3202B61AF6
:1008E00065EB03055B084FEA32024FF480104FF4CA
:1008F000002CB6EB020E75EB030E22BFB61A75463E
:1009000040EA0C005B084FEA3202B6EB020E75EBD0
:10091000030E22BFB61A754640EA5C005B084FEA38
:100920003202B6EB020E75EB030E22BFB61A754605
:1009300040EA9C005B084FEA3202B6EB020E75EB10
:10094000030E22BFB61A754640EADC0055EA060ED1
:1009500018D04FEA051545EA16754FEA06164FEA14
:10096000C30343EA52734FEAC2025FEA1C1CC0D1C0
:1009700011F4801F0BD141EA00014FF000004FF04D
:10098000004CB6E711F4801F04BF01430020B4F10E
:10099000FD0C88BFBCF5E06F3FF6AFAEB5EB030CC6
:1009A00004BFB6EB020C5FEA500C50F1000041EBC3
:1009B000045170BD0EF0004E4EEA113114EB5C0490
:1009C000C2BFD4EB0C0541EA045170BD41F4801163
:1009D0004FF0000E013C90E645EA060E8DE60CEA6B
:1009E000135594EA0C0F08BF95EA0C0F3FF43BAF88
:1009F00094EA0C0F0AD150EA01347FF434AF95EA3F
:100A00000C0F7FF425AF104619462CE795EA0C0F22
:100A100006D152EA03353FF4FDAE1046194622E7EF
:100A200050EA410618BF52EA43067FF4C5AE50EAC9
:100A300041047FF40DAF52EA43057FF4EBAE12E7B9
:100A40004FF0FF3C06E000BF4FF0010C02E000BF9A
:100A50004FF0010C4DF804CD4FEA410C7FEA6C5C7D
:100A60004FEA430C18BF7FEA6C5C1BD001B050EA20
:100A7000410C0CBF52EA430C91EA030F02BF90EA0B
:100A8000020F0020704710F1000F91EA030F58BFCA
:100A9000994208BF90422CBFD8176FEAE37040F02C
:100AA000010070474FEA410C7FEA6C5C02D150EACA
:100AB000013C07D14FEA430C7FEA6C5CD6D152EA85
:100AC000033CD3D05DF8040B704700BF844610464A
:100AD00062468C461946634600E000BF01B5FFF749
:100AE000B7FF002848BF10F1000F01BD4DF808ED19
:100AF000FFF7F4FF0CBF012000205DF808FB00BFEA
:100B00004DF808EDFFF7EAFF34BF012000205DF843
:100B100008FB00BF4DF808EDFFF7E0FF94BF012090
:100B200000205DF808FB00BF4DF808EDFFF7CEFF91
:100B300094BF012000205DF808FB00BF4DF808EDD0
:100B4000FFF7C4FF34BF012000205DF808FB00BFA1
:100B50004FEA410C7FEA6C5C02D150EA013C0AD1B9
:100B60004FEA430C7FEA6C5C02D152EA033C02D1AB
:100B70004FF0000070474FF0010070474FEA41020C
:100B800012F5001215D211D56FF47873B3EB6252DF
:100B900012D94FEAC12343F0004343EA505311F006
:100BA000004F23FA02F018BF404270474FF0000098
:100BB000704750EA013005D111F0004008BF6FF0D6
:100BC000004070474FF00000704700BF4A0011D24C
:100BD00012F5001211D20DD56FF47873B3EB625297
:100BE0000ED44FEAC12343F0004343EA505323FAA3
:100BF00002F070474FF00000704750EA013002D118
:100C00004FF0FF3070474FF0000070474FEA41024D
:100C1000B2F1E04324BFB3F5001CDCF1FE5C0DD95A
:100C200001F0004C4FEAC0024CEA5070B2F1004FA4
:100C300040EB830008BF20F00100704711F0804FA7
:100C400021D113F13872BCBF01F00040704741F46C
:100C500080114FEA5252C2F11802C2F1200C10FA70
:100C60000CF320FA02F018BF40F001004FEAC12354
:100C70004FEAD32303FA0CFC40EA0C0023FA02F3F8
:100C80004FEA4303CCE77FEA625307D150EA0133CE
:100C90001EBF4FF0FE4040F44000704701F000409E
:100CA00040F0FE4040F40000704700BF53B94AB91D
:100CB000002908BF00281CBF4FF0FF314FF0FF3064
:100CC00000F074B9ADF1080C6DE904CE00F006F83F
:100CD000DDF804E0DDE9022304B070472DE9F047B8
:100CE000089D04468E46002B4DD18A42944669D910
:100CF000B2FA82F252B101FA02F3C2F1200120FAF3
:100D000001F10CFA02FC41EA030E94404FEA1C4840
:100D1000210CBEFBF8F61FFA8CF708FB16E341EA3C
:100D2000034306FB07F199420AD91CEB030306F1C2
:100D3000FF3080F01F81994240F21C81023E6344E3
:100D40005B1AA4B2B3FBF8F008FB103344EA034487
:100D500000FB07F7A7420AD91CEB040400F1FF339C
:100D600080F00A81A74240F207816444023840EAD9
:100D70000640E41B00261DB1D4400023C5E9004312
:100D80003146BDE8F0878B4209D9002D00F0EF8095
:100D90000026C5E9000130463146BDE8F087B3FAC8
:100DA00083F6002E4AD18B4202D3824200F2F980B0
:100DB000841A61EB030301209E46002DE0D0C5E9B3
:100DC000004EDDE702B9FFDEB2FA82F2002A40F0FF
:100DD0009280A1EB0C014FEA1C471FFA8CFE012602
:100DE000200CB1FBF7F307FB131140EA01410EFBA6
:100DF00003F0884208D91CEB010103F1FF3802D24D
:100E0000884200F2CB804346091AA4B2B1FBF7F046
:100E100007FB101144EA01440EFB00FEA64508D969
:100E20001CEB040400F1FF3102D2A64500F2BB80A6
:100E30000846A4EB0E0440EA03409CE7C6F12007F5
:100E4000B34022FA07FC4CEA030C20FA07F401FA3B
:100E500006F31C43F9404FEA1C4900FA06F3B1FBC4
:100E6000F9F8200C1FFA8CFE09FB181140EA014129
:100E700008FB0EF0884202FA06F20BD91CEB0101C6
:100E800008F1FF3A80F08880884240F28580A8F11E
:100E900002086144091AA4B2B1FBF9F009FB101170
:100EA00044EA014100FB0EFE8E4508D91CEB01010E
:100EB00000F1FF346CD28E456AD90238614440EAB1
:100EC0000840A0FB0294A1EB0E01A142C846A64631
:100ED00056D353D05DB1B3EB080261EB0E0101FABA
:100EE00007F722FA06F3F1401F43C5E90071002617
:100EF0003146BDE8F087C2F12003D8400CFA02FC6D
:100F000021FA03F3914001434FEA1C471FFA8CFE7C
:100F1000B3FBF7F007FB10360B0C43EA064300FB6C
:100F20000EF69E4204FA02F408D91CEB030300F10A
:100F3000FF382FD29E422DD9023863449B1B89B2C1
:100F4000B3FBF7F607FB163341EA034106FB0EF34A
:100F50008B4208D91CEB010106F1FF3816D28B42F7
:100F600014D9023E6144C91A46EA004638E72E46C3
:100F7000284605E70646E3E61846F8E64B45A9D2BB
:100F8000B9EB020864EB0C0E0138A3E74646EAE72A
:100F9000204694E74046D1E7D0467BE7023B6144D8
:100FA00032E7304609E76444023842E7704700BF41
:100FB00080B483B000AF78607B6801221A70054B63
:100FC00000221A647B6818460C37BD465DF8047B26
:100FD000704700BF0008004080B582B000AF786065
:100FE0000B467B8013463B807B885A1E084BDA6297
:100FF0007B885B089AB2064B1A643B88184618F047
:10100000E3FE034B00221A6400BF0837BD4680BDD3
:101010000008004080B582B000AF78607B681B7824
:1010200083F00103DBB2002B06D1A0224FF48E71B6
:101030007868FFF7D1FF00E000BF0837BD4680BDEC
:1010400080B582B000AF78607B681B7883F00103C5
:10105000DBB2002B0FD1A0224FF48E717868FFF71E
:10106000BBFF642018F0B0FEA0224FF48E717868A8
:10107000FFF7B2FF00E000BF0837BD4680BD80B576
:1010800082B000AF78607B681B7883F00103DBB22D
:10109000002B06D1A02240F618317868FFF79CFF9C
:1010A00000E000BF0837BD4680BD80B582B000AF0C
:1010B00078607B681B7883F00103DBB2002B18D1CA
:1010C000A0224FF48E717868FFF786FF322018F067
:1010D0007BFE3C2240F618317868FFF77DFF322016
:1010E00018F072FEA02240F28C517868FFF774FF6E
:1010F00000E000BF0837BD4680BD80B483B000AFBC
:1011000078607B689B7E03F00103002B14BF0123F2
:101110000023DBB218460C37BD465DF8047B7047F0
:1011200080B483B000AF78600B46FB70FB78012B76
:1011300002D1054B1B8801E0044B1B8818460C3775
:10114000BD465DF8047B7047E6AE0208E2AE0208D9
:1011500080B483B000AF78600B46FB70FB78012B46
:1011600002D1054B1B8801E0044B1B8818460C3745
:10117000BD465DF8047B7047E8AE0208E4AE0208A5
:1011800090B585B000AF78607B6803F581531C3360
:1011900018460CF05FFB03465B00184627F0D4FEB0
:1011A00003461A467B6803F58053C3F8C8207B6862
:1011B00003F58053D3F8C830002B29D00023FB73EC
:1011C000FC7B7B6803F581531C3318460CF042FB13
:1011D00003469C42B4BF01230023DBB2002B17D08F
:1011E0007B6803F58053D3F8C820FB7B5B00134476
:1011F000FF221A707B6803F58053D3F8C820FB7B6D
:101200005B00134400225A70FB7B0133FB73D7E76A
:101210007B6818460AF0C4F803467B737B7B002B7F
:101220005AD10023BB737B6803F58053D3F8C830D1
:10123000002B0AD07B6803F58053D3F8C8301946D9
:10124000786800F018FE0346BB737A687B6803F584
:1012500081531C33194610460AF0DDF90346002B72
:1012600008D07B6803F581531C331946786800F079
:1012700077F816E07B6803F581531C33184600F0BD
:1012800019FF7B6803F5805393F85430194678684A
:1012900000F06FFD03461A467B6803F5805383F820
:1012A00054200021786800F0D3F87B6803F5805360
:1012B00093F854301946786800F0CAF87B6803F553
:1012C00081531C33184601F02EF8BB7B002B01D054
:1012D000002325E0012323E07B6803F581531C33C1
:1012E000184600F0E7FE7B6803F585530121184698
:1012F00001F058FB0121786800F0AAF87B6803F53B
:1013000081531C33184601F00EF87B7B012B01D171
:10131000022305E07B7B022B01D1032300E00023A5
:1013200018461437BD4690BD80B582B000AF7860D6
:101330007B6803F58053D3F8C830002B0AD07B6854
:1013400003F58053D3F8C8301946786800F093FD50
:10135000012300E0002318460837BD4680BD000089
:1013600080B584B000AF786039603B685B88FB81F2
:101370003B689B88BB813B689B7E03F00103002B8D
:101380000DD1B7F90E30184618F06AFC0346FB8100
:10139000B7F90C30184618F063FC0346BB81FB8993
:1013A000274A12881146274A1288184618F025FC49
:1013B0000346FB81BB89244A12881146234A1288BE
:1013C000184618F01AFC0346BB813B689B7E03F06D
:1013D0000103002B0DD1B7F90E30184618F026FC8A
:1013E0000346FB81B7F90C30184618F01FFC034682
:1013F000BB813B68FA895A803B68BA899A803B680E
:101400005B7E1E2B02D93B681E225A763B681B7EF0
:101410001946786800F0ADFC03461A463B681A7618
:101420003B68DB7EFF220A21184618F0E6FB0346E4
:10143000DAB23B68DA7600BF1037BD4680BD00BF28
:10144000E2AE0208E4AE0208E6AE0208E8AE020828
:1014500080B588B000AF78600B46FB707B6803F501
:101460008053D3F8C830002B01D1002384E001233E
:10147000FB77FF23BB777B6803F58053D3F8C83035
:10148000002B09D07B6803F58053D3F8C820FB7884
:101490005B0013441B78BB77BB7FFF2B0ED17B68AF
:1014A00003F58552FB78002B01D1012300E00023D6
:1014B0001946104601F076FA00235DE07868BA7F9D
:1014C00007F10C0100230AF0A9F90346002B14BF11
:1014D00001230023DBB2002B0FD07B6803F585527C
:1014E000FB78002B01D1012300E0002319461046B0
:1014F00001F058FA0023FB773DE03B7D03F0020347
:10150000002B0DD17B6803F58552FB78002B01D1B0
:10151000012300E000231946104601F043FA2AE0B7
:101520007B6803F5855307F10C021146184601F05C
:101530008BFA034683F00103DBB2002B0DD07B68EE
:1015400003F58552FB78002B01D1012300E0002335
:101550001946104601F026FA0DE07B6803F5855028
:10156000FB78002B01D1012200E0002207F10C03DF
:10157000194600F0AEFFFB7F18462037BD4680BD00
:1015800080B582B000AF78600B46FB70FB781946DF
:101590007868FFF75DFF0346002B09D07B6803F5F1
:1015A00080531A46FB7882F85430786800F09EF930
:1015B00000BF0837BD4680BD80B586B000AFF8607B
:1015C000084611461A4603467B810B463B8113466B
:1015D000FB71FB6803F58550FB79B7F90820798921
:1015E00001F028F80346FB82FB6803F581531C33A6
:1015F0001846FFF782FD034683F00103DBB2002BA0
:1016000006D0B7F91630184618F010FB0346FB82D7
:10161000FB8A18461837BD4680BD00002DE9F04111
:101620008EB002AFF860084611461A4603467B8129
:101630000B463B811346FB71B7F90840FB6803F585
:101640008553FA791146184600F09AFF0346E31ACB
:10165000BB61FB6803F58553FA790021184600F059
:10166000C5FF03461A46BB699BB21344FB85FB6862
:1016700003F58553FA790321184600F0B7FF0346B6
:101680001A46BB699BB21344BB85FB6803F58553BF
:10169000FA7911461846FFF743FD03467B85FB6840
:1016A00003F58553FA7911461846FFF751FD0346B5
:1016B0003B85FB6803F581531C331846FFF71DFD7E
:1016C000034683F00103DBB2002B1BD0B7F92E30A9
:1016D000184618F0ABFA0346FB85B7F92C301846CC
:1016E00018F0A4FA0346BB85B7F92A30184618F05B
:1016F0009DFA03467B85B7F92830184618F096FA0C
:1017000003463B857B89798D3A8D184618F075FA2A
:1017100003467B810023FB84454B1B88BB847C896B
:10172000FD8DBE8DFB6803F58553FA7900211846BF
:1017300000F03EFF03469846FB6803F58553FA79AF
:101740000321184600F034FF034600934346324617
:101750002946204618F0ECF903467B847A8CF98CF4
:10176000BB8C0B44D90F0B445B109A420CDDBA8C36
:10177000FB8CD31A002B00DA03339B105B429AB226
:101780007B8C13447B840AE0BA8CFB8CD31A002B2D
:1017900000DA03339B109AB27B8C13447B840023C2
:1017A00087F8213097F82130132B3BD8FB79B7F914
:1017B0000820798CF868FFF7FFFE0346FB82FA8A5F
:1017C0007B899A4201D17B8C2DE0FA8A7B899A42EF
:1017D00010D27B8CFB84FA8CBB8C1344DA0F13443D
:1017E0005B10FB83FA8B7B8C9A4213D17B8C013389
:1017F000FB830FE07B8CBB84FA8CBB8C1344DA0F29
:1018000013445B10FB83FA8B7B8C9A4202D17B8C56
:10181000013BFB83FB8B7B8497F82130013387F8F6
:101820002130BFE77B8C18463037BD46BDE8F081DC
:10183000DCAE0208F0B587B002AF78600B467B8063
:1018400013467B707B6803F585537A780021184630
:1018500000F0CCFE0346FB817B6803F58053B3F8B0
:1018600050301846B7F90230FA89194618F0C5F910
:1018700003469AB27B6803F58053A3F850207B6837
:1018800003F58053B3F850301E46B7F90240FD8986
:101890007B6803F585537A780021184600F088FEAE
:1018A0000346009300232A462146304618F040F9AB
:1018B00003469BB218461437BD46F0BD80B584B0D0
:1018C00000AF78607B6803F5805393F85430FB7366
:1018D000FB7B1A460449786800F036FB034618463D
:1018E0001037BD4680BD00BFC002002080B582B069
:1018F00000AF78607B6803F581531C33184600F015
:101900006BFB0346002B10D17A687B6803F581538B
:101910001C331946104609F037FF7B6803F58153E5
:101920001C33184600F0FFFC00E000BF0837BD463E
:1019300080BD80B584B000AFF860B9601346FB711C
:10194000FB79002B18D1BB681B689AB2FB6803F5C2
:101950008053A3F84420BB685B689AB2FB6803F528
:101960008053A3F84620BB689B689AB2FB6803F5D6
:101970008053A3F8482017E0BB681B689AB2FB6845
:1019800003F58053A3F84A20BB685B689AB2FB68F2
:1019900003F58053A3F84C20BB689B689AB2FB68A0
:1019A00003F58053A3F84E20FA68FB6803F58153D2
:1019B0001C331946104609F0E7FEFB6803F5815316
:1019C0001C33184600F0AFFC00BF1037BD4680BD89
:1019D00080B58AB000AFF8607A601A460B46FB7299
:1019E0001346BB727B681B883B827B685B887B826B
:1019F0007B689B88BB827B68DB88FB82BB7A3B76FB
:101A000097F83030BB77FB6803F58053D3F8C820D4
:101A1000FB7A5B001344BA7A5A70FB6803F5815372
:101A20001C33FA7A114618460BF022FF78627B6A63
:101A3000002B0DD0FB6803F5855307F1100211460A
:101A4000184601F001F80346002B01D0012300E005
:101A50000023002B31D007F1100309330522796AE6
:101A6000184627F047FCFB6807F1100100221846D2
:101A700009F070FF03467B84B7F92230002B1CDB92
:101A8000FB6803F5865304331846FFF7C3FAFB6877
:101A900003F58053D3F8C820FB7A5B0013447A8C9B
:101AA000D2B21A70FB6803F58053D3F8C820FB7AD2
:101AB0005B001344BA7A5A7006E0FB6803F586535C
:101AC00004331846FFF7F1FA2837BD4680BD80B5CC
:101AD00088B000AF78600B46FB707B6803F58053DD
:101AE000D3F8C830002B01D1002366E00023FB7738
:101AF0007B6803F58053D3F8C820FB785B00134460
:101B00001B78BB83BB8BFF2B19D17B6803F58153FB
:101B10001C33FA78114618460BF0AAFEB861BB696F
:101B2000002B23D007F1080309330522B9691846B1
:101B300027F0E0FB01233B740123FB7716E0786874
:101B4000BB8BDAB207F10801012309F067FE0346F7
:101B5000002B0CBF01230023DBB2002B06D03B7C03
:101B600083F00103DBB23B740123FB77FB7F83F03F
:101B70000103DBB2002B01D000231EE07B6807F1DC
:101B800008010122184609F0E5FE0346BB837B6885
:101B900003F58053D3F8C820FB785B001344BA8B5D
:101BA000D2B21A707B6803F58053D3F8C820FB7853
:101BB0005B0013443A7C5A70012318462037BD4617
:101BC00080BD90B587B000AFF8607A601A460B46CA
:101BD000FB721346BB72FB6803F58053D3F8C83021
:101BE000002B15D10023FB75FA7DBB7A9A420DD2EA
:101BF000FA7D13465B0013449B001A467B6813442E
:101C000000229A70FB7D0133FB75EDE70023ACE009
:101C1000FB7A9BB2013B9BB2BB820323FB74B7F9F7
:101C20001430002B25DD97F8283083F00103DBB258
:101C3000002B0DD1FB6803F58053D3F8C820B7F90A
:101C400014305B0013445B7803F00103002B0AD0CF
:101C5000FB7C013BFB74FB7C002B0CBF01230023AE
:101C6000DBB2002B04D1BB8A013B9BB2BB82D6E71F
:101C700000BF0023BB74B7F91440FB6803F5815320
:101C80001C3318460BF0E6FD03469C42B4BF01230B
:101C90000023DBB2002B53D0B7F91430002B46D011
:101CA00097F82830002B0DD0FB6803F58053D3F84C
:101CB000C820B7F914305B0013445B7803F00103CC
:101CC000002B36D0BA7C13465B0013449B001A46A7
:101CD0007B681344BA8AD2B21A70FB6803F580534A
:101CE000D3F8C820B7F914305B00D118BA7C13467A
:101CF0005B0013449B001A467B6813444A785A7071
:101D0000BA7C13465B0013449B001A467B6813445D
:101D10000233BA8AD2B21946F86800F015F9BB7CD2
:101D20000133BB74BA7CBB7A9A4208D202E000BF8E
:101D300000E000BFBB8A01339BB2BB829BE700BFC0
:101D4000BB7C7B747A7CBB7A9A420DD27A7C134638
:101D50005B0013449B001A467B68134400229A7070
:101D60007B7C01337B74EDE7BB7C18461C37BD469A
:101D700090BD80B584B000AF78600B46FB707B6887
:101D800003F58053D3F8C830002B01D101236EE056
:101D90007B6803F581531C3318460BF05BFD03464B
:101DA0007B81FB787A890121184617F026FF0346CC
:101DB000FB707B6803F58053D3F8C820FB785B0089
:101DC00013445B7803F00103002B01D0FB784EE055
:101DD000FB78FB81FB89002B11D07B6803F58053D6
:101DE000D3F8C820FB895B0013445B7803F0010340
:101DF000002B03D1FB89013BFB81EBE700BFFB78A4
:101E0000BB81BA897B899A4211D27B6803F58053E2
:101E1000D3F8C820BB895B0013445B7803F001034F
:101E2000002B03D1BB890133BB81EAE700BFFB89EB
:101E3000002B08D1BA897B899A4202D0BB89DBB2D8
:101E400015E0012313E0BA897B899A4202D1FB890C
:101E5000DBB20CE0FA78FB89D21AB989FB78CB1A8D
:101E60009A4202DAFB89DBB201E0BB89DBB2184699
:101E70001037BD4680BD90B589B000AF786039603D
:101E80000023FB830023BB83B7F91C407B6803F569
:101E900081531C3318460BF0DDFC03469C42B4BF53
:101EA00001230023DBB2002B44D07868BB8BDAB26D
:101EB00007F10801012309F0B1FC0346FB76FB7E24
:101EC000002B2ED17B6803F581531C3307F10802E8
:101ED0000932114618460BF0E9FC03463B83B7F97B
:101EE0001830002B20DB3B7C002B1DD0B7F91830BD
:101EF0005B003A6813441B78FF2B15D1B7F91830F3
:101F00005B003A681344BA8BD2B21A70B7F9183032
:101F10005B003A6813443A7C5A70FB8B0133FB83B5
:101F200002E0FB7E012B04D0BB8B01339BB2BB8351
:101F3000AAE700BF7B68184609F034FBFB8BDBB2D5
:101F400018462437BD4690BD80B586B000AFF86016
:101F5000B9601346FB71FB6803F581531C33FA79B2
:101F6000114618460BF084FC78617B69002B22D067
:101F7000FB79002B03D07B691B784E2B09D10522FE
:101F80007969B86827F0B6F9BB68053300221A7082
:101F900018E0BB680E4A1068186012791A71BB68A5
:101FA000043305227969184627F0A4F9BB68093380
:101FB00000221A7006E0BB6806491A460B4603CB9E
:101FC00010605160BB6818461837BD4680BD00BF21
:101FD000A0990208A899020880B582B000AF786085
:101FE0007B685A887B689B8E9A4201D000235DE013
:101FF0007B689A887B68DB8E9A4201D0002355E08B
:102000007B68DA887B681B8F9A4201D000234DE001
:102010007B689A8A7B68B3F846309A4201D00023E5
:1020200044E07B689A7D7B6893F848309A4201D0FF
:1020300000233BE07B681A7E7B6893F84A309A4223
:1020400001D0002332E07B685A7E7B6893F84B30E6
:102050009A4201D0002329E07B689A7E7B6893F83E
:102060004C309A4201D0002320E07B68DA7D7B6807
:1020700093F849309A4201D0002317E07B68DA7E5A
:102080007B6893F84D309A4201D000230EE07B68C4
:1020900003F11D007B684F331422194627F016F90F
:1020A0000346002B01D0002300E001231846083727
:1020B000BD4680BD80B582B000AF78607B68EB2202
:1020C0005A807B684FF496729A807B684FF49662D0
:1020D000DA807B6801221A767B6800225A767B6858
:1020E00000229A827B6805229A757B6833229A7651
:1020F0007B680022DA757B6841F649021A817B68A9
:1021000025225A817B684FF439629A817B68C82204
:10211000DA817B6840221A827B68C3225A827B68FC
:102120008022DA767B6801221A777B681D331422BD
:102130000349184627F0DEF800BF0837BD4680BDCA
:10214000F8AE020880B582B000AF78607B685B7F34
:10215000002B06D17B681D3314220549184627F051
:10216000C9F87B681D3318460837BD4680BD00BFDF
:10217000F8AE020880B584B000AF7860084611461A
:102180001A460346FB700B46BB7013467B707B6898
:102190009B7E03F00103002B14BF01230023FB737C
:1021A0007B68FA785A767B683A8E9A827B6897F8D1
:1021B00034209A75FA7B7B789A422BD07B78002B5F
:1021C00014D07B685B881BB2184617F049FD0346A4
:1021D0009AB27B685A807B689B881BB2184617F0BE
:1021E0003FFD03469AB27B689A8013E07B685B8868
:1021F0001BB2184617F01AFD03469AB27B685A8044
:102200007B689B881BB2184617F010FD03469AB2F4
:102210007B689A807B6800229A767B78002B06D0B8
:102220007B689B7E43F00103DAB27B689A76BB78C9
:10223000002B06D07B689B7E43F00203DAB27B68FA
:102240009A763B7E002B06D07B689B7E43F004038E
:10225000DAB27B689A763B7F002B06D07B689B7E48
:1022600063F07F03DAB27B689A7697F82030002B10
:1022700006D07B689B7E43F01003DAB27B689A76C7
:1022800097F82430002B06D07B689B7E43F0200318
:10229000DAB27B689A7697F82C30002B06D07B68F0
:1022A0009B7E43F00803DAB27B689A7697F8283071
:1022B000002B06D07B689B7E43F04003DAB27B683C
:1022C0009A7697F83830FF220A21184617F095FCC5
:1022D0000346DAB27B68DA7600BF1037BD4680BDB0
:1022E00080B483B000AF78600B467B807B687A88CF
:1022F0005A8000BF0C37BD465DF8047B704780B440
:1023000083B000AF78600B467B8013463B807B68D0
:102310007A889A807B683A88DA8000BF0C37BD469D
:102320005DF8047B704780B582B000AF78607B6851
:10233000323379683222184626F026FE00BF08376D
:10234000BD4680BD80B582B000AF786078687B689C
:1023500032333222194626F017FE00BF0837BD4639
:1023600080BD80B485B000AF78607B68DB7D1B09E1
:10237000FB73FB7B1A4692001344DBB218461437FA
:10238000BD465DF8047B704780B485B000AF7860CF
:102390007B68DB7D9BB203F00F03FB81FB8901337C
:1023A0009BB21A46920013449B009BB21846143706
:1023B000BD465DF8047B704780B483B000AF7860A1
:1023C0000B46FB7013463B80FB784B2B01D94B230C
:1023D000FB703B88B3F5A07F02D94FF4A0733B801C
:1023E0003B88042B01D805233B80FB780433FB702A
:1023F000FB78154AA2FB03239B08FB70FB781B01AB
:10240000DAB27B68DA757B68DB7D23F00F03DAB222
:102410007B68DA757B68DB7D5AB23B88013B0B49F0
:1024200081FB0301C910DB17CB1A5BB203F00F036A
:102430005BB213435BB2DAB27B68DA7500BF0C376C
:10244000BD465DF8047B7047CDCCCCCC6766666634
:1024500080B584B000AFF860B9601346FB71FB79BA
:10246000002B0BD0BB681B891946BB685B891A46D9
:10247000BB689B89F86815F07DFE0AE0BB68DB89C4
:102480001946BB681B8A1A46BB685B8AF86815F058
:1024900071FEF8681037BD4680BD80B584B000AFCE
:1024A000F860B9601346FB71FB79002B07D0C82395
:1024B0000A2240F23F21F86815F05CFE05E0322365
:1024C00040229621F86815F055FEF8681037BD4691
:1024D00080BD80B487B000AFF860B9601346FB716F
:1024E000FB79FB75FA7DBB681888F96813469B0079
:1024F00013445B000B4402461A80FA7DBB6858887F
:10250000F96813469B0013445B000B4402330246F8
:102510001A80FA7DBB689888F96813469B001344BB
:102520005B000B44043302461A80FA7DBB68D888EE
:10253000F96813469B0013445B000B4406330246C4
:102540001A80FA7DBB68187AF96813469B00134419
:102550005B000B44083302461A70FA7DBB6893F99E
:102560000E00F96813469B0013445B000B440933CB
:1025700002461A7000BF1C37BD465DF8047B7047E9
:1025800080B485B000AF78600B46FB70FB78FB73BE
:10259000FA7B796813469B0013445B000B440933B4
:1025A00093F9003018461437BD465DF8047B704738
:1025B00080B485B000AF78600B46FB701346BB70EB
:1025C000FB78032B01D900230AE0BB78FB73FA7B6D
:1025D000F878796813469B001344034431F81330AC
:1025E00018461437BD465DF8047B704780B483B04D
:1025F00000AF78600B46FB701346BB70FB78032B73
:1026000001D900230FE0BB78012B06D1FB787A6853
:102610000C335B0013449B8805E0FB787A68083331
:102620005B0013449B8818460C37BD465DF8047B5D
:10263000704700002DE9F04188B002AFF86008460D
:1026400011461A4603467B810B463B811346FB71BC
:10265000FB793B750023FB82B7F908103A7DF868D7
:1026600013469B0013445B000344093393F9003085
:10267000CB1A3B613A7DF96813469B0013445B001B
:102680000B441B887A899A421FD27C893A7DF9686B
:1026900013469B0013445B000B441B881E46B7F98E
:1026A0000850FB791A460021F868FFF79FFF0346A0
:1026B0001A463B69134400932B46324600212046BC
:1026C00017F036FA0346FB82C9E03A7DF9681346F3
:1026D0009B0013445B000B4406331B887A899A42A3
:1026E0004BD801237B757B7D032B00F2B8803A7DAC
:1026F000787DF96813469B001344034431F8133086
:102700007A899A4235D27C893A7D7B7D581EF96858
:1027100013469B001344034431F813301E463A7DA0
:10272000787DF96813469B001344034431F8133055
:1027300098467B7D013BDBB2FA791946F868FFF7D2
:1027400055FF03461A463B69D518FA797B7D194631
:10275000F868FFF74BFF03461A463B6913440093A2
:102760002B4642463146204617F0E2F90346FB82EB
:1027700075E07B7D01337B75B5E73A7DF9681346DB
:102780009B0013445B000B44023319883A7DF868C0
:1027900013469B0013445B00034406331B88994295
:1027A00032D27C893A7DF96813469B0013445B0062
:1027B0000B4402331B881E463A7DF96813469B0082
:1027C00013445B000B4406331B889846FB791A467A
:1027D0000121F868FFF70AFF03461A463B69D5183E
:1027E000FB791A460321F868FFF700FF03461A46F3
:1027F0003B69134400932B4642463146204617F06E
:1028000097F90346FB822AE07C893A7DF9681346F2
:102810009B0013445B000B4402331B881E46184B7D
:102820001B889846FB791A460121F868FFF7DEFEFF
:1028300003461A463B69D518FB791A460321F86806
:10284000FFF7D4FE03461A463B69134400932B4618
:1028500042463146204617F06BF90346FB82B7F932
:102860001630B7F9081040F2E732184617F0C5F9EC
:102870000346FB82FB8A18461837BD46BDE8F08147
:10288000DCAE020890B486B000AFF860B9601346C1
:10289000FB71FB79BB750023FB75FB7D032B11D806
:1028A000BA7DFC7DFB7D5B00B9681944F86813466E
:1028B0009B001344234430F813300B80FB7D01331D
:1028C000FB75EAE700BF1837BD4690BC70470000B3
:1028D00090B486B000AFF860B96011461A460B4656
:1028E000FB711346BB71BB79BB750023FB75FB7D88
:1028F000032B12D8FB7D5B00BA681344BA7DF87DC8
:102900001C88F96813469B0013440344224621F8AF
:102910001320FB7D0133FB75E9E7BA7DF9681346A7
:102920009B0013445B000B440933FA791A70BA7D9B
:10293000F96813469B0013445B000B4408330322E1
:102940001A70BA7DF96813469B0013445B000B4470
:1029500006331A880A4B1B889A420BD9BA7D084B5A
:102960001888F96813469B0013445B000B44063338
:1029700002461A8000BF1837BD4690BC704700BFA2
:10298000DCAE020880B582B000AF78600B46FB7009
:10299000FB781946786800F005F800BF0837BD4697
:1029A00080BD000080B485B000AF78600B46FB703E
:1029B000FB78FB73FA7B796813469B0013445B003A
:1029C0000B444FF42A721A80FA7B796813469B00F5
:1029D00013445B000B4402334FF471721A80FA7B8C
:1029E000796813469B0013445B000B44043340F2A8
:1029F0000A521A80FA7B796813469B0013445B00E5
:102A00000B4406334FF4C8621A800E4B1B78FA7BD6
:102A100058B2796813469B0013445B000B4409339A
:102A200002461A70FA7B796813469B0013445B00D8
:102A30000B44083301221A7000BF1437BD465DF8FD
:102A4000047B7047EAAE020880B483B000AF7860C0
:102A500039603B681A883B685B889A420DD23B68B4
:102A60005A883B689B889A4207D23B689A883B68A1
:102A7000DB889A4201D2012300E0002318460C377C
:102A8000BD465DF8047B704780B483B000AF7860CA
:102A90000B46FB707B6808221A707B6800225A6024
:102AA0007B68FA781A707B6800225A607B68184647
:102AB0000C37BD465DF8047B704780B483B000AF2F
:102AC00078600B46FB707B68002283F842207B68AD
:102AD000002283F840207B68FA7883F841207B68E5
:102AE00018460C37BD465DF8047B704780B582B050
:102AF00000AF78600B46FB707B68FA781146184689
:102B0000FFF7C2FF7B6800221A727B6800225A72AC
:102B10007B684FF4C8725A817B684FF4FA729A81CD
:102B20007B6818460837BD4680BD80B483B000AFCF
:102B300078607B685B7A18460C37BD465DF8047B8D
:102B4000704780B483B000AF78607B6814221A604D
:102B50007B6800229A807B680022DA807B680022F2
:102B60009A607B680A22DA607B680A221A617B68B5
:102B700000225A617B680B221A837B6818460C3747
:102B8000BD465DF8047B704780B582B000AF7860C9
:102B90007B68234A127811461846FFF78EFF7B6840
:102BA00044331F4A127811461846FFF786FF7B68A8
:102BB00088331B4A127811461846FFF77EFF7B6860
:102BC0000022A3F8CC207B680022A3F8CE207B68EB
:102BD0000022A3F8D0207B680022A3F8D2207B68D3
:102BE000002283F8D4207B680022C3F8D8207B68B9
:102BF000002283F8DC207B68002283F8DD207B68DC
:102C00000022A3F8DE207B680022A3F8E0207B6886
:102C10000022A3F8E2207B6818460837BD4680BD35
:102C2000DEAE020880B582B000AF78607B68043306
:102C30001846FFF786FF7B6820331846FFF7A4FF8E
:102C4000034A7B681A607B6818460837BD4680BD1A
:102C500028A2020880B483B000AF7860044A7B6881
:102C60001A607B6818460C37BD465DF8047B7047D8
:102C700028A2020880B582B000AF78607868FFF7BC
:102C8000E9FF4FF48271786825F0CBFA7B6818462B
:102C90000837BD4680BD000080B582B000AF7860C7
:102CA0007B681846FFF7BEFF2B4A7B681A607B687B
:102CB0000022C3F804217B6803F5847308211846B9
:102CC000FFF7E2FE7B6803F5887308211846FFF7DB
:102CD000DBFE7B6803F58C7308211846FFF706FFBF
:102CE0007B6803F5947308211846FFF7FFFE7B68A5
:102CF0000A2283F838217B68082283F839217B680F
:102D00004FF4FA72A3F83A217B684FF47A72A3F871
:102D10003C217B68032283F83E217B680E2283F8E6
:102D20003F217B68142283F840217B68052283F8C9
:102D300041217B68022283F842217B686422C3F828
:102D400044217B6840F63C72A3F848217B68184612
:102D50000837BD4680BD00BFE8A1020880B582B03B
:102D600000AF78607B6803F58C731846FFF7DDFED3
:102D7000034618460837BD4680BD80B582B000AF17
:102D8000786039607B6803F588733A6811461846A5
:102D900016F0B4F900BF0837BD4680BD80B582B0DB
:102DA00000AF78600B467B807B6803F58C737A8874
:102DB0001146184616F009FB00BF0837BD4680BD16
:102DC00080B582B000AF7860054A7B681A607B6886
:102DD0001846FFF73FFF7B6818460837BD4680BDA1
:102DE000E8A1020880B582B000AF78607868FFF78C
:102DF000E7FF4FF4A671786825F013FA7B68184650
:102E00000837BD4680BD000080B582B000AF786055
:102E10007B681846FFF740FF284A7B681A607B688A
:102E20000022A3F84A217B680022A3F84C217B688A
:102E30000022A3F84E217B680022A3F850217B6872
:102E4000002283F852217B68002283F853217B689B
:102E50000022A3F854217B6803F5AC7308211846BF
:102E6000FFF712FE7B6803F5B07308211846FFF7E1
:102E70000BFE7B6803F5B47308211846FFF704FEC8
:102E80007B6803F5B87308211846FFF7FDFD7B68E2
:102E900040F2CF72A3F878217B684FF47A72A3F8DE
:102EA0007A217B68142283F87C217B686422A3F852
:102EB0007E217B6818460837BD4680BD60AC02089D
:102EC00080B582B000AF78607B681846FFF7AAFE35
:102ED0001B4A7B681A607B68002283F804217B68A8
:102EE0000022C3F808217B6803F586730821184681
:102EF000FFF7FCFD7B6803F58E7308211846FFF78A
:102F0000F5FD7B684FF4FA72A3F82C217B684FF42F
:102F10007A72A3F82E217B681E2283F830217B6809
:102F20003C2283F831217B680A2283F832217B68B6
:102F30000122C3F834217B6818460837BD4680BD9E
:102F4000A8A1020880B582B000AF78607B6803F565
:102F50008E731846FFF7E9FD034618460837BD464D
:102F600080BD80B582B000AF78600B467B807B6807
:102F700003F58E737A881146184616F026FA00BFBC
:102F80000837BD4680BD000080B582B000AF7860D4
:102F9000054A7B681A607B681846FFF75BFE7B6812
:102FA00018460837BD4680BDA8A1020880B582B08A
:102FB00000AF78607868FFF7E7FF4FF49C7178689E
:102FC00025F02FF97B6818460837BD4680BD000004
:102FD00080B582B000AF78607B681846FFF770FF5D
:102FE0003B4A7B681A607B68002283F838217B6843
:102FF000002283F839217B68002283F83A217B681C
:103000000022A3F83C217B680022A3F83E217B68C4
:103010000022C3F840217B680022C3F844217B686A
:1030200003F5A4732B4A127811461846FFF72CFDBE
:103030007B6803F5A873274A127811461846FFF7F4
:1030400023FD7B6803F5AC7308211846FFF71CFDD0
:103050007B6803F5B07308211846FFF715FD7B6800
:1030600003F5B47308211846FFF70EFD7B680022B4
:10307000A3F870217B68462283F872217B68632263
:1030800083F873217B684FF41672A3F874217B6870
:1030900040F2CF72A3F876217B684FF4C862A3F8A0
:1030A00078217B684FF44872A3F87A217B683C2230
:1030B000A3F87C217B68084AC3F880217B684EF620
:1030C0006022C3F884217B6818460837BD4680BD5E
:1030D00020AC0208DFAE0208407E050080B483B059
:1030E00000AF78600B46FB707B68FA7883F83E206F
:1030F00000BF0C37BD465DF8047B704780B483B0D9
:1031000000AF78607B689B8B1BB218460C37BD46BE
:103110005DF8047B704780B483B000AF78607B6853
:1031200000221A607B6818460C37BD465DF8047BA8
:10313000704780B483B000AF78607B6800221A606B
:103140007B6818460C37BD465DF8047B704780B538
:1031500082B000AF78607B68184623F054FD7B682E
:1031600018460837BD4680BD80B582B000AF786094
:103170007B6804331846FFF7EAFF044A7B681A604D
:103180007B6818460837BD4680BD00BF80A1020895
:1031900080B483B000AF7860044A7B681A607B68B3
:1031A00018460C37BD465DF8047B704780A10208C5
:1031B00080B582B000AF78607868FFF7E9FF5021F2
:1031C000786825F02EF87B6818460837BD4680BD24
:1031D00080B483B000AF786000BF0C37BD465DF8A7
:1031E000047B704780B582B000AF786023F00FF8A1
:1031F00000BF0837BD4680BD80B582B000AF7860A3
:1032000023F011F800BF0837BD4680BD80B582B0FD
:1032100000AF78600B46FB70FB78184623F00FF880
:1032200000BF0837BD4680BD80B582B000AF786072
:103230000B46FB70FB78184623F017F800BF0837E1
:10324000BD4680BD80B582B000AF78600B46FB7094
:10325000FB78184623F01FF800BF0837BD4680BD35
:1032600080B582B000AF78607B681846FFF77CFFBE
:10327000034A7B681A607B6818460837BD4680BDE4
:1032800058A1020880B582B000AF7860054A7B681B
:103290001A607B681846FFF77BFF7B681846083783
:1032A000BD4680BD58A1020880B582B000AF7860ED
:1032B0007868FFF7E7FF5021786824F0B2FF7B6859
:1032C00018460837BD4680BD80B582B000AF786033
:1032D00021F082F900BF0837BD4680BD80B483B0BD
:1032E00000AF78607B6818460C37BD465DF8047BFC
:1032F000704780B483B000AF78607B6800221A808A
:103300007B6800225A607B6800229A607B680022FA
:103310009A817B6800229A737B6818460C37BD46F9
:103320005DF8047B704780B582B000AF78607B6841
:103330000433184625F04CF97B6818460837BD461B
:1033400080BD000090B583B000AF78607B6800223C
:103350001A707B681C1DC54B2360231D184625F081
:103360000FF91C34C24B2360231D184625F008F9C1
:103370001C34C04B2360231D184625F001F91C3472
:10338000BD4B2360231D184625F0FAF81C34BB4BB7
:103390002360231D184625F0F3F81C34B84B236036
:1033A000231D184625F0ECF81C34B64B2360231D72
:1033B000184625F0E5F81C34B34B2360231D18464E
:1033C00025F0DEF81C34B14B2360231D184625F090
:1033D000D7F81C34AE4B2360231D184625F0D0F8D7
:1033E0001C34AC4B2360231D184625F0C9F81C344F
:1033F000A94B2360231D184625F0C2F81C34A74BA7
:103400002360231D184625F0BBF81C34A44B236011
:10341000231D184625F0B4F81C34A24B2360231D4D
:10342000184625F0ADF81C349F4B2360231D184629
:1034300025F0A6F81C349D4B2360231D184625F06B
:103440009FF81C349A4B2360231D184625F098F8EA
:103450001C34894B2360231D184625F091F81C3439
:10346000944B2360231D184625F08AF81C34924B98
:103470002360231D184625F083F81C348F4B2360EE
:10348000231D184625F07CF81C348D4B2360231D2A
:10349000184625F075F81C348A4B2360231D184606
:1034A00025F06EF81C34884B2360231D184625F048
:1034B00067F81C34854B2360231D184625F060F8FF
:1034C0001C34834B2360231D184625F059F81C3407
:1034D000804B2360231D184625F052F81C347E4B88
:1034E0002360231D184625F04BF81C347B4B2360CA
:1034F000231D184625F044F81C34794B2360231D06
:10350000184625F03DF81C34764B2360231D1846E1
:1035100025F036F81C34744B2360231D184625F023
:103520002FF81C34714B2360231D184625F028F812
:103530001C346F4B2360231D184625F021F81C34E2
:103540006C4B2360231D184625F01AF81C346A4B77
:103550002360231D184625F013F81C344E4B2360BE
:10356000231D184625F00CF81C34644B2360231DE2
:10357000184625F005F81C34614B2360231D1846BE
:1035800024F0FEFF1C345F4B2360231D184624F0FB
:10359000F7FF1C345C4B2360231D184624F0F0FF1A
:1035A0001C34554B2360231D184624F0E9FF1C34BE
:1035B000564B2360231D184624F0E2FF1C34544B65
:1035C0002360231D184624F0DBFF1C34514B23607D
:1035D000231D184624F0D4FF1C344F4B2360231DB9
:1035E000184624F0CDFF1C344C4B2360231D184695
:1035F00024F0C6FF1C344A4B2360231D184624F0D8
:10360000BFFF1C34474B2360231D184624F0B8FF2E
:103610001C34454B2360231D184624F0B1FF1C3495
:10362000424B2360231D184624F0AAFF1C34404B54
:103630002360231D184624F0A3FF1C343D4B236058
:10364000231D184624F09CFF1C343B4B2360231D94
:10365000184624F095FF1C34384B2360231D184670
:1036600024F08EFF1C34364B23606BE0B0990208C7
:10367000BC990208C8990208D4990208E099020886
:10368000F0990208009A02080C9A0208189A020897
:10369000289A0208389A0208409A0208489A0208B2
:1036A000549A02085C9A0208649A0208749A020802
:1036B000809A02088C9A0208989A0208A49A020832
:1036C000B09A0208C09A0208D09A0208DC9A02084E
:1036D000E89A0208F49A0208FC9A0208049B02087D
:1036E000109B02081C9B0208289B0208389B0208BA
:1036F000449B0208509B0208589B0208609B0208EA
:103700006C9B0208789B0208849B0208949B020829
:103710009C9B0208A09B0208A49B0208AC9B020889
:10372000B49B0208BC9B0208C49B0208CC9B020805
:10373000D49B0208D89B0208DC9B0208E09B02088D
:10374000E49B0208231D184624F01AFF1C344D4B3D
:103750002360231D184624F013FF1C344A4B2360BA
:10376000231D184624F00CFF1C34484B2360231DF6
:10377000184624F005FF1C34454B2360231D1846D2
:1037800024F0FEFE1C34434B2360231D184624F016
:10379000F7FE1C34404B2360231D184624F0F0FE36
:1037A0001C343E4B2360231D184624F0E9FE1C34D4
:1037B0003B4B2360231D184624F0E2FE1C34394B9A
:1037C0002360231D184624F0DBFE1C34364B236097
:1037D000231D184624F0D4FE1C34344B2360231DD3
:1037E000184624F0CDFE1C34314B2360231D1846AF
:1037F00024F0C6FE1C342F4B2360231D184624F0F2
:10380000BFFE1C342C4B2360231D184624F0B8FE49
:103810001C342A4B2360231D184624F0B1FE1C34AF
:10382000274B2360231D184624F0AAFE1C34254B89
:103830002360231D184624F0A3FE1C34224B236072
:10384000231D184624F09CFE1C34204B2360231DAE
:10385000184624F095FE04F11C031D4A1A60043337
:10386000184624F08DFE7B681A4A03F5076392E838
:1038700003001860043319707B6818460C37BD4686
:1038800090BD00BFEC9B0208F49B0208009C02085C
:103890000C9C0208209C0208349C0208449C0208EC
:1038A000549C02086C9C0208849C02088C9C0208B0
:1038B000949C0208989C02089C9C0208AC9C0208FC
:1038C000B89C0208C89C0208D89C0208EC9C02081C
:1038D000F89C02080C9D020880B483B000AF7860A9
:1038E0007B6800221A707B6818460C37BD465DF86D
:1038F000047B704780B483B000AF78600B46FB70E8
:103900007B68FA781A7000BF0C37BD465DF8047BFF
:103910007047000080B483B000AF78607B681A788D
:10392000034B5A6300BF0C37BD465DF8047B7047FC
:103930000004004090B583B000AF78607B6804332A
:10394000002B0CD07B68043303F66C047B680433D3
:103950009C4204D01C3C2046FFF7E5FCF6E77B6860
:1039600018460C37BD4690BD80B582B000AF786078
:103970007B681846FFF774FC7B6850331846FFF7E6
:10398000ABFF7B6854331846FFF7B3FC7B686433A6
:103990001846FFF7D7FC404A7B681A607B68D3F86B
:1039A00020297B68C3F8DC287B680022A3F8E02884
:1039B0007B684FF6FF72A3F8E2287B684FF47842E9
:1039C000A3F8E4287B681F22A3F8E6287B684FF65B
:1039D000E072A3F8E8287B68002283F8EA287B6875
:1039E00003F6EC031846FFF796FB7B6803F50F63BD
:1039F0001846FFF790FB7B6803F6F4031846FFF7C1
:103A00008AFB7B6803F6F8031846FFF792FB7B6896
:103A1000FF2283F8FC287B689622A3F8FE287B68A7
:103A20000022A3F800297B680022A3F802297B6802
:103A30000022A3F804297B680022A3F806297B68EA
:103A4000C822A3F808297B686E22A3F80A297B689C
:103A50005A22A3F80C297B683C22A3F80E297B6824
:103A60005A22A3F810297B682022A3F812297B6828
:103A70001922A3F814297B68084AC3F818297B681F
:103A8000074AC3F81C297B68054AC3F820297B68CC
:103A900018460837BD4680BD6CAA02088CAA0208E9
:103AA00080B3020880B582B000AF7860144A7B68AA
:103AB0001A607B6803F6F803184622F014FE7B6850
:103AC00003F6F403184620F09CFE7B6803F50F63B1
:103AD000184620F096FE7B6803F6EC03184620F0AB
:103AE00090FE7B6864331846FFF724FF7B68184616
:103AF000FFF7C8FB7B6818460837BD4680BD00BF8E
:103B00006CAA020880B582B000AF78607868FFF7D1
:103B1000C9FF40F62411786824F083FB7B681846BF
:103B20000837BD4680BD000080B483B000AF786028
:103B30007B6803F58053002283F828207B6803F517
:103B400080534FF480525A857B6803F580531A46A0
:103B50000D4BD3627B6803F580531A460B4B1363FE
:103B60007B6803F580531A46094B53637B6803F562
:103B700080531A46074B93637B6818460C37BD4643
:103B80005DF8047B704700BF149D0208209D020869
:103B90002C9D0208389D020880B483B000AF786085
:103BA0000B46FB707B68FA781A7000BF0C37BD4675
:103BB0005DF8047B704780B582B000AF78607868AC
:103BC000FFF78CFB7B6818460837BD4680BD80B484
:103BD00083B000AF78607B689B7E03F00203002B0C
:103BE00014BF01230023DBB218460C37BD465DF835
:103BF000047B704780B483B000AF78607B689B7EA5
:103C000003F01003002B14BF01230023DBB218467E
:103C10000C37BD465DF8047B704780B483B000AFBD
:103C200078607B689B7E03F02003002B14BF012388
:103C30000023DBB218460C37BD465DF8047B7047A5
:103C400080B483B000AF78607B689B7E03F0400354
:103C5000002B14BF01230023DBB218460C37BD46EE
:103C60005DF8047B704780B483B000AF78607B68F8
:103C7000DB7E18460C37BD465DF8047B704780B488
:103C800083B000AF78607B681B7F18460C37BD4659
:103C90005DF8047B7047000080B483B000AF7860AB
:103CA0007B680B4903F114020B4603CB1060516093
:103CB0007B68084903F11C020B4603CB106051607E
:103CC0007B6818460C37BD465DF8047B704700BF23
:103CD000449D02084C9D020880B582B000AF786018
:103CE0007B681846FFF720FF7B6803F581531C3380
:103CF0001846FFF760FF7B6803F585531846FFF70A
:103D0000CBFF7B6803F5865304331846FDF750F963
:103D10007B6803F580531A460023C2F8C8307B68DD
:103D200018460837BD4680BD80B483B000AF7860C8
:103D30007B68B3F5007F05D24FF400727B68B2FB5D
:103D4000F3F300E0012318460C37BD465DF8047B11
:103D50007047000080B483B000AF7860044A7B688D
:103D60001A607B6818460C37BD465DF8047B7047C7
:103D700024A1020880B483B000AF7860044A7B6855
:103D80001A607B6818460C37BD465DF8047B7047A7
:103D900024A1020880B582B000AF78607868FFF790
:103DA000E9FF0421786824F03CFA7B68184608375C
:103DB000BD4680BD80B582B000AF78607B68184694
:103DC00001F063FA7B6818460837BD4680BD0000E5
:103DD00080B582B000AF78607B681846FFF7BAFF05
:103DE0000B4A7B681A607B680433184624F0C8FBD2
:103DF0007B681C33184601F034FA7B68443318465C
:103E000001F02FFA7B6818460837BD4680BD00BF19
:103E100008AD020880B582B000AF78600D4A7B68BB
:103E20001A607B6844331846FFF7C4FF7B681C3375
:103E30001846FFF7BFFF7B680433184624F0C8FB21
:103E40007B681846FFF796FF7B6818460837BD4623
:103E500080BD00BF08AD020880B582B000AF7860B9
:103E60007868FFF7D7FF6C21786824F0DAF97B686F
:103E700018460837BD4680BD80B582B000AF786077
:103E80007B68184624F07CFB7B681833184624F0C6
:103E900077FB7B683033184624F072FB7B6818464A
:103EA0000837BD4680BD80B582B000AF78607B68C2
:103EB0003033184624F08CFB7B681833184624F006
:103EC00087FB7B68184624F083FB7B68184608371D
:103ED000BD4680BD80B582B000AF7860786801F0E3
:103EE00009FA7B6818460837BD4680BD80B582B0A8
:103EF00000AF78607B68184601F0ECF97B681846E3
:103F00000837BD4680BD80B582B000AF78607B6861
:103F10001846FFF7EBFF7B6818460837BD4680BDA3
:103F200080B582B000AF78607B681846FFF750FF1D
:103F3000084A7B681A607B686C331846FFF79CFF61
:103F40007B68B4331846FFF7DEFF7B6818460837F6
:103F5000BD4680BDD4AC020880B582B000AF7860A9
:103F60007B681846FFF734FF054A7B681A607B6858
:103F70000022DA667B6818460837BD4680BD00BF60
:103F8000A0AC020880B582B000AF78607B6803F512
:103F9000015320331846FFF7C3FF7B6803F5045332
:103FA00020331846FFF7D8FF7B6803F50053002243
:103FB00083F890217B6803F500531A460023C2F86A
:103FC00094317B6803F500531A46044BC2F89831CC
:103FD0007B6818460837BD4680BD00BFECAE0208BE
:103FE00080B483B000AF78607B6803F50053D3F8EA
:103FF000943118460C37BD465DF8047B704780B598
:1040000082B000AF78607B6803F504532033184614
:1040100002F060FA7B6803F501532033184602F082
:104020002DFA7B6818460837BD4680BD80B584B040
:1040300002AF78607B681846FFF74EFE7B6803F599
:1040400086530C331846FFF79DFF7B6803F54953F1
:1040500028331846FFF788FC7B6803F56E530C3352
:104060001846FEF7D1FE7B6803F574500C3001232F
:104070000093124B4FF48072114906F0DAFE7B6810
:1040800003F575501830022300930C4B4FF4004297
:104090000C4906F0CEFE7B6803F5765324331846B0
:1040A000FEF796FF7B6803F57C532C331846FCF72C
:1040B0007FFF7B6818460837BD4680BD000402407C
:1040C000000002400008024080B582B000AF786076
:1040D0007B6800221A607B6800229A807B6803F567
:1040E000425320331846FFF71BFF7B6803F540530C
:1040F0001A460023C2F860317B6803F540531A4624
:10410000094BC2F864317B6803F54053074A03F555
:10411000B47392E803001860043319807B68184672
:104120000837BD4680BD00BFECAE0208549D0208B2
:1041300080B483B000AF78603960124A7B681A603F
:104140007B6801221A717B6800229A607B680022DA
:104150009A817B6800221A617B6800225A617B6821
:1041600000229A617B680022DA617B6800221A6271
:104170007B683A689A607B6818460C37BD465DF8E4
:10418000047B70470CA1020880B483B000AF786054
:1041900000BF0C37BD465DF8047B704780B483B028
:1041A00000AF7860002318460C37BD465DF8047BED
:1041B0007047000080B483B000AF7860044A7B6829
:1041C0001A607B6818460C37BD465DF8047B704763
:1041D0000CA1020880B582B000AF78607868FFF764
:1041E000E9FF2421786824F01CF87B68184608371A
:1041F000BD4680BD80B582B000AF786039607B6815
:1042000039681846FFF794FF284A7B681A607B6874
:1042100003F124027B6893F8523019461046FEF7EA
:1042200033FC7B680022DA627B6800221A637B68B9
:1042300000225A637B6800229A637B6800229A8777
:104240007B680022DA877B680022A3F840207B6825
:10425000002283F842207B68012283F843207B6898
:10426000012283F844207B68002283F845207B6884
:1042700000229A647B680022DA647B684FF4FA7249
:10428000A3F850207B68052283F852207B6840F613
:10429000B832A3F854207B6840F2DC52A3F85620D1
:1042A0007B6818460837BD4680BD00BFBCAE02081B
:1042B00080B582B000AF786039607B683968184695
:1042C000FFF736FF074A7B681A607B680022C3F855
:1042D0009C207B68002283F8A0207B681846083762
:1042E000BD4680BDA4AE020880B582B000AF786044
:1042F00039607B6839681846FFF71AFF054A7B6802
:104300001A607B68FF2283F824207B6818460837F0
:10431000BD4680BD8CAE020880B582B000AF78602B
:1043200039607B6839681846FFF702FF2A4A7B68C4
:104330001A607B68002283F824207B680022DA84DC
:104340007B68002283F828207B68012283F82920DB
:104350007B68012283F82A207B68002283F82B20C7
:104360007B68002283F82C207B68012283F82D20B3
:104370007B68012283F82E207B68002283F82F209F
:104380007B68002283F830207B68802283F831200C
:104390007B68002283F832207B68002283F8332078
:1043A0007B68002283F834207B68002283F8352064
:1043B0007B68002283F836207B68082283F8372048
:1043C0007B680D2283F838207B6878225A877B68C7
:1043D00018460837BD4680BD5CAE020880B582B085
:1043E00000AF786039607B6839681846FFF7A0FE37
:1043F0000B4A7B681A607B68002283F824207B6864
:104400000022DA847B68002283F828207B6800225F
:1044100083F829207B6818460837BD4680BD00BF59
:1044200044AE020880B582B000AF786039607B6826
:1044300039681846FFF77CFE154A7B681A607B686E
:10444000002283F824207B680022A3F846207B68A2
:10445000002283F848207B680322A3F84A207B6867
:104460000022DA647B6800221A657B68002283F8E8
:1044700054207B684FF41672A3F856207B6840F6F0
:10448000B8329A657B6818460837BD4680BD00BFC4
:10449000FCAD020880B582B000AF786039607B68FF
:1044A00039681846FFF744FE0E4A7B681A607B683D
:1044B000002283F824207B68002283F82E207B686A
:1044C000002283F82F207B6800221A637B68042275
:1044D0009A867B6840F2DC52DA867B681846083799
:1044E000BD4680BDE4AD020880B582B000AF786003
:1044F00039607B6839681846FFF71AFE0A4A7B68FC
:104500001A607B6800229A847B68012283F8262047
:104510007B68002283F827207B6800229A627B68F0
:1045200018460837BD4680BDCCAD020880B582B0C4
:1045300000AF786039607B6839681846FFF7F8FD8E
:10454000104A7B681A607B6800225A627B680022EE
:1045500083F828207B68002283F829207B680022CA
:1045600083F82A207B68002283F82B207B680022B6
:1045700083F82C207B680322DA857B68184608378D
:10458000BD4680BDB4AD020880B582B000AF786092
:1045900039607B6839681846FFF7CAFD204A7B6896
:1045A0001A607B6806229A847B6841F288329A629C
:1045B0007B68002283F82C207B6800221A637B68CA
:1045C00000225A637B6800229A637B6800229A87E4
:1045D0007B680022DA877B680022A3F840207B6892
:1045E0000022A3F842207B680022A3F844207B68C5
:1045F000FA22A3F846207B68002283F848207B68D3
:104600000022A3F84A207B680622A3F84C207B688E
:104610004FF4FA621A657B6818460837BD4680BDBC
:104620009CAD020880B582B000AF786039607B68CD
:1046300039681846FFF77CFD094A7B681A607B6879
:10464000243300221A605A609A60DA601A617B682B
:104650004D2283F838207B6818460837BD4680BD58
:1046600084AD020880B582B000AF786039607B68A5
:1046700039681846FFF75CFD034A7B681A607B685F
:1046800018460837BD4680BD6CAD020880B582B0C3
:1046900000AF78607B6803F542532033184601F081
:1046A000EDFE7B6818460837BD4680BD80B582B0F8
:1046B00000AF7860786800F072FE7B6818460837B3
:1046C000BD4680BD80B582B000AF78607B6818467B
:1046D00000F055FE7B6818460837BD4680BD80B5A2
:1046E00082B000AF78607B681846FFF7EBFF7B680D
:1046F00018460837BD4680BD90B587B000AFF8605A
:10470000B9607A60FB68B9681846FFF711FD2B4A5B
:10471000FB681A60FB6824331846FFF7D5FCFB687A
:1047200003F54053002283F89421FB6803F54053BE
:104730000022A3F89621FB6803F54654183407F1CC
:104740001403184623F083FD07F114031A461C498D
:10475000204624F021F907F11403184623F079FDCF
:10476000FB6803F5465330331846FFF7B8FFFB6884
:1047700003F54053FF2283F8BC21FB6803F5405347
:10478000002283F8BD21FB6803F540534D2283F8D6
:10479000BE21FB6803F540531A464EF66023C2F86B
:1047A000C431FB6803F540531A467B68C2F8C03138
:1047B000FB6818461C37BD4690BD00BF3CAD0208E3
:1047C0005C9D020880B400AF034B1B78DBB2184637
:1047D000BD465DF8047B7047F802002080B582B0CA
:1047E00000AF15F0E5FA034603F596733B602C4BDA
:1047F0005B6A9BB20233FB80FB88632B02D9FB8888
:10480000633BFB8015F0D4FA02463B6893428CBFB1
:1048100001230023DBB2002B0DD0214B5A6AFB8809
:104820009A420CBF01230023DBB2002BEAD04FF0E9
:10483000804300225A6215F0BBFA034603F59673D3
:104840003B60174B5B6A9BB20233FB80FB88632B98
:1048500002D9FB88633BFB8015F0AAFA02463B684D
:1048600093428CBF01230023DBB2002B0ED00C4BF4
:104870005A6AFB889A420CBF01230023DBB2002B4B
:10488000EAD04FF080435B6A9BB205E04FF0804373
:10489000DB6A9BB201339BB218460837BD4680BD28
:1048A0000000014080B586B004AF0223FB710123F4
:1048B000029301230193012300930123002201218C
:1048C000244806F076FB244802F09EFA3C21224858
:1048D00002F0F4FF80212148FFF70CF81F48FFF792
:1048E00019F81C48FEF70AFC0346BB71BA79FB793C
:1048F0009A420ED0BB79FB71BB79002B0CBF012310
:104900000023DBB20022009264223F21124805F00E
:104910003BFB104806F086FB0346002B14BF012327
:104920000023DBB2002B06D0BB79002B0CBF012388
:104930000023DBB209E0094802F056F90346002BD8
:10494000CFD0052015F040FACBE718460837BD4612
:1049500080BD00BF5440002064350020B4350020E5
:1049600090B58DB000AF78607B6803F5495328336C
:10497000184602F06BF97B6803F56E530C3318464A
:1049800008F0FBFB7B6803F576532433184607F0E9
:10499000D9FD7B6803F574530C334FF400726B49F7
:1049A000184606F0E5FA7B6803F5755318334FF4A3
:1049B00080426749184606F0DBFA7B681846FCF728
:1049C000DFFB034687F82F3097F82F30002B03D0FA
:1049D00097F82F30012B40D17B6803F586530C33B9
:1049E0007A6802F54B520C321146184612F07AFFE3
:1049F0007B6803F581531C331846FDF7A3FBB862AF
:104A00007B6803F586530C33B96A184613F036F801
:104A10007B6803F586530C331846FFF7E1FA78629A
:104A20007B6803F549532833796A184602F0A0F9E8
:104A30007B6803F581531C331846FFF720F90346C2
:104A400087F823307B6803F54953283397F82320F0
:104A50001146184602F078F90FE07B6803F54953D8
:104A600028330021184602F083F97B6803F5495387
:104A700028330121184602F067F97B68184606F0D2
:104A800091FD7B6803F581531C3307F10800012277
:104A90001946FDF7DDFC7B6803F56E53103307F113
:104AA00008021146184613F085FB7B6803F5815315
:104AB0001C3307F1140000221946FDF7C9FC07F169
:104AC000080307F1140207CA83E807007B6803F5AF
:104AD0007653283307F108021146184613F06AFB93
:104AE0007B6803F57C542C347B6803F581531C33BD
:104AF0001846FFF76CF8034619462046FFF74CF8B6
:104B00007B6803F574540C347B6803F581531C33C4
:104B10001846FFF76FF8034619462046FEF7DEFAFF
:104B20007B6803F5755418347B6803F581531C3397
:104B30001846FFF772F8034619462046FEF7CEFAEC
:104B400097F82F3018463437BD4690BD000002401C
:104B50000008024080B582B000AF6B48FFF700FF4D
:104B60000346FB710C21694818F08AF9082167484F
:104B700018F02EF80021664818F082F904216448E4
:104B800018F07EF90821624818F022F80C216048DC
:104B900018F01EF80C215F4818F072F95E4B5F4A5E
:104BA0005D495F480BF0D3FB5B4B5E4A5C495B4859
:104BB0000BF0CDFB584B5A4A59495A480BF0C7FBEA
:104BC000574B574A564958480BF0C1FB544B544A6F
:104BD000564957480BF0BBFB514B514A504953487B
:104BE0000BF0B5FB4E4B4E4A4D4952480BF0AFFB14
:104BF0004B4B4B4A4A4950480BF0A9FB484B464A9D
:104C000045494E480BF0A3FB454B454A44494C48A7
:104C10000BF09DFB424B424A3F494A480BF097FB41
:104C20003F4B3F4A3C4948480BF091FB3C4B3C4AC8
:104C30003B4939480BF08BFB444B394A38494448CF
:104C40000BF085FB364B364A354940480BF07FFB6D
:104C5000334B334A38493F480BF079FB384B384ADD
:104C60002F493D480BF073FB3C4802F0CDF8FB792F
:104C7000032B13D0032B28DC012B02D0022B04D0F2
:104C800023E0374B274A1A6022E000223C212A48C1
:104C900011F098FA324B284A1A6019E0FFF702FE29
:104CA0000346002B13D0184806F004FF034683F098
:104CB0000103DBB2002B0AD0002240211E4811F074
:104CC00081FA274B1C4A1A6001E000BF00E000BFD8
:104CD000FFF784FD4FF47A7015F076F82148FEF75F
:104CE000C2FF0346BB71BB7919461F48FEF702FE9F
:104CF0001B4B1A681A4B1B681B681B6810469847A9
:104D000000BF0837BD4680BDFC0200200C8A002091
:104D1000548A0020E48A0020C077002084420020CA
:104D20002C4200202843002050430020E443002070
:104D3000AC43002014440020404400207C44002068
:104D4000A84400202C450020847700204C770020C8
:104D50006045002084450020D844002064350020B0
:104D60000400002038130020B435002080B582B044
:104D700000AF414808F0AAF9404807F08BFB404BD0
:104D80001B6818460BF0F9FA78607B68002B1BD083
:104D90003B4B1B687A689A4216D03A48FCF750F9A8
:104DA0000021354808F03AFA4FF0804300225A6358
:104DB000334A7B681360324B1A68314B1B681B689F
:104DC0001B681046984754E02D4B1A682C4B1B6803
:104DD0001B6804331B68104698477860284B1B6893
:104DE0007A689A421BD07B68002B01D1264B7B60EE
:104DF0000021214808F012FA0021204807F07EFC2B
:104E00004FF0804300225A631D4A7B6813601C4B9D
:104E10001A681B4B1B681B681B681046984714F0E8
:104E2000C7FF0246194B1B689A422CBF012300237F
:104E3000DBB2002B14D0164B5A6A164B1B689A42F1
:104E400014BF01230023DAB2134B1A70104B5B6AB4
:104E5000104A136014F0ACFF034629330B4A136069
:104E60000E4801F0C1FE0346002B02D0052014F0CD
:104E7000ABFF0837BD4680BD883E0020A040002023
:104E80000400002028420020404400200C7800202C
:104E900000000140F4020020F8020020B435002098
:104EA00080B582B000AF0346FB71104B1B78DBB2BC
:104EB000002B14BF01230023DBB2002B08D04FF0DE
:104EC000804300225A630A4B00221A64002308E040
:104ED00014220849084814F0DFFF044AFB791370D4
:104EE000012318460837BD4680BD00BFCA02002016
:104EF00000000140CC0200205488002080B584B01E
:104F000000AF78607B681B681E4A934213D17B68B0
:104F10001B7F042B0FD11C4807F098FD0346FB8133
:104F2000FB8963220021184614F067FE0246154BE8
:104F30001A6400BF22E07B681B68B3F1804F1DD16B
:104F40007B681B7F042B12D14FF080435B6B002BDF
:104F500004D14FF080439B6B002B01D0012300E074
:104F60000023002B0AD00120FFF79AFF06E07B68A0
:104F70001B7F082B02D10220FFF792FF00BF1037E2
:104F8000BD4680BD00000140A040002080B58AB031
:104F900000AF78607B681B68844A934240F00281CE
:104FA000834815F069F8834B1B78DBB2022B0CBFEA
:104FB00001230023DBB2002B00F094800023FB616F
:104FC0000023BB6100237B61002387F8273097F81B
:104FD0002730132B26D897F827300233764A32F839
:104FE00013309BB21A46FB691344FB6197F82730D4
:104FF0000333714A32F813309BB21A46BB6913442B
:10500000BB6197F8273004336B4A32F813309BB2F8
:105010001A467B6913447B6197F82730053387F87C
:105020002730D4E7FB690233FB61FB699B08FB6116
:10503000BB690233BB61BB699B08BB617B690233FF
:105040007B617B699B087B617B6919465B48FDF747
:1050500094FE002387F82630594B1B78DBB2013BC6
:10506000DBB2574A19461170002B0CBF01230023F5
:10507000DBB2002B05D0524B06221A70012387F8B1
:1050800026305048FEF7DCFD0346002B05D14B4887
:10509000FDF764FE0346002B01D0012300E000234E
:1050A000002B13D0FB691946444808F023FA034645
:1050B0007B847B8C97F826104FF4F562184614F029
:1050C0009CFD02464FF080435A6304E04FF080425B
:1050D00097F826305363BB699BB219463A4807F0EC
:1050E000E2FA5BE0334B1B78DBB2012B0CBF0123F0
:1050F0000023DBB2002B51D000233B610023FB6077
:10510000002387F8253097F82530132B1AD897F805
:105110002530294A32F813309BB21A463B691344B2
:105120003B6197F825300133234A32F813309BB2A4
:105130001A46FB681344FB6097F82530053387F85F
:105140002530E0E73B6902333B613B699B083B61EB
:10515000FB680233FB60FB689B08FB604FF08043F9
:105160005B6B002B14BF01230023DBB2002B05D0A7
:105170003B699BB219461148FDF710FE4FF0804382
:105180009B6B002B14BF01230023DBB2002B05D047
:10519000FB689BB219460C48FDF7E3FE054B002265
:1051A0001A7000E000BF2837BD4680BD00200140D6
:1051B00054880020CA020020CC020020883E002033
:1051C0000000002038130020A040002080B483B0ED
:1051D00000AF786000BF0C37BD465DF8047B7047B8
:1051E00080B500AF094B5B6903F00103002B14BFCE
:1051F00001230023DBB2002B05D0054805F0E8FFB2
:10520000024B01225A6100BF80BD00BF003C01403B
:105210000840002080B500AF094B5B6903F0020332
:10522000002B14BF01230023DBB2002B05D005485F
:1052300005F0CEFF024B02225A6100BF80BD00BFC5
:10524000003C01405440002080B582B000AF78603F
:105250007B68184600F0F5F87B6818460837BD46AD
:1052600080BD80B582B000AF78607B681846282387
:105270001A46002123F0B0FE7B681846FFF7E4FFD2
:105280007B6818460837BD4680BD80B58AB000AF40
:10529000786007F108037968184600F005F907F10E
:1052A00018037968184600F00EF97B68184600F07C
:1052B00019F9034607F1180207F10801786800F0B0
:1052C00038F97B68184600F0CDF87B681846283717
:1052D000BD4680BD80B582B000AF7860786800F0D0
:1052E00047F97B68184600F04FF97B681846083785
:1052F000BD4680BD80B582B000AF7860786800F0B0
:1053000057F97B6818460837BD4680BD80B582B026
:1053100000AF78607B6819687B689A687B681B6857
:10532000D31ADB10074A02FB03F31A46786800F031
:105330004AF97B681846FEF7CDFD7B6818460837AA
:10534000BD4680BD398EE338B0B582B000AF78601D
:105350007B681C687B685D687B68184600F046F9CE
:1053600003461A462946204600F04BF97B6818464A
:10537000FFF7CCFF7B6818460837BD46B0BD80B547
:1053800082B000AF7860786800F049F97B68184611
:1053900000F051F97B6818460837BD4680BD80B5DE
:1053A00082B000AF7860786800F059F97B681846E1
:1053B0000837BD4680BD000080B582B000AF786080
:1053C0007B6819687B689A687B681B68D31ADB1056
:1053D000074A02FB03F31A46786800F04BF97B6832
:1053E0001846FFF763F97B6818460837BD4680BD4D
:1053F000ABAAAAAAB0B582B000AF78607B681C687F
:105400007B685D687B68184600F047F903461A46DA
:105410002946204600F04CF97B681846FFF7CCFF80
:105420007B6818460837BD46B0BD80B582B000AF76
:1054300078607868FFF7B3FF7B6818460837BD4689
:1054400080BD80B582B000AF78607B68184600F000
:105450003DF90021786800F049F97B681846083763
:10546000BD4680BD80B582B000AF78607B681B68A8
:10547000002B10D07B6859697B685B6A04331A463D
:10548000786800F099F97B6819687B685B681A4650
:10549000786800F0ABF97B681846FFF7C6FF7B68B9
:1054A00018460837BD4680BD80B582B000AF786031
:1054B00039603B6808331946786800F01EF8786850
:1054C0000837BD4680BD80B582B000AF78603960D6
:1054D0003B6818331946786800F00FF87868083789
:1054E000BD4680BD80B483B000AF78607B6818464D
:1054F0000C37BD465DF8047B704780B483B000AFC5
:10550000786039603B681A687B681A603B685A6843
:105510007B685A603B689A687B689A603B68DA6887
:105520007B68DA607B6818460C37BD465DF8047B03
:10553000704780B58CB000AFF860B9607A603B60AE
:1055400007F11003B9681846FFF7D7FF07F12003EA
:1055500079681846FFF7D1FF07F1200207F1100321
:105560001946F86800F05EF900BF3037BD4680BDCF
:1055700080B582B000AF7860786800F0B1F97B68E0
:1055800018460837BD4680BD80B483B000AF786050
:105590007B6800221A607B6800225A607B680022C8
:1055A0009A607B6818460C37BD465DF8047B7047EF
:1055B00080B483B000AF78607B6818460C37BD4676
:1055C0005DF8047B704780B584B000AFF860B960C7
:1055D0007A60BB68002B05D0FB687A68B96818460A
:1055E00000F089F900BF1037BD4680BD80B483B09C
:1055F00000AF78607B6818460C37BD465DF8047BC9
:10560000704780B584B000AFF860B9607A60B9685F
:10561000F86800F07FF900BF1037BD4680BD80B547
:1056200082B000AF7860786800F081F97B68184636
:105630000837BD4680BD80B483B000AF78607B681A
:1056400000221A607B6800225A607B6800229A6000
:105650007B6818460C37BD465DF8047B704780B404
:1056600083B000AF78607B6818460C37BD465DF8A4
:10567000047B704780B584B000AFF860B9607A6091
:10568000BB68002B05D0FB687A68B968184600F043
:1056900059F900BF1037BD4680BD80B483B000AF5C
:1056A00078607B6818460C37BD465DF8047B704710
:1056B00080B584B000AFF860B9607A60B968F86806
:1056C00000F04FF900BF1037BD4680BD80B582B0F5
:1056D00000AF78607868FFF7A2FF7B68184600F09B
:1056E0004DF97B6818460837BD4680BD90B589B036
:1056F00000AF786039601820FEF716FB02463B6861
:10570000B3FBF2F30133FB610823FB60FB69023357
:105710003B6107F1100207F10C031146184600F037
:1057200046F903461A687B685A607B685B681946CD
:10573000786800F050F902467B681A607B681A6846
:105740007B685968FB69CB1A5B089B001344BB61FB
:10575000FB699B00BA6913447B617A69B96978680F
:1057600000F056F97B680833B969184600F06AF909
:105770007B6803F118027B69043B1946104600F070
:1057800061F97B68DA687B689A607B68DC6918205D
:10579000FEF7CAFA02463B68B3FBF2F101FB02F2E4
:1057A0009A1A13465B001344DB00E2187B689A6187
:1057B00000BF2437BD4690BD80B586B000AFF8600D
:1057C000B9607A60BB687B617A697B689A4209D26A
:1057D0007B691B681946F86800F050F97B6904334F
:1057E0007B61F1E700BF1837BD4680BD80B586B04C
:1057F00000AFF860B9607A6007F11403F9681846E1
:1058000000F04FF907F114037A68B968184600F000
:1058100065F907F11403184600F054F900BF183772
:10582000BD4680BDB0B586B000AFF860B9607A60A3
:10583000BB68DB6804337B617B68DB687A699A420A
:1058400019D27B691D687B691C6800F056F9024615
:1058500013465B001344DB001C44FB681846FFF74B
:1058600041FE03461A4621462846FFF721FF7B6981
:1058700004337B61E0E7BB68DA687B68DB689A42E7
:105880001CD0BB681C68BB689D68FB681846FFF7A6
:1058900029FE03461A4629462046FFF709FF7B6882
:1058A0005C687B681D68FB681846FFF71BFE0346B3
:1058B0001A4629462046FFF7FBFE0DE0BB681C6830
:1058C0007B681D68FB681846FFF70CFE03461A4606
:1058D00029462046FFF7ECFE00BF1837BD46B0BD95
:1058E00080B483B000AF78607B6818460C37BD4643
:1058F0005DF8047B704780B584B000AFF860B96094
:105900007A607A68B968F86800F0FFF800BF10376D
:10591000BD4680BD80B582B000AF7860396039681F
:10592000786800F005F900BF0837BD4680BD80B437
:1059300083B000AF78607B6818460C37BD465DF8D1
:10594000047B704780B584B000AFF860B9607A60BE
:105950007A68B968F86800F003F900BF1037BD46EF
:1059600080BD80B582B000AF7860396039687868F2
:1059700000F009F900BF0837BD4680BD80B582B090
:1059800000AF78607B6800221A607B6800225A6052
:105990007B680833184600F00EF97B681833184608
:1059A00000F009F97B6818460837BD4680BD80B411
:1059B00083B000AF786039607B681A683B681B6809
:1059C0009A4201D23B6800E07B6818460C37BD461E
:1059D0005DF8047B704790B585B000AF78603960A2
:1059E00007F10C037968184600F05BF807F10C0327
:1059F0003968184600F0F6F8044600BF07F10C03BA
:105A0000184600F05FF8234618461437BD4690BD8F
:105A100080B586B000AFF860B9607A60BB687B6122
:105A20007A697B689A4209D2F86800F0EAF802467F
:105A30007B691A607B6904337B61F1E700BF18372B
:105A4000BD4680BD90B583B000AF786039607B689B
:105A50003A68DA603B681A687B685A607B685C6801
:105A600000F0E1F8024613465B001344DB00E21845
:105A70007B689A6000BF0C37BD4690BD90B583B07F
:105A800000AF786039607C681820FEF74DF9034656
:105A90001A4639682046FFF755FF00BF0C37BD4650
:105AA00090BD80B582B000AF78603960386800F092
:105AB000C2F803461946786800F0C8F878680837D5
:105AC000BD4680BD80B582B000AF7860786800F0D8
:105AD000CAF87B6818460837BD4680BD80B584B0DB
