:020000040800F2
:10000000000001208585010891FB000893FB000892
:1000100095FB000897FB000899FB00080000000012
:100020000000000000000000000000009BFB000832
:100030009DFB0008000000009FFB0008A1FB0008DA
:10004000D5850108D5850108D5850108D585010824
:10005000D5850108D5850108BD250008E1250008E2
:10006000D5850108D5850108D5850108D585010804
:10007000D5850108D5850108D5850108D5850108F4
:10008000D5850108D5850108D58501080000000047
:10009000000000000000000000000000D5850108FD
:1000A000D5850108D5850108D5850108A9FB00087B
:1000B000B9FB0008D5850108D5850108D58501085B
:1000C000D5850108D5850108D5850108D5850108A4
:1000D000D5850108D5850108D585010800000000F7
:1000E000D5850108D5850108D585010800000000E7
:1000F000000000000000000000000000D58501089D
:1001000000000000D5850108D5850108D5850108C6
:1001100000000000000000000000000000000000DF
:10012000C9FB0008D5850108D5850108D9FB000861
:10013000D58501080000000000000000000000005C
:10014000000000000000000000000000D58501084C
:10015000D5850108D5850108D5850108D585010813
:10016000D5850108D58501080000000000000000C9
:10017000000000000000000000000000000000007F
:1001800000000000D585010800000000000000000C
:04019000D585010808
:1001A00010B5054C237833B9044B13B10448AFF3B1
:1001B00000800123237010BD7002002000000000A9
:1001C000609B010808B5034B1BB103490348AFF31B
:1001D000008008BD0000000074020020609B010840
:1001E00081F0004102E000BF83F0004330B54FEAE8
:1001F00041044FEA430594EA050F08BF90EA020F55
:100200001FBF54EA000C55EA020C7FEA645C7FEAE7
:10021000655C00F0E2804FEA5454D4EB5555B8BF0A
:100220006D420CDD2C4480EA020281EA030382EA7B
:10023000000083EA010180EA020281EA0303362D0D
:1002400088BF30BD11F0004F4FEA01314FF4801CE0
:100250004CEA113102D0404261EB410113F0004FF2
:100260004FEA03334CEA133302D0524263EB4303A9
:1002700094EA050F00F0A780A4F10104D5F1200E47
:100280000DDB02FA0EFC22FA05F2801841F10001A2
:1002900003FA0EF2801843FA05F359410EE0A5F176
:1002A00020050EF1200E012A03FA0EFC28BF4CF0A7
:1002B000020C43FA05F3C01851EBE37101F000455D
:1002C00007D54FF0000EDCF1000C7EEB00006EEB6A
:1002D0000101B1F5801F1BD3B1F5001F0CD34908F4
:1002E0005FEA30004FEA3C0C04F101044FEA44524B
:1002F00012F5800F80F09A80BCF1004F08BF5FEAD2
:10030000500C50F1000041EB045141EA050130BDB1
:100310005FEA4C0C404141EB010111F4801FA4F154
:100320000104E9D191F0000F04BF01460020B1FAA9
:1003300081F308BF2033A3F10B03B3F120020CDAE1
:100340000C3208DD02F1140CC2F10C0201FA0CF0BF
:1003500021FA02F10CE002F11402D8BFC2F1200C24
:1003600001FA02F120FA0CFCDCBF41EA0C019040DA
:10037000E41AA2BF01EB0451294330BD6FEA040423
:100380001F3C1CDA0C340EDC04F11404C4F120020E
:1003900020FA04F001FA02F340EA030021FA04F320
:1003A00045EA030130BDC4F10C04C4F1200220FA77
:1003B00002F001FA04F340EA0300294630BD21FAB5
:1003C00004F0294630BD94F0000F83F4801306BF7B
:1003D00081F480110134013D4EE77FEA645C18BF6F
:1003E0007FEA655C29D094EA050F08BF90EA020F06
:1003F00005D054EA000C04BF1946104630BD91EAFE
:10040000030F1EBF0021002030BD5FEA545C05D100
:100410004000494128BF41F0004130BD14F580043F
:100420003CBF01F5801130BD01F0004545F0FE41B3
:1004300041F470014FF0000030BD7FEA645C1ABFE8
:10044000194610467FEA655C1CBF0B46024650EA1F
:10045000013406BF52EA033591EA030F41F400214B
:1004600030BD00BF90F0000F04BF0021704730B5D1
:100470004FF4806404F132044FF000054FF00001A6
:1004800050E700BF90F0000F04BF0021704730B567
:100490004FF4806404F1320410F0004548BF40423C
:1004A0004FF000013EE700BF42004FEAE2014FEA91
:1004B00031014FEA02701FBF12F07F4393F07F4F6C
:1004C00081F06051704732F07F4208BF704793F06F
:1004D0007F4F04BF41F40021704730B54FF4607482
:1004E00001F0004521F000411CE700BF50EA010285
:1004F00008BF704730B54FF000050AE050EA01022E
:1005000008BF704730B511F0004502D5404261EB9D
:1005100041014FF4806404F132045FEA915C3FF4DE
:10052000D8AE4FF003025FEADC0C18BF03325FEA7B
:10053000DC0C18BF033202EBDC02C2F1200300FA2C
:1005400003FC20FA02F001FA03FE40EA0E0021FA51
:1005500002F11444BDE600BF70B54FF0FF0C4CF43F
:10056000E06C1CEA11541DBF1CEA135594EA0C0FF1
:1005700095EA0C0F00F0DEF82C4481EA030621EA2C
:100580004C5123EA4C5350EA013518BF52EA033567
:1005900041F4801143F4801338D0A0FB02CE4FF019
:1005A0000005E1FB02E506F00042E0FB03E54FF049
:1005B0000006E1FB03569CF0000F18BF4EF0010E41
:1005C000A4F1FF04B6F5007F64F5407404D25FEA3D
:1005D0004E0E6D4146EB060642EAC62141EA5551F0
:1005E0004FEAC52040EA5E504FEACE2EB4F1FD0C32
:1005F00088BFBCF5E06F1ED8BEF1004F08BF5FEAB0
:10060000500E50F1000041EB045170BD06F0004661
:1006100046EA010140EA020081EA0301B4EB5C040E
:10062000C2BFD4EB0C0541EA045170BD41F4801106
:100630004FF0000E013C00F3AB8014F1360FDEBF2B
:10064000002001F0004170BDC4F10004203C35DA07
:100650000C341BDC04F11404C4F1200500FA05F38A
:1006600020FA04F001FA05F240EA020001F000422B
:1006700021F0004110EBD37021FA04F642EB0601A1
:100680005EEA430E08BF20EAD37070BDC4F10C04CB
:10069000C4F1200500FA04F320FA05F001FA04F28F
:1006A00040EA020001F0004110EBD37041F100017B
:1006B0005EEA430E08BF20EAD37070BDC4F1200586
:1006C00000FA05F24EEA020E20FA04F301FA05F2EE
:1006D00043EA020321FA04F001F0004121FA04F296
:1006E00020EA020000EBD3705EEA430E08BF20EA66
:1006F000D37070BD94F0000F0FD101F000464000A0
:1007000041EB010111F4801F08BF013CF7D041EA21
:10071000060195F0000F18BF704703F00046520025
:1007200043EB030313F4801F08BF013DF7D043EAF6
:100730000603704794EA0C0F0CEA135518BF95EAAC
:100740000C0F0CD050EA410618BF52EA4306D1D133
:1007500081EA030101F000414FF0000070BD50EA52
:10076000410606BF1046194652EA430619D094EADC
:100770000C0F02D150EA013613D195EA0C0F05D1C6
:1007800052EA03361CBF104619460AD181EA03011A
:1007900001F0004141F0FE4141F470014FF00000D2
:1007A00070BD41F0FE4141F4780170BD70B54FF06D
:1007B000FF0C4CF4E06C1CEA11541DBF1CEA1355ED
:1007C00094EA0C0F95EA0C0F00F0A7F8A4EB0504CF
:1007D00081EA030E52EA03354FEA013100F08880C6
:1007E0004FEA03334FF0805545EA131343EA12638F
:1007F0004FEA022245EA111545EA10654FEA002644
:100800000EF000419D4208BF964244F1FD0404F5FC
:10081000407402D25B084FEA3202B61A65EB030558
:100820005B084FEA32024FF480104FF4002CB6EB15
:10083000020E75EB030E22BFB61A754640EA0C0095
:100840005B084FEA3202B6EB020E75EB030E22BFD5
:10085000B61A754640EA5C005B084FEA3202B6EB16
:10086000020E75EB030E22BFB61A754640EA9C00D5
:100870005B084FEA3202B6EB020E75EB030E22BFA5
:10088000B61A754640EADC0055EA060E18D04FEA63
:10089000051545EA16754FEA06164FEAC30343EA03
:1008A00052734FEAC2025FEA1C1CC0D111F4801FD0
:1008B0000BD141EA00014FF000004FF0004CB6E7C9
:1008C00011F4801F04BF01430020B4F1FD0C88BF68
:1008D000BCF5E06F3FF6AFAEB5EB030C04BFB6EB73
:1008E000020C5FEA500C50F1000041EB045170BD66
:1008F0000EF0004E4EEA113114EB5C04C2BFD4EB93
:100900000C0541EA045170BD41F480114FF0000E16
:10091000013C90E645EA060E8DE60CEA135594EA92
:100920000C0F08BF95EA0C0F3FF43BAF94EA0C0F95
:100930000AD150EA01347FF434AF95EA0C0F7FF40A
:1009400025AF104619462CE795EA0C0F06D152EA5E
:1009500003353FF4FDAE1046194622E750EA410642
:1009600018BF52EA43067FF4C5AE50EA41047FF453
:100970000DAF52EA43057FF4EBAE12E74FF0FF3CB8
:1009800006E000BF4FF0010C02E000BF4FF0010C89
:100990004DF804CD4FEA410C7FEA6C5C4FEA430C02
:1009A00018BF7FEA6C5C1BD001B050EA410C0CBF51
:1009B00052EA430C91EA030F02BF90EA020F0020B3
:1009C000704710F1000F91EA030F58BF994208BF1A
:1009D00090422CBFD8176FEAE37040F001007047D7
:1009E0004FEA410C7FEA6C5C02D150EA013C07D12E
:1009F0004FEA430C7FEA6C5CD6D152EA033CD3D079
:100A00005DF8040B704700BF8446104662468C4672
:100A10001946634600E000BF01B5FFF7B7FF0028A5
:100A200048BF10F1000F01BD4DF808EDFFF7F4FFCE
:100A30000CBF012000205DF808FB00BF4DF808ED59
:100A4000FFF7EAFF34BF012000205DF808FB00BF7C
:100A50004DF808EDFFF7E0FF94BF012000205DF89E
:100A600008FB00BF4DF808EDFFF7CEFF94BF012053
:100A700000205DF808FB00BF4DF808EDFFF7C4FF4C
:100A800034BF012000205DF808FB00BF4FEA410C95
:100A90007FEA6C5C02D150EA013C0AD14FEA430C78
:100AA0007FEA6C5C02D152EA033C02D14FF00000B5
:100AB00070474FF0010070474FEA410212F50012F3
:100AC00015D211D56FF47873B3EB625212D94FEA95
:100AD000C12343F0004343EA505311F0004F23FA7F
:100AE00002F018BF404270474FF00000704750EAD4
:100AF000013005D111F0004008BF6FF00040704791
:100B00004FF00000704700BF4A0011D212F50012EA
:100B100011D20DD56FF47873B3EB62520ED44FEA55
:100B2000C12343F0004343EA505323FA02F07047D5
:100B30004FF00000704750EA013002D14FF0FF3013
:100B400070474FF0000070474FEA4102B2F1E043B6
:100B500024BFB3F5001CDCF1FE5C0DD901F0004CA4
:100B60004FEAC0024CEA5070B2F1004F40EB8300F4
:100B700008BF20F00100704711F0804F21D113F120
:100B80003872BCBF01F00040704741F480114FEA59
:100B90005252C2F11802C2F1200C10FA0CF320FAE2
:100BA00002F018BF40F001004FEAC1234FEAD323FF
:100BB00003FA0CFC40EA0C0023FA02F34FEA430369
:100BC000CCE77FEA625307D150EA01331EBF4FF0F2
:100BD000FE4040F44000704701F0004040F0FE400D
:100BE00040F40000704700BF53B94AB9002908BF5C
:100BF00000281CBF4FF0FF314FF0FF3000F072B9FA
:100C0000ADF1080C6DE904CE00F006F8DDF804E063
:100C1000DDE9022304B070472DE9F047089E044641
:100C20008846002B4BD18A42154667D9B2FA82F228
:100C30004AB1C2F1200701FA02F320FA07F7954002
:100C400047EA030894404FEA154E230CB8FBFEF721
:100C50001FFA85FC0EFB178843EA084307FB0CF1DB
:100C6000994209D9EB1807F1FF3080F01B819942B6
:100C700040F21881023F2B445B1AA4B2B3FBFEF092
:100C80000EFB103344EA034400FB0CFCA44509D9D5
:100C90002C1900F1FF3380F00781A44540F2048154
:100CA00002382C4440EA0740A4EB0C0400271EB194
:100CB000D4400023C6E900433946BDE8F0878B42A3
:100CC00009D9002E00F0EB800027C6E90001384664
:100CD0003946BDE8F087B3FA83F7002F47D18B423E
:100CE00002D3824200F2FA80841A61EB03030120EE
:100CF0009846002EE0D0C6E90048DDE702B9FFDEE5
:100D0000B2FA82F2002A40F08F80491B4FEA154E5A
:100D10001FFA85F80127B1FBFEFC230C0EFB1C110A
:100D200043EA014308FB0CF1994207D9EB180CF197
:100D3000FF3002D2994200F2CD808446591AA3B204
:100D4000B1FBFEF00EFB101443EA044408FB00F86C
:100D5000A04507D92C1900F1FF3302D2A04500F2BB
:100D6000B6801846A4EB080440EA0C409FE7C7F1A0
:100D7000200CBB4022FA0CFE4EEA030E01FA07F4E7
:100D800020FA0CF521FA0CF34FEA1E482543B3FB79
:100D9000F8F92C0C08FB19331FFA8EFA44EA0343C6
:100DA00009FB0AF49C4202FA07F200FA07F10BD998
:100DB0001EEB030309F1FF3080F087809C4240F274
:100DC0008480A9F1020973441B1BADB2B3FBF8F098
:100DD00008FB103345EA034400FB0AFAA24508D990
:100DE0001EEB040400F1FF336BD2A24569D902382F
:100DF000744440EA0940A0FB0289A4EB0A044C4574
:100E0000C2464B4654D351D0002E69D0B1EB0A05EF
:100E100064EB030404FA0CFCFD40FC404CEA0505BD
:100E2000C6E90054002747E7C2F1200320FA03F780
:100E3000954001FA02F021FA03F34FEA154E3843C8
:100E4000010CB3FBFEF71FFA85F80EFB173341EADE
:100E5000034107FB08F38B4204FA02F407D969182F
:100E600007F1FF3C2FD28B422DD9023F2944CB1AE8
:100E700081B2B3FBFEF00EFB103341EA034100FBED
:100E800008F38B4207D9691800F1FF3C17D28B4257
:100E900015D902382944C91A40EA07473BE73746C3
:100EA000304609E70746E7E61846FBE64145ABD280
:100EB000B8EB020A69EB0E0201381346A4E760465C
:100EC000E9E7184695E76746D1E781467CE70238AF
:100ED0002C4447E7ACF1020C2B442FE7384608E7D7
:100EE0003746E9E6704700BF000000000000000040
:100EF00001F0FF01102A2BDB10F0070F08D010F8CB
:100F0000013B013A8B422DD010F0070F42B3F6D1CE
:100F1000F0B441EA012141EA014122F007047FF0E7
:100F200000070023F0E80256083C85EA010586EA3E
:100F3000010685FA47F5A3FA87F586FA47F6A5FA7A
:100F400087F68EB9EED1F0BC01F0FF0102F0070286
:100F500032B110F8013B013A83EA010313B1F8D131
:100F60000020704701387047002D06BF3546033812
:100F7000073815F0010F07D1013015F4807F02BF4B
:100F8000013015F4C03F0130F0BC0138704700BF9C
:100F900010F8012B11F8013B012A28BF9A42F7D023
:100FA000D01A7047034613F8012B002AFBD1181AF8
:100FB0000138704701230370014B00221A64704707
:100FC0000008004010B54B1E044CE3624910216438
:100FD00010460EF0E9FE0023236410BD0008004017
:100FE00008B5037803B908BDA0224FF48E71FFF74E
:100FF000E9FFF8E7037803B9704710B50446A0226B
:101000004FF48E71FFF7DEFF64200EF0CDFEA022BC
:101010004FF48E712046FFF7D5FF10BD08B5037859
:1010200003B908BDA02240F61831FFF7CBFFF8E75F
:10103000037803B9704710B50446A0224FF48E71AF
:10104000FFF7C0FF32200EF0AFFE3C2240F6183111
:101050002046FFF7B7FF32200EF0A6FEA02240F296
:101060008C512046FFF7AEFF10BD41F2C803C358B4
:10107000ABB370B584B00D4604464E0013F8112092
:10108000FF2A1CD00123694606F097FB58BB9DF848
:10109000083083F001038DF80830012269462046AC
:1010A00006F038FD41F2C803E25802F81500E35893
:1010B00033449DF808205A70012004B070BD00F53B
:1010C00081501C3007F0D4FB014650B105220DF1D0
:1010D000090018F025FA01238DF80830DDE700201B
:1010E00070470020E9E70020E7E741F2C803C35852
:1010F000002B40D070B50E46044600F581501C30E0
:1011000007F0B4FB05460246012130460EF0D8FD3B
:10111000C0B241F2C803E258044602EB40035B78D8
:1011200013F0010F1AD180B2034643B102EB430121
:10113000497811F0010F02D1013B9BB2F5E7A842BB
:1011400008D202EB4001497811F0010F02D10130C1
:1011500080B2F4E71BB9A8420FD0C0B270BDA8425C
:1011600005D0E21A041BA24203DBC0B2F6E7D8B2F4
:10117000F4E7D8B2F2E7012070470120EEE7000063
:101180002DE9F04180460C464E888D888B7E13F009
:10119000010F29D01D4B1A881D4B198830460EF0BF
:1011A0008FFD074686B21B4B1A881B4B19882846B1
:1011B0000EF086FD054680B2A37E13F0010F1CD011
:1011C0006680A080637E1E2B01D91E236376217E5C
:1011D0004046FFF78AFF2076FF220A21E07E0EF0CC
:1011E0006FFDE076BDE8F08130B20EF07FFD86B293
:1011F00028B20EF07BFD85B2CCE738B20EF068FD68
:1012000086B228B20EF064FD80B2D9E7BEA601080E
:10121000C0A60108BAA60108BCA601082DE9F04342
:1012200085B0064689460024A04612E00DF109016A
:10123000284607F029FB00B2002808DB9DF808309B
:101240002BB109EB400219F81030FF2B1CD00134F0
:1012500024B206F581551C35284607F007FB844269
:101260000ADAE7B201233A466946304606F0A5FAA3
:101270000028DBD00128EAD1304606F09FF95FFA5A
:1012800088F005B0BDE8F08309F810709DF80830CB
:10129000537008F101081FFA88F8D8E708B541F241
:1012A000C803C15819B1FFF7B9FF012008BD0020DC
:1012B000FCE7000038B50C461546114600F5815094
:1012C0001C3007F0D5FAC8B1014615B103784E2B92
:1012D00007D10522204618F023F900236371204628
:1012E00038BD094B186820601B79204600F8043F80
:1012F000052218F015F900236372F0E7034B03CBC6
:1013000020606160EBE700BF10A7010818A7010883
:1013100008B541F25403C25C0149FFF7CBFF08BD99
:101320008C0200202DE9F8439DF8209041F2C8047A
:1013300050F804C0BCF1000F05D01F461646804689
:101340004C1E032513E0002107E001EB4104A0003F
:101350001044002484700131C9B29942F5D30020B1
:101360004FE0013D15F0FF0527D0013C24B2002CD1
:1013700009DDB9F1000FF4D00CEB44035B7813F0F6
:10138000010FF2D0EDE7002517E005EB45029300D1
:10139000F118E2B2F25441F2C80358F8033003EBFB
:1013A00044035B784B7002314046FFF783FF013501
:1013B000EDB2BD4218D2013424B208F581501C3080
:1013C00007F054FA84420FDA002CF4D0B9F1000F80
:1013D000DBD041F2C80358F8033003EB44035B78D9
:1013E00013F0010FD1D1E6E72946B94208D201EB4B
:1013F000410398003044002383700131C9B2F4E7FF
:101400002846BDE8F88308B54288838E9A4201D009
:10141000002008BD8288C38E9A4201D00020F8E7E0
:10142000C288038F9A4201D00020F2E7828AB0F886
:1014300046309A4201D00020EBE7827D90F8483098
:101440009A4201D00020E4E7027E90F84A309A42A6
:1014500001D00020DDE7427E90F84B309A4201D067
:101460000020D6E7827E90F84C309A4201D00020CE
:10147000CFE7C27D90F849309A420FD1C27E90F8F2
:101480004D309A420CD1142200F14F011D3018F05A
:1014900035F808B90120BCE70020BAE70020B8E71A
:1014A0000020B6E708B5EB2343804FF496738380A2
:1014B0004FF49663C3800122027600234376838231
:1014C0000521817533218176C37541F64903038176
:1014D000252343814FF439638381C823C38140238B
:1014E0000382C32343828023C376027714220249F6
:1014F0001D3018F015F808BDA8A6010810B504465F
:10150000437F13B104F11D0010BD142202491D30A8
:1015100018F006F8F6E700BFA8A601082DE9F04F7D
:1015200083B0044601921D469DF830B09DF834A06A
:101530009DF838909DF83C809DF840609DF844707F
:10154000837E03F001034176BDF8482082829DF836
:101550004C208275AB420BD0002D44D0B0F9020074
:101560000EF0C4FB6080B4F904000EF0BFFBA08055
:101570000023A3760DB10123A376019B1BB1A37EAB
:1015800043F00203A376BBF1000F03D0A37E43F028
:101590000403A376BAF1000F03D0A37E63F07F03A8
:1015A000A376B9F1000F03D0A37E43F01003A37616
:1015B000B8F1000F03D0A37E43F02003A3761FB140
:1015C000A37E43F00803A3761EB1A37E43F040033D
:1015D000A376FF220A219DF850000EF071FBE07601
:1015E00003B0BDE8F08FB0F902000EF071FB60802F
:1015F000B4F904000EF06CFBA080B9E7418070479D
:101600008180C280704770B4034600F132023030EE
:101610001E685D689C68D968166055609460D160EA
:10162000103310328342F3D11B88138070BC704793
:1016300038B5054600F581541C342046FFF7E3FE1B
:1016400000B138BD2146284606F02EFA2046FFF7A5
:10165000DAFFF6E710B5AAB10A6841F24A03C252AE
:101660004A6841F24C03C2528A6841F24E03C252A8
:1016700000F581541C34214606F016FA2046FFF787
:10168000C2FF10BD0A6841F24403C2524A6841F2E7
:101690004603C2528A6841F24803C252E8E770B476
:1016A00000F13203024662301E685D689C68D968AA
:1016B000166055609460D160103310328342F3D1CC
:1016C0001B88138070BC7047C07D000900EB800050
:1016D0007047C37D03F00F03013303EB83039800CE
:1016E000704700004B2900D94B21B2F5A07F03D8E9
:1016F000042A03D8052201E04FF4A0720B1DDBB2CF
:101700000849A1FB03139B081B01DBB2013A064900
:1017100081FB02C1D217C2EBE10202F00F021343B8
:10172000C3757047CDCCCCCC6766666610B50446F1
:1017300032B94B8A0A8AC9890DF012FB204610BDC6
:101740008B894A8909890DF00BFBF7E710B5044630
:1017500032B93223402296210DF002FB204610BD03
:10176000C8230A2240F23F210DF0FAFAF6E770B4DE
:101770000E8893009C186500441946534D88658077
:101780008D88A580CD88E5800D7A257291F90E109F
:10179000617270BC704701EB81014B00184490F9F5
:1017A00009007047032905D802EB8202114430F882
:1017B000110070470020704703290BD8012A04D07C
:1017C000083100EB4101888870470C3100EB410182
:1017D00088887047002070472DE9F04782B00446A2
:1017E0000E46924600F5855800214046FFF7E4FF7B
:1017F000074641F250090246314634F809000EF01E
:101800005FFA85B224F80950524600214046FFF79E
:10181000C9FF009000233A46314628460EF01CFAD4
:1018200080B202B0BDE8F0872DE9F04F85B00646E2
:10183000884691461C4619469B0023445A0083184B
:1018400093F90900A9EB0007B55A454513D804EBF5
:10185000840253003344DD88454540D30125032DE0
:1018600071D801EB81032B4436F813A0C24519D877
:101870000135EDB2F3E7224600213046FFF79CFF29
:10188000384400904B462A46002140460EF0E4F9C9
:1018900000B240F2E73249460EF012FA80B205B0CB
:1018A000BDE8F08F6A1E04EB84031A4436F812B0C8
:1018B000691E2246C9B23046FFF77EFFC319039363
:1018C000224629463046FFF777FF38440090039BB5
:1018D0005246594640460EF0BFF900B2D9E704EB34
:1018E000840253003344B3F802A0554515D822466C
:1018F00001213046FFF760FFC5192246032130461B
:10190000FFF75AFF3844114B1A8800902B46514676
:1019100040460EF0A1F900B2BBE722460121304655
:10192000FFF74AFF00EB070B224603213046FFF783
:1019300043FF384400905B462A46514640460EF02D
:101940008BF900B2A5E70020A3E700BFC6A60108F7
:1019500010B5044600F58550FFF766FF04F5815386
:101960001C339B7E13F0010F00D010BD00B20EF0AF
:10197000AFF980B2F9E700002DE9F04F85B00546D8
:10198000039116461C4600F5855819464046FFF758
:1019900002FF371A224600214046FFF70DFFBFB273
:1019A00038441FFA80F9224603214046FFF704FF1E
:1019B0000744BFB2012C35D0484BB3F800A0012C2E
:1019C00034D0474BB3F800B005F581531C339B7EF0
:1019D00013F0010F2ED05A46514603980EF070F9BD
:1019E0001FFA80FA3F4BB3F800B022460021404670
:1019F000FFF7D8FE0390224603214046FFF7D2FEB0
:101A00000090039B3A46494650460EF025F980B2B5
:101A1000B0EB5B0F25DDA0EBAB07BFB24FF00008CA
:101A2000C1463BE0304BB3F800A0C8E72F4BB3F8FA
:101A300000B0C9E70FFA89F00EF04AF91FFA80F9F1
:101A400038B20EF045F987B20FFA8AF00EF040F97D
:101A50001FFA80FA0FFA8BF00EF03AF91FFA80FBAA
:101A6000B9E75F46BBF1000F03DB00EBA707BFB28E
:101A7000D4E70BF10307F8E77B1CB9469FB209E0F6
:101A800009EB070303EBD373C3F34F039F421CD04F
:101A9000BB461F4608F101085FFA88F8B8F1130F3A
:101AA00017D82346324639462846FFF751FF82456C
:101AB0000FD0E5D907EB0B0303EBD373C3F34F034D
:101AC0009F42D9D0B9461F46E4E77B1EBB469FB272
:101AD000E0E7384605B0BDE8F08F00BFC0A60108BA
:101AE000BEA60108C6A60108BCA60108BAA6010840
:101AF0000023032B0ED810B402EB82041C4430F8F0
:101B0000144021F813400133DBB2032BF4D95DF804
:101B1000044B70477047000070B40024032C09D8B0
:101B200031F8146003EB8305254420F81560013477
:101B3000E4B2F3E79C001C4461000C4601444A7285
:101B400003220A72C988044A1288914201D92044AA
:101B5000C28070BC704700BFC6A6010830B48B00BD
:101B60005A18540002194FF42A7505534FF4717432
:101B7000548040F20A5494804FF4C864D480034CDB
:101B8000247854720123137230BC7047B9A601083F
:101B900008B5FFF7E3FF08BD0A884B889A4207D2D1
:101BA0008A88934206D2CB889A4205D30020704798
:101BB00000207047002070470120704770B584B046
:101BC00041F2C803C358002B49D00D46044613F810
:101BD0001120FF2A0BD100F5855031B10021FFF70C
:101BE000BDFF0026304604B070BD0121F7E7002399
:101BF000694605F0E2FD48B104F5855025B10021A4
:101C0000FFF7ACFF0026EDE70121F9E79DF808306A
:101C100013F0020F09D104F5855025B10021FFF71B
:101C20009DFF0126DEE70121F9E704F585546946A9
:101C30002046FFF7B1FF064640B92DB100212046EE
:101C4000FFF78CFF0126CDE70121F8E72DB901222E
:101C500069462046FFF78BFDC4E70022F8E700261F
:101C6000C0E770B5054600F581561C36304606F0D3
:101C7000FDFD400017F0C4FA41F2C803E85098B1E6
:101C80000024304606F0F2FD84420DDA41F2C8032A
:101C9000EA58FF2102F81410EB5803EB440300222A
:101CA0005A700134E4B2ECE7284605F03BFD0646E5
:101CB000A0BB41F2C803E95809B32846FFF7AEFAC2
:101CC000064605F581541C342146284605F0EFFDF3
:101CD000B8B121462846FFF753FA00212846FFF7FE
:101CE0006DFF41F25403E95C2846FFF767FF05F5F5
:101CF00081501C30FFF787FC56B3002070BD0026D2
:101D0000DFE705F581501C30FFF7CCFB41F25404AE
:101D1000295D2846FFF7E9F92855DEE705F58154E6
:101D20001C342046FFF7BEFB012105F58550FFF767
:101D300015FF01212846FFF741FF2046FFF763FC0E
:101D4000012E07D0022E01D00020D7E70320D5E7CF
:101D50000120D3E70220D1E738B504460D46FFF74E
:101D60002DFF00B938BD41F25403E5542046FFF77A
:101D70005FFCF7E72DE9F04184B004460F461D46AD
:101D80001388ADF800305388ADF802309388ADF871
:101D90000430D388ADF806308DF808509DF928300E
:101DA0008DF80E3041F2C803C3584E0033445D70C5
:101DB00000F581501C3006F05BFD30B1804669466D
:101DC00004F58550FFF7E8FE38B904F58650043075
:101DD000FFF72EF904B0BDE8F081052241460DF170
:101DE000090017F09DFB00226946204605F092FE8F
:101DF000B0F10008E9DB04F586500430FFF7F0F895
:101E000041F2C803E25802F81780E3581E44757087
:101E1000E0E790F82101704790F82501704770477E
:101E200070477047704770477047704770477047FA
:101E300070477047704770477047704770470000A1
:101E400038B50A4B1B783BB100204FF080435863F4
:101E500003F58033186438BD0446044D1422291D4F
:101E600003480EF07BF82C700120F4E79802002064
:101E70003C8F002008B5084615F086FB08BD08B564
:101E8000084615F077FB08BD08B5084615F068FB55
:101E900008BD08B515F05AFB08BD08B515F04CFB98
:101EA00008BD0000014B93F82C00704798020020F9
:101EB00038B50DF073FF00F596751C4B5B6A9BB24D
:101EC0009C1CA4B2632C02D9A3F16104A4B20DF04E
:101ED00065FFA84207D2154B5B6AA342F7D14FF0CA
:101EE000804300225A620DF059FF00F596750F4BA2
:101EF0005B6A9BB29C1CA4B2632C02D9A3F161045F
:101F0000A4B20DF04BFFA84208D2084B5B6AA34273
:101F1000F7D14FF08043586A80B205E04FF080431C
:101F2000D86A80B2013080B238BD00BF00000140E5
:101F300030B585B01F4C01210291019100910B46F3
:101F40000022204605F080FAA4F52F64204602F016
:101F500067FA3C21204602F023FE8023164943F213
:101F6000B8228B54154A5363022507E0114805F047
:101F7000F7F9D0B9124802F009FA90B90E4A43F6BF
:101F80007453D45AE4B2A542F0D000230093B4FABB
:101F900084F35B0964223F210A4803F0CBFD254608
:101FA000E4E705200DF000FFE8E7B4FA84F040090B
:101FB00005B030BD08760020B03800200004004095
:101FC000686B0020186B00202DE9F04186B00446B4
:101FD00000F549552835284605F016F904F56E50E8
:101FE0000C3006F02DFB04F57650243005F066FF2A
:101FF0004FF400723A4904F574500C3005F0A4F91E
:102000004FF48042374904F57550183005F09CF9BB
:102010002046FFF726FE0746012840D90021284622
:1020200002F0CEF90121284605F042F9204605F0DC
:10203000C5FA04F581561C366D4601223146284604
:10204000FFF774FB294604F56E5010300CF08FFE3C
:102050000DF10C08002231464046FFF767FB98E877
:10206000070085E80700294604F5765028300CF073
:102070007EFEB37EC3F3400143F62C72A154C3F33A
:10208000001104F5745282F84A10C3F3401304F5AA
:10209000755484F85630384606B0BDE8F08104F532
:1020A00086560C3604F54B510C3130460CF000FCD2
:1020B00004F5815808F11C084046FFF71FFA014655
:1020C00030460CF044FE42F29413F158284602F0D8
:1020D00077F998F81C10284605F0EAF8A6E700BF43
:1020E00000000240000802402DE9F8437048FFF765
:1020F0006BFF80466F4C0C21204610F005F808213C
:1021000020460FF061FF6C4C002120460FF0FCFFD1
:10211000042120460FF0F8FF082120460FF054FF5D
:102120000C2120460FF050FF0C2164480FF0ECFF0B
:10213000634D05F1300605F17C0905F590743346D1
:102140004A463146204609F0B5FC05F5BC773346D2
:102150003A462146484609F0ADFC33462246214620
:10216000384609F0A7FC23462246214605F5D070E3
:1021700009F0A0FC05F5FE7723462246394605F511
:102180000B7009F097FC234622462146384609F099
:1021900091FC23462246214605F5197009F08AFC78
:1021A00005F52479234622462146484609F082FC5B
:1021B00023463246314605F5337009F07BFC05F5C0
:1021C0003E77234622462146384609F073FC2346D3
:1021D0002246314605F54A7009F06CFC234622463A
:1021E000314605F5577009F065FC23462246214625
:1021F000304609F05FFC05F56676334622462146F7
:1022000005F5747009F056FC2346224621463046F7
:1022100009F050FC2346224649462A4809F04AFC68
:102220003B463A46214605F57D7009F043FC2648B9
:1022300002F0F6F8B8F1020F1ED0B8F1030F24D067
:10224000B8F1010F13D0FFF733FE4FF47A700DF0A1
:10225000ABFD174B41F25702995C43F2B8229954F7
:102260001A4B186803681B689847BDE8F883174B3A
:1022700004F158021A60E6E7154C00223C21204682
:102280000BF0E8F9114B1C60DDE7FFF751FE002869
:10229000D9D0074805F0A2F90028D4D10C4C00226F
:1022A000402120460BF0D6F9084B1C60CBE700BF5D
:1022B000B0380020E48F002084900020AC8E0020F5
:1022C00098020020E8060020186B0020040000207F
:1022D0002805002038B5354C204606F087F904F56E
:1022E000067005F085FD324B186809F0E7FB20B158
:1022F00004462F4B1B6883422AD12D4D2868036862
:102300005B68984704462B68834215D0002833D079
:10231000264D0021284606F057F8002105F50670E5
:1023200005F041FE4FF0804300225A63204B1C60B1
:1023300023681B68204698470DF030FD1D4BD3F8ED
:10234000483498421AD21C4802F020F848BB38BDE5
:102350001A4D2846FEF74EFE0021A5F5687006F0DE
:1023600033F84FF0804300225A63114B1C602368FE
:102370001B6820469847EAE7114CC9E7114A536A9F
:102380000C4CD4F84C145B1A18BF012384F82C3081
:10239000536AC4F84C340DF001FD2930C4F84804E8
:1023A000D1E705200DF000FDD1E700BF3C7400200F
:1023B0000400002098020020686B0020DC770020D9
:1023C000280500200000014008B50368144A934224
:1023D00003D0B3F1804F0DD008BD027F042AF8D19D
:1023E000104805F0A7FE632200210DF069FC0C4B9C
:1023F0001864F1E7037F042B05D0082BECD10220F1
:10240000FFF71EFDE8E74FF080435B6B23B94FF009
:1024100080439B6B002BDFD00120FFF711FDDBE732
:1024200000000140547600200268594B9A4200D0C7
:10243000704710B586B057480DF042FE564B1B78DA
:10244000DBB2022B09D0544B1B78DBB2012B66D0D8
:10245000514B00221A7006B010BD00230193029365
:102460000393132B18D8991C4B4A02EB410188881F
:10247000019901440191D91C02EB4101888802991C
:1024800001440291191D02EB41029188039A0A440A
:1024900003920533DBB2E4E7019B02330193019B16
:1024A0009B080193029B02330293029B9B080293B9
:1024B000039B02330393039B9B08039303993748C1
:1024C0000DF093F8364A1379013BDBB2137103BB6D
:1024D000134606221A710124324A41F25603D35C94
:1024E00013F0400F03D143F6AD43D35C9BB1019988
:1024F0002D4806F0DBF84FF4F56221460DF0E0FBC5
:102500004FF080435863029989B2284805F017FDBF
:102510009EE70024E0E74FF080435C63F3E700238D
:10252000049305930FE01C4A02EB43018888049949
:1025300001440491591C02EB41029188059A0A4416
:1025400005920533DBB2132BEDD9049B02330493C0
:10255000049B9B080493059B02330593059B9B08F2
:1025600005934FF080435B6B5BB94FF080439B6BEF
:10257000002B3FF46DAF059989B20D480DF0D7F8E7
:1025800066E7049989B20B480DF0D1F8EDE700BF7A
:10259000002001403C8F0020980200204C75002054
:1025A00004000020B03800203C7400205476002045
:1025B00070770020547500207047000008B5064B66
:1025C0005B6913F0010F00D108BD044804F04FFF10
:1025D000014B01225A61F7E7003C0140BC75002025
:1025E00008B5064B5B6913F0020F00D108BD044823
:1025F00004F03DFF014B02225A61F7E7003C014025
:102600000876002038B50C461546AC4204D254F882
:10261000040B15F0F1FFF8E738BD10B50446036868
:102620003BB1426A04324169FFF7ECFF206815F0C4
:10263000E3FF204610BD2DE9F04188461746CE68DD
:1026400004360BE01834A54207D0234653F8080B94
:102650008342F7D015F0D0FFF4E70436FB68B342AD
:1026600003D9346804F5FC75EDE7D8F80C209342E3
:102670001DD0D8F80040D8F8085000E01834A54222
:1026800007D0234653F8080B9842F7D015F0B4FF53
:10269000F4E77C683D6800E01834A54216D0234674
:1026A00053F8080B9842F7D015F0A6FFF4E7D8F8D6
:1026B00000403D6800E01834A54207D0234653F897
:1026C000080B9842F7D015F097FFF4E7BDE8F081CA
:1026D0002DE9F043C1B0074643F26823C518954A77
:1026E000C25005F6F80015F00EF805F6F40013F0E8
:1026F000F8FE05F50F6013F0F4FE05F6EC0013F09C
:10270000F0FE05F1640468350CD004F50764A542B9
:1027100008D01C3C606804F10C039842F7D015F017
:102720006BFFF4E743F2EC13FD18834AFA5005F10E
:102730004404D5F84C80CDF83080D5F850E0CDF881
:1027400034E0D5F854C0CDF838C0AE6D0F96E86DC2
:102750000890296E09916A6E0A92AB6E0B93CDF8C0
:102760005080CDF854E0CDF858C0179610901191D4
:102770001292139310AA14A92046FFF75CFF20467B
:10278000FFF74BFF05F11C04D5F82480CDF810802D
:10279000D5F828E0CDF814E0D5F82CC0CDF818C055
:1027A0002E6B0796686B0090A96B0191EA6B029201
:1027B0002B6C0393CDF87080CDF874E0CDF878C021
:1027C0001F96189019911A921B9318AA1CA92046BB
:1027D000FFF731FF2046FFF720FF68680C35A8425D
:1027E00001D015F009FF07F5865808F10C0842F2F0
:1027F000600908EB0905514B48F80930D5F8B44099
:10280000D5F8B86007E0234653F8080B984201D08A
:1028100015F0F2FE4834A6420ED0206B04F13803C6
:10282000984201D015F0E8FEA06904F12003984217
:10283000E9D015F0E1FEE6E7D5F8B40008B115F0EF
:10284000DBFE05F16C04206B05F1A403984201D076
:1028500015F0D2FEA06904F12003984201D015F0D2
:10286000CBFEE86E0834A04201D015F0C5FE324B15
:1028700048F8093005F14404D5F84C80CDF8B08013
:10288000D5F850E0CDF8B4E0D5F854C0CDF8B8C0D4
:10289000AE6D2F96E86D2890296E29916A6E2A9266
:1028A000AB6E2B93CDF8D080CDF8D4E0CDF8D8C066
:1028B0003796309031913292339330AA34A9204622
:1028C000FFF7B9FE2046FFF7A8FE05F11C04D5F876
:1028D0002480CDF89080D5F828E0CDF894E0D5F8A4
:1028E0002CC0CDF898C02E6B2796686B2090A96BF2
:1028F0002191EA6B22922B6C2393CDF8F080CDF8D6
:10290000F4E0CDF8F8C03F96389039913A923B9375
:1029100038AA3CA92046FFF78EFE2046FFF77DFE31
:1029200068680C35A84201D015F066FE384641B003
:10293000BDE8F083A09B0108B0A40108E4A401084D
:102940002DE9F043A1B00646514B036043F2B017A6
:10295000C319C4595D6800E01834A54207D0234666
:1029600053F8080B9842F7D015F046FEF4E7F059FB
:1029700008B115F041FE43F29813F05806F546539E
:102980002033984201D015F037FE06F1240943F2B6
:10299000A00809EB08043F4B49F80830D4F8B450BC
:1029A000D4F8B87007E02B4653F8080B984201D0D2
:1029B00015F022FE4835AF420ED0286B05F13803E2
:1029C000984201D015F018FEA86905F1200398423D
:1029D000E9D015F011FEE6E7D4F8B40008B115F01F
:1029E0000BFE04F16C05286B04F1A403984201D09E
:1029F00015F002FEA86905F12003984201D015F0F8
:102A0000FBFDE06E0835A84201D015F0F5FD224B24
:102A100049F8083004F14405E76C206D616DA26D42
:102A2000E36D14971590169117921093236E1193DE
:102A3000636E1293A36E139310AA14A92846FFF78E
:102A4000FAFD2846FFF7E9FD04F11C05676AA06A54
:102A5000E16A226B636B1C971D901E911F92189365
:102A6000A36B1993E36B1A93236C1B9318AA1CA9ED
:102A70002846FFF7E0FD2846FFF7CFFD60680C34DD
:102A8000A04201D015F0B8FD304621B0BDE8F0837A
:102A900078A50108E4A40108B0A4010870B582B0CB
:102AA00005460E4671B1941B01940F2C0FD828686F
:102AB000012C15D0BCB9019B6B602A680021D15450
:102AC00002B070BD9142EED0094815F06EFF0022B1
:102AD00001A9284615F0C0FD2860019BAB60E6E720
:102AE00033780370E7E72246314616F0A8FBE2E7A9
:102AF000ACAA010838B50C461546AC4206D24FF4D4
:102B0000FC7015F068FD44F8040BF6E738BD0000D2
:102B10002DE9F04383B004460D46274BA3FB012368
:102B2000CA1A03EB52031B095E1C082200920333EE
:102B3000019393423BD901AB18686060B0F1804FBC
:102B400037D2800015F047FD804620606768BF1BC4
:102B50007F0800EB870909EB860632464946204686
:102B6000FFF7C8FFC4F8149058F82730E36003F566
:102B7000FC722261321F626256F8042CE26102F597
:102B8000FC712162A3600C4BA3FB0513E91A03EB54
:102B900051031B0903EB4303C3EBC303EB1A03EB22
:102BA0004303D9000A44A26103B0BDE8F0836B4639
:102BB000C2E715F0F7FE00BF876118862DE9F04FD8
:102BC00083B00646002441F22803C45441F22A038C
:102BD0004FF48052C25241F22C03C84AC25041F213
:102BE0003003C74AC25041F23403C64AC25041F2D0
:102BF0003803C54AC25000F58552C44B03CB50611F
:102C0000916103CBD061116206F586500430FEF766
:102C1000D1F941F2C803F45006F586570C3742F259
:102C2000600807EB0805DFF8449347F8089005F1C2
:102C30000C036B60AC602C73EC612C626C62AC6258
:102C4000EC622C636C63AC63EC632C64214605F18D
:102C50001C00FFF75DFF6C64AC64EC642C656C6574
:102C6000AC65EC652C666C66AC66214605F14400EB
:102C7000FFF74EFFA64B47F8083042F2CC02BB18D4
:102C800003F10801B9505C6042F2D403FC5442F2F3
:102C9000E402BB1803F10801B9505C6042F2EC0396
:102CA000FC5442F2FC02BB1803F10801B9505C600D
:102CB00042F20413FC5442F21412BB18BC505C6084
:102CC0009C6042F2201807EB080547F8089005F1D0
:102CD0000C036B60AC602C73EC612C626C62AC62B8
:102CE000EC622C636C63AC63EC632C64214605F1ED
:102CF0001C00FFF70DFF6C64AC64EC642C656C6524
:102D0000AC65EC652C666C66AC66214605F144004A
:102D1000FFF7FEFE7F4B47F80830EC6642F2901357
:102D2000FC5442F29413FC5042F298137A4AFA503F
:102D300043F26827F519281D15F06EF985F8504003
:102D4000A5F85440AC65EC65A5F8604085F8624094
:102D500005F1640385F86440704A5A6005F1740215
:102D60009A60DC601C746E4A1A6205F190025A6225
:102D70009C6283F82C406B4ADA6305F1AC021A645A
:102D80005C6483F84840684A9A6505F1C801D965D2
:102D90001C6683F864406549596705F1E401996749
:102DA000DC6783F880406249C3F8901005F58071B4
:102DB000C3F89410C3F8984083F89C405D49C3F869
:102DC000AC1005F58E71C3F8B010C3F8B44083F8A9
:102DD000B8405949C3F8C81005F59C71C3F8CC1028
:102DE000C3F8D04083F8D4405449C3F8E41005F543
:102DF000AA71C3F8E810C3F8EC4083F8F0405049DA
:102E0000C3F8001105F5B871C3F80411C3F80841FF
:102E100083F80C414B49C3F81C1105F5C671C3F882
:102E20002011C3F8244183F828414749C3F83811D9
:102E300005F5D470C3F83C01C3F8404183F8444120
:102E40004248C3F8540105F5E270C3F85801C3F8CD
:102E50005C4183F860413E48C3F8700105F5F070AD
:102E6000C3F87401C3F8784183F87C413948C3F84A
:102E70008C0105F5FE70C3F89001C3F8944183F806
:102E800098413548C3F8A80105F50670C3F8AC01B0
:102E9000C3F8B04183F8B4413048C3F8C40105F524
:102EA0000D70C3F8C801C3F8CC4183F8D0412C4859
:102EB000C3F8E00105F51470C3F8E401C3F8E84174
:102EC00083F8EC41C3F8FC2105F51B72C3F800221E
:102ED000C3F8044283F80842224AC3F8182205F5D1
:102EE0002272C3F81C22C3F8204283F824421E4AEF
:102EF000C3F8342205F529723AE000BF20A7010883
:102F00002CA7010838A7010844A70108789B0108ED
:102F1000E4A401087CA40108B0A6010850A7010898
:102F20005CA7010868A7010874A7010880A7010829
:102F300090A70108A0A70108ACA70108B8A701083D
:102F4000C8A70108D8A70108E0A70108E8A7010859
:102F5000F4A70108FCA7010804A8010814A80108A7
:102F600020A801082CA8010838A80108B0A401086D
:102F7000C3F83822C3F83C4283F84042E94AC3F818
:102F8000502205F53072C3F85422C3F8584283F832
:102F90005C42E54AC3F86C2205F53772C3F870222B
:102FA000C3F8744283F87842E04AC3F8882205F5F2
:102FB0003E72C3F88C22C3F8904283F89442DC4AF4
:102FC000C3F8A42205F54572C3F8A822C3F8AC42A1
:102FD00083F8B042D74AC3F8C02205F54C72C3F853
:102FE000C422C3F8C84283F8CC42D34AC3F8DC22D7
:102FF00005F55372C3F8E022C3F8E44283F8E842CF
:10300000CE4AC3F8F82205F55A72C3F8FC22C3F879
:10301000004383F80443CA4AC3F8142305F56172D8
:10302000C3F81823C3F81C4383F82043C54AC3F8E8
:10303000302305F56872C3F83423C3F8384383F8A6
:103040003C43C14AC3F84C2305F56F72C3F85023C3
:10305000C3F8544383F85843BC4AC3F8682305F5C2
:103060007672C3F86C23C3F8704383F87443B84A8C
:10307000C3F8842305F57D72C3F88823C3F88C4315
:1030800083F89043B34AC3F8A02305F58262C3F8DE
:10309000A423C3F8A84383F8AC43AF4AC3F8BC23C6
:1030A00005F22C42C3F8C023C3F8C44383F8C843D5
:1030B000AA4AC3F8D82305F58962C3F8DC23C3F80C
:1030C000E04383F8E443A64AC3F8F42305F26440DE
:1030D000C3F8F803C3F8FC4383F80044C3F81014A2
:1030E00005F59061C3F81414C3F8184483F81C4420
:1030F0009C49C3F82C1405F29C41C3F83014C3F862
:10310000344483F838449849C3F8481405F5976166
:10311000C3F84C14C3F8504483F854449349C3F89B
:10312000641405F2D441C3F86814C3F86C4483F8FE
:1031300070448F49C3F8801405F59E61C3F8841468
:10314000C3F8884483F88C44C3F89C2405F20C52DD
:10315000C3F8A024C3F8A44483F8A844854AC3F85C
:10316000B82405F5A562C3F8BC24C3F8C04483F8AD
:10317000C444814AC3F8D42405F24452C3F8D82485
:10318000C3F8DC4483F8E0447C4AC3F8F02405F536
:10319000AC62C3F8F424C3F8F84483F8FC44784ADA
:1031A000C3F80C2505F27C52C3F81025C3F814456A
:1031B00083F81845734AC3F8282505F5B362C3F8A8
:1031C0002C25C3F8304583F834456F4AC3F84425AD
:1031D00005F2B452C3F84825C3F84C4583F850456E
:1031E0006A4AC3F8602505F5BA62C3F86425C3F8D6
:1031F000684583F86C45664AC3F87C2505F2EC52B5
:10320000C3F88025C3F8844583F88845614AC3F82C
:10321000982505F5C162C3F89C25C3F8A04583F83D
:10322000A4455D4AC3F8B42505F22462C3F8B82565
:10323000C3F8BC4583F8C045584AC3F8D02505F506
:10324000C862C3F8D425C3F8D84583F8DC45544A8E
:10325000C3F8EC2505F25C62C3F8F025C3F8F44529
:1032600083F8F8454F4AC3F8082605F5CF62C3F83E
:103270000C26C3F8104683F814464B4AC3F824269C
:1032800005F29462C3F82826C3F82C4683F830462A
:10329000464AC3F8402605F5D662C3F84426C3F86B
:1032A000484683F84C46424AC3F85C2605F2CC6295
:1032B000C3F86026C3F8644683F868463D4AC3F8FD
:1032C000782605F5DD62C3F87C26C3F8804683F8CE
:1032D0008446394AC3F8942605F20472C3F8982646
:1032E000C3F89C4683F8A046344AC3F8B02605F5D7
:1032F000E462C3F8B426C3F8B84683F8BC46304A43
:10330000C3F8CC2605F23C72C3F8D026C3F8D446E5
:1033100083F8D8462B4AC3F8E82605F5EB62C3F8D4
:10332000EC2651E044A8010850A8010860A8010853
:1033300070A801087CA8010888A8010894A80108C1
:103340009CA80108A4A80108B0A80108BCA801080D
:10335000C8A80108D8A80108E4A80108F0A8010835
:10336000F8A8010800A901080CA9010818A901087A
:1033700024A9010834A901083CA9010840A90108B1
:1033800044A901084CA9010854A901085CA9010835
:1033900064A901086CA9010874A9010878A90108A9
:1033A0007CA9010880A9010884A901088CA9010849
:1033B00094A90108A0A90108ACA90108C0A90108A5
:1033C000D4A90108E4A90108C3F8F04683F8F4463B
:1033D000E94AC3F8042705F27472C3F80827C3F852
:1033E0000C4783F81047E54AC3F8202705F5F26239
:1033F000C3F82427C3F8284783F82C47E04AC3F8CA
:103400003C2705F2AC72C3F84027C3F8444783F861
:103410004847DC4AC3F8582705F5F962C3F85C272A
:10342000C3F8604783F86447D74AC3F8742705F2A6
:10343000E472C3F87827C3F87C4783F88047D34AFF
:10344000C3F8902705F50062C3F89427C3F898479E
:1034500083F89C47CE4AC3F8AC2705F61C02C3F894
:10346000B027C3F8B44783F8B847CA4AC3F8C82797
:1034700005F63802C3F8CC27C3F8D04783F8D44701
:10348000C54AC3F8E42703F5FE62C3F8E827C3F88A
:10349000EC4783F8F047C14AC3F8002803F60C0252
:1034A000C3F80428C3F8084883F80C48BC4AC3F89A
:1034B0001C2803F62802C3F82028C3F8244883F800
:1034C0002848B84AC3F8382803F64402C3F83C2811
:1034D000C3F8404883F84448B34AC3F8542803F576
:1034E0000662C3F85828C3F85C4883F86048AF4ABE
:1034F00092E80300C3F8700883F87418AC4BF351DA
:10350000D5F82039C5F8DC38A5F8E0484FF6FF7348
:10351000A5F8E2384FF47842A5F8E4281F22A5F870
:10352000E6284FF6E072A5F8E82885F8EA48C5F8DD
:10353000EC48C5F8F048C5F8F448C5F8F84885F8EF
:10354000FC389623A5F8FE38A5F80049A5F80249ED
:10355000A5F80449A5F80649C823A5F808396E233B
:10356000A5F80A395A23A5F80C394FF03C02A5F802
:103570000E29A5F810392023A5F812391923A5F82A
:1035800014398C4BC5F818398B4BC5F81C39C5F864
:10359000203943F68C3173184FF0140BC3F804B084
:1035A0001C815C81DC600A271F615F619C614FF0B8
:1035B0000B029A83814A92F8009083F8624083F864
:1035C000604083F8619083F8A64083F8A44083F8B4
:1035D000A59083F8EA4083F8E84083F8E990A3F8DF
:1035E000EC40A3F8EE40A3F8F040A3F8F24083F8D3
:1035F000F440C3F8F84083F8FC4083F8FD40A3F89A
:10360000FE40A3F80041A3F80241C3F80441082595
:1036100083F80851C3F80C4183F80851C3F80C41F2
:1036200083F81051C3F8144183F81051C3F81441C2
:1036300083F81851C3F81C4183F81851C3F81C4192
:1036400083F8204183F821414FF4C87AA3F822A1DE
:103650004FF4FA78A3F8248183F82851C3F82C4159
:1036600083F82851C3F82C4183F8304183F8314165
:10367000A3F832A1A3F8348183F8387183F8395163
:10368000A3F83A814FF47A7CA3F83CC1032283F873
:103690003E210E2283F83F2183F840B1052283F8B2
:1036A00041214FF0020083F842016422C3F8442113
:1036B00040F63C70A3F8480141487050A3F84A41D5
:1036C000A3F84C41A3F84E41A3F8504183F852416E
:1036D00083F85341A3F8544183F85851C3F85C412F
:1036E00083F85851C3F85C4183F86051C3F86441D2
:1036F00083F86051C3F8644183F86851C3F86C41A2
:1037000083F86851C3F86C4183F87051C3F8744171
:1037100083F87051C3F8744140F2CF70A3F8780178
:10372000A3F87AC183F87CB1A3F87E21012300932A
:10373000244B4FF48072244906F574500C3003F08A
:10374000C0FD022300931F4B4FF400421F4906F5B2
:103750007550183003F0B5FD43F6A452B318C3F802
:1037600004B01C815C81DC601F615F619C614FF073
:103770000B0199832CE000BFF4A901080CAA0108F1
:1037800024AA01082CAA010834AA010838AA0108B1
:103790003CAA01084CAA010858AA010868AA010815
:1037A00078AA01088CAA010898AA0108889B010838
:1037B000A09B0108D0AB0108FCB30108C4A6010816
:1037C0003CA401080004024000000240000802403E
:1037D00083F8624083F8604083F8619083F8A640E4
:1037E00083F8A44083F8A59083F8EA4083F8E84082
:1037F00083F8E990A3F8EC40A3F8EE40A3F8F0407A
:10380000A3F8F24083F8F440C3F8F84083F8FC4092
:1038100083F8FD40A3F8FE40A3F80041A3F802415D
:1038200083F80441C3F8084183F80C51C3F81041F0
:1038300083F80C51C3F8104183F8144183F8154103
:10384000A3F816A1A3F8188183F81C51C3F82041EE
:1038500083F81C51C3F8204183F8244183F82541A3
:10386000A3F826A1A3F82881A3F82C814FF47A7C31
:10387000A3F82EC11E2183F830114FF03C0183F8CC
:10388000311183F832710121C3F834113249B1503A
:1038900083F8384183F8394183F83A41A3F83C4131
:1038A000A3F83E41C3F84041C3F844412B4A127883
:1038B00083F84851C3F84C4183F84821C3F84C4180
:1038C00083F85051C3F8544183F85021C3F8544150
:1038D00083F85851C3F85C4183F85851C3F85C41F0
:1038E00083F86051C3F8644183F86051C3F86441C0
:1038F00083F86851C3F86C4183F86851C3F86C4190
:10390000A3F87041462283F87221632283F8732161
:103910004FF41672A3F8742140F2CF70A3F8760129
:103920004FF4C862A3F878214FF44872A3F87A21C3
:103930004FF03C02A3F87C21094AC3F880214EF6DF
:103940006022C3F8842106F57C502C30FDF732FB51
:10395000304603B0BDE8F08FFCA30108C3A6010800
:10396000407E0500012800D070474FF6FF73994252
:10397000FAD12DE9F04F89B0F14E3046FFF71EF92C
:10398000DFF820844246EF49304614F054FEEE4CF6
:10399000012784F824710025A4F82C51C4F8305173
:1039A000C4F83451C4F83851C4F83C51C4F84051FB
:1039B000C4F82861E54BC4F8203194F8723108222C
:1039C00084F84421C4F8485184F84431C4F848517B
:1039D000C4F84C51C4F85051C4F85451C4F858516B
:1039E000A4F85C51A4F85E51A4F8605184F86251C7
:1039F00084F8637184F8647184F86551C4F868517F
:103A0000C4F86C514FF4FA73A4F87031052384F8AC
:103A1000723140F6B83BA4F874B140F2DC59A4F816
:103A200076914246CA4904F5907014F004FE84F879
:103A30008070A4F88850C4F88C50C4F89050C4F832
:103A40009450C4F89850C4F89C50C4F88460C14B9A
:103A5000E367C4F8185184F81C514246BE4904F18A
:103A60007C0014F0E8FD84F87C71A4F88451C4F85B
:103A70008851C4F88C51C4F89051C4F89451C4F8DA
:103A80009851C4F88061B54BC4F87831FF2384F8AD
:103A90009C314246B24904F5BC7014F0CCFD84F868
:103AA000A471A4F8AC51C4F8B051C4F8B451C4F82E
:103AB000B851C4F8BC51C4F8C051C4F8A861A94BAE
:103AC000C4F8A03184F8C451A4F8E65184F8E85150
:103AD0004FF0030AA4F8EAA1C4F8EC51C4F8F0517D
:103AE00084F8F4514FF41673A4F8F631C4F8F8B121
:103AF00042469D4904F5D07014F09DFD84F8307263
:103B0000A4F83852C4F83C52C4F84052C4F84452A5
:103B1000C4F84852C4F84C52C4F83462934BC4F809
:103B20002C3284F8505284F85A5284F85B52C4F80C
:103B30005C520423A4F86032A4F8629204F50B7975
:103B400042468B49484614F076FD04F5FE7B4B4611
:103B5000A9F18C023146584608F07CFA4246854964
:103B6000584614F068FD84F86872A4F87052C4F8DE
:103B70007452C4F87852C4F87C52C4F88052C4F825
:103B80008452C4F86C627C4BC4F86432A4F8885246
:103B900084F88A7284F88B52C4F88C524246774972
:103BA00004F5197014F047FD84F89472A4F89C523F
:103BB000C4F8A052C4F8A452C4F8A852C4F8AC5235
:103BC000C4F8B052C4F898626D4BC4F89032C4F88F
:103BD000B452C4F8B852C4F8BC52C4F8C052C4F8C5
:103BE000C4524D2384F8C8324246664904F5247015
:103BF00014F021FD84F8D072A4F8D852C4F8DC5235
:103C0000C4F8E052C4F8E452C4F8E852C4F8EC52E4
:103C1000C4F8D4625C4BC4F8CC3284F8F052A4F8F7
:103C2000F25284F8F45284F8F5524246574904F5AA
:103C3000337014F000FD84F8FC72A4F80453C4F847
:103C40000853C4F80C53C4F81053C4F81453C4F800
:103C50001853C4F800634E4BC4F8F832C4F81C5330
:103C600084F8205384F8215384F8225384F8235392
:103C700084F82453A4F826A304F53E7B4246454924
:103C8000584614F0D8FC84F8F873A4F80054C4F82B
:103C90000454C4F80854C4F80C54C4F81054C4F8BC
:103CA0001454C4F8FC633C4BC4F8F4330623A4F862
:103CB000183441F28832C4F81C2484F82054C4F823
:103CC0002454C4F82854C4F82C54A4F83054A4F84C
:103CD0003254A4F83454A4F83654A4F83854FA22D0
:103CE000A4F83A2484F83C54A4F83E54A4F8403490
:103CF0004FF4FA63C4F844344246284904F57D7011
:103D000014F099FC04F54A7ACDF800B004F5197363
:103D10004A463146504608F0B3F9424620495046DB
:103D200014F089FC84F8D473A4F8DC53C4F8E0538D
:103D3000C4F8E453C4F8E853C4F8EC5334E000BFCB
:103D4000B0380020D12600089802002090A5010874
:103D50001F1E0008A8A50108211E0008C0A5010813
:103D6000231E000808A60108251E000820A6010839
:103D7000271E0008291E000838A601082B1E00086F
:103D800080A601082D1E0008F0A501082F1E0008BE
:103D900050A60108311E000868A60108331E00085D
:103DA000351E000800000020C4F8F053C4F8D863A2
:103DB000A34BC4F8D0334246A24904F5747014F002
:103DC0003AFCA14C2771A58125616561A561E5617A
:103DD0002562A6609D4B23606562258543F2C4067B
:103DE0009B4BA3519B4B43F2C802A35043F2CC021E
:103DF000A5501D7003F11000056043F2E403E55087
:103E000043F2E803E55043F2EC03E55043F2F003DC
:103E1000E55043F2F403E55043F2F803E55043F272
:103E2000FC03E55004F544531D6043F20413E550D0
:103E30002946FEF76DFE8848056043F20C13E550F5
:103E400043F21013E55043F21413E55043F21813F4
:103E5000E55043F21C13E55043F22013E55043F2C2
:103E60002413E55043F22813E55043F22C13E55098
:103E70002946FEF74DFE794BA351794B43F23012A0
:103E8000A35043F23412A5501D70183343F2481268
:103E9000A35043F24C12A5501D70183343F2601228
:103EA000A35043F26412A5501D7043F27813E550FD
:103EB00043F27C13E55004F546531D6043F284132E
:103EC000E55043F28813674AE25043F28C13E61838
:103ED000654A92E80300E050B18043F29413E55440
:103EE00043F29613E55243F2981306F11402E2509E
:103EF0005E494FF000030A46013906F10C00FEF757
:103F0000CDFD264643F2B013E55043F2B413E5501D
:103F100043F2B813E55043F2BC13FF22E25443F2DC
:103F2000BD13E55443F2BE134D22E25443F2C413D1
:103F30004EF66022E25004F54753A9F50B7404F5E0
:103F400024721A60474642464949304614F073FBD2
:103F5000DFF8308104F5667932464146484609F07B
:103F600087FB3A464349484614F065FB012384F831
:103F70006033A4F86853C4F86C53C4F87053C4F8A1
:103F80007453C4F87853C4F87C53C4F864833A4A31
:103F9000C4F85C2384F88053A4F8825384F88453D3
:103FA00084F8853384F8863384F8875384F88853FB
:103FB00084F8893384F88A3384F88B5384F88C53DB
:103FC000802384F88D3384F88E5384F88F5384F8DB
:103FD000905384F8915384F89253082384F89333D0
:103FE0000D2384F894337823A4F8963304F5577698
:103FF0003A462249304614F01EFB04F1300504F520
:1040000074730693CDF814A0CDF810B004F51973AD
:10401000039304F5BC73029304F5FE7301930096B9
:1040200004F17C0304F533724146284607F0ECFFA7
:104030003A461349284614F0FEFA09B0BDE8F08F5D
:1040400098A60108371E0008E806002078A5010898
:10405000B0A40108B8370020F0370020E4A401081C
:1040600020380020B0A60108909B0108D9AA0108B9
:1040700041290008391E0008D8A501083B1E000888
:104080003D1E0008B038002010B50446582114F039
:10409000D7FA204610BD10B50446A42114F0D0FA7A
:1040A000204610BD10B50446282114F0C9FA204658
:1040B00010BD10B504465C2114F0C2FA204610BDB4
:1040C00010B50446382114F0BBFA204610BD10B5D7
:1040D0000446302114F0B4FA204610BD10B5044651
:1040E0002C2114F0ADFA204610BD10B504463C2139
:1040F00014F0A6FA204610BD10B504462C2114F089
:104100009FFA204610BD10B50446302114F098FAED
:10411000204610BD10B50446542114F091FA2046F3
:1041200010BD10B50446342114F08AFA204610BDA3
:1041300010B50446242114F083FA204610BD000077
:104140002DE9F043A1B00646544B036043F2B0178B
:10415000C319C4595D6800E01834A54207D023464E
:1041600053F8080B9842F7D014F046FAF4E7F059E8
:1041700008B114F041FA43F29813F05806F546538B
:104180002033984201D014F037FA06F1240943F2A3
:10419000A00809EB0804424B49F80830D4F8B450A1
:1041A000D4F8B87007E02B4653F8080B984201D0BA
:1041B00014F022FA4835AF420ED0286B05F13803CF
:1041C000984201D014F018FAA86905F1200398422A
:1041D000E9D014F011FAE6E7D4F8B40008B114F00D
:1041E0000BFA04F16C05286B04F1A403984201D08A
:1041F00014F002FAA86905F12003984201D014F0E6
:10420000FBF9E06E0835A84201D014F0F5F9254B12
:1042100049F8083004F14405E76C206D616DA26D2A
:10422000E36D14971590169117921093236E1193C6
:10423000636E1293A36E139310AA14A92846FEF777
:10424000FAF92846FEF7E9F904F11C05676AA06A45
:10425000E16A226B636B1C971D901E911F9218934D
:10426000A36B1993E36B1A93236C1B9318AA1CA9D5
:104270002846FEF7E0F92846FEF7CFF960680C34CF
:10428000A04201D014F0B8F943F2C811304614F03E
:10429000D7F9304621B0BDE8F08300BF78A501080A
:1042A000E4A40108B0A4010810B50446382114F0B4
:1042B000C7F9204610BD10B504463C2114F0C0F9E2
:1042C000204610BD10B504464C2114F0B9F9204623
:1042D00010BD08B54FF6FF710120FFF743FB08BD85
:1042E00070B50546114B036000F6F80013F00BFAA9
:1042F00005F6F40012F0F5F805F50F6012F0F1F88C
:1043000005F6EC0012F0EDF815F168060CD005F694
:10431000D404A64208D01C3C606804F10C03984207
:10432000F7D014F069F9F4E7284670BDA09B0108A6
:1043300070B50546144B036000F6F80013F0E3F97E
:1043400005F6F40012F0CDF805F50F6012F0C9F88B
:1043500005F6EC0012F0C5F815F168060CD005F66C
:10436000D404A64208D01C3C606804F10C039842B7
:10437000F7D014F041F9F4E740F62411284614F080
:104380005FF9284670BD00BFA09B010803780B4A67
:10439000526B934209D8094A526B93420BD2074A97
:1043A000536B013B536301207047044A536B013345
:1043B0005363012070470020704700BF0004004095
:1043C00070B582B0044601B3C4F8DC18251DD4F8DA
:1043D000DC18284613F042FD284613F02DFE86B265
:1043E0000E49284613F0BCFD811C04F50F643246CB
:1043F00089B201A812F042F801A9204612F05BF838
:1044000001A812F06EF802B070BDD0F82039C0F8E3
:10441000DC38002380F86430D8E700BFDCAA01084C
:1044200008B5054B00225A63FF2380F8FC38B0F82A
:10443000E00812F06FFA08BD000400402DE9F04FCB
:1044400085B0044603910293002A7DD1B0F80E593D
:10445000D4F8F038002B7AD01E8806F114081FFA21
:1044600088F8D4F8EC38002B73D05B885FFA83FBB4
:1044700006F11707BFB2B4F8E238032229463846DE
:1044800012F028FC1FFA8BF9B4F8E2384A462946A4
:10449000404612F0F6FA06F11A00B4F8E2384A463D
:1044A000294680B212F0EDFA05EB09081FFA88F8E8
:1044B00008F1050A1FFA8AFAB4F8E23808225146D0
:1044C000384612F007FC029B002B44D0B4F8E438C5
:1044D00007225146384612F04EFC06F1110005F154
:1044E0000901B4F8E238009303231A4689B280B276
:1044F00012F0EAF91536B6B2691C09F1FF33B4F8C7
:10450000E02800929BB2052289B2304612F0DCF915
:104510000A226FF0630103980BF0D2FB07B2002F61
:104520001CDD80B2291A89B20A31484483B20A3BA1
:10453000B4F8E42800929BB2052289B2304612F00A
:10454000C3F905B0BDE8F08FB0F8FE5880E700264B
:1045500083E700238AE7B4F8E038B9E7ABF10A0350
:104560000093012300226FF0630138460BF074FBC7
:10457000C3B2A8EB030189B2029A3AB1B4F8E428B5
:1045800000920522304612F09FF9DAE7B4F8E028ED
:10459000F6E700002DE9F04188B0054617461E46B3
:1045A000B1F57A7F01D340F2E7310A46394907A8CD
:1045B00014F07CFF2C1DD5F81819204613F04EFC82
:1045C0000221204613F05BFC05F6EC0011F098FF89
:1045D000D5F8EC38591D002B3DD01A8800230293E2
:1045E00001930123009307AB204613F0C9FC12F09E
:1045F00063F8D5F8EC3883B31C88041BA4B2143CD0
:10460000A4B212F059F8804612F05CF8804526D822
:104610009FBBB5F80E19D5F8EC388BB31A88B5F8EE
:10462000E078B6F5803F2DD2B6B2D5F8EC0860B38D
:104630004388451D58B3B0F800C005960497002084
:1046400003900290CDF804C00095204612F05EFD64
:1046500008B0BDE8F0810022C0E70024CDE712F0E9
:104660002BF8D5F8EC3833B11C88041BC4F34F0485
:104670003234A4B2CCE70024F7E7B5F8FE18CAE755
:104680000022CCE7B5F8E268CFE70023D1E74FF08E
:10469000000CD2E7E0AA01082DE9F04182B00746FC
:1046A0000C4698461346DAB12825DBB9B4263246C3
:1046B000294620460BF004FB002300935523324685
:1046C000294680B20BF0C8FAC0B212F0A5F8034632
:1046D000424621463846FFF75DFF02B0BDE8F08153
:1046E0005025E2E75A26E2E72DE9F04784B0044678
:1046F00088469246061DD0F8DC18304613F0AEFB13
:10470000304613F099FC87B24146304613F028FC3E
:104710008146B4F80829B4F8E03800933B460021FC
:10472000084612F0D1F8B4F8081949451ED9A1EB92
:104730000901C1F34F05B4F8E238009343463A4605
:104740002946304613F0F0FBBAF1000F10D011F0FB
:10475000B3FFA0F11402B4F8E23892B2B4F812191F
:104760000A2012F085F904B0BDE8F0870025E2E7E1
:1047700005EB090080B20A30A7F10E01B4F8E03869
:10478000B4F8E2280392029310220192034B0093A3
:104790000E2389B280B212F053FCD8E7C09B010807
:1047A0002DE9F0418AB005460C461746642900D928
:1047B00064242E2105F1640009F0ACFF8046252316
:1047C00022462E4908A814F071FE2E1DD5F8DC18DB
:1047D000304613F043FB304613F02EFC84B22246E1
:1047E000B5F80A1907A811F049FE079B591D002BBF
:1047F00037D01A8801230293002301930093434684
:10480000304613F0BDFB079B591D63B31A88002384
:10481000029301930223009308AB304613F0B0FBE0
:104820001FB3B5F8E46811F04DFF001B81B2079B80
:10483000F3B11A88B5F8E0580798D8B14388441DF9
:10484000D0B1078805960495002003900290019747
:10485000009412F05BFC07A811F043FE0AB0BDE81B
:10486000F0810022C6E70022D1E7B5F8E268DAE776
:104870000022DFE70023E2E70027E3E7E4AA0108DC
:104880002DE9F04788B004460F469146061DD0F842
:10489000DC18304613F0E2FA304613F0CDFB1FFA75
:1048A00080F8B4F80AA911F00DFFA0EB080085B25A
:1048B00011F002FFB4F80A29821AB4F8E038009324
:1048C000434692B22946504611F0FEFF07F1090314
:1048D0009BB26C2B50D843238DF8143000238DF8F5
:1048E0001530B9F1000F02D146238DF8143011F0C4
:1048F000E3FE054605A9304613F032FB2D1AADB292
:10490000A5F11E091FFA89F911F0DCFEB4F8E238AE
:10491000009305AB02464946304613F005FB263DA1
:10492000ADB211F0CFFEA0EB080189B20431B4F8AA
:10493000E038B4F8E2280392029308220192184B5F
:104940000093052389B2284612F07AFB3A461549AE
:1049500006A814F0ABFD06A9304613F001FB2D1A92
:10496000ADB211F0AFFEB4F8E238009306AB0246E8
:104970002946304613F0D8FA11F09EFE143885B25D
:1049800011F0A0FEB4F81419411AB4F8E2382A461E
:1049900089B20A2012F06CF808B0BDE8F08700BFB9
:1049A000DC9B0108ECAA01082DE9F04385B006461E
:1049B00008461746642900D96420D6F8EC38DBB1E4
:1049C0005C88E2B20A210BF05AF90546B7B9B6F88D
:1049D0000E7911F071FE1138E4B2B6F8E0380093A8
:1049E000631C0D22394680B211F06EFF3C44A4B224
:1049F0003DB905B0BDE8F0830024E2E7B6F8FE78E3
:104A0000E7E711F059FE05381FFA80F811F054FE5F
:104A100005381FFA80F9671BBFB211F04DFEC5F3D0
:104A20008705451BADB2063DADB2B6F8E23802933C
:104A3000019700953B464A462146404612F024FA2B
:104A4000D7E7000030B585B004460846154D002272
:104A500029460BF035F9002200925523294600B271
:104A60000BF0FAF8C0B211F0D7FE94F8EA3801332F
:104A700003F0030384F8EA38B4F80059B4F80219D3
:104A800003EBC3035A01084B1344B4F8E028039026
:104A900002923022019200931346284612F0D0FA77
:104AA00005B030BD18FCFFFFE49B010810B584B0D1
:104AB0000246B0F80009B2F8021992F8EA3803EB9E
:104AC000C3035C01074B2344B2F8E02845F2AA2453
:104AD00003940292302201920093134612F0B0FA2E
:104AE00004B010BDE49B010800B585B0034669B968
:104AF000B0F80409B3F80619B3F8E038009330238E
:104B00001A4611F0E1FE05B05DF804FBB0F80409A7
:104B1000B3F80619B3F8E028B3F8E2380393029229
:104B200030220192024B0093134612F089FAEAE711
:104B300064A001082DE9F04182B005468846061DB3
:104B4000D0F8DC18304613F089F9304613F074FAC7
:104B5000C4B24146304613F00BFAC7B211F0ACFDB7
:104B6000C01B00EBD070A4B2B5F8E2380093434606
:104B70002246C0F34F01304613F0E4F911F09CFDDA
:104B8000C01B00EBD07040100A38B5F8E23807F1CE
:104B90001402E11C80B211F06BFF02B0BDE8F0819D
:104BA00010B50446643009F0B5FD01462046FFF714
:104BB000C1FF10BDF0B585B00D4616461F469DF8E5
:104BC000283093B1B0F8FE481E3CA4B211F074FD39
:104BD0002838039702961C2201920095134621461D
:104BE00080B212F02DFA05B0F0BD0024EEE700000F
:104BF00000B583B0B0F8E028009145F2AA2303493C
:104C0000FFF7D8FF03B05DF804FB00BF84A10108E3
:104C100000B583B0B0F8E02800914FF6FF73034968
:104C2000FFF7C8FF03B05DF804FB00BF84A10108D3
:104C300000B583B0B0F8E028002300934FF4FC6384
:104C40000249FFF7B7FF03B05DF804FBF4A10108C8
:104C500000B583B0B0F8E028002300934FF4FC6364
:104C60000249FFF7A7FF03B05DF804FB64A2010847
:104C700000B583B0B0F8E028002300934FF4FC6344
:104C80000249FFF797FF03B05DF804FBD4A20108C7
:104C900000B583B0B0F8E028002300931F23034938
:104CA000FFF788FF03B05DF804FB00BFD4A2010842
:104CB00000B583B0B0F8E028002300934FF47843A8
:104CC0000249FFF777FF03B05DF804FB44A3010836
:104CD0002DE9F04383B005461C4F0A461C4938466F
:104CE00014F0E4FB2E1DD5F8DC18304613F0B6F8AE
:104CF000304613F0A1F91FFA80F83946304613F018
:104D00002FF90446B5F8089911F0D6FCB5F8082932
:104D1000821A08F10703B5F8E01800919BB292B22D
:104D20000021484611F0D0FD11F0C6FC011B89B2EC
:104D30001439B5F8E23800933B46424689B2304612
:104D400013F0F2F803B0BDE8F08300BFE077002075
:104D5000ECAA010830B583B004460D4610460A227D
:104D60006FF031010AF0ACFF00B2002812DB002125
:104D7000009155230A220AF06FFFC0B211F04CFDDA
:104D8000B4F8E0280095034607492046FFF712FFD4
:104D900003B030BD55230093AA2300226FF03101E8
:104DA0000AF05AFFC0B2E9E784A101082DE9F04FEB
:104DB00095B007460A91099210939DF878301193A7
:104DC000031D1C460893D0F8DC18184613F046F86B
:104DD000204613F031F9C4B20A34E4B21FFA84FA5F
:104DE0000AF10C0B11F06EFCA0EB0B0090FBF4F43D
:104DF000E3B20F9311F060FC044611F063FC8442AF
:104E000025D9322411F058FCA3B20B93A0EB430038
:104E100084B2089813F010F982B2214613A811F059
:104E20002DFB07F164030C930A99184609F088FCDE
:104E300080460F9B83420CD29946109B93B11B78FE
:104E40009BB10F9B994506D0012307930FE01424D3
:104E5000D8E78146F1E709F1FF395FFA89F90123C3
:104E6000079304E00023079301E000230793C9F3AD
:104E70004706099B9E1BF6B2013676B2B8F1010FC8
:104E800001D99E4205D0002E06DB00250E950D9619
:104E900027E05E1E76B2F6E7464476B2F5E70022DA
:104EA0003BE0B7F8E068B7F8E2C8099B9C424AD0FB
:104EB000139B002B4FD01A88139800284DD043889D
:104EC000441D00284BD00088CDF814C0049600265D
:104ED00003960296019000940B9812F017F9013591
:104EE000EDB2A9453DD90D9B55FA83F4E4B2A04536
:104EF00002D8A4EB0804E4B20A9BE118C9B201315C
:104F0000C9B20C9809F006FC064613A811F0F8FA8D
:104F1000139B591D002BC2D01A88012302930A2328
:104F20000193002300933346089813F029F805FBFA
:104F30000AB189B2079B002BB3D00E9B002BB0D0D7
:104F4000514489B2ADE70AEB01039BB20E9333469D
:104F500066469C46ACE70022AEE70023B0E700209F
:104F6000B2E7079BD3B9079B93B90F9B99450FD223
:104F700019FB0AF11BFA81F189B2139B002B60D057
:104F80001A88B7F8E038009353460B9811F09CFC50
:104F900013A811F0A6FA15B0BDE8F08F13A811F010
:104FA000AFFA139B591D2BB31A88012302930023D8
:104FB000019302230093109B089812F0E1FF119BCC
:104FC00003BB139BC3B11A88B7F8E048B7F8E2589F
:104FD000139999B14B88481D91B10988059504949E
:104FE000002403940294019100900E990B9812F002
:104FF0008DF8B8E70022D8E70022E5E70023EAE7CA
:105000000021EBE7139BB3B11A88B7F8E058139966
:1050100099B14B88481D91B10C884FF478410591A6
:105020000495002103910291019400900E990B9830
:1050300012F06CF897E70022E7E70023EAE7002484
:10504000EBE700229DE700002DE9F04F8FB04C68A0
:105050000B68E41AE4105A4B03FB04F4A5B2954222
:1050600002D20FB0BDE8F08F90460B920A9107462E
:10507000031D0993D0F8DC189946184612F0EEFE8D
:10508000484612F0D9FFC0B20A30C1B206910C31C5
:10509000079111F011FB0646484612F0CDFFA6F12C
:1050A000640182B289B20DA811F0E8F94FFA88FBC9
:1050B0004346ED1AADB2052D03D8A4F1060B4FFA05
:1050C0008BFBBBF1000F0CDBA3B20893A3EB0B0827
:1050D000B8F1060FA8BF4FF006085FFA88F8002461
:1050E0001FE04FF0000BEFE7002239E00D9B002B93
:1050F00047D01A880D99002945D04B88481D0029B2
:1051000043D00D88CDF814A0CDF810900021039164
:105110000291019500903146322011F0F7FF0134E1
:10512000E4B2444533D254FA8BF5EDB20DA811F038
:10513000E7F9069B079A04FB0326B6B2B7F8E09896
:10514000B7F8E2A8089B9D42D0DC0A9B196805EBE2
:105150004502D300CB580D9A511D002AC4D01288A5
:10516000012002900A20019000200090099812F07E
:1051700007FF0B9B9D42B9D1B7F8E298B7F8E0A8BA
:10518000B4E70022B6E70023B8E70025BAE7B8F194
:10519000050F0FD8069B079A08FB03281FFA88F112
:1051A0000D9B5BB11A88B7F8E0380093069B32205C
:1051B00011F08AFB0DA811F094F952E70022F2E7F2
:1051C000ABAAAAAA2DE9F04F91B004460791174661
:1051D0001E46051DD0F8DC18284612F03FFE284672
:1051E00012F02AFFC0B20530C3B21A46069394F8F3
:1051F000FC38B34240F0B280B7F5805F01D340F68F
:10520000FF7711F05FFABDF81880A0EB08001FFAD5
:1052100080FA11F051FA8346A0F140091FFA89F98A
:10522000B7F5006F00F263812823009300234FF449
:105230000062194638460AF00FFD87B2CDF800909B
:10524000282340F6FF7240F601014FF461600AF036
:1052500003FDC6B22036F6B2AAEB08081FFA88F89A
:10526000A8F10F01ABF13602B4F8E238019305233F
:1052700000930A2392B289B21B2011F00CFCA8F112
:105280000A0B1FFA8BFBB4F8E4380A2259461C209B
:1052900011F071FDB4F8E2380A2259461C2011F0D1
:1052A00019FDA8F10E0B1FFA8BFBB4F8E43800933C
:1052B00008233A465946202011F006FB09F1FF3336
:1052C0009F42C0F22081B6B2701EA8F10501B4F869
:1052D000E23800930623032289B280B211F0F4FA77
:1052E000079A90490EA814F0E1F810AF432327F86D
:1052F0000C3D0EA9284612F033FE8146C0F34F0341
:10530000F61AB6B2B4F8E23800930EAB5246314604
:10531000284612F009FE4E44B6B2B01D08F104084A
:10532000B4F8E038B4F8E22803920293082201921C
:105330007D4B009305231FFA88F180B211F080FEA7
:1053400006F10E01B4F8E23800933B46524689B2AA
:10535000284612F0E9FD11B0BDE8F08F84F8FC6832
:105360001FFA82F808F13C0911F0A6F914380090F0
:1053700000236422194630460AF06EFC83B208937B
:105380002823009300236422194630460AF064FC67
:10539000C3B2099311F090F90A381FFA80FA11F09C
:1053A0008BF90A3880B208F1140BB4F8E038029394
:1053B000CDF804B000904B46524649460A2011F001
:1053C00063FD11F079F90A381FFA80FA11F074F9C7
:1053D0000A3880B2B4F8E2380293CDF804B00090F5
:1053E0004B46524649460A2011F02DFD002E59D158
:1053F000002E69D02F2104F1640009F08BF9834657
:10540000FBF7D0FD5FFA80FABAF1040F01D94FF033
:10541000040A524659460AA814F082F82523324657
:1054200042490AA8504414F041F804F6EC0011F087
:1054300067F8D4F8EC38591D002B4FD01A88002398
:1054400002930193012300930AAB284612F098FDC2
:1054500011F032F9D4F8EC38002B41D01A88801AB8
:1054600000EBD070C0F34F00C84408F10A01B4F853
:10547000E088B4F8E298D4F8EC689EB3738806F13B
:10548000050C8EB3B6F800E0CDF81490CDF810807E
:10549000002603960296CDF804E0CDF800C011F086
:1054A00035FEA9E6089A0A3292B2099BA9EB0303DA
:1054B0009BB2B4F8E2180291019300924B46494620
:1054C0000A2011F0E1FC93E72D2104F1640009F0BA
:1054D00021F901460AA813F0E9FFA6E70022AEE78A
:1054E0000022BCE70023CAE74FF0000ECCE7CDF85E
:1054F0000090282340F6FF7240F6010138460AF07A
:10550000ABFB87B29AE607F12000A9EB0702B4F8DB
:10551000E0380093082392B2594680B211F0D4F9D2
:10552000D1E600BFF8AA0108DC9B0108F0AA010837
:105530002DE9F04184B00546041DD0F8DC18204662
:1055400012F08CFC204612F077FDC4B20534E4B2B0
:105550001E3411F0B7F8001B80B2461FB6B216F029
:10556000010F01D1063886B211F0A6F8D5F8F0384F
:10557000002B39D01C88041BA4B2363CA4B22146AF
:1055800005F1540002F039FB074648B3D5F8F83866
:105590000BB11B8823BB05F6F808022332462146CF
:1055A00003A812F06EF803A9404612F096F803A87B
:1055B00012F0A9F8B5F8E038ADF80430B5F8E238E3
:1055C000ADF80630B5F8E438ADF80830B5F8E6388F
:1055D000ADF80A3004220DEB0201404612F0BCF88F
:1055E000384604B0BDE8F0810024C4E72DE9F04F4F
:1055F00089B0044605910692079300F10408D0F89B
:10560000DC18404612F02AFC404612F015FDC6B2E6
:105610000536F6B206F11E0911F054F8A0EB0900A8
:1056200080B2451FADB215F0010F01D1851FADB29B
:105630006D08D4F8F038002B00F0B4801F8807F113
:1056400013039BB2049307F1050A1FFA8AFA59FA69
:1056500085F511F031F8A0F14602B4F8E23892B2C3
:105660002946504611F004FA11F026F8D4F8F03823
:10567000002B00F099801B88184480B24138A91E85
:10568000B4F8E038B4F8E228039202934FF0080A25
:10569000CDF804A0DFF824B10BF61C03009305231A
:1056A000524689B280B211F0CBFC11F005F8A0F19E
:1056B00014016A1FB4F8E23800933F4B92B289B2EA
:1056C000404612F031FC10F0FDFFA0F10C02B4F8DE
:1056D000E23892B20A21049811F0D3F907F11100CF
:1056E000B4F8E038B4F8E22803920293CDF804A0AD
:1056F0000BF62403009353460522114680B211F0A5
:105700009FFC0F37BFB2B4F8E43809224946384647
:1057100011F0AEF9B4F8E638092206EB0901384673
:1057200011F0A6F9D4F8F038002B3FD019880F39C2
:10573000B4F8E4380093069B324689B2404612F032
:10574000F3FBD4F8F0389BB319881E31B4F8E6386F
:105750000093079B324689B2404612F0E5FBD4F82D
:10576000F0383BB31D880544ADB21E35ADB2DDF84F
:1057700014904946404612F0F3FB074610F09CFF98
:10578000401BC01B00EBD07005EB6000B4F8E238A2
:1057900000934B46324681B2404612F0C5FB09B039
:1057A000BDE8F08F00274AE7002365E70021BEE748
:1057B0000021CAE70025D6E774AD0108989B0108CF
:1057C0002DE9F0478AB08046022946D908F1040540
:1057D000D8F8DC18284612F041FB284612F02CFCC1
:1057E0005FFA80FA03A9284612F0BAFB814610F04E
:1057F00063FFA0EB0900C0F34F0710F063FF00EB5D
:1058000040000646002831DBC6F38F06284612F01A
:1058100013FC04B2284612F017FC04FA80F1A7F139
:105820000A00C9B2711A89B20A3909F11402B8F82A
:10583000E03800930AF1140392B289B280B211F0F9
:1058400043F8B8F8E238009303AB324639462846AD
:1058500012F06AFB0AB0BDE8F087054B03EB81014B
:10586000D1F82C1803A813F021FEAFE7C61CCBE734
:10587000989B01082DE9F04F8BB005468A4691466A
:10588000071DD0F8DC18384612F0E8FA3A2128460D
:10589000FFF786F9384612F0CFFBC6B20536F6B2EE
:1058A00006F10C0810F008FF0446384612F0C4FB5D
:1058B000A4F1640182B289B206A810F0DFFD0024D1
:1058C0001FE0002231E07346E6469C463CE00022A1
:1058D00041E0002300F1050B002841D00088CDF8FD
:1058E00014E0CDF810C04FF0000CCDF80CC0CDF88E
:1058F00008C00190CDF800B0322011F007FC01344F
:10590000E4B2022C2ED81A4B03EB84033AF814208D
:10591000D3F82C1807A813F0C9FD06A810F0F0FD65
:10592000069B591D002BCCD01A880023029305201A
:105930000190009307AB384612F022FBB5F8E2E87D
:10594000B5F8E0C84C45BED004FB068189B2069B81
:10595000002BBCD01A8806980028BAD04388B9E733
:105960000020BCE706A810F0BCFD0BB0BDE8F08F2E
:10597000989B010870B582B004460E46051DD0F80C
:10598000DC18284612F06AFA10F09CFEA0F13202F0
:10599000B4F8E8380093334692B26421284612F0F6
:1059A000C3FA02B070BD10B50446D0F8F8380BB198
:1059B0001B8823B904F1540002F04EF910BD00F623
:1059C000F80011F0A0FEF5E72DE9F04F87B083460F
:1059D0000D46049200F164043921204608F09AFE35
:1059E0000646BBF8E00810F095FF2946204608F06F
:1059F00091FE037803B304460BF104031D460393A1
:105A0000DBF8DC18184612F029FA284612F014FBCD
:105A100080B2053083B205932046FBF7C3FAC7B2C4
:105A2000781C13F0EDFB804658B3214613F05EFD61
:105A300000264FF0010964E00BF10404DBF8DC18E8
:105A4000204612F00BFA0321204612F018FA3146D4
:105A5000204612F08DFA054610F02EFE451BC5F3C8
:105A60004F0510F02FFEBBF8E23800933346C0F329
:105A70004F022946204612F065FA0121204612F015
:105A8000FEF907B0BDE8F08F25466C1CE4B2A742D2
:105A900003D918F804300A2BF6D1A74202D9002303
:105AA00008F8043046443146039812F061FA5FFA70
:105AB00080FA10F001FE824528DA10F0FDFDA0EB1F
:105AC0000A0000EBD070059B19FB03F2049B13FA4C
:105AD00082F2BBF8E2380093334692B2C0F34F0132
