:020000040800F2
:1000000000000120F583010801FA000803FA000846
:1000100005FA000807FA000809FA000800000000C5
:100020000000000000000000000000000BFA0008C3
:100030000DFA0008000000000FFA000811FA00088D
:100040004584010845840108458401084584010868
:100050004584010845840108B5250008D925000814
:100060004584010845840108458401084584010848
:100070004584010845840108458401084584010838
:1000800045840108458401084584010800000000FA
:10009000000000000000000000000000458401088E
:1000A00045840108458401084584010819FA0008BF
:1000B00029FA00084584010845840108458401089F
:1000C00045840108458401084584010845840108E8
:1000D00045840108458401084584010800000000AA
:1000E000458401084584010845840108000000009A
:1000F000000000000000000000000000458401082E
:100100000000000045840108458401084584010879
:1001100000000000000000000000000000000000DF
:1001200039FA0008458401084584010849FA0008A5
:1001300045840108000000000000000000000000ED
:1001400000000000000000000000000045840108DD
:100150004584010845840108458401084584010857
:1001600045840108458401080000000000000000EB
:10017000000000000000000000000000000000007F
:10018000000000004584010800000000000000009D
:040190004584010899
:1001A00010B5054C237833B9044B13B10448AFF3B1
:1001B00000800123237010BD7002002000000000A9
:1001C000D099010808B5034B1BB103490348AFF3AD
:1001D000008008BD0000000074020020D0990108D2
:1001E00081F0004102E000BF83F0004330B54FEAE8
:1001F00041044FEA430594EA050F08BF90EA020F55
:100200001FBF54EA000C55EA020C7FEA645C7FEAE7
:10021000655C00F0E2804FEA5454D4EB5555B8BF0A
:100220006D420CDD2C4480EA020281EA030382EA7B
:10023000000083EA010180EA020281EA0303362D0D
:1002400088BF30BD11F0004F4FEA01314FF4801CE0
:100250004CEA113102D0404261EB410113F0004FF2
:100260004FEA03334CEA133302D0524263EB4303A9
:1002700094EA050F00F0A780A4F10104D5F1200E47
:100280000DDB02FA0EFC22FA05F2801841F10001A2
:1002900003FA0EF2801843FA05F359410EE0A5F176
:1002A00020050EF1200E012A03FA0EFC28BF4CF0A7
:1002B000020C43FA05F3C01851EBE37101F000455D
:1002C00007D54FF0000EDCF1000C7EEB00006EEB6A
:1002D0000101B1F5801F1BD3B1F5001F0CD34908F4
:1002E0005FEA30004FEA3C0C04F101044FEA44524B
:1002F00012F5800F80F09A80BCF1004F08BF5FEAD2
:10030000500C50F1000041EB045141EA050130BDB1
:100310005FEA4C0C404141EB010111F4801FA4F154
:100320000104E9D191F0000F04BF01460020B1FAA9
:1003300081F308BF2033A3F10B03B3F120020CDAE1
:100340000C3208DD02F1140CC2F10C0201FA0CF0BF
:1003500021FA02F10CE002F11402D8BFC2F1200C24
:1003600001FA02F120FA0CFCDCBF41EA0C019040DA
:10037000E41AA2BF01EB0451294330BD6FEA040423
:100380001F3C1CDA0C340EDC04F11404C4F120020E
:1003900020FA04F001FA02F340EA030021FA04F320
:1003A00045EA030130BDC4F10C04C4F1200220FA77
:1003B00002F001FA04F340EA0300294630BD21FAB5
:1003C00004F0294630BD94F0000F83F4801306BF7B
:1003D00081F480110134013D4EE77FEA645C18BF6F
:1003E0007FEA655C29D094EA050F08BF90EA020F06
:1003F00005D054EA000C04BF1946104630BD91EAFE
:10040000030F1EBF0021002030BD5FEA545C05D100
:100410004000494128BF41F0004130BD14F580043F
:100420003CBF01F5801130BD01F0004545F0FE41B3
:1004300041F470014FF0000030BD7FEA645C1ABFE8
:10044000194610467FEA655C1CBF0B46024650EA1F
:10045000013406BF52EA033591EA030F41F400214B
:1004600030BD00BF90F0000F04BF0021704730B5D1
:100470004FF4806404F132044FF000054FF00001A6
:1004800050E700BF90F0000F04BF0021704730B567
:100490004FF4806404F1320410F0004548BF40423C
:1004A0004FF000013EE700BF42004FEAE2014FEA91
:1004B00031014FEA02701FBF12F07F4393F07F4F6C
:1004C00081F06051704732F07F4208BF704793F06F
:1004D0007F4F04BF41F40021704730B54FF4607482
:1004E00001F0004521F000411CE700BF50EA010285
:1004F00008BF704730B54FF000050AE050EA01022E
:1005000008BF704730B511F0004502D5404261EB9D
:1005100041014FF4806404F132045FEA915C3FF4DE
:10052000D8AE4FF003025FEADC0C18BF03325FEA7B
:10053000DC0C18BF033202EBDC02C2F1200300FA2C
:1005400003FC20FA02F001FA03FE40EA0E0021FA51
:1005500002F11444BDE600BF70B54FF0FF0C4CF43F
:10056000E06C1CEA11541DBF1CEA135594EA0C0FF1
:1005700095EA0C0F00F0DEF82C4481EA030621EA2C
:100580004C5123EA4C5350EA013518BF52EA033567
:1005900041F4801143F4801338D0A0FB02CE4FF019
:1005A0000005E1FB02E506F00042E0FB03E54FF049
:1005B0000006E1FB03569CF0000F18BF4EF0010E41
:1005C000A4F1FF04B6F5007F64F5407404D25FEA3D
:1005D0004E0E6D4146EB060642EAC62141EA5551F0
:1005E0004FEAC52040EA5E504FEACE2EB4F1FD0C32
:1005F00088BFBCF5E06F1ED8BEF1004F08BF5FEAB0
:10060000500E50F1000041EB045170BD06F0004661
:1006100046EA010140EA020081EA0301B4EB5C040E
:10062000C2BFD4EB0C0541EA045170BD41F4801106
:100630004FF0000E013C00F3AB8014F1360FDEBF2B
:10064000002001F0004170BDC4F10004203C35DA07
:100650000C341BDC04F11404C4F1200500FA05F38A
:1006600020FA04F001FA05F240EA020001F000422B
:1006700021F0004110EBD37021FA04F642EB0601A1
:100680005EEA430E08BF20EAD37070BDC4F10C04CB
:10069000C4F1200500FA04F320FA05F001FA04F28F
:1006A00040EA020001F0004110EBD37041F100017B
:1006B0005EEA430E08BF20EAD37070BDC4F1200586
:1006C00000FA05F24EEA020E20FA04F301FA05F2EE
:1006D00043EA020321FA04F001F0004121FA04F296
:1006E00020EA020000EBD3705EEA430E08BF20EA66
:1006F000D37070BD94F0000F0FD101F000464000A0
:1007000041EB010111F4801F08BF013CF7D041EA21
:10071000060195F0000F18BF704703F00046520025
:1007200043EB030313F4801F08BF013DF7D043EAF6
:100730000603704794EA0C0F0CEA135518BF95EAAC
:100740000C0F0CD050EA410618BF52EA4306D1D133
:1007500081EA030101F000414FF0000070BD50EA52
:10076000410606BF1046194652EA430619D094EADC
:100770000C0F02D150EA013613D195EA0C0F05D1C6
:1007800052EA03361CBF104619460AD181EA03011A
:1007900001F0004141F0FE4141F470014FF00000D2
:1007A00070BD41F0FE4141F4780170BD70B54FF06D
:1007B000FF0C4CF4E06C1CEA11541DBF1CEA1355ED
:1007C00094EA0C0F95EA0C0F00F0A7F8A4EB0504CF
:1007D00081EA030E52EA03354FEA013100F08880C6
:1007E0004FEA03334FF0805545EA131343EA12638F
:1007F0004FEA022245EA111545EA10654FEA002644
:100800000EF000419D4208BF964244F1FD0404F5FC
:10081000407402D25B084FEA3202B61A65EB030558
:100820005B084FEA32024FF480104FF4002CB6EB15
:10083000020E75EB030E22BFB61A754640EA0C0095
:100840005B084FEA3202B6EB020E75EB030E22BFD5
:10085000B61A754640EA5C005B084FEA3202B6EB16
:10086000020E75EB030E22BFB61A754640EA9C00D5
:100870005B084FEA3202B6EB020E75EB030E22BFA5
:10088000B61A754640EADC0055EA060E18D04FEA63
:10089000051545EA16754FEA06164FEAC30343EA03
:1008A00052734FEAC2025FEA1C1CC0D111F4801FD0
:1008B0000BD141EA00014FF000004FF0004CB6E7C9
:1008C00011F4801F04BF01430020B4F1FD0C88BF68
:1008D000BCF5E06F3FF6AFAEB5EB030C04BFB6EB73
:1008E000020C5FEA500C50F1000041EB045170BD66
:1008F0000EF0004E4EEA113114EB5C04C2BFD4EB93
:100900000C0541EA045170BD41F480114FF0000E16
:10091000013C90E645EA060E8DE60CEA135594EA92
:100920000C0F08BF95EA0C0F3FF43BAF94EA0C0F95
:100930000AD150EA01347FF434AF95EA0C0F7FF40A
:1009400025AF104619462CE795EA0C0F06D152EA5E
:1009500003353FF4FDAE1046194622E750EA410642
:1009600018BF52EA43067FF4C5AE50EA41047FF453
:100970000DAF52EA43057FF4EBAE12E74FF0FF3CB8
:1009800006E000BF4FF0010C02E000BF4FF0010C89
:100990004DF804CD4FEA410C7FEA6C5C4FEA430C02
:1009A00018BF7FEA6C5C1BD001B050EA410C0CBF51
:1009B00052EA430C91EA030F02BF90EA020F0020B3
:1009C000704710F1000F91EA030F58BF994208BF1A
:1009D00090422CBFD8176FEAE37040F001007047D7
:1009E0004FEA410C7FEA6C5C02D150EA013C07D12E
:1009F0004FEA430C7FEA6C5CD6D152EA033CD3D079
:100A00005DF8040B704700BF8446104662468C4672
:100A10001946634600E000BF01B5FFF7B7FF0028A5
:100A200048BF10F1000F01BD4DF808EDFFF7F4FFCE
:100A30000CBF012000205DF808FB00BF4DF808ED59
:100A4000FFF7EAFF34BF012000205DF808FB00BF7C
:100A50004DF808EDFFF7E0FF94BF012000205DF89E
:100A600008FB00BF4DF808EDFFF7CEFF94BF012053
:100A700000205DF808FB00BF4DF808EDFFF7C4FF4C
:100A800034BF012000205DF808FB00BF4FEA410C95
:100A90007FEA6C5C02D150EA013C0AD14FEA430C78
:100AA0007FEA6C5C02D152EA033C02D14FF00000B5
:100AB00070474FF0010070474FEA410212F50012F3
:100AC00015D211D56FF47873B3EB625212D94FEA95
:100AD000C12343F0004343EA505311F0004F23FA7F
:100AE00002F018BF404270474FF00000704750EAD4
:100AF000013005D111F0004008BF6FF00040704791
:100B00004FF00000704700BF4A0011D212F50012EA
:100B100011D20DD56FF47873B3EB62520ED44FEA55
:100B2000C12343F0004343EA505323FA02F07047D5
:100B30004FF00000704750EA013002D14FF0FF3013
:100B400070474FF0000070474FEA4102B2F1E043B6
:100B500024BFB3F5001CDCF1FE5C0DD901F0004CA4
:100B60004FEAC0024CEA5070B2F1004F40EB8300F4
:100B700008BF20F00100704711F0804F21D113F120
:100B80003872BCBF01F00040704741F480114FEA59
:100B90005252C2F11802C2F1200C10FA0CF320FAE2
:100BA00002F018BF40F001004FEAC1234FEAD323FF
:100BB00003FA0CFC40EA0C0023FA02F34FEA430369
:100BC000CCE77FEA625307D150EA01331EBF4FF0F2
:100BD000FE4040F44000704701F0004040F0FE400D
:100BE00040F40000704700BF53B94AB9002908BF5C
:100BF00000281CBF4FF0FF314FF0FF3000F072B9FA
:100C0000ADF1080C6DE904CE00F006F8DDF804E063
:100C1000DDE9022304B070472DE9F047089E044641
:100C20008846002B4BD18A42154667D9B2FA82F228
:100C30004AB1C2F1200701FA02F320FA07F7954002
:100C400047EA030894404FEA154E230CB8FBFEF721
:100C50001FFA85FC0EFB178843EA084307FB0CF1DB
:100C6000994209D9EB1807F1FF3080F01B819942B6
:100C700040F21881023F2B445B1AA4B2B3FBFEF092
:100C80000EFB103344EA034400FB0CFCA44509D9D5
:100C90002C1900F1FF3380F00781A44540F2048154
:100CA00002382C4440EA0740A4EB0C0400271EB194
:100CB000D4400023C6E900433946BDE8F0878B42A3
:100CC00009D9002E00F0EB800027C6E90001384664
:100CD0003946BDE8F087B3FA83F7002F47D18B423E
:100CE00002D3824200F2FA80841A61EB03030120EE
:100CF0009846002EE0D0C6E90048DDE702B9FFDEE5
:100D0000B2FA82F2002A40F08F80491B4FEA154E5A
:100D10001FFA85F80127B1FBFEFC230C0EFB1C110A
:100D200043EA014308FB0CF1994207D9EB180CF197
:100D3000FF3002D2994200F2CD808446591AA3B204
:100D4000B1FBFEF00EFB101443EA044408FB00F86C
:100D5000A04507D92C1900F1FF3302D2A04500F2BB
:100D6000B6801846A4EB080440EA0C409FE7C7F1A0
:100D7000200CBB4022FA0CFE4EEA030E01FA07F4E7
:100D800020FA0CF521FA0CF34FEA1E482543B3FB79
:100D9000F8F92C0C08FB19331FFA8EFA44EA0343C6
:100DA00009FB0AF49C4202FA07F200FA07F10BD998
:100DB0001EEB030309F1FF3080F087809C4240F274
:100DC0008480A9F1020973441B1BADB2B3FBF8F098
:100DD00008FB103345EA034400FB0AFAA24508D990
:100DE0001EEB040400F1FF336BD2A24569D902382F
:100DF000744440EA0940A0FB0289A4EB0A044C4574
:100E0000C2464B4654D351D0002E69D0B1EB0A05EF
:100E100064EB030404FA0CFCFD40FC404CEA0505BD
:100E2000C6E90054002747E7C2F1200320FA03F780
:100E3000954001FA02F021FA03F34FEA154E3843C8
:100E4000010CB3FBFEF71FFA85F80EFB173341EADE
:100E5000034107FB08F38B4204FA02F407D969182F
:100E600007F1FF3C2FD28B422DD9023F2944CB1AE8
:100E700081B2B3FBFEF00EFB103341EA034100FBED
:100E800008F38B4207D9691800F1FF3C17D28B4257
:100E900015D902382944C91A40EA07473BE73746C3
:100EA000304609E70746E7E61846FBE64145ABD280
:100EB000B8EB020A69EB0E0201381346A4E760465C
:100EC000E9E7184695E76746D1E781467CE70238AF
:100ED0002C4447E7ACF1020C2B442FE7384608E7D7
:100EE0003746E9E6704700BF000000000000000040
:100EF00001F0FF01102A2BDB10F0070F08D010F8CB
:100F0000013B013A8B422DD010F0070F42B3F6D1CE
:100F1000F0B441EA012141EA014122F007047FF0E7
:100F200000070023F0E80256083C85EA010586EA3E
:100F3000010685FA47F5A3FA87F586FA47F6A5FA7A
:100F400087F68EB9EED1F0BC01F0FF0102F0070286
:100F500032B110F8013B013A83EA010313B1F8D131
:100F60000020704701387047002D06BF3546033812
:100F7000073815F0010F07D1013015F4807F02BF4B
:100F8000013015F4C03F0130F0BC0138704700BF9C
:100F900010F8012B11F8013B012A28BF9A42F7D023
:100FA000D01A7047034613F8012B002AFBD1181AF8
:100FB0000138704701230370014B00221A64704707
:100FC0000008004010B54B1E044CE3624910216438
:100FD00010460EF021FE0023236410BD00080040DF
:100FE00008B5037803B908BDA0224FF48E71FFF74E
:100FF000E9FFF8E7037803B9704710B50446A0226B
:101000004FF48E71FFF7DEFF64200EF005FEA02284
:101010004FF48E712046FFF7D5FF10BD08B5037859
:1010200003B908BDA02240F61831FFF7CBFFF8E75F
:10103000037803B9704710B50446A0224FF48E71AF
:10104000FFF7C0FF32200EF0E7FD3C2240F61831DA
:101050002046FFF7B7FF32200EF0DEFDA02240F25F
:101060008C512046FFF7AEFF10BD41F2C403C358B8
:10107000ABB370B584B00D4604464E0013F8112092
:10108000FF2A1CD00123694606F0DBFA58BB9DF805
:10109000083083F001038DF80830012269462046AC
:1010A00006F079FC41F2C403E25802F81500E35857
:1010B00033449DF808205A70012004B070BD00F53B
:1010C00081501C3007F008FB014650B105220DF19C
:1010D000090018F05DF901238DF80830DDE70020E4
:1010E00070470020E9E70020E7E741F2C403C35856
:1010F000002B40D070B50E46044600F581501C30E0
:1011000007F0E8FA05460246012130460EF010FDD0
:10111000C0B241F2C403E258044602EB40035B78DC
:1011200013F0010F1AD180B2034643B102EB430121
:10113000497811F0010F02D1013B9BB2F5E7A842BB
:1011400008D202EB4001497811F0010F02D10130C1
:1011500080B2F4E71BB9A8420FD0C0B270BDA8425C
:1011600005D0E21A041BA24203DBC0B2F6E7D8B2F4
:10117000F4E7D8B2F2E7012070470120EEE7000063
:101180002DE9F04180460C464E888D888B7E13F009
:10119000010F29D01D4B1A881D4B198830460EF0BF
:1011A000C7FC074686B21B4B1A881B4B198828467A
:1011B0000EF0BEFC054680B2A37E13F0010F1CD0DA
:1011C0006680A080637E1E2B01D91E236376217E5C
:1011D0004046FFF78AFF2076FF220A21E07E0EF0CC
:1011E000A7FCE076BDE8F08130B20EF0B7FC86B225
:1011F00028B20EF0B3FC85B2CCE738B20EF0A0FCFA
:1012000086B228B20EF09CFC80B2D9E72EA5010868
:1012100030A501082AA501082CA501082DE9F043F5
:1012200085B0064689460024A04612E00DF109016A
:10123000284607F05DFA00B2002808DB9DF8083068
:101240002BB109EB400219F81030FF2B1CD00134F0
:1012500024B206F581551C35284607F03BFA844236
:101260000ADAE7B201233A466946304606F0E9F960
:101270000028DBD00128EAD1304606F0E3F85FFA17
:1012800088F005B0BDE8F08309F810709DF80830CB
:10129000537008F101081FFA88F8D8E708B541F241
:1012A000C403C15819B1FFF7B9FF012008BD0020E0
:1012B000FCE7000038B50C461546114600F5815094
:1012C0001C3007F009FAC8B1014615B103784E2B5E
:1012D00007D10522204618F05BF8002363712046F1
:1012E00038BD094B186820601B79204600F8043F80
:1012F000052218F04DF800236372F0E7034B03CB8F
:1013000020606160EBE700BF80A5010888A50108A7
:1013100008B541F25403C25C0149FFF7CBFF08BD99
:101320008C0200202DE9F8439DF8209041F2C4047E
:1013300050F804C0BCF1000F05D01F461646804689
:101340004C1E032513E0002107E001EB4104A0003F
:101350001044002484700131C9B29942F5D30020B1
:101360004FE0013D15F0FF0527D0013C24B2002CD1
:1013700009DDB9F1000FF4D00CEB44035B7813F0F6
:10138000010FF2D0EDE7002517E005EB45029300D1
:10139000F118E2B2F25441F2C40358F8033003EBFF
:1013A00044035B784B7002314046FFF783FF013501
:1013B000EDB2BD4218D2013424B208F581501C3080
:1013C00007F088F984420FDA002CF4D0B9F1000F4D
:1013D000DBD041F2C40358F8033003EB44035B78DD
:1013E00013F0010FD1D1E6E72946B94208D201EB4B
:1013F000410398003044002383700131C9B2F4E7FF
:101400002846BDE8F88308B54288438E9A4201D049
:10141000002008BD8288838E9A4201D00020F8E720
:10142000C288C38E9A4201D00020F2E7828AB0F8C7
:1014300044309A4201D00020EBE7827D90F846309C
:101440009A4201D00020E4E7027E90F848309A42A8
:1014500001D00020DDE7427E90F849309A4201D069
:101460000020D6E7827E90F84A309A4201D00020D0
:10147000CFE7C27D90F847309A420FD1C27E90F8F4
:101480004B309A420CD1142200F14C011C3017F061
:101490006DFF08B90120BCE70020BAE70020B8E7DB
:1014A0000020B6E708B5EB2343804FF496738380A2
:1014B0004FF49663C380012303760023437683822F
:1014C0000522827533228276C37540F6FC030381C0
:1014D0003223438140F2DF238381C823C381402329
:1014E0000382C32343828023C376142202491C3023
:1014F00017F04EFF08BD00BF18A5010810B504463F
:10150000037F13B104F11C0010BD142202491C30EA
:1015100017F03EFFF6E700BF18A501082DE9F04FD0
:1015200083B0044601921D469DF830B09DF834A06A
:101530009DF838909DF83C809DF840609DF844707F
:10154000837E03F001034176BDF8482082829DF836
:101550004C208275AB420BD0002D44D0B0F9020074
:101560000EF0FCFA6080B4F904000EF0F7FAA080E7
:101570000023A3760DB10123A376019B1BB1A37EAB
:1015800043F00203A376BBF1000F03D0A37E43F028
:101590000403A376BAF1000F03D0A37E63F07F03A8
:1015A000A376B9F1000F03D0A37E43F01003A37616
:1015B000B8F1000F03D0A37E43F02003A3761FB140
:1015C000A37E43F00803A3761EB1A37E43F040033D
:1015D000A376FF220A219DF850000EF0A9FAE076CA
:1015E00003B0BDE8F08FB0F902000EF0A9FA6080F8
:1015F000B4F904000EF0A4FAA080B9E74180704766
:101600008180C280704770B400F1300213460668D2
:1016100045688468C1681E605D609C60D960103058
:1016200010339042F3D170BC704738B5054600F5D1
:1016300081541C342046FFF7E6FE00B138BD214638
:10164000284606F072F92046FFF7DDFFF6E710B5F1
:10165000AAB10A6841F24A03C2524A6841F24C03F5
:10166000C2528A6841F24E03C25200F581541C34C2
:10167000214606F05AF92046FFF7C5FF10BD0A685B
:1016800041F24403C2524A6841F24603C2528A6898
:1016900041F24803C252E8E770B400F13003024659
:1016A00060301E685D689C68D968166055609460FB
:1016B000D160103310328342F3D170BC7047C07DCB
:1016C000000900EB80007047C37D03F00F03013376
:1016D00003EB8303980070474B2900D94B21B2F5E7
:1016E000A07F03D8042A03D8052201E04FF4A0729A
:1016F0000B1DDBB20849A1FB03139B081B01DBB2E6
:10170000013A064981FB02C1D217C2EBE10202F0A5
:101710000F021343C3757047CDCCCCCC67666666A9
:1017200010B5044632B94B8A0A8AC9890DF04EFABF
:10173000204610BD8B894A8909890DF047FAF7E7E1
:1017400010B5044632B93223402296210DF03EFAFC
:10175000204610BDC8230A2240F23F210DF036FA80
:10176000F6E770B40E8893009C1865004419465340
:101770004D8865808D88A580CD88E5800D7A25729D
:1017800091F90E10617270BC704701EB81014B0042
:10179000184490F909007047032905D802EB82022A
:1017A000114430F8110070470020704703290BD80E
:1017B000012A04D0083100EB4101888870470C31C0
:1017C00000EB410188887047002070472DE9F04701
:1017D00082B005460F46924600F584541C34002121
:1017E0002046FFF7E3FF804641F2500902463946A2
:1017F00035F809000EF09CF986B225F809605246CA
:1018000000212046FFF7C8FF0090002342463946DA
:1018100030460EF059F980B202B0BDE8F087000002
:101820002DE9F04F85B00646884691461C4619467C
:101830009B0023445A00831893F90900A9EB000781
:10184000B55A454513D804EB840253003344DD8870
:10185000454540D30125032D71D801EB81032B446D
:1018600036F813A0C24519D80135EDB2F3E7224688
:1018700000213046FFF79AFF384400904B462A4635
:10188000002140460EF020F900B240F2E73249460E
:101890000EF04EF980B205B0BDE8F08F6A1E04EB81
:1018A00084031A4436F812B0691E2246C9B2304683
:1018B000FFF77CFFC3190393224629463046FFF702
:1018C00075FF38440090039B5246594640460EF03F
:1018D000FBF800B2D9E704EB840253003344B3F8B9
:1018E00002A0554515D8224601213046FFF75EFF7C
:1018F000C519224603213046FFF758FF3844114BE3
:101900001A8800902B46514640460EF0DDF800B292
:10191000BBE7224601213046FFF748FF00EB070BEB
:10192000224603213046FFF741FF384400905B46D2
:101930002A46514640460EF0C7F800B2A5E70020FF
:10194000A3E700BF36A5010810B5044600F5845092
:101950001C30FFF765FF04F581531C339B7E13F0A9
:10196000010F00D010BD00B20EF0EAF880B2F9E726
:101970002DE9F04F85B00546039116461C4600F54B
:10198000845808F11C0819464046FFF7FEFE371A36
:10199000224600214046FFF709FFBFB238441FFA34
:1019A00080F9224603214046FFF700FF0744BFB2FB
:1019B000012C35D0484BB3F800A0012C34D0474B54
:1019C000B3F800B005F581531C339B7E13F0010F73
:1019D0002ED05A46514603980EF0AAF81FFA80FA04
:1019E0003F4BB3F800B0224600214046FFF7D4FE3B
:1019F0000390224603214046FFF7CEFE0090039B52
:101A00003A46494650460EF05FF880B2B0EB5B0FA5
:101A100025DDA0EBAB07BFB24FF00008C1463BE0AD
:101A2000304BB3F800A0C8E72F4BB3F800B0C9E7BC
:101A30000FFA89F00EF084F81FFA80F938B20EF030
:101A40007FF887B20FFA8AF00EF07AF81FFA80FA60
:101A50000FFA8BF00EF074F81FFA80FBB9E75F46BF
:101A6000BBF1000F03DB00EBA707BFB2D4E70BF11C
:101A70000307F8E77B1CB9469FB209E009EB0703AF
:101A800003EBD373C3F34F039F421CD0BB461F46E7
:101A900008F101085FFA88F8B8F1130F17D8234648
:101AA000324639462846FFF74FFF82450FD0E5D929
:101AB00007EB0B0303EBD373C3F34F039F42D9D060
:101AC000B9461F46E4E77B1EBB469FB2E0E73846B7
:101AD00005B0BDE8F08F00BF30A501082EA50108B4
:101AE00036A501082CA501082AA501080023032B0F
:101AF0000ED810B402EB82041C4430F8144021F8D4
:101B000013400133DBB2032BF4D95DF8044B70476B
:101B10007047000070B40024032C09D831F8146019
:101B200003EB8305254420F815600134E4B2F3E7A4
:101B30009C001C4461000C4601444A7203220A7254
:101B4000C988044A1288914201D92044C28070BCDD
:101B5000704700BF36A5010830B48B005A185400F6
:101B600002194FF42A7505534FF47174548040F2F2
:101B70000A5494804FF4C864D480034C247854727F
:101B80000123137230BC704729A5010808B5FFF77F
:101B9000E3FF08BD0A884B889A4207D28A8893429D
:101BA00006D2CB889A4205D30020704700207047A8
:101BB000002070470120704770B584B041F2C40323
:101BC000C358002B4DD00D46044613F81120FF2AB0
:101BD0000CD100F584501C3031B10021FFF7BCFF5F
:101BE0000026304604B070BD0121F7E700236946A6
:101BF00005F027FD50B104F584501C3025B10021BB
:101C0000FFF7AAFF0026ECE70121F9E79DF808306D
:101C100013F0020F0AD104F584501C3025B10021C5
:101C2000FFF79AFF0126DCE70121F9E704F5845468
:101C30001C3469462046FFF7ADFF064640B92DB17A
:101C400000212046FFF788FF0126CAE70121F8E7B7
:101C50002DB9012269462046FFF783FDC1E7002226
:101C6000F8E70026BDE770B5054600F581561C363D
:101C7000304606F02FFD400017F0FAF941F2C40398
:101C8000E85098B10024304606F024FD84420DDA75
:101C900041F2C403EA58FF2102F81410EB5803EB99
:101CA000440300225A700134E4B2ECE7284605F000
:101CB0007DFC0646A0BB41F2C403E95809B328469F
:101CC000FFF7ACFA064605F581541C342146284638
:101CD00005F031FDB8B121462846FFF751FA002141
:101CE0002846FFF769FF41F25403E95C2846FFF7F5
:101CF00063FF05F581501C30FFF785FC5EB30020C3
:101D000070BD0026DFE705F581501C30FFF7CAFBE8
:101D100041F25404295D2846FFF7E7F92855DEE72C
:101D200005F581541C342046FFF7BCFB012105F565
:101D300084501C30FFF710FF01212846FFF73CFFBD
:101D40002046FFF760FC012E07D0022E01D00020B4
:101D5000D6E70320D4E70120D2E70220D0E738B548
:101D600004460D46FFF728FF00B938BD41F2540381
:101D7000E5542046FFF759FCF7E72DE9F04184B020
:101D800004460F461D461388ADF800305388ADF861
:101D900002309388ADF80430D388ADF806308DF862
:101DA00008509DF928308DF80E3041F2C403C35815
:101DB0004E0033445D7000F581501C3006F08CFC01
:101DC00038B18046694604F584501C30FFF7E2FEC6
:101DD00030B904F58650FFF72BF904B0BDE8F08167
:101DE000052241460DF1090017F0D2FA002269469A
:101DF000204605F0D0FDB0F10008EADB04F586507E
:101E0000FFF7EEF841F2C403E25802F81780E358F6
:101E10001E447570E1E790F82101704790F82501A4
:101E200070477047704770477047704770477047FA
:101E300070477047704770477047704770477047EA
:101E40007047000038B50A4B1B783BB100204FF0BB
:101E50008043586303F58033186438BD0446044D4D
:101E60001422291D03480DF0B1FF2C700120F4E766
:101E700098020020E48E002008B5084615F0BCFA50
:101E800008BD08B5084615F0ADFA08BD08B5084606
:101E900015F09EFA08BD08B515F090FA08BD08B512
:101EA00015F082FA08BD0000014B93F82C00704732
:101EB0009802002038B50DF0A9FE00F596751C4B70
:101EC0005B6A9BB29C1CA4B2632C02D9A3F161048F
:101ED000A4B20DF09BFEA84207D2154B5B6AA34249
:101EE000F7D14FF0804300225A620DF08FFE00F5CB
:101EF00096750F4B5B6A9BB29C1CA4B2632C02D9F3
:101F0000A3F16104A4B20DF081FEA84208D2084BEF
:101F10005B6AA342F7D14FF08043586A80B205E074
:101F20004FF08043D86A80B2013080B238BD00BF24
:101F30000000014030B585B0214C01210291019192
:101F400000910B460022204605F0C1F9A4F6C824F2
:101F500000224FF6FF71204602F090FA3B21204606
:101F600002F010FE8023174943F2B4228B54164A24
:101F70005363022507E0124805F035F9D0B913483C
:101F800002F032FA90B90F4A43F64853D45AE4B2F9
:101F9000A542F0D000230093B4FA84F35B096422D5
:101FA0003E210B4803F0CCFD2546E4E705200DF06B
:101FB00033FEE8E7B4FA84F0400905B030BD00BF55
:101FC000B87500208C38002000040040406B0020D1
:101FD000F06A00202DE9F04186B0044600F549552D
:101FE0002435284602F056F904F56D50203006F0ED
:101FF0005BFA04F57550383005F0A2FE4FF400721C
:10200000344904F57350203005F0E1F84FF4804274
:10201000314904F574502C3005F0D9F82046FFF70B
:1020200022FE804601283BD90021284602F0F6F91D
:10203000204605F007FA04F581561C366D4601224C
:1020400031462846FFF76CFB294604F56D502430D5
:102050000CF0C3FD03AF002231463846FFF760FBAA
:1020600097E8070085E80700294604F575503C30DD
:102070000CF0B3FDB37EC3F3400143F6F862A15404
:10208000C3F3001104F5735282F85E10C3F34013DA
:1020900004F5745484F86A30404606B0BDE8F08117
:1020A00004F58656083604F54B51083130460CF0DD
:1020B00035FB04F581501C30FFF720FA014630460D
:1020C0000CF07BFD42F29413F158284602F0A6F979
:1020D000AEE700BF00000240000802402DE9F843CF
:1020E0007148FFF777FF8046704C0C2120460FF0B7
:1020F00043FF082120460FF09FFE6D4C0021204633
:102100000FF03AFF042120460FF036FF0821204649
:102110000FF092FE0C2120460FF08EFE0C21654838
:102120000FF02AFF644D05F1300605F17C0905F139
:10213000FC0433464A463146204609F0EBFB05F5E0
:10214000AA7733463A462146484609F0E3FB334630
:1021500022462146384609F0DDFB23462246214629
:1021600005F5BE7009F0D6FB05F5EC77234622464F
:10217000394605F5027009F0CDFB2346224621467B
:10218000384609F0C7FB23462246214605F5107064
:1021900009F0C0FB05F51B79234622462146484637
:1021A00009F0B8FB23463246314605F52A7009F09E
:1021B000B1FB05F53577234622462146384609F01E
:1021C000A9FB23462246314605F5417009F0A2FBE2
:1021D00023462246314605F54E7009F09BFB234607
:1021E00022462146304609F095FB05F55D763346DB
:1021F0002246214605F56B7009F08CFB23462246EA
:102200002146304609F086FB2346224649462B48A4
:1022100009F080FB3B463A46214605F5747009F00B
:1022200079FB00224FF6FF71254802F027F9B8F13B
:10223000020F1ED0B8F1030F24D0B8F1010F13D054
:10224000FFF738FE4FF47A700DF0E6FC164B41F2C2
:102250005702995C43F2B42299541A4B18680368E8
:102260001B689847BDE8F883164B04F158021A60C2
:10227000E6E7154C00223B2120460BF02BF9114BD1
:102280001C60DDE7FFF756FE0028D9D0064805F0B0
:10229000E9F80028D4D10C4C00223F2120460BF055
:1022A00019F9084B1C60CBE78C3800208C8F00207C
:1022B0002C900020548E002098020020C40600209C
:1022C000F06A0020040000200405002038B5354CD9
:1022D000204606F0BFF804F5067005F0CBFC324B43
:1022E000186809F01BFB20B104462F4B1B68834282
:1022F0002AD12D4D286803685B68984704462B68EF
:10230000834215D0002833D0264D0021284605F001
:102310008DFF002105F5067005F087FD4FF0804325
:1023200000225A63204B1C6023681B682046984794
:102330000DF06CFC1D4BD3F8243498421AD21C4883
:1023400002F052F848BB38BD1A4D2846FEF752FE3F
:102350000021A5F5667005F069FF4FF0804300226B
:102360005A63114B1C6023681B6820469847EAE7B4
:10237000114CC9E7114A536A0C4CD4F828145B1A63
:1023800018BF012384F82C30536AC4F828340DF0A8
:102390003DFC2930C4F82404D1E705200DF03CFCB5
:1023A000D1E700BFEC730020040000209802002059
:1023B000406B0020847700200405002000000140CD
:1023C00008B50368144A934203D0B3F1804F0DD08F
:1023D00008BD027F042AF8D1104805F0DDFD632214
:1023E00000210DF0A5FB0C4B1864F1E7037F042BD3
:1023F00005D0082BECD10220FFF724FDE8E74FF0D1
:1024000080435B6B23B94FF080439B6B002BDFD085
:102410000120FFF717FDDBE70000014004760020F4
:102420000268594B9A4200D0704710B586B05748A1
:102430000DF07EFD564B1B78DBB2022B09D0544BBE
:102440001B78DBB2012B66D0514B00221A7006B00C
:1024500010BD0023019302930393132B18D8991CEA
:102460004B4A02EB41018888019901440191D91C32
:1024700002EB41018888029901440291191D02EB87
:1024800041029188039A0A4403920533DBB2E4E7E0
:10249000019B02330193019B9B080193029B023332
:1024A0000293029B9B080293039B02330393039BBB
:1024B0009B080393039937480CF0CFFF364A1379F2
:1024C000013BDBB2137103BB134606221A710124D0
:1024D000324A41F25603D35C13F0400F03D143F666
:1024E0008143D35C9BB101992D4806F013F84FF45A
:1024F000F56221460DF01CFB4FF0804358630299B2
:1025000089B2284805F05DFC9EE70024E0E74FF023
:1025100080435C63F3E70023049305930FE01C4AB8
:1025200002EB43018888049901440491591C02EB91
:1025300041029188059A0A4405920533DBB2132BB8
:10254000EDD9049B02330493049B9B080493059BE1
:1025500002330593059B9B0805934FF080435B6B0B
:102560005BB94FF080439B6B002B3FF46DAF059937
:1025700089B20D480DF013F866E7049989B20B484B
:102580000DF00DF8EDE700BF00200140E48E0020C3
:1025900098020020FC740020040000208C380020E9
:1025A000EC730020047600202077002004750020C2
:1025B0007047000008B5064B5B6913F0010F00D1AE
:1025C00008BD044804F096FE014B01225A61F7E76A
:1025D000003C01406C75002008B5064B5B6913F0A8
:1025E000020F00D108BD044804F084FE014B022212
:1025F0005A61F7E7003C0140B875002038B50C4639
:102600001546AC4204D254F8040B15F02DFFF8E740
:1026100038BD10B5044603683BB1426A04324169D3
:10262000FFF7ECFF206815F01FFF204610BD2DE9D5
:10263000F04188461746CE6804360BE01834A542B0
:1026400007D0234653F8080B8342F7D015F00CFF50
:10265000F4E70436FB68B34203D9346804F5FC752B
:10266000EDE7D8F80C2093421DD0D8F80040D8F8F8
:10267000085000E01834A54207D0234653F8080B51
:102680009842F7D015F0F0FEF4E77C683D6800E072
:102690001834A54216D0234653F8080B9842F7D0B9
:1026A00015F0E2FEF4E7D8F800403D6800E0183489
:1026B000A54207D0234653F8080B9842F7D015F0EF
:1026C000D3FEF4E7BDE8F0812DE9F043C1B0064642
:1026D00043F26423C518954AC25000F56D5014F0BA
:1026E0004AFF05F6D80013F034FE05F6D40013F0C7
:1026F00030FE05F50D6013F02CFE05F1640468351D
:102700000CD004F65404A54208D01C3C606804F1C7
:102710000C039842F7D015F0A7FEF4E743F2E81354
:10272000F518834AF25005F14404D5F84C80CDF8F1
:102730003080D5F850E0CDF834E0D5F854C0CDF86D
:1027400038C0AF6D0F97E86D0890296E09916A6ED9
:102750000A92AB6E0B93CDF85080CDF854E0CDF8D3
:1027600058C01797109011911292139310AA14A9A0
:102770002046FFF75CFF2046FFF74BFF05F11C04E6
:10278000D5F82480CDF81080D5F828E0CDF814E0F5
:10279000D5F82CC0CDF818C02F6B0797686B009048
:1027A000A96B0191EA6B02922B6C0393CDF87080B8
:1027B000CDF874E0CDF878C01F97189019911A924F
:1027C0001B9318AA1CA92046FFF731FF2046FFF7EC
:1027D00020FF68680C35A84201D015F045FE06F5CB
:1027E000865808F1080842F2600908EB0905514BC8
:1027F00048F80930D5F8B440D5F8B87007E023465A
:1028000053F8080B984201D015F02EFE4834A74229
:102810000ED0206B04F13803984201D015F024FE4D
:10282000A06904F120039842E9D015F01DFEE6E707
:10283000D5F8B40008B115F017FE05F16C04206B53
:1028400005F1A403984201D015F00EFEA06904F131
:102850002003984201D015F007FEE86E0834A0422C
:1028600001D015F001FE324B48F8093005F144045F
:10287000D5F84C80CDF8B080D5F850E0CDF8B4E074
:10288000D5F854C0CDF8B8C0AF6D2F97E86D28903B
:10289000296E29916A6E2A92AB6E2B93CDF8D08067
:1028A000CDF8D4E0CDF8D8C037973090319132923E
:1028B000339330AA34A92046FFF7B9FE2046FFF72C
:1028C000A8FE05F11C04D5F82480CDF89080D5F839
:1028D00028E0CDF894E0D5F82CC0CDF898C02F6B47
:1028E0002797686B2090A96B2191EA6B22922B6C41
:1028F0002393CDF8F080CDF8F4E0CDF8F8C03F9701
:10290000389039913A923B9338AA3CA92046FFF778
:102910008EFE2046FFF77DFE68680C35A84201D088
:1029200015F0A2FD304641B0BDE8F083109A0108D1
:1029300020A3010854A301082DE9F043A1B00646E5
:10294000514B036043F2B017C319C4595D6800E0EE
:102950001834A54207D0234653F8080B9842F7D005
:1029600015F082FDF4E7F05908B115F07DFD43F252
:102970009813F05806F546532033984201D015F0CD
:1029800073FD06F1240943F2A00809EB08043F4B4C
:1029900049F80830D4F8B450D4F8B87007E02B46A2
:1029A00053F8080B984201D015F05EFD4835AF4250
:1029B0000ED0286B05F13803984201D015F054FD74
:1029C000A86905F120039842E9D015F04DFDE6E72E
:1029D000D4F8B40008B115F047FD04F16C05286B7C
:1029E00004F1A403984201D015F03EFDA86905F159
:1029F0002003984201D015F037FDE06E0835A8425B
:102A000001D015F031FD224B49F8083004F144059E
:102A1000E76C206D616DA26DE36D149715901691B2
:102A200017921093236E1193636E1293A36E1393F8
:102A300010AA14A92846FFF7FAFD2846FFF7E9FD7A
:102A400004F11C05676AA06AE16A226B636B1C973C
:102A50001D901E911F921893A36B1993E36B1A9309
:102A6000236C1B9318AA1CA92846FFF7E0FD2846F3
:102A7000FFF7CFFD60680C34A04201D015F0F4FCE4
:102A8000304621B0BDE8F083E8A3010854A3010853
:102A900020A3010870B582B005460E4671B1941BA3
:102AA00001940F2C0FD82868012C15D0BCB9019BBC
:102AB0006B602A680021D15402B070BD9142EED003
:102AC000094815F0AAFE002201A9284615F0FCFCD1
:102AD0002860019BAB60E6E733780370E7E72246A6
:102AE000314616F0E4FAE2E710A9010838B50C46C1
:102AF0001546AC4206D24FF4FC7015F0A4FC44F825
:102B0000040BF6E738BD00002DE9F04383B004461E
:102B10000D46274BA3FB0123CA1A03EB52031B09E3
:102B20005E1C082200920333019393423BD901AB10
:102B300018686060B0F1804F37D2800015F083FCD8
:102B4000804620606768BF1B7F0800EB870909EBA0
:102B50008606324649462046FFF7C8FFC4F814905F
:102B600058F82730E36003F5FC722261321F62627D
:102B700056F8042CE26102F5FC712162A3600C4B53
:102B8000A3FB0513E91A03EB51031B0903EB4303F2
:102B9000C3EBC303EB1A03EB4303D9000A44A2615E
:102BA00003B0BDE8F0836B46C2E715F033FE00BF0B
:102BB000876118862DE9F04F83B00646002441F264
:102BC0002803C45441F22A034FF48052C25241F206
:102BD0002C03C84AC25041F23003C74AC25041F2E6
:102BE0003403C64AC25041F23803C54AC25000F508
:102BF0008452C44B03CB1063516303CB9063D16306
:102C000006F58650FEF7D6F941F2C403F45006F5F6
:102C10008657083742F2600807EB0805DFF844934F
:102C200047F8089005F10C036B60AC602C73EC6105
:102C30002C626C62AC62EC622C636C63AC63EC6320
:102C40002C64214605F11C00FFF75EFF6C64AC6448
:102C5000EC642C656C65AC65EC652C666C66AC66EA
:102C6000214605F14400FFF74FFFA74B47F8083016
:102C700042F2CC02BB1803F10801B9505C6042F289
:102C8000D403FC5442F2E402BB1803F10801B9502A
:102C90005C6042F2EC03FC5442F2FC02BB1803F10C
:102CA0000801B9505C6042F20413FC5442F2141261
:102CB000BB18BC505C609C6042F2201807EB080512
:102CC00047F8089005F10C036B60AC602C73EC6165
:102CD0002C626C62AC62EC622C636C63AC63EC6380
:102CE0002C64214605F11C00FFF70EFF6C64AC64F8
:102CF000EC642C656C65AC65EC652C666C66AC664A
:102D0000214605F14400FFF7FFFE804B47F80830ED
:102D1000EC6642F29013FC5442F29413FC5042F2DF
:102D200098137B4AFA5043F26427F519281D15F0D1
:102D3000ABF885F85040A5F85440AC65EC65A5F8B3
:102D4000604085F8624005F1640385F86440714A8B
:102D50005A6005F174029A60DC601C746E4A1A6253
:102D600005F190025A629C6283F82C406B4ADA6348
:102D700005F1AC021A645C6483F84840684A9A65BD
:102D800005F1C801D9651C6683F864406549596737
:102D900005F1E4019967DC6783F880406249C3F874
:102DA000901005F58071C3F89410C3F8984083F82B
:102DB0009C405E49C3F8AC1005F58E71C3F8B010A5
:102DC000C3F8B44083F8B8405949C3F8C81005F5B2
:102DD0009C71C3F8CC10C3F8D04083F8D440554957
:102DE000C3F8E41005F5AA71C3F8E810C3F8EC4085
:102DF00083F8F0405049C3F8001105F5B871C3F8E5
:102E00000411C3F8084183F80C414C49C3F81C1164
:102E100005F5C671C3F82011C3F8244183F8284191
:102E20004749C3F8381105F5D470C3F83C01C3F81D
:102E3000404183F844414348C3F8540105F5E2702A
:102E4000C3F85801C3F85C4183F860413E48C3F8B9
:102E5000700105F5F070C3F87401C3F8784183F888
:102E60007C413A48C3F88C0105F5FE70C3F8900127
:102E7000C3F8944183F898413548C3F8A80105F593
:102E80000670C3F8AC01C3F8B04183F8B4413148CF
:102E9000C3F8C40105F50D70C3F8C801C3F8CC41EF
:102EA00083F8D0412C48C3F8E00105F51470C3F84D
:102EB000E401C3F8E84183F8EC41C3F8FC2105F5CF
:102EC0001B72C3F80022C3F8044283F80842234A65
:102ED000C3F8182205F52272C3F81C22C3F8204259
:102EE00083F824421E4AC3F8342205F52972C3F838
:102EF000382239E090A501089CA50108A8A5010881
:102F0000B4A50108E899010854A30108ECA201083E
:102F100020A50108C0A50108CCA50108D8A5010875
:102F2000E4A50108F0A5010800A6010810A6010803
:102F30001CA6010828A6010838A6010848A6010811
:102F400050A6010858A6010864A601086CA601084D
:102F500074A6010884A6010890A601089CA6010891
:102F6000A8A6010820A30108C3F83C4283F8404208
:102F7000E94AC3F8502205F53072C3F85422C3F869
:102F8000584283F85C42E54AC3F86C2205F5377273
:102F9000C3F87022C3F8744283F87842E04AC3F859
:102FA000882205F53E72C3F88C22C3F8904283F85C
:102FB0009442DC4AC3F8A42205F54572C3F8A8225E
:102FC000C3F8AC4283F8B042D74AC3F8C02205F533
:102FD0004C72C3F8C422C3F8C84283F8CC42D34A27
:102FE000C3F8DC2205F55372C3F8E022C3F8E442CB
:102FF00083F8E842CE4AC3F8F82205F55A72C3F8BE
:10300000FC22C3F8004383F80443CA4AC3F81423DC
:1030100005F56172C3F81823C3F81C4383F82043F5
:10302000C54AC3F8302305F56872C3F83423C3F8E2
:10303000384383F83C43C14AC3F84C2305F56F720B
:10304000C3F85023C3F8544383F85843BC4AC3F829
:10305000682305F57672C3F86C23C3F8704383F8D0
:103060007443B84AC3F8842305F57D72C3F88823F6
:10307000C3F88C4383F89043B34AC3F8A02305F503
:103080008262C3F8A423C3F8A84383F8AC43AF4AD1
:10309000C3F8BC2305F22C42C3F8C023C3F8C443D1
:1030A00083F8C843AA4AC3F8D82305F58960C3F852
:1030B000DC03C3F8E04383F8E443C3F8F41305F2F8
:1030C0006441C3F8F813C3F8FC4383F80044A149F2
:1030D000C3F8101405F59061C3F81414C3F818442C
:1030E00083F81C449C49C3F82C1405F29C41C3F896
:1030F0003014C3F8344483F838449849C3F848146A
:1031000005F59761C3F84C14C3F8504483F8544450
:103110009349C3F8641405F2D441C3F86814C3F8A2
:103120006C4483F87044C3F8802405F59E62C3F8AC
:103130008424C3F8884483F88C448A4AC3F89C24C6
:1031400005F20C52C3F8A024C3F8A44483F8A844A1
:10315000854AC3F8B82405F5A562C3F8BC24C3F8B2
:10316000C04483F8C444814AC3F8D42405F24452CD
:10317000C3F8D824C3F8DC4483F8E0447C4AC3F89D
:10318000F02405F5AC62C3F8F424C3F8F84483F8DE
:10319000FC44784AC3F80C2505F27C52C3F810258C
:1031A000C3F8144583F81845734AC3F8282505F574
:1031B000B362C3F82C25C3F8304583F834456F4A11
:1031C000C3F8442505F2B452C3F84825C3F84C456A
:1031D00083F850456A4AC3F8602505F5BA62C3F81A
:1031E0006425C3F8684583F86C45664AC3F87C25B6
:1031F00005F2EC52C3F88025C3F8844583F888456E
:10320000614AC3F8982505F5C162C3F89C25C3F847
:10321000A04583F8A4455D4AC3F8B42505F22462AD
:10322000C3F8B825C3F8BC4583F8C045584AC3F86D
:10323000D02505F5C862C3F8D425C3F8D84583F86E
:10324000DC45544AC3F8EC2505F25C62C3F8F0256E
:10325000C3F8F44583F8F8454F4AC3F8082605F546
:10326000CF62C3F80C26C3F8104683F814464B4AC5
:10327000C3F8242605F29462C3F82826C3F82C4626
:1032800083F83046464AC3F8402605F5D662C3F8AF
:103290004426C3F8484683F84C46424AC3F85C26A5
:1032A00005F2CC62C3F86026C3F8644683F868462A
:1032B0003D4AC3F8782605F5DD62C3F87C26C3F8DD
:1032C000804683F88446394AC3F8942605F204728E
:1032D000C3F89826C3F89C4683F8A046344AC3F83E
:1032E000B02605F5E462C3F8B426C3F8B84683F8FF
:1032F000BC46304AC3F8CC2605F23C72C3F8D0264F
:10330000C3F8D44683F8D8462B4AC3F8E82605F517
:10331000EB62C3F8EC2651E0B4A60108C0A6010890
:10332000D0A60108E0A60108ECA60108F8A601084D
:1033300000A7010808A7010814A7010820A7010891
:103340002CA701083CA7010848A7010854A70108B9
:103350005CA7010864A7010870A701087CA7010801
:1033600088A7010898A70108A0A70108A4A7010839
:10337000A8A70108B0A70108B8A70108C0A70108BD
:10338000C8A70108D0A70108D8A70108DCA7010831
:10339000E0A70108E4A70108E8A70108F0A70108D1
:1033A000F8A7010804A8010810A8010824A801082A
:1033B00038A8010848A8010858A80108C3F8F04631
:1033C00083F8F446E94AC3F8042705F27472C3F897
:1033D0000827C3F80C4783F81047E54AC3F82027AD
:1033E00005F5F262C3F82427C3F8284783F82C4771
:1033F000E04AC3F83C2705F2AC72C3F84027C3F893
:10340000444783F84847DC4AC3F8582705F5F96272
:10341000C3F85C27C3F8604783F86447D74AC3F80A
:10342000742705F2E472C3F87827C3F87C4783F861
:103430008047D34AC3F8902705F50062C3F8942764
:10344000C3F8984783F89C47CE4AC3F8AC2705F6E3
:103450001C02C3F8B027C3F8B44783F8B847CA4A78
:10346000C3F8C82705F63802C3F8CC27C3F8D047FD
:1034700083F8D447C54AC3F8E42703F5FE62C3F8CE
:10348000E827C3F8EC4783F8F047C14AC3F800289F
:1034900003F60C02C3F80428C3F8084883F80C4864
:1034A000BC4AC3F81C2803F62802C3F82028C3F836
:1034B000244883F82848B84AC3F8382803F6440259
:1034C000C3F83C28C3F8404883F84448B34A92E81C
:1034D0000300C3F8540883F85818B14BF351D5F8DA
:1034E000F838C5F8C038A5F8C4484FF6FF73A5F8FA
:1034F000C6384FF47842A5F8C8281F22A5F8CA2874
:103500004FF6E072A5F8CC2885F8CE48C5F8D0482B
:10351000C5F8D448C5F8D848C5F8DC4885F8E0387F
:10352000C823A5F8E2386E23A5F8E4385A23A5F895
:10353000E6384FF03C03A5F8E8389623A5F8EA38BA
:103540002023A5F8EC38D723A5F8EE38954BC5F81D
:10355000F038954BC5F8F438C5F8F83843F66031C3
:1035600073184FF0140BC3F804B01C815C81DC604D
:103570000A271F615F619C614FF00B029A838B4A9F
:1035800092F8009083F8624083F8604083F861907D
:1035900083F8A64083F8A44083F8A59083F8EA4016
:1035A00083F8E84083F8E990A3F8EC40A3F8EE40F4
:1035B000A3F8F040A3F8F24083F8F440C3F8F840D1
:1035C00083F8FC4083F8FD40A3F8FE40A3F80041D7
:1035D000A3F80241C3F80441082583F80851C3F851
:1035E0000C4183F80851C3F80C4183F81051C3F81B
:1035F000144183F81051C3F8144183F81851C3F8EB
:103600001C4183F81851C3F81C4183F8204183F80A
:1036100021414FF4C87AA3F822A14FF4FA78A3F815
:10362000248183F82851C3F82C4183F82851C3F82A
:103630002C4183F8304183F83141A3F832A1A3F83B
:10364000348183F8387183F83951A3F83A814FF403
:103650007A7CA3F83CC1032283F83E210E2283F832
:103660003F2183F840B1052283F841214FF0020049
:1036700083F842016422C3F8442140F63C70A3F869
:1036800048014B487050A3F84A41A3F84C41A3F8B5
:103690004E41A3F8504183F8524183F85341A3F8B7
:1036A000544183F85851C3F85C4183F85851C3F82A
:1036B0005C4183F86051C3F8644183F86051C3F8FA
:1036C000644183F86851C3F86C4183F86851C3F8CA
:1036D0006C4183F87051C3F8744183F87051C3F89A
:1036E000744140F2CF70A3F87801A3F87AC183F84F
:1036F0007CB1A3F87E21012300932E4B4FF48072FE
:103700002D4906F57350203003F01EFD022300936F
:10371000284B4FF40042294906F574502C3003F031
:1037200013FD43F67852B318C3F804B01C815C81D2
:10373000DC601F615F619C614FF00B01998383F82E
:10374000624083F8604083F8619083F8A64083F874
:10375000A44083F8A59083F8EA4083F8E84083F812
:10376000E990A3F8EC40A3F8EE4029E070A8010826
:1037700088A8010890A8010898A801089CA8010839
:10378000A0A80108B0A80108BCA80108CCA801089D
:10379000DCA80108F0A80108FCA80108F8990108B4
:1037A000109A010834AA010860B2010834A5010882
:1037B000ACA20108000402400000024000080240E0
:1037C000A3F8F040A3F8F24083F8F440C3F8F840BF
:1037D00083F8FC4083F8FD40A3F8FE40A3F80041C5
:1037E000A3F8024183F80441C3F8084183F80C515F
:1037F000C3F8104183F80C51C3F8104183F8144109
:1038000083F81541A3F816A1A3F8188183F81C5179
:10381000C3F8204183F81C51C3F8204183F82441A8
:1038200083F82541A3F826A1A3F82881A3F82C81C9
:103830004FF47A7CA3F82EC11E2183F830114FF08B
:103840003C0183F8311183F832710121C3F834113E
:103850002F49B15083F8384183F8394183F83A4110
:10386000A3F83C41A3F83E41C3F84041294A1278ED
:1038700083F84451C3F8484183F84421C3F84841D0
:1038800083F84C51C3F8504183F84C21C3F85041A0
:1038900083F85451C3F8584183F85451C3F8584140
:1038A00083F85C51C3F8604183F85C51C3F8604110
:1038B00083F86451C3F8684183F86451C3F86841E0
:1038C000A3F86C41462283F86E21632283F86F21AE
:1038D0004FF41672A3F8702140F2CF70A3F8720172
:1038E0004FF4C862A3F874214FF44872A3F876210C
:1038F0004FF03C02A3F87821074AC3F87C2106F573
:103900007B503830FDF756FB304603B0BDE8F08FF2
:103910006CA2010833A50108E0930400012800D03F
:1039200070474FF6FF739942FAD12DE9F04F89B0F5
:10393000F14E3046FFF73EF9DFF820844246EF496A
:10394000304614F0B0FDEE4C012784F800710025DC
:10395000A4F80851C4F80C51C4F81051C4F814511B
:10396000C4F81851C4F81C51C4F80461E54BC4F8FC
:10397000FC3094F84E31082284F82021C4F82451F8
:1039800084F82031C4F82451C4F82851C4F82C51CB
:10399000C4F83051C4F83451A4F83851A4F83A515D
:1039A000A4F83C5184F83E5184F83F7184F840718A
:1039B00084F84151C4F84451C4F848514FF4FA73A3
:1039C000A4F84C31052384F84E3140F6B83BA4F8F6
:1039D00050B140F2DC59A4F852914246CA4904F170
:1039E000FC0014F060FD84F88070A4F88850C4F8DE
:1039F0008C50C4F89050C4F89450C4F89850C4F84F
:103A00009C50C4F88460C14BE367C4F8F45084F858
:103A1000F8504246BE4904F17C0014F044FD84F89D
:103A20005871A4F86051C4F86451C4F86851C4F8DE
:103A30006C51C4F87051C4F87451C4F85C61B54B52
:103A4000C4F85431FF2384F878314246B24904F572
:103A5000AA7014F028FD84F88071A4F88851C4F885
:103A60008C51C4F89051C4F89451C4F89851C4F8DA
:103A70009C51C4F88461A94BC4F87C3184F8A051EE
:103A8000A4F8C25184F8C4514FF0030AA4F8C6A1A7
:103A9000C4F8C851C4F8CC5184F8D0514FF416730F
:103AA000A4F8D231C4F8D4B142469D4904F5BE70A1
:103AB00014F0F9FC84F80C72A4F81452C4F81852EB
:103AC000C4F81C52C4F82052C4F82452C4F8285236
:103AD000C4F81062934BC4F8083284F82C5284F86E
:103AE000365284F83752C4F838520423A4F83C32D2
:103AF000A4F83E9204F5027942468B49484614F0F8
:103B0000D2FC04F5EC7B4B46A9F18C0231465846B9
:103B100008F0D0F942468549584614F0C4FC84F8B0
:103B20004472A4F84C52C4F85052C4F85452C4F829
:103B30005852C4F85C52C4F86052C4F848627C4BD6
:103B4000C4F84032A4F8645284F8667284F867526C
:103B5000C4F868524246774904F5107014F0A3FC8B
:103B600084F87072A4F87852C4F87C52C4F8805279
:103B7000C4F88452C4F88852C4F88C52C4F87462F1
:103B80006D4BC4F86C32C4F89052C4F89452C4F827
:103B90009852C4F89C52C4F8A0524C2384F8A43222
:103BA0004246664904F51B7014F07DFC84F8AC7243
:103BB000A4F8B452C4F8B852C4F8BC52C4F8C05205
:103BC000C4F8C452C4F8C852C4F8B0625C4BC4F81C
:103BD000A83284F8CC52A4F8CE5284F8D05284F89B
:103BE000D1524246574904F52A7014F05CFC84F81F
:103BF000D872A4F8E052C4F8E452C4F8E852C4F809
:103C0000EC52C4F8F052C4F8F452C4F8DC624E4BE3
:103C1000C4F8D432C4F8F85284F8FC5284F8FD5247
:103C200084F8FE5284F8FF5284F80053A4F802A3EB
:103C300004F5357B42464549584614F034FC84F877
:103C4000D473A4F8DC53C4F8E053C4F8E453C4F8C4
:103C5000E853C4F8EC53C4F8F053C4F8D8633C4BB1
:103C6000C4F8D0330623A4F8F43341F28832C4F800
:103C7000F82384F8FC53C4F80054C4F80454C4F87E
:103C80000854A4F80C54A4F80E54A4F81054A4F842
:103C90001254A4F81454FA22A4F8162484F81854E0
:103CA000A4F81A54A4F81C344FF4FA63C4F820346E
:103CB0004246284904F5747014F0F5FB04F5417A86
:103CC000CDF800B004F510734A463146504608F06E
:103CD00007F942462049504614F0E5FB84F8B073DA
:103CE000A4F8B853C4F8BC53C4F8C053C4F8C453C0
:103CF000C4F8C85334E000BF8C380020C92600083F
:103D00009802002000A40108231E000818A401083E
:103D1000251E000830A40108271E000878A4010809
:103D2000291E000890A401082B1E00082D1E000863
:103D3000A8A401082F1E0008F0A40108311E0008E5
:103D400060A40108331E0008C0A40108351E000845
:103D5000D8A40108371E0008391E00080000002002
:103D6000C4F8CC53C4F8B463A24BC4F8AC33424695
:103D7000A14904F56B7014F096FBA04C2771A58146
:103D800025616561A561E5612562A6609C4B2360A4
:103D90006562258543F2C4069A4BA3519A4B43F2C0
:103DA000C802A35043F2CC02A5501D7003F11000CD
:103DB000056043F2E403E55043F2E803E55043F2C3
:103DC000EC03E55043F2F003E55043F2F403E55011
:103DD00043F2F803E55043F2FC03E55004F5445385
:103DE0001D6043F20413E5502946FEF78DFE874817
:103DF000056043F20C13E55043F21013E55043F213
:103E00001413E55043F21813E55043F21C13E55028
:103E100043F22013E55043F22413E55043F22813F4
:103E2000E55043F22C13E5502946FEF76DFE784B22
:103E3000A351784B43F23012A35043F23412A550F1
:103E40001D70183343F24812A35043F24C12A55090
:103E50001D70183343F26012A35043F26412A55050
:103E60001D7043F27813E55043F27C13E55004F5DE
:103E700046531D6043F28413E55043F28813664AAB
:103E8000E25043F28C13E618644A92E80300E050D3
:103E9000B18043F29413E55443F29613E55243F292
:103EA000981306F11402E2505D494FF000030A46F0
:103EB000013906F10C00FEF7EDFD264643F2B01382
:103EC000E55043F2B413E55043F2B813E55043F222
:103ED000BC13FF22E25443F2BD13E55443F2BE1378
:103EE0004C22E25443F2C4134EF66022E25004F531
:103EF0004753A9F5027404F51B721A6047464246FF
:103F00004849304614F0CFFADFF82C8104F55D798A
:103F100032464146484609F0EBFA3A46424948469D
:103F200014F0C1FA012384F83C33A4F84453C4F8D4
:103F30004853C4F84C53C4F85053C4F85453C4F80D
:103F40005853C4F84083394AC4F8382384F85C5382
:103F5000A4F85E5384F8605384F8613384F86233C4
:103F600084F8635384F8645384F8653384F86633C3
:103F700084F8675384F86853802384F8693384F89D
:103F80006A5384F86B5384F86C5384F86D53082398
:103F900084F86E330C2384F86F337823A4F87033DD
:103FA00004F54E763A462249304614F07CFA04F184
:103FB000300504F56B730693CDF814A0CDF810B05E
:103FC00004F51073039304F5AA73029304F5EC73DC
:103FD0000193009604F17C0304F52A7241462846B9
:103FE00007F042FF3A461349284614F05CFA09B03C
:103FF000BDE8F08F08A501083B1E0008C40600209C
:10400000E8A3010820A3010894370020CC37002042
:1040100054A30108FC37002020A50108009A0108DC
:104020003DA90108392900083D1E000848A40108DF
:104030003F1E0008411E00088C38002010B50446C1
:10404000582114F035FA204610BD10B504468021E1
:1040500014F02EFA204610BD10B50446282114F0A5
:1040600027FA204610BD10B504465C2114F020FA52
:10407000204610BD10B50446382114F019FA204628
:1040800010BD10B50446302114F012FA204610BDC0
:1040900010B504462C2114F00BFA204610BD10B5C3
:1040A00004463C2114F004FA204610BD10B5044625
:1040B0002C2114F0FDF9204610BD10B50446302126
:1040C00014F0F6F9204610BD10B50446542114F042
:1040D000EFF9204610BD10B50446342114F0E8F97C
:1040E000204610BD10B50446242114F0E1F9204605
:1040F00010BD00002DE9F043A1B00646544B03600B
:1041000043F2B017C319C4595D6800E01834A542E2
:1041100007D0234653F8080B9842F7D014F0A4F9BF
:10412000F4E7F05908B114F09FF943F29813F058EE
:1041300006F546532033984201D014F095F906F164
:10414000240943F2A00809EB0804424B49F808305F
:10415000D4F8B450D4F8B87007E02B4653F8080BE5
:10416000984201D014F080F94835AF420ED0286B48
:1041700005F13803984201D014F076F9A86905F1E9
:1041800020039842E9D014F06FF9E6E7D4F8B400C0
:1041900008B114F069F904F16C05286B04F1A4036B
:1041A000984201D014F060F9A86905F12003984203
:1041B00001D014F059F9E06E0835A84201D014F08E
:1041C00053F9254B49F8083004F14405E76C206D9C
:1041D000616DA26DE36D149715901691179210936F
:1041E000236E1193636E1293A36E139310AA14A9F6
:1041F0002846FEF71CFA2846FEF70BFA04F11C05C8
:10420000676AA06AE16A226B636B1C971D901E911E
:104210001F921893A36B1993E36B1A93236C1B9350
:1042200018AA1CA92846FEF702FA2846FEF7F1F95B
:1042300060680C34A04201D014F016F943F2C811A2
:10424000304614F035F9304621B0BDE8F08300BFA8
:10425000E8A3010854A3010820A3010810B50446EF
:10426000382114F025F9204610BD10B504463C2134
:1042700014F01EF9204610BD10B504464C2114F070
:1042800017F9204610BD08B54FF6FF710120FFF762
:1042900045FB08BDF0B583B00446051DD0F8F01805
:1042A000284613F013FD0221284613F020FD28466E
:1042B00013F0FAFD86B21D49284613F089FD811CD2
:1042C00004F50D67324689B2684612F00FF8694668
:1042D000384612F028F8684612F03BF8D4F8F41883
:1042E000284613F0F3FC1249284613F071FD811C97
:1042F00004F6D805324689B201A811F0F7FF01A9EA
:10430000284612F010F801A812F023F811F050FF1F
:10431000012012F041F9002106480DF02DFE002386
:1043200084F85030044A536303B0F0BD40A901083B
:1043300044A901089C8E00200004004070B5054689
:10434000114B036000F6DC0013F015F905F6D800F8
:1043500011F0FFFF05F6D40011F0FBFF05F50D602D
:1043600011F0F7FF15F168060CD005F6B804A64267
:1043700008D01C3C606804F10C039842F7D014F09C
:1043800073F8F4E7284670BD109A010870B5054629
:10439000144B036000F6DC0013F0EDF805F6D800CE
:1043A00011F0D7FF05F6D40011F0D3FF05F50D602D
:1043B00011F0CFFF15F168060CD005F6B804A6423F
:1043C00008D01C3C606804F10C039842F7D014F04C
:1043D0004BF8F4E740F6FC01284614F069F828464B
:1043E00070BD00BF109A010803780B4A526B9342CC
:1043F00009D8094A526B93420BD2074A536B013BCF
:10440000536301207047044A536B01335363012007
:1044100070470020704700BF0004004070B582B0B4
:10442000044601B3C4F8C018251DD4F8C0182846A6
:1044300013F04CFC284613F037FD86B20E4928468F
:1044400013F0C6FC811C04F6D404324689B201A8DC
:1044500011F04CFF01A9204611F065FF01A811F0F1
:1044600078FF02B070BDD0F8F838C0F8C03800232B
:1044700080F86430D8E700BF40A9010810B50346B2
:10448000064800244463A3F8C618A3F8C428FF21F3
:1044900083F8E018104612F075F910BD00040040D2
:1044A0002DE9F04F85B0044603910293002A7DD197
:1044B000B0F8E858D4F8D438002B7AD01E8806F12A
:1044C00014081FFA88F8D4F8D038002B73D05B8812
:1044D0005FFA83FB06F11707BFB2B4F8C6380322B0
:1044E0002946384612F02EFB1FFA8BF9B4F8C6386D
:1044F0004A462946404612F0FCF906F11A00B4F883
:10450000C6384A46294680B212F0F3F905EB09088D
:104510001FFA88F808F1050A1FFA8AFAB4F8C638B3
:1045200008225146384612F00DFB029B002B44D066
:10453000B4F8C83807225146384612F054FB06F149
:10454000110005F10901B4F8C638009303231A4697
:1045500089B280B212F0F0F81536B6B2691C09F1D2
:10456000FF33B4F8C42800929BB2052289B23046CA
:1045700012F0E2F80A226FF0630103980BF0D8FA08
:1045800007B2002F1CDD80B2291A89B20A314844D3
:1045900083B20A3BB4F8C82800929BB2052289B2C4
:1045A000304612F0C9F805B0BDE8F08FB0F8EA580F
:1045B00080E7002683E700238AE7B4F8C438B9E728
:1045C000ABF10A030093012300226FF06301384628
:1045D0000BF07AFAC3B2A8EB030189B2029A3AB19E
:1045E000B4F8C82800920522304612F0A5F8DAE7A0
:1045F000B4F8C428F6E70000F0B589B004461646C2
:10460000B1F57A7F01D340F2E7310A46284907A87D
:1046100014F084FE251DD4F8F018284613F056FB3C
:104620000221284613F063FB04F50D6011F0A0FE93
:10463000D4F8D038591D7BB31A8800230293019314
:104640000123009307AB284613F0D2FB11F06CFF57
:10465000D4F8D03813B31A88801AC0F34F00323020
:1046600080B2EEB1B4F8EA18B4F8C468B4F8C67809
:10467000D4F8D048BCB16388651DB4B1B4F800C0AB
:1046800005970496002403940294CDF804C0009585
:1046900012F074FC09B0F0BD0022CEE70022DBE787
:1046A000B4F8E818E0E70023E6E74FF0000CE7E78E
:1046B0004CA901082DE9F04784B00446884692468B
:1046C000061DD0F8C018304613F000FB304613F03A
:1046D000EBFB87B24146304613F07AFB8146B4F8D3
:1046E000E228B4F8C43800933B460021084612F093
:1046F00023F8B4F8E21849451ED9A1EB0901C1F32A
:104700004F05B4F8C638009343463A46294630462A
:1047100013F042FBBAF1000F10D011F005FFA0F129
:104720001402B4F8C63892B2B4F8EC180A2012F0A9
:10473000D7F804B0BDE8F0870025E2E705EB0900F3
:1047400080B20A30A7F10E01B4F8C438B4F8C62814
:104750000392029310220192034B00930E2389B21D
:1047600080B212F0A5FBD8E7309A01082DE9F0419C
:104770008AB005460C461746642900D964242D21C9
:1047800005F1640009F0FCFE8046252322462E49EF
:1047900008A814F0C3FD2E1DD5F8C018304613F03C
:1047A00095FA304613F080FB84B22246B5F8E4183F
:1047B00007A811F09BFD079B591D002B37D01A88C5
:1047C000012302930023019300934346304613F0E4
:1047D0000FFB079B591D63B31A88002302930193B3
:1047E0000223009308AB304613F002FB1FB3B5F869
:1047F000C86811F09FFE001B81B2079BF3B11A88B5
:10480000B5F8C4580798D8B14388441DD0B107887B
:10481000059604950020039002900197009412F0F1
:10482000ADFB07A811F095FD0AB0BDE8F0810022AC
:10483000C6E70022D1E7B5F8C668DAE70022DFE76D
:104840000023E2E70027E3E750A901082DE9F0473C
:1048500088B004460F469146061DD0F8C018304671
:1048600013F034FA304613F01FFB1FFA80F8B4F847
:10487000E4A811F05FFEA0EB080085B211F054FE31
:10488000B4F8E428821AB4F8C4380093434692B2CC
:104890002946504611F050FF07F109039BB26C2BDB
:1048A00050D843238DF8143000238DF81530B9F11A
:1048B000000F02D146238DF8143011F035FE054665
:1048C00005A9304613F084FA2D1AADB2A5F11E09E0
:1048D0001FFA89F911F02EFEB4F8C638009305AB23
:1048E00002464946304613F057FA263DADB211F064
:1048F00021FEA0EB080189B20431B4F8C438B4F841
:10490000C6280392029308220192164B00930523B6
:1049100089B2284612F0CCFA3A46134906A814F098
:10492000FDFC06A9304613F053FA2D1AADB211F072
:1049300001FEB4F8C638009306AB0246294630465D
:1049400013F02AFA11F0F0FDA0F11402B4F8C63801
:1049500092B2B4F8EE180A2011F0C2FF08B0BDE818
:10496000F08700BF4C9A010858A901082DE9F043CF
:1049700085B0064608461746642900D96420D6F853
:10498000D038DBB15C88E2B20A210BF0B0F8054602
:10499000B7B9B6F8E87811F0C7FD1138E4B2B6F847
:1049A000C4380093631C0D22394680B211F0C4FE56
:1049B0003C44A4B23DB905B0BDE8F0830024E2E771
:1049C000B6F8EA78E7E711F0AFFD05381FFA80F88E
:1049D00011F0AAFD05381FFA80F9671BBFB211F06C
:1049E000A3FDC5F38705451BADB2063DADB2B6F8D4
:1049F000C6380293019700953B464A4621464046F9
:104A000012F07AF9D7E7000030B585B004460846C1
:104A1000184D002229460BF08BF8002200925523F6
:104A2000294600B20BF050F8C0B211F02DFE94F8F8
:104A3000CE38013303F0030384F8CE38D4F8D428F9
:104A4000AAB115883235B4F8EA1803EBC3035A014A
:104A5000094B1344B4F8C428039002923022019207
:104A600000931346A8B212F023FA05B030BD00251A
:104A7000E8E700BF18FCFFFF549A010810B584B0A6
:104A8000D0F8D438CBB11C883234B0F8EA1890F89A
:104A9000CE3803EBC3035A01094B1344B0F8C428C2
:104AA00045F2AA200390029230220192009313460D
:104AB000A0B212F0FDF904B010BD0024E4E700BF7D
:104AC000549A010800B585B00246D0F8D4387BB1BD
:104AD0001B88323398B269B9B2F8E818B2F8C43812
:104AE000009330231A4611F027FE05B05DF804FB51
:104AF0000023EEE7B2F8E818B2F8C438B2F8C628D6
:104B00000392029330220192024B0093134612F05B
:104B1000CFF9EAE7D49E01082DE9F04182B00546BD
:104B20008846061DD0F8C018304613F0CFF830463E
:104B300013F0BAF9C4B24146304613F051F9C7B286
:104B400011F0F2FCC01B00EBD070A4B2B5F8C6386F
:104B5000009343462246C0F34F01304613F02AF932
:104B600011F0E2FCC01B00EBD07040100A38B5F821
:104B7000C63807F11402E11C80B211F0B1FE02B098
:104B8000BDE8F08110B50446643009F0F9FC014637
:104B90002046FFF7C1FF10BDF0B585B00D461646A3
:104BA0001F469DF8283093B1B0F8EA481E3CA4B2E5
:104BB00011F0BAFC2838039702961C220192009546
:104BC0001346214680B212F073F905B0F0BD0024FF
:104BD000EEE7000000B583B0B0F8C428009145F2BC
:104BE000AA230349FFF7D8FF03B05DF804FB00BF19
:104BF000F49F010800B583B0B0F8C42800914FF6C7
:104C0000FF730349FFF7C8FF03B05DF804FB00BF63
:104C1000F49F010800B583B0B0F8C42800230093C6
:104C20004FF4FC630249FFF7B7FF03B05DF804FBE4
:104C300064A0010800B583B0B0F8C4280023009335
:104C40004FF4FC630249FFF7A7FF03B05DF804FBD4
:104C5000D4A0010800B583B0B0F8C42800230093A5
:104C60004FF4FC630249FFF797FF03B05DF804FBC4
:104C700044A1010800B583B0B0F8C4280023009314
:104C80001F230349FFF788FF03B05DF804FB00BF53
:104C900044A1010800B583B0B0F8C42800230093F4
:104CA0004FF478430249FFF777FF03B05DF804FB48
:104CB000B4A101082DE9F04383B005461C4F0A4614
:104CC0001C49384614F02AFB2E1DD5F8C018304672
:104CD00012F0FCFF304613F0E7F81FFA80F839466F
:104CE000304613F075F80446B5F8E29811F01CFC54
:104CF000B5F8E228821A08F10703B5F8C418009144
:104D00009BB292B20021484611F016FD11F00CFC46
:104D1000011B89B21439B5F8C63800933B464246A8
:104D200089B2304613F038F803B0BDE8F08300BF15
:104D30008877002058A9010830B583B004460D4695
:104D400010460A226FF031010AF0F2FE00B200288C
:104D500012DB0021009155230A220AF0B5FEC0B2F1
:104D600011F092FCB4F8C428009503460749204688
:104D7000FFF712FF03B030BD55230093AA23002292
:104D80006FF031010AF0A0FEC0B2E9E7F49F01081C
:104D9000F0B583B004460F4610461E46BDF82050BD
:104DA0001A4629460AF0C4FE0023009355233246D2
:104DB000294680B20AF088FEC0B211F065FCB4F852
:104DC000C4280097034603492046FFF7E5FE03B0D9
:104DD000F0BD00BFF49F01082DE9F04F93B00746E6
:104DE0000E460B9193460E939DF870300F93031D62
:104DF0001D460893D0F8C018184612F067FF2846E1
:104E000013F052F85FFA80F808F10A085FFA88F8A0
:104E100008F10C02099211F087FB0446284613F0B2
:104E200043F8A4F1640182B289B211A811F05EFACC
:104E300007F164030A933146184609F0B7FB81462F
:104E400006280BD94FF0060A0E9B83B11B788BB155
:104E5000BAF1060F04D0012307930DE08246F3E771
:104E60000AF1FF3A5FFA8AFA0123079304E000236C
:104E7000079301E000230793CAF34706ABEB06064E
:104E8000F6B2013676B2B9F1010F01D95E4505D00F
:104E9000002E07DB00250D950C9627E00BF1FF3661
:104EA00076B2F5E74E4476B2F4E700223AE0B7F87E
:104EB000C468B7F8C6C85C454BD0119B002B50D0D6
:104EC0001A88119800284ED04388441D00284CD0E1
:104ED0000088CDF814C0049600260396029601902F
:104EE0000094322012F04AF80135EDB2AA453ED9BD
:104EF0000C9B55FA83F4E4B2A14502D8A4EB090453
:104F0000E4B20B9BE118C9B20131C9B20A9809F0A9
:104F100037FB064611A811F02BFA119B591D002BE7
:104F2000C3D01A88012302930A230193002300931C
:104F30003346089812F05CFF099B05FB083189B2E3
:104F4000079B002BB3D00D9B002BB0D0414489B2FE
:104F5000ADE708EB01039BB20D93334666469C46D2
:104F6000ABE70022ADE70023AFE70020B1E7079BE6
:104F7000DBB9079B9BB9BAF1050F10D81AFB08F1F2
:104F8000099B13FA81F189B2119B002B60D01A881A
:104F9000B7F8C43800934346322011F0CDFB11A876
:104FA00011F0D7F913B0BDE8F08F11A811F0E0F9B6
:104FB000119B591D2BB31A880123029300230193DF
:104FC000022300930E9B089812F012FF0F9B03BB65
:104FD000119BC3B11A88B7F8C458B7F8C6681199BD
:104FE00099B14B88481D91B10C8805960495002114
:104FF00003910291019400900D99322011F0BEFFAF
:10500000B7E70022D8E70022E5E70023EAE700241B
:10501000EBE7119BB3B11A88B7F8C458119999B14D
:105020004B88481D91B10C884FF478410591049547
:10503000002103910291019400900D99322011F00A
:105040009DFF96E70022E7E70023EAE70024EBE76D
:1050500000229DE72DE9F04F8FB04C680B68E41AF1
:10506000E4105A4B03FB04F4A5B2954202D20FB0F0
:10507000BDE8F08F90460B920A910746031D0993F5
:10508000D0F8C0189946184612F020FE484612F093
:105090000BFFC0B20A30C1B206910C31079111F07A
:1050A00043FA0646484612F0FFFEA6F1640182B2BA
:1050B00089B20DA811F01AF94FFA88FB4346ED1A90
:1050C000ADB2052D03D8A4F1060B4FFA8BFBBBF153
:1050D000000F0CDBA3B20893A3EB0B08B8F1060F8B
:1050E000A8BF4FF006085FFA88F800241FE04FF0D1
:1050F000000BEFE7002239E00D9B002B47D01A8808
:105100000D99002945D04B88481D002943D00D88B2
:10511000CDF814A0CDF810900021039102910195D3
:1051200000903146322011F029FF0134E4B24445A9
:1051300033D254FA8BF5EDB20DA811F019F9069B94
:10514000079A04FB0326B6B2B7F8C498B7F8C6A806
:10515000089B9D42D0DC0A9B196805EB4502D300F1
:10516000CB580D9A511D002AC4D0128801200290FC
:105170000A20019000200090099812F039FE0B9B44
:105180009D42B9D1B7F8C698B7F8C4A8B4E70022D1
:10519000B6E70023B8E70025BAE7B8F1050F0FD846
:1051A000069B079A08FB03281FFA88F10D9B5BB149
:1051B0001A88B7F8C4380093069B322011F0BCFA65
:1051C0000DA811F0C6F852E70022F2E7ABAAAAAA8E
:1051D0002DE9F04F91B00446079117461E46051D74
:1051E000D0F8C018284612F071FD284612F05CFE77
:1051F000C0B20530C3B21A46069394F8E038B34201
:1052000040F0B280B7F5805F01D340F6FF7711F030
:1052100091F9BDF81880A0EB08001FFA80FA11F090
:1052200083F98346A0F140091FFA89F9B7F5006FA9
:1052300000F263812823009300234FF40062194693
:1052400038460AF041FC87B2CDF80090282340F69A
:10525000FF7240F601014FF461600AF035FCC6B2FE
:105260002036F6B2AAEB08081FFA88F8A8F10F0159
:10527000ABF13602B4F8C6380193052300930A2334
:1052800092B289B21B2011F03EFBA8F10A0B1FFA63
:105290008BFBB4F8C8380A2259461C2011F0A3FC35
:1052A000B4F8C6380A2259461C2011F04BFCA8F16C
:1052B0000E0B1FFA8BFBB4F8C838009308233A464C
:1052C0005946202011F038FA09F1FF339F42C0F20D
:1052D0002081B6B2701EA8F10501B4F8C63800935B
:1052E0000623032289B280B211F026FA079A904968
:1052F0000EA814F013F810AF432327F80C3D0EA9A5
:10530000284612F065FD8146C0F34F03F61AB6B287
:10531000B4F8C63800930EAB52463146284612F018
:105320003BFD4E44B6B2B01D08F10408B4F8C438D1
:10533000B4F8C62803920293082201927D4B009391
:1053400005231FFA88F180B211F0B2FD06F10E01BB
:10535000B4F8C63800933B46524689B2284612F04C
:105360001BFD11B0BDE8F08F84F8E0681FFA82F8E9
:1053700008F13C0911F0D8F8143800900023642299
:10538000194630460AF0A0FB83B208932823009305
:1053900000236422194630460AF096FBC3B20993F3
:1053A00011F0C2F80A381FFA80FA11F0BDF80A3875
:1053B00080B208F1140BB4F8C4380293CDF804B0ED
:1053C00000904B46524649460A2011F095FC11F0D8
:1053D000ABF80A381FFA80FA11F0A6F80A3880B242
:1053E000B4F8C6380293CDF804B000904B4652464C
:1053F00049460A2011F05FFC002E59D1002E69D0D9
:105400002E2104F1640009F0BBF88346FBF7CAFDC6
:105410005FFA80FABAF1040F01D94FF0040A52463C
:1054200059460AA813F0B4FF2523324642490AA878
:10543000504413F073FF04F50D6010F099FFD4F899
:10544000D038591D002B4FD01A88002302930193A6
:10545000012300930AAB284612F0CAFC11F064F84D
:10546000D4F8D038002B41D01A88801A00EBD070C5
:10547000C0F34F00C84408F10A01B4F8C488B4F876
:10548000C698D4F8D0689EB3738806F1050C8EB325
:10549000B6F800E0CDF81490CDF810800026039601
:1054A0000296CDF804E0CDF800C011F067FDA9E642
:1054B000089A0A3292B2099BA9EB03039BB2B4F893
:1054C000C6180291019300924B4649460A2011F0FA
:1054D00013FC93E72C2104F1640009F051F8014614
:1054E0000AA813F01BFFA6E70022AEE70022BCE7E4
:1054F0000023CAE74FF0000ECCE7CDF80090282338
:1055000040F6FF7240F6010138460AF0DDFA87B234
:105510009AE607F12000A9EB0702B4F8C43800931B
:10552000082392B2594680B211F006F9D1E600BFC5
:1055300064A901084C9A01085CA901082DE9F04111
:1055400084B00546041DD0F8C018204612F0BEFBFA
:10555000204612F0A9FCC4B20534E4B21E3410F0A7
:10556000E9FF001B80B2461FB6B216F0010F01D151
:10557000063886B210F0D8FFD5F8D438002B39D0D1
:105580001C88041BA4B2363CA4B2214605F1540089
:1055900002F074FA074648B3D5F8DC380BB11B8823
:1055A00023BB05F6DC0802233246214603A811F08E
:1055B000A0FF03A9404611F0C8FF03A811F0DBFFCC
:1055C000B5F8C438ADF80430B5F8C638ADF80630D3
:1055D000B5F8C838ADF80830B5F8CA38ADF80A30B3
:1055E00004220DEB0201404611F0EEFF384604B0F4
:1055F000BDE8F0810024C4E72DE9F04F89B00446EE
:1056000005910692079300F10408D0F8C0184046AF
:1056100012F05CFB404612F047FCC6B20536F6B20B
:1056200006F11E0910F086FFA0EB090080B2451FAD
:10563000ADB215F0010F01D1851FADB26D08D4F8E0
:10564000D438002B00F0B4801F8807F113039BB2FD
:10565000049307F1050A1FFA8AFA59FA85F510F042
:1056600063FFA0F14602B4F8C63892B2294650460C
:1056700011F036F910F058FFD4F8D438002B00F0B0
:1056800099801B88184480B24138A91EB4F8C438E8
:10569000B4F8C628039202934FF0080ACDF804A08C
:1056A000DFF824B10BF61C0300930523524689B2A0
:1056B00080B211F0FDFB10F037FFA0F114016A1F5A
:1056C000B4F8C63800933F4B92B289B2404612F00C
:1056D00063FB10F02FFFA0F10C02B4F8C63892B2B1
:1056E0000A21049811F005F907F11100B4F8C43843
:1056F000B4F8C62803920293CDF804A00BF6240355
:10570000009353460522114680B211F0D1FB0F37AA
:10571000BFB2B4F8C83809224946384611F0E0F85B
:10572000B4F8CA38092206EB0901384611F0D8F856
:10573000D4F8D438002B3FD019880F39B4F8C838C2
:105740000093069B324689B2404612F025FBD4F8FE
:10575000D4389BB319881E31B4F8CA380093079B1C
:10576000324689B2404612F017FBD4F8D4383BB326
:105770001D880544ADB21E35ADB2DDF81490494622
:10578000404612F025FB074610F0CEFE401BC01B22
:1057900000EBD07005EB6000B4F8C63800934B46C0
:1057A000324681B2404612F0F7FA09B0BDE8F08FF8
:1057B00000274AE7002365E70021BEE70021CAE78A
:1057C0000025D6E7D8AB0108089A01082DE9F04773
:1057D0008AB08046022946D908F10405D8F8C018D5
:1057E000284612F073FA284612F05EFB5FFA80FA40
:1057F00003A9284612F0ECFA814610F095FEA0EBC2
:105800000900C0F34F0710F095FE00EB400006467C
:10581000002831DBC6F38F06284612F045FB04B2A0
:10582000284612F049FB04FA80F1A7F10A00C9B238
:10583000711A89B20A3909F11402B8F8C438009310
:105840000AF1140392B289B280B210F075FFB8F871
:10585000C638009303AB32463946284612F09CFA0C
:105860000AB0BDE8F087054B03EB8101D1F82C1895
:1058700003A813F053FDAFE7C61CCBE7089A010855
:105880002DE9F04F8BB005468A469146071DD0F8AA
:10589000C018384612F01AFA39212846FFF772F973
:1058A000384612F001FBC6B20536F6B206F10C0816
:1058B00010F03AFE0446384612F0F6FAA4F16401FC
:1058C00082B289B206A810F011FD00241FE0002268
:1058D00031E07346E6469C463CE0002241E000236E
:1058E00000F1050B002841D00088CDF814E0CDF878
:1058F00010C04FF0000CCDF80CC0CDF808C00190DE
:10590000CDF800B0322011F039FB0134E4B2022CA2
:105910002ED81A4B03EB84033AF81420D3F82C1832
:1059200007A813F0FBFC06A810F022FD069B591DEA
:10593000002BCCD01A8800230293052001900093FD
:1059400007AB384612F054FAB5F8C6E8B5F8C4C843
:105950004C45BED004FB068189B2069B002BBCD00F
:105960001A8806980028BAD04388B9E70020BCE717
:1059700006A810F0EEFC0BB0BDE8F08F089A010805
:1059800070B582B004460E46051DD0F8C0182846F2
:1059900012F09CF910F0CEFDA0F13202B4F8CC3830
:1059A0000093334692B26421284612F0F5F902B012
:1059B00070BD10B50446D0F8DC380BB11B8823B994
:1059C00004F1540002F089F810BD00F6DC0011F07B
:1059D000D2FDF5E72DE9F04F87B083460D460492DE
:1059E00000F164043821204608F0CAFD0646BBF8E1
:1059F000C40810F0C7FE2946204608F0C1FD037810
:105A000003B304460BF104031D460393DBF8C018EF
:105A1000184612F05BF9284612F046FA80B20530BB
:105A200083B205932046FBF7BDFAC7B2781C13F08A
:105A30001FFB804658B3214613F090FC00264FF020
:105A4000010964E00BF10404DBF8C018204612F0F1
:105A50003DF90321204612F04AF93146204612F062
:105A6000BFF9054610F060FD451BC5F34F0510F06A
:105A700061FDBBF8C63800933346C0F34F02294698
:105A8000204612F097F90121204612F030F907B0B4
:105A9000BDE8F08F25466C1CE4B2A74203D918F884
:105AA00004300A2BF6D1A74202D9002308F80430AB
:105AB00046443146039812F093F95FFA80FA10F0E9
:105AC00033FD824528DA10F02FFDA0EB0A0000EB31
:105AD000D070059B19FB03F2049B13FA82F2BBF80A
