:020000040800F2
:1000000000000120F17E010865F2000867F2000897
:1000100069F200086BF200086DF2000800000000B1
:100020000000000000000000000000006FF2000867
:1000300071F200080000000073F2000875F2000879
:10004000417F0108417F0108417F0108417F01088C
:10005000417F0108417F01086D25000891250008B6
:10006000417F0108417F0108417F0108417F01086C
:10007000417F0108417F0108417F0108417F01085C
:10008000417F0108417F0108417F01080000000015
:10009000000000000000000000000000417F010897
:1000A000417F0108417F0108417F01087DF200087E
:1000B0008DF20008417F0108417F0108417F01085E
:1000C000417F0108417F0108417F0108417F01080C
:1000D000417F0108417F0108417F010800000000C5
:1000E000417F0108417F0108417F010800000000B5
:1000F000000000000000000000000000417F010837
:1001000000000000417F0108417F0108417F010894
:1001100000000000000000000000000000000000DF
:100120009DF20008417F0108417F0108ADF20008FF
:10013000417F0108000000000000000000000000F6
:10014000000000000000000000000000417F0108E6
:10015000417F0108417F0108417F0108417F01087B
:10016000417F0108417F01080000000000000000FD
:10017000000000000000000000000000000000007F
:1001800000000000417F01080000000000000000A6
:04019000417F0108A2
:1001A00010B5054C237833B9044B13B10448AFF3B1
:1001B00000800123237010BD7402002000000000A5
:1001C000D094010808B5034B1BB103490348AFF3B2
:1001D000008008BD0000000078020020D0940108D3
:1001E00081F0004102E000BF83F0004330B54FEAE8
:1001F00041044FEA430594EA050F08BF90EA020F55
:100200001FBF54EA000C55EA020C7FEA645C7FEAE7
:10021000655C00F0E2804FEA5454D4EB5555B8BF0A
:100220006D420CDD2C4480EA020281EA030382EA7B
:10023000000083EA010180EA020281EA0303362D0D
:1002400088BF30BD11F0004F4FEA01314FF4801CE0
:100250004CEA113102D0404261EB410113F0004FF2
:100260004FEA03334CEA133302D0524263EB4303A9
:1002700094EA050F00F0A780A4F10104D5F1200E47
:100280000DDB02FA0EFC22FA05F2801841F10001A2
:1002900003FA0EF2801843FA05F359410EE0A5F176
:1002A00020050EF1200E012A03FA0EFC28BF4CF0A7
:1002B000020C43FA05F3C01851EBE37101F000455D
:1002C00007D54FF0000EDCF1000C7EEB00006EEB6A
:1002D0000101B1F5801F1BD3B1F5001F0CD34908F4
:1002E0005FEA30004FEA3C0C04F101044FEA44524B
:1002F00012F5800F80F09A80BCF1004F08BF5FEAD2
:10030000500C50F1000041EB045141EA050130BDB1
:100310005FEA4C0C404141EB010111F4801FA4F154
:100320000104E9D191F0000F04BF01460020B1FAA9
:1003300081F308BF2033A3F10B03B3F120020CDAE1
:100340000C3208DD02F1140CC2F10C0201FA0CF0BF
:1003500021FA02F10CE002F11402D8BFC2F1200C24
:1003600001FA02F120FA0CFCDCBF41EA0C019040DA
:10037000E41AA2BF01EB0451294330BD6FEA040423
:100380001F3C1CDA0C340EDC04F11404C4F120020E
:1003900020FA04F001FA02F340EA030021FA04F320
:1003A00045EA030130BDC4F10C04C4F1200220FA77
:1003B00002F001FA04F340EA0300294630BD21FAB5
:1003C00004F0294630BD94F0000F83F4801306BF7B
:1003D00081F480110134013D4EE77FEA645C18BF6F
:1003E0007FEA655C29D094EA050F08BF90EA020F06
:1003F00005D054EA000C04BF1946104630BD91EAFE
:10040000030F1EBF0021002030BD5FEA545C05D100
:100410004000494128BF41F0004130BD14F580043F
:100420003CBF01F5801130BD01F0004545F0FE41B3
:1004300041F470014FF0000030BD7FEA645C1ABFE8
:10044000194610467FEA655C1CBF0B46024650EA1F
:10045000013406BF52EA033591EA030F41F400214B
:1004600030BD00BF90F0000F04BF0021704730B5D1
:100470004FF4806404F132044FF000054FF00001A6
:1004800050E700BF90F0000F04BF0021704730B567
:100490004FF4806404F1320410F0004548BF40423C
:1004A0004FF000013EE700BF42004FEAE2014FEA91
:1004B00031014FEA02701FBF12F07F4393F07F4F6C
:1004C00081F06051704732F07F4208BF704793F06F
:1004D0007F4F04BF41F40021704730B54FF4607482
:1004E00001F0004521F000411CE700BF50EA010285
:1004F00008BF704730B54FF000050AE050EA01022E
:1005000008BF704730B511F0004502D5404261EB9D
:1005100041014FF4806404F132045FEA915C3FF4DE
:10052000D8AE4FF003025FEADC0C18BF03325FEA7B
:10053000DC0C18BF033202EBDC02C2F1200300FA2C
:1005400003FC20FA02F001FA03FE40EA0E0021FA51
:1005500002F11444BDE600BF70B54FF0FF0C4CF43F
:10056000E06C1CEA11541DBF1CEA135594EA0C0FF1
:1005700095EA0C0F00F0DEF82C4481EA030621EA2C
:100580004C5123EA4C5350EA013518BF52EA033567
:1005900041F4801143F4801338D0A0FB02CE4FF019
:1005A0000005E1FB02E506F00042E0FB03E54FF049
:1005B0000006E1FB03569CF0000F18BF4EF0010E41
:1005C000A4F1FF04B6F5007F64F5407404D25FEA3D
:1005D0004E0E6D4146EB060642EAC62141EA5551F0
:1005E0004FEAC52040EA5E504FEACE2EB4F1FD0C32
:1005F00088BFBCF5E06F1ED8BEF1004F08BF5FEAB0
:10060000500E50F1000041EB045170BD06F0004661
:1006100046EA010140EA020081EA0301B4EB5C040E
:10062000C2BFD4EB0C0541EA045170BD41F4801106
:100630004FF0000E013C00F3AB8014F1360FDEBF2B
:10064000002001F0004170BDC4F10004203C35DA07
:100650000C341BDC04F11404C4F1200500FA05F38A
:1006600020FA04F001FA05F240EA020001F000422B
:1006700021F0004110EBD37021FA04F642EB0601A1
:100680005EEA430E08BF20EAD37070BDC4F10C04CB
:10069000C4F1200500FA04F320FA05F001FA04F28F
:1006A00040EA020001F0004110EBD37041F100017B
:1006B0005EEA430E08BF20EAD37070BDC4F1200586
:1006C00000FA05F24EEA020E20FA04F301FA05F2EE
:1006D00043EA020321FA04F001F0004121FA04F296
:1006E00020EA020000EBD3705EEA430E08BF20EA66
:1006F000D37070BD94F0000F0FD101F000464000A0
:1007000041EB010111F4801F08BF013CF7D041EA21
:10071000060195F0000F18BF704703F00046520025
:1007200043EB030313F4801F08BF013DF7D043EAF6
:100730000603704794EA0C0F0CEA135518BF95EAAC
:100740000C0F0CD050EA410618BF52EA4306D1D133
:1007500081EA030101F000414FF0000070BD50EA52
:10076000410606BF1046194652EA430619D094EADC
:100770000C0F02D150EA013613D195EA0C0F05D1C6
:1007800052EA03361CBF104619460AD181EA03011A
:1007900001F0004141F0FE4141F470014FF00000D2
:1007A00070BD41F0FE4141F4780170BD70B54FF06D
:1007B000FF0C4CF4E06C1CEA11541DBF1CEA1355ED
:1007C00094EA0C0F95EA0C0F00F0A7F8A4EB0504CF
:1007D00081EA030E52EA03354FEA013100F08880C6
:1007E0004FEA03334FF0805545EA131343EA12638F
:1007F0004FEA022245EA111545EA10654FEA002644
:100800000EF000419D4208BF964244F1FD0404F5FC
:10081000407402D25B084FEA3202B61A65EB030558
:100820005B084FEA32024FF480104FF4002CB6EB15
:10083000020E75EB030E22BFB61A754640EA0C0095
:100840005B084FEA3202B6EB020E75EB030E22BFD5
:10085000B61A754640EA5C005B084FEA3202B6EB16
:10086000020E75EB030E22BFB61A754640EA9C00D5
:100870005B084FEA3202B6EB020E75EB030E22BFA5
:10088000B61A754640EADC0055EA060E18D04FEA63
:10089000051545EA16754FEA06164FEAC30343EA03
:1008A00052734FEAC2025FEA1C1CC0D111F4801FD0
:1008B0000BD141EA00014FF000004FF0004CB6E7C9
:1008C00011F4801F04BF01430020B4F1FD0C88BF68
:1008D000BCF5E06F3FF6AFAEB5EB030C04BFB6EB73
:1008E000020C5FEA500C50F1000041EB045170BD66
:1008F0000EF0004E4EEA113114EB5C04C2BFD4EB93
:100900000C0541EA045170BD41F480114FF0000E16
:10091000013C90E645EA060E8DE60CEA135594EA92
:100920000C0F08BF95EA0C0F3FF43BAF94EA0C0F95
:100930000AD150EA01347FF434AF95EA0C0F7FF40A
:1009400025AF104619462CE795EA0C0F06D152EA5E
:1009500003353FF4FDAE1046194622E750EA410642
:1009600018BF52EA43067FF4C5AE50EA41047FF453
:100970000DAF52EA43057FF4EBAE12E74FF0FF3CB8
:1009800006E000BF4FF0010C02E000BF4FF0010C89
:100990004DF804CD4FEA410C7FEA6C5C4FEA430C02
:1009A00018BF7FEA6C5C1BD001B050EA410C0CBF51
:1009B00052EA430C91EA030F02BF90EA020F0020B3
:1009C000704710F1000F91EA030F58BF994208BF1A
:1009D00090422CBFD8176FEAE37040F001007047D7
:1009E0004FEA410C7FEA6C5C02D150EA013C07D12E
:1009F0004FEA430C7FEA6C5CD6D152EA033CD3D079
:100A00005DF8040B704700BF8446104662468C4672
:100A10001946634600E000BF01B5FFF7B7FF0028A5
:100A200048BF10F1000F01BD4DF808EDFFF7F4FFCE
:100A30000CBF012000205DF808FB00BF4DF808ED59
:100A4000FFF7EAFF34BF012000205DF808FB00BF7C
:100A50004DF808EDFFF7E0FF94BF012000205DF89E
:100A600008FB00BF4DF808EDFFF7CEFF94BF012053
:100A700000205DF808FB00BF4DF808EDFFF7C4FF4C
:100A800034BF012000205DF808FB00BF4FEA410C95
:100A90007FEA6C5C02D150EA013C0AD14FEA430C78
:100AA0007FEA6C5C02D152EA033C02D14FF00000B5
:100AB00070474FF0010070474FEA410212F50012F3
:100AC00015D211D56FF47873B3EB625212D94FEA95
:100AD000C12343F0004343EA505311F0004F23FA7F
:100AE00002F018BF404270474FF00000704750EAD4
:100AF000013005D111F0004008BF6FF00040704791
:100B00004FF00000704700BF4A0011D212F50012EA
:100B100011D20DD56FF47873B3EB62520ED44FEA55
:100B2000C12343F0004343EA505323FA02F07047D5
:100B30004FF00000704750EA013002D14FF0FF3013
:100B400070474FF0000070474FEA4102B2F1E043B6
:100B500024BFB3F5001CDCF1FE5C0DD901F0004CA4
:100B60004FEAC0024CEA5070B2F1004F40EB8300F4
:100B700008BF20F00100704711F0804F21D113F120
:100B80003872BCBF01F00040704741F480114FEA59
:100B90005252C2F11802C2F1200C10FA0CF320FAE2
:100BA00002F018BF40F001004FEAC1234FEAD323FF
:100BB00003FA0CFC40EA0C0023FA02F34FEA430369
:100BC000CCE77FEA625307D150EA01331EBF4FF0F2
:100BD000FE4040F44000704701F0004040F0FE400D
:100BE00040F40000704700BF53B94AB9002908BF5C
:100BF00000281CBF4FF0FF314FF0FF3000F072B9FA
:100C0000ADF1080C6DE904CE00F006F8DDF804E063
:100C1000DDE9022304B070472DE9F047089E044641
:100C20008846002B4BD18A42154667D9B2FA82F228
:100C30004AB1C2F1200701FA02F320FA07F7954002
:100C400047EA030894404FEA154E230CB8FBFEF721
:100C50001FFA85FC0EFB178843EA084307FB0CF1DB
:100C6000994209D9EB1807F1FF3080F01B819942B6
:100C700040F21881023F2B445B1AA4B2B3FBFEF092
:100C80000EFB103344EA034400FB0CFCA44509D9D5
:100C90002C1900F1FF3380F00781A44540F2048154
:100CA00002382C4440EA0740A4EB0C0400271EB194
:100CB000D4400023C6E900433946BDE8F0878B42A3
:100CC00009D9002E00F0EB800027C6E90001384664
:100CD0003946BDE8F087B3FA83F7002F47D18B423E
:100CE00002D3824200F2FA80841A61EB03030120EE
:100CF0009846002EE0D0C6E90048DDE702B9FFDEE5
:100D0000B2FA82F2002A40F08F80491B4FEA154E5A
:100D10001FFA85F80127B1FBFEFC230C0EFB1C110A
:100D200043EA014308FB0CF1994207D9EB180CF197
:100D3000FF3002D2994200F2CD808446591AA3B204
:100D4000B1FBFEF00EFB101443EA044408FB00F86C
:100D5000A04507D92C1900F1FF3302D2A04500F2BB
:100D6000B6801846A4EB080440EA0C409FE7C7F1A0
:100D7000200CBB4022FA0CFE4EEA030E01FA07F4E7
:100D800020FA0CF521FA0CF34FEA1E482543B3FB79
:100D9000F8F92C0C08FB19331FFA8EFA44EA0343C6
:100DA00009FB0AF49C4202FA07F200FA07F10BD998
:100DB0001EEB030309F1FF3080F087809C4240F274
:100DC0008480A9F1020973441B1BADB2B3FBF8F098
:100DD00008FB103345EA034400FB0AFAA24508D990
:100DE0001EEB040400F1FF336BD2A24569D902382F
:100DF000744440EA0940A0FB0289A4EB0A044C4574
:100E0000C2464B4654D351D0002E69D0B1EB0A05EF
:100E100064EB030404FA0CFCFD40FC404CEA0505BD
:100E2000C6E90054002747E7C2F1200320FA03F780
:100E3000954001FA02F021FA03F34FEA154E3843C8
:100E4000010CB3FBFEF71FFA85F80EFB173341EADE
:100E5000034107FB08F38B4204FA02F407D969182F
:100E600007F1FF3C2FD28B422DD9023F2944CB1AE8
:100E700081B2B3FBFEF00EFB103341EA034100FBED
:100E800008F38B4207D9691800F1FF3C17D28B4257
:100E900015D902382944C91A40EA07473BE73746C3
:100EA000304609E70746E7E61846FBE64145ABD280
:100EB000B8EB020A69EB0E0201381346A4E760465C
:100EC000E9E7184695E76746D1E781467CE70238AF
:100ED0002C4447E7ACF1020C2B442FE7384608E7D7
:100EE0003746E9E6704700BF000000000000000040
:100EF00001F0FF01102A2BDB10F0070F08D010F8CB
:100F0000013B013A8B422DD010F0070F42B3F6D1CE
:100F1000F0B441EA012141EA014122F007047FF0E7
:100F200000070023F0E80256083C85EA010586EA3E
:100F3000010685FA47F5A3FA87F586FA47F6A5FA7A
:100F400087F68EB9EED1F0BC01F0FF0102F0070286
:100F500032B110F8013B013A83EA010313B1F8D131
:100F60000020704701387047002D06BF3546033812
:100F7000073815F0010F07D1013015F4807F02BF4B
:100F8000013015F4C03F0130F0BC0138704700BF9C
:100F9000034613F8012B002AFBD1181A01387047B9
:100FA00001230370014B00221A64704700080040BF
:100FB00010B54B1E044CE3624910216410460EF03C
:100FC0005DFA0023236410BD0008004008B50378D3
:100FD00003B908BDA0224FF48E71FFF7E9FFF8E7CF
:100FE000037803B9704710B50446A0224FF48E7100
:100FF000FFF7DEFF64200EF041FAA0224FF48E715D
:101000002046FFF7D5FF10BD08B5037803B908BD2A
:10101000A02240F61831FFF7CBFFF8E7037803B9B9
:10102000704710B50446A0224FF48E71FFF7C0FF41
:1010300032200EF023FA3C2240F618312046FFF70A
:10104000B7FF32200EF01AFAA02240F28C5120464F
:10105000FFF7AEFF10BD41F2C803C358A3B370B58C
:1010600084B00D4604464E0013F81120FF2A1CD010
:101070000123694606F0D6F850BB9DF8083083F08E
:1010800001038DF8083001226946204606F074FA03
:1010900041F2C803E25802F81500E35833449DF8C2
:1010A00008205A70012004B070BD00F5825007F08E
:1010B00003F9014650B105220DF1090017F0E8FED1
:1010C00001238DF80830DEE7002070470020EAE7B2
:1010D0000020E8E741F2C803C358002B3FD070B5A9
:1010E0000E46044600F5825007F0E4F80546024635
:1010F000012130460EF04EF9C0B241F2C803E25869
:10110000044602EB40035B7813F0010F1AD180B262
:10111000034643B102EB4301497811F0010F02D1BC
:10112000013B9BB2F5E7A84208D202EB40014978A7
:1011300011F0010F02D1013080B2F4E71BB9A842CF
:101140000FD0C0B270BDA84205D0E21A041BA24263
:1011500003DBC0B2F6E7D8B2F4E7D8B2F2E7012079
:1011600070470120EEE700002DE9F04180460C4673
:101170004E888D888B7E13F0010F29D01D4B1A8865
:101180001D4B198830460EF005F9074686B21B4BF9
:101190001A881B4B198828460EF0FCF8054680B2C9
:1011A000A37E13F0010F1CD06680A080637E1E2BEF
:1011B00001D91E236376217E4046FFF78BFF207600
:1011C000FF220A21E07E0EF0E5F8E076BDE8F0812E
:1011D00030B20EF0F5F886B228B20EF0F1F885B212
:1011E000CCE738B20EF0DEF886B228B20EF0DAF8AC
:1011F00080B2D9E736A0010838A0010832A0010862
:1012000034A001082DE9F04385B006468946002444
:10121000A04612E00DF10901284607F059F800B286
:10122000002808DB9DF808302BB109EB400219F8C3
:101230001030FF2B1BD0013424B206F5825528460E
:1012400007F038F884420ADAE7B201233A466946E1
:10125000304605F0E7FF0028DCD00128EBD130460E
:1012600005F008FF5FFA88F005B0BDE8F08309F8E3
:1012700010709DF80830537008F101081FFA88F8C3
:10128000D9E708B541F2C803C15819B1FFF7BAFF51
:10129000012008BD0020FCE738B50C461546114674
:1012A00000F5825007F008F8C8B1014615B103787F
:1012B0004E2B07D10522204617F0EAFD002363716B
:1012C000204638BD084B186820601B79204600F87E
:1012D000043F052217F0DCFD00236372F0E7034BA7
:1012E00003CB20606160EBE788A0010890A00108B3
:1012F00008B541F25803C25C0149FFF7CDFF08BDB4
:10130000900200202DE9F8439DF8209041F2C80496
:1013100050F804C0BCF1000F05D01F4616468046A9
:101320004C1E032513E0002107E001EB4104A0005F
:101330001044002484700131C9B29942F5D30020D1
:101340004EE0013D15F0FF0527D0013C24B2002CF2
:1013500009DDB9F1000FF4D00CEB44035B7813F016
:10136000010FF2D0EDE7002517E005EB45029300F1
:10137000F118E2B2F25441F2C80358F8033003EB1B
:1013800044035B784B7002314046FFF785FF01351F
:10139000EDB2BD4217D2013424B208F5825006F0F6
:1013A00089FF84420FDA002CF5D0B9F1000FDCD0B0
:1013B00041F2C80358F8033003EB44035B7813F0A1
:1013C000010FD2D1E7E72946B94208D201EB410328
:1013D00098003044002383700131C9B2F4E72846F5
:1013E000BDE8F88308B54288438E9A4201D00020B8
:1013F00008BD8288838E9A4201D00020F8E7C28817
:10140000C38E9A4201D00020F2E7828AB0F84430BD
:101410009A4201D00020EBE7827D90F846309A4254
:1014200001D00020E4E7027E90F848309A4201D0D3
:101430000020DDE7427E90F849309A4201D000203A
:10144000D6E7827E90F84A309A4201D00020CFE75A
:10145000C27D90F847309A420FD1C27E90F84B304F
:101460009A420CD1142200F14C011C3017F0FEFC02
:1014700008B90120BCE70020BAE70020B8E7002047
:10148000B6E7000008B5EB2343804FF496738380E2
:101490004FF49663C380012303760023437683824F
:1014A0000522827533228276C37540F6FC030381E0
:1014B0003223438140F2DF238381C823C381402349
:1014C0000382C32343828023C376142202491C3043
:1014D00017F0DEFC08BD00BF20A0010810B50446CF
:1014E000037F13B104F11C0010BD142202491C300B
:1014F00017F0CEFCF6E700BF20A001082DE9F04F61
:1015000083B0044601921D469DF830B09DF834A08A
:101510009DF838909DF83C809DF840609DF844709F
:10152000837E03F001034176BDF8482082829DF856
:101530004C208275AB420BD0002D44D0B0F9020094
:101540000DF03EFF6080B4F904000DF039FFA0807B
:101550000023A3760DB10123A376019B1BB1A37ECB
:1015600043F00203A376BBF1000F03D0A37E43F048
:101570000403A376BAF1000F03D0A37E63F07F03C8
:10158000A376B9F1000F03D0A37E43F01003A37636
:10159000B8F1000F03D0A37E43F02003A3761FB160
:1015A000A37E43F00803A3761EB1A37E43F040035D
:1015B000A376FF220A219DF850000DF0EBFEE076A5
:1015C00003B0BDE8F08FB0F902000DF0EBFE6080D3
:1015D000B4F904000DF0E6FEA080B9E74180704741
:1015E0008180C280704770B400F1300213460668F3
:1015F00045688468C1681E605D609C60D960103079
:1016000010339042F3D170BC704738B5044600F5F2
:1016100082552846FFF7E6FE00B138BD2946204630
:1016200005F074FF2846FFF7DEFFF6E710B5A2B11C
:101630000A6841F24E03C2524A6841F25003C25254
:101640008A6841F25203C25200F58254214605F0E5
:101650005DFF2046FFF7C7FF10BD0A6841F248034F
:10166000C2524A6841F24A03C2528A6841F24C03AC
:10167000C252E9E770B400F13003024660301E68E0
:101680005D689C68D968166055609460D1601033BD
:1016900010328342F3D170BC7047C07D000900EB6B
:1016A00080007047C37D03F00F03013303EB830316
:1016B000980070474B2900D94B21B2F5A07F03D881
:1016C000042A03D8052201E04FF4A0720B1DDBB2FF
:1016D0000849A1FB03139B081B01DBB2013A064931
:1016E00081FB02C1D217C2EBE10202F00F021343E9
:1016F000C3757047CDCCCCCC6766666610B5044622
:1017000032B94B8A0A8AC9890CF094FE204610BD72
:101710008B894A8909890CF08DFEF7E710B50446DC
:1017200032B93223402296210CF084FE204610BDAF
:10173000C8230A2240F23F210CF07CFEF6E770B489
:101740000E8893009C186500441946534D886580A7
:101750008D88A580CD88E5800D7A257291F90E10CF
:10176000617270BC704701EB81014B00184490F925
:1017700009007047032905D802EB8202114430F8B2
:10178000110070470020704703290BD8012A04D0AC
:10179000083100EB4101888870470C3100EB4101B2
:1017A00088887047002070472DE9F04782B00446D2
:1017B0000E46924600F5855800214046FFF7E4FFAB
:1017C000074641F254090246314634F809000DF04B
:1017D000E1FD85B224F80950524600214046FFF74A
:1017E000C9FF009000233A46314628460DF09EFD81
:1017F00080B202B0BDE8F0872DE9F04F85B0064613
:10180000884691461C4619469B0023445A0083187B
:1018100093F90900A9EB0007B55A454513D804EB25
:10182000840253003344DD88454540D30125032D10
:1018300071D801EB81032B4436F813A0C24519D8A7
:101840000135EDB2F3E7224600213046FFF79CFF59
:10185000384400904B462A46002140460DF066FD74
:1018600000B240F2E73249460DF094FD80B205B077
:10187000BDE8F08F6A1E04EB84031A4436F812B0F8
:10188000691E2246C9B23046FFF77EFFC319039393
:10189000224629463046FFF777FF38440090039BE5
:1018A0005246594640460DF041FD00B2D9E704EBDF
:1018B000840253003344B3F802A0554515D822469C
:1018C00001213046FFF760FFC5192246032130464B
:1018D000FFF75AFF3844114B1A8800902B465146A7
:1018E00040460DF023FD00B2BBE722460121304601
:1018F000FFF74AFF00EB070B224603213046FFF7B4
:1019000043FF384400905B462A46514640460DF05E
:101910000DFD00B2A5E70020A3E700BF3EA001082F
:1019200010B5044600F58550FFF766FF04F58254B4
:10193000A37E13F0010F00D010BD00B20DF032FDF8
:1019400080B2F9E72DE9F04F85B0054603911646C0
:101950001C4600F5855819464046FFF704FF371A24
:10196000224600214046FFF70FFFBFB238441FFA5E
:1019700080F9224603214046FFF706FF0744BFB225
:10198000012C34D0474BB3F800A0012C33D0464B88
:10199000B3F800B005F582539B7E13F0010F2ED0F3
:1019A0005A46514603980DF0F5FC1FFA80FA3F4B5A
:1019B000B3F800B0224600214046FFF7DBFE03905B
:1019C000224603214046FFF7D5FE0090039B3A468E
:1019D000494650460DF0AAFC80B2B0EB5B0F25DD06
:1019E000A0EBAB07BFB24FF00008C1463BE0304B65
:1019F000B3F800A0C9E72F4BB3F800B0CAE70FFA5D
:101A000089F00DF0CFFC1FFA80F938B20DF0CAFC56
:101A100087B20FFA8AF00DF0C5FC1FFA80FA0FFAB0
:101A20008BF00DF0BFFC1FFA80FBB9E75F46BBF1FE
:101A3000000F03DB00EBA707BFB2D4E70BF10307EE
:101A4000F8E77B1CB9469FB209E009EB070303EBFB
:101A5000D373C3F34F039F421CD0BB461F4608F10C
:101A600001085FFA88F8B8F1130F17D823463246F9
:101A700039462846FFF754FF82450FD0E5D907EBDA
:101A80000B0303EBD373C3F34F039F42D9D0B94683
:101A90001F46E4E77B1EBB469FB2E0E7384605B031
:101AA000BDE8F08F38A0010836A001083EA001086B
:101AB00034A0010832A001080023032B0ED810B473
:101AC00002EB82041C4430F8144021F81340013327
:101AD000DBB2032BF4D95DF8044B7047704700006C
:101AE00070B40024032C09D831F8146003EB83058B
:101AF000254420F815600134E4B2F3E79C001C444F
:101B000061000C4601444A7203220A72C988044AE1
:101B10001288914201D92044C28070BC704700BF36
:101B20003EA0010830B48B005A18540002194FF43B
:101B30002A7505534FF47174548040F20A5494800E
:101B40004FF4C864D480034C247854720123137278
:101B500030BC704731A0010808B5FFF7E3FF08BDAE
:101B60000A884B889A4207D28A88934206D2CB8849
:101B70009A4205D30020704700207047002070472C
:101B80000120704770B584B041F2C803C358002BE0
:101B900049D00D46044613F81120FF2A0BD100F559
:101BA000855031B10021FFF7BDFF0026304604B05B
:101BB00070BD0121F7E70023694605F033FB48B10A
:101BC00004F5855025B10021FFF7ACFF0026EDE7B5
:101BD0000121F9E79DF8083013F0020F09D104F54F
:101BE000855025B10021FFF79DFF0126DEE7012189
:101BF000F9E704F5855469462046FFF7B1FF06462C
:101C000040B92DB100212046FFF78CFF0126CDE71A
:101C10000121F8E72DB9012269462046FFF78FFD23
:101C2000C4E70022F8E70026C0E770B5054600F5D6
:101C30008256304606F03EFB400016F099FF41F216
:101C4000C803E85098B10024304606F033FB8442C4
:101C50000DDA41F2C803EA58FF2102F81410EB58DC
:101C600003EB440300225A700134E4B2ECE7284647
:101C700005F08DFA044688BB41F2C803E958F9B172
:101C80002846FFF7BFFA064605F582542146284646
:101C900005F042FBB0B121462846FFF765FA002166
:101CA0002846FFF76FFF41F25803E95C2846FFF72B
:101CB00069FF05F58250FFF796FC46B3002070BD22
:101CC0000026E1E705F58250FFF7DCFB41F25804FE
:101CD000295D2846FFF7FEF92855E0E705F582560D
:101CE0003046FFF7CFFB012105F58550FFF71AFFBE
:101CF00001212846FFF746FF3046FFF774FC012C10
:101D000007D0022C01D00020D9E70320D7E701201B
:101D1000D5E70220D3E738B504460D46FFF732FF7A
:101D200000B938BD41F25803E5542046FFF76DFC79
:101D3000F7E72DE9F04184B004460F461D461388AD
:101D4000ADF800305388ADF802309388ADF8043018
:101D5000D388ADF806308DF808509DF928308DF8FD
:101D60000E3041F2C803C3584E0033445D7000F595
:101D7000825006F0A1FA30B18046694604F58550DC
:101D8000FFF7EEFE38B904F586500430FFF746F948
:101D900004B0BDE8F081052241460DF1090017F0BD
:101DA00077F800226946204605F0E6FBB0F100080E
:101DB000E9DB04F586500430FFF708F941F2C80367
:101DC000E25802F81780E3581E447570E0E790F877
:101DD0002101704790F825017047704770477047A0
:101DE000704770477047704770477047704770473B
:101DF00070477047704770477047000038B50A4B0E
:101E00001B783BB100204FF08043586303F58033CB
:101E1000186438BD0446044D1422291D03480DF0F2
:101E200007FC2C700120F4E79C0200208C8D002020
:101E300008B5084614F0EAFF08BD08B5084614F0D6
:101E4000DBFF08BD08B5084614F0CCFF08BD08B597
:101E500014F0BEFF08BD08B514F0B0FF08BD0000C7
:101E6000014B93F82C0070479C02002038B50DF010
:101E7000FFFA00F596751C4B5B6A9BB29C1CA4B2E2
:101E8000632C02D9A3F16104A4B20DF0F1FAA842C7
:101E900007D2154B5B6AA342F7D14FF08043002273
:101EA0005A620DF0E5FA00F596750F4B5B6A9BB22E
:101EB0009C1CA4B2632C02D9A3F16104A4B20DF05E
:101EC000D7FAA84208D2084B5B6AA342F7D14FF079
:101ED0008043586A80B205E04FF08043D86A80B2F0
:101EE000013080B238BD00BF0000014030B585B080
:101EF000234C01210291019100910B4600222046C2
:101F000004F0FDFFA4F51B6400224FF6FF7120468C
:101F100002F088F93B21204602F0DAFC80231949BF
:101F200043F298228B54184A5363022507E0144861
:101F300004F071FFF0B9154802F02AF9B0B9114A5E
:101F400043F61443D45AE4B2A542F0D0104D3E21DA
:101F500028460BF049FFB4FA84F35B09642201467A
:101F6000A5F1640003F08EFC2546E0E705200DF0A6
:101F700085FAE4E7B4FA84F0400905B030BD00BF4B
:101F8000607400206838002000040040006B0020CE
:101F9000146B00202DE9F04186B0044600F5495548
:101FA0000835284602F04AF804F568502C3006F04F
:101FB0006BF804F57150043005F0B2FC4FF4007278
:101FC000334904F56E502C3004F019FF4FF4804271
:101FD000304904F56F50383004F011FF2046FFF708
:101FE00024FE074601283BD90021284602F0EAF8E2
:101FF000204605F03FF804F582586D46012241461F
:102000002846FFF77BFB294604F5685030300CF07A
:1020100018FA03AE002241463046FFF76FFB96E800
:10202000070085E80700294604F5715008300CF0D8
:1020300008FA98F81A30C3F3400143F6C452A15489
:10204000C3F3001104F56E5282F86A10C3F3401313
:1020500004F56F5484F87630384606B0BDE8F08158
:1020600004F586560C3604F54A512C3130460BF0F7
:1020700089FF04F58250FFF731FA014630460CF033
:10208000D0F904F549531968284602F09BF8AFE7E8
:1020900000000240000802402DE9F8437148FFF7B4
:1020A00079FF8046704C0C2120460FF07DFC082102
:1020B00020460FF0D9FB6D4C002120460FF074FC38
:1020C000042120460FF070FC082120460FF0CCFBC5
:1020D0000C2120460FF0C8FB0C2165480FF064FC72
:1020E000644D05F1300605F17C0905F1FC04334629
:1020F0004A463146204609F04BF905F5AA773346A2
:102100003A462146484609F043F9334622462146DD
:10211000384609F03DF923462246214605F5BE70B2
:1021200009F036F905F5EC7723462246394605F5E0
:10213000027009F02DF9234622462146384609F05F
:1021400027F923462246214605F5107009F020F9AB
:1021500023462246214605F51B7009F019F923464E
:102160003246314605F5257009F012F905F530774C
:10217000234622462146384609F00AF923462246DC
:10218000314605F53C7009F003F9234622463146F5
:1021900005F5497009F0FCF82346224621463046F1
:1021A00009F0F6F805F5587633462246214605F53E
:1021B000667009F0EDF8234622462146304609F0C4
:1021C000E7F82346224621462B4809F0E1F83B4632
:1021D0003A46214605F56F7009F0DAF800224FF60D
:1021E000FF71264802F01EF8B8F1020F1ED0B8F1B8
:1021F000030F24D0B8F1010F13D0FFF737FE4FF4CF
:102200007A700DF03BF9174B41F25B02995C43F297
:10221000982299541A4B186803681B689847BDE8C0
:10222000F883174B04F158021A60E6E7114B3B2282
:1022300083F8902203F51B73114A1360DDE7FFF763
:1022400055FE0028D9D0074804F024FF0028D4D137
:10225000084B3F2283F8902203F51B73084A136052
:10226000CBE700BF68380020348E0020D48E0020D9
:10227000FC8C00209C020020B4060020B06A0020E4
:102280000400002038B5354C204605F0D3FE04F597
:10229000067005F0DFFA324B186809F07DF820B1BE
:1022A00004462F4B1B6883422AD12D4D28680368B2
:1022B0005B68984704462B68834215D0002833D0CA
:1022C000264D0021284605F0A1FD002105F50670E8
:1022D00005F09BFB4FF0804300225A63204B1C60AB
:1022E00023681B68204698470DF0C2F81D4BD3F8B1
:1022F000103498421AD21C4801F04AFF48BB38BD3E
:102300001A4D2846FEF76CFE0021A5F5667005F013
:102310007DFD4FF0804300225A63114B1C602368FF
:102320001B6820469847EAE7114CC9E7114A536AEF
:102330000C4CD4F814145B1A18BF012384F82C3009
:10234000536AC4F814340DF093F82930C4F810041B
:10235000D1E705200DF092F8D1E700BF947200207C
:10236000040000209C020020006B00202C7600203E
:10237000080500200000014008B50368144A934294
:1023800003D0B3F1804F0DD008BD027F042AF8D1ED
:10239000104805F0F1FB632200210CF0FBFF0C4B11
:1023A0001864F1E7037F042B05D0082BECD1022041
:1023B000FFF724FDE8E74FF080435B6B23B94FF054
:1023C00080439B6B002BDFD00120FFF717FDDBE77D
:1023D00000000140AC7400200268594B9A4200D0C2
:1023E000704710B586B057480DF0D4F9564B1B789E
:1023F000DBB2022B09D0544B1B78DBB2012B66D029
:10240000514B00221A7006B010BD002301930293B5
:102410000393132B18D8991C4B4A02EB410188886F
:10242000019901440191D91C02EB4101888802996C
:1024300001440291191D02EB41029188039A0A445A
:1024400003920533DBB2E4E7019B02330193019B66
:102450009B080193029B02330293029B9B08029309
:10246000039B02330393039B9B0803930399374811
:102470000CF025FC364A1379013BDBB2137103BB28
:10248000134606221A710124324A41F25A03D35CE0
:1024900013F0400F03D143F64D33D35C9BB1019948
:1024A0002D4805F027FE4FF4F56221460CF072FF2F
:1024B0004FF080435863029989B2284805F071FAB9
:1024C0009EE70024E0E74FF080435C63F3E70023DE
:1024D000049305930FE01C4A02EB4301888804999A
:1024E00001440491591C02EB41029188059A0A4467
:1024F00005920533DBB2132BEDD9049B0233049311
:10250000049B9B080493059B02330593059B9B0842
:1025100005934FF080435B6B5BB94FF080439B6B3F
:10252000002B3FF46DAF059989B20D480CF069FCA2
:1025300066E7049989B20B480CF063FCEDE700BF35
:10254000002001408C8D00209C020020A4730020FC
:10255000040000206838002094720020AC74002031
:10256000C8750020AC7300207047000008B5064B0A
:102570005B6913F0010F00D108BD044804F0D2FCE0
:10258000014B01225A61F7E7003C0140147400201E
:1025900008B5064B5B6913F0020F00D108BD044873
:1025A00004F0C0FC014B02225A61F7E7003C0140F5
:1025B0006074002038B50C461546AC4204D254F87D
:1025C000040B15F0CFFCF8E738BD10B504460368DE
:1025D0003BB1426A04324169FFF7ECFF206815F015
:1025E000C1FC204610BD2DE9F04188461746CE6853
:1025F00004360BE01834A54207D0234653F8080BE5
:102600008342F7D015F0AEFCF4E70436FB68B34222
:1026100003D9346804F5FC75EDE7D8F80C20934233
:102620001DD0D8F80040D8F8085000E01834A54272
:1026300007D0234653F8080B9842F7D015F092FCC8
:10264000F4E77C683D6800E01834A54216D02346C4
:1026500053F8080B9842F7D015F084FCF4E7D8F84B
:1026600000403D6800E01834A54207D0234653F8E7
:10267000080B9842F7D015F075FCF4E7BDE8F0813F
:102680002DE9F04391B00646484B036043F2A01792
:10269000C319C4595D6800E01834A54207D0234629
:1026A00053F8080B9842F7D015F05CFCF4E7F059AA
:1026B00008B115F057FC43F28813F05806F546535D
:1026C0001033984201D015F04DFC06F1240943F275
:1026D000A00809EB0804364B49F80830D4F8A45098
:1026E000D4F8A87007E02B4653F8080B984201D0A5
:1026F00015F038FC4835AF420ED0286B05F1380391
:10270000984201D015F02EFCA86905F120039842EB
:10271000E9D015F027FCE6E7D4F8A40008B115F0DD
:1027200021FC04F15C05286B04F19403984201D06C
:1027300015F018FCA86905F12003984201D015F0A6
:1027400011FCE06D0835A84201D015F00BFC194BC7
:1027500049F8083004F13405E76B206C616CA26C19
:10276000E36C0C970D900E910F920893236D0993D3
:10277000636D0A93A36D0B9308AA0CA92846FFF773
:1027800032FF2846FFF721FFE06904F12403984255
:1027900001D015F0E7FB60680C34A04201D015F0C1
:1027A000E1FB304611B0BDE8F08300BFF09E0108A8
:1027B000F49D0108289E01082DE9F043A1B00646CA
:1027C00043F24823C518714AC25005F2C47014F090
:1027D0006BFC05F5F86013F0B2FA05F2BC7013F06B
:1027E000AEFA06F5685013F0AAFA05F164046835EC
:1027F0000CD004F23C74A54208D01C3C606804F183
:102800000C039842F7D015F0ADFBF4E743F2DC136C
:10281000F5185F4AF25005F13404D5F83C80CDF844
:102820001080D5F840E0CDF814E0D5F844C0CDF8DC
:1028300018C0AF6C0797E86C0090296D01916A6D24
:102840000292AB6D0393CDF83080CDF834E0CDF833
:1028500038C00F97089009910A920B9308AA0CA907
:102860002046FFF7C0FE2046FFF7AFFEE86905F1FE
:102870002403984201D015F075FB68680C35A84216
:1028800001D015F06FFB06F5865808F10C0842F2EE
:10289000600908EB09053F4B48F80930D5F8A4401A
:1028A000D5F8A87007E0234653F8080B984201D0EA
:1028B00015F058FB4834A7420ED0206B04F13803C2
:1028C000984201D015F04EFBA06904F12003984214
:1028D000E9D015F047FBE6E7D5F8A40008B115F0FC
:1028E00041FB05F15C04206B05F19403984201D093
:1028F00015F038FBA06904F12003984201D015F0CF
:1029000031FBE86D0834A04201D015F02BFB204BC1
:1029100048F8093005F13404D5F83C80CDF85080F2
:10292000D5F840E0CDF854E0D5F844C0CDF858C013
:10293000AF6C1797E86C1090296D11916A6D129227
:10294000AB6D1393CDF87080CDF874E0CDF878C0FE
:102950001F97189019911A921B9318AA1CA9204628
:10296000FFF741FE2046FFF730FEE86905F124033A
:10297000984201D015F0F6FA68680C35A84201D0EB
:1029800015F0F0FA304621B0BDE8F083109501084B
:10299000289E0108F49D010870B582B005460E46D8
:1029A00071B1941B01940F2C0FD82868012C15D0FD
:1029B000BCB9019B6B602A680021D15402B070BD84
:1029C0009142EED0094815F0A6FC002201A9284644
:1029D00015F0F8FA2860019BAB60E6E733780370E6
:1029E000E7E72246314616F0E2F8E2E798A301084D
:1029F00038B50C461546AC4206D24FF4FC7015F0C3
:102A0000A0FA44F8040BF6E738BD00002DE9F043C6
:102A100083B004460D46274BA3FB0123CA1A03EBE0
:102A200052031B095E1C0822009203330193934258
:102A30003BD901AB18686060B0F1804F37D280009D
:102A400015F07FFA804620606768BF1B7F0800EBA7
:102A5000870909EB8606324649462046FFF7C8FF3C
:102A6000C4F8149058F82730E36003F5FC72226133
:102A7000321F626256F8042CE26102F5FC71216299
:102A8000A3600C4BA3FB0513E91A03EB51031B09CD
:102A900003EB4303C3EBC303EB1A03EB4303D9007C
:102AA0000A44A26103B0BDE8F0836B46C2E715F0AB
:102AB0002FFC00BF876118862DE9F04F83B00646D2
:102AC000002441F22803C45441F22A034FF48052F7
:102AD000C25241F22C03CF4AC25041F23003CE4AD7
:102AE000C25041F23403CD4AC25041F23803CC4ABD
:102AF000C250DFF8949341F23C0340F8039000F594
:102B00008552C84B03CB506191619846B8E80300E9
:102B1000D061116206F586500430FEF741FA41F2A9
:102B2000C803F45006F586550C3542F26007E819E3
:102B3000DFF858A345F807A000F10C034360846058
:102B4000047300F12403C361046280F824404463E9
:102B50008463C463046444648464C4640465446535
:102B6000846521463430FFF751FFAF4BEB5142F201
:102B7000BC02AB1803F10801A9505C6042F2C40327
:102B8000EC5442F2D402AB1803F10801A9505C6086
:102B900042F2DC03EC5442F2EC02AB1803F1080100
:102BA000A9505C6006F547531C7042F20412AB1842
:102BB000AC505C609C6042F2101B05EB0B0745F8C3
:102BC0000BA007F10C037B60BC603C7307F124038E
:102BD000FB613C6287F824407C63BC63FC633C641B
:102BE0007C64BC64FC643C657C65BC65214607F183
:102BF0003400FFF70BFF8D4B45F80B30FC6542F2BC
:102C00007013EC5406F549531C6042F2781345F8F2
:102C1000039043F24827F519281D14F0B3FE85F8F8
:102C20005040A5F85440AC65EC65A5F8604085F8C7
:102C3000624005F1640385F864407D4A5A6005F1FD
:102C400074029A60DC601C747A4A1A6205F1900280
:102C50005A629C6283F82C40774ADA6305F1AC0231
:102C60001A645C6483F84840744A9A6505F1C801A7
:102C7000D9651C6683F864407149596705F1E40120
:102C80009967DC6783F880406E49C3F8901005F5BA
:102C90008071C3F89410C3F8984083F89C406A4947
:102CA000C3F8AC1005F58E71C3F8B010C3F8B4408A
:102CB00083F8B8406549C3F8C81005F59C71C3F89E
:102CC000CC10C3F8D04083F8D4406149C3F8E41075
:102CD00005F5AA71C3F8E810C3F8EC4083F8F0409A
:102CE0005C49C3F8001105F5B871C3F80411C3F8C5
:102CF000084183F80C415849C3F81C1105F5C67109
:102D0000C3F82011C3F8244183F828415349C3F87C
:102D1000381105F5D470C3F83C01C3F8404183F87D
:102D200044414F48C3F8540105F5E270C3F8580117
:102D3000C3F85C4183F860414A48C3F8700105F567
:102D4000F070C3F87401C3F8784183F87C414648B9
:102D5000C3F88C0105F5FE70C3F89001C3F89441E7
:102D600083F898414148C3F8A80105F50670C3F8F7
:102D7000AC01C3F8B04183F8B4413D48C3F8C40185
:102D800005F50D70C3F8C801C3F8CC4183F8D041F4
:102D90003848C3F8E00105F51470C3F8E401C3F83E
:102DA000E84183F8EC41C3F8FC2105F51B72C3F838
:102DB0000022C3F8044283F808422F4AC3F81822BD
:102DC00005F52272C3F81C22C3F8204283F824427E
:102DD0002A4AC3F8342205F52972C3F83822C3F809
:102DE0003C4283F84042264AC3F8502205F530722F
:102DF000C3F85422C3F8584283F85C42214AC3F80E
:102E00006C2205F53772C3F87022C3F8744283F858
:102E100078423DE098A00108A4A00108B0A00108F4
:102E2000BCA00108E8940108F49D01085C9E01081B
:102E3000C8A00108D4A00108E0A00108ECA0010886
:102E4000F8A0010808A1010818A1010824A101089F
:102E500030A1010840A1010850A1010858A10108B2
:102E600060A101086CA1010874A101087CA10108FE
:102E70008CA1010898A10108A4A10108B0A1010832
:102E8000BCA10108C8A1010828A00108289E0108CA
:102E9000E94AC3F8882205F53E72C3F88C22C3F8CC
:102EA000904283F89442E54AC3F8A42205F545729E
:102EB000C3F8A822C3F8AC4283F8B042E04AC3F892
:102EC000C02205F54C72C3F8C422C3F8C84283F887
:102ED000CC42DC4AC3F8DC2205F55372C3F8E02289
:102EE000C3F8E44283F8E842D74AC3F8F82205F56C
:102EF0005A72C3F8FC22C3F8004383F80443D34A50
:102F0000C3F8142305F56172C3F81823C3F81C43F2
:102F100083F82043CE4AC3F8302305F56872C3F81E
:102F20003423C3F8384383F83C43CA4AC3F84C23DC
:102F300005F56F72C3F85023C3F8544383F8584320
:102F4000C54AC3F8682305F57672C3F86C23C3F845
:102F5000704383F87443C14AC3F8842305F57D7236
:102F6000C3F88823C3F88C4383F89043BC4AC3F862
:102F7000A02305F58262C3F8A423C3F8A84383F80D
:102F8000AC43B84AC3F8BC2305F22C42C3F8C023B3
:102F9000C3F8C44383F8C843B34AC3F8D82305F53C
:102FA0008960C3F8DC03C3F8E04383F8E443C3F863
:102FB000F41305F26441C3F8F813C3F8FC4383F833
:102FC0000044AA49C3F8101405F59061C3F814141D
:102FD000C3F8184483F81C44A549C3F82C1405F21F
:102FE0009C41C3F83014C3F8344483F83844A149F1
:102FF000C3F8481405F59761C3F84C14C3F850445E
:1030000083F854449C49C3F8641405F2D441C3F8CE
:103010006814C3F86C4483F87044C3F8802405F541
:103020009E62C3F88424C3F8884483F88C44934A8E
:10303000C3F89C2405F20C52C3F8A024C3F8A4449E
:1030400083F8A8448E4AC3F8B82405F5A562C3F8EE
:10305000BC24C3F8C04483F8C4448A4AC3F8D424C7
:1030600005F24452C3F8D824C3F8DC4483F8E044A2
:10307000854AC3F8F02405F5AC62C3F8F424C3F81C
:10308000F84483F8FC44814AC3F80C2505F27C52CD
:10309000C3F81025C3F8144583F818457C4AC3F8D3
:1030A000282505F5B362C3F82C25C3F8304583F80D
:1030B0003445784AC3F8442505F2B452C3F848258C
:1030C000C3F84C4583F85045734AC3F8602505F5AD
:1030D000BA62C3F86425C3F8684583F86C456F4A43
:1030E000C3F87C2505F2EC52C3F88025C3F884456B
:1030F00083F888456A4AC3F8982505F5C162C3F884
:103100009C25C3F8A04583F8A445664AC3F8B425B6
:1031100005F22462C3F8B825C3F8BC4583F8C0455E
:10312000614AC3F8D02505F5C862C3F8D425C3F8B1
:10313000D84583F8DC455D4AC3F8EC2505F25C62AE
:10314000C3F8F025C3F8F44583F8F845584AC3F8A6
:10315000082605F5CF62C3F80C26C3F8104683F89D
:103160001446544AC3F8242605F29462C3F828266C
:10317000C3F82C4683F830464F4AC3F8402605F57D
:10318000D662C3F84426C3F8484683F84C464B4AF7
:10319000C3F85C2605F2CC62C3F86026C3F8644627
:1031A00083F86846464AC3F8782605F5DD62C3F819
:1031B0007C26C3F8804683F88446424AC3F89426A6
:1031C00005F20472C3F89826C3F89C4683F8A0461B
:1031D0003D4AC3F8B02605F5E462C3F8B426C3F847
:1031E000B84683F8BC46394AC3F8CC2605F23C728F
:1031F000C3F8D026C3F8D44683F8D846344AC3F877
:10320000E82605F5EB62C3F8EC26C3F8F04683F830
:10321000F446304AC3F8042705F27472C3F808274D
:10322000C3F80C4783F810472B4AC3F8202705F54D
:10323000F262C3F8242751E0D8A10108E8A10108EF
:10324000F4A1010800A2010808A2010810A20108C7
:103250001CA2010828A2010834A2010844A2010806
:1032600050A201085CA2010864A201086CA2010836
:1032700078A2010884A2010890A20108A0A2010876
:10328000A8A20108ACA20108B0A20108B8A20108D6
:10329000C0A20108C8A20108D0A20108D8A2010852
:1032A000E0A20108E4A20108E8A20108ECA20108DA
:1032B000F0A20108F8A2010800A301080CA301086C
:1032C00018A301082CA3010840A3010850A301087A
:1032D00060A3010878A3010890A30108C3F8284758
:1032E00083F82C4798E80300C5F8A00785F8A417D1
:1032F000ED4BF351D5F8E037C5F8A837A5F8AC4742
:103300004FF6FF73A5F8AE374FF47842A5F8B02713
:103310001F22A5F8B2274FF6E072A5F8B42785F86A
:10332000B647C5F8B847C5F8BC47C5F8C047C5F8A3
:10333000C44785F8C837C823A5F8CA37A5F8CC37DD
:103340003C23A5F8CE379623A5F8D0372023A5F83F
:10335000D237D723A5F8D437D44BC5F8D837D44BB8
:10336000C5F8DC37C5F8E03743F62C217318142272
:103370005A601C815C81DC600A221A615A619C617E
:103380000B229A83CB4A127883F8624083F860401C
:1033900083F8612083F8A64083F8A44083F8A52031
:1033A00083F8EA4083F8E84083F8E920A3F8EC408A
:1033B000A3F8EE40A3F8F040A3F8F24083F8F440FD
:1033C000C3F8F84083F8FC4083F8FD40A3F8FE40C2
:1033D000A3F80041A3F80241C3F80441082583F88B
:1033E0000851C3F80C4183F80851C3F80C4183F825
:1033F0001051C3F8144183F81051C3F8144183F8F5
:103400001851C3F81C4183F81851C3F81C4183F8C4
:10341000204183F821414FF4C879A3F822914FF459
:10342000FA77A3F8247183F82851C3F82C4183F864
:103430002851C3F82C4183F8304183F83141A3F877
:103440003291A3F834714FF00A0883F8388183F879
:103450003951A3F83A714FF47A7AA3F83CA10322C8
:1034600083F83E210E2283F83F214FF0140B83F89E
:1034700040B1052283F841214FF0020283F8422136
:103480006422C3F8442140F63C70A3F848018A48FE
:103490007050A3F84A41A3F84C41A3F84E41A3F859
:1034A000504183F8524183F85341A3F8544183F8C3
:1034B0005851C3F85C4183F85851C3F85C4183F814
:1034C0006051C3F8644183F86051C3F8644183F8E4
:1034D0006851C3F86C4183F86851C3F86C4183F8B4
:1034E0007051C3F8744183F87051C3F8744140F2CD
:1034F000CF71A3F87811A3F87AA183F87CB1A3F86F
:103500007E21012300936D4B4FF480726C4906F5C8
:103510006E502C3003F030FC02230093674B4FF4C5
:103520000042684906F56F50383003F025FC43F639
:1035300044417318C3F804B01C815C81DC60C3F89B
:103540001080C3F814809C610B229A83594A127828
:1035500083F8624083F8604083F8612083F8A640D6
:1035600083F8A44083F8A52083F8EA4083F8E84074
:1035700083F8E920A3F8EC40A3F8EE40A3F8F0406C
:10358000A3F8F24083F8F440C3F8F84083F8FC4015
:1035900083F8FD40A3F8FE40A3F80041A3F80241E0
:1035A00083F80441C3F8084183F80C51C3F8104173
:1035B00083F80C51C3F8104183F8144183F8154186
:1035C000A3F81691A3F8187183F81C51C3F8204191
:1035D00083F81C51C3F8204183F8244183F8254126
:1035E000A3F82691A3F82871A3F82C71A3F82EA1B3
:1035F0001E2283F830213C2283F8312183F8328166
:103600000120C3F834013048705083F8384183F802
:10361000394183F83A41A3F83C41A3F83E41C3F84D
:1036200040412A49097883F84451C3F8484183F856
:103630004411C3F8484183F84C51C3F8504183F812
:103640004C11C3F8504183F85451C3F8584183F8E2
:103650005451C3F8584183F85C51C3F8604183F872
:103660005C51C3F8604183F86451C3F8684183F842
:103670006451C3F86841A3F86C41462183F86E1188
:10368000632183F86F114FF41671A3F8701140F2A3
:10369000CF71A3F872114FF4C861A3F874114FF4FD
:1036A0004871A3F8761113E010950108BCA4010835
:1036B000F4AC01083CA00108B49D010800040240DC
:1036C0000000024000080240749D01083BA0010870
:1036D000A3F87821054AC3F87C2106F57750043019
:1036E000FDF75EFC304603B0BDE8F08FE0930400C8
:1036F000012800D070474FF6FF739942FAD12DE9A7
:10370000F04F89B0EF4E3046FFF7D6F9EE4F3A460C
:10371000EE49304614F045FCED4C4FF0010884F8BA
:1037200000810025A4F80851C4F80C51C4F81051C8
:10373000C4F81451C4F81851C4F81C51C4F80461F9
:10374000E44BC4F8FC3094F84E31082284F8202170
:10375000C4F8245184F82031C4F82451C4F8285105
:10376000C4F82C51C4F83051C4F83451A4F838517D
:10377000A4F83A51A4F83C5184F83E5184F83F81B2
:1037800084F8408184F84151C4F84451C4F8485148
:103790004FF4FA73A4F84C31052384F84E3140F607
:1037A000B83BA4F850B140F2DC59A4F852913A4623
:1037B000C94904F1FC0014F0F4FB84F88080A4F8FB
:1037C0008850C4F88C50C4F89050C4F89450C4F891
:1037D0009850C4F89C50C4F88460C04BE367C4F8A8
:1037E000F45084F8F8503A46BD4904F17C0014F0D6
:1037F000D8FB84F85881A4F86051C4F86451C4F827
:103800006851C4F86C51C4F87051C4F87451C4F8CC
:103810005C61B44BC4F85431FF2384F878313A46E4
:10382000B14904F5AA7014F0BCFB84F88081A4F8B7
:103830008851C4F88C51C4F89051C4F89451C4F81C
:103840009851C4F89C51C4F88461A84BC4F87C31E9
:1038500084F8A051A4F8C25184F8C4514FF0030A6F
:10386000A4F8C6A1C4F8C851C4F8CC5184F8D0510A
:103870004FF41673A4F8D231C4F8D4B104F5BE7B6A
:103880003A469B49584614F08CFB84F80C82A4F805
:103890001452C4F81852C4F81C52C4F82052C4F888
:1038A0002452C4F82852C4F81062924BC4F808326B
:1038B00084F82C5284F8365284F83752C4F83852BF
:1038C0000423A4F83C32A4F83E923A468A4904F50F
:1038D000027014F066FB04F5EC7904F502735A46A5
:1038E0003146484608F01CF83A468449484614F0E8
:1038F00058FB84F84482A4F84C52C4F85052C4F8DF
:103900005452C4F85852C4F85C52C4F86052C4F817
:1039100048627B4BC4F84032A4F8645284F8668253
:1039200084F86752C4F868523A46764904F5107034
:1039300014F037FB84F87082A4F87852C4F87C52F3
:10394000C4F88052C4F88452C4F88852C4F88C5227
:10395000C4F874626C4BC4F86C324FF0420984F8BE
:1039600090923A46694904F51B7014F01AFB84F8EA
:103970009882A4F8A052C4F8A452C4F8A852C4F87B
:10398000AC52C4F8B052C4F8B452C4F89C62604B54
:10399000C4F8943284F8B852A4F8BA5284F8BC52ED
:1039A00084F8BD523A465B4904F5257014F0F9FAE3
:1039B00084F8C482A4F8CC52C4F8D052C4F8D452CB
:1039C000C4F8D852C4F8DC52C4F8E052C4F8C86253
:1039D000514BC4F8C032C4F8E45284F8E85284F879
:1039E000E95284F8EA5284F8EB5284F8EC52A4F8D5
:1039F000EEA204F5307B3A464849584614F0D1FA15
:103A000084F8C083A4F8C853C4F8CC53C4F8D05386
:103A1000C4F8D453C4F8D853C4F8DC53C4F8C4630E
:103A20003F4BC4F8BC330623A4F8E03341F288329C
:103A3000C4F8E42384F8E853C4F8EC53C4F8F05312
:103A4000C4F8F453A4F8F853A4F8FA53A4F8FC53B8
:103A5000A4F8FE53A4F80054FA22A4F8022484F82F
:103A60000454A4F80654A4F808344FF4FA63C4F8D4
:103A70000C343A462B4904F56F7014F092FA04F5B1
:103A80003C7ACDF800B004F51073A3F1380231464A
:103A9000504607F05BFF3A462349504614F081FA3E
:103AA00084F89C83A4F8A453C4F8A853C4F8AC5376
:103AB000C4F8B053C4F8B453C4F8B853C4F8A063FE
:103AC00034E000BF6838002000000020B92700085B
:103AD0009C020020089F0108DB1D0008209F0108B0
:103AE000DD1D0008389F0108DF1D0008809F0108C8
:103AF000E11D0008989F0108E31D0008E51D00086E
:103B0000B09F0108E71D0008F89F0108E91D0008A3
:103B1000689F0108EB1D0008C89F0108ED1D000803
:103B2000E09F0108EF1D0008F11D0008A64BC4F836
:103B300098333A46A54904F5667014F032FADFF876
:103B4000C8A28AF80480AAF80C50CAF81050CAF823
:103B50001450CAF81850CAF81C50CAF82050CAF8B5
:103B600008609B4BCAF80030CAF82450AAF82850C5
:103B700043F2C408974B4AF80830974B43F2C80207
:103B80004AF8023043F2CC024AF802501D70183352
:103B900043F2E0024AF8023043F2E4024AF80250EB
:103BA0001D7003F11000056043F2FC034AF8035056
:103BB0000AF544531D6043F204134AF8035043F2DC
:103BC00008134AF8035043F20C134AF8035043F227
:103BD00010134AF8035043F214134AF8035043F207
:103BE00018134AF8035043F21C134AF803502946AD
:103BF000FEF70CFF794B4AF80830794B43F220125C
:103C00004AF8023043F224124AF802501D700AF5B5
:103C1000455343F238124AF8023043F23C124AF854
:103C200002501D70183343F250124AF8023043F22A
:103C300054124AF802501D7043F268134AF80350B8
:103C400043F26C134AF8035043F270134AF80350DE
:103C500043F274134AF8035043F27813614A4AF866
:103C60000320614B93E8030043F27C134AF80300FE
:103C70000AF54653198043F284130AF8035043F2BD
:103C800086132AF8035043F28810584B4AF8003044
:103C900057494FF000030A4601395044FEF77CFEB5
:103CA00043F2A0134AF8035043F2A4134AF8035016
:103CB00043F2A8134AF8035043F2AC130AF80390F6
:103CC00043F2B0134EF660224AF803203A464949BF
:103CD000504614F066F95246314604F5587009F022
:103CE0001DF93D463A46444904F5587014F059F917
:103CF000012284F828230023A4F83033C4F8343395
:103D0000C4F83833C4F83C33C4F84033C4F84433FF
:103D10003746C4F82C633949C4F8241384F848336F
:103D2000A4F84A3384F84C3384F84D2384F84E23A6
:103D300084F84F3384F8503384F8512384F85223A5
:103D400084F8533384F85433802284F8552384F85C
:103D5000563384F8573384F8583384F8593308239A
:103D600084F85A330C2384F85B337823A4F85C334B
:103D700004F549782A462249404614F012F904F124
:103D8000300604F56673069304F53C730593CDF88D
:103D900010B004F51073039304F5AA73029304F5AD
:103DA000EC730193CDF8008004F17C0304F52572D7
:103DB0003946304607F08EFD2A461249304614F047
:103DC000F0F809B0BDE8F08F10A00108F31D00085D
:103DD000F09E0108289E010884370020F49D010808
:103DE000DC37002028A00108009501084438002095
:103DF000C5A3010881260008F51D0008509F010891
:103E0000F71D0008F91D0008B406002010B504468F
:103E1000582114F0CBF8204610BD10B5044680217F
:103E200014F0C4F8204610BD10B50446282114F043
:103E3000BDF8204610BD10B504465C2114F0B6F85C
:103E4000204610BD10B50446382114F0AFF82046C6
:103E500010BD10B50446302114F0A8F8204610BD5E
:103E600010B504462C2114F0A1F8204610BD10B561
:103E70000446282114F09AF8204610BD10B50446D7
:103E80002C2114F093F8204610BD10B504463021C3
:103E900014F08CF8204610BD10B50446542114F0DF
:103EA00085F8204610BD10B50446342114F07EF884
:103EB000204610BD10B50446242114F077F82046A2
:103EC00010BD00002DE9F04391B006464A4B036057
:103ED00043F2A017C319C4595D6800E01834A54225
:103EE00007D0234653F8080B9842F7D014F03AF85D
:103EF000F4E7F05908B114F035F843F28813F0589C
:103F000006F546531033984201D014F02BF806F111
:103F1000240943F2A00809EB0804384B49F808309B
:103F2000D4F8A450D4F8A87007E02B4653F8080B37
:103F3000984201D014F016F84835AF420ED0286BE5
:103F400005F13803984201D014F00CF8A86905F186
:103F500020039842E9D014F005F8E6E7D4F8A4006D
:103F600008B113F0FFFF04F15C05286B04F1940322
:103F7000984201D013F0F6FFA86905F1200398429A
:103F800001D013F0EFFFE06D0835A84201D013F027
:103F9000E9FF1B4B49F8083004F13405E76B206C4E
:103FA000616CA26CE36C0C970D900E910F920893CC
:103FB000236D0993636D0A93A36D0B9308AA0CA953
:103FC0002846FEF710FB2846FEF7FFFAE06904F1E9
:103FD0002403984201D013F0C5FF60680C34A0425E
:103FE00001D013F0BFFF43F2B411304613F0DEFFEF
:103FF000304611B0BDE8F083F09E0108F49D010841
:10400000289E010810B50446382113F0CFFF204642
:1040100010BD10B504463C2113F0C8FF204610BD6A
:1040200010B504464C2113F0C1FF204610BD08B561
:104030004FF6FF710120FFF75BFB08BDF0B583B0C1
:104040000446051DD0F8D817284613F0D8FB0221E6
:10405000284613F0E5FB284613F0A4FC86B21D4960
:10406000284613F041FC811C04F5F767324689B2FB
:10407000684611F031FE6946384611F04AFE68463E
:1040800011F05DFED4F8DC17284613F0B8FB124996
:10409000284613F029FC811C04F5F865324689B2E4
:1040A00001A811F019FE01A9284611F032FE01A85D
:1040B00011F045FE11F072FD012011F063FF0021A7
:1040C00006480DF071FC002384F85030044A536315
:1040D00003B0F0BDC8A30108CCA30108448D0020A3
:1040E0000004004070B50546114B036000F2C47037
:1040F00012F0DAFF05F5F86011F021FE05F2BC7050
:1041000011F01DFE05F5F76011F019FE15F16806B6
:104110000CD005F5F464A64208D01C3C606804F19C
:104120000C039842F7D013F01DFFF4E7284670BD4A
:104130001095010870B50546144B036000F2C47079
:1041400012F0B2FF05F5F86011F0F9FD05F2BC7050
:1041500011F0F5FD05F5F76011F0F1FD15F16806B8
:104160000CD005F5F464A64208D01C3C606804F14C
:104170000C039842F7D013F0F5FEF4E740F2E47137
:10418000284613F013FF284670BD00BF10950108A4
:1041900003780B4A526B934209D8094A526B9342F7
:1041A0000BD2074A536B013B536301207047044A0B
:1041B000536B01335363012070470020704700BFE9
:1041C0000004004070B582B0044601B3C4F8A817DB
:1041D000251DD4F8A817284613F011FB284613F024
:1041E000E1FB86B20E49284613F07EFB811C04F2E7
:1041F000BC74324689B201A811F06EFD01A92046B7
:1042000011F087FD01A811F09AFD02B070BDD0F841
:10421000E037C0F8A837002380F86430D8E700BF43
:10422000C8A3010810B50346064800244463A3F858
:10423000AE17A3F8AC27FF2183F8C817104611F07A
:1042400097FF10BD000400402DE9F04F85B00446F3
:1042500003910293002A7DD1B0F8CE57D4F8BC3731
:10426000002B7AD01E8806F114081FFA88F8D4F8BB
:10427000B837002B73D05B885FFA83FB06F1170712
:10428000BFB2B4F8AE3703222946384612F050F9CF
:104290001FFA8BF9B4F8AE374A462946404612F069
:1042A0001EF806F11A00B4F8AE374A46294680B225
:1042B00012F015F805EB09081FFA88F808F1050A4D
:1042C0001FFA8AFAB4F8AE3708225146384612F07F
:1042D0002FF9029B002B44D0B4F8B0370722514687
:1042E000384612F076F906F1110005F10901B4F82B
:1042F000AE37009303231A4689B280B211F012FF41
:104300001536B6B2691C09F1FF33B4F8AC27009238
:104310009BB2052289B2304611F004FF0A226FF0E9
:10432000630103980BF036F807B2002F1CDD80B252
:10433000291A89B20A31484483B20A3BB4F8B0273B
:1043400000929BB2052289B2304611F0EBFE05B017
:10435000BDE8F08FB0F8D05780E7002683E7002350
:104360008AE7B4F8AC37B9E7ABF10A03009301234D
:1043700000226FF0630138460AF0D8FFC3B2A8EB01
:10438000030189B2029A3AB1B4F8B027009205222B
:10439000304611F0C7FEDAE7B4F8AC27F6E70000C4
:1043A000F0B589B004461646B1F57A7F01D340F2E4
:1043B000E7310A46284907A814F030FD251DD4F836
:1043C000D817284613F01BFA0221284613F028FAC2
:1043D00004F5F76011F0C2FCD4F8B837591D7BB36F
:1043E0001A880023029301930123009307AB284608
:1043F00013F082FA11F08EFDD4F8B83713B31A888F
:10440000801AC0F34F00323080B2EEB1B4F8D0174A
:10441000B4F8AC67B4F8AE77D4F8B847BCB16388E9
:10442000651DB4B1B4F800C0059704960024039448
:104430000294CDF804C0009512F096FA09B0F0BDD0
:104440000022CEE70022DBE7B4F8CE17E0E7002336
:10445000E6E74FF0000CE7E7D4A301082DE9F047A9
:1044600084B0044688469246061DD0F8A817304608
:1044700013F0C5F9304613F095FA87B2414630463D
:1044800013F032FA8146B4F8CA27B4F8AC37009377
:104490003B460021084611F045FEB4F8CA174945CD
:1044A0001ED9A1EB0901C1F34F05B4F8AE37009353
:1044B00043463A462946304613F008FABAF1000F4F
:1044C00010D011F027FDA0F11402B4F8AE3792B26B
:1044D000B4F8D2170A2011F0F9FE04B0BDE8F08755
:1044E0000025E2E705EB090080B20A30A7F10E01D2
:1044F000B4F8AC37B4F8AE270392029310220192BD
:10450000034B00930E2389B280B212F0C7F9D8E7AB
:104510003095010870B586B004460D46642900D96F
:1045200064252D2104F1640009F05EFC052201469A
:1045300003A814F0ADFC03A8FCF72AFD25232A46A6
:10454000144903AD55FA80F014F068FC251DD4F829
:10455000A817284613F053F9284613F023FA86B219
:1045600011F0DEFC811BB4F8CC27B4F8AC37009313
:10457000334689B2002011F0D5FD11F0D1FCB4F81A
:10458000AE37009303AB02460A21284613F09EF98A
:1045900006B070BDD8A301082DE9F04788B00446E5
:1045A0000F469146061DD0F8A817304613F027F99C
:1045B000304613F0F7F91FFA80F8B4F8CCA711F0E1
:1045C000AFFCA0EB080085B211F0A4FCB4F8CC2736
:1045D000821AB4F8AC370093434692B2294650464B
:1045E00011F0A0FD07F109039BB26C2B50D84323B7
:1045F0008DF8143000238DF81530B9F1000F02D179
:1046000046238DF8143011F085FC054605A9304687
:1046100013F06AF92D1AADB2A5F11E091FFA89F936
:1046200011F07EFCB4F8AE37009305AB0246494664
:10463000304613F04BF9263DADB211F071FCA0EB02
:10464000080189B20431B4F8AC37B4F8AE2703924C
:10465000029308220192164B0093052389B2284643
:1046600012F01CF93A46134906A814F0D7FB06A924
:10467000304613F039F92D1AADB211F051FCB4F8EF
:10468000AE37009306AB02462946304613F01EF9BA
:1046900011F040FCA0F11402B4F8AE3792B2B4F8B5
:1046A000D4170A2011F012FE08B0BDE8F08700BF51
:1046B0004C950108E0A301082DE9F04385B00646BA
:1046C00008461746642900D96420D6F8B837DBB10C
:1046D0005C88E2B20A210AF03CFE0546B7B9B6F89A
:1046E000CE7711F017FC1138E4B2B6F8AC3700936E
:1046F000631C0D22394680B211F014FD3C44A4B273
:104700003DB905B0BDE8F0830024E2E7B6F8D07704
:10471000E7E711F0FFFB05381FFA80F811F0FAFB0C
:1047200005381FFA80F9671BBFB211F0F3FBC5F320
:104730008705451BADB2063DADB2B6F8AE37029364
:10474000019700953B464A462146404611F0CAFF74
:10475000D7E7000030B585B004460846184D002262
:1047600029460AF017FE002200925523294600B27E
:104770000AF0DCFDC0B211F07DFC94F8B6370133CD
:1047800003F0030384F8B637D4F8BC27AAB1158820
:104790003235B4F8D01703EBC3035A01094B134465
:1047A000B4F8AC2703900292302201920093134692
:1047B000A8B212F073F805B030BD0025E8E700BFDD
:1047C00018FCFFFF5495010810B584B0D0F8BC3731
:1047D000CBB11C883234B0F8D01790F8B63703EB61
:1047E000C3035A01094B1344B0F8AC2745F2AA2081
:1047F000039002923022019200931346A0B212F06D
:104800004DF804B010BD0024E4E700BF5495010842
:1048100000B585B00246D0F8BC377BB11B88323377
:1048200098B269B9B2F8CE17B2F8AC37009330231A
:104830001A4611F077FC05B05DF804FB0023EEE7A3
:10484000B2F8CE17B2F8AC37B2F8AE2703920293A3
:1048500030220192024B0093134612F01FF8EAE750
:10486000D49901082DE9F04182B005468846061D1D
:10487000D0F8A817304612F0C2FF304613F092F875
:10488000C4B24146304613F02FF8C7B211F042FBD4
:10489000C01B00EBD070A4B2B5F8AE37009343460E
:1048A0002246C0F34F01304613F010F811F032FBEE
:1048B000C01B00EBD07040100A38B5F8AE3707F1D6
:1048C0001402E11C80B211F001FD02B0BDE8F081DC
:1048D00010B50446643009F087FA01462046FFF718
:1048E000C1FF10BDF0B585B00D4616461F469DF8B8
:1048F000283093B1B0F8D0471E3CA4B211F00AFBA7
:104900002838039702961C220192009513462146EF
:1049100080B211F0C3FF05B0F0BD0024EEE7000047
:1049200000B583B0B0F8AC27009145F2AA23034943
:10493000FFF7D8FF03B05DF804FB00BFF49A01084D
:1049400000B583B0B0F8AC2700914FF6FF73034970
:10495000FFF7C8FF03B05DF804FB00BFF49A01083D
:1049600000B583B0B0F8AC27002300934FF4FC638C
:104970000249FFF7B7FF03B05DF804FB649B010831
:1049800000B583B0B0F8AC27002300934FF4FC636C
:104990000249FFF7A7FF03B05DF804FBD49B0108B1
:1049A00000B583B0B0F8AC27002300934FF4FC634C
:1049B0000249FFF797FF03B05DF804FB449C010830
:1049C00000B583B0B0F8AC27002300931F23034940
:1049D000FFF788FF03B05DF804FB00BF449C0108AB
:1049E00000B583B0B0F8AC27002300934FF47843B0
:1049F0000249FFF777FF03B05DF804FBB49C0108A0
:104A00002DE9F04383B005461C4F0A461C49384641
:104A100014F004FA2E1DD5F8A817304612F0EFFE58
:104A2000304612F0BFFF1FFA80F83946304612F0C8
:104A30005BFF0446B5F8CA9711F06CFAB5F8CA27BF
:104A4000821A08F10703B5F8AC1700919BB292B235
:104A50000021484611F066FB11F05CFA011B89B297
:104A60001439B5F8AE3700933B46424689B230461A
:104A700012F02CFF03B0BDE8F08300BF30760020B9
:104A8000E0A3010830B583B004460D4610460A2263
:104A90006FF031010AF07EFC00B2002812DB002129
:104AA000009155230A220AF041FCC0B211F0E2FA4B
:104AB000B4F8AC270095034607492046FFF712FFDC
:104AC00003B030BD55230093AA2300226FF03101BB
:104AD0000AF02CFCC0B2E9E7F49A0108F0B583B003
:104AE00004460F4610461E46BDF820501A46294679
:104AF0000AF050FC0023009355233246294680B229
:104B00000AF014FCC0B211F0B5FAB4F8AC27009763
:104B1000034603492046FFF7E5FE03B0F0BD00BFA2
:104B2000F49A01082DE9F04F93B007460E460B9119
:104B300093460E939DF870300F93031D1D46089306
:104B4000D0F8A817184612F05AFE284612F02AFF8D
:104B50005FFA80F808F10A085FFA88F808F10C0299
:104B6000099211F0D7F90446284612F01BFFA4F170
:104B7000640182B289B211A811F0AEF807F16403A2
:104B80000A933146184609F045F9814606280BD9A3
:104B90004FF0060A0E9B83B11B788BB1BAF1060F5A
:104BA00004D0012307930DE08246F3E70AF1FF3AB0
:104BB0005FFA8AFA0123079304E00023079301E0D8
:104BC00000230793CAF34706ABEB0606F6B201369D
:104BD00076B2B9F1010F01D95E4505D0002E07DB91
:104BE00000250D950C9627E00BF1FF3676B2F5E720
:104BF0004E4476B2F4E700223AE0B7F8AC67B7F873
:104C0000AEC75C454AD0119B002B4FD01A88119833
:104C100000284DD04388441D00284BD00088CDF893
:104C200014C0049600260396029601900094322048
:104C300011F09AFE0135EDB2AA453DD90C9B55FA0B
:104C400083F4E4B2A14502D8A4EB0904E4B20B9BBF
:104C5000E118C9B20131C9B20A9809F0C5F806468F
:104C600011A811F07BF8119B591D002BC3D01A8895
:104C7000002302930A20019000933346089812F013
:104C80003BFE099B05FB083189B2079B002BB4D082
:104C90000D9B002BB1D0414489B2AEE708EB010374
:104CA0009BB20D93334666469C46ACE70022AEE7C6
:104CB0000023B0E70020B2E7079BDBB9079B9BB955
:104CC000BAF1050F10D81AFB08F1099B13FA81F10C
:104CD00089B2119B002B5FD01A88B7F8AC370093CC
:104CE0004346322011F01EFA11A811F028F813B033
:104CF000BDE8F08F11A811F031F8119B591D23B3B5
:104D00001A88002302930193022300930E9B0898B4
:104D100012F0F2FD0F9B03BB119BC3B11A88B7F8C9
:104D2000AC57B7F8AE67119999B14B88481D91B14E
:104D30000C8805960495002103910291019400903E
:104D40000D99322011F010FEB8E70022D9E70022B9
:104D5000E5E70023EAE70024EBE7119BB3B11A88EB
:104D6000B7F8AC57119999B14B88481D91B10C888F
:104D70004FF478410591049500210391029101942B
:104D800000900D99322011F0EFFD97E70022E7E740
:104D90000023EAE70024EBE700229EE72DE9F04F2D
:104DA0008FB04E680B68F61AF610594B03FB06F6E7
:104DB000B4B2944202D20FB0BDE8F08F17460B9206
:104DC0000A918046031D0993D0F8A8179946184602
:104DD00012F015FD484612F0E5FDC0B20A30C1B22E
:104DE00006910C31079111F095F80546484612F0EE
:104DF000D9FDA5F1640182B289B20DA810F06CFF53
:104E00004FFA87FBE41BA4B2052C03D8A6F1060BCE
:104E10004FFA8BFBBBF1000F09DBB3B20893A3EB96
:104E20000B03062B06DCF6B20024B24620E04FF05E
:104E3000000BF2E70626F7E7002238E00D9B002B77
:104E400047D01A880D99002945D04B88481D002964
:104E500043D00D88CDF8149004960021039102915F
:104E6000019500903946322011F07EFD0134E4B204
:104E7000544534D254FA8BF5EDB20DA810F06EFF04
:104E8000069B079A04FB0327BFB2B8F8AC67B8F8D3
:104E9000AE97089B9D42D1DC0A9B196805EB450241
:104EA000D300CB580D9A511D002AC5D0128800207E
:104EB00002904FF00A0CCDF804C00090099812F04F
:104EC0001BFD0B9B9D42B9D1B8F8AE67B8F8AC9703
:104ED000B4E70022B6E70023B8E70025BAE7564654
:104EE000052E0ED8069B079A0AFB0326B1B20D9B2E
:104EF0005BB11A88B8F8AC370093069B322011F0EA
:104F000011F90DA810F01BFF55E70022F2E700BFD2
:104F1000ABAAAAAA2DE9F04F91B004460791174613
:104F20001E46051DD0F8A817284612F068FC284632
:104F300012F038FDC0B20530C3B21A46069394F899
:104F4000C837B34240F0B280B7F5805F01D340F676
:104F5000FF7710F0E5FFBDF81880A0EB08001FFAFE
:104F600080FA10F0D7FF8346A0F140091FFA89F9B3
:104F7000B7F5006F00F263812823009300234FF4FC
:104F80000062194638460AF0D1F987B2CDF8009090
:104F9000282340F6FF7240F601014FF461600AF0E9
:104FA000C5F9C6B22036F6B2AAEB08081FFA88F88F
:104FB000A8F10F01ABF13602B4F8AE370193052327
:104FC00000930A2392B289B21B2011F092F9A8F142
:104FD0000A0B1FFA8BFBB4F8B0370A2259461C2083
:104FE00011F0F7FAB4F8AE370A2259461C2011F036
:104FF0009FFAA8F10E0B1FFA8BFBB4F8B0370093A1
:1050000008233A465946202011F08CF809F1FF3365
:105010009F42C0F22081B6B2701EA8F10501B4F81B
:10502000AE3700930623032289B280B211F07AF8DA
:10503000079A90490EA813F0F1FE10AF432327F80A
:105040000C3D0EA9284612F04FFC8146C0F34F03D9
:10505000F61AB6B2B4F8AE3700930EAB52463146EC
:10506000284612F033FC4E44B6B2B01D08F10408D5
:10507000B4F8AC37B4F8AE27039202930822019239
:105080007D4B009305231FFA88F180B211F006FCD6
:1050900006F10E01B4F8AE3700933B46524689B292
:1050A000284612F013FC11B0BDE8F08F84F8C867F1
:1050B0001FFA82F808F13C0910F02CFF1438009018
:1050C00000236422194630460AF030F983B208936F
:1050D0002823009300236422194630460AF026F95B
:1050E000C3B2099310F016FF0A381FFA80FA10F0C5
:1050F00011FF0A3880B208F1140BB4F8AC370293F0
:10510000CDF804B000904B46524649460A2011F0B3
:10511000E9FA10F0FFFE0A381FFA80FA10F0FAFEE2
:105120000A3880B2B4F8AE370293CDF804B00090DC
:105130004B46524649460A2011F0B3FA002E59D187
:10514000002E69D02E2104F1640008F04DFE834644
:10515000FBF71EFF5FFA80FABAF1040F01D94FF096
:10516000040A524659460AA813F092FE25233246F5
:1051700042490AA8504413F051FE04F5F76010F0BC
:10518000EDFDD4F8B837591D002B4FD01A880023F5
:1051900002930193012300930AAB284612F0ACFB63
:1051A00010F0B8FED4F8B837002B41D01A88801A16
:1051B00000EBD070C0F34F00C84408F10A01B4F806
:1051C000AC87B4F8AE97D4F8B8679EB3738806F18D
:1051D000050C8EB3B6F800E0CDF81490CDF8108031
:1051E000002603960296CDF804E0CDF800C011F039
:1051F000BBFBA9E6089A0A3292B2099BA9EB03030A
:105200009BB2B4F8AE170291019300924B46494607
:105210000A2011F067FA93E72C2104F1640008F0EA
:10522000E3FD01460AA813F0F9FDA6E70022AEE768
:105230000022BCE70023CAE74FF0000ECCE7CDF810
:105240000090282340F6FF7240F6010138460AF02C
:105250006DF887B29AE607F12000A9EB0702B4F8CF
:10526000AC370093082392B2594680B210F05AFF2F
:10527000D1E600BFE4A301084C950108D8A30108BA
:105280002DE9F04184B00546041DD0F8A81720464A
:1052900012F0B5FA204612F085FBC4B20534E4B230
:1052A0001E3410F03DFE001B80B2461FB6B216F051
:1052B000010F01D1063886B210F02CFED5F8BC37AC
:1052C000002B39D01C88041BA4B2363CA4B2214662
:1052D00005F1540002F0C3F9074648B3D5F8C437C6
:1052E0000BB11B8823BB05F2C4780223324621464A
:1052F00003A811F097FE03A9404611F0BFFE03A8D2
:1053000011F0D2FEB5F8AC37ADF80430B5F8AE37D1
:10531000ADF80630B5F8B037ADF80830B5F8B237AB
:10532000ADF80A3004220DEB0201404611F0E5FE13
:10533000384604B0BDE8F0810024C4E72DE9F04F01
:1053400089B0044605910692079300F10408D0F84D
:10535000A817404612F053FA404612F023FBC6B29B
:105360000536F6B206F11E0910F0DAFDA0EB0900D1
:1053700080B2451FADB215F0010F01D1851FADB24E
:105380006D08D4F8BC37002B00F0B4801F8807F1FB
:1053900013039BB2049307F1050A1FFA8AFA59FA1C
:1053A00085F510F0B7FDA0F14602B4F8AE3792B221
:1053B0002946504610F08AFF10F0ACFDD4F8BC37F7
:1053C000002B00F099801B88184480B24138A91E38
:1053D000B4F8AC37B4F8AE27039202934FF0080A42
:1053E000CDF804A0DFF824B10BF61C0300930523CD
:1053F000524689B280B211F051FA10F08BFDA0F143
:1054000014016A1FB4F8AE3700933F4B92B289B2D1
:10541000404612F05BFA10F083FDA0F10C02B4F8E4
:10542000AE3792B20A21049810F059FF07F111002B
:10543000B4F8AC37B4F8AE2703920293CDF804A0C9
:105440000BF62403009353460522114680B211F057
:1054500025FA0F37BFB2B4F8B037092249463846AB
:1054600010F034FFB4F8B237092206EB09013846D0
:1054700010F02CFFD4F8BC37002B3FD019880F391F
:10548000B4F8B0370093069B324689B2404612F01A
:105490001DFAD4F8BC379BB319881E31B4F8B23763
:1054A0000093079B324689B2404612F00FFAD4F8B7
:1054B000BC373BB31D880544ADB21E35ADB2DDF837
:1054C00014904946404612F00FFA074610F022FDAC
:1054D000401BC01B00EBD07005EB6000B4F8AE378A
:1054E00000934B46324681B2404612F0EFF909B0C4
:1054F000BDE8F08F00274AE7002365E70021BEE7FB
:105500000021CAE70025D6E760A601080895010832
:105510002DE9F0478AB08046022946D908F10405F2
:10552000D8F8A817284612F06AF9284612F03AFA75
:105530005FFA80FA03A9284612F0D6F9814610F0E6
:10554000E9FCA0EB0900C0F34F0710F0E9FC00EB09
:1055500040000646002831DBC6F38F06284612F0CD
:1055600021FA04B2284612F025FA04FA80F1A7F1D4
:105570000A00C9B2711A89B20A3909F11402B8F8DD
:10558000AC3700930AF1140392B289B280B210F0E2
:10559000C9FDB8F8AE37009303AB3246394628460A
:1055A00012F094F90AB0BDE8F087054B03EB8101D6
:1055B000D1F82C1803A813F031FCAFE7C61CCBE7D9
:1055C000089501082DE9F04F8BB005468A469146B3
:1055D000071DD0F8A817384612F011F939212846CE
:1055E000FFF776F9384612F0DDF9C6B20536F6B2A5
:1055F00006F10C0810F08EFC0446384612F0D2F981
:10560000A4F1640182B289B206A810F065FB0024FF
:105610001FE0002231E07346E6469C463CE0002253
:1056200041E0002300F1050B002841D00088CDF8AF
:1056300014E0CDF810C04FF0000CCDF80CC0CDF840
:1056400008C00190CDF800B0322011F08DF901347E
:10565000E4B2022C2ED81A4B03EB84033AF8142040
:10566000D3F82C1807A813F0D9FB06A810F076FB86
:10567000069B591D002BCCD01A88002302930520CD
:105680000190009307AB384612F036F9B5F8AEE753
:10569000B5F8ACC74C45BED004FB068189B2069B69
:1056A000002BBCD01A8806980028BAD04388B9E7E6
:1056B0000020BCE706A810F042FB0BB0BDE8F08F5D
:1056C0000895010870B582B004460E46051DD0F855
:1056D000A817284612F093F810F022FCA0F132022D
:1056E000B4F8B4370093334692B26421284612F0DE
:1056F000EDF802B070BD10B50446D0F8C4370BB158
:105700001B8823B904F1540001F0D8FF10BD00F24A
:10571000C47011F0C9FCF5E72DE9F04F87B083465E
:105720000D46049200F164043821204608F05CFB29
:105730000646BBF8AC0710F01BFD2946204608F0D2
:1057400053FB037803B304460BF104031D46039394
:10575000DBF8A817184612F052F8284612F022F982
:1057600080B2053083B205932046FBF711FCC7B227
:10577000781C13F0FDF9804658B3214613F06EFBF8
:1057800000264FF0010964E00BF10404DBF8A817D0
:10579000204612F034F80321204612F041F8314639
:1057A000204612F0A1F8054610F0B4FB451BC5F3E6
:1057B0004F0510F0B5FBBBF8AE3700933346C0F38E
:1057C0004F022946204612F081F80121204612F0AE
:1057D00027F807B0BDE8F08F25466C1CE4B2A7425D
:1057E00003D918F804300A2BF6D1A74202D90023B6
:1057F00008F8043046443146039812F075F85FFA11
:1058000080FA10F087FB824528DA10F083FBA0EBCA
:105810000A0000EBD070059B19FB03F2049B13FAFE
:1058200082F2BBF8AE370093334692B2C0F34F0119
:10583000039812F04BF809F101095FFA89F9B9F1FF
:10584000070F1BD8A74202D90A2308F804300235F3
:10585000EEB2BE4212D2751CEDB2BEE7059B19FB3B
:1058600003F2049B13FA82F2BBF8AE37009333467F
:1058700092B20021039812F029F8DCE7404613F0B9
:105880007FF9A6E72DE9F04F89B005460E4691460F
:105890009846031D1C460793D0F8A817184611F028
:1058A000AEFF204612F07EF887B20537BFB2314610
:1058B000204612F019F8044610F02CFB844218D34D
:1058C0000021B5F8AE37009333464A46079811F0E9
:1058D000FDFF10F01FFBD5F8BC3783B11E88801B7D
:1058E000334E86FB0036A6EBE076B6B20024BB460C
:1058F00047E010F00FFB001BC0F34F01E1E700266B
:10590000EDE7B5F8AC7742E0B5F8AEA705F2BC70AC
:1059100010F024FA274B03EB8403D3F83838D5F87A
:10592000BC27511D002A37D0128800200290019018
:1059300001200090079811F0DFFFA1B2D5F8BC3725
:1059400063B31A88B01810FB01F0304480B20BEB3F
:10595000090189B2D5F8BC3713B3B3F802C003F11B
:10596000050E03B31B88CDF814A0049700270397F6
:1059700002970193CDF800E0634610F0F5FF013483
:10598000E4B2012C11D8A045BBD0B5F8AE77A04544
:10599000BAD0B5F8ACA7B9E70022C6E70022D1E734
:1059A0004FF0000CDBE70023DDE709B0BDE8F08F26
:1059B00056555555089501082DE9F0438BB007461B
:1059C000061DD0F8A817304611F019FF304611F027
:1059D000E9FF85B26A1D1FFA82F8B7F8AC0710F02C
:1059E000C7FB0A213846FEF773FF1135ACB2DFF86A
:1059F000A8904946304611F077FF054610F08AFA24
:105A0000411B08EB0402B7F8AE3700934B4692B245
:105A1000C1F34F01304611F059FF02AD1B4A1C493A
:105A2000284613F0FBF92946304611F05DFF814608
:105A300010F070FAA0EB090104EB4802B7F8AE379A
:105A400000932B4692B2C1F34F01304611F03EFF56
:105A5000104B93E8070085E807002946304611F00F
:105A600043FF814610F056FAA0EB090108EB48020B
:105A70002244B7F8AE3700932B4692B2C1F34F01E0
:105A8000304611F023FF0BB0BDE8F083FCA3010802
:105A900004A4010814A40108E8A301082DE9F04FAB
:105AA0008DB006468A4693461D469DF858300693AB
:105AB0009DF85C300793071DD0F8DC17384611F0CD
:105AC0009EFE384611F06EFF5FFA80F808F1050877
:105AD0005FFA88F808F10C0910F01CFAC0F34F04C3
