:020000040800F2
:1000000000000120E1F3000835F2000837F2000893
:1000100039F200083BF200083DF200080000000041
:100020000000000000000000000000003FF2000897
:1000300041F200080000000043F2000845F2000809
:1000400031F4000831F4000831F4000831F40008FC
:1000500031F4000831F40008C1350008E535000826
:1000600031F4000831F4000831F4000831F40008DC
:1000700031F4000831F4000831F4000831F40008CC
:1000800031F4000831F4000831F4000800000000E9
:1000900000000000000000000000000031F4000833
:1000A00031F4000831F4000831F400084DF2000882
:1000B0005DF2000831F4000831F4000831F4000862
:1000C00031F4000831F4000831F4000831F400087C
:1000D00031F4000831F4000831F400080000000099
:1000E00031F4000831F4000831F400080000000089
:1000F00000000000000000000000000031F40008D3
:100100000000000031F4000831F4000831F4000868
:1001100000000000000000000000000000000000DF
:100120006DF2000831F4000831F400087DF2000897
:1001300031F4000800000000000000000000000092
:1001400000000000000000000000000031F4000882
:1001500031F4000831F4000831F4000831F40008EB
:1001600031F4000831F40008000000000000000035
:10017000000000000000000000000000000000007F
:100180000000000031F40008000000000000000042
:0401900031F400083E
:1001A00010B5054C237833B9044B13B10448AFF3B1
:1001B00000800123237010BD7002002000000000A9
:1001C000849A010808B5034B1BB103490348AFF3F8
:1001D000008008BD0000000074020020849A01081D
:1001E00010F8012B11F8013B012A28BF9A42F7D0E1
:1001F000D01A70470000000000000000000000005E
:1002000001F0FF01102A2BDB10F0070F08D010F8C7
:10021000013B013A8B422DD010F0070F42B3F6D1CB
:10022000F0B441EA012141EA014122F007047FF0E4
:1002300000070023F0E80256083C85EA010586EA3B
:10024000010685FA47F5A3FA87F586FA47F6A5FA77
:1002500087F68EB9EED1F0BC01F0FF0102F0070283
:1002600032B110F8013B013A83EA010313B1F8D12E
:100270000020704701387047002D06BF354603380F
:10028000073815F0010F07D1013015F4807F02BF48
:10029000013015F4C03F0130F0BC0138704700BF99
:1002A000034613F8012B002AFBD1181A01387047B6
:1002B00081F0004102E000BF83F0004330B54FEA17
:1002C00041044FEA430594EA050F08BF90EA020F84
:1002D0001FBF54EA000C55EA020C7FEA645C7FEA17
:1002E000655C00F0E2804FEA5454D4EB5555B8BF3A
:1002F0006D420CDD2C4480EA020281EA030382EAAB
:10030000000083EA010180EA020281EA0303362D3C
:1003100088BF30BD11F0004F4FEA01314FF4801C0F
:100320004CEA113102D0404261EB410113F0004F21
:100330004FEA03334CEA133302D0524263EB4303D8
:1003400094EA050F00F0A780A4F10104D5F1200E76
:100350000DDB02FA0EFC22FA05F2801841F10001D1
:1003600003FA0EF2801843FA05F359410EE0A5F1A5
:1003700020050EF1200E012A03FA0EFC28BF4CF0D6
:10038000020C43FA05F3C01851EBE37101F000458C
:1003900007D54FF0000EDCF1000C7EEB00006EEB99
:1003A0000101B1F5801F1BD3B1F5001F0CD3490823
:1003B0005FEA30004FEA3C0C04F101044FEA44527A
:1003C00012F5800F80F09A80BCF1004F08BF5FEA01
:1003D000500C50F1000041EB045141EA050130BDE1
:1003E0005FEA4C0C404141EB0101013C28BFB1F5F3
:1003F000801FE9D291F0000F04BF01460020B1FA3E
:1004000081F308BF2033A3F10B03B3F120020CDA10
:100410000C3208DD02F1140CC2F10C0201FA0CF0EE
:1004200021FA02F10CE002F11402D8BFC2F1200C53
:1004300001FA02F120FA0CFCDCBF41EA0C01904009
:10044000E41AA2BF01EB0451294330BD6FEA040452
:100450001F3C1CDA0C340EDC04F11404C4F120023D
:1004600020FA04F001FA02F340EA030021FA04F34F
:1004700045EA030130BDC4F10C04C4F1200220FAA6
:1004800002F001FA04F340EA0300294630BD21FAE4
:1004900004F0294630BD94F0000F83F4801306BFAA
:1004A00081F480110134013D4EE77FEA645C18BF9E
:1004B0007FEA655C29D094EA050F08BF90EA020F35
:1004C00005D054EA000C04BF1946104630BD91EA2D
:1004D000030F1EBF0021002030BD5FEA545C05D130
:1004E0004000494128BF41F0004130BD14F580046F
:1004F0003CBF01F5801130BD01F0004545F0FE41E3
:1005000041F470014FF0000030BD7FEA645C1ABF17
:10051000194610467FEA655C1CBF0B46024650EA4E
:10052000013406BF52EA033591EA030F41F400217A
:1005300030BD00BF90F0000F04BF0021704730B500
:100540004FF4806404F132044FF000054FF00001D5
:1005500050E700BF90F0000F04BF0021704730B596
:100560004FF4806404F1320410F0004548BF40426B
:100570004FF000013EE700BF42004FEAE2014FEAC0
:1005800031014FEA02701FBF12F07F4393F07F4F9B
:1005900081F06051704732F07F4208BF704793F09E
:1005A0007F4F04BF41F40021704730B54FF46074B1
:1005B00001F0004521F000411CE700BF50EA0102B4
:1005C00008BF704730B54FF000050AE050EA01025D
:1005D00008BF704730B511F0004502D5404261EBCD
:1005E00041014FF4806404F132045FEA915C3FF40E
:1005F000D8AE4FF003025FEADC0C18BF03325FEAAB
:10060000DC0C18BF033202EBDC02C2F1200300FA5B
:1006100003FC20FA02F001FA03FE40EA0E0021FA80
:1006200002F11444BDE600BF70B54FF0FF0C4CF46E
:10063000E06C1CEA11541DBF1CEA135594EA0C0F20
:1006400095EA0C0F00F0DEF82C4481EA030621EA5B
:100650004C5123EA4C5350EA013518BF52EA033596
:1006600041F4801143F4801338D0A0FB02CE4FF048
:100670000005E1FB02E506F00042E0FB03E54FF078
:100680000006E1FB03569CF0000F18BF4EF0010E70
:10069000A4F1FF04B6F5007F64F5407404D25FEA6C
:1006A0004E0E6D4146EB060642EAC62141EA55511F
:1006B0004FEAC52040EA5E504FEACE2EB4F1FD0C61
:1006C00088BFBCF5E06F1ED8BEF1004F08BF5FEADF
:1006D000500E50F1000041EB045170BD06F0004691
:1006E00046EA010140EA020081EA0301B4EB5C043E
:1006F000C2BFD4EB0C0541EA045170BD41F4801136
:100700004FF0000E013C00F3AB8014F1360FDEBF5A
:10071000002001F0004170BDC4F10004203C35DA36
:100720000C341BDC04F11404C4F1200500FA05F3B9
:1007300020FA04F001FA05F240EA020001F000425A
:1007400021F0004110EBD37021FA04F642EB0601D0
:100750005EEA430E08BF20EAD37070BDC4F10C04FA
:10076000C4F1200500FA04F320FA05F001FA04F2BE
:1007700040EA020001F0004110EBD37041F10001AA
:100780005EEA430E08BF20EAD37070BDC4F12005B5
:1007900000FA05F24EEA020E20FA04F301FA05F21D
:1007A00043EA020321FA04F001F0004121FA04F2C5
:1007B00020EA020000EBD3705EEA430E08BF20EA95
:1007C000D37070BD94F0000F0FD101F000464000CF
:1007D00041EB010111F4801F08BF013CF7D041EA51
:1007E000060195F0000F18BF704703F00046520055
:1007F00043EB030313F4801F08BF013DF7D043EA26
:100800000603704794EA0C0F0CEA135518BF95EADB
:100810000C0F0CD050EA410618BF52EA4306D1D162
:1008200081EA030101F000414FF0000070BD50EA81
:10083000410606BF1046194652EA430619D094EA0B
:100840000C0F02D150EA013613D195EA0C0F05D1F5
:1008500052EA03361CBF104619460AD181EA030149
:1008600001F0004141F0FE4141F470014FF0000001
:1008700070BD41F0FE4141F4780170BD70B54FF09C
:10088000FF0C4CF4E06C1CEA11541DBF1CEA13551C
:1008900094EA0C0F95EA0C0F00F0A7F8A4EB0504FE
:1008A00081EA030E52EA03354FEA013100F08880F5
:1008B0004FEA03334FF0805545EA131343EA1263BE
:1008C0004FEA022245EA111545EA10654FEA002673
:1008D0000EF000419D4208BF964244F1FD0404F52C
:1008E000407402D25B084FEA3202B61A65EB030588
:1008F0005B084FEA32024FF480104FF4002CB6EB45
:10090000020E75EB030E22BFB61A754640EA0C00C4
:100910005B084FEA3202B6EB020E75EB030E22BF04
:10092000B61A754640EA5C005B084FEA3202B6EB45
:10093000020E75EB030E22BFB61A754640EA9C0004
:100940005B084FEA3202B6EB020E75EB030E22BFD4
:10095000B61A754640EADC0055EA060E18D04FEA92
:10096000051545EA16754FEA06164FEAC30343EA32
:1009700052734FEAC2025FEA1C1CC0D111F4801FFF
:100980000BD141EA00014FF000004FF0004CB6E7F8
:1009900011F4801F04BF01430020B4F1FD0C88BF97
:1009A000BCF5E06F3FF6AFAEB5EB030C04BFB6EBA2
:1009B000020C5FEA500C50F1000041EB045170BD95
:1009C0000EF0004E4EEA113114EB5C04C2BFD4EBC2
:1009D0000C0541EA045170BD41F480114FF0000E46
:1009E000013C90E645EA060E8DE60CEA135594EAC2
:1009F0000C0F08BF95EA0C0F3FF43BAF94EA0C0FC5
:100A00000AD150EA01347FF434AF95EA0C0F7FF439
:100A100025AF104619462CE795EA0C0F06D152EA8D
:100A200003353FF4FDAE1046194622E750EA410671
:100A300018BF52EA43067FF4C5AE50EA41047FF482
:100A40000DAF52EA43057FF4EBAE12E74FF0FF3CE7
:100A500006E000BF4FF0010C02E000BF4FF0010CB8
:100A60004DF804CD4FEA410C7FEA6C5C4FEA430C31
:100A700018BF7FEA6C5C1BD001B050EA410C0CBF80
:100A800052EA430C91EA030F02BF90EA020F0020E2
:100A9000704710F1000F91EA030F58BF994208BF49
:100AA00090422CBFD8176FEAE37040F00100704706
:100AB0004FEA410C7FEA6C5C02D150EA013C07D15D
:100AC0004FEA430C7FEA6C5CD6D152EA033CD3D0A8
:100AD0005DF8040B704700BF8446104662468C46A2
:100AE0001946634600E000BF01B5FFF7B7FF0028D5
:100AF00048BF10F1000F01BD4DF808EDFFF7F4FFFE
:100B00000CBF012000205DF808FB00BF4DF808ED88
:100B1000FFF7EAFF34BF012000205DF808FB00BFAB
:100B20004DF808EDFFF7E0FF94BF012000205DF8CD
:100B300008FB00BF4DF808EDFFF7CEFF94BF012082
:100B400000205DF808FB00BF4DF808EDFFF7C4FF7B
:100B500034BF012000205DF808FB00BF4FEA410CC4
:100B60007FEA6C5C02D150EA013C0AD14FEA430CA7
:100B70007FEA6C5C02D152EA033C02D14FF00000E4
:100B800070474FF0010070474FEA410212F5001222
:100B900015D211D56FF47873B3EB625212D94FEAC4
:100BA000C12343F0004343EA505311F0004F23FAAE
:100BB00002F018BF404270474FF00000704750EA03
:100BC000013005D111F0004008BF6FF000407047C0
:100BD0004FF00000704700BF4A0011D212F500121A
:100BE00011D20DD56FF47873B3EB62520ED44FEA85
:100BF000C12343F0004343EA505323FA02F0704705
:100C00004FF00000704750EA013002D14FF0FF3042
:100C100070474FF0000070474FEA4102B2F1E043E5
:100C200024BFB3F5001CDCF1FE5C0DD901F0004CD3
:100C30004FEAC0024CEA5070B2F1004F40EB830023
:100C400008BF20F00100704711F0804F21D113F14F
:100C50003872BCBF01F00040704741F480114FEA88
:100C60005252C2F11802C2F1200C10FA0CF320FA11
:100C700002F018BF40F001004FEAC1234FEAD3232E
:100C800003FA0CFC40EA0C0023FA02F34FEA430398
:100C9000CCE77FEA625307D150EA01331EBF4FF021
:100CA000FE4040F44000704701F0004040F0FE403C
:100CB00040F40000704700BF53B94AB9002908BF8B
:100CC00000281CBF4FF0FF314FF0FF3000F06AB931
:100CD000ADF1080C6DE904CE00F006F8DDF804E093
:100CE000DDE9022304B070472DE9F047089D0C466A
:100CF000002B4ED194468C458646B2FA82F262D9D8
:100D00004AB1C2F12003914020FA03F30CFA02FC2D
:100D1000194300FA02FE4FEA1C471FFA8CF6B1FB9A
:100D2000F7F44FEA1E4307FB141143EA014304FBA7
:100D300006F199420AD91CEB030304F1FF3080F05D
:100D40001281994240F20F81023C6344591A1FFA02
:100D50008EF3B1FBF7F007FB101143EA014300FBF0
:100D600006F69E420AD91CEB030300F1FF3180F026
:100D7000FC809E4240F2F980634402389B1B40EAAB
:100D8000044000211DB1D3400022C5E90032BDE876
:100D9000F0878B4205D90DB1C5E900010021084655
:100DA000F5E7B3FA83F1002946D1A34202D390427A
:100DB000C0F0F080861A64EB03030120002DE6D01A
:100DC000C5E90063E3E7002A40F09080A1EB0C0442
:100DD0004FEA1C481FFA8CF70121B4FBF8F64FEAE2
:100DE0001E4308FB164443EA044307FB06F09842FF
:100DF00008D91CEB030306F1FF3402D2984200F23B
:100E0000CD8026461C1A1FFA8EF3B4FBF8F008FBBF
:100E1000104443EA044300FB07F79F4208D91CEB48
:100E2000030300F1FF3402D29F4200F2B08020465B
:100E3000DB1B40EA0640A5E7C1F120068B4022FA01
:100E400006F71F4320FA06FC04FA01F343EA0C03F9
:100E5000F44000FA01F8380C4FEA1349B4FBF0FEF5
:100E60001FFA87FC00FB1E4449EA04440EFB0CF900
:100E7000A14502FA01F20AD93C190EF1FF3A80F0BD
:100E80008480A14540F28180AEF1020E3C44A4EB87
:100E900009041FFA83F9B4FBF0F300FB134449EA99
:100EA000044403FB0CFCA44507D93C1903F1FF30B3
:100EB00067D2A44565D9023B3C4443EA0E40A0FBFF
:100EC0000293A4EB0C049C42CE469C4651D34ED0D8
:100ED00055B1B8EB0E0364EB0C0404FA06F6CB40F4
:100EE0001E43CC40C5E90064002150E7C2F1200355
:100EF00020FA03F10CFA02FC24FA03F394400C43A9
:100F00004FEA1C4800FA02FE1FFA8CF7B3FBF8F018
:100F100008FB1031230C43EA014300FB07F199421F
:100F200008D91CEB030300F1FF362CD299422AD9D1
:100F3000023863445B1AA4B2B3FBF8F108FB113327
:100F400044EA034401FB07F3A34208D91CEB040461
:100F500001F1FF3613D2A34211D902396444E41AD5
:100F600041EA004139E70446F0E6084606E7C8458D
:100F7000AED2B9EB020E63EB070C0138A8E731469D
:100F8000EDE7034699E73046D4E7D6467FE763446A
:100F900002384DE70646234608460FE7023E634403
:100FA00030E700BF704700BF01230370014B0022F0
:100FB0001A6470470008004010B54B1E044CE362F1
:100FC0004908216410460EF087FA0023236410BDFF
:100FD0000008004008B5037803B908BDA0224FF40B
:100FE0008E71FFF7E9FFF8E7037803B9704710B592
:100FF0000446A0224FF48E71FFF7DEFF64200EF04E
:101000006BFAA0224FF48E712046FFF7D5FF10BD7A
:1010100008B5037803B908BDA02240F61831FFF7E0
:10102000CBFFF8E7037803B9704710B50446A02258
:101030004FF48E71FFF7C0FF32200EF04DFA3C22C4
:1010400040F618312046FFF7B7FF32200EF044FA81
:10105000A02240F28C512046FFF7AEFF10BD09B12F
:101060000020704700F5805090F85400704700F55C
:101070008053D3F8C830002B46D0F0B585B0044675
:101080000D464F0013F81120FF2A14D001236946A2
:1010900006F0E7F8F8B99DF8083083F001038DF801
:1010A000083001226946204606F09EFA061E14DA30
:1010B000002005B0F0BD00F581501C3007F084FA27
:1010C000014640B105220DF1090018F0CBF80123CB
:1010D0008DF80830E5E70020EBE704F581501C307F
:1010E00007F070FA864201DB0020E2E704F5805445
:1010F000D4F8C83003F81560D4F8C8303B449DF8E4
:1011000008205A700120D4E70020704700F5805372
:10111000D3F8C830002B40D070B505460E4600F518
:1011200081501C3007F04EFA044602460121304639
:101130000EF016F9C0B205F58055D5F8C810054671
:1011400001EB40035B7813F0010F19D1034640B166
:1011500001EB4002527812F0010F02D1013880B247
:10116000F5E7A34208D201EB4302527812F0010FD7
:1011700002D101339BB2F4E718B9A3420FD0D8B221
:1011800070BDA34205D02A1A5D1BAA4203DAC0B281
:10119000F6E7C0B2F4E7D8B2F2E7012070470120C9
:1011A000EEE700002DE9F04107460C464E888D8899
:1011B0004B8B13F0010F2BD01F4B1A881F4B198834
:1011C00030460EF0CDF806461FFA80F81C4B1A8800
:1011D0001C4B198828460EF0C3F8054680B2638B75
:1011E00013F0010F1DD0A4F80280A080637E1E2B97
:1011F00001D91E236376217E3846FFF787FF2076CC
:10120000FF220A21207F0EF0ABF82077BDE8F081A5
:1012100030B20EF0BDF886B228B20EF0B9F885B241
:10122000CAE730B20EF0A6F81FFA80F828B20EF026
:10123000A1F880B2D7E700BF62AF010864AF010830
:101240005EAF010860AF01082DE9F04385B00646A6
:101250000F460024A04612E00DF10901484607F0B0
:10126000BFF900B2002808DB9DF808302BB107EB6E
:10127000400217F81030FF2B1DD0013424B206F5C0
:10128000815909F11C09484607F09CF984420ADAA1
:10129000E5B201232A466946304605F0E2FF002800
:1012A000DAD00128E9D1304605F0DCFE5FFA88F09B
:1012B00005B0BDE8F08307F810509DF80830537072
:1012C00008F101081FFA88F8D7E708B500F5805340
:1012D000D3F8C81009B9002008BDFFF7B5FF0120F9
:1012E000FAE7000070B588B0054608461646114674
:1012F00000F581501C3007F067F904466B46052263
:101300000146284617F09CFB64B116B123784E2B9A
:1013100002D1284608B070BD094A0021284617F0BE
:10132000CFFAF6E707AA074901A817F09DFB01A924
:10133000284617F072F901A817F0FCF8E9E700BF9A
:101340001C9B0108249B010810B5044642B901F515
:10135000805393F854202046FFF7C4FF204610BD69
:101360000022F8E72DE9F04786B0174698469DF829
:10137000389000F58053D3F8C8207AB106464C1E49
:10138000032513E003EB430207EB82020021917077
:101390000133DBB24345F5D300205FE00023F9E7DA
:1013A000013D15F0FF0532D0013C24B2002C09DDCF
:1013B000B9F1000FF4D002EB44035B7813F0010F96
:1013C000F2D0EDE7002522E005EB450307EB830AA9
:1013D000E2B207F8232006F58053D3F8C83003EBB8
:1013E00044035B788AF8013031466846FFF77AFF9C
:1013F0000A2200990AF1020017F034FF0135EDB21C
:1014000045451BD2684617F095F8013424B206F51D
:1014100081501C3007F0D6F8844212DA002CF4D048
:10142000B9F1000FD0D006F58053D3F8C83003EBE4
:1014300044035B7813F0010FC6D1E6E7684617F066
:1014400079F8294607E001EB410007EB8000002313
:1014500083700131C9B24145F5D3284606B0BDE8D5
:10146000F08708B54288838E9A4233D18288C38E32
:101470009A4231D1C288038F9A422FD1828AB0F822
:1014800046309A422CD1827D90F848309A4229D138
:10149000027E90F84A309A4226D1427E90F84B3034
:1014A0009A4223D1428BB0F84C309A4220D1C27D6F
:1014B00090F849309A421DD1027F90F84E309A42FE
:1014C0001AD1142200F150011E3017F0B9FEA8B94C
:1014D000012000E0002008BD0020FCE70020FAE722
:1014E0000020F8E70020F6E70020F4E70020F2E70C
:1014F0000020F0E70020EEE70020ECE70020EAE71C
:1015000008B5EB2343804FF4967383804FF49663C2
:10151000C3800122027600234376838205218175F0
:1015200033214183C37541F6490303812523438158
:101530004FF439638381C823C38140230382C323CB
:101540004382802303774277142202491E3017F02A
:1015500089FE08BD4CAF010810B50446837F13B166
:1015600004F11E0010BD142202491E3017F07AFE4D
:10157000F6E700BF4CAF0108438B03F001038B700B
:10158000438BC3F340034B70438BC3F38003CB7097
:10159000438BC3F3C0130B71438BC3F3C0030B72B4
:1015A000438BC3F300134B71438BC3F340138B7115
:1015B000438BC3F38013CB71438BC3F300238B7333
:1015C000437E0B70838A4B81837D0B73037F4B7348
:1015D000704738B504460D46438B03F001030A7883
:1015E00042764A8982820A7B82758A789A420BD037
:1015F000002A46D0B0F902000DF0CAFE6080B4F9AE
:1016000004000DF0C5FEA08000236383AB780BB10E
:10161000012363836B781BB1638B43F00203638305
:10162000EB781BB1638B43F0040363832B791BB10D
:10163000638B43F0800363836B791BB1638B43F04F
:1016400010036383AB791BB1638B43F02003638387
:10165000EB791BB1638B43F0400363832B7A1BB19F
:10166000638B43F008036383AB7B1BB1638B43F451
:1016700080736383FF220A21687B0DF071FE20775F
:1016800038BDB0F902000DF075FE6080B4F90400B9
:101690000DF070FEA080B7E7418070478180C28066
:1016A000704710B5034600F1320230301C68D3F8A1
:1016B00004E0D3F808C0D9681460C2F804E0C2F8A6
:1016C00008C0D160103310328342EFD11B881380E1
:1016D00010BD38B5044600F581551C352846FFF786
:1016E000C0FE00B138BD2946204605F048FF284617
:1016F000FFF7D7FFF6E710B5A2B90A6800F58053E7
:10170000A3F844204A68A3F846208A68A3F8482032
:1017100000F581541C34214605F031FF2046FFF7C7
:10172000C0FF10BD0A6800F58053A3F84A204A683C
:10173000A3F84C208A68A3F84E20E9E710B500F121
:101740003203024662301C68D3F804E0D3F808C0C4
:10175000D9681460C2F804E0C2F808C0D160103340
:1017600010328342EFD11B88138010BDC07D000969
:1017700000EB80007047C07D00F00F00013000EBEF
:1017800080008000704700004B2900D94B21B2F542
:10179000A07F03D8042A03D8052201E04FF4A072E9
:1017A0000B1DDBB20949A1FB03139B081B01DBB234
:1017B000C375013A064981FB02C1D217C2EBE102AF
:1017C00002F00F021343C375704700BFCDCCCCCCE1
:1017D0006766666610B5044632B94A8913460989B8
:1017E0000CF0C2FE204610BD4B8A0A8AC9890CF053
:1017F000BBFEF7E710B504463AB9C8230A2240F207
:101800003F210CF0B1FE204610BD3223402296212C
:101810000CF0AAFEF7E700B5B1F800E002EB820C8D
:1018200000EB4C0320F81CE0B1F802C0A3F802C0A2
:10183000B1F804C0A3F804C0B1F806C0A3F806C00C
:1018400091F808C083F808C091F90E3002EB8202CB
:1018500000EB420043725DF804FB01EB810100EBF9
:10186000410090F909007047032905D802EB820274
:10187000114430F8110070470020704703290BD83D
:10188000012A04D0083100EB4100808870470C31F8
:1018900000EB410080887047002070472DE9F0433D
:1018A00083B004460E46904600F58559002148460F
:1018B000FFF7E4FF074604F5805402463146B4F8CA
:1018C00050000DF04DFD0546A4F8500042460021A1
:1018D0004846FFF7C9FF009000233A463146A8B2B8
:1018E0000DF00CFD80B203B0BDE8F0832DE9F04FA0
:1018F00085B005460E4690461C4603EB830300EB7D
:10190000430292F90990A8EB090930F813708F424D
:1019100023D804EB840300EB4303DF888F425BD2C0
:1019200004EB840300EB4303B3F802A0574557D9F7
:1019300022460121FFF7A2FF00EB090B22460321FB
:101940002846FFF79BFF484400905B463A465146C5
:1019500030460DF0D3FC00B20CE022460021FFF728
:101960008DFF4844009043463A46002130460DF032
:10197000C5FC00B240F2E73241460DF0F1FC80B206
:1019800005B0BDE8F08F0137FFB2032F26D804EB76
:1019900084033B4435F813A0B245F4D97A1E04EB16
:1019A0008403134435F813B011462246C9B22846C1
:1019B000FFF764FF00EB09030393224639462846EC
:1019C000FFF75CFF48440090039B5246594630465F
:1019D0000DF094FC00B2CDE70127D6E70020C9E75F
:1019E00022460121FFF74AFF00EB090722460321A7
:1019F0002846FFF743FF484400903B46034A1288BD
:101A0000514630460DF07AFC00B2B3E76AAF0108E8
:101A100010B5044600F58550FFF768FF04F58054C3
:101A2000B4F8563013F0010F00D010BD00B20DF025
:101A3000A1FC80B2F9E700002DE9F04F85B0054622
:101A4000039116461C4600F5855919464846FFF78E
:101A500004FF371A224600214846FFF70FFFBFB2A6
:101A600000EB07081FFA88F8224603214846FFF7D3
:101A700005FF0744BFB2012C35D0484BB3F800A096
:101A8000012C34D0464BB3F800B005F58053B3F8C1
:101A9000563013F0010F2ED05A46514603980DF0E0
:101AA0005FFC1FFA80FA3F4BB3F800B022460021DA
:101AB0004846FFF7D9FE0390224603214846FFF728
:101AC000D3FE0090039B3A46414650460DF016FC6B
:101AD00080B2B0EB5B0F25DDA0EBAB07BFB24FF0E0
:101AE0000008C1463BE0304BB3F800A0C8E72F4BDD
:101AF000B3F800B0C9E70FFA88F00DF03BFC1FFA0D
:101B000080F838B20DF036FC87B20FFA8AF00DF08B
:101B100031FC1FFA80FA0FFA8BF00DF02BFC1FFA44
:101B200080FBB9E75B46BBF1000F03DB00EBA307CB
:101B3000BFB2D4E70BF10303F8E77B1CB9469FB2B1
:101B400009E009EB070303EBD373C3F34F039F4291
:101B50001CD0BB461F4608F101085FFA88F8B8F1AF
:101B6000130F17D82346324639462846FFF750FF51
:101B700082450FD0E5D907EB0B0303EBD373C3F317
:101B80004F039F42D9D0B9461F46E4E77B1EBB46B0
:101B90009FB2E0E7384605B0BDE8F08F64AF0108BA
:101BA00062AF01086AAF010860AF01085EAF0108CB
:101BB000002308E002EB820C9C4430F81CC021F8A2
:101BC00013C00133DBB2032BF4D9704710B54FF0CB
:101BD000000C0AE031F81C4003EB830EE64420F8C9
:101BE0001E400CF1010C5FFA8CFCBCF1030FF1D923
:101BF00003EB830100EB41014A7203220A72C98898
:101C0000044A1288914204D903EB830300EB43009A
:101C1000C28010BD6AAF010801EB810200EB4203F4
:101C20004FF42A7C20F812C04FF471725A8040F2AF
:101C30000A529A804FF4C862DA80044A92F900206E
:101C40005A72184601230372704700BF5DAF010846
:101C500008B5FFF7E1FF08BD0A884B889A4207D212
:101C60008A88934206D2CB889A4205D300207047D7
:101C700000207047002070470120704770B584B085
:101C800000F58053D3F8C830002B41D004460D46F0
:101C9000012902D011B1012200E0002213F8122024
:101CA000FF2A18D000236946204605F0DAFAC8B9A1
:101CB0009DF8083013F0020F1DD004F585546946D5
:101CC0002046FFF7C9FF0646E0B929462046FFF740
:101CD000A3FF01260CE0294604F58550FFF79CFF81
:101CE000002605E0294604F58550FFF795FF0026FC
:101CF000304604B070BD294604F58550FFF78CFFCF
:101D00000126F5E72A4669462046FFF784FDEFE7FE
:101D10000026EDE7F8B5054600F581561C3630463D
:101D200006F050FC400017F07BF905F58053C3F82E
:101D3000C800A8B100240EE005F58053D3F8C820F0
:101D4000FF2102F81410D3F8C83003EB440300223B
:101D50005A700134E4B2304606F034FC8442EBDBC6
:101D6000284605F036FA0446D0BB05F58053D3F873
:101D7000C81021B32846FFF767FA074605F58156D4
:101D80001C363146284605F0F8FAD0B131462846CF
:101D9000FFF708FA002201212846FFF76FFF05F53B
:101DA000805393F8542000212846FFF767FF05F57C
:101DB00081501C30FFF775FC5FB32046F8BD074625
:101DC000DCE705F581501C30FFF79AFB05F58056DE
:101DD00096F854102846FFF799F986F85400D9E789
:101DE00005F581561C363046FFF78AFB012105F5C3
:101DF0008550FFF711FF012200212846FFF73EFF23
:101E00003046FFF74EFC012C05D0022C05D00024F3
:101E1000D3E70124D1E70224CFE70324CDE770B54F
:101E200004460E4679B90125324629462046FFF779
:101E300025FF38B11DB904F5805383F8546020465E
:101E4000FFF747FC70BD0025EEE72DE9F04184B0B7
:101E500004460E461D461388ADF800305388ADF891
:101E600002309388ADF80430D388ADF806308DF891
:101E700008509DF928308DF80E3000F58053D3F8C6
:101E8000C8304F0003EB41035D7000F581501C30FA
:101E900006F09AFB30B18046694604F58550FFF79D
:101EA000DBFE38B904F586500430FFF7BBF804B008
:101EB000BDE8F081052241460DF1090017F0D2F985
:101EC00000226946204605F08FFBB0F10008E9DBEF
:101ED00004F586500430FFF77DF804F58054D4F8FB
:101EE000C83003F81680D4F8C8303B445D70DEE794
:101EF000014B0360704700BF1C9F01087047000042
:101F0000024A0260024A0260704700BF449F010813
:101F10001C9F01087047002070470000014B0360C0
:101F2000704700BFC89F01080A4B1B783BB10020D7
:101F30004FF08043586303F580331864704710B541
:101F400004461422044905480DF0A0FC014B1C7006
:101F5000012010BD8878002060780020608B002070
:101F600010B50446044B0360044B0360502116F087
:101F70008DFA204610BD00BF449F01081C9F010838
:101F800010B50446034B0360502116F07FFA20463B
:101F900010BD00BF1C9F010810B50446034B036031
:101FA000242116F073FA204610BD00BFC89F010817
:101FB00008B5084615F06EF908BD08B5084615F0D5
:101FC0005BF908BD08B5084615F048F908BD08B525
:101FD00015F036F908BD08B515F024F908BD08B5A7
:101FE00013F09AFE08BD0000154A1178002280F80F
:101FF000422080F8402080F8411080F8862080F848
:10200000842080F8851080F8CA2080F8C82080F8E5
:10201000C910A0F8CC20A0F8CE20A0F8D020A0F8BD
:10202000D22080F8D420C0F8D82080F8DC2080F8B6
:10203000DD20A0F8DE20A0F8E020A0F8E220704724
:1020400068AF010838B504461423436000250581B4
:102050004581C5600A230361436185610B23838346
:1020600044F6206303622430FFF7BEFF144B236065
:10207000082384F80831C4F80C5184F80831C4F8F6
:102080000C5184F8105184F811514FF4C871A4F820
:1020900012114FF4FA72A4F8142184F81831C4F81C
:1020A0001C5184F81831C4F81C5184F8205184F86C
:1020B0002151A4F82211A4F82421204638BD00BFE4
:1020C000E09E010810B50446FFF7BCFF324B2360C9
:1020D0000023A4F82831A4F82A31A4F82C31A4F85C
:1020E0002E3184F8303184F83131A4F8323184F85B
:1020F000343184F83531082284F83821C4F83C3171
:1021000084F83821C4F83C3184F84021C4F84431C3
:1021100084F84021C4F8443184F84821C4F84C3193
:1021200084F84821C4F84C3184F85021C4F8543163
:1021300084F85021C4F8543184F85821C4F85C3133
:1021400084F85821C4F85C3184F860314FF4F563A9
:10215000A4F862314FF47A71A4F86411142384F85E
:1021600066316420A4F8680184F86A214FF4FA7299
:10217000A4F86C21A4F86E11032284F870210E22B9
:1021800084F8712184F87231052384F873310223B5
:1021900084F87431204610BDE4AA010810B5044645
:1021A000FFF750FF3C4B2360002384F8283184F86C
:1021B000293184F82A31012184F82B1184F82C313B
:1021C000A4F82E31A4F83031C4F83431C4F83831D1
:1021D000324A1078082284F83C21C4F8403184F84F
:1021E0003C01C4F8403184F84421C4F8483184F8F3
:1021F0004401C4F8483184F84C21C4F8503184F8C3
:102200004C21C4F8503184F85421C4F8583184F872
:102210005421C4F8583184F85C21C4F8603184F842
:102220005C21C4F86031A4F8643184F86631462337
:1022300084F86731632384F868314FF41673A4F887
:102240006A3140F2CF73A4F86C314FF4C863A4F83C
:102250006E314FF44873A4F870313C23A4F8723106
:102260000F4AC4F874214EF66022C4F878214FF466
:10227000FA72A4F87C214FF47A72A4F87E211E220F
:1022800084F8802184F881310D2384F88231C4F8E8
:102290008411204610BD00BFA8AA010867AF01083D
:1022A000407E050010B4034600220270E1494160FF
:1022B00000F110018160C2600274DF49016200F127
:1022C0002C014162826280F82C20DC49C16300F15C
:1022D00048010164426480F84820D949816500F1D1
:1022E0006401C165026680F86420D649416700F147
:1022F00080018167C26780F88020D349C0F89010C0
:1023000000F19C01C0F89410C0F8982080F89C203F
:10231000CE49C0F8AC1000F1B801C0F8B010C0F858
:10232000B42080F8B820CA49C0F8C81000F1D40120
:10233000C0F8CC10C0F8D02080F8D420C549C0F82F
:10234000E41000F1F001C0F8E810C0F8EC2080F8CB
:10235000F020C149C0F8001100F58671C0F80411E1
:10236000C0F8082180F80C21BC49C0F81C1100F508
:102370009471C0F82011C0F8242180F82821B848B1
:10238000C3F8380103F5A271C3F83C11C3F840212A
:1023900083F84421B349C3F8541103F5B071C3F86D
:1023A0005811C3F85C2183F86021AF49C3F870115C
:1023B00003F5BE71C3F87411C3F8782183F87C214A
:1023C000AA49C3F88C1103F5CC71C3F89011C3F876
:1023D000942183F89821A649C3F8A81103F5DA716E
:1023E000C3F8AC11C3F8B02183F8B421A149C3F8F4
:1023F000C41103F5E871C3F8C811C3F8CC2183F800
:10240000D0219D49C3F8E01103F5F671C3F8E4113A
:10241000C3F8E82183F8EC219849C3F8FC1103F5CF
:102420000271C3F80012C3F8042283F80822944909
:10243000C3F8181203F50971C3F81C12C3F820225F
:1024400083F824228F49C3F8341203F51071C3F8BE
:102450003812C3F83C2283F840228B49C3F850124B
:1024600003F51771C3F85412C3F8582283F85C229D
:102470008649C3F86C1203F51E71C3F87012C3F8D5
:10248000742283F878228249C3F8881203F52571F3
:10249000C3F88C12C3F8902283F894227D49C3F8C4
:1024A000A41203F52C71C3F8A812C3F8AC2283F868
:1024B000B0227949C3F8C01203F53371C3F8C412CE
:1024C000C3F8C82283F8CC227449C3F8DC1203F5A0
:1024D0003A71C3F8E012C3F8E42283F8E8227049A5
:1024E000C3F8F81203F54171C3F8FC12C3F80023D6
:1024F00083F804236B49C3F8141303F54871C3F838
:102500001813C3F81C2383F820236749C3F830133A
:1025100003F54F71C3F83413C3F8382383F83C2311
:102520006249C3F84C1303F55671C3F85013C3F84E
:10253000542383F858235E49C3F8681303F55D718B
:10254000C3F86C13C3F8702383F874235949C3F894
:10255000841303F56471C3F88813C3F88C2383F8DC
:1025600090235549C3F8A01303F56B71C3F8A41366
:10257000C3F8A82383F8AC235049C3F8BC1303F570
:102580007271C3F8C013C3F8C42383F8C8234C493D
:10259000C3F8D81303F57971C3F8DC13C3F8E0234B
:1025A00083F8E4234749C3F8F41303F58061C3F8C3
:1025B000F813C3F8FC2383F800244349C3F810142C
:1025C00003F21C44C3F81444C3F8182483F81C24F1
:1025D000C3F82C0403F58760C3F83004C3F834242F
:1025E00083F838243948C3F8480403F25440C3F848
:1025F0004C04C3F8502483F854243548C3F86404C9
:1026000003F58E60C3F86804C3F86C2483F8702463
:102610003048C3F8800403F28C40C3F88404C3F844
:10262000882483F88C242C48C3F89C0403F5956017
:1026300054E000BF2C9B0108389B0108449B010813
:10264000509B01085C9B01086C9B01087C9B010866
:10265000889B0108949B0108A49B0108B49B010876
:10266000BC9B0108C49B0108D09B0108D89B0108B2
:10267000E09B0108F09B0108FC9B01080C9C0108F1
:10268000189C0108249C0108309C01083C9C01080E
:102690004C9C01085C9C0108689C0108749C010822
:1026A000809C0108909C0108989C0108A09C01084E
:1026B000AC9C0108B89C0108C49C0108D49C01088A
:1026C000E09C0108EC9C0108F49C010800A00108B2
:1026D000FC9C0108089D0108149D0108C3F8A00492
:1026E000C3F8A42483F8A824C3F8B81403F2C4419F
:1026F000C3F8BC14C3F8C02483F8C424CB49C3F87E
:10270000D41403F59C61C3F8D814C3F8DC2483F80F
:10271000E024C749C3F8F01403F2FC41C3F8F414F1
:10272000C3F8F82483F8FC24C249C3F80C1503F558
:10273000A361C3F81015C3F8142583F81825BE4902
:10274000C3F8281503F23451C3F82C15C3F830250B
:1027500083F83425B949C3F8441503F5AA61C3F8D1
:102760004815C3F84C2583F85025B549C3F86015C2
:1027700003F26C51C3F86415C3F8682583F86C251F
:10278000B049C3F87C1503F5B161C3F88015C3F8EF
:10279000842583F88825AC49C3F8981503F2A45121
:1027A000C3F89C15C3F8A02583F8A425A749C3F84E
:1027B000B41503F5B861C3F8B815C3F8BC2583F8A0
:1027C000C025A349C3F8D01503F2DC51C3F8D415D2
:1027D000C3F8D82583F8DC259E49C3F8EC1503F52A
:1027E000BF61C3F8F015C3F8F42583F8F8259A49BA
:1027F000C3F8081603F21461C3F80C16C3F81026C8
:1028000083F814269549C3F8241603F5C661C3F866
:102810002816C3F82C2683F830269149C3F84016B1
:1028200003F24C61C3F84416C3F8482683F84C26DB
:102830008C49C3F85C1603F5CD61C3F86016C3F884
:10284000642683F868268849C3F8781603F2846101
:10285000C3F87C16C3F8802683F884268349C3F81E
:10286000941603F5D461C3F89816C3F89C2683F830
:10287000A0267F49C3F8B01603F2BC61C3F8B416B2
:10288000C3F8B82683F8BC267A49C3F8CC1603F5FA
:10289000DB61C3F8D016C3F8D42683F8D82676496E
:1028A000C3F8E81603F2F461C3F8EC16C3F8F02697
:1028B00083F8F4267149C3F8041703F5E261C3F8FD
:1028C0000817C3F80C2783F810276D49C3F82017A1
:1028D00003F22C71C3F82417C3F8282783F82C2798
:1028E0006849C3F83C1703F5E961C3F84017C3F81A
:1028F000442783F848276449C3F8581703F26471E2
:10290000C3F85C17C3F8602783F864275F49C3F8EE
:10291000741703F5F061C3F87817C3F87C2783F8C0
:1029200080275B49C3F8901703F29C71C3F8941792
:10293000C3F8982783F89C275649C3F8AC1703F5CA
:10294000F761C3F8B017C3F8B42783F8B827524922
:10295000C3F8C81703F2D471C3F8CC17C3F8D02753
:1029600083F8D4274D49C3F8E41703F5FE61C3F893
:10297000E817C3F8EC2783F8F0274949C3F8001893
:1029800003F60C01C3F80418C3F8082883F80C28D0
:102990004449C3F81C1803F62801C3F82018C3F8EB
:1029A000242883F828284049C3F8381803F644013E
:1029B000C3F83C18C3F8402883F844283B49C3F8BF
:1029C000541803F50661C3F85818C3F85C2883F857
:1029D00060283749C3F8701803F67C01C3F87418EF
:1029E000C3F8782883F87C283249C3F88C1803F69A
:1029F0009801C3F89018C3F8942883F898282E49B2
:102A0000C3F8A81803F6B401C3F8AC18C3F8B0288B
:102A100083F8B428294A92E80300C3F8C40883F86D
:102A2000C81818465DF8044B704700BF249D010884
:102A30002C9D0108309D0108349D01083C9D010832
:102A4000449D01084C9D0108549D01085C9D0108AE
:102A5000649D0108689D01086C9D0108709D010836
:102A6000749D01087C9D0108849D0108909D0108CA
:102A70009C9D0108B09D0108C49D0108D49D0108DA
:102A8000E49D0108FC9D0108149E01081C9E01089C
:102A9000249E0108289E01082C9E01083C9E0108E6
:102AA000489E0108589E0108689E01087C9E010806
:102AB000889E01089C9E0108A09E01089C9A01081E
:102AC00070B50646051D00F6C40403E01C3C201D3D
:102AD00015F030FDA542F9D1304670BD10B5044661
:102AE000114B036000F6581014F04BFD04F654101F
:102AF00013F096FA04F5156013F092FA04F64C10F0
:102B000013F08EFA04F6481013F08AFA04F6441013
:102B100013F086FA04F16400FFF7D2FF034B236041
:102B2000034B2360204610BD6C9F0108449F0108A1
:102B30001C9F010810B50446FFF7D0FF40F6841132
:102B4000204615F0A3FC204610BD000038B5044611
:102B5000043015F0E7F9324B2360324B2360002537
:102B600084F85050A4F85450A565E565A4F8605069
:102B700084F8625004F16400FFF794FB2A4B236051
:102B80002A4BC4F83039A4F834594FF6FF72A4F830
:102B900036294FF47841A4F838191F21A4F83A19BE
:102BA0004FF6E071A4F83C194CF21861A4F83E19F4
:102BB00084F84059C4F84459C4F84859C4F84C59E9
:102BC000C4F85059C4F85459C4F8585984F85C29C9
:102BD0009622A4F85E29A4F86059A4F86259A4F8D2
:102BE0006459A4F86659C822A4F868296E22A4F88A
:102BF0006A295A22A4F86C293C21A4F86E19A4F879
:102C000070292022A4F872291922A4F87429084AEC
:102C1000C4F87829C4F87C39C4F88039204638BD16
:102C20001C9F0108449F01086C9F01089CB4010887
:102C300014A9010870B5054600F58054002684F8F3
:102C400028604FF4805363850D4BE3620D4B236383
:102C50000D4B63630D4BA3630D4B03CBC4F8B40062
:102C6000C4F8B81003CBC4F8BC00C4F8C01005F514
:102C700086500430FEF798F9C4F8C860284670BD45
:102C8000A49E0108B09E0108BC9E0108C89E0108D0
:102C9000A49A010810B50446303015F04BFC04F13D
:102CA000180015F047FC204615F044FC204610BDE6
:102CB0001A4A0260002202718260828102614261CE
:102CC0008261C2610262816015490160082180F859
:102CD00024108262052180F824108262C26202639D
:102CE000426382638287C287A0F8402080F8422036
:102CF000012180F8431080F8441080F84520826458
:102D0000C2644FF4FA72A0F8502040F6B832A0F82E
:102D1000522040F2DC52A0F854207047C89F0108AE
:102D2000FCAC0108104A02600022027182608281BC
:102D3000026142618261C261026281600B4901608D
:102D400080F8342080F8352080F8362080F837204D
:102D500080F83820082280F839200D2280F83A20A7
:102D600078228287704700BFC89F01082CAD0108F8
:102D7000114A026000220271826082810261426116
:102D80008261C261026281600C49016080F8242086
:102D9000A0F8462080F848200321A0F84A10C26419
:102DA000026580F854204FF41672A0F8562040F6C1
:102DB000B8328265704700BFC89F01088CAD01081A
:102DC00010B4184A0260002202718260828102619E
:102DD00042618261C2610262816013490160062121
:102DE000818441F28834846280F82C20026342633B
:102DF00082638287C287A0F84020A0F84220A0F812
:102E000044204FF0FA0CA0F846C080F84820A0F803
:102E10004A20A0F84C104FF4FA6202655DF8044BAA
:102E2000704700BFC89F0108ECAD010810B40D4AFF
:102E300002600022027182608281026142618261CD
:102E4000C261026281600146074C41F8244B426234
:102E50004A608A60CA600A61502280F838205DF8B2
:102E6000044B7047C89F010804AE010810B5044622
:102E70000C4B036000230371836083810361436112
:102E80008361C36103628160074B0360038D8384A8
:102E9000C3844FF4FA7303853C2108F019F92046E6
:102EA00010BD00BFC89F010894AE0108014B1878FF
:102EB000704700BF5878002008B502480BF001FFAA
:102EC00080B208BD5078002038B50CF0FFFA00F54C
:102ED00096751B4B5B6A9BB29C1CA4B2632C01D9F8
:102EE000613B9CB20CF0F2FAA84207D2144B5B6A29
:102EF000A342F7D14FF0804300225A620CF0E6FA69
:102F000000F596750E4B5B6A9BB29C1CA4B2632CB9
:102F100001D9613B9CB20CF0D9FAA84208D2084B07
:102F20005B6AA342F7D14FF08043586A80B205E054
:102F30004FF08043D86A80B2013080B238BD00BF04
:102F40000000014030B585B01F4C01210291019174
:102F500000910B460022204603F0C0FFA4F64C343B
:102F6000204601F09BF93D21204601F029FD8023F8
:102F7000A4F51A7282F8B832144A12685363022513
:102F800007E0114803F036FFC8B9114801F030F9E5
:102F900088B9104BB3F8D04DE4B2A542F1D000236C
:102FA0000093B4FA84F35B09642240210A4802F0DA
:102FB0002DFC2546E5E705200CF08EFAE9E7B4FA8A
:102FC00084F0400905B030BD6476002018890020E7
:102FD000686B0020B0680020186B00202DE9F047D6
:102FE000924C20460CF052FB642120460CF0F2FB80
:102FF00020460CF039FD642120460CF0EBFB204606
:103000000CF032FD642120460CF0E4FB20460CF06D
:103010002BFD85B2642120460CF0DCFB20460CF031
:1030200023FD86B2642120460CF0D4FB20460CF030
:103030001BFD87B220460CF0ADFB7D4C3B46324673
:103040002946204604F0D0FE064604F540540323EA
:1030500084F8213D84F8203D764C0C2120460EF06A
:1030600031FD082120460EF07FFC734C00212046E4
:103070000EF028FD042120460EF024FD08212046F4
:103080000EF072FC0C2120460EF06EFC0C216B48F9
:103090000EF018FD6A4B0A221A7000275F6019783B
:1030A0004FF47A7201FB02F25A60664DDFF8D49158
:1030B000654C2B464A462946204607F03FFFDFF87D
:1030C000BC812B4642462146484607F037FF2B4637
:1030D00022462146404607F031FFDFF8A491C8F8A8
:1030E0002890234622462146584807F027FFDFF85C
:1030F0009881234622464146554807F01FFF234644
:1031000022462146404607F019FF23462246214623
:10311000504807F013FF234622462146484607F051
:103120000DFF23462A4629464B4807F007FFDFF8E4
:103130005C81234622462146404607F0FFFE234697
:1031400022462946454807F0F9FE234622462946ED
:10315000434807F0F3FE234622462146284607F05F
:10316000EDFEDFF82CA13F4D53462A4621463E484E
:1031700007F0E4FE234622462146504607F0DEFED5
:10318000234622464946394807F0D8FE4346424680
:103190002146374807F0D2FE3B463A4621462846AC
:1031A00007F0CCFE334801F079F8022E1CD0032E34
:1031B00029D0012E14D0FFF787FEC8200CF08CF91F
:1031C0001B4B03F5805292F8582003F5405383F8C7
:1031D000B822294B186803681B689847BDE8F08738
:1031E000254B264A1A60E6E7254C00223D21204661
:1031F00009F0B2FD1D4B22462146204607F09EFEF7
:103200001D4B1C60D7E7FFF79DFE0028D3D0084870
:1032100003F03AFF0028CED1194C0022412120466C
:1032200009F09AFD144B1C60C5E700BF608B0020BD
:10323000B0380020A889002060890020D0880020B4
:1032400050780020940200205838002024370020B5
:10325000EC36002090360020283600207035002003
:10326000E00200205403002080030020A803002077
:10327000A4350020186B00200000002080370020BB
:1032800054360020AC370020BC360020F835002032
:103290002003002038B50CF019F9444B1B68984204
:1032A0003AD8434B186807F04DFE044618B1404B1E
:1032B0001B6883424FD13E4D286803685B6898477E
:1032C00004462B6883421BD0002858D0394D00217A
:1032D000284604F04DFF002105F5067004F0A2FC1D
:1032E000A5F6EC32002382F8213D82F8203D4FF014
:1032F000804253632E4B1C6023681B68204698470E
:103300000CF0E4F82C4B1B6898423AD22B4800F0A2
:103310006FFF002846D138BD0CF0D8F86430234B3D
:103320001860402126480DF06BF801280FD1642168
:1033300024480BF04FFD4FF4806123480DF060F8F6
:10334000012806D1642121480BF044FDA9E70021A2
:10335000EEE70021F7E71E4D2846FDF745FE002168
:10336000A5F5687004F004FF4FF0804300225A6313
:103370000F4B1C6023681B6820469847CBE7154C11
:10338000A4E715494B6A154A10681B1A18BF012398
:10339000134803704B6A13600CF098F82930064B01
:1033A0001860B3E705200CF097F8B4E78C02002012
:1033B000000000209C74002090020020686B002018
:1033C00000040240B475002000000240CC770020C9
:1033D0003C78002054360020000001405C7800203A
:1033E0005878002010B503681D4A934203D0B3F10A
:1033F000804F1FD010BD027F042AF8D1194804F075
:1034000029FB632200210BF0ABFF154B18640CF075
:103410005DF80446144B1B7813B1144B1B6813B9A9
:10342000124B1C60E6E7114B1968411A10480BF06B
:103430002EFCF5E7037F042B05D0082BDAD1022000
:10344000FEF772FDD6E74FF080435B6B23B94FF078
:1034500080439B6B002BCDD00120FEF765FDC9E7B3
:1034600000000140B4760020587800204C780020FD
:103470005078002002684A4B9A4200D0704710B53D
:1034800086B048480CF0B4FA474B1B78DBB2022BED
:1034900009D0454B1B78DBB2012B49D0424B0022AF
:1034A0001A7006B010BD002301930293039317E036
:1034B000991C3E4A32F81110019810FA81F10191DD
:1034C000D91C32F81110029810FA81F10291191DDD
:1034D00032F81120039911FA82F203920533DBB21C
:1034E000132BE5D9019B02330193019B9B080193A8
:1034F000029B02330293029B9B080293039B0233BD
:103500000393039B9B0803930399294C20460BF0DC
:10351000BEFB0199A4F5697004F00EFF4FF08043E3
:103520005863029989B2A4F5C67004F0F2F9B5E7C0
:103530000023049305930FE01C4931F813200498ED
:1035400010FA82F204925A1C31F81220059911FAED
:1035500082F205920533DBB2132BEDD9049B0233C3
:103560000493049B9B080493059B02330593059BDE
:103570009B0805934FF080435B6B53B94FF080433A
:103580009B6B002B8AD0059989B20A480BF022FC6C
:1035900084E7049989B208480BF01CFCEEE700BFF1
:1035A00000200140608B0020887800206078002097
:1035B00040780020BC770020A475002070470000F0
:1035C00008B5064B5B6913F0010F00D108BD044834
:1035D00003F097FC014B01225A61F7E7003C0140E0
:1035E0001476002008B5064B5B6913F0020F00D17A
:1035F00008BD044803F085FC014B02225A61F7E73D
:10360000003C01406476002010B504460068A168C3
:10361000091A08B114F03AFF204610BD70B50646ED
:103620000468456803E02046FFF734FB4834A542B0
:10363000F9D13046FFF7E8FF304670BD10B50446BB
:103640000068A168091A08B114F020FF204610BDD7
:1036500070B506460468456803E0204614F06AFF2A
:103660001834A542F9D13046FFF7E8FF304670BD67
:1036700038B50C46154605E04FF4FC7154F8040BC0
:1036800014F004FFAC42F7D338BD10B5044603680C
:103690004BB1426A04324169FFF7EAFF6168890071
:1036A000206814F0F3FE204610BD2DE9F041884655
:1036B0001746CE68043606E0204614F03BFF183467
:1036C000A542F9D10436FB68B34203D9346804F546
:1036D000FC75F5E7D8F80C20934215D0D8F80040D7
:1036E000D8F8085003E0204614F024FF1834A5420F
:1036F000F9D17C683D6803E0204614F01BFF1834C4
:10370000A542F9D1BDE8F081D8F800403D6803E05A
:10371000204614F00FFF1834A542F9D1F2E700B5A6
:1037200089B00B6800934B6801938B680293CB6858
:103730000393136804935368059393680693D368BF
:10374000079304AA6946FFF7B0FF09B05DF804FBD0
:1037500010B588B0044683680093C3680193036979
:1037600002934369039383690493C3690593036ACE
:103770000693436A0793034604AA6946FFF7CFFFFF
:103780002046FFF782FF204608B010BD10B5044662
:10379000074B40F8443BFFF7DBFF04F11C00FFF749
:1037A000D7FF201D14F0C6FE024B2360204610BD3B
:1037B00094AB0108949F010810B50446FFF7E6FF9B
:1037C0006C21204614F062FE204610BD08B5B1F110
:1037D000005F03D2880014F05BFE08BDB1F1804F9A
:1037E00001D314F069FE14F064FE000008B5084B24
:1037F000994205D801EB4101C80014F049FE08BD0B
:10380000044B994201D914F057FE14F052FE00BF48
:1038100055555505AAAAAA0A70B506460C4615467E
:1038200006E0002215213046FFF7E0FF44F8040BC4
:10383000AC42F6D370BD00002DE9F04385B00446DC
:103840000D46254BA3FB0123CA1A03EB52031B09A8
:103850005E1C082202920333039393423AD80DEB85
:10386000020319686160002201A8FFF7AFFF8046DC
:1038700020606768BF1B7F0800EB870909EB86069D
:10388000324649462046FFF7C7FFC4F8149058F85F
:103890002730E36003F5FC722261321F626256F842
:1038A000042CE26102F5FC712162A3600A4BA3FBC8
:1038B0000513E91A03EB51031B0903EB4303C3EBA5
:1038C000C303EB1A03EB430302EBC302A26105B08F
:1038D000BDE8F08303ABC4E78761188610B50446E2
:1038E0000021016041608160C160016141618161CD
:1038F000C16101624162FFF79FFF204610BD10B514
:1039000004462822002115F093FC2046FFF7E6FF2D
:10391000204610BD10B50446094B03600346094A12
:1039200043F80C2B43600023836003731C30FFF7C4
:10393000E6FF04F14400FFF7E2FF204610BD00BFA0
:10394000949F010894AB010810B50446FFF7E2FF0D
:103950002346104A43F8742BE3660023236784F858
:10396000743004F18C02C4F88420C4F8883084F8E0
:103970008C3004F1A402C4F89C20C4F8A03084F870
:10398000A430C4F8B430C4F8B830C4F8BC30204611
:1039900010BD00BFC8AB010838B50446002505605E
:1039A000858000F542502030FFF7CEFF04F54053EC
:1039B000C3F86051054AC3F86421054A92E8030040
:1039C000C3F86801A3F86C11204638BD54AF010854
:1039D000B49A0108F0B583B0044617461A4B036049
:1039E0000025057185608581056145618561C56139
:1039F00005628160154B40F8243BFFF7CDFF04F5CD
:103A0000405686F89451A6F8965101AA104904F53B
:103A10004650183015F028F8C6F8B051C6F8B45121
:103A2000C6F8B851FF2386F8BC3186F8BD51502343
:103A300086F8BE314EF66023C6F8C431C6F8C071B0
:103A4000204603B0F0BD00BFC89F01087CAE01084E
:103A5000D49E010810B5044600F501502030FFF750
:103A600073FF04F504502030FFF754FF04F50053B2
:103A7000074AC3F820210022C3F88C2183F8902143
:103A8000C3F89421034AC3F89821204610BD00BF13
:103A9000FCAB010854AF010830B583B00446FFF712
:103AA000C9F804F586500C30FFF7D4FF04F54950EF
:103AB0002830FFF74BF804F56F502C30FEF702FB6F
:103AC0001B4D012300932B464FF48072194904F5D6
:103AD0007550243003F031F9022300932B464FF444
:103AE0000042154904F57650343003F026F904F508
:103AF00078500430FEF752FB04F57E500C30FDF791
:103B000053FA04F54053082183F8901F0022C3F8AC
:103B1000942F83F8901FC3F8942F1E2283F8982FB8
:103B200040F63C72A3F89A2F204603B030BD00BF88
:103B300000040240000002400008024010B50446A4
:103B4000064B40F8B43BFFF769FD04F16C00FFF74A
:103B5000A1F82046FFF71AFE204610BDC8AB0108A9
:103B600010B504460A4B036000F546503030FFF7AD
:103B70006FFD04F54650183014F0DCFC04F543509A
:103B80000430FFF7DBFF034B2360204610BD00BF6E
:103B90007CAE0108C89F010810B50446FFF7E0FF9E
:103BA00043F2C811204614F071FC204610BD0000FD
:103BB00010B5044600F50053074AC3F8202100F56C
:103BC00004502030FFF7E2FD04F501502030FFF7EC
:103BD000B5FF204610BD00BFFCAB010810B5044680
:103BE00000F540530B4AC3F8042E0B4AC3F8042EC9
:103BF0000A49C3F8EC1BC3F8EC2B00F549502830F8
:103C0000FEF76CFF04F586500C30FFF7D1FF20461D
:103C100010BD00BFA8AA0108E09E0108E4AA01089F
:103C20002DE9F04F8BB005460991012809D02DB937
:103C30004FF6FF73099A9A4200F082810BB0BDE8FB
:103C4000F08F4FF6FF739942F1D1A04B08221A7002
:103C500000245C601A705C609D4F3846FFF71CFFC3
:103C600039469C48FFF724F8DFF8D0B29A4ECBF8DB
:103C700000608BF80440CBF80840ABF80C40CBF860
:103C80001040CBF81440CBF81840CBF81C40CBF8D0
:103C90002040CBF80870914BCBF80030CBF89C401B
:103CA0008BF8A040CBF8A4408BF8A8408C4B1E604A
:103CB0001C719C609C811C615C619C61DC611A468A
:103CC0001C629F60874B1360FF2382F8243094624C
:103CD000854E39463046FFF74BF8DFF85C827E4B65
:103CE000C8F8003088F80440C8F80840A8F80C402C
:103CF000C8F81040C8F81440C8F81840C8F81C406C
:103D0000C8F82040C8F80870784BC8F8003088F828
:103D1000244088F82E4088F82F40C8F8304004230B
:103D2000A8F8343040F2DC53A8F836304346324627
:103D300039466F4807F036FDDFF8F891664EC9F84E
:103D4000006089F80440C9F80840A9F80C40C9F897
:103D50001040C9F81440C9F81840C9F81C40C9F807
:103D60002040C9F80870634BC9F80030A9F8244016
:103D7000012389F8263089F82740C9F828403946B8
:103D80005D48FFF753F8DFF8A8A13146CAF8006094
:103D90008AF80440CAF80840AAF80C40CAF8104053
:103DA000CAF81440CAF81840CAF81C40CAF82040A3
:103DB000CAF80870514BCAF800308AF82440AAF8B3
:103DC00026408AF828408AF829404D4E31603471E7
:103DD000B460B48134617461B461F4613462B76019
:103DE000484B3360746286F8284086F8294086F88C
:103DF0002A4086F82B4086F82C400323F385394669
:103E00004148FEF7DDFF00964B46424639463F48A3
:103E100007F0E4FC384A39463D48FFF7DBFDDFF8A0
:103E20000C812D49C8F8001088F80440C8F80840F3
:103E3000A8F80C40C8F81040C8F81440C8F818405A
:103E4000C8F81C40C8F82040C8F80870314BC8F8C2
:103E500000302F4BC8F8243039462F48FFF706F8BA
:103E60002E4B1D4919601C719C609C811C615C611A
:103E70009C61DC611C629F60294A1A609C84DC841E
:103E800083F828404FF496725A854FF416729A853B
:103E900040F2CF72DA85052283F83020214C394672
:103EA0002046FEF73FFFCDF81880184B0593049687
:103EB000CDF80C900A4A02920D4B019300945B4698
:103EC00052463946184807F041FCB0E650780020C9
:103ED000B038002058380020C89F010814AD0108F0
:103EE000803700201CAE010824370020A4AD010853
:103EF000BC360020BCAD01085436002044AD01089A
:103F0000F8350020D4AD0108A4350020703500201C
:103F1000A80300204CAE0108540300202003002019
:103F200064AE0108E002002094020020800300201B
:103F30002836002090360020EC360020AC370020D8
:103F4000254B264A1A60264C1C60264B264A1A60CE
:103F50001C60264B264A1A601C60264B264A1A60B3
:103F60001C60264B264A1A601C602648FFF7F8FDA5
:103F7000254B264A1A601C60254B264A1A601C6095
:103F8000254B264A1A601C60254B264A1A601C6085
:103F9000254B264A1A601C60254B264A1A601C6075
:103FA000254B264A1A601C60254B264A1A601C6065
:103FB000254B264A1A601C60254B264A1A601C6055
:103FC000254B264A1A601C60254B264A1A601C6045
:103FD0002548FFF703FE31E69402002034AE0108C5
:103FE000C89F0108E00200202CAD0108200300203A
:103FF00064AE01085403002094AE01088003002041
:104000004CAE0108A80300207035002074AD0108F3
:10401000A4350020ECAD0108F8350020D4AD01082E
:104020002836002044AD01085436002004AE0108B3
:1040300090360020BCAD0108BC3600205CAD010804
:10404000EC360020A4AD0108243700208CAD010817
:10405000803700201CAE0108AC37002014AD0108E9
:1040600058380020FCAC0108B038002010B50446D8
:10407000FFF764FDC021204614F008FA204610BD69
:1040800008B54FF6FF710120FFF7CAFD08BD08B55E
:104090004FF6FF710020FFF7C3FD08BD10B584B0D7
:1040A00094460A68511D62B112889DF81C40029422
:1040B000BDF8184001940093634613F0E7FE04B086
:1040C00010BD0022F1E738B5054613F03BFF04466A
:1040D000284613F03FFF201A00B238BD38B5054618
:1040E00013F030FF0446284613F034FF204400B29A
:1040F00038BD30B585B0084611461A46099B1B6885
:104100005C1D73B11B88BDF82C500395BDF8285079
:10411000029501930094BDF8203012F0D5FD05B052
:1041200030BD0023EFE730B585B0084611461C6866
:104130007CB122887CB163880534BDF82450039596
:10414000BDF8205002950192009412F0BDFD05B01B
:1041500030BD0022EEE70023EEE770B586B00846DA
:1041600011461A460A9B1C68ACB16388651DA4B150
:104170002488BDF838600596BDF8346004969DF833
:1041800030600396BDF92C6002960194009512F000
:1041900009FE06B070BD0023E8E70024E9E72DE939
:1041A000F04385B00D4616461F460D980468C4B10D
:1041B00004F10708BCB1B4F80090BCB1647913F005
:1041C0005EFA03900294CDF80490CDF80080BDF81B
:1041D00030303A463146284612F096FE05B0BDE82A
:1041E000F083A046E6E74FF00009E6E70024E6E7A3
:1041F0000278124B1B68596B8A4204D8596B8A4269
:104200000ED300207047596B521A082A04D95A6BF2
:1042100008325A63012070475A6B01325A63F9E73A
:10422000596B8A1A082A04D95A6B083A5A63012032
:1042300070475A6B013A5A63F9E700BF18890020AA
:1042400070B582B00446F9B1C4F83019261DD4F80F
:104250003019304613F088FD304613F073FE85B2F6
:104260000D49304613F002FE811C2A4689B201A88E
:1042700011F0A2FE01A904F6481011F0BAFE01A83F
:1042800011F0CEFE02B070BDD0F88039C0F83039E0
:10429000002380F86430D9E7D89F010808B5064BA1
:1042A0001B6800225A63FF2380F85C39B0F8340998
:1042B00012F030F808BD00BF188900202DE9F04F3A
:1042C00085B00291012A7CD804461F467CD0B0F804
:1042D0005E59D4F84839002B79D01E8806F1140AAB
:1042E0001FFA8AFAD4F84439002B72D05B88DBB20B
:1042F000039306F117081FFA88F8B4F83639032239
:104300002946404612F0EBF9BDF80C90B4F8363966
:104310004A462946504612F0B0F806F11A00B4F8A1
:1043200036394A46294680B212F0A7F805EB090A49
:104330001FFA8AFA0AF1050B1FFA8BFBB4F836391B
:1043400008225946404612F0CAF9002F43D0B4F86B
:10435000383907225946404612F012FA06F1110088
:1043600005F10901B4F83639009303231A4689B2DE
:1043700080B211F095FF1536B6B2B4F83439009317
:104380004B4605222946304611F08AFF0A226FF07B
:10439000630102980AF0E4FF034600B2002820DD22
:1043A0009BB2E91A89B20A3189B24B449BB20A3BEB
:1043B0009BB29FB1B4F8382900920522304611F023
:1043C0006FFF05B0BDE8F08FB0F86E5981E70026A9
:1043D00084E700238BE7B4F83439BAE7B4F834291A
:1043E000EAE7039B0A3B0093012300226FF063017D
:1043F0000AF084FFC3B2AAEB030189B23FB1B4F85B
:10440000382900920522304611F04AFFD9E7B4F866
:104410003429F6E7012A62D82DE9F04385B0054634
:1044200017461E46B1F57A7F01D340F2E7310A46BE
:104430002B4902A814F0B2FE2C1DD5F8781920469D
:1044400013F092FC0221204613F09EFC05F644185E
:10445000404611F0F6FD002301930093012302AAC8
:1044600041462046FFF71AFE11F050FED5F84439B8
:1044700003B31B88C41AA4B2143CA4B211F046FEC4
:10448000814611F049FE814516D8012F22D0B5F89A
:104490005E29B5F83439B6F5803F1ED3B5F83669D4
:1044A00001960093434621462846FFF73CFE05B09F
:1044B000BDE8F0830023DDE711F028FED5F844398C
:1044C00033B11B88C41AC4F34F043234A4B2DCE7FE
:1044D0000023F7E7B5F86E29DBE7B6B2E0E77047EF
:1044E000DC9F01082DE9F04182B005460C461E46CE
:1044F000DAB128274FF05A084246394620460AF0DA
:104500002FFF0023009355234246394680B20AF01C
:10451000F5FEC0B211F060FE034632462146284641
:10452000FFF778FF02B0BDE8F08150274FF0B408E4
:10453000E2E70000012B00D970472DE9F04F85B06C
:1045400004460F4616461D4600F10409D0F83019FE
:10455000484613F009FC484613F0F4FC1FFA80F8B3
:104560003968484613F082FC8246012D2CD1002187
:10457000B4F8343900934346B4F86829002011F0A8
:104580008FFEB4F86809504524D9A0EB0A00C0F3A7
:104590004F0B012D21D14246B4F8363900933B68C8
:1045A0005946484613F046FCDEB111F0AFFDA0F1CC
:1045B0001402B4F8363992B2B4F872190A2011F024
:1045C00053FF05B0BDE8F08F11F0A6FDA0EB080188
:1045D00089B2CDE74FF0000BDBE711F09DFD0246FD
:1045E000DAE70BEB0A0080B20A30A8F10E01B4F84A
:1045F0003439B4F836290392029310220192044B05
:1046000000930E2389B280B212F05EFBCDE700BFAB
:10461000ECA801082DE9F04387B004460D4690460A
:10462000642900D964252F2104F1640009F0E4FC19
:10463000814625232A46204904A814F0AFFD251DF4
:10464000D4F83019284613F08FFB284613F07AFC73
:1046500086B23246B4F86A1903A811F0ADFC012302
:104660000193002700973B464A4603A92846FFF7D7
:1046700015FD01970097022304AA03A92846FFF716
:104680000DFDB8F1000F14D0B4F8385911F044FD05
:10469000821B0195B4F83439009303AB92B2002128
:1046A0002046FFF740FD03A811F0BAFC07B0BDE8B3
:1046B000F083B4F83659E9E7E09F01082DE9F047A7
:1046C00088B004460D461646071DD0F83019384606
:1046D00013F04AFB384613F035FC05F109039BB291
:1046E0006C2B61D81FFA80F84323ADF8143016B94B
:1046F00046238DF814302A46354906A814F04EFD9D
:1047000011F004FD054605A9384613F0AFFB2D1A3C
:10471000ADB2A5F11E091FFA89F906A9384613F0B2
:10472000A5FBA9EB0006B6B2083EB6B211F0F4FC48
:10473000A0EB08001FFA80FA11F0E8FC0246B4F87A
:104740003439009343465146304611F0A9FD11F02B
:10475000E3FC0246B4F83639009305AB49463846C7
:1047600013F068FB263DADB211F0D6FCA0EB0801BA
:1047700089B20431B4F83439B4F83629039202937B
:1047800008220192134B0093052389B2284612F0A8
:104790009BFA11F0C1FC0246B4F83639009306AB1F
:1047A0003146384613F046FB11F0B0FCA0F1140579
:1047B000ADB211F0B1FCB4F87439C11AB4F836399D
:1047C0002A4689B20A2011F04FFE08B0BDE8F087F2
:1047D000E89F010808A90108012A38D870B582B0FD
:1047E000044608461546642900D96420D4F8503997
:1047F00033B35A88D2B203210AF091FD0146012D4C
:1048000020D0B4F85E6904F515650022284611F041
:1048100063FC11F07BFCD4F85039B3B11B88C11A8A
:1048200089B20539B4F836390193B4F834390093B4
:104830002B46324689B22046FFF775FC02B070BDA8
:104840000022D7E7B4F86E69DDE70023E7E7704799
:1048500030B585B004460846164D002229460AF0B8
:104860007FFD002200925523294600B20AF046FD42
:10487000C0B211F0B1FC94F840390133DBB284F8D6
:10488000403903F0030384F8403903EBC3030A4AB9
:1048900002EB4313B4F834290390029230220192C0
:1048A00000931346B4F86219B4F8600912F00CFAD8
:1048B00005B030BD18FCFFFF5CA4010800B585B051
:1048C00090F8403903EBC3030A4A02EB4313B0F8F4
:1048D000342945F2AA2103910292302201920093D9
:1048E0001346B0F86219B0F8600912F0EDF905B09E
:1048F0005DF804FB5CA40108012A26D800B585B048
:104900000346B0F86409B3F866C91AB9B3F8600988
:10491000B3F862C981B1B3F83429B3F836390393D7
:10492000029230220192094B00931346614612F025
:10493000CBF905B05DF804FBB3F8343900933023AC
:104940001A46614611F0ACFCF3E770473CA301083E
:104950002DE9F04182B004468846071DD0F8301991
:10496000384613F001FA384613F0ECFAC6B2414665
:10497000384613F083FAC5B211F0C8FB401B00EBB8
:10498000D070B4F83639009343463246C0F34F0135
:10499000384613F05DFA11F0B9FB431B03EBD373F8
:1049A0004FEA630CACF10A0CB4F8363905F1140285
:1049B000F11C1FFA8CF011F057FD02B0BDE8F08138
:1049C00010B50446643009F017FB01462046FFF796
:1049D000BFFF10BDF0B585B01E469DF82830012BF5
:1049E00013D80C46154612D0B0F85E791E3FBFB200
:1049F00011F08CFB2838039602951C22019200943A
:104A00001346394680B212F05FF905B0F0BD0027B9
:104A1000EEE7000000B583B0B0F83429009145F20C
:104A2000AA230349FFF7D6FF03B05DF804FB00BFDC
:104A3000CCA2010800B583B0B0F8342900914FF63C
:104A4000FF730349FFF7C6FF03B05DF804FB00BF27
:104A5000CCA2010800B583B0B0F8342900914FF41E
:104A6000FC630349FFF7B6FF03B05DF804FB00BF2A
:104A7000ECA1010800B583B0B0F8342900914FF4DF
:104A8000FC630349FFF7A6FF03B05DF804FB00BF1A
:104A90005CA2010800B583B0B0F8342900914FF44E
:104AA000FC630349FFF796FF03B05DF804FB00BF0A
:104AB0007CA1010800B583B0B0F8342900911F2310
:104AC0000249FFF787FF03B05DF804FB7CA10108F2
:104AD00000B583B0B0F8342900914FF4784303490E
:104AE000FFF778FF03B05DF804FB00BF0CA10108DD
:104AF0002DE9F04182B004460A46DFF89880244947
:104B0000404614F04BFB271DD4F83019384613F0FB
:104B10002BF904F64816304611F093FA002501955A
:104B200000952B46424631463846FFF7B7FA11F05A
:104B3000EDFAA0F12801B4F836390193B4F834390C
:104B4000009333462A4689B22046FFF7ECFAD4F8A0
:104B5000483943B15D88C5F11C056DB2002D04DCF8
:104B600002B0BDE8F0810025F5E711F0CFFA283852
:104B700080B2D4F8483943B15988B4F83439009335
:104B8000ABB2282211F08CFBEAE70021F5E700BF69
:104B9000E89F01088C78002030B583B004460D46AC
:104BA00010460A226FF031010AF0DAFB00B2002849
:104BB00012DB0021009155230A220AF09FFBC0B2AC
:104BC00011F00AFB03460095B4F834290749204642
:104BD000FFF700FF03B030BD55230093AA23002246
:104BE0006FF031010AF08AFBC0B2E9E7CCA20108FC
:104BF0002DE9F04F8FB00646049103920A939DF879
:104C000060300B93051DD0F83019284613F0ACF82E
:104C1000284613F097F95FFA80F808F10A085FFA5E
:104C200088F808F10C0A11F077FAA0EB0A0090FB63
:104C3000F8F0C3B2099311F069FA044611F06CFA66
:104C4000A04224D2322411F061FA0694A0EB44046D
:104C5000A4B2284613F076F982B221460DA811F0CD
:104C6000ABF906F1640307930499184609F0DCF9DF
:104C70008146099F874200D307460A9B73B11B7880
:104C80007BB1099B9F4204D0012305930BE01424C0
:104C9000D9E77B1EDFB20123059304E000230593CF
:104CA00001E000230593C7F3470C039BA3EB0C0C17
:104CB0005FFA8CFC0CF1010C4FFA8CFBB9F1010F7F
:104CC00001D99B4505D0BBF1000F07DB00250895F6
:104CD00019E003F1FF3C4FFA8CFBF4E709EB0B0CF6
:104CE0004FFA8CFBF2E7B6F83439B6F83619039868
:104CF000844235D0019100930DAB06993046FFF701
:104D000012FA0135EDB2AF4232D955FA8BF4E4B262
:104D1000A14502D8A4EB0904E4B2049BE118C9B28E
:104D20000131C9B2079809F067F902900DAB184636
:104D300011F087F9012301930A2300930023029ABB
:104D40000DA9301DFFF7AAF905FB08A292B2059B39
:104D5000002BC8D0089B002BC5D0424492B2C2E7BA
:104D600008EB020080B2089018460B460146C1E7E6
:104D7000059B43B9099B9F422ED30DA811F050F912
:104D80000FB0BDE8F08F0DA811F05BF9012301937E
:104D90000023009302230A9A0DA9301DFFF77EF924
:104DA0000B9B63B9B6F836390193B6F834390093E2
:104DB0000DAB089A06993046FFF7B5F9DDE74FF4D9
:104DC00078430193B6F8343900930DAB089A0699ED
:104DD0003046FFF7A8F9D0E717FB08F11AFA81F17E
:104DE00089B20D9B43B11A88B6F834390093434613
:104DF000069811F055FAC0E70022F5E72DE9F04FCB
:104E00008BB04C680B68E41AE4104A4B03FB04F4C3
:104E1000A5B20692954202D20BB0BDE8F08F0646CD
:104E20008B4600F10409D0F83019484612F09CFF77
:104E3000484613F087F85FFA80F808F10A085FFA2D
:104E400088F103910C31049111F060F9074648464E
:104E500013F078F8A7F1640182B289B209A811F0C1
:104E6000ABF8069B59B2ED1AADB2052D01D8A11FC2
:104E700049B200290CDBA0B2431A062BA8BF0623B7
:104E80005FFA83F800240591CDF81CB083460DE04D
:104E90000021F0E7CDF804A0CDF8009009AB3A4628
:104EA00032213046FFF73FF90134E4B2444528D2BD
:104EB000059B54FA83F5EDB209A811F0C2F8049BE2
:104EC000039A04FB0237BFB2B6F83499B6F836A994
:104ED0005D45DFDC079B1B6805EB450253F832207C
:104EE000012301930A230093002309A9301DFFF732
:104EF000D5F8069B9D42CDD1B6F83699B6F834A9BF
:104F0000C8E7B8F1050F0ED8049B039A08FB0231DD
:104F100089B2099B5BB11A88B6F834390093039BB8
:104F2000322011F0BDF909A811F07AF874E70022D7
:104F3000F2E700BFABAAAAAA2DE9F04F91B006464E
:104F4000079114461F4600F1040AD0F83019504664
:104F500012F00AFF504612F0F5FFC5B20535EDB26A
:104F600096F85C39BB4240F0A880B4F5805F01D36D
:104F700040F6FF7411F0D0F8471BBFB211F0C6F82D
:104F80008046A0F140091FFA89F9B4F5006F00F2DC
:104F900040812823009300234FF4006219462046E5
:104FA0000AF0ACF91FFA80FBCDF80090282340F6F8
:104FB000FF7240F601014FF461600AF09FF9C4B23C
:104FC0002034E4B27D1BADB2A5F10F01A8F1360289
:104FD000B6F836390193052300930A2392B289B2B9
:104FE0001B2011F054FAA5F10A081FFA88F8B6F848
:104FF00038390A2241461C2011F0C2FBB6F8363976
:105000000A2241461C2011F06AFBA5F10E081FFA86
:1050100088F8B6F83839009308235A4641462020CC
:1050200011F03EF909F1FF339B45C0F2FF80601E8D
:10503000691FB6F8363900930623032289B280B27D
:1050400011F02EF9079A80490EA814F0A7F843230F
:10505000ADF834300EA9504612F008FF8046C0F378
:105060004F03E41AA4B2B6F8363900930EAB3A46B1
:105070002146504612F0DEFE4444A4B2A01D291D74
:10508000B6F83439B6F83629039202930822019211
:105090006E4B0093052389B280B211F015FE04F126
:1050A0000E01B6F8363900930DAB3A4689B2504638
:1050B00012F0C0FE11B0BDE8F08F86F85C7905F102
:1050C0003C0811F023F8143800900023642219469C
:1050D00038460AF013F983B208932823009300237B
:1050E0006422194638460AF009F9C3B2099311F04F
:1050F0000DF8A0F10A091FFA89F911F007F80A382A
:1051000080B205F1140BB6F834390293CDF804B02F
:10511000009043464A4641460A2011F0B8FB10F081
:10512000F5FFA0F10A091FFA89F910F0EFFF0A381C
:1051300080B2B6F836390293CDF804B000904346F9
:105140004A4641460A2011F081FB9FBB2E2106F101
:10515000640008F051FF01460AA814F01FF806F693
:105160004417384610F06DFF00230193009301238C
:105170000AAA3946301DFEF791FF10F0C7FFD6F896
:105180004439002B43D01B88C01A00EBD07005EBCC
:105190000802B6F836190491B6F8341903910021C3
:1051A0000291019100970A32C0F34F013046FEF799
:1051B000D4FFDAE6089A0A3292B2099BA8EB0303FD
:1051C0009BB2B6F8361902910193009243464146CC
:1051D0000A2011F05CFB302106F1640008F00CFF9E
:1051E0008346FBF75DF85FFA80F9B9F1040F01D946
:1051F0004FF004094A4659460AA814F033F825230B
:105200003A4613490AA8484413F0C8FFA7E7002309
:10521000BAE7CDF80090282340F6FF7240F601016E
:1052200020460AF06BF81FFA80FBBDE60BF1200068
:10523000A9EB0B02B6F834390093082392B2414629
:1052400080B211F02DF8F2E6F49F010808A90108D8
:10525000EC9F01082DE9F04184B00546041DD0F80B
:105260003019204612F080FD204612F06BFEC4B2C9
:105270000534E4B21E3410F04FFF001B80B2431F10
:105280009EB213F0010F01D1063886B210F03EFF36
:105290000446D5F848397BB11B88E41AA4B2363CE1
:1052A000A4B2214605F1540002F012FA074628B9CB
:1052B000384604B0BDE8F0810023EEE7D5F8583950
:1052C00013B11B88002BF3D105F658180223324680
:1052D000214603A812F011F903A9404612F03AF949
:1052E00003A812F04EF9B5F83439ADF80430B5F82A
:1052F0003639ADF80630B5F83839ADF80830B5F8BC
:105300003A39ADF80A3004220DEB0201404612F0A2
:10531000C4F9CDE72DE9F04F89B004460591069216
:10532000079300F10408D0F83019404612F01CFD34
:10533000404612F007FEC5B20535EDB205F11E0973
:1053400010F0EAFEA0EB090080B2431F9EB213F0FA
:10535000010F01D1063886B27608D4F84839002BFF
:1053600000F0B0801F8807F1130B1FFA8BFB07F1C9
:10537000050A1FFA8AFA59FA86F610F0C7FEA0F15C
:105380004602B4F8363992B23146504611F06CF804
:1053900010F0BCFED4F84839002B00F095801B8833
:1053A000184480B24138B11EB4F83439B4F8362903
:1053B000039202934FF0080ACDF804A0464B0093E5
:1053C0000523524689B280B211F07EFC10F09EFE99
:1053D000A0F11401721FB4F8363900933F4B92B21A
:1053E00089B2404612F026FD10F096FEA0F10C02A4
:1053F000B4F8363992B20A21584611F03EF807F156
:105400001100B4F83439B4F8362903920293CDF878
:1054100004A0334B009353460522114680B211F08D
:1054200053FC0F37BFB2B4F8383909224946384621
:1054300011F01AF8B4F83A39092205EB0901384697
:1054400011F012F8D4F84839002B3FD019880F39E1
:10545000B4F838390093069B2A4689B2404612F0C8
:10546000E9FCD4F848399BB319881E31B4F83A39AD
:105470000093079B2A4689B2404612F0DBFCD4F821
:1054800048393BB31E880644B6B21E36B6B2DDF8C4
:1054900014904946404612F0E9FC074610F036FEEB
:1054A000831BD81B00EBD07006EB6001B4F83639D3
:1054B00000934B462A4689B2404612F0BBFC09B025
:1054C000BDE8F08F00274EE7002369E70021BEE723
:1054D0000021CAE70026D6E7E4A8010830AB01089E
:1054E000DCA801082DE9F0438BB00446022940D91D
:1054F00004F10408D4F83019404612F035FC404657
:1055000012F020FD5FFA80F903A9404612F0AEFCCC
:10551000064610F0FBFD851BC5F34F0510F0FCFDA2
:1055200000EB4000074600282ADBC7F38F07201D49
:10553000FEF7D4FDA5F10A0CC1B2791A89B20A3975
:1055400006F11402B4F83439009309F1140392B24D
:1055500089B21FFA8CF010F0A3FEB4F8363900932C
:1055600003AB3A462946404612F064FC0BB0BDE856
:10557000F083044B53F8211003A813F00FFEB7E794
:10558000C71CD2E700A101082DE9F04786B0054607
:105590008846174600F1040AD0F83019504612F038
:1055A000E3FB3B212846FFF70BFA504612F0CAFCFA
:1055B000C6B20536F6B206F10C0910F0A7FD044696
:1055C000504612F0BFFCA4F1640182B289B202A875
:1055D00010F0F2FC00240BE004FB06920191009312
:1055E00002AB92B232212846FEF79DFD0134E4B2AF
:1055F000022C1DD838F81420104B53F8241003A89F
:1056000013F0CCFD02A810F01CFD0023019305222D
:10561000009203AA02A9281DFEF740FDB5F836192D
:10562000B5F83439BC42D7D10A4619461346D3E7F8
:1056300002A810F0F5FC06B0BDE8F08700A1010853
:1056400070B582B004460D46061DD0F830193046BC
:1056500012F08AFB10F060FDA0F13202B4F83C3980
:1056600000932B4692B26421304612F0E3FB02B065
:1056700070BD10B50446D0F858390BB11B8823B95A
:1056800004F1540002F053F810BD00F6581011F068
:1056900078FFF5E72DE9F04F87B083460C4603927B
:1056A00000F164063A21304608F0A6FC0546BBF836
:1056B000340910F02FFE2146304608F09DFC037897
:1056C0003BBB0BF10404DBF83019204612F04CFB15
:1056D0000321204612F058FB2946204612F0CEFB4B
:1056E000064610F013FD861BC6F34F0610F014FD9E
:1056F000BBF8363900932B46C0F34F0231462046A3
:1057000012F0A6FB0121204612F03EFB07B0BDE8D7
:10571000F08F04460BF104031E46DBF830191846DF
:1057200012F022FB304612F00DFC83B205339BB21F
:1057300004932046FAF7B4FDC5B2681C13F070FC60
:1057400007460028E2D0214613F020FE4FF0000863
:105750004FF00109CDF814B0B34613E0049B19FBD8
:1057600003F2039B13FA82F2059BB3F836390093D8
:10577000434692B20021584612F06AFB35E00236E9
:105780005FFA86F8A8453CD208F10104E4B2264647
:105790000134E4B2A54202D93B5D0A2BF7D1A54200
:1057A00001D900233B55B8444146584612F066FBE8
:1057B0005FFA80FA10F0AAFC8245CFDA10F0A6FC5E
:1057C000A0EB0A0101EBD171049B19FB03F2039BCF
:1057D00013FA82F2059BB3F836390093434692B22E
:1057E000C1F34F01584612F033FB09F101095FFA8A
:1057F00089F9B9F1070F04D8A542C0D90A233B554E
:10580000BDE7384613F014FC80E700002DE9F04FA7
:1058100087B004460E4617469946DDF840A0051DA0
:10582000D0F83019284612F09FFA04F1640305936A
:105830003146184608F0E0FB0646284612F082FB87
:1058400080B2053083B204933146284612F016FB2D
:10585000804610F05BFC404530D80021B4F8363962
:10586000009333463A46284612F0F2FABAF1000F96
:1058700014D05146284612F001FB064610F046FCB3
:10588000B04222D80021049B1F44BFB2B4F836397D
:10589000009353463A46284612F0DAFA10F036FCE6
:1058A000D4F84839BBB11B88C01A2F4E86FB00368E
:1058B000A6EBE076B6B20025BB463EE010F026FC33
:1058C000A0EB0801C1F34F01C8E710F01FFC811BDA
:1058D000C1F34F01D7E70023E6E7B4F8347932E0AB
:1058E000B4F836A933E04521059808F085FB03900C
:1058F00004F64818404610F0A4FB0123019300224F
:105900000092039A4146201DFEF7C8FB2846D4F8B2
:10591000483923B31988049B0BEB0302314411FB74
:1059200000F13144CDF804A00097434692B289B209
:105930002046FEF7F8FB0135EDB2012D11D8A9453F
:10594000CBD0B4F83679A945CAD0B4F834A9002D23
:10595000C9D04621059808F04FFB0390C8E7002105
:10596000D9E707B0BDE8F08F565555552DE9F043FE
:105970008BB00546061DD0F83019304612F0F4F908
:10598000304612F0DFFA84B2621D1FFA82F8B5F8D1
:10599000340910F0BFFC0A212846FFF711F8113432
:1059A000A4B2DFF8A8904946304612F05FFA0746E5
:1059B00010F0ACFBC01B08EB0402B5F836390093BD
:1059C0004B4692B2C0F34F01304612F033FA02AFA9
:1059D0001B4A1C49384613F0E1FB3946304612F0A9
:1059E00045FA814610F092FBA0EB090004EB480257
:1059F000B5F8363900933B4692B2C0F34F013046BA
:105A000012F018FA104B93E8070087E807003946B0
:105A1000304612F02BFA814610F078FBA0EB09001B
:105A200008EB48022244B5F8363900933B4692B25F
:105A3000C0F34F01304612F0FDF90BB0BDE8F08322
:105A40000CA0010814A0010824A00108F89F010877
:105A50002DE9F04F8FB006468B46154608939DF80A
:105A600060709DF8643009939DF86830079300F1E9
:105A70000408D0F87C19404612F076F9404612F03E
:105A800061FA5FFA80F909F105095FFA89F909F10C
:105A90000C0A10F03BFBC0F34F04404612F052FAE0
:105AA000A4F1280182B289B20AA810F085FA002375
:105AB000019300939C4A0AA94046FEF7EFFA002D95
:105AC00000F0A880994A00230193009302230AA9B9
:105AD0004046FEF7E3FA0A9B002B00F09D801B88EE
